{"contracts/HemDealer.sol":{"HemDealer":{"abi":[{"inputs":[{"internalType":"string","name":"name","type":"string"},{"internalType":"string","name":"symbol","type":"string"}],"stateMutability":"nonpayable","type":"constructor"},{"anonymous":false,"inputs":[{"indexed":true,"internalType":"address","name":"owner","type":"address"},{"indexed":true,"internalType":"address","name":"approved","type":"address"},{"indexed":true,"internalType":"uint256","name":"tokenId","type":"uint256"}],"name":"Approval","type":"event"},{"anonymous":false,"inputs":[{"indexed":true,"internalType":"address","name":"owner","type":"address"},{"indexed":true,"internalType":"address","name":"operator","type":"address"},{"indexed":false,"internalType":"bool","name":"approved","type":"bool"}],"name":"ApprovalForAll","type":"event"},{"anonymous":false,"inputs":[{"indexed":true,"internalType":"uint256","name":"carId","type":"uint256"},{"indexed":true,"internalType":"address","name":"owner","type":"address"}],"name":"CarDeleted","type":"event"},{"anonymous":false,"inputs":[{"indexed":true,"internalType":"uint256","name":"carId","type":"uint256"},{"indexed":true,"internalType":"address","name":"seller","type":"address"},{"indexed":false,"internalType":"uint256","name":"price","type":"uint256"}],"name":"CarListed","type":"event"},{"anonymous":false,"inputs":[{"indexed":true,"internalType":"uint256","name":"carId","type":"uint256"},{"indexed":true,"internalType":"address","name":"seller","type":"address"},{"indexed":true,"internalType":"address","name":"buyer","type":"address"},{"indexed":false,"internalType":"uint256","name":"price","type":"uint256"}],"name":"CarSold","type":"event"},{"anonymous":false,"inputs":[{"indexed":true,"internalType":"uint256","name":"carId","type":"uint256"},{"indexed":true,"internalType":"address","name":"owner","type":"address"}],"name":"CarUpdated","type":"event"},{"anonymous":false,"inputs":[{"indexed":true,"internalType":"address","name":"handler","type":"address"}],"name":"CrossChainHandlerSet","type":"event"},{"anonymous":false,"inputs":[{"indexed":true,"internalType":"address","name":"previousOwner","type":"address"},{"indexed":true,"internalType":"address","name":"newOwner","type":"address"}],"name":"OwnershipTransferred","type":"event"},{"anonymous":false,"inputs":[{"indexed":true,"internalType":"address","name":"from","type":"address"},{"indexed":true,"internalType":"address","name":"to","type":"address"},{"indexed":true,"internalType":"uint256","name":"tokenId","type":"uint256"}],"name":"Transfer","type":"event"},{"inputs":[{"internalType":"address","name":"to","type":"address"},{"internalType":"uint256","name":"tokenId","type":"uint256"}],"name":"approve","outputs":[],"stateMutability":"nonpayable","type":"function"},{"inputs":[{"internalType":"address","name":"owner","type":"address"}],"name":"balanceOf","outputs":[{"internalType":"uint256","name":"","type":"uint256"}],"stateMutability":"view","type":"function"},{"inputs":[{"internalType":"uint256","name":"carId","type":"uint256"},{"internalType":"uint256","name":"relayerFeePct","type":"uint256"},{"internalType":"uint256","name":"quoteTimestamp","type":"uint256"}],"name":"buyCar","outputs":[],"stateMutability":"payable","type":"function"},{"inputs":[],"name":"crossChainHandler","outputs":[{"internalType":"contract HemDealerCrossChain","name":"","type":"address"}],"stateMutability":"view","type":"function"},{"inputs":[{"internalType":"uint256","name":"newCarId","type":"uint256"}],"name":"deleteCar","outputs":[],"stateMutability":"nonpayable","type":"function"},{"inputs":[],"name":"getAllCars","outputs":[{"components":[{"internalType":"uint256","name":"id","type":"uint256"},{"internalType":"address","name":"owner","type":"address"},{"internalType":"string","name":"name","type":"string"},{"internalType":"string[]","name":"images","type":"string[]"},{"internalType":"string","name":"description","type":"string"},{"internalType":"string","name":"make","type":"string"},{"internalType":"string","name":"model","type":"string"},{"internalType":"uint256","name":"year","type":"uint256"},{"internalType":"string","name":"vin","type":"string"},{"internalType":"uint256","name":"mileage","type":"uint256"},{"internalType":"string","name":"color","type":"string"},{"internalType":"enum HemDealer.CarCondition","name":"condition","type":"uint8"},{"internalType":"enum HemDealer.CarTransmission","name":"transmission","type":"uint8"},{"internalType":"enum HemDealer.FuelType","name":"fuelType","type":"uint8"},{"internalType":"uint256","name":"price","type":"uint256"},{"internalType":"string","name":"location","type":"string"},{"internalType":"string[]","name":"features","type":"string[]"},{"components":[{"internalType":"address","name":"wallet","type":"address"},{"internalType":"string","name":"sellerName","type":"string"},{"internalType":"string","name":"email","type":"string"},{"internalType":"uint256","name":"phoneNumber","type":"uint256"},{"internalType":"string","name":"profileImage","type":"string"}],"internalType":"struct HemDealer.SellerDetails","name":"seller","type":"tuple"},{"internalType":"bool","name":"sold","type":"bool"},{"internalType":"bool","name":"deleted","type":"bool"},{"internalType":"uint256","name":"destinationChainId","type":"uint256"},{"internalType":"address","name":"paymentToken","type":"address"},{"internalType":"uint256","name":"sourceChainId","type":"uint256"}],"internalType":"struct HemDealer.CarStruct[]","name":"","type":"tuple[]"}],"stateMutability":"view","type":"function"},{"inputs":[],"name":"getAllSales","outputs":[{"components":[{"internalType":"uint256","name":"id","type":"uint256"},{"internalType":"uint256","name":"newCarId","type":"uint256"},{"internalType":"uint256","name":"price","type":"uint256"},{"internalType":"address","name":"owner","type":"address"}],"internalType":"struct HemDealer.SalesStruct[]","name":"","type":"tuple[]"}],"stateMutability":"view","type":"function"},{"inputs":[{"internalType":"uint256","name":"tokenId","type":"uint256"}],"name":"getApproved","outputs":[{"internalType":"address","name":"","type":"address"}],"stateMutability":"view","type":"function"},{"inputs":[{"internalType":"uint256","name":"newCarId","type":"uint256"}],"name":"getCar","outputs":[{"components":[{"internalType":"uint256","name":"id","type":"uint256"},{"internalType":"address","name":"owner","type":"address"},{"internalType":"string","name":"name","type":"string"},{"internalType":"string[]","name":"images","type":"string[]"},{"internalType":"string","name":"description","type":"string"},{"internalType":"string","name":"make","type":"string"},{"internalType":"string","name":"model","type":"string"},{"internalType":"uint256","name":"year","type":"uint256"},{"internalType":"string","name":"vin","type":"string"},{"internalType":"uint256","name":"mileage","type":"uint256"},{"internalType":"string","name":"color","type":"string"},{"internalType":"enum HemDealer.CarCondition","name":"condition","type":"uint8"},{"internalType":"enum HemDealer.CarTransmission","name":"transmission","type":"uint8"},{"internalType":"enum HemDealer.FuelType","name":"fuelType","type":"uint8"},{"internalType":"uint256","name":"price","type":"uint256"},{"internalType":"string","name":"location","type":"string"},{"internalType":"string[]","name":"features","type":"string[]"},{"components":[{"internalType":"address","name":"wallet","type":"address"},{"internalType":"string","name":"sellerName","type":"string"},{"internalType":"string","name":"email","type":"string"},{"internalType":"uint256","name":"phoneNumber","type":"uint256"},{"internalType":"string","name":"profileImage","type":"string"}],"internalType":"struct HemDealer.SellerDetails","name":"seller","type":"tuple"},{"internalType":"bool","name":"sold","type":"bool"},{"internalType":"bool","name":"deleted","type":"bool"},{"internalType":"uint256","name":"destinationChainId","type":"uint256"},{"internalType":"address","name":"paymentToken","type":"address"},{"internalType":"uint256","name":"sourceChainId","type":"uint256"}],"internalType":"struct HemDealer.CarStruct","name":"","type":"tuple"}],"stateMutability":"view","type":"function"},{"inputs":[],"name":"getMyCars","outputs":[{"components":[{"internalType":"uint256","name":"id","type":"uint256"},{"internalType":"address","name":"owner","type":"address"},{"internalType":"string","name":"name","type":"string"},{"internalType":"string[]","name":"images","type":"string[]"},{"internalType":"string","name":"description","type":"string"},{"internalType":"string","name":"make","type":"string"},{"internalType":"string","name":"model","type":"string"},{"internalType":"uint256","name":"year","type":"uint256"},{"internalType":"string","name":"vin","type":"string"},{"internalType":"uint256","name":"mileage","type":"uint256"},{"internalType":"string","name":"color","type":"string"},{"internalType":"enum HemDealer.CarCondition","name":"condition","type":"uint8"},{"internalType":"enum HemDealer.CarTransmission","name":"transmission","type":"uint8"},{"internalType":"enum HemDealer.FuelType","name":"fuelType","type":"uint8"},{"internalType":"uint256","name":"price","type":"uint256"},{"internalType":"string","name":"location","type":"string"},{"internalType":"string[]","name":"features","type":"string[]"},{"components":[{"internalType":"address","name":"wallet","type":"address"},{"internalType":"string","name":"sellerName","type":"string"},{"internalType":"string","name":"email","type":"string"},{"internalType":"uint256","name":"phoneNumber","type":"uint256"},{"internalType":"string","name":"profileImage","type":"string"}],"internalType":"struct HemDealer.SellerDetails","name":"seller","type":"tuple"},{"internalType":"bool","name":"sold","type":"bool"},{"internalType":"bool","name":"deleted","type":"bool"},{"internalType":"uint256","name":"destinationChainId","type":"uint256"},{"internalType":"address","name":"paymentToken","type":"address"},{"internalType":"uint256","name":"sourceChainId","type":"uint256"}],"internalType":"struct HemDealer.CarStruct[]","name":"","type":"tuple[]"}],"stateMutability":"view","type":"function"},{"inputs":[{"internalType":"address","name":"owner","type":"address"},{"internalType":"address","name":"operator","type":"address"}],"name":"isApprovedForAll","outputs":[{"internalType":"bool","name":"","type":"bool"}],"stateMutability":"view","type":"function"},{"inputs":[{"components":[{"internalType":"string","name":"name","type":"string"},{"internalType":"string[]","name":"images","type":"string[]"},{"internalType":"string","name":"description","type":"string"},{"internalType":"string","name":"make","type":"string"},{"internalType":"string","name":"model","type":"string"},{"internalType":"uint256","name":"year","type":"uint256"},{"internalType":"string","name":"vin","type":"string"}],"internalType":"struct HemDealer.CarBasicDetails","name":"basicDetails","type":"tuple"},{"components":[{"internalType":"uint256","name":"mileage","type":"uint256"},{"internalType":"string","name":"color","type":"string"},{"internalType":"enum HemDealer.CarCondition","name":"condition","type":"uint8"},{"internalType":"enum HemDealer.CarTransmission","name":"transmission","type":"uint8"},{"internalType":"enum HemDealer.FuelType","name":"fuelType","type":"uint8"},{"internalType":"uint256","name":"price","type":"uint256"}],"internalType":"struct HemDealer.CarTechnicalDetails","name":"technicalDetails","type":"tuple"},{"components":[{"internalType":"string","name":"location","type":"string"},{"internalType":"string","name":"carHistory","type":"string"},{"internalType":"string[]","name":"features","type":"string[]"}],"internalType":"struct HemDealer.CarAdditionalInfo","name":"additionalInfo","type":"tuple"},{"components":[{"internalType":"address","name":"wallet","type":"address"},{"internalType":"string","name":"sellerName","type":"string"},{"internalType":"string","name":"email","type":"string"},{"internalType":"uint256","name":"phoneNumber","type":"uint256"},{"internalType":"string","name":"profileImage","type":"string"}],"internalType":"struct HemDealer.SellerDetails","name":"sellerDetails","type":"tuple"},{"internalType":"uint256","name":"destinationChainId","type":"uint256"},{"internalType":"address","name":"paymentToken","type":"address"}],"name":"listCar","outputs":[],"stateMutability":"nonpayable","type":"function"},{"inputs":[],"name":"name","outputs":[{"internalType":"string","name":"","type":"string"}],"stateMutability":"view","type":"function"},{"inputs":[],"name":"owner","outputs":[{"internalType":"address","name":"","type":"address"}],"stateMutability":"view","type":"function"},{"inputs":[{"internalType":"uint256","name":"tokenId","type":"uint256"}],"name":"ownerOf","outputs":[{"internalType":"address","name":"","type":"address"}],"stateMutability":"view","type":"function"},{"inputs":[],"name":"renounceOwnership","outputs":[],"stateMutability":"nonpayable","type":"function"},{"inputs":[{"internalType":"address","name":"from","type":"address"},{"internalType":"address","name":"to","type":"address"},{"internalType":"uint256","name":"tokenId","type":"uint256"}],"name":"safeTransferFrom","outputs":[],"stateMutability":"nonpayable","type":"function"},{"inputs":[{"internalType":"address","name":"from","type":"address"},{"internalType":"address","name":"to","type":"address"},{"internalType":"uint256","name":"tokenId","type":"uint256"},{"internalType":"bytes","name":"data","type":"bytes"}],"name":"safeTransferFrom","outputs":[],"stateMutability":"nonpayable","type":"function"},{"inputs":[{"internalType":"address","name":"operator","type":"address"},{"internalType":"bool","name":"approved","type":"bool"}],"name":"setApprovalForAll","outputs":[],"stateMutability":"nonpayable","type":"function"},{"inputs":[{"internalType":"address payable","name":"_handler","type":"address"}],"name":"setCrossChainHandler","outputs":[],"stateMutability":"nonpayable","type":"function"},{"inputs":[{"internalType":"bytes4","name":"interfaceId","type":"bytes4"}],"name":"supportsInterface","outputs":[{"internalType":"bool","name":"","type":"bool"}],"stateMutability":"view","type":"function"},{"inputs":[],"name":"symbol","outputs":[{"internalType":"string","name":"","type":"string"}],"stateMutability":"view","type":"function"},{"inputs":[{"internalType":"uint256","name":"tokenId","type":"uint256"}],"name":"tokenURI","outputs":[{"internalType":"string","name":"","type":"string"}],"stateMutability":"view","type":"function"},{"inputs":[{"internalType":"address","name":"from","type":"address"},{"internalType":"address","name":"to","type":"address"},{"internalType":"uint256","name":"tokenId","type":"uint256"}],"name":"transferFrom","outputs":[],"stateMutability":"nonpayable","type":"function"},{"inputs":[{"internalType":"address","name":"newOwner","type":"address"}],"name":"transferOwnership","outputs":[],"stateMutability":"nonpayable","type":"function"},{"inputs":[{"internalType":"uint256","name":"newCarId","type":"uint256"},{"components":[{"internalType":"string","name":"name","type":"string"},{"internalType":"string[]","name":"images","type":"string[]"},{"internalType":"string","name":"description","type":"string"},{"internalType":"string","name":"make","type":"string"},{"internalType":"string","name":"model","type":"string"},{"internalType":"uint256","name":"year","type":"uint256"},{"internalType":"string","name":"vin","type":"string"}],"internalType":"struct HemDealer.CarBasicDetails","name":"basicDetails","type":"tuple"},{"components":[{"internalType":"uint256","name":"mileage","type":"uint256"},{"internalType":"string","name":"color","type":"string"},{"internalType":"enum HemDealer.CarCondition","name":"condition","type":"uint8"},{"internalType":"enum HemDealer.CarTransmission","name":"transmission","type":"uint8"},{"internalType":"enum HemDealer.FuelType","name":"fuelType","type":"uint8"},{"internalType":"uint256","name":"price","type":"uint256"}],"internalType":"struct HemDealer.CarTechnicalDetails","name":"technicalDetails","type":"tuple"},{"components":[{"internalType":"string","name":"location","type":"string"},{"internalType":"string","name":"carHistory","type":"string"},{"internalType":"string[]","name":"features","type":"string[]"}],"internalType":"struct HemDealer.CarAdditionalInfo","name":"additionalInfo","type":"tuple"},{"components":[{"internalType":"address","name":"wallet","type":"address"},{"internalType":"string","name":"sellerName","type":"string"},{"internalType":"string","name":"email","type":"string"},{"internalType":"uint256","name":"phoneNumber","type":"uint256"},{"internalType":"string","name":"profileImage","type":"string"}],"internalType":"struct HemDealer.SellerDetails","name":"sellerDetails","type":"tuple"}],"name":"updateCar","outputs":[],"stateMutability":"nonpayable","type":"function"}],"evm":{"bytecode":{"linkReferences":{},"object":"6080604052346200038957620058fd803803806200001d816200038e565b928339810190604081830312620003895780516001600160401b03908181116200038957836200004f918401620003ca565b916020938482015183811162000389576200006b9201620003ca565b60008054336001600160a01b031982168117835591949291906001600160a01b03167f8be0079c531659141344cd1fd0a4f28419497f9722a3daafe3b4186f6b6457e08680a381519383851162000293576001948554938685811c951680156200037e575b888610146200036a578190601f9586811162000317575b508890868311600114620002b3578492620002a7575b5050600019600383901b1c191690861b1785555b815193841162000293576002548581811c9116801562000288575b8782101462000274578381116200022b575b5085928411600114620001c55791839491849394620001b9575b50501b916000199060031b1c1916176002555b331562000182576040516154c090816200043d8239f35b6064906040519062461bcd60e51b82526004820152601060248201526f24b73b30b634b2103232b83637bcb2b960811b6044820152fd5b01519250388062000158565b919083601f19811660028552878520945b8888838310620002135750505010620001f9575b505050811b016002556200016b565b015160001960f88460031b161c19169055388080620001ea565b868601518855909601959485019487935001620001d6565b600282528682208480870160051c8201928988106200026a575b0160051c019086905b8281106200025e5750506200013e565b8381550186906200024e565b9250819262000245565b634e487b7160e01b82526022600452602482fd5b90607f16906200012c565b634e487b7160e01b81526041600452602490fd5b015190503880620000fd565b8885528985208994509190601f198416865b8c828210620003005750508411620002e6575b505050811b01855562000111565b015160001960f88460031b161c19169055388080620002d8565b8385015186558c97909501949384019301620002c5565b9091508784528884208680850160051c8201928b861062000360575b918a91869594930160051c01915b82811062000351575050620000e7565b8681558594508a910162000341565b9250819262000333565b634e487b7160e01b83526022600452602483fd5b94607f1694620000d0565b600080fd5b6040519190601f01601f191682016001600160401b03811183821017620003b457604052565b634e487b7160e01b600052604160045260246000fd5b919080601f84011215620003895782516001600160401b038111620003b45760209062000400601f8201601f191683016200038e565b92818452828287010111620003895760005b8181106200042857508260009394955001015290565b85810183015184820184015282016200041256fe6102c080604052600436101561001457600080fd5b6000908161010052813560e01c90816301ffc9a7146142b55750806306fdde031461420c578063081812fc146141ee578063095ea7b31461406257806323b872dd1461403e5780633339691714613e45578063341fa05d14613d2657806342842e0e14613cf15780635e8be19014613c595780636009808814613b0d5780636352211e14613add5780636c3f3871146123dd57806370a0823114612342578063715018a6146122e15780638d9d710a14610ad85780638da5cb5b14610aae57806395d89b41146109c757806396cc304f1461095b578063a22cb46514610875578063abfe5d571461077b578063b88d4fde146106ef578063c87b56dd14610679578063d03703f51461064d578063e13db45a14610268578063e985e9c5146102125763f2fde38b1461014557600080fd5b3461020b57602036600319011261020b5761015e61436a565b906101676148ee565b6001600160a01b039182169182156101b75781546001600160a01b031981168417835516907f8be0079c531659141344cd1fd0a4f28419497f9722a3daafe3b4186f6b6457e09080a36101005180f35b60405162461bcd60e51b815260206004820152602660248201527f4f776e61626c653a206e6577206f776e657220697320746865207a65726f206160448201526564647265737360d01b6064820152608490fd5b6101005180fd5b503461020b57604036600319011261020b5760ff604060209261023361436a565b61023b614385565b61010080516001600160a01b03938416905260068752518490209116825284522054604051911615158152f35b606036600319011261020b57602480356004358061010051526020926009845260018060a01b039060016102a8838260406101005120015416151561513f565b836101005152600986526102cc60ff601460406101005120015460081c1615615180565b8361010051526009865260406101005120916014830195865460ff8116158061063e575b1561060757600c850197885434106105cc576103128760168801541615614f24565b6015860180549092869146146104fe5750505085600b541686600f870154168254823b1561020b576040519163757d6d9b60e01b8352346004840152868301526044820152836064820152604435918260848301528160a481610100519334905af180156104e1576104ef575b5086600b5416915492823b1561020b5760405193635aa50c6b60e11b85528960048601528585015260448401526064830152816084816101005180945af180156104e1576104ca575b505b816008540180600855856101005152600a88526040610100512092875491604051906103f582614689565b815289810190888252604081019384526060810195338752805490600160401b8210156104b1579061042b91858201815561546e565b95909561049a575051845551908301555160028201559051600390910180546001600160a01b031916918416919091179055600f01549254604051908152339493909116927f8205a71867f7292bcef9e53d4774758d6173b03f63017dec9a03a6664b429dc591a46101005180f35b634e487b7160e01b61010051526101005180600452fd5b86634e487b7160e01b6101005152604160045261010051fd5b6104d3906146d6565b6101005180156103c8575b80fd5b6040513d61010051823e3d90fd5b6104f8906146d6565b8a61037f565b919350915060ff1916179055818301336001600160601b0360a01b82541617905583600f8401610532873384845416614c74565b5416801561058857610100518080809334905af161054e614d85565b506103ca5786600f6064926040519262461bcd60e51b845260048401528201526e151c985b9cd9995c8819985a5b1959608a1b6044820152fd5b60405162461bcd60e51b815260048101899052601a818401527f43616e6e6f742070617920746f207a65726f20616464726573730000000000006044820152606490fd5b60405162461bcd60e51b8152600481018b905260148186015273125b9cdd59999a58da595b9d081c185e5b595b9d60621b6044820152606490fd5b60405162461bcd60e51b8152600481018a90526010818501526f496e76616c696420707572636861736560801b6044820152606490fd5b508584860154163314156102f0565b3461020b5761010051806003193601126104de57600b546040516001600160a01b039091168152602090f35b3461020b57602036600319011261020b576004356000908152600360205260409020546106b0906001600160a01b03161515614946565b6040516106bc81614704565b6101005190526106eb6040516106d181614704565b61010051815260405191829160208352602083019061432a565b0390f35b3461020b57608036600319011261020b5761070861436a565b610710614385565b90606435906044356001600160401b03831161020b573660238401121561020b576107749361074c61076f94369060248160040135910161475b565b9261075f61075a8433614bac565b614ad3565b61076a838383614c74565b614ea9565b614b88565b6101005180f35b3461020b5761010051806003193601126104de576007549060015b8281111561083057506107a8906153f4565b90610100516001905b828211156107c757604051806106eb8682614627565b8161010051526009602052604061010051209160ff601484015460081c16156107fc575b6107f69192506153cf565b906107b1565b610827826108166108106107f695926153cf565b95615218565b6108208289615444565b5286615444565b508291506107eb565b806101005152600960205260ff601460406101005120015460081c1615610860575b61085b906153cf565b610796565b9061086d61085b916153cf565b919050610852565b3461020b57604036600319011261020b5761088e61436a565b602435908115159081830361020b576001600160a01b031691338314610916576108e39033610100515260066020526101005184604082209152602052604061010051209060ff801983541691151516179055565b6040519081527f17307eab39ab6107e8899845ad3d59bd9653f200f220920489ca2b5937696c3160203392a36101005180f35b60405162461bcd60e51b815260206004820152601960248201527f4552433732313a20617070726f766520746f2063616c6c6572000000000000006044820152606490fd5b3461020b57602036600319011261020b576004356001600160a01b0381169081900361020b576109896148ee565b600b80546001600160a01b0319168217905561010051907fe29ca28fd64dbdc992ce63b7fc32e81b50e1f2e800e0bbbb994cea2e35aa047c8280a280f35b3461020b5761010051806003193601126104de57604051906002546109eb816149b5565b80845290600190818116908115610a875750600114610a29575b6106eb84610a158186038261471f565b60405191829160208352602083019061432a565b6101008051600290525192507f405787fa12a823e0f2b7631cc41b3ba8828b3321ca811111fa75cd3aa3bb5ace5b828410610a6f575050508101602001610a1582610a05565b80546020858701810191909152909301928101610a57565b60ff191660208087019190915292151560051b85019092019250610a159150839050610a05565b3461020b5761010051806003193601126104de57546040516001600160a01b039091168152602090f35b3461020b5760a036600319011261020b576001600160401b036024351161020b5760e06024353603600319011261020b5760405160e081018181106001600160401b0382111761170857604052602435600401356001600160401b03811161020b57610b4c90600436916024350101614792565b81526024803501356001600160401b03811161020b57610b7490600436916024350101614836565b6020820152604460243501356001600160401b03811161020b57610ba090600436916024350101614792565b6040820152606460243501356001600160401b03811161020b57610bcc90600436916024350101614792565b6060820152608460243501356001600160401b03811161020b57610bf890600436916024350101614792565b608082015260243560a481013560a083015260c401356001600160401b03811161020b57610c2e90600436916024350101614792565b60c08201526001600160401b036044351161020b5760c06044353603600319011261020b576040518060c08101106001600160401b0360c0830111176117085760c081016040526044356004013581526001600160401b03602460443501351161020b57610ca736604435602481013501600401614792565b60208201526003604480350135101561020b576044803501356040820152600260646044350135101561020b57606460443501356060820152600460846044350135101561020b576044356084810135608083015260a4013560a08201526001600160401b036064351161020b5760606064353603600319011261020b576040518060608101106001600160401b0360608301111761170857606081016040526001600160401b03606435600401351161020b57610d713660046064358101356064350101614792565b81526001600160401b03602460643501351161020b57610d9c36606435602481013501600401614792565b60208201526001600160401b03604460643501351161020b57610dca36606435604481013501600401614836565b60408201526001600160401b036084351161020b57610dee36608435600401614851565b9260a08301511561229c5780515115612260576020810151511561221b57606081015151156121df57608081015151156121a25783516101008051600435905260096020525160409020600f01546001600160a01b0391821691160361215d5783516001600160a01b031633036121185780519260208201516101605260408201516101c05260608201519060808301519160c060a08501519401519180519060208101516040820151906003821015611aec576060830151936002851015611aec576080840151966004881015611aec578a99610fb999610fac98604060a0610f9f9901519d519e01519e600435610100515260096020526017604061010051208060a05260ff60148201541660c05260158101546102a05260018060a01b03601682015416608052015461014052610f2e60405180610260526146ba565b600435610260515233602061026051015260406102605101526101605160606102605101526101c051608061026051015260a061026051015260c061026051015260e06102605101526101006102605101526101206102605101526101406102605101526101606102605101614feb565b6101806102605101614ff7565b6101a06102605101615003565b6101c06102605101526101e061026051015261020061026051015261022061026051015260c051151561024061026051015261010051610260805101526102a0516102806102605101526080516102a0610260510152610140516102c0610260510152600435610100515260096020526101005160408120906040610260518051845560018060a01b036020820151166001600160601b0360a01b60018601541617600185015501518051916001600160401b0383116121005750819061108360028501546149b5565b601f81116120c7575b506101005190602091601f841160011461205457506101005192612049575b50508160011b916000199060031b1c19161760028201555b6060610260510151805190600160401b8211611708576003830154826003850155808310611fc6575b5061010080516003850190525160208082209392015b828210611e99578460806102605101518051906001600160401b03821161170857819061113260048501546149b5565b601f8111611e60575b506101005190602091601f8411600114611ded57506101005192611de2575b50508160011b916000199060031b1c19161760048201555b60a06102605101518051906001600160401b03821161170857819061119a60058501546149b5565b601f8111611da9575b506101005190602091601f8411600114611d3657506101005192611d2b575b50508160011b916000199060031b1c19161760058201555b60c06102605101518051906001600160401b03821161170857819061120260068501546149b5565b601f8111611cf2575b506101005190602091601f8411600114611c7f57506101005192611c74575b50508160011b916000199060031b1c19161760068201555b6101006102605160e0810151600784015501518051906001600160401b03821161170857819061127560088501546149b5565b601f8111611c3b575b506101005190602091601f8411600114611bc857506101005192611bbd575b50508160011b916000199060031b1c19161760088201555b61014061026051610120810151600984015501518051906001600160401b0382116117085781906112e9600a8501546149b5565b601f8111611b84575b506101005190602091601f8411600114611b1157506101005192611b06575b50508160011b916000199060031b1c191617600a8201555b6101606102605101516003811015611aec57600b820154610180610260510151906002821015611aec576101a0610260510151906004821015611aec5760ff62ff000061ff009360101b1694169062ffffff1916179160081b161717600b8201556101e0610260516101c0810151600c84015501518051906001600160401b0382116117085781906113be600d8501546149b5565b601f8111611ab3575b506101005190602091601f8411600114611a4057506101005192611a35575b50508160011b916000199060031b1c191617600d8201555b610200610260510151805190600160401b821161170857600e83015482600e8501558083106119b2575b506101008051600e850190525160208082209392015b8282106118905784600f8101906102206102605101519160018060a01b038351166001600160601b0360a01b82541617905560208201519182516001600160401b0381116117085761149360108401546149b5565b601f8111611857575b5061010051602090601f83116001146117e857508192939461010051926117dd575b50508160011b916000199060031b1c19161760108301555b60408101519081516001600160401b038111611708576114f960118501546149b5565b601f81116117a4575b5061010051602090601f831160011461172d575081906080946101005192611722575b50508160011b916000199060031b1c19161760118401555b6060810151601284015501519081516001600160401b03811161170857601382019061156982546149b5565b601f81116116c7575b5061010051602090601f83116001146116605750819293946101005192611655575b50508160011b916000199060031b1c19161790555b60176102c0601483016115f361026051916115d76102408401511515829060ff801983541691151516179055565b610260830151815461ff00191690151560081b61ff0016179055565b61028081015160158501556016840160018060a01b036102a0830151166001600160601b0360a01b825416179055015191015561010051336004357f0ac4673e0c14f555f7a29dc1abe824e57feeb4dc61dffc46e24a31d970178d6a8380a380f35b015190508480611594565b83905261010051602081209190601f198416905b8181106116af57509583600195969710611696575b505050811b0190556115a9565b015160001960f88460031b161c19169055848080611689565b9192602060018192868b015181550194019201611674565b6116f89083610100515260206101005120601f840160051c810191602085106116fe575b601f0160051c019061500f565b84611572565b90915081906116eb565b634e487b7160e01b61010051526041600452602461010051fd5b015190508580611525565b60118695939495019052610100519160208320925b601f198516811061178c575091839160019360809695601f19811610611773575b505050811b01601184015561153d565b015160001960f88460031b161c19169055858080611763565b91926020600181928685015181550194019201611742565b6117d79060118601610100515260206101005120601f840160051c810191602085106116fe57601f0160051c019061500f565b84611502565b0151905084806114be565b601085019052610100519060208220915b601f198416811061183f5750600193949583601f19811610611826575b505050811b0160108301556114d6565b015160001960f88460031b161c19169055848080611816565b9091602060018192858a0151815501930191016117f9565b61188a9060108501610100515260206101005120601f840160051c810191602085106116fe57601f0160051c019061500f565b8461149c565b80518051906001600160401b038211611708576118ad86546149b5565b601f811161197c575b50610100519086602092601f851160011461190d57505092826001949360209386956101005192611902575b5050600019600383901b1c191690841b1787555b0194019101909261143e565b015190508a806118e2565b5261010051602081209291905b601f1985168110611964575083602093600196938796938794601f1981161061194b575b505050811b0187556118f6565b015160001960f88460031b161c191690558a808061193e565b9192602060018192868501518155019401920161191a565b6119ac9087610100515260206101005120601f850160051c810191602086106116fe57601f0160051c019061500f565b876118b6565b600e8401610100515260206101005120908382015b81830181106119d7575050611428565b806119e4600192546149b5565b806119f1575b50016119c7565b601f81118314611a0957506101005181555b876119ea565b8161010051526101005190611a2c601f60208420920160051c820185830161500f565b81835555611a03565b0151905083806113e6565b600d86019052610100516020812090945091905b601f1984168510611a98576001945083601f19811610611a7f575b505050811b01600d8201556113fe565b015160001960f88460031b161c19169055838080611a6f565b81810151835560209485019460019093019290910190611a54565b611ae690600d8601610100515260206101005120601f850160051c810191602086106116fe57601f0160051c019061500f565b846113c7565b634e487b7160e01b61010051526021600452602461010051fd5b015190508380611311565b600a86019052610100516020812090945091905b601f1984168510611b69576001945083601f19811610611b50575b505050811b01600a820155611329565b015160001960f88460031b161c19169055838080611b40565b81810151835560209485019460019093019290910190611b25565b611bb790600a8601610100515260206101005120601f850160051c810191602086106116fe57601f0160051c019061500f565b846112f2565b01519050838061129d565b600886019052610100516020812090945091905b601f1984168510611c20576001945083601f19811610611c07575b505050811b0160088201556112b5565b015160001960f88460031b161c19169055838080611bf7565b81810151835560209485019460019093019290910190611bdc565b611c6e9060088601610100515260206101005120601f850160051c810191602086106116fe57601f0160051c019061500f565b8461127e565b01519050838061122a565b600686019052610100516020812090945091905b601f1984168510611cd7576001945083601f19811610611cbe575b505050811b016006820155611242565b015160001960f88460031b161c19169055838080611cae565b81810151835560209485019460019093019290910190611c93565b611d259060068601610100515260206101005120601f850160051c810191602086106116fe57601f0160051c019061500f565b8461120b565b0151905083806111c2565b600586019052610100516020812090945091905b601f1984168510611d8e576001945083601f19811610611d75575b505050811b0160058201556111da565b015160001960f88460031b161c19169055838080611d65565b81810151835560209485019460019093019290910190611d4a565b611ddc9060058601610100515260206101005120601f850160051c810191602086106116fe57601f0160051c019061500f565b846111a3565b01519050838061115a565b600486019052610100516020812090945091905b601f1984168510611e45576001945083601f19811610611e2c575b505050811b016004820155611172565b015160001960f88460031b161c19169055838080611e1c565b81810151835560209485019460019093019290910190611e01565b611e939060048601610100515260206101005120601f850160051c810191602086106116fe57601f0160051c019061500f565b8461113b565b80518051906001600160401b03821161170857611eb686546149b5565b601f8111611f85575b50610100519086602092601f8511600114611f1657505092826001949360209386956101005192611f0b575b5050600019600383901b1c191690841b1787555b01940191019092611102565b015190508a80611eeb565b5261010051602081209291905b601f1985168110611f6d575083602093600196938796938794601f19811610611f54575b505050811b018755611eff565b015160001960f88460031b161c191690558a8080611f47565b91926020600181928685015181550194019201611f23565b611fb690876101005152602061010051206005601f8601811c82019260208710611fbc575b601f01901c019061500f565b87611ebf565b9192508291611faa565b60038401610100515260206101005120908382015b8183018110611feb5750506110ec565b80611ff8600192546149b5565b80612005575b5001611fdb565b601f8111831461201d57506101005181555b87611ffe565b8161010051526101005190612040601f60208420920160051c820185830161500f565b81835555612017565b0151905083806110ab565b600286019052610100516020812090945091905b601f19841685106120ac576001945083601f19811610612093575b505050811b0160028201556110c3565b015160001960f88460031b161c19169055838080612083565b81810151835560209485019460019093019290910190612068565b6120fa9060028601610100515260206101005120601f850160051c810191602086106116fe57601f0160051c019061500f565b8461108c565b634e487b7160e01b9052604160045261010051602490fd5b60405162461bcd60e51b815260206004820152601f60248201527f53656c6c65722077616c6c6574206d757374206d617463682073656e646572006044820152606490fd5b60405162461bcd60e51b815260206004820152601b60248201527f43616e6e6f74206368616e67652073656c6c65722077616c6c657400000000006044820152606490fd5b60405162461bcd60e51b81526020600482015260156024820152744d6f64656c2063616e6e6f7420626520656d70747960581b6044820152606490fd5b60405162461bcd60e51b81526020600482015260146024820152734d616b652063616e6e6f7420626520656d70747960601b6044820152606490fd5b60405162461bcd60e51b815260206004820152601e60248201527f4174206c65617374206f6e6520696d61676520697320726571756972656400006044820152606490fd5b60405162461bcd60e51b81526020600482015260146024820152734e616d652063616e6e6f7420626520656d70747960601b6044820152606490fd5b60405162461bcd60e51b815260206004820152601c60248201527f5072696365206d7573742062652067726561746572207468616e2030000000006044820152606490fd5b3461020b5761010051806003193601126104de576122fd6148ee565b6101005180546001600160a01b03198116825581906001600160a01b03167f8be0079c531659141344cd1fd0a4f28419497f9722a3daafe3b4186f6b6457e08280a380f35b3461020b57602036600319011261020b576001600160a01b0361236361436a565b168015612386576101005152600460205260206040610100512054604051908152f35b60405162461bcd60e51b815260206004820152602960248201527f4552433732313a2061646472657373207a65726f206973206e6f7420612076616044820152683634b21037bbb732b960b91b6064820152608490fd5b3461020b5760031960c03682011261020b576001600160401b036004351161020b5760e0816004353603011261020b576001600160401b036024351161020b5760c0816024353603011261020b576001600160401b036044351161020b576060816044353603011261020b576064359081610240526001600160401b03821161020b5760a0913603011261020b5760a4356101a08190526001600160a01b0381169081900361020b576124909015614f24565b610240516004016001600160a01b036124a882614f70565b1633149081613ac1575b5015613a8b5760a4602435013515613a56576124d8602460043501600435600401614f84565b905015613a25576301e1338042046107b28101809111613a0b5760a46004350135116139d757633b9aca006024356004013510156139a05760078054600101610180819052905561252d600480350180614fb9565b6101205261020052612549602460043501600435600401614f84565b9061255e604460043501600435600401614fb9565b90612573606460043501600435600401614fb9565b90612588608460043501600435600401614fb9565b909161259e60c460043501600435600401614fb9565b9490956125b46024803501602435600401614fb9565b989099600360446024350135101561020b57600260646024350135101561020b57600460846024350135101561020b576125f360046044350180614fb9565b9c9060e0526044356044016044356004019061260e91614f84565b610220526101e0526040518061028052612627906146ba565b610180516102805152336102805160200152366101205190610200519161264d9261475b565b61028051604001523690612660926147c7565b610280516060015236906126739261475b565b610280516080015236906126869261475b565b6102805160a0015236906126999261475b565b6102805160c0015260043560a401356102805160e0015236906126bb9261475b565b6102805161010001526024356004013561028051610120015236906126df9261475b565b6102805161014001526024356044013561028051610160019061270191614feb565b6024356064013561028051610180019061271a91614ff7565b60243560840135610280516101a0019061273391615003565b60243560a40135610280516101c001523660e051916127519261475b565b610280516101e001523661022051906101e0519161276e926147c7565b61028051610200015236610240516004019061278991614851565b6102805161022001526101005161028051610240015261010051610280516102600152608435610280516102800152600160a01b600190036101a05116610280516102a0015261010051610280516102c0015261018051610100515260096020526101005160408120906102805180518355600160a01b600190036020820151166001600160601b0360a01b600185015416176001840155604001518051916001600160401b0383116121005750819061284660028501546149b5565b601f8111613967575b506101005190602091601f84116001146138f4575061010051926138e9575b50508160011b916000199060031b1c19161760028201555b6060610280510151805190600160401b8211611708576003830154826003850155808310613866575b5061010080516003850190525160208082209392015b828210613744578460806102805101518051906001600160401b0382116117085781906128f560048501546149b5565b601f811161370b575b506101005190602091601f84116001146136985750610100519261368d575b50508160011b916000199060031b1c19161760048201555b60a06102805101518051906001600160401b03821161170857819061295d60058501546149b5565b601f8111613654575b506101005190602091601f84116001146135e1575061010051926135d6575b50508160011b916000199060031b1c19161760058201555b60c06102805101518051906001600160401b0382116117085781906129c560068501546149b5565b601f811161359d575b506101005190602091601f841160011461352a5750610100519261351f575b50508160011b916000199060031b1c19161760068201555b6101006102805160e0810151600784015501518051906001600160401b038211611708578190612a3860088501546149b5565b601f81116134e6575b506101005190602091601f841160011461347357506101005192613468575b50508160011b916000199060031b1c19161760088201555b61014061028051610120810151600984015501518051906001600160401b038211611708578190612aac600a8501546149b5565b601f811161342f575b506101005190602091601f84116001146133bc575061010051926133b1575b50508160011b916000199060031b1c191617600a8201555b6101606102805101516003811015611aec57600b820154610180610280510151906002821015611aec576101a0610280510151906004821015611aec5760ff62ff000061ff009360101b1694169062ffffff1916179160081b161717600b8201556101e0610280516101c0810151600c84015501518051906001600160401b038211611708578190612b81600d8501546149b5565b601f8111613378575b506101005190602091601f8411600114613305575061010051926132fa575b50508160011b916000199060031b1c191617600d8201555b610200610280510151805190600160401b821161170857600e83015482600e850155808310613277575b506101008051600e850190525160208082209392015b8282106131555784600f8101906102206102805101519160018060a01b038351166001600160601b0360a01b82541617905560208201519182516001600160401b03811161170857612c5660108401546149b5565b601f811161311c575b5061010051602090601f83116001146130ad57508192939461010051926130a2575b50508160011b916000199060031b1c19161760108301555b60408101519081516001600160401b03811161170857612cbc60118501546149b5565b601f8111613069575b5061010051602090601f8311600114612ff2575081906080946101005192612fe7575b50508160011b916000199060031b1c19161760118401555b6060810151601284015501518051906001600160401b038211611708578190612d2c60138501546149b5565b601f8111612fae575b506101005190602091601f8411600114612f3b57506101005192612f30575b50508160011b916000199060031b1c19161760138201555b60176102c060148301612d9a61028051916115d76102408401511515829060ff801983541691151516179055565b61028081015160158501556016840160018060a01b036102a0830151166001600160601b0360a01b8254161790550151910155604051612dd981614704565b6101005181523315612eec5761018051600090815260036020526040902054612eae9161076f91612e16906001600160a01b031615155b15615026565b61018051600090815260036020526040902054612e3d906001600160a01b03161515612e10565b336101005152600460205261010051604081206001815401905561018051905260036020526101005160408120336001600160601b0360a01b82541617905561018051809133907fddf252ad1be2c89b69c2b068fc378daa952ba7f163c4a11628f55a4df523b3ef8180a433614db5565b60405160a46024350135815233907f346237025e4b201cfbdb8011c7afcd8a0cc16c50e910d6ac5645ab7406be429d60206101805192a36101005180f35b606460405162461bcd60e51b815260206004820152602060248201527f4552433732313a206d696e7420746f20746865207a65726f20616464726573736044820152fd5b015190508380612d54565b601386019052610100516020812090945091905b601f1984168510612f93576001945083601f19811610612f7a575b505050811b016013820155612d6c565b015160001960f88460031b161c19169055838080612f6a565b81810151835560209485019460019093019290910190612f4f565b612fe19060138601610100515260206101005120601f850160051c810191602086106116fe57601f0160051c019061500f565b84612d35565b015190508580612ce8565b60118695939495019052610100519160208320925b601f1985168110613051575091839160019360809695601f19811610613038575b505050811b016011840155612d00565b015160001960f88460031b161c19169055858080613028565b91926020600181928685015181550194019201613007565b61309c9060118601610100515260206101005120601f840160051c810191602085106116fe57601f0160051c019061500f565b84612cc5565b015190508480612c81565b601085019052610100519060208220915b601f19841681106131045750600193949583601f198116106130eb575b505050811b016010830155612c99565b015160001960f88460031b161c191690558480806130db565b9091602060018192858a0151815501930191016130be565b61314f9060108501610100515260206101005120601f840160051c810191602085106116fe57601f0160051c019061500f565b84612c5f565b80518051906001600160401b0382116117085761317286546149b5565b601f8111613241575b50610100519086602092601f85116001146131d2575050928260019493602093869561010051926131c7575b5050600019600383901b1c191690841b1787555b01940191019092612c01565b015190508a806131a7565b5261010051602081209291905b601f1985168110613229575083602093600196938796938794601f19811610613210575b505050811b0187556131bb565b015160001960f88460031b161c191690558a8080613203565b919260206001819286850151815501940192016131df565b6132719087610100515260206101005120601f850160051c810191602086106116fe57601f0160051c019061500f565b8761317b565b600e8401610100515260206101005120908382015b818301811061329c575050612beb565b806132a9600192546149b5565b806132b6575b500161328c565b601f811183146132ce57506101005181555b876132af565b81610100515261010051906132f1601f60208420920160051c820185830161500f565b818355556132c8565b015190508380612ba9565b600d86019052610100516020812090945091905b601f198416851061335d576001945083601f19811610613344575b505050811b01600d820155612bc1565b015160001960f88460031b161c19169055838080613334565b81810151835560209485019460019093019290910190613319565b6133ab90600d8601610100515260206101005120601f850160051c810191602086106116fe57601f0160051c019061500f565b84612b8a565b015190508380612ad4565b600a86019052610100516020812090945091905b601f1984168510613414576001945083601f198116106133fb575b505050811b01600a820155612aec565b015160001960f88460031b161c191690558380806133eb565b818101518355602094850194600190930192909101906133d0565b61346290600a8601610100515260206101005120601f850160051c810191602086106116fe57601f0160051c019061500f565b84612ab5565b015190508380612a60565b600886019052610100516020812090945091905b601f19841685106134cb576001945083601f198116106134b2575b505050811b016008820155612a78565b015160001960f88460031b161c191690558380806134a2565b81810151835560209485019460019093019290910190613487565b6135199060088601610100515260206101005120601f850160051c810191602086106116fe57601f0160051c019061500f565b84612a41565b0151905083806129ed565b600686019052610100516020812090945091905b601f1984168510613582576001945083601f19811610613569575b505050811b016006820155612a05565b015160001960f88460031b161c19169055838080613559565b8181015183556020948501946001909301929091019061353e565b6135d09060068601610100515260206101005120601f850160051c810191602086106116fe57601f0160051c019061500f565b846129ce565b015190508380612985565b600586019052610100516020812090945091905b601f1984168510613639576001945083601f19811610613620575b505050811b01600582015561299d565b015160001960f88460031b161c19169055838080613610565b818101518355602094850194600190930192909101906135f5565b6136879060058601610100515260206101005120601f850160051c810191602086106116fe57601f0160051c019061500f565b84612966565b01519050838061291d565b600486019052610100516020812090945091905b601f19841685106136f0576001945083601f198116106136d7575b505050811b016004820155612935565b015160001960f88460031b161c191690558380806136c7565b818101518355602094850194600190930192909101906136ac565b61373e9060048601610100515260206101005120601f850160051c810191602086106116fe57601f0160051c019061500f565b846128fe565b80518051906001600160401b0382116117085761376186546149b5565b601f8111613830575b50610100519086602092601f85116001146137c1575050928260019493602093869561010051926137b6575b5050600019600383901b1c191690841b1787555b019401910190926128c5565b015190508a80613796565b5261010051602081209291905b601f1985168110613818575083602093600196938796938794601f198116106137ff575b505050811b0187556137aa565b015160001960f88460031b161c191690558a80806137f2565b919260206001819286850151815501940192016137ce565b61386090876101005152602061010051206005601f8601811c82019260208710611fbc57601f01901c019061500f565b8761376a565b60038401610100515260206101005120908382015b818301811061388b5750506128af565b80613898600192546149b5565b806138a5575b500161387b565b601f811183146138bd57506101005181555b8761389e565b81610100515261010051906138e0601f60208420920160051c820185830161500f565b818355556138b7565b01519050838061286e565b600286019052610100516020812090945091905b601f198416851061394c576001945083601f19811610613933575b505050811b016002820155612886565b015160001960f88460031b161c19169055838080613923565b81810151835560209485019460019093019290910190613908565b61399a9060028601610100515260206101005120601f850160051c810191602086106116fe57601f0160051c019061500f565b8461284f565b60405162461bcd60e51b815260206004820152600f60248201526e496e76616c6964206d696c6561676560881b6044820152606490fd5b60405162461bcd60e51b815260206004820152600c60248201526b24b73b30b634b2103cb2b0b960a11b6044820152606490fd5b634e487b7160e01b61010051526011600452602461010051fd5b60405162461bcd60e51b81526020600482015260096024820152684e6f20696d6167657360b81b6044820152606490fd5b60405162461bcd60e51b815260206004820152600d60248201526c496e76616c696420707269636560981b6044820152606490fd5b60405162461bcd60e51b815260206004820152600e60248201526d24b73b30b634b21039b2b63632b960911b6044820152606490fd5b6001600160a01b039150613ad490614f70565b161515816124b2565b3461020b57602036600319011261020b576020613afb600435614992565b6040516001600160a01b039091168152f35b3461020b5760208060031936011261020b576004358061010051526009825260ff601460406101005120015460081c16613c1e57806101005152600982526014604061010051200161010061ff0019825416179055613b6b81614992565b5080613b7681614992565b816101005152600584526003610100519460408620926001600160601b0360a01b9384815416905560018060a01b0316809652600481528361010051604081206000198154019055525261010051938491604083209081541690557fddf252ad1be2c89b69c2b068fc378daa952ba7f163c4a11628f55a4df523b3ef8280a433907f975848b3b721e792b1afe72032f4fa971d1faeb9bfd806ccf1ffada5bac8bafe8380a380f35b60405162461bcd60e51b815260048101839052601360248201527210d85c88185b1c9958591e4819195b195d1959606a1b6044820152606490fd5b3461020b5760208060031936011261020b57600435613c76615072565b50610100805182905260098352516040902060010154613ca0906001600160a01b0316151561513f565b80610100515260098252613cc460ff601460406101005120015460081c1615615180565b610100515260098152613cdc60406101005120615218565b906106eb60405192828493845283019061442c565b3461020b5761077461076f613d053661439b565b9060405192613d1384614704565b61010051845261075f61075a8433614bac565b3461020b5761010051806003193601126104de576007549060015b82811115613de05750613d53906153f4565b90610100516001905b82821115613d7257604051806106eb8682614627565b8161010051526009602052604061010051209160ff601484015460081c161580613dca575b613dad575b613da79192506153cf565b90613d5c565b613dc182610816610810613da795926153cf565b50829150613d9c565b5060018301546001600160a01b03163314613d97565b80610100515260096020526040610100512060ff601482015460081c16159081613e2e575b50613e19575b613e14906153cf565b613d41565b90613e26613e14916153cf565b919050613e0b565b600101546001600160a01b03163314905084613e05565b3461020b5761010051806003193601126104de5760075460015b81811115613ff85750613e71826147b0565b91613e7f604051938461471f565b808352613e8e601f19916147b0565b01610100515b818110613fc3575050610100516001905b82821115613f16578360405160209182820183835281518091528360408401920193610100515b828110613ed95784840385f35b8551805185528083015185840152604080820151908601526060908101516001600160a01b03169085015294810194608090930192600101613ecc565b6101009391929351905b8361010051526020600a8152604061010051208054841015613fac5791613fa091613f4e85613fa69561546e565b5060405191613f5c83614689565b8154835260018201549083015260028101546040830152600301546001600160a01b03166060820152613f8f8287615444565b52613f9a8186615444565b506153cf565b916153cf565b90613f20565b505092613fbc91509391936153cf565b9091613ea5565b602090604051613fd281614689565b610100805182528051848301528051604083015251606082015285820183015201613e94565b91826101005152600a6020526101005160408120548201809211614026575061402190926153cf565b613e5f565b634e487b7160e01b9052601160045261010051602490fd5b3461020b5761077461404f3661439b565b9161405d61075a8433614bac565b614c74565b3461020b57604036600319011261020b5761407b61436a565b6024356001600160a01b03808061409184614992565b1693169280841461419f57803314908115614173575b501561410857816101005152600560205260406101005120836001600160601b0360a01b8254161790556140da82614992565b169161010051927f8c5be1e5ebec7d5bd14f71427d1e84f3dd0314c0f7b2291e5b200ac8c7c3b9258480a480f35b60405162461bcd60e51b815260206004820152603d60248201527f4552433732313a20617070726f76652063616c6c6572206973206e6f7420746f60448201527f6b656e206f776e6572206f7220617070726f76656420666f7220616c6c0000006064820152608490fd5b90506101005152600660205261010051604081209033905260205260ff604061010051205416846140a7565b60405162461bcd60e51b815260206004820152602160248201527f4552433732313a20617070726f76616c20746f2063757272656e74206f776e656044820152603960f91b6064820152608490fd5b3461020b57602036600319011261020b576020613afb600435614a95565b3461020b5761010051806003193601126104de57604051906001805490614232826149b5565b80855291818116908115610a875750600114614258576106eb84610a158186038261471f565b61010080518290525192507fb10e2d527612073b26eecdfd717e6a320cf44b4afac2b0732d9fcbe2b7fa0cf65b82841061429d575050508101602001610a1582610a05565b80546020858701810191909152909301928101614285565b9050346143265760203660031901126143265760043563ffffffff60e01b811680910361432257602092506380ac58cd60e01b8114908115614311575b8115614300575b5015158152f35b6301ffc9a760e01b149050386142f9565b635b5e139f60e01b811491506142f2565b8280fd5b5080fd5b919082519283825260005b848110614356575050826000602080949584010152601f8019910116010190565b602081830181015184830182015201614335565b600435906001600160a01b038216820361438057565b600080fd5b602435906001600160a01b038216820361438057565b6060906003190112614380576001600160a01b0390600435828116810361438057916024359081168103614380579060443590565b908082519081815260208091019281808460051b8301019501936000915b8483106143fe5750505050505090565b909192939495848061441c600193601f198682030187528a5161432a565b98019301930191949392906143ee565b908151815260018060a01b03918260208201511660208301526144f56144d66144b86144a661449461448261447060408801516102e08060408c01528a019061432a565b606088015189820360608b01526143d0565b608087015188820360808a015261432a565b60a086015187820360a089015261432a565b60c085015186820360c088015261432a565b60e084015160e086015261010080850151908683039087015261432a565b610120808401519085015261014080840151908583039086015261432a565b610160808301519060038210156146115784015261018080830151906002821015614611578401526101a080830151906004821015614611576145d1926145709261455c928701526101c080860151908701526101e080860151908783039088015261432a565b6102008085015190868303908701526143d0565b6102209081840151918582039086015285825116815260806145b66145a4602085015160a0602086015260a085019061432a565b6040850151848203604086015261432a565b9260608101516060840152015190608081840391015261432a565b92610240808301511515908401526102608083015115159084015261028080830151908401526102a0908183015116908301526102c08091015191015290565b634e487b7160e01b600052602160045260246000fd5b602080820190808352835180925260408301928160408460051b8301019501936000915b84831061465b5750505050505090565b9091929394958480614679600193603f198682030187528a5161442c565b980193019301919493929061464b565b608081019081106001600160401b038211176146a457604052565b634e487b7160e01b600052604160045260246000fd5b6102e081019081106001600160401b038211176146a457604052565b6001600160401b0381116146a457604052565b60a081019081106001600160401b038211176146a457604052565b602081019081106001600160401b038211176146a457604052565b90601f801991011681019081106001600160401b038211176146a457604052565b6001600160401b0381116146a457601f01601f191660200190565b92919261476782614740565b91614775604051938461471f565b829481845281830111614380578281602093846000960137010152565b9080601f83011215614380578160206147ad9335910161475b565b90565b6001600160401b0381116146a45760051b60200190565b929190926147d4846147b0565b916147e2604051938461471f565b829480845260208094019060051b8301928284116143805780915b84831061480c57505050505050565b82356001600160401b03811161438057869161482b8684938601614792565b8152019201916147fd565b9080601f83011215614380578160206147ad933591016147c7565b919060a083820312614380576040519061486a826146e9565b909283919080356001600160a01b03811681036143805783526001600160401b0391602082013583811161438057816148a4918401614792565b6020850152604082013583811161438057816148c1918401614792565b6040850152606082013560608501526080820135928311614380576080926148e99201614792565b910152565b6000546001600160a01b0316330361490257565b606460405162461bcd60e51b815260206004820152602060248201527f4f776e61626c653a2063616c6c6572206973206e6f7420746865206f776e65726044820152fd5b1561494d57565b60405162461bcd60e51b815260206004820152601860248201527f4552433732313a20696e76616c696420746f6b656e20494400000000000000006044820152606490fd5b6000908152600360205260409020546001600160a01b03166147ad811515614946565b90600182811c921680156149e5575b60208310146149cf57565b634e487b7160e01b600052602260045260246000fd5b91607f16916149c4565b9060405191826000825492614a03846149b5565b908184526001948581169081600014614a725750600114614a2f575b5050614a2d9250038361471f565b565b9093915060005260209081600020936000915b818310614a5a575050614a2d93508201013880614a1f565b85548884018501529485019487945091830191614a42565b915050614a2d94506020925060ff191682840152151560051b8201013880614a1f565b600081815260036020526040902054614ab8906001600160a01b03161515614946565b6000908152600560205260409020546001600160a01b031690565b15614ada57565b60405162461bcd60e51b815260206004820152602d60248201527f4552433732313a2063616c6c6572206973206e6f7420746f6b656e206f776e6560448201526c1c881bdc88185c1c1c9bdd9959609a1b6064820152608490fd5b60809060208152603260208201527f4552433732313a207472616e7366657220746f206e6f6e20455243373231526560408201527131b2b4bb32b91034b6b83632b6b2b73a32b960711b60608201520190565b15614b8f57565b60405162461bcd60e51b815280614ba860048201614b35565b0390fd5b906001600160a01b038080614bc084614992565b16931691838314938415614bf3575b508315614bdd575b50505090565b614be991929350614a95565b1614388080614bd7565b909350600052600660205260406000208260005260205260ff604060002054169238614bcf565b15614c2157565b60405162461bcd60e51b815260206004820152602560248201527f4552433732313a207472616e736665722066726f6d20696e636f72726563742060448201526437bbb732b960d91b6064820152608490fd5b90614c9c91614c8284614992565b6001600160a01b0393918416928492909183168414614c1a565b16918215614d345781614cb991614cb286614992565b1614614c1a565b7fddf252ad1be2c89b69c2b068fc378daa952ba7f163c4a11628f55a4df523b3ef60008481526005602052604081206001600160601b0360a01b9081815416905583825260046020526040822060001981540190558482526040822060018154019055858252600360205284604083209182541617905580a4565b60405162461bcd60e51b8152602060048201526024808201527f4552433732313a207472616e7366657220746f20746865207a65726f206164646044820152637265737360e01b6064820152608490fd5b3d15614db0573d90614d9682614740565b91614da4604051938461471f565b82523d6000602084013e565b606090565b9091600091803b15614ea057614e006020918493604051948580948193630a85bd0160e11b9a8b8452336004850152846024850152604484015260806064840152608483019061432a565b03926001600160a01b03165af190829082614e58575b5050614e4a57614e24614d85565b80519081614e455760405162461bcd60e51b815280614ba860048201614b35565b602001fd5b6001600160e01b0319161490565b909192506020813d8211614e98575b81614e746020938361471f565b810103126143265751906001600160e01b0319821682036104de5750903880614e16565b3d9150614e67565b50505050600190565b91926000929190813b15614f1a57602091614eff9185604051958680958194630a85bd0160e11b9b8c845233600485015260018060a01b038095166024850152604484015260806064840152608483019061432a565b0393165af190829082614e58575050614e4a57614e24614d85565b5050505050600190565b15614f2b57565b60405162461bcd60e51b815260206004820152601b60248201527f4f6e6c79206e617469766520746f6b656e20737570706f7274656400000000006044820152606490fd5b356001600160a01b03811681036143805790565b903590601e198136030182121561438057018035906001600160401b03821161438057602001918160051b3603831361438057565b903590601e198136030182121561438057018035906001600160401b0382116143805760200191813603831361438057565b60038210156146115752565b60028210156146115752565b60048210156146115752565b81811061501a575050565b6000815560010161500f565b1561502d57565b60405162461bcd60e51b815260206004820152601c60248201527f4552433732313a20746f6b656e20616c7265616479206d696e746564000000006044820152606490fd5b6040519061507f826146ba565b816102c0600091828152826020820152606080604083015280808301528060808301528060a08301528060c08301528360e08301528061010083015283610120830152806101408301528361016083015283610180830152836101a0830152836101c0830152806101e08301528061020083015260405190615100826146e9565b84825280602083015280604083015284818301526080820152610220820152826102408201528261026082015282610280820152826102a08201520152565b1561514657565b60405162461bcd60e51b815260206004820152601260248201527110d85c88191bd95cc81b9bdd08195e1a5cdd60721b6044820152606490fd5b1561518757565b60405162461bcd60e51b815260206004820152601460248201527310d85c881a185cc81899595b8819195b195d195960621b6044820152606490fd5b9081546151cf816147b0565b926151dd604051948561471f565b818452600090815260208082208186015b8484106151fc575050505050565b600183819261520a856149ef565b8152019201930192906151ee565b90604051615225816146ba565b6102c0601782948054845260018060a01b0380600183015416602086015261524f600283016149ef565b6040860152615260600383016151c3565b6060860152615271600483016149ef565b6080860152615282600583016149ef565b60a0860152615293600683016149ef565b60c0860152600782015460e08601526152ae600883016149ef565b61010086015260098201546101208601526152cb600a83016149ef565b61014086015261530c60ff600b8401546152eb8282166101608a01614feb565b6152fe828260081c166101808a01614ff7565b60101c166101a08701615003565b600c8201546101c0860152615323600d83016149ef565b6101e0860152615335600e83016151c3565b610200860152604051615347816146e9565b81600f84015416815261535c601084016149ef565b602082015261536d601184016149ef565b604082015260128301546060820152615388601384016149ef565b608082015261022086015260ff6014830154818116151561024088015260081c16151561026086015260158201546102808601526016820154166102a08501520154910152565b60001981146153de5760010190565b634e487b7160e01b600052601160045260246000fd5b906153fe826147b0565b61540b604051918261471f565b828152809261541c601f19916147b0565b019060005b82811061542d57505050565b602090615438615072565b82828501015201615421565b80518210156154585760209160051b010190565b634e487b7160e01b600052603260045260246000fd5b80548210156154585760005260206000209060021b019060009056fea264697066735822122032ba19ef1e3fbfb1c64f8fb82d395866ade94968e6b3bbb38e7f24424b0a8d0e64736f6c63430008130033","opcodes":"PUSH1 0x80 PUSH1 0x40 MSTORE CALLVALUE PUSH3 0x389 JUMPI PUSH3 0x58FD DUP1 CODESIZE SUB DUP1 PUSH3 0x1D DUP2 PUSH3 0x38E JUMP JUMPDEST SWAP3 DUP4 CODECOPY DUP2 ADD SWAP1 PUSH1 0x40 DUP2 DUP4 SUB SLT PUSH3 0x389 JUMPI DUP1 MLOAD PUSH1 0x1 PUSH1 0x1 PUSH1 0x40 SHL SUB SWAP1 DUP2 DUP2 GT PUSH3 0x389 JUMPI DUP4 PUSH3 0x4F SWAP2 DUP5 ADD PUSH3 0x3CA JUMP JUMPDEST SWAP2 PUSH1 0x20 SWAP4 DUP5 DUP3 ADD MLOAD DUP4 DUP2 GT PUSH3 0x389 JUMPI PUSH3 0x6B SWAP3 ADD PUSH3 0x3CA JUMP JUMPDEST PUSH1 0x0 DUP1 SLOAD CALLER PUSH1 0x1 PUSH1 0x1 PUSH1 0xA0 SHL SUB NOT DUP3 AND DUP2 OR DUP4 SSTORE SWAP2 SWAP5 SWAP3 SWAP2 SWAP1 PUSH1 0x1 PUSH1 0x1 PUSH1 0xA0 SHL SUB AND PUSH32 0x8BE0079C531659141344CD1FD0A4F28419497F9722A3DAAFE3B4186F6B6457E0 DUP7 DUP1 LOG3 DUP2 MLOAD SWAP4 DUP4 DUP6 GT PUSH3 0x293 JUMPI PUSH1 0x1 SWAP5 DUP6 SLOAD SWAP4 DUP7 DUP6 DUP2 SHR SWAP6 AND DUP1 ISZERO PUSH3 0x37E JUMPI JUMPDEST DUP9 DUP7 LT EQ PUSH3 0x36A JUMPI DUP2 SWAP1 PUSH1 0x1F SWAP6 DUP7 DUP2 GT PUSH3 0x317 JUMPI JUMPDEST POP DUP9 SWAP1 DUP7 DUP4 GT PUSH1 0x1 EQ PUSH3 0x2B3 JUMPI DUP5 SWAP3 PUSH3 0x2A7 JUMPI JUMPDEST POP POP PUSH1 0x0 NOT PUSH1 0x3 DUP4 SWAP1 SHL SHR NOT AND SWAP1 DUP7 SHL OR DUP6 SSTORE JUMPDEST DUP2 MLOAD SWAP4 DUP5 GT PUSH3 0x293 JUMPI PUSH1 0x2 SLOAD DUP6 DUP2 DUP2 SHR SWAP2 AND DUP1 ISZERO PUSH3 0x288 JUMPI JUMPDEST DUP8 DUP3 LT EQ PUSH3 0x274 JUMPI DUP4 DUP2 GT PUSH3 0x22B JUMPI JUMPDEST POP DUP6 SWAP3 DUP5 GT PUSH1 0x1 EQ PUSH3 0x1C5 JUMPI SWAP2 DUP4 SWAP5 SWAP2 DUP5 SWAP4 SWAP5 PUSH3 0x1B9 JUMPI JUMPDEST POP POP SHL SWAP2 PUSH1 0x0 NOT SWAP1 PUSH1 0x3 SHL SHR NOT AND OR PUSH1 0x2 SSTORE JUMPDEST CALLER ISZERO PUSH3 0x182 JUMPI PUSH1 0x40 MLOAD PUSH2 0x54C0 SWAP1 DUP2 PUSH3 0x43D DUP3 CODECOPY RETURN JUMPDEST PUSH1 0x64 SWAP1 PUSH1 0x40 MLOAD SWAP1 PUSH3 0x461BCD PUSH1 0xE5 SHL DUP3 MSTORE PUSH1 0x4 DUP3 ADD MSTORE PUSH1 0x10 PUSH1 0x24 DUP3 ADD MSTORE PUSH16 0x24B73B30B634B2103232B83637BCB2B9 PUSH1 0x81 SHL PUSH1 0x44 DUP3 ADD MSTORE REVERT JUMPDEST ADD MLOAD SWAP3 POP CODESIZE DUP1 PUSH3 0x158 JUMP JUMPDEST SWAP2 SWAP1 DUP4 PUSH1 0x1F NOT DUP2 AND PUSH1 0x2 DUP6 MSTORE DUP8 DUP6 KECCAK256 SWAP5 JUMPDEST DUP9 DUP9 DUP4 DUP4 LT PUSH3 0x213 JUMPI POP POP POP LT PUSH3 0x1F9 JUMPI JUMPDEST POP POP POP DUP2 SHL ADD PUSH1 0x2 SSTORE PUSH3 0x16B JUMP JUMPDEST ADD MLOAD PUSH1 0x0 NOT PUSH1 0xF8 DUP5 PUSH1 0x3 SHL AND SHR NOT AND SWAP1 SSTORE CODESIZE DUP1 DUP1 PUSH3 0x1EA JUMP JUMPDEST DUP7 DUP7 ADD MLOAD DUP9 SSTORE SWAP1 SWAP7 ADD SWAP6 SWAP5 DUP6 ADD SWAP5 DUP8 SWAP4 POP ADD PUSH3 0x1D6 JUMP JUMPDEST PUSH1 0x2 DUP3 MSTORE DUP7 DUP3 KECCAK256 DUP5 DUP1 DUP8 ADD PUSH1 0x5 SHR DUP3 ADD SWAP3 DUP10 DUP9 LT PUSH3 0x26A JUMPI JUMPDEST ADD PUSH1 0x5 SHR ADD SWAP1 DUP7 SWAP1 JUMPDEST DUP3 DUP2 LT PUSH3 0x25E JUMPI POP POP PUSH3 0x13E JUMP JUMPDEST DUP4 DUP2 SSTORE ADD DUP7 SWAP1 PUSH3 0x24E JUMP JUMPDEST SWAP3 POP DUP2 SWAP3 PUSH3 0x245 JUMP JUMPDEST PUSH4 0x4E487B71 PUSH1 0xE0 SHL DUP3 MSTORE PUSH1 0x22 PUSH1 0x4 MSTORE PUSH1 0x24 DUP3 REVERT JUMPDEST SWAP1 PUSH1 0x7F AND SWAP1 PUSH3 0x12C JUMP JUMPDEST PUSH4 0x4E487B71 PUSH1 0xE0 SHL DUP2 MSTORE PUSH1 0x41 PUSH1 0x4 MSTORE PUSH1 0x24 SWAP1 REVERT JUMPDEST ADD MLOAD SWAP1 POP CODESIZE DUP1 PUSH3 0xFD JUMP JUMPDEST DUP9 DUP6 MSTORE DUP10 DUP6 KECCAK256 DUP10 SWAP5 POP SWAP2 SWAP1 PUSH1 0x1F NOT DUP5 AND DUP7 JUMPDEST DUP13 DUP3 DUP3 LT PUSH3 0x300 JUMPI POP POP DUP5 GT PUSH3 0x2E6 JUMPI JUMPDEST POP POP POP DUP2 SHL ADD DUP6 SSTORE PUSH3 0x111 JUMP JUMPDEST ADD MLOAD PUSH1 0x0 NOT PUSH1 0xF8 DUP5 PUSH1 0x3 SHL AND SHR NOT AND SWAP1 SSTORE CODESIZE DUP1 DUP1 PUSH3 0x2D8 JUMP JUMPDEST DUP4 DUP6 ADD MLOAD DUP7 SSTORE DUP13 SWAP8 SWAP1 SWAP6 ADD SWAP5 SWAP4 DUP5 ADD SWAP4 ADD PUSH3 0x2C5 JUMP JUMPDEST SWAP1 SWAP2 POP DUP8 DUP5 MSTORE DUP9 DUP5 KECCAK256 DUP7 DUP1 DUP6 ADD PUSH1 0x5 SHR DUP3 ADD SWAP3 DUP12 DUP7 LT PUSH3 0x360 JUMPI JUMPDEST SWAP2 DUP11 SWAP2 DUP7 SWAP6 SWAP5 SWAP4 ADD PUSH1 0x5 SHR ADD SWAP2 JUMPDEST DUP3 DUP2 LT PUSH3 0x351 JUMPI POP POP PUSH3 0xE7 JUMP JUMPDEST DUP7 DUP2 SSTORE DUP6 SWAP5 POP DUP11 SWAP2 ADD PUSH3 0x341 JUMP JUMPDEST SWAP3 POP DUP2 SWAP3 PUSH3 0x333 JUMP JUMPDEST PUSH4 0x4E487B71 PUSH1 0xE0 SHL DUP4 MSTORE PUSH1 0x22 PUSH1 0x4 MSTORE PUSH1 0x24 DUP4 REVERT JUMPDEST SWAP5 PUSH1 0x7F AND SWAP5 PUSH3 0xD0 JUMP JUMPDEST PUSH1 0x0 DUP1 REVERT JUMPDEST PUSH1 0x40 MLOAD SWAP2 SWAP1 PUSH1 0x1F ADD PUSH1 0x1F NOT AND DUP3 ADD PUSH1 0x1 PUSH1 0x1 PUSH1 0x40 SHL SUB DUP2 GT DUP4 DUP3 LT OR PUSH3 0x3B4 JUMPI PUSH1 0x40 MSTORE JUMP JUMPDEST PUSH4 0x4E487B71 PUSH1 0xE0 SHL PUSH1 0x0 MSTORE PUSH1 0x41 PUSH1 0x4 MSTORE PUSH1 0x24 PUSH1 0x0 REVERT JUMPDEST SWAP2 SWAP1 DUP1 PUSH1 0x1F DUP5 ADD SLT ISZERO PUSH3 0x389 JUMPI DUP3 MLOAD PUSH1 0x1 PUSH1 0x1 PUSH1 0x40 SHL SUB DUP2 GT PUSH3 0x3B4 JUMPI PUSH1 0x20 SWAP1 PUSH3 0x400 PUSH1 0x1F DUP3 ADD PUSH1 0x1F NOT AND DUP4 ADD PUSH3 0x38E JUMP JUMPDEST SWAP3 DUP2 DUP5 MSTORE DUP3 DUP3 DUP8 ADD ADD GT PUSH3 0x389 JUMPI PUSH1 0x0 JUMPDEST DUP2 DUP2 LT PUSH3 0x428 JUMPI POP DUP3 PUSH1 0x0 SWAP4 SWAP5 SWAP6 POP ADD ADD MSTORE SWAP1 JUMP JUMPDEST DUP6 DUP2 ADD DUP4 ADD MLOAD DUP5 DUP3 ADD DUP5 ADD MSTORE DUP3 ADD PUSH3 0x412 JUMP INVALID PUSH2 0x2C0 DUP1 PUSH1 0x40 MSTORE PUSH1 0x4 CALLDATASIZE LT ISZERO PUSH2 0x14 JUMPI PUSH1 0x0 DUP1 REVERT JUMPDEST PUSH1 0x0 SWAP1 DUP2 PUSH2 0x100 MSTORE DUP2 CALLDATALOAD PUSH1 0xE0 SHR SWAP1 DUP2 PUSH4 0x1FFC9A7 EQ PUSH2 0x42B5 JUMPI POP DUP1 PUSH4 0x6FDDE03 EQ PUSH2 0x420C JUMPI DUP1 PUSH4 0x81812FC EQ PUSH2 0x41EE JUMPI DUP1 PUSH4 0x95EA7B3 EQ PUSH2 0x4062 JUMPI DUP1 PUSH4 0x23B872DD EQ PUSH2 0x403E JUMPI DUP1 PUSH4 0x33396917 EQ PUSH2 0x3E45 JUMPI DUP1 PUSH4 0x341FA05D EQ PUSH2 0x3D26 JUMPI DUP1 PUSH4 0x42842E0E EQ PUSH2 0x3CF1 JUMPI DUP1 PUSH4 0x5E8BE190 EQ PUSH2 0x3C59 JUMPI DUP1 PUSH4 0x60098088 EQ PUSH2 0x3B0D JUMPI DUP1 PUSH4 0x6352211E EQ PUSH2 0x3ADD JUMPI DUP1 PUSH4 0x6C3F3871 EQ PUSH2 0x23DD JUMPI DUP1 PUSH4 0x70A08231 EQ PUSH2 0x2342 JUMPI DUP1 PUSH4 0x715018A6 EQ PUSH2 0x22E1 JUMPI DUP1 PUSH4 0x8D9D710A EQ PUSH2 0xAD8 JUMPI DUP1 PUSH4 0x8DA5CB5B EQ PUSH2 0xAAE JUMPI DUP1 PUSH4 0x95D89B41 EQ PUSH2 0x9C7 JUMPI DUP1 PUSH4 0x96CC304F EQ PUSH2 0x95B JUMPI DUP1 PUSH4 0xA22CB465 EQ PUSH2 0x875 JUMPI DUP1 PUSH4 0xABFE5D57 EQ PUSH2 0x77B JUMPI DUP1 PUSH4 0xB88D4FDE EQ PUSH2 0x6EF JUMPI DUP1 PUSH4 0xC87B56DD EQ PUSH2 0x679 JUMPI DUP1 PUSH4 0xD03703F5 EQ PUSH2 0x64D JUMPI DUP1 PUSH4 0xE13DB45A EQ PUSH2 0x268 JUMPI DUP1 PUSH4 0xE985E9C5 EQ PUSH2 0x212 JUMPI PUSH4 0xF2FDE38B EQ PUSH2 0x145 JUMPI PUSH1 0x0 DUP1 REVERT JUMPDEST CALLVALUE PUSH2 0x20B JUMPI PUSH1 0x20 CALLDATASIZE PUSH1 0x3 NOT ADD SLT PUSH2 0x20B JUMPI PUSH2 0x15E PUSH2 0x436A JUMP JUMPDEST SWAP1 PUSH2 0x167 PUSH2 0x48EE JUMP JUMPDEST PUSH1 0x1 PUSH1 0x1 PUSH1 0xA0 SHL SUB SWAP2 DUP3 AND SWAP2 DUP3 ISZERO PUSH2 0x1B7 JUMPI DUP2 SLOAD PUSH1 0x1 PUSH1 0x1 PUSH1 0xA0 SHL SUB NOT DUP2 AND DUP5 OR DUP4 SSTORE AND SWAP1 PUSH32 0x8BE0079C531659141344CD1FD0A4F28419497F9722A3DAAFE3B4186F6B6457E0 SWAP1 DUP1 LOG3 PUSH2 0x100 MLOAD DUP1 RETURN JUMPDEST PUSH1 0x40 MLOAD PUSH3 0x461BCD PUSH1 0xE5 SHL DUP2 MSTORE PUSH1 0x20 PUSH1 0x4 DUP3 ADD MSTORE PUSH1 0x26 PUSH1 0x24 DUP3 ADD MSTORE PUSH32 0x4F776E61626C653A206E6577206F776E657220697320746865207A65726F2061 PUSH1 0x44 DUP3 ADD MSTORE PUSH6 0x646472657373 PUSH1 0xD0 SHL PUSH1 0x64 DUP3 ADD MSTORE PUSH1 0x84 SWAP1 REVERT JUMPDEST PUSH2 0x100 MLOAD DUP1 REVERT JUMPDEST POP CALLVALUE PUSH2 0x20B JUMPI PUSH1 0x40 CALLDATASIZE PUSH1 0x3 NOT ADD SLT PUSH2 0x20B JUMPI PUSH1 0xFF PUSH1 0x40 PUSH1 0x20 SWAP3 PUSH2 0x233 PUSH2 0x436A JUMP JUMPDEST PUSH2 0x23B PUSH2 0x4385 JUMP JUMPDEST PUSH2 0x100 DUP1 MLOAD PUSH1 0x1 PUSH1 0x1 PUSH1 0xA0 SHL SUB SWAP4 DUP5 AND SWAP1 MSTORE PUSH1 0x6 DUP8 MSTORE MLOAD DUP5 SWAP1 KECCAK256 SWAP2 AND DUP3 MSTORE DUP5 MSTORE KECCAK256 SLOAD PUSH1 0x40 MLOAD SWAP2 AND ISZERO ISZERO DUP2 MSTORE RETURN JUMPDEST PUSH1 0x60 CALLDATASIZE PUSH1 0x3 NOT ADD SLT PUSH2 0x20B JUMPI PUSH1 0x24 DUP1 CALLDATALOAD PUSH1 0x4 CALLDATALOAD DUP1 PUSH2 0x100 MLOAD MSTORE PUSH1 0x20 SWAP3 PUSH1 0x9 DUP5 MSTORE PUSH1 0x1 DUP1 PUSH1 0xA0 SHL SUB SWAP1 PUSH1 0x1 PUSH2 0x2A8 DUP4 DUP3 PUSH1 0x40 PUSH2 0x100 MLOAD KECCAK256 ADD SLOAD AND ISZERO ISZERO PUSH2 0x513F JUMP JUMPDEST DUP4 PUSH2 0x100 MLOAD MSTORE PUSH1 0x9 DUP7 MSTORE PUSH2 0x2CC PUSH1 0xFF PUSH1 0x14 PUSH1 0x40 PUSH2 0x100 MLOAD KECCAK256 ADD SLOAD PUSH1 0x8 SHR AND ISZERO PUSH2 0x5180 JUMP JUMPDEST DUP4 PUSH2 0x100 MLOAD MSTORE PUSH1 0x9 DUP7 MSTORE PUSH1 0x40 PUSH2 0x100 MLOAD KECCAK256 SWAP2 PUSH1 0x14 DUP4 ADD SWAP6 DUP7 SLOAD PUSH1 0xFF DUP2 AND ISZERO DUP1 PUSH2 0x63E JUMPI JUMPDEST ISZERO PUSH2 0x607 JUMPI PUSH1 0xC DUP6 ADD SWAP8 DUP9 SLOAD CALLVALUE LT PUSH2 0x5CC JUMPI PUSH2 0x312 DUP8 PUSH1 0x16 DUP9 ADD SLOAD AND ISZERO PUSH2 0x4F24 JUMP JUMPDEST PUSH1 0x15 DUP7 ADD DUP1 SLOAD SWAP1 SWAP3 DUP7 SWAP2 CHAINID EQ PUSH2 0x4FE JUMPI POP POP POP DUP6 PUSH1 0xB SLOAD AND DUP7 PUSH1 0xF DUP8 ADD SLOAD AND DUP3 SLOAD DUP3 EXTCODESIZE ISZERO PUSH2 0x20B JUMPI PUSH1 0x40 MLOAD SWAP2 PUSH4 0x757D6D9B PUSH1 0xE0 SHL DUP4 MSTORE CALLVALUE PUSH1 0x4 DUP5 ADD MSTORE DUP7 DUP4 ADD MSTORE PUSH1 0x44 DUP3 ADD MSTORE DUP4 PUSH1 0x64 DUP3 ADD MSTORE PUSH1 0x44 CALLDATALOAD SWAP2 DUP3 PUSH1 0x84 DUP4 ADD MSTORE DUP2 PUSH1 0xA4 DUP2 PUSH2 0x100 MLOAD SWAP4 CALLVALUE SWAP1 GAS CALL DUP1 ISZERO PUSH2 0x4E1 JUMPI PUSH2 0x4EF JUMPI JUMPDEST POP DUP7 PUSH1 0xB SLOAD AND SWAP2 SLOAD SWAP3 DUP3 EXTCODESIZE ISZERO PUSH2 0x20B JUMPI PUSH1 0x40 MLOAD SWAP4 PUSH4 0x5AA50C6B PUSH1 0xE1 SHL DUP6 MSTORE DUP10 PUSH1 0x4 DUP7 ADD MSTORE DUP6 DUP6 ADD MSTORE PUSH1 0x44 DUP5 ADD MSTORE PUSH1 0x64 DUP4 ADD MSTORE DUP2 PUSH1 0x84 DUP2 PUSH2 0x100 MLOAD DUP1 SWAP5 GAS CALL DUP1 ISZERO PUSH2 0x4E1 JUMPI PUSH2 0x4CA JUMPI JUMPDEST POP JUMPDEST DUP2 PUSH1 0x8 SLOAD ADD DUP1 PUSH1 0x8 SSTORE DUP6 PUSH2 0x100 MLOAD MSTORE PUSH1 0xA DUP9 MSTORE PUSH1 0x40 PUSH2 0x100 MLOAD KECCAK256 SWAP3 DUP8 SLOAD SWAP2 PUSH1 0x40 MLOAD SWAP1 PUSH2 0x3F5 DUP3 PUSH2 0x4689 JUMP JUMPDEST DUP2 MSTORE DUP10 DUP2 ADD SWAP1 DUP9 DUP3 MSTORE PUSH1 0x40 DUP2 ADD SWAP4 DUP5 MSTORE PUSH1 0x60 DUP2 ADD SWAP6 CALLER DUP8 MSTORE DUP1 SLOAD SWAP1 PUSH1 0x1 PUSH1 0x40 SHL DUP3 LT ISZERO PUSH2 0x4B1 JUMPI SWAP1 PUSH2 0x42B SWAP2 DUP6 DUP3 ADD DUP2 SSTORE PUSH2 0x546E JUMP JUMPDEST SWAP6 SWAP1 SWAP6 PUSH2 0x49A JUMPI POP MLOAD DUP5 SSTORE MLOAD SWAP1 DUP4 ADD SSTORE MLOAD PUSH1 0x2 DUP3 ADD SSTORE SWAP1 MLOAD PUSH1 0x3 SWAP1 SWAP2 ADD DUP1 SLOAD PUSH1 0x1 PUSH1 0x1 PUSH1 0xA0 SHL SUB NOT AND SWAP2 DUP5 AND SWAP2 SWAP1 SWAP2 OR SWAP1 SSTORE PUSH1 0xF ADD SLOAD SWAP3 SLOAD PUSH1 0x40 MLOAD SWAP1 DUP2 MSTORE CALLER SWAP5 SWAP4 SWAP1 SWAP2 AND SWAP3 PUSH32 0x8205A71867F7292BCEF9E53D4774758D6173B03F63017DEC9A03A6664B429DC5 SWAP2 LOG4 PUSH2 0x100 MLOAD DUP1 RETURN JUMPDEST PUSH4 0x4E487B71 PUSH1 0xE0 SHL PUSH2 0x100 MLOAD MSTORE PUSH2 0x100 MLOAD DUP1 PUSH1 0x4 MSTORE REVERT JUMPDEST DUP7 PUSH4 0x4E487B71 PUSH1 0xE0 SHL PUSH2 0x100 MLOAD MSTORE PUSH1 0x41 PUSH1 0x4 MSTORE PUSH2 0x100 MLOAD REVERT JUMPDEST PUSH2 0x4D3 SWAP1 PUSH2 0x46D6 JUMP JUMPDEST PUSH2 0x100 MLOAD DUP1 ISZERO PUSH2 0x3C8 JUMPI JUMPDEST DUP1 REVERT JUMPDEST PUSH1 0x40 MLOAD RETURNDATASIZE PUSH2 0x100 MLOAD DUP3 RETURNDATACOPY RETURNDATASIZE SWAP1 REVERT JUMPDEST PUSH2 0x4F8 SWAP1 PUSH2 0x46D6 JUMP JUMPDEST DUP11 PUSH2 0x37F JUMP JUMPDEST SWAP2 SWAP4 POP SWAP2 POP PUSH1 0xFF NOT AND OR SWAP1 SSTORE DUP2 DUP4 ADD CALLER PUSH1 0x1 PUSH1 0x1 PUSH1 0x60 SHL SUB PUSH1 0xA0 SHL DUP3 SLOAD AND OR SWAP1 SSTORE DUP4 PUSH1 0xF DUP5 ADD PUSH2 0x532 DUP8 CALLER DUP5 DUP5 SLOAD AND PUSH2 0x4C74 JUMP JUMPDEST SLOAD AND DUP1 ISZERO PUSH2 0x588 JUMPI PUSH2 0x100 MLOAD DUP1 DUP1 DUP1 SWAP4 CALLVALUE SWAP1 GAS CALL PUSH2 0x54E PUSH2 0x4D85 JUMP JUMPDEST POP PUSH2 0x3CA JUMPI DUP7 PUSH1 0xF PUSH1 0x64 SWAP3 PUSH1 0x40 MLOAD SWAP3 PUSH3 0x461BCD PUSH1 0xE5 SHL DUP5 MSTORE PUSH1 0x4 DUP5 ADD MSTORE DUP3 ADD MSTORE PUSH15 0x151C985B9CD9995C8819985A5B1959 PUSH1 0x8A SHL PUSH1 0x44 DUP3 ADD MSTORE REVERT JUMPDEST PUSH1 0x40 MLOAD PUSH3 0x461BCD PUSH1 0xE5 SHL DUP2 MSTORE PUSH1 0x4 DUP2 ADD DUP10 SWAP1 MSTORE PUSH1 0x1A DUP2 DUP5 ADD MSTORE PUSH32 0x43616E6E6F742070617920746F207A65726F2061646472657373000000000000 PUSH1 0x44 DUP3 ADD MSTORE PUSH1 0x64 SWAP1 REVERT JUMPDEST PUSH1 0x40 MLOAD PUSH3 0x461BCD PUSH1 0xE5 SHL DUP2 MSTORE PUSH1 0x4 DUP2 ADD DUP12 SWAP1 MSTORE PUSH1 0x14 DUP2 DUP7 ADD MSTORE PUSH20 0x125B9CDD59999A58DA595B9D081C185E5B595B9D PUSH1 0x62 SHL PUSH1 0x44 DUP3 ADD MSTORE PUSH1 0x64 SWAP1 REVERT JUMPDEST PUSH1 0x40 MLOAD PUSH3 0x461BCD PUSH1 0xE5 SHL DUP2 MSTORE PUSH1 0x4 DUP2 ADD DUP11 SWAP1 MSTORE PUSH1 0x10 DUP2 DUP6 ADD MSTORE PUSH16 0x496E76616C6964207075726368617365 PUSH1 0x80 SHL PUSH1 0x44 DUP3 ADD MSTORE PUSH1 0x64 SWAP1 REVERT JUMPDEST POP DUP6 DUP5 DUP7 ADD SLOAD AND CALLER EQ ISZERO PUSH2 0x2F0 JUMP JUMPDEST CALLVALUE PUSH2 0x20B JUMPI PUSH2 0x100 MLOAD DUP1 PUSH1 0x3 NOT CALLDATASIZE ADD SLT PUSH2 0x4DE JUMPI PUSH1 0xB SLOAD PUSH1 0x40 MLOAD PUSH1 0x1 PUSH1 0x1 PUSH1 0xA0 SHL SUB SWAP1 SWAP2 AND DUP2 MSTORE PUSH1 0x20 SWAP1 RETURN JUMPDEST CALLVALUE PUSH2 0x20B JUMPI PUSH1 0x20 CALLDATASIZE PUSH1 0x3 NOT ADD SLT PUSH2 0x20B JUMPI PUSH1 0x4 CALLDATALOAD PUSH1 0x0 SWAP1 DUP2 MSTORE PUSH1 0x3 PUSH1 0x20 MSTORE PUSH1 0x40 SWAP1 KECCAK256 SLOAD PUSH2 0x6B0 SWAP1 PUSH1 0x1 PUSH1 0x1 PUSH1 0xA0 SHL SUB AND ISZERO ISZERO PUSH2 0x4946 JUMP JUMPDEST PUSH1 0x40 MLOAD PUSH2 0x6BC DUP2 PUSH2 0x4704 JUMP JUMPDEST PUSH2 0x100 MLOAD SWAP1 MSTORE PUSH2 0x6EB PUSH1 0x40 MLOAD PUSH2 0x6D1 DUP2 PUSH2 0x4704 JUMP JUMPDEST PUSH2 0x100 MLOAD DUP2 MSTORE PUSH1 0x40 MLOAD SWAP2 DUP3 SWAP2 PUSH1 0x20 DUP4 MSTORE PUSH1 0x20 DUP4 ADD SWAP1 PUSH2 0x432A JUMP JUMPDEST SUB SWAP1 RETURN JUMPDEST CALLVALUE PUSH2 0x20B JUMPI PUSH1 0x80 CALLDATASIZE PUSH1 0x3 NOT ADD SLT PUSH2 0x20B JUMPI PUSH2 0x708 PUSH2 0x436A JUMP JUMPDEST PUSH2 0x710 PUSH2 0x4385 JUMP JUMPDEST SWAP1 PUSH1 0x64 CALLDATALOAD SWAP1 PUSH1 0x44 CALLDATALOAD PUSH1 0x1 PUSH1 0x1 PUSH1 0x40 SHL SUB DUP4 GT PUSH2 0x20B JUMPI CALLDATASIZE PUSH1 0x23 DUP5 ADD SLT ISZERO PUSH2 0x20B JUMPI PUSH2 0x774 SWAP4 PUSH2 0x74C PUSH2 0x76F SWAP5 CALLDATASIZE SWAP1 PUSH1 0x24 DUP2 PUSH1 0x4 ADD CALLDATALOAD SWAP2 ADD PUSH2 0x475B JUMP JUMPDEST SWAP3 PUSH2 0x75F PUSH2 0x75A DUP5 CALLER PUSH2 0x4BAC JUMP JUMPDEST PUSH2 0x4AD3 JUMP JUMPDEST PUSH2 0x76A DUP4 DUP4 DUP4 PUSH2 0x4C74 JUMP JUMPDEST PUSH2 0x4EA9 JUMP JUMPDEST PUSH2 0x4B88 JUMP JUMPDEST PUSH2 0x100 MLOAD DUP1 RETURN JUMPDEST CALLVALUE PUSH2 0x20B JUMPI PUSH2 0x100 MLOAD DUP1 PUSH1 0x3 NOT CALLDATASIZE ADD SLT PUSH2 0x4DE JUMPI PUSH1 0x7 SLOAD SWAP1 PUSH1 0x1 JUMPDEST DUP3 DUP2 GT ISZERO PUSH2 0x830 JUMPI POP PUSH2 0x7A8 SWAP1 PUSH2 0x53F4 JUMP JUMPDEST SWAP1 PUSH2 0x100 MLOAD PUSH1 0x1 SWAP1 JUMPDEST DUP3 DUP3 GT ISZERO PUSH2 0x7C7 JUMPI PUSH1 0x40 MLOAD DUP1 PUSH2 0x6EB DUP7 DUP3 PUSH2 0x4627 JUMP JUMPDEST DUP2 PUSH2 0x100 MLOAD MSTORE PUSH1 0x9 PUSH1 0x20 MSTORE PUSH1 0x40 PUSH2 0x100 MLOAD KECCAK256 SWAP2 PUSH1 0xFF PUSH1 0x14 DUP5 ADD SLOAD PUSH1 0x8 SHR AND ISZERO PUSH2 0x7FC JUMPI JUMPDEST PUSH2 0x7F6 SWAP2 SWAP3 POP PUSH2 0x53CF JUMP JUMPDEST SWAP1 PUSH2 0x7B1 JUMP JUMPDEST PUSH2 0x827 DUP3 PUSH2 0x816 PUSH2 0x810 PUSH2 0x7F6 SWAP6 SWAP3 PUSH2 0x53CF JUMP JUMPDEST SWAP6 PUSH2 0x5218 JUMP JUMPDEST PUSH2 0x820 DUP3 DUP10 PUSH2 0x5444 JUMP JUMPDEST MSTORE DUP7 PUSH2 0x5444 JUMP JUMPDEST POP DUP3 SWAP2 POP PUSH2 0x7EB JUMP JUMPDEST DUP1 PUSH2 0x100 MLOAD MSTORE PUSH1 0x9 PUSH1 0x20 MSTORE PUSH1 0xFF PUSH1 0x14 PUSH1 0x40 PUSH2 0x100 MLOAD KECCAK256 ADD SLOAD PUSH1 0x8 SHR AND ISZERO PUSH2 0x860 JUMPI JUMPDEST PUSH2 0x85B SWAP1 PUSH2 0x53CF JUMP JUMPDEST PUSH2 0x796 JUMP JUMPDEST SWAP1 PUSH2 0x86D PUSH2 0x85B SWAP2 PUSH2 0x53CF JUMP JUMPDEST SWAP2 SWAP1 POP PUSH2 0x852 JUMP JUMPDEST CALLVALUE PUSH2 0x20B JUMPI PUSH1 0x40 CALLDATASIZE PUSH1 0x3 NOT ADD SLT PUSH2 0x20B JUMPI PUSH2 0x88E PUSH2 0x436A JUMP JUMPDEST PUSH1 0x24 CALLDATALOAD SWAP1 DUP2 ISZERO ISZERO SWAP1 DUP2 DUP4 SUB PUSH2 0x20B JUMPI PUSH1 0x1 PUSH1 0x1 PUSH1 0xA0 SHL SUB AND SWAP2 CALLER DUP4 EQ PUSH2 0x916 JUMPI PUSH2 0x8E3 SWAP1 CALLER PUSH2 0x100 MLOAD MSTORE PUSH1 0x6 PUSH1 0x20 MSTORE PUSH2 0x100 MLOAD DUP5 PUSH1 0x40 DUP3 KECCAK256 SWAP2 MSTORE PUSH1 0x20 MSTORE PUSH1 0x40 PUSH2 0x100 MLOAD KECCAK256 SWAP1 PUSH1 0xFF DUP1 NOT DUP4 SLOAD AND SWAP2 ISZERO ISZERO AND OR SWAP1 SSTORE JUMP JUMPDEST PUSH1 0x40 MLOAD SWAP1 DUP2 MSTORE PUSH32 0x17307EAB39AB6107E8899845AD3D59BD9653F200F220920489CA2B5937696C31 PUSH1 0x20 CALLER SWAP3 LOG3 PUSH2 0x100 MLOAD DUP1 RETURN JUMPDEST PUSH1 0x40 MLOAD PUSH3 0x461BCD PUSH1 0xE5 SHL DUP2 MSTORE PUSH1 0x20 PUSH1 0x4 DUP3 ADD MSTORE PUSH1 0x19 PUSH1 0x24 DUP3 ADD MSTORE PUSH32 0x4552433732313A20617070726F766520746F2063616C6C657200000000000000 PUSH1 0x44 DUP3 ADD MSTORE PUSH1 0x64 SWAP1 REVERT JUMPDEST CALLVALUE PUSH2 0x20B JUMPI PUSH1 0x20 CALLDATASIZE PUSH1 0x3 NOT ADD SLT PUSH2 0x20B JUMPI PUSH1 0x4 CALLDATALOAD PUSH1 0x1 PUSH1 0x1 PUSH1 0xA0 SHL SUB DUP2 AND SWAP1 DUP2 SWAP1 SUB PUSH2 0x20B JUMPI PUSH2 0x989 PUSH2 0x48EE JUMP JUMPDEST PUSH1 0xB DUP1 SLOAD PUSH1 0x1 PUSH1 0x1 PUSH1 0xA0 SHL SUB NOT AND DUP3 OR SWAP1 SSTORE PUSH2 0x100 MLOAD SWAP1 PUSH32 0xE29CA28FD64DBDC992CE63B7FC32E81B50E1F2E800E0BBBB994CEA2E35AA047C DUP3 DUP1 LOG2 DUP1 RETURN JUMPDEST CALLVALUE PUSH2 0x20B JUMPI PUSH2 0x100 MLOAD DUP1 PUSH1 0x3 NOT CALLDATASIZE ADD SLT PUSH2 0x4DE JUMPI PUSH1 0x40 MLOAD SWAP1 PUSH1 0x2 SLOAD PUSH2 0x9EB DUP2 PUSH2 0x49B5 JUMP JUMPDEST DUP1 DUP5 MSTORE SWAP1 PUSH1 0x1 SWAP1 DUP2 DUP2 AND SWAP1 DUP2 ISZERO PUSH2 0xA87 JUMPI POP PUSH1 0x1 EQ PUSH2 0xA29 JUMPI JUMPDEST PUSH2 0x6EB DUP5 PUSH2 0xA15 DUP2 DUP7 SUB DUP3 PUSH2 0x471F JUMP JUMPDEST PUSH1 0x40 MLOAD SWAP2 DUP3 SWAP2 PUSH1 0x20 DUP4 MSTORE PUSH1 0x20 DUP4 ADD SWAP1 PUSH2 0x432A JUMP JUMPDEST PUSH2 0x100 DUP1 MLOAD PUSH1 0x2 SWAP1 MSTORE MLOAD SWAP3 POP PUSH32 0x405787FA12A823E0F2B7631CC41B3BA8828B3321CA811111FA75CD3AA3BB5ACE JUMPDEST DUP3 DUP5 LT PUSH2 0xA6F JUMPI POP POP POP DUP2 ADD PUSH1 0x20 ADD PUSH2 0xA15 DUP3 PUSH2 0xA05 JUMP JUMPDEST DUP1 SLOAD PUSH1 0x20 DUP6 DUP8 ADD DUP2 ADD SWAP2 SWAP1 SWAP2 MSTORE SWAP1 SWAP4 ADD SWAP3 DUP2 ADD PUSH2 0xA57 JUMP JUMPDEST PUSH1 0xFF NOT AND PUSH1 0x20 DUP1 DUP8 ADD SWAP2 SWAP1 SWAP2 MSTORE SWAP3 ISZERO ISZERO PUSH1 0x5 SHL DUP6 ADD SWAP1 SWAP3 ADD SWAP3 POP PUSH2 0xA15 SWAP2 POP DUP4 SWAP1 POP PUSH2 0xA05 JUMP JUMPDEST CALLVALUE PUSH2 0x20B JUMPI PUSH2 0x100 MLOAD DUP1 PUSH1 0x3 NOT CALLDATASIZE ADD SLT PUSH2 0x4DE JUMPI SLOAD PUSH1 0x40 MLOAD PUSH1 0x1 PUSH1 0x1 PUSH1 0xA0 SHL SUB SWAP1 SWAP2 AND DUP2 MSTORE PUSH1 0x20 SWAP1 RETURN JUMPDEST CALLVALUE PUSH2 0x20B JUMPI PUSH1 0xA0 CALLDATASIZE PUSH1 0x3 NOT ADD SLT PUSH2 0x20B JUMPI PUSH1 0x1 PUSH1 0x1 PUSH1 0x40 SHL SUB PUSH1 0x24 CALLDATALOAD GT PUSH2 0x20B JUMPI PUSH1 0xE0 PUSH1 0x24 CALLDATALOAD CALLDATASIZE SUB PUSH1 0x3 NOT ADD SLT PUSH2 0x20B JUMPI PUSH1 0x40 MLOAD PUSH1 0xE0 DUP2 ADD DUP2 DUP2 LT PUSH1 0x1 PUSH1 0x1 PUSH1 0x40 SHL SUB DUP3 GT OR PUSH2 0x1708 JUMPI PUSH1 0x40 MSTORE PUSH1 0x24 CALLDATALOAD PUSH1 0x4 ADD CALLDATALOAD PUSH1 0x1 PUSH1 0x1 PUSH1 0x40 SHL SUB DUP2 GT PUSH2 0x20B JUMPI PUSH2 0xB4C SWAP1 PUSH1 0x4 CALLDATASIZE SWAP2 PUSH1 0x24 CALLDATALOAD ADD ADD PUSH2 0x4792 JUMP JUMPDEST DUP2 MSTORE PUSH1 0x24 DUP1 CALLDATALOAD ADD CALLDATALOAD PUSH1 0x1 PUSH1 0x1 PUSH1 0x40 SHL SUB DUP2 GT PUSH2 0x20B JUMPI PUSH2 0xB74 SWAP1 PUSH1 0x4 CALLDATASIZE SWAP2 PUSH1 0x24 CALLDATALOAD ADD ADD PUSH2 0x4836 JUMP JUMPDEST PUSH1 0x20 DUP3 ADD MSTORE PUSH1 0x44 PUSH1 0x24 CALLDATALOAD ADD CALLDATALOAD PUSH1 0x1 PUSH1 0x1 PUSH1 0x40 SHL SUB DUP2 GT PUSH2 0x20B JUMPI PUSH2 0xBA0 SWAP1 PUSH1 0x4 CALLDATASIZE SWAP2 PUSH1 0x24 CALLDATALOAD ADD ADD PUSH2 0x4792 JUMP JUMPDEST PUSH1 0x40 DUP3 ADD MSTORE PUSH1 0x64 PUSH1 0x24 CALLDATALOAD ADD CALLDATALOAD PUSH1 0x1 PUSH1 0x1 PUSH1 0x40 SHL SUB DUP2 GT PUSH2 0x20B JUMPI PUSH2 0xBCC SWAP1 PUSH1 0x4 CALLDATASIZE SWAP2 PUSH1 0x24 CALLDATALOAD ADD ADD PUSH2 0x4792 JUMP JUMPDEST PUSH1 0x60 DUP3 ADD MSTORE PUSH1 0x84 PUSH1 0x24 CALLDATALOAD ADD CALLDATALOAD PUSH1 0x1 PUSH1 0x1 PUSH1 0x40 SHL SUB DUP2 GT PUSH2 0x20B JUMPI PUSH2 0xBF8 SWAP1 PUSH1 0x4 CALLDATASIZE SWAP2 PUSH1 0x24 CALLDATALOAD ADD ADD PUSH2 0x4792 JUMP JUMPDEST PUSH1 0x80 DUP3 ADD MSTORE PUSH1 0x24 CALLDATALOAD PUSH1 0xA4 DUP2 ADD CALLDATALOAD PUSH1 0xA0 DUP4 ADD MSTORE PUSH1 0xC4 ADD CALLDATALOAD PUSH1 0x1 PUSH1 0x1 PUSH1 0x40 SHL SUB DUP2 GT PUSH2 0x20B JUMPI PUSH2 0xC2E SWAP1 PUSH1 0x4 CALLDATASIZE SWAP2 PUSH1 0x24 CALLDATALOAD ADD ADD PUSH2 0x4792 JUMP JUMPDEST PUSH1 0xC0 DUP3 ADD MSTORE PUSH1 0x1 PUSH1 0x1 PUSH1 0x40 SHL SUB PUSH1 0x44 CALLDATALOAD GT PUSH2 0x20B JUMPI PUSH1 0xC0 PUSH1 0x44 CALLDATALOAD CALLDATASIZE SUB PUSH1 0x3 NOT ADD SLT PUSH2 0x20B JUMPI PUSH1 0x40 MLOAD DUP1 PUSH1 0xC0 DUP2 ADD LT PUSH1 0x1 PUSH1 0x1 PUSH1 0x40 SHL SUB PUSH1 0xC0 DUP4 ADD GT OR PUSH2 0x1708 JUMPI PUSH1 0xC0 DUP2 ADD PUSH1 0x40 MSTORE PUSH1 0x44 CALLDATALOAD PUSH1 0x4 ADD CALLDATALOAD DUP2 MSTORE PUSH1 0x1 PUSH1 0x1 PUSH1 0x40 SHL SUB PUSH1 0x24 PUSH1 0x44 CALLDATALOAD ADD CALLDATALOAD GT PUSH2 0x20B JUMPI PUSH2 0xCA7 CALLDATASIZE PUSH1 0x44 CALLDATALOAD PUSH1 0x24 DUP2 ADD CALLDATALOAD ADD PUSH1 0x4 ADD PUSH2 0x4792 JUMP JUMPDEST PUSH1 0x20 DUP3 ADD MSTORE PUSH1 0x3 PUSH1 0x44 DUP1 CALLDATALOAD ADD CALLDATALOAD LT ISZERO PUSH2 0x20B JUMPI PUSH1 0x44 DUP1 CALLDATALOAD ADD CALLDATALOAD PUSH1 0x40 DUP3 ADD MSTORE PUSH1 0x2 PUSH1 0x64 PUSH1 0x44 CALLDATALOAD ADD CALLDATALOAD LT ISZERO PUSH2 0x20B JUMPI PUSH1 0x64 PUSH1 0x44 CALLDATALOAD ADD CALLDATALOAD PUSH1 0x60 DUP3 ADD MSTORE PUSH1 0x4 PUSH1 0x84 PUSH1 0x44 CALLDATALOAD ADD CALLDATALOAD LT ISZERO PUSH2 0x20B JUMPI PUSH1 0x44 CALLDATALOAD PUSH1 0x84 DUP2 ADD CALLDATALOAD PUSH1 0x80 DUP4 ADD MSTORE PUSH1 0xA4 ADD CALLDATALOAD PUSH1 0xA0 DUP3 ADD MSTORE PUSH1 0x1 PUSH1 0x1 PUSH1 0x40 SHL SUB PUSH1 0x64 CALLDATALOAD GT PUSH2 0x20B JUMPI PUSH1 0x60 PUSH1 0x64 CALLDATALOAD CALLDATASIZE SUB PUSH1 0x3 NOT ADD SLT PUSH2 0x20B JUMPI PUSH1 0x40 MLOAD DUP1 PUSH1 0x60 DUP2 ADD LT PUSH1 0x1 PUSH1 0x1 PUSH1 0x40 SHL SUB PUSH1 0x60 DUP4 ADD GT OR PUSH2 0x1708 JUMPI PUSH1 0x60 DUP2 ADD PUSH1 0x40 MSTORE PUSH1 0x1 PUSH1 0x1 PUSH1 0x40 SHL SUB PUSH1 0x64 CALLDATALOAD PUSH1 0x4 ADD CALLDATALOAD GT PUSH2 0x20B JUMPI PUSH2 0xD71 CALLDATASIZE PUSH1 0x4 PUSH1 0x64 CALLDATALOAD DUP2 ADD CALLDATALOAD PUSH1 0x64 CALLDATALOAD ADD ADD PUSH2 0x4792 JUMP JUMPDEST DUP2 MSTORE PUSH1 0x1 PUSH1 0x1 PUSH1 0x40 SHL SUB PUSH1 0x24 PUSH1 0x64 CALLDATALOAD ADD CALLDATALOAD GT PUSH2 0x20B JUMPI PUSH2 0xD9C CALLDATASIZE PUSH1 0x64 CALLDATALOAD PUSH1 0x24 DUP2 ADD CALLDATALOAD ADD PUSH1 0x4 ADD PUSH2 0x4792 JUMP JUMPDEST PUSH1 0x20 DUP3 ADD MSTORE PUSH1 0x1 PUSH1 0x1 PUSH1 0x40 SHL SUB PUSH1 0x44 PUSH1 0x64 CALLDATALOAD ADD CALLDATALOAD GT PUSH2 0x20B JUMPI PUSH2 0xDCA CALLDATASIZE PUSH1 0x64 CALLDATALOAD PUSH1 0x44 DUP2 ADD CALLDATALOAD ADD PUSH1 0x4 ADD PUSH2 0x4836 JUMP JUMPDEST PUSH1 0x40 DUP3 ADD MSTORE PUSH1 0x1 PUSH1 0x1 PUSH1 0x40 SHL SUB PUSH1 0x84 CALLDATALOAD GT PUSH2 0x20B JUMPI PUSH2 0xDEE CALLDATASIZE PUSH1 0x84 CALLDATALOAD PUSH1 0x4 ADD PUSH2 0x4851 JUMP JUMPDEST SWAP3 PUSH1 0xA0 DUP4 ADD MLOAD ISZERO PUSH2 0x229C JUMPI DUP1 MLOAD MLOAD ISZERO PUSH2 0x2260 JUMPI PUSH1 0x20 DUP2 ADD MLOAD MLOAD ISZERO PUSH2 0x221B JUMPI PUSH1 0x60 DUP2 ADD MLOAD MLOAD ISZERO PUSH2 0x21DF JUMPI PUSH1 0x80 DUP2 ADD MLOAD MLOAD ISZERO PUSH2 0x21A2 JUMPI DUP4 MLOAD PUSH2 0x100 DUP1 MLOAD PUSH1 0x4 CALLDATALOAD SWAP1 MSTORE PUSH1 0x9 PUSH1 0x20 MSTORE MLOAD PUSH1 0x40 SWAP1 KECCAK256 PUSH1 0xF ADD SLOAD PUSH1 0x1 PUSH1 0x1 PUSH1 0xA0 SHL SUB SWAP2 DUP3 AND SWAP2 AND SUB PUSH2 0x215D JUMPI DUP4 MLOAD PUSH1 0x1 PUSH1 0x1 PUSH1 0xA0 SHL SUB AND CALLER SUB PUSH2 0x2118 JUMPI DUP1 MLOAD SWAP3 PUSH1 0x20 DUP3 ADD MLOAD PUSH2 0x160 MSTORE PUSH1 0x40 DUP3 ADD MLOAD PUSH2 0x1C0 MSTORE PUSH1 0x60 DUP3 ADD MLOAD SWAP1 PUSH1 0x80 DUP4 ADD MLOAD SWAP2 PUSH1 0xC0 PUSH1 0xA0 DUP6 ADD MLOAD SWAP5 ADD MLOAD SWAP2 DUP1 MLOAD SWAP1 PUSH1 0x20 DUP2 ADD MLOAD PUSH1 0x40 DUP3 ADD MLOAD SWAP1 PUSH1 0x3 DUP3 LT ISZERO PUSH2 0x1AEC JUMPI PUSH1 0x60 DUP4 ADD MLOAD SWAP4 PUSH1 0x2 DUP6 LT ISZERO PUSH2 0x1AEC JUMPI PUSH1 0x80 DUP5 ADD MLOAD SWAP7 PUSH1 0x4 DUP9 LT ISZERO PUSH2 0x1AEC JUMPI DUP11 SWAP10 PUSH2 0xFB9 SWAP10 PUSH2 0xFAC SWAP9 PUSH1 0x40 PUSH1 0xA0 PUSH2 0xF9F SWAP10 ADD MLOAD SWAP14 MLOAD SWAP15 ADD MLOAD SWAP15 PUSH1 0x4 CALLDATALOAD PUSH2 0x100 MLOAD MSTORE PUSH1 0x9 PUSH1 0x20 MSTORE PUSH1 0x17 PUSH1 0x40 PUSH2 0x100 MLOAD KECCAK256 DUP1 PUSH1 0xA0 MSTORE PUSH1 0xFF PUSH1 0x14 DUP3 ADD SLOAD AND PUSH1 0xC0 MSTORE PUSH1 0x15 DUP2 ADD SLOAD PUSH2 0x2A0 MSTORE PUSH1 0x1 DUP1 PUSH1 0xA0 SHL SUB PUSH1 0x16 DUP3 ADD SLOAD AND PUSH1 0x80 MSTORE ADD SLOAD PUSH2 0x140 MSTORE PUSH2 0xF2E PUSH1 0x40 MLOAD DUP1 PUSH2 0x260 MSTORE PUSH2 0x46BA JUMP JUMPDEST PUSH1 0x4 CALLDATALOAD PUSH2 0x260 MLOAD MSTORE CALLER PUSH1 0x20 PUSH2 0x260 MLOAD ADD MSTORE PUSH1 0x40 PUSH2 0x260 MLOAD ADD MSTORE PUSH2 0x160 MLOAD PUSH1 0x60 PUSH2 0x260 MLOAD ADD MSTORE PUSH2 0x1C0 MLOAD PUSH1 0x80 PUSH2 0x260 MLOAD ADD MSTORE PUSH1 0xA0 PUSH2 0x260 MLOAD ADD MSTORE PUSH1 0xC0 PUSH2 0x260 MLOAD ADD MSTORE PUSH1 0xE0 PUSH2 0x260 MLOAD ADD MSTORE PUSH2 0x100 PUSH2 0x260 MLOAD ADD MSTORE PUSH2 0x120 PUSH2 0x260 MLOAD ADD MSTORE PUSH2 0x140 PUSH2 0x260 MLOAD ADD MSTORE PUSH2 0x160 PUSH2 0x260 MLOAD ADD PUSH2 0x4FEB JUMP JUMPDEST PUSH2 0x180 PUSH2 0x260 MLOAD ADD PUSH2 0x4FF7 JUMP JUMPDEST PUSH2 0x1A0 PUSH2 0x260 MLOAD ADD PUSH2 0x5003 JUMP JUMPDEST PUSH2 0x1C0 PUSH2 0x260 MLOAD ADD MSTORE PUSH2 0x1E0 PUSH2 0x260 MLOAD ADD MSTORE PUSH2 0x200 PUSH2 0x260 MLOAD ADD MSTORE PUSH2 0x220 PUSH2 0x260 MLOAD ADD MSTORE PUSH1 0xC0 MLOAD ISZERO ISZERO PUSH2 0x240 PUSH2 0x260 MLOAD ADD MSTORE PUSH2 0x100 MLOAD PUSH2 0x260 DUP1 MLOAD ADD MSTORE PUSH2 0x2A0 MLOAD PUSH2 0x280 PUSH2 0x260 MLOAD ADD MSTORE PUSH1 0x80 MLOAD PUSH2 0x2A0 PUSH2 0x260 MLOAD ADD MSTORE PUSH2 0x140 MLOAD PUSH2 0x2C0 PUSH2 0x260 MLOAD ADD MSTORE PUSH1 0x4 CALLDATALOAD PUSH2 0x100 MLOAD MSTORE PUSH1 0x9 PUSH1 0x20 MSTORE PUSH2 0x100 MLOAD PUSH1 0x40 DUP2 KECCAK256 SWAP1 PUSH1 0x40 PUSH2 0x260 MLOAD DUP1 MLOAD DUP5 SSTORE PUSH1 0x1 DUP1 PUSH1 0xA0 SHL SUB PUSH1 0x20 DUP3 ADD MLOAD AND PUSH1 0x1 PUSH1 0x1 PUSH1 0x60 SHL SUB PUSH1 0xA0 SHL PUSH1 0x1 DUP7 ADD SLOAD AND OR PUSH1 0x1 DUP6 ADD SSTORE ADD MLOAD DUP1 MLOAD SWAP2 PUSH1 0x1 PUSH1 0x1 PUSH1 0x40 SHL SUB DUP4 GT PUSH2 0x2100 JUMPI POP DUP2 SWAP1 PUSH2 0x1083 PUSH1 0x2 DUP6 ADD SLOAD PUSH2 0x49B5 JUMP JUMPDEST PUSH1 0x1F DUP2 GT PUSH2 0x20C7 JUMPI JUMPDEST POP PUSH2 0x100 MLOAD SWAP1 PUSH1 0x20 SWAP2 PUSH1 0x1F DUP5 GT PUSH1 0x1 EQ PUSH2 0x2054 JUMPI POP PUSH2 0x100 MLOAD SWAP3 PUSH2 0x2049 JUMPI JUMPDEST POP POP DUP2 PUSH1 0x1 SHL SWAP2 PUSH1 0x0 NOT SWAP1 PUSH1 0x3 SHL SHR NOT AND OR PUSH1 0x2 DUP3 ADD SSTORE JUMPDEST PUSH1 0x60 PUSH2 0x260 MLOAD ADD MLOAD DUP1 MLOAD SWAP1 PUSH1 0x1 PUSH1 0x40 SHL DUP3 GT PUSH2 0x1708 JUMPI PUSH1 0x3 DUP4 ADD SLOAD DUP3 PUSH1 0x3 DUP6 ADD SSTORE DUP1 DUP4 LT PUSH2 0x1FC6 JUMPI JUMPDEST POP PUSH2 0x100 DUP1 MLOAD PUSH1 0x3 DUP6 ADD SWAP1 MSTORE MLOAD PUSH1 0x20 DUP1 DUP3 KECCAK256 SWAP4 SWAP3 ADD JUMPDEST DUP3 DUP3 LT PUSH2 0x1E99 JUMPI DUP5 PUSH1 0x80 PUSH2 0x260 MLOAD ADD MLOAD DUP1 MLOAD SWAP1 PUSH1 0x1 PUSH1 0x1 PUSH1 0x40 SHL SUB DUP3 GT PUSH2 0x1708 JUMPI DUP2 SWAP1 PUSH2 0x1132 PUSH1 0x4 DUP6 ADD SLOAD PUSH2 0x49B5 JUMP JUMPDEST PUSH1 0x1F DUP2 GT PUSH2 0x1E60 JUMPI JUMPDEST POP PUSH2 0x100 MLOAD SWAP1 PUSH1 0x20 SWAP2 PUSH1 0x1F DUP5 GT PUSH1 0x1 EQ PUSH2 0x1DED JUMPI POP PUSH2 0x100 MLOAD SWAP3 PUSH2 0x1DE2 JUMPI JUMPDEST POP POP DUP2 PUSH1 0x1 SHL SWAP2 PUSH1 0x0 NOT SWAP1 PUSH1 0x3 SHL SHR NOT AND OR PUSH1 0x4 DUP3 ADD SSTORE JUMPDEST PUSH1 0xA0 PUSH2 0x260 MLOAD ADD MLOAD DUP1 MLOAD SWAP1 PUSH1 0x1 PUSH1 0x1 PUSH1 0x40 SHL SUB DUP3 GT PUSH2 0x1708 JUMPI DUP2 SWAP1 PUSH2 0x119A PUSH1 0x5 DUP6 ADD SLOAD PUSH2 0x49B5 JUMP JUMPDEST PUSH1 0x1F DUP2 GT PUSH2 0x1DA9 JUMPI JUMPDEST POP PUSH2 0x100 MLOAD SWAP1 PUSH1 0x20 SWAP2 PUSH1 0x1F DUP5 GT PUSH1 0x1 EQ PUSH2 0x1D36 JUMPI POP PUSH2 0x100 MLOAD SWAP3 PUSH2 0x1D2B JUMPI JUMPDEST POP POP DUP2 PUSH1 0x1 SHL SWAP2 PUSH1 0x0 NOT SWAP1 PUSH1 0x3 SHL SHR NOT AND OR PUSH1 0x5 DUP3 ADD SSTORE JUMPDEST PUSH1 0xC0 PUSH2 0x260 MLOAD ADD MLOAD DUP1 MLOAD SWAP1 PUSH1 0x1 PUSH1 0x1 PUSH1 0x40 SHL SUB DUP3 GT PUSH2 0x1708 JUMPI DUP2 SWAP1 PUSH2 0x1202 PUSH1 0x6 DUP6 ADD SLOAD PUSH2 0x49B5 JUMP JUMPDEST PUSH1 0x1F DUP2 GT PUSH2 0x1CF2 JUMPI JUMPDEST POP PUSH2 0x100 MLOAD SWAP1 PUSH1 0x20 SWAP2 PUSH1 0x1F DUP5 GT PUSH1 0x1 EQ PUSH2 0x1C7F JUMPI POP PUSH2 0x100 MLOAD SWAP3 PUSH2 0x1C74 JUMPI JUMPDEST POP POP DUP2 PUSH1 0x1 SHL SWAP2 PUSH1 0x0 NOT SWAP1 PUSH1 0x3 SHL SHR NOT AND OR PUSH1 0x6 DUP3 ADD SSTORE JUMPDEST PUSH2 0x100 PUSH2 0x260 MLOAD PUSH1 0xE0 DUP2 ADD MLOAD PUSH1 0x7 DUP5 ADD SSTORE ADD MLOAD DUP1 MLOAD SWAP1 PUSH1 0x1 PUSH1 0x1 PUSH1 0x40 SHL SUB DUP3 GT PUSH2 0x1708 JUMPI DUP2 SWAP1 PUSH2 0x1275 PUSH1 0x8 DUP6 ADD SLOAD PUSH2 0x49B5 JUMP JUMPDEST PUSH1 0x1F DUP2 GT PUSH2 0x1C3B JUMPI JUMPDEST POP PUSH2 0x100 MLOAD SWAP1 PUSH1 0x20 SWAP2 PUSH1 0x1F DUP5 GT PUSH1 0x1 EQ PUSH2 0x1BC8 JUMPI POP PUSH2 0x100 MLOAD SWAP3 PUSH2 0x1BBD JUMPI JUMPDEST POP POP DUP2 PUSH1 0x1 SHL SWAP2 PUSH1 0x0 NOT SWAP1 PUSH1 0x3 SHL SHR NOT AND OR PUSH1 0x8 DUP3 ADD SSTORE JUMPDEST PUSH2 0x140 PUSH2 0x260 MLOAD PUSH2 0x120 DUP2 ADD MLOAD PUSH1 0x9 DUP5 ADD SSTORE ADD MLOAD DUP1 MLOAD SWAP1 PUSH1 0x1 PUSH1 0x1 PUSH1 0x40 SHL SUB DUP3 GT PUSH2 0x1708 JUMPI DUP2 SWAP1 PUSH2 0x12E9 PUSH1 0xA DUP6 ADD SLOAD PUSH2 0x49B5 JUMP JUMPDEST PUSH1 0x1F DUP2 GT PUSH2 0x1B84 JUMPI JUMPDEST POP PUSH2 0x100 MLOAD SWAP1 PUSH1 0x20 SWAP2 PUSH1 0x1F DUP5 GT PUSH1 0x1 EQ PUSH2 0x1B11 JUMPI POP PUSH2 0x100 MLOAD SWAP3 PUSH2 0x1B06 JUMPI JUMPDEST POP POP DUP2 PUSH1 0x1 SHL SWAP2 PUSH1 0x0 NOT SWAP1 PUSH1 0x3 SHL SHR NOT AND OR PUSH1 0xA DUP3 ADD SSTORE JUMPDEST PUSH2 0x160 PUSH2 0x260 MLOAD ADD MLOAD PUSH1 0x3 DUP2 LT ISZERO PUSH2 0x1AEC JUMPI PUSH1 0xB DUP3 ADD SLOAD PUSH2 0x180 PUSH2 0x260 MLOAD ADD MLOAD SWAP1 PUSH1 0x2 DUP3 LT ISZERO PUSH2 0x1AEC JUMPI PUSH2 0x1A0 PUSH2 0x260 MLOAD ADD MLOAD SWAP1 PUSH1 0x4 DUP3 LT ISZERO PUSH2 0x1AEC JUMPI PUSH1 0xFF PUSH3 0xFF0000 PUSH2 0xFF00 SWAP4 PUSH1 0x10 SHL AND SWAP5 AND SWAP1 PUSH3 0xFFFFFF NOT AND OR SWAP2 PUSH1 0x8 SHL AND OR OR PUSH1 0xB DUP3 ADD SSTORE PUSH2 0x1E0 PUSH2 0x260 MLOAD PUSH2 0x1C0 DUP2 ADD MLOAD PUSH1 0xC DUP5 ADD SSTORE ADD MLOAD DUP1 MLOAD SWAP1 PUSH1 0x1 PUSH1 0x1 PUSH1 0x40 SHL SUB DUP3 GT PUSH2 0x1708 JUMPI DUP2 SWAP1 PUSH2 0x13BE PUSH1 0xD DUP6 ADD SLOAD PUSH2 0x49B5 JUMP JUMPDEST PUSH1 0x1F DUP2 GT PUSH2 0x1AB3 JUMPI JUMPDEST POP PUSH2 0x100 MLOAD SWAP1 PUSH1 0x20 SWAP2 PUSH1 0x1F DUP5 GT PUSH1 0x1 EQ PUSH2 0x1A40 JUMPI POP PUSH2 0x100 MLOAD SWAP3 PUSH2 0x1A35 JUMPI JUMPDEST POP POP DUP2 PUSH1 0x1 SHL SWAP2 PUSH1 0x0 NOT SWAP1 PUSH1 0x3 SHL SHR NOT AND OR PUSH1 0xD DUP3 ADD SSTORE JUMPDEST PUSH2 0x200 PUSH2 0x260 MLOAD ADD MLOAD DUP1 MLOAD SWAP1 PUSH1 0x1 PUSH1 0x40 SHL DUP3 GT PUSH2 0x1708 JUMPI PUSH1 0xE DUP4 ADD SLOAD DUP3 PUSH1 0xE DUP6 ADD SSTORE DUP1 DUP4 LT PUSH2 0x19B2 JUMPI JUMPDEST POP PUSH2 0x100 DUP1 MLOAD PUSH1 0xE DUP6 ADD SWAP1 MSTORE MLOAD PUSH1 0x20 DUP1 DUP3 KECCAK256 SWAP4 SWAP3 ADD JUMPDEST DUP3 DUP3 LT PUSH2 0x1890 JUMPI DUP5 PUSH1 0xF DUP2 ADD SWAP1 PUSH2 0x220 PUSH2 0x260 MLOAD ADD MLOAD SWAP2 PUSH1 0x1 DUP1 PUSH1 0xA0 SHL SUB DUP4 MLOAD AND PUSH1 0x1 PUSH1 0x1 PUSH1 0x60 SHL SUB PUSH1 0xA0 SHL DUP3 SLOAD AND OR SWAP1 SSTORE PUSH1 0x20 DUP3 ADD MLOAD SWAP2 DUP3 MLOAD PUSH1 0x1 PUSH1 0x1 PUSH1 0x40 SHL SUB DUP2 GT PUSH2 0x1708 JUMPI PUSH2 0x1493 PUSH1 0x10 DUP5 ADD SLOAD PUSH2 0x49B5 JUMP JUMPDEST PUSH1 0x1F DUP2 GT PUSH2 0x1857 JUMPI JUMPDEST POP PUSH2 0x100 MLOAD PUSH1 0x20 SWAP1 PUSH1 0x1F DUP4 GT PUSH1 0x1 EQ PUSH2 0x17E8 JUMPI POP DUP2 SWAP3 SWAP4 SWAP5 PUSH2 0x100 MLOAD SWAP3 PUSH2 0x17DD JUMPI JUMPDEST POP POP DUP2 PUSH1 0x1 SHL SWAP2 PUSH1 0x0 NOT SWAP1 PUSH1 0x3 SHL SHR NOT AND OR PUSH1 0x10 DUP4 ADD SSTORE JUMPDEST PUSH1 0x40 DUP2 ADD MLOAD SWAP1 DUP2 MLOAD PUSH1 0x1 PUSH1 0x1 PUSH1 0x40 SHL SUB DUP2 GT PUSH2 0x1708 JUMPI PUSH2 0x14F9 PUSH1 0x11 DUP6 ADD SLOAD PUSH2 0x49B5 JUMP JUMPDEST PUSH1 0x1F DUP2 GT PUSH2 0x17A4 JUMPI JUMPDEST POP PUSH2 0x100 MLOAD PUSH1 0x20 SWAP1 PUSH1 0x1F DUP4 GT PUSH1 0x1 EQ PUSH2 0x172D JUMPI POP DUP2 SWAP1 PUSH1 0x80 SWAP5 PUSH2 0x100 MLOAD SWAP3 PUSH2 0x1722 JUMPI JUMPDEST POP POP DUP2 PUSH1 0x1 SHL SWAP2 PUSH1 0x0 NOT SWAP1 PUSH1 0x3 SHL SHR NOT AND OR PUSH1 0x11 DUP5 ADD SSTORE JUMPDEST PUSH1 0x60 DUP2 ADD MLOAD PUSH1 0x12 DUP5 ADD SSTORE ADD MLOAD SWAP1 DUP2 MLOAD PUSH1 0x1 PUSH1 0x1 PUSH1 0x40 SHL SUB DUP2 GT PUSH2 0x1708 JUMPI PUSH1 0x13 DUP3 ADD SWAP1 PUSH2 0x1569 DUP3 SLOAD PUSH2 0x49B5 JUMP JUMPDEST PUSH1 0x1F DUP2 GT PUSH2 0x16C7 JUMPI JUMPDEST POP PUSH2 0x100 MLOAD PUSH1 0x20 SWAP1 PUSH1 0x1F DUP4 GT PUSH1 0x1 EQ PUSH2 0x1660 JUMPI POP DUP2 SWAP3 SWAP4 SWAP5 PUSH2 0x100 MLOAD SWAP3 PUSH2 0x1655 JUMPI JUMPDEST POP POP DUP2 PUSH1 0x1 SHL SWAP2 PUSH1 0x0 NOT SWAP1 PUSH1 0x3 SHL SHR NOT AND OR SWAP1 SSTORE JUMPDEST PUSH1 0x17 PUSH2 0x2C0 PUSH1 0x14 DUP4 ADD PUSH2 0x15F3 PUSH2 0x260 MLOAD SWAP2 PUSH2 0x15D7 PUSH2 0x240 DUP5 ADD MLOAD ISZERO ISZERO DUP3 SWAP1 PUSH1 0xFF DUP1 NOT DUP4 SLOAD AND SWAP2 ISZERO ISZERO AND OR SWAP1 SSTORE JUMP JUMPDEST PUSH2 0x260 DUP4 ADD MLOAD DUP2 SLOAD PUSH2 0xFF00 NOT AND SWAP1 ISZERO ISZERO PUSH1 0x8 SHL PUSH2 0xFF00 AND OR SWAP1 SSTORE JUMP JUMPDEST PUSH2 0x280 DUP2 ADD MLOAD PUSH1 0x15 DUP6 ADD SSTORE PUSH1 0x16 DUP5 ADD PUSH1 0x1 DUP1 PUSH1 0xA0 SHL SUB PUSH2 0x2A0 DUP4 ADD MLOAD AND PUSH1 0x1 PUSH1 0x1 PUSH1 0x60 SHL SUB PUSH1 0xA0 SHL DUP3 SLOAD AND OR SWAP1 SSTORE ADD MLOAD SWAP2 ADD SSTORE PUSH2 0x100 MLOAD CALLER PUSH1 0x4 CALLDATALOAD PUSH32 0xAC4673E0C14F555F7A29DC1ABE824E57FEEB4DC61DFFC46E24A31D970178D6A DUP4 DUP1 LOG3 DUP1 RETURN JUMPDEST ADD MLOAD SWAP1 POP DUP5 DUP1 PUSH2 0x1594 JUMP JUMPDEST DUP4 SWAP1 MSTORE PUSH2 0x100 MLOAD PUSH1 0x20 DUP2 KECCAK256 SWAP2 SWAP1 PUSH1 0x1F NOT DUP5 AND SWAP1 JUMPDEST DUP2 DUP2 LT PUSH2 0x16AF JUMPI POP SWAP6 DUP4 PUSH1 0x1 SWAP6 SWAP7 SWAP8 LT PUSH2 0x1696 JUMPI JUMPDEST POP POP POP DUP2 SHL ADD SWAP1 SSTORE PUSH2 0x15A9 JUMP JUMPDEST ADD MLOAD PUSH1 0x0 NOT PUSH1 0xF8 DUP5 PUSH1 0x3 SHL AND SHR NOT AND SWAP1 SSTORE DUP5 DUP1 DUP1 PUSH2 0x1689 JUMP JUMPDEST SWAP2 SWAP3 PUSH1 0x20 PUSH1 0x1 DUP2 SWAP3 DUP7 DUP12 ADD MLOAD DUP2 SSTORE ADD SWAP5 ADD SWAP3 ADD PUSH2 0x1674 JUMP JUMPDEST PUSH2 0x16F8 SWAP1 DUP4 PUSH2 0x100 MLOAD MSTORE PUSH1 0x20 PUSH2 0x100 MLOAD KECCAK256 PUSH1 0x1F DUP5 ADD PUSH1 0x5 SHR DUP2 ADD SWAP2 PUSH1 0x20 DUP6 LT PUSH2 0x16FE JUMPI JUMPDEST PUSH1 0x1F ADD PUSH1 0x5 SHR ADD SWAP1 PUSH2 0x500F JUMP JUMPDEST DUP5 PUSH2 0x1572 JUMP JUMPDEST SWAP1 SWAP2 POP DUP2 SWAP1 PUSH2 0x16EB JUMP JUMPDEST PUSH4 0x4E487B71 PUSH1 0xE0 SHL PUSH2 0x100 MLOAD MSTORE PUSH1 0x41 PUSH1 0x4 MSTORE PUSH1 0x24 PUSH2 0x100 MLOAD REVERT JUMPDEST ADD MLOAD SWAP1 POP DUP6 DUP1 PUSH2 0x1525 JUMP JUMPDEST PUSH1 0x11 DUP7 SWAP6 SWAP4 SWAP5 SWAP6 ADD SWAP1 MSTORE PUSH2 0x100 MLOAD SWAP2 PUSH1 0x20 DUP4 KECCAK256 SWAP3 JUMPDEST PUSH1 0x1F NOT DUP6 AND DUP2 LT PUSH2 0x178C JUMPI POP SWAP2 DUP4 SWAP2 PUSH1 0x1 SWAP4 PUSH1 0x80 SWAP7 SWAP6 PUSH1 0x1F NOT DUP2 AND LT PUSH2 0x1773 JUMPI JUMPDEST POP POP POP DUP2 SHL ADD PUSH1 0x11 DUP5 ADD SSTORE PUSH2 0x153D JUMP JUMPDEST ADD MLOAD PUSH1 0x0 NOT PUSH1 0xF8 DUP5 PUSH1 0x3 SHL AND SHR NOT AND SWAP1 SSTORE DUP6 DUP1 DUP1 PUSH2 0x1763 JUMP JUMPDEST SWAP2 SWAP3 PUSH1 0x20 PUSH1 0x1 DUP2 SWAP3 DUP7 DUP6 ADD MLOAD DUP2 SSTORE ADD SWAP5 ADD SWAP3 ADD PUSH2 0x1742 JUMP JUMPDEST PUSH2 0x17D7 SWAP1 PUSH1 0x11 DUP7 ADD PUSH2 0x100 MLOAD MSTORE PUSH1 0x20 PUSH2 0x100 MLOAD KECCAK256 PUSH1 0x1F DUP5 ADD PUSH1 0x5 SHR DUP2 ADD SWAP2 PUSH1 0x20 DUP6 LT PUSH2 0x16FE JUMPI PUSH1 0x1F ADD PUSH1 0x5 SHR ADD SWAP1 PUSH2 0x500F JUMP JUMPDEST DUP5 PUSH2 0x1502 JUMP JUMPDEST ADD MLOAD SWAP1 POP DUP5 DUP1 PUSH2 0x14BE JUMP JUMPDEST PUSH1 0x10 DUP6 ADD SWAP1 MSTORE PUSH2 0x100 MLOAD SWAP1 PUSH1 0x20 DUP3 KECCAK256 SWAP2 JUMPDEST PUSH1 0x1F NOT DUP5 AND DUP2 LT PUSH2 0x183F JUMPI POP PUSH1 0x1 SWAP4 SWAP5 SWAP6 DUP4 PUSH1 0x1F NOT DUP2 AND LT PUSH2 0x1826 JUMPI JUMPDEST POP POP POP DUP2 SHL ADD PUSH1 0x10 DUP4 ADD SSTORE PUSH2 0x14D6 JUMP JUMPDEST ADD MLOAD PUSH1 0x0 NOT PUSH1 0xF8 DUP5 PUSH1 0x3 SHL AND SHR NOT AND SWAP1 SSTORE DUP5 DUP1 DUP1 PUSH2 0x1816 JUMP JUMPDEST SWAP1 SWAP2 PUSH1 0x20 PUSH1 0x1 DUP2 SWAP3 DUP6 DUP11 ADD MLOAD DUP2 SSTORE ADD SWAP4 ADD SWAP2 ADD PUSH2 0x17F9 JUMP JUMPDEST PUSH2 0x188A SWAP1 PUSH1 0x10 DUP6 ADD PUSH2 0x100 MLOAD MSTORE PUSH1 0x20 PUSH2 0x100 MLOAD KECCAK256 PUSH1 0x1F DUP5 ADD PUSH1 0x5 SHR DUP2 ADD SWAP2 PUSH1 0x20 DUP6 LT PUSH2 0x16FE JUMPI PUSH1 0x1F ADD PUSH1 0x5 SHR ADD SWAP1 PUSH2 0x500F JUMP JUMPDEST DUP5 PUSH2 0x149C JUMP JUMPDEST DUP1 MLOAD DUP1 MLOAD SWAP1 PUSH1 0x1 PUSH1 0x1 PUSH1 0x40 SHL SUB DUP3 GT PUSH2 0x1708 JUMPI PUSH2 0x18AD DUP7 SLOAD PUSH2 0x49B5 JUMP JUMPDEST PUSH1 0x1F DUP2 GT PUSH2 0x197C JUMPI JUMPDEST POP PUSH2 0x100 MLOAD SWAP1 DUP7 PUSH1 0x20 SWAP3 PUSH1 0x1F DUP6 GT PUSH1 0x1 EQ PUSH2 0x190D JUMPI POP POP SWAP3 DUP3 PUSH1 0x1 SWAP5 SWAP4 PUSH1 0x20 SWAP4 DUP7 SWAP6 PUSH2 0x100 MLOAD SWAP3 PUSH2 0x1902 JUMPI JUMPDEST POP POP PUSH1 0x0 NOT PUSH1 0x3 DUP4 SWAP1 SHL SHR NOT AND SWAP1 DUP5 SHL OR DUP8 SSTORE JUMPDEST ADD SWAP5 ADD SWAP2 ADD SWAP1 SWAP3 PUSH2 0x143E JUMP JUMPDEST ADD MLOAD SWAP1 POP DUP11 DUP1 PUSH2 0x18E2 JUMP JUMPDEST MSTORE PUSH2 0x100 MLOAD PUSH1 0x20 DUP2 KECCAK256 SWAP3 SWAP2 SWAP1 JUMPDEST PUSH1 0x1F NOT DUP6 AND DUP2 LT PUSH2 0x1964 JUMPI POP DUP4 PUSH1 0x20 SWAP4 PUSH1 0x1 SWAP7 SWAP4 DUP8 SWAP7 SWAP4 DUP8 SWAP5 PUSH1 0x1F NOT DUP2 AND LT PUSH2 0x194B JUMPI JUMPDEST POP POP POP DUP2 SHL ADD DUP8 SSTORE PUSH2 0x18F6 JUMP JUMPDEST ADD MLOAD PUSH1 0x0 NOT PUSH1 0xF8 DUP5 PUSH1 0x3 SHL AND SHR NOT AND SWAP1 SSTORE DUP11 DUP1 DUP1 PUSH2 0x193E JUMP JUMPDEST SWAP2 SWAP3 PUSH1 0x20 PUSH1 0x1 DUP2 SWAP3 DUP7 DUP6 ADD MLOAD DUP2 SSTORE ADD SWAP5 ADD SWAP3 ADD PUSH2 0x191A JUMP JUMPDEST PUSH2 0x19AC SWAP1 DUP8 PUSH2 0x100 MLOAD MSTORE PUSH1 0x20 PUSH2 0x100 MLOAD KECCAK256 PUSH1 0x1F DUP6 ADD PUSH1 0x5 SHR DUP2 ADD SWAP2 PUSH1 0x20 DUP7 LT PUSH2 0x16FE JUMPI PUSH1 0x1F ADD PUSH1 0x5 SHR ADD SWAP1 PUSH2 0x500F JUMP JUMPDEST DUP8 PUSH2 0x18B6 JUMP JUMPDEST PUSH1 0xE DUP5 ADD PUSH2 0x100 MLOAD MSTORE PUSH1 0x20 PUSH2 0x100 MLOAD KECCAK256 SWAP1 DUP4 DUP3 ADD JUMPDEST DUP2 DUP4 ADD DUP2 LT PUSH2 0x19D7 JUMPI POP POP PUSH2 0x1428 JUMP JUMPDEST DUP1 PUSH2 0x19E4 PUSH1 0x1 SWAP3 SLOAD PUSH2 0x49B5 JUMP JUMPDEST DUP1 PUSH2 0x19F1 JUMPI JUMPDEST POP ADD PUSH2 0x19C7 JUMP JUMPDEST PUSH1 0x1F DUP2 GT DUP4 EQ PUSH2 0x1A09 JUMPI POP PUSH2 0x100 MLOAD DUP2 SSTORE JUMPDEST DUP8 PUSH2 0x19EA JUMP JUMPDEST DUP2 PUSH2 0x100 MLOAD MSTORE PUSH2 0x100 MLOAD SWAP1 PUSH2 0x1A2C PUSH1 0x1F PUSH1 0x20 DUP5 KECCAK256 SWAP3 ADD PUSH1 0x5 SHR DUP3 ADD DUP6 DUP4 ADD PUSH2 0x500F JUMP JUMPDEST DUP2 DUP4 SSTORE SSTORE PUSH2 0x1A03 JUMP JUMPDEST ADD MLOAD SWAP1 POP DUP4 DUP1 PUSH2 0x13E6 JUMP JUMPDEST PUSH1 0xD DUP7 ADD SWAP1 MSTORE PUSH2 0x100 MLOAD PUSH1 0x20 DUP2 KECCAK256 SWAP1 SWAP5 POP SWAP2 SWAP1 JUMPDEST PUSH1 0x1F NOT DUP5 AND DUP6 LT PUSH2 0x1A98 JUMPI PUSH1 0x1 SWAP5 POP DUP4 PUSH1 0x1F NOT DUP2 AND LT PUSH2 0x1A7F JUMPI JUMPDEST POP POP POP DUP2 SHL ADD PUSH1 0xD DUP3 ADD SSTORE PUSH2 0x13FE JUMP JUMPDEST ADD MLOAD PUSH1 0x0 NOT PUSH1 0xF8 DUP5 PUSH1 0x3 SHL AND SHR NOT AND SWAP1 SSTORE DUP4 DUP1 DUP1 PUSH2 0x1A6F JUMP JUMPDEST DUP2 DUP2 ADD MLOAD DUP4 SSTORE PUSH1 0x20 SWAP5 DUP6 ADD SWAP5 PUSH1 0x1 SWAP1 SWAP4 ADD SWAP3 SWAP1 SWAP2 ADD SWAP1 PUSH2 0x1A54 JUMP JUMPDEST PUSH2 0x1AE6 SWAP1 PUSH1 0xD DUP7 ADD PUSH2 0x100 MLOAD MSTORE PUSH1 0x20 PUSH2 0x100 MLOAD KECCAK256 PUSH1 0x1F DUP6 ADD PUSH1 0x5 SHR DUP2 ADD SWAP2 PUSH1 0x20 DUP7 LT PUSH2 0x16FE JUMPI PUSH1 0x1F ADD PUSH1 0x5 SHR ADD SWAP1 PUSH2 0x500F JUMP JUMPDEST DUP5 PUSH2 0x13C7 JUMP JUMPDEST PUSH4 0x4E487B71 PUSH1 0xE0 SHL PUSH2 0x100 MLOAD MSTORE PUSH1 0x21 PUSH1 0x4 MSTORE PUSH1 0x24 PUSH2 0x100 MLOAD REVERT JUMPDEST ADD MLOAD SWAP1 POP DUP4 DUP1 PUSH2 0x1311 JUMP JUMPDEST PUSH1 0xA DUP7 ADD SWAP1 MSTORE PUSH2 0x100 MLOAD PUSH1 0x20 DUP2 KECCAK256 SWAP1 SWAP5 POP SWAP2 SWAP1 JUMPDEST PUSH1 0x1F NOT DUP5 AND DUP6 LT PUSH2 0x1B69 JUMPI PUSH1 0x1 SWAP5 POP DUP4 PUSH1 0x1F NOT DUP2 AND LT PUSH2 0x1B50 JUMPI JUMPDEST POP POP POP DUP2 SHL ADD PUSH1 0xA DUP3 ADD SSTORE PUSH2 0x1329 JUMP JUMPDEST ADD MLOAD PUSH1 0x0 NOT PUSH1 0xF8 DUP5 PUSH1 0x3 SHL AND SHR NOT AND SWAP1 SSTORE DUP4 DUP1 DUP1 PUSH2 0x1B40 JUMP JUMPDEST DUP2 DUP2 ADD MLOAD DUP4 SSTORE PUSH1 0x20 SWAP5 DUP6 ADD SWAP5 PUSH1 0x1 SWAP1 SWAP4 ADD SWAP3 SWAP1 SWAP2 ADD SWAP1 PUSH2 0x1B25 JUMP JUMPDEST PUSH2 0x1BB7 SWAP1 PUSH1 0xA DUP7 ADD PUSH2 0x100 MLOAD MSTORE PUSH1 0x20 PUSH2 0x100 MLOAD KECCAK256 PUSH1 0x1F DUP6 ADD PUSH1 0x5 SHR DUP2 ADD SWAP2 PUSH1 0x20 DUP7 LT PUSH2 0x16FE JUMPI PUSH1 0x1F ADD PUSH1 0x5 SHR ADD SWAP1 PUSH2 0x500F JUMP JUMPDEST DUP5 PUSH2 0x12F2 JUMP JUMPDEST ADD MLOAD SWAP1 POP DUP4 DUP1 PUSH2 0x129D JUMP JUMPDEST PUSH1 0x8 DUP7 ADD SWAP1 MSTORE PUSH2 0x100 MLOAD PUSH1 0x20 DUP2 KECCAK256 SWAP1 SWAP5 POP SWAP2 SWAP1 JUMPDEST PUSH1 0x1F NOT DUP5 AND DUP6 LT PUSH2 0x1C20 JUMPI PUSH1 0x1 SWAP5 POP DUP4 PUSH1 0x1F NOT DUP2 AND LT PUSH2 0x1C07 JUMPI JUMPDEST POP POP POP DUP2 SHL ADD PUSH1 0x8 DUP3 ADD SSTORE PUSH2 0x12B5 JUMP JUMPDEST ADD MLOAD PUSH1 0x0 NOT PUSH1 0xF8 DUP5 PUSH1 0x3 SHL AND SHR NOT AND SWAP1 SSTORE DUP4 DUP1 DUP1 PUSH2 0x1BF7 JUMP JUMPDEST DUP2 DUP2 ADD MLOAD DUP4 SSTORE PUSH1 0x20 SWAP5 DUP6 ADD SWAP5 PUSH1 0x1 SWAP1 SWAP4 ADD SWAP3 SWAP1 SWAP2 ADD SWAP1 PUSH2 0x1BDC JUMP JUMPDEST PUSH2 0x1C6E SWAP1 PUSH1 0x8 DUP7 ADD PUSH2 0x100 MLOAD MSTORE PUSH1 0x20 PUSH2 0x100 MLOAD KECCAK256 PUSH1 0x1F DUP6 ADD PUSH1 0x5 SHR DUP2 ADD SWAP2 PUSH1 0x20 DUP7 LT PUSH2 0x16FE JUMPI PUSH1 0x1F ADD PUSH1 0x5 SHR ADD SWAP1 PUSH2 0x500F JUMP JUMPDEST DUP5 PUSH2 0x127E JUMP JUMPDEST ADD MLOAD SWAP1 POP DUP4 DUP1 PUSH2 0x122A JUMP JUMPDEST PUSH1 0x6 DUP7 ADD SWAP1 MSTORE PUSH2 0x100 MLOAD PUSH1 0x20 DUP2 KECCAK256 SWAP1 SWAP5 POP SWAP2 SWAP1 JUMPDEST PUSH1 0x1F NOT DUP5 AND DUP6 LT PUSH2 0x1CD7 JUMPI PUSH1 0x1 SWAP5 POP DUP4 PUSH1 0x1F NOT DUP2 AND LT PUSH2 0x1CBE JUMPI JUMPDEST POP POP POP DUP2 SHL ADD PUSH1 0x6 DUP3 ADD SSTORE PUSH2 0x1242 JUMP JUMPDEST ADD MLOAD PUSH1 0x0 NOT PUSH1 0xF8 DUP5 PUSH1 0x3 SHL AND SHR NOT AND SWAP1 SSTORE DUP4 DUP1 DUP1 PUSH2 0x1CAE JUMP JUMPDEST DUP2 DUP2 ADD MLOAD DUP4 SSTORE PUSH1 0x20 SWAP5 DUP6 ADD SWAP5 PUSH1 0x1 SWAP1 SWAP4 ADD SWAP3 SWAP1 SWAP2 ADD SWAP1 PUSH2 0x1C93 JUMP JUMPDEST PUSH2 0x1D25 SWAP1 PUSH1 0x6 DUP7 ADD PUSH2 0x100 MLOAD MSTORE PUSH1 0x20 PUSH2 0x100 MLOAD KECCAK256 PUSH1 0x1F DUP6 ADD PUSH1 0x5 SHR DUP2 ADD SWAP2 PUSH1 0x20 DUP7 LT PUSH2 0x16FE JUMPI PUSH1 0x1F ADD PUSH1 0x5 SHR ADD SWAP1 PUSH2 0x500F JUMP JUMPDEST DUP5 PUSH2 0x120B JUMP JUMPDEST ADD MLOAD SWAP1 POP DUP4 DUP1 PUSH2 0x11C2 JUMP JUMPDEST PUSH1 0x5 DUP7 ADD SWAP1 MSTORE PUSH2 0x100 MLOAD PUSH1 0x20 DUP2 KECCAK256 SWAP1 SWAP5 POP SWAP2 SWAP1 JUMPDEST PUSH1 0x1F NOT DUP5 AND DUP6 LT PUSH2 0x1D8E JUMPI PUSH1 0x1 SWAP5 POP DUP4 PUSH1 0x1F NOT DUP2 AND LT PUSH2 0x1D75 JUMPI JUMPDEST POP POP POP DUP2 SHL ADD PUSH1 0x5 DUP3 ADD SSTORE PUSH2 0x11DA JUMP JUMPDEST ADD MLOAD PUSH1 0x0 NOT PUSH1 0xF8 DUP5 PUSH1 0x3 SHL AND SHR NOT AND SWAP1 SSTORE DUP4 DUP1 DUP1 PUSH2 0x1D65 JUMP JUMPDEST DUP2 DUP2 ADD MLOAD DUP4 SSTORE PUSH1 0x20 SWAP5 DUP6 ADD SWAP5 PUSH1 0x1 SWAP1 SWAP4 ADD SWAP3 SWAP1 SWAP2 ADD SWAP1 PUSH2 0x1D4A JUMP JUMPDEST PUSH2 0x1DDC SWAP1 PUSH1 0x5 DUP7 ADD PUSH2 0x100 MLOAD MSTORE PUSH1 0x20 PUSH2 0x100 MLOAD KECCAK256 PUSH1 0x1F DUP6 ADD PUSH1 0x5 SHR DUP2 ADD SWAP2 PUSH1 0x20 DUP7 LT PUSH2 0x16FE JUMPI PUSH1 0x1F ADD PUSH1 0x5 SHR ADD SWAP1 PUSH2 0x500F JUMP JUMPDEST DUP5 PUSH2 0x11A3 JUMP JUMPDEST ADD MLOAD SWAP1 POP DUP4 DUP1 PUSH2 0x115A JUMP JUMPDEST PUSH1 0x4 DUP7 ADD SWAP1 MSTORE PUSH2 0x100 MLOAD PUSH1 0x20 DUP2 KECCAK256 SWAP1 SWAP5 POP SWAP2 SWAP1 JUMPDEST PUSH1 0x1F NOT DUP5 AND DUP6 LT PUSH2 0x1E45 JUMPI PUSH1 0x1 SWAP5 POP DUP4 PUSH1 0x1F NOT DUP2 AND LT PUSH2 0x1E2C JUMPI JUMPDEST POP POP POP DUP2 SHL ADD PUSH1 0x4 DUP3 ADD SSTORE PUSH2 0x1172 JUMP JUMPDEST ADD MLOAD PUSH1 0x0 NOT PUSH1 0xF8 DUP5 PUSH1 0x3 SHL AND SHR NOT AND SWAP1 SSTORE DUP4 DUP1 DUP1 PUSH2 0x1E1C JUMP JUMPDEST DUP2 DUP2 ADD MLOAD DUP4 SSTORE PUSH1 0x20 SWAP5 DUP6 ADD SWAP5 PUSH1 0x1 SWAP1 SWAP4 ADD SWAP3 SWAP1 SWAP2 ADD SWAP1 PUSH2 0x1E01 JUMP JUMPDEST PUSH2 0x1E93 SWAP1 PUSH1 0x4 DUP7 ADD PUSH2 0x100 MLOAD MSTORE PUSH1 0x20 PUSH2 0x100 MLOAD KECCAK256 PUSH1 0x1F DUP6 ADD PUSH1 0x5 SHR DUP2 ADD SWAP2 PUSH1 0x20 DUP7 LT PUSH2 0x16FE JUMPI PUSH1 0x1F ADD PUSH1 0x5 SHR ADD SWAP1 PUSH2 0x500F JUMP JUMPDEST DUP5 PUSH2 0x113B JUMP JUMPDEST DUP1 MLOAD DUP1 MLOAD SWAP1 PUSH1 0x1 PUSH1 0x1 PUSH1 0x40 SHL SUB DUP3 GT PUSH2 0x1708 JUMPI PUSH2 0x1EB6 DUP7 SLOAD PUSH2 0x49B5 JUMP JUMPDEST PUSH1 0x1F DUP2 GT PUSH2 0x1F85 JUMPI JUMPDEST POP PUSH2 0x100 MLOAD SWAP1 DUP7 PUSH1 0x20 SWAP3 PUSH1 0x1F DUP6 GT PUSH1 0x1 EQ PUSH2 0x1F16 JUMPI POP POP SWAP3 DUP3 PUSH1 0x1 SWAP5 SWAP4 PUSH1 0x20 SWAP4 DUP7 SWAP6 PUSH2 0x100 MLOAD SWAP3 PUSH2 0x1F0B JUMPI JUMPDEST POP POP PUSH1 0x0 NOT PUSH1 0x3 DUP4 SWAP1 SHL SHR NOT AND SWAP1 DUP5 SHL OR DUP8 SSTORE JUMPDEST ADD SWAP5 ADD SWAP2 ADD SWAP1 SWAP3 PUSH2 0x1102 JUMP JUMPDEST ADD MLOAD SWAP1 POP DUP11 DUP1 PUSH2 0x1EEB JUMP JUMPDEST MSTORE PUSH2 0x100 MLOAD PUSH1 0x20 DUP2 KECCAK256 SWAP3 SWAP2 SWAP1 JUMPDEST PUSH1 0x1F NOT DUP6 AND DUP2 LT PUSH2 0x1F6D JUMPI POP DUP4 PUSH1 0x20 SWAP4 PUSH1 0x1 SWAP7 SWAP4 DUP8 SWAP7 SWAP4 DUP8 SWAP5 PUSH1 0x1F NOT DUP2 AND LT PUSH2 0x1F54 JUMPI JUMPDEST POP POP POP DUP2 SHL ADD DUP8 SSTORE PUSH2 0x1EFF JUMP JUMPDEST ADD MLOAD PUSH1 0x0 NOT PUSH1 0xF8 DUP5 PUSH1 0x3 SHL AND SHR NOT AND SWAP1 SSTORE DUP11 DUP1 DUP1 PUSH2 0x1F47 JUMP JUMPDEST SWAP2 SWAP3 PUSH1 0x20 PUSH1 0x1 DUP2 SWAP3 DUP7 DUP6 ADD MLOAD DUP2 SSTORE ADD SWAP5 ADD SWAP3 ADD PUSH2 0x1F23 JUMP JUMPDEST PUSH2 0x1FB6 SWAP1 DUP8 PUSH2 0x100 MLOAD MSTORE PUSH1 0x20 PUSH2 0x100 MLOAD KECCAK256 PUSH1 0x5 PUSH1 0x1F DUP7 ADD DUP2 SHR DUP3 ADD SWAP3 PUSH1 0x20 DUP8 LT PUSH2 0x1FBC JUMPI JUMPDEST PUSH1 0x1F ADD SWAP1 SHR ADD SWAP1 PUSH2 0x500F JUMP JUMPDEST DUP8 PUSH2 0x1EBF JUMP JUMPDEST SWAP2 SWAP3 POP DUP3 SWAP2 PUSH2 0x1FAA JUMP JUMPDEST PUSH1 0x3 DUP5 ADD PUSH2 0x100 MLOAD MSTORE PUSH1 0x20 PUSH2 0x100 MLOAD KECCAK256 SWAP1 DUP4 DUP3 ADD JUMPDEST DUP2 DUP4 ADD DUP2 LT PUSH2 0x1FEB JUMPI POP POP PUSH2 0x10EC JUMP JUMPDEST DUP1 PUSH2 0x1FF8 PUSH1 0x1 SWAP3 SLOAD PUSH2 0x49B5 JUMP JUMPDEST DUP1 PUSH2 0x2005 JUMPI JUMPDEST POP ADD PUSH2 0x1FDB JUMP JUMPDEST PUSH1 0x1F DUP2 GT DUP4 EQ PUSH2 0x201D JUMPI POP PUSH2 0x100 MLOAD DUP2 SSTORE JUMPDEST DUP8 PUSH2 0x1FFE JUMP JUMPDEST DUP2 PUSH2 0x100 MLOAD MSTORE PUSH2 0x100 MLOAD SWAP1 PUSH2 0x2040 PUSH1 0x1F PUSH1 0x20 DUP5 KECCAK256 SWAP3 ADD PUSH1 0x5 SHR DUP3 ADD DUP6 DUP4 ADD PUSH2 0x500F JUMP JUMPDEST DUP2 DUP4 SSTORE SSTORE PUSH2 0x2017 JUMP JUMPDEST ADD MLOAD SWAP1 POP DUP4 DUP1 PUSH2 0x10AB JUMP JUMPDEST PUSH1 0x2 DUP7 ADD SWAP1 MSTORE PUSH2 0x100 MLOAD PUSH1 0x20 DUP2 KECCAK256 SWAP1 SWAP5 POP SWAP2 SWAP1 JUMPDEST PUSH1 0x1F NOT DUP5 AND DUP6 LT PUSH2 0x20AC JUMPI PUSH1 0x1 SWAP5 POP DUP4 PUSH1 0x1F NOT DUP2 AND LT PUSH2 0x2093 JUMPI JUMPDEST POP POP POP DUP2 SHL ADD PUSH1 0x2 DUP3 ADD SSTORE PUSH2 0x10C3 JUMP JUMPDEST ADD MLOAD PUSH1 0x0 NOT PUSH1 0xF8 DUP5 PUSH1 0x3 SHL AND SHR NOT AND SWAP1 SSTORE DUP4 DUP1 DUP1 PUSH2 0x2083 JUMP JUMPDEST DUP2 DUP2 ADD MLOAD DUP4 SSTORE PUSH1 0x20 SWAP5 DUP6 ADD SWAP5 PUSH1 0x1 SWAP1 SWAP4 ADD SWAP3 SWAP1 SWAP2 ADD SWAP1 PUSH2 0x2068 JUMP JUMPDEST PUSH2 0x20FA SWAP1 PUSH1 0x2 DUP7 ADD PUSH2 0x100 MLOAD MSTORE PUSH1 0x20 PUSH2 0x100 MLOAD KECCAK256 PUSH1 0x1F DUP6 ADD PUSH1 0x5 SHR DUP2 ADD SWAP2 PUSH1 0x20 DUP7 LT PUSH2 0x16FE JUMPI PUSH1 0x1F ADD PUSH1 0x5 SHR ADD SWAP1 PUSH2 0x500F JUMP JUMPDEST DUP5 PUSH2 0x108C JUMP JUMPDEST PUSH4 0x4E487B71 PUSH1 0xE0 SHL SWAP1 MSTORE PUSH1 0x41 PUSH1 0x4 MSTORE PUSH2 0x100 MLOAD PUSH1 0x24 SWAP1 REVERT JUMPDEST PUSH1 0x40 MLOAD PUSH3 0x461BCD PUSH1 0xE5 SHL DUP2 MSTORE PUSH1 0x20 PUSH1 0x4 DUP3 ADD MSTORE PUSH1 0x1F PUSH1 0x24 DUP3 ADD MSTORE PUSH32 0x53656C6C65722077616C6C6574206D757374206D617463682073656E64657200 PUSH1 0x44 DUP3 ADD MSTORE PUSH1 0x64 SWAP1 REVERT JUMPDEST PUSH1 0x40 MLOAD PUSH3 0x461BCD PUSH1 0xE5 SHL DUP2 MSTORE PUSH1 0x20 PUSH1 0x4 DUP3 ADD MSTORE PUSH1 0x1B PUSH1 0x24 DUP3 ADD MSTORE PUSH32 0x43616E6E6F74206368616E67652073656C6C65722077616C6C65740000000000 PUSH1 0x44 DUP3 ADD MSTORE PUSH1 0x64 SWAP1 REVERT JUMPDEST PUSH1 0x40 MLOAD PUSH3 0x461BCD PUSH1 0xE5 SHL DUP2 MSTORE PUSH1 0x20 PUSH1 0x4 DUP3 ADD MSTORE PUSH1 0x15 PUSH1 0x24 DUP3 ADD MSTORE PUSH21 0x4D6F64656C2063616E6E6F7420626520656D707479 PUSH1 0x58 SHL PUSH1 0x44 DUP3 ADD MSTORE PUSH1 0x64 SWAP1 REVERT JUMPDEST PUSH1 0x40 MLOAD PUSH3 0x461BCD PUSH1 0xE5 SHL DUP2 MSTORE PUSH1 0x20 PUSH1 0x4 DUP3 ADD MSTORE PUSH1 0x14 PUSH1 0x24 DUP3 ADD MSTORE PUSH20 0x4D616B652063616E6E6F7420626520656D707479 PUSH1 0x60 SHL PUSH1 0x44 DUP3 ADD MSTORE PUSH1 0x64 SWAP1 REVERT JUMPDEST PUSH1 0x40 MLOAD PUSH3 0x461BCD PUSH1 0xE5 SHL DUP2 MSTORE PUSH1 0x20 PUSH1 0x4 DUP3 ADD MSTORE PUSH1 0x1E PUSH1 0x24 DUP3 ADD MSTORE PUSH32 0x4174206C65617374206F6E6520696D6167652069732072657175697265640000 PUSH1 0x44 DUP3 ADD MSTORE PUSH1 0x64 SWAP1 REVERT JUMPDEST PUSH1 0x40 MLOAD PUSH3 0x461BCD PUSH1 0xE5 SHL DUP2 MSTORE PUSH1 0x20 PUSH1 0x4 DUP3 ADD MSTORE PUSH1 0x14 PUSH1 0x24 DUP3 ADD MSTORE PUSH20 0x4E616D652063616E6E6F7420626520656D707479 PUSH1 0x60 SHL PUSH1 0x44 DUP3 ADD MSTORE PUSH1 0x64 SWAP1 REVERT JUMPDEST PUSH1 0x40 MLOAD PUSH3 0x461BCD PUSH1 0xE5 SHL DUP2 MSTORE PUSH1 0x20 PUSH1 0x4 DUP3 ADD MSTORE PUSH1 0x1C PUSH1 0x24 DUP3 ADD MSTORE PUSH32 0x5072696365206D7573742062652067726561746572207468616E203000000000 PUSH1 0x44 DUP3 ADD MSTORE PUSH1 0x64 SWAP1 REVERT JUMPDEST CALLVALUE PUSH2 0x20B JUMPI PUSH2 0x100 MLOAD DUP1 PUSH1 0x3 NOT CALLDATASIZE ADD SLT PUSH2 0x4DE JUMPI PUSH2 0x22FD PUSH2 0x48EE JUMP JUMPDEST PUSH2 0x100 MLOAD DUP1 SLOAD PUSH1 0x1 PUSH1 0x1 PUSH1 0xA0 SHL SUB NOT DUP2 AND DUP3 SSTORE DUP2 SWAP1 PUSH1 0x1 PUSH1 0x1 PUSH1 0xA0 SHL SUB AND PUSH32 0x8BE0079C531659141344CD1FD0A4F28419497F9722A3DAAFE3B4186F6B6457E0 DUP3 DUP1 LOG3 DUP1 RETURN JUMPDEST CALLVALUE PUSH2 0x20B JUMPI PUSH1 0x20 CALLDATASIZE PUSH1 0x3 NOT ADD SLT PUSH2 0x20B JUMPI PUSH1 0x1 PUSH1 0x1 PUSH1 0xA0 SHL SUB PUSH2 0x2363 PUSH2 0x436A JUMP JUMPDEST AND DUP1 ISZERO PUSH2 0x2386 JUMPI PUSH2 0x100 MLOAD MSTORE PUSH1 0x4 PUSH1 0x20 MSTORE PUSH1 0x20 PUSH1 0x40 PUSH2 0x100 MLOAD KECCAK256 SLOAD PUSH1 0x40 MLOAD SWAP1 DUP2 MSTORE RETURN JUMPDEST PUSH1 0x40 MLOAD PUSH3 0x461BCD PUSH1 0xE5 SHL DUP2 MSTORE PUSH1 0x20 PUSH1 0x4 DUP3 ADD MSTORE PUSH1 0x29 PUSH1 0x24 DUP3 ADD MSTORE PUSH32 0x4552433732313A2061646472657373207A65726F206973206E6F742061207661 PUSH1 0x44 DUP3 ADD MSTORE PUSH9 0x3634B21037BBB732B9 PUSH1 0xB9 SHL PUSH1 0x64 DUP3 ADD MSTORE PUSH1 0x84 SWAP1 REVERT JUMPDEST CALLVALUE PUSH2 0x20B JUMPI PUSH1 0x3 NOT PUSH1 0xC0 CALLDATASIZE DUP3 ADD SLT PUSH2 0x20B JUMPI PUSH1 0x1 PUSH1 0x1 PUSH1 0x40 SHL SUB PUSH1 0x4 CALLDATALOAD GT PUSH2 0x20B JUMPI PUSH1 0xE0 DUP2 PUSH1 0x4 CALLDATALOAD CALLDATASIZE SUB ADD SLT PUSH2 0x20B JUMPI PUSH1 0x1 PUSH1 0x1 PUSH1 0x40 SHL SUB PUSH1 0x24 CALLDATALOAD GT PUSH2 0x20B JUMPI PUSH1 0xC0 DUP2 PUSH1 0x24 CALLDATALOAD CALLDATASIZE SUB ADD SLT PUSH2 0x20B JUMPI PUSH1 0x1 PUSH1 0x1 PUSH1 0x40 SHL SUB PUSH1 0x44 CALLDATALOAD GT PUSH2 0x20B JUMPI PUSH1 0x60 DUP2 PUSH1 0x44 CALLDATALOAD CALLDATASIZE SUB ADD SLT PUSH2 0x20B JUMPI PUSH1 0x64 CALLDATALOAD SWAP1 DUP2 PUSH2 0x240 MSTORE PUSH1 0x1 PUSH1 0x1 PUSH1 0x40 SHL SUB DUP3 GT PUSH2 0x20B JUMPI PUSH1 0xA0 SWAP2 CALLDATASIZE SUB ADD SLT PUSH2 0x20B JUMPI PUSH1 0xA4 CALLDATALOAD PUSH2 0x1A0 DUP2 SWAP1 MSTORE PUSH1 0x1 PUSH1 0x1 PUSH1 0xA0 SHL SUB DUP2 AND SWAP1 DUP2 SWAP1 SUB PUSH2 0x20B JUMPI PUSH2 0x2490 SWAP1 ISZERO PUSH2 0x4F24 JUMP JUMPDEST PUSH2 0x240 MLOAD PUSH1 0x4 ADD PUSH1 0x1 PUSH1 0x1 PUSH1 0xA0 SHL SUB PUSH2 0x24A8 DUP3 PUSH2 0x4F70 JUMP JUMPDEST AND CALLER EQ SWAP1 DUP2 PUSH2 0x3AC1 JUMPI JUMPDEST POP ISZERO PUSH2 0x3A8B JUMPI PUSH1 0xA4 PUSH1 0x24 CALLDATALOAD ADD CALLDATALOAD ISZERO PUSH2 0x3A56 JUMPI PUSH2 0x24D8 PUSH1 0x24 PUSH1 0x4 CALLDATALOAD ADD PUSH1 0x4 CALLDATALOAD PUSH1 0x4 ADD PUSH2 0x4F84 JUMP JUMPDEST SWAP1 POP ISZERO PUSH2 0x3A25 JUMPI PUSH4 0x1E13380 TIMESTAMP DIV PUSH2 0x7B2 DUP2 ADD DUP1 SWAP2 GT PUSH2 0x3A0B JUMPI PUSH1 0xA4 PUSH1 0x4 CALLDATALOAD ADD CALLDATALOAD GT PUSH2 0x39D7 JUMPI PUSH4 0x3B9ACA00 PUSH1 0x24 CALLDATALOAD PUSH1 0x4 ADD CALLDATALOAD LT ISZERO PUSH2 0x39A0 JUMPI PUSH1 0x7 DUP1 SLOAD PUSH1 0x1 ADD PUSH2 0x180 DUP2 SWAP1 MSTORE SWAP1 SSTORE PUSH2 0x252D PUSH1 0x4 DUP1 CALLDATALOAD ADD DUP1 PUSH2 0x4FB9 JUMP JUMPDEST PUSH2 0x120 MSTORE PUSH2 0x200 MSTORE PUSH2 0x2549 PUSH1 0x24 PUSH1 0x4 CALLDATALOAD ADD PUSH1 0x4 CALLDATALOAD PUSH1 0x4 ADD PUSH2 0x4F84 JUMP JUMPDEST SWAP1 PUSH2 0x255E PUSH1 0x44 PUSH1 0x4 CALLDATALOAD ADD PUSH1 0x4 CALLDATALOAD PUSH1 0x4 ADD PUSH2 0x4FB9 JUMP JUMPDEST SWAP1 PUSH2 0x2573 PUSH1 0x64 PUSH1 0x4 CALLDATALOAD ADD PUSH1 0x4 CALLDATALOAD PUSH1 0x4 ADD PUSH2 0x4FB9 JUMP JUMPDEST SWAP1 PUSH2 0x2588 PUSH1 0x84 PUSH1 0x4 CALLDATALOAD ADD PUSH1 0x4 CALLDATALOAD PUSH1 0x4 ADD PUSH2 0x4FB9 JUMP JUMPDEST SWAP1 SWAP2 PUSH2 0x259E PUSH1 0xC4 PUSH1 0x4 CALLDATALOAD ADD PUSH1 0x4 CALLDATALOAD PUSH1 0x4 ADD PUSH2 0x4FB9 JUMP JUMPDEST SWAP5 SWAP1 SWAP6 PUSH2 0x25B4 PUSH1 0x24 DUP1 CALLDATALOAD ADD PUSH1 0x24 CALLDATALOAD PUSH1 0x4 ADD PUSH2 0x4FB9 JUMP JUMPDEST SWAP9 SWAP1 SWAP10 PUSH1 0x3 PUSH1 0x44 PUSH1 0x24 CALLDATALOAD ADD CALLDATALOAD LT ISZERO PUSH2 0x20B JUMPI PUSH1 0x2 PUSH1 0x64 PUSH1 0x24 CALLDATALOAD ADD CALLDATALOAD LT ISZERO PUSH2 0x20B JUMPI PUSH1 0x4 PUSH1 0x84 PUSH1 0x24 CALLDATALOAD ADD CALLDATALOAD LT ISZERO PUSH2 0x20B JUMPI PUSH2 0x25F3 PUSH1 0x4 PUSH1 0x44 CALLDATALOAD ADD DUP1 PUSH2 0x4FB9 JUMP JUMPDEST SWAP13 SWAP1 PUSH1 0xE0 MSTORE PUSH1 0x44 CALLDATALOAD PUSH1 0x44 ADD PUSH1 0x44 CALLDATALOAD PUSH1 0x4 ADD SWAP1 PUSH2 0x260E SWAP2 PUSH2 0x4F84 JUMP JUMPDEST PUSH2 0x220 MSTORE PUSH2 0x1E0 MSTORE PUSH1 0x40 MLOAD DUP1 PUSH2 0x280 MSTORE PUSH2 0x2627 SWAP1 PUSH2 0x46BA JUMP JUMPDEST PUSH2 0x180 MLOAD PUSH2 0x280 MLOAD MSTORE CALLER PUSH2 0x280 MLOAD PUSH1 0x20 ADD MSTORE CALLDATASIZE PUSH2 0x120 MLOAD SWAP1 PUSH2 0x200 MLOAD SWAP2 PUSH2 0x264D SWAP3 PUSH2 0x475B JUMP JUMPDEST PUSH2 0x280 MLOAD PUSH1 0x40 ADD MSTORE CALLDATASIZE SWAP1 PUSH2 0x2660 SWAP3 PUSH2 0x47C7 JUMP JUMPDEST PUSH2 0x280 MLOAD PUSH1 0x60 ADD MSTORE CALLDATASIZE SWAP1 PUSH2 0x2673 SWAP3 PUSH2 0x475B JUMP JUMPDEST PUSH2 0x280 MLOAD PUSH1 0x80 ADD MSTORE CALLDATASIZE SWAP1 PUSH2 0x2686 SWAP3 PUSH2 0x475B JUMP JUMPDEST PUSH2 0x280 MLOAD PUSH1 0xA0 ADD MSTORE CALLDATASIZE SWAP1 PUSH2 0x2699 SWAP3 PUSH2 0x475B JUMP JUMPDEST PUSH2 0x280 MLOAD PUSH1 0xC0 ADD MSTORE PUSH1 0x4 CALLDATALOAD PUSH1 0xA4 ADD CALLDATALOAD PUSH2 0x280 MLOAD PUSH1 0xE0 ADD MSTORE CALLDATASIZE SWAP1 PUSH2 0x26BB SWAP3 PUSH2 0x475B JUMP JUMPDEST PUSH2 0x280 MLOAD PUSH2 0x100 ADD MSTORE PUSH1 0x24 CALLDATALOAD PUSH1 0x4 ADD CALLDATALOAD PUSH2 0x280 MLOAD PUSH2 0x120 ADD MSTORE CALLDATASIZE SWAP1 PUSH2 0x26DF SWAP3 PUSH2 0x475B JUMP JUMPDEST PUSH2 0x280 MLOAD PUSH2 0x140 ADD MSTORE PUSH1 0x24 CALLDATALOAD PUSH1 0x44 ADD CALLDATALOAD PUSH2 0x280 MLOAD PUSH2 0x160 ADD SWAP1 PUSH2 0x2701 SWAP2 PUSH2 0x4FEB JUMP JUMPDEST PUSH1 0x24 CALLDATALOAD PUSH1 0x64 ADD CALLDATALOAD PUSH2 0x280 MLOAD PUSH2 0x180 ADD SWAP1 PUSH2 0x271A SWAP2 PUSH2 0x4FF7 JUMP JUMPDEST PUSH1 0x24 CALLDATALOAD PUSH1 0x84 ADD CALLDATALOAD PUSH2 0x280 MLOAD PUSH2 0x1A0 ADD SWAP1 PUSH2 0x2733 SWAP2 PUSH2 0x5003 JUMP JUMPDEST PUSH1 0x24 CALLDATALOAD PUSH1 0xA4 ADD CALLDATALOAD PUSH2 0x280 MLOAD PUSH2 0x1C0 ADD MSTORE CALLDATASIZE PUSH1 0xE0 MLOAD SWAP2 PUSH2 0x2751 SWAP3 PUSH2 0x475B JUMP JUMPDEST PUSH2 0x280 MLOAD PUSH2 0x1E0 ADD MSTORE CALLDATASIZE PUSH2 0x220 MLOAD SWAP1 PUSH2 0x1E0 MLOAD SWAP2 PUSH2 0x276E SWAP3 PUSH2 0x47C7 JUMP JUMPDEST PUSH2 0x280 MLOAD PUSH2 0x200 ADD MSTORE CALLDATASIZE PUSH2 0x240 MLOAD PUSH1 0x4 ADD SWAP1 PUSH2 0x2789 SWAP2 PUSH2 0x4851 JUMP JUMPDEST PUSH2 0x280 MLOAD PUSH2 0x220 ADD MSTORE PUSH2 0x100 MLOAD PUSH2 0x280 MLOAD PUSH2 0x240 ADD MSTORE PUSH2 0x100 MLOAD PUSH2 0x280 MLOAD PUSH2 0x260 ADD MSTORE PUSH1 0x84 CALLDATALOAD PUSH2 0x280 MLOAD PUSH2 0x280 ADD MSTORE PUSH1 0x1 PUSH1 0xA0 SHL PUSH1 0x1 SWAP1 SUB PUSH2 0x1A0 MLOAD AND PUSH2 0x280 MLOAD PUSH2 0x2A0 ADD MSTORE PUSH2 0x100 MLOAD PUSH2 0x280 MLOAD PUSH2 0x2C0 ADD MSTORE PUSH2 0x180 MLOAD PUSH2 0x100 MLOAD MSTORE PUSH1 0x9 PUSH1 0x20 MSTORE PUSH2 0x100 MLOAD PUSH1 0x40 DUP2 KECCAK256 SWAP1 PUSH2 0x280 MLOAD DUP1 MLOAD DUP4 SSTORE PUSH1 0x1 PUSH1 0xA0 SHL PUSH1 0x1 SWAP1 SUB PUSH1 0x20 DUP3 ADD MLOAD AND PUSH1 0x1 PUSH1 0x1 PUSH1 0x60 SHL SUB PUSH1 0xA0 SHL PUSH1 0x1 DUP6 ADD SLOAD AND OR PUSH1 0x1 DUP5 ADD SSTORE PUSH1 0x40 ADD MLOAD DUP1 MLOAD SWAP2 PUSH1 0x1 PUSH1 0x1 PUSH1 0x40 SHL SUB DUP4 GT PUSH2 0x2100 JUMPI POP DUP2 SWAP1 PUSH2 0x2846 PUSH1 0x2 DUP6 ADD SLOAD PUSH2 0x49B5 JUMP JUMPDEST PUSH1 0x1F DUP2 GT PUSH2 0x3967 JUMPI JUMPDEST POP PUSH2 0x100 MLOAD SWAP1 PUSH1 0x20 SWAP2 PUSH1 0x1F DUP5 GT PUSH1 0x1 EQ PUSH2 0x38F4 JUMPI POP PUSH2 0x100 MLOAD SWAP3 PUSH2 0x38E9 JUMPI JUMPDEST POP POP DUP2 PUSH1 0x1 SHL SWAP2 PUSH1 0x0 NOT SWAP1 PUSH1 0x3 SHL SHR NOT AND OR PUSH1 0x2 DUP3 ADD SSTORE JUMPDEST PUSH1 0x60 PUSH2 0x280 MLOAD ADD MLOAD DUP1 MLOAD SWAP1 PUSH1 0x1 PUSH1 0x40 SHL DUP3 GT PUSH2 0x1708 JUMPI PUSH1 0x3 DUP4 ADD SLOAD DUP3 PUSH1 0x3 DUP6 ADD SSTORE DUP1 DUP4 LT PUSH2 0x3866 JUMPI JUMPDEST POP PUSH2 0x100 DUP1 MLOAD PUSH1 0x3 DUP6 ADD SWAP1 MSTORE MLOAD PUSH1 0x20 DUP1 DUP3 KECCAK256 SWAP4 SWAP3 ADD JUMPDEST DUP3 DUP3 LT PUSH2 0x3744 JUMPI DUP5 PUSH1 0x80 PUSH2 0x280 MLOAD ADD MLOAD DUP1 MLOAD SWAP1 PUSH1 0x1 PUSH1 0x1 PUSH1 0x40 SHL SUB DUP3 GT PUSH2 0x1708 JUMPI DUP2 SWAP1 PUSH2 0x28F5 PUSH1 0x4 DUP6 ADD SLOAD PUSH2 0x49B5 JUMP JUMPDEST PUSH1 0x1F DUP2 GT PUSH2 0x370B JUMPI JUMPDEST POP PUSH2 0x100 MLOAD SWAP1 PUSH1 0x20 SWAP2 PUSH1 0x1F DUP5 GT PUSH1 0x1 EQ PUSH2 0x3698 JUMPI POP PUSH2 0x100 MLOAD SWAP3 PUSH2 0x368D JUMPI JUMPDEST POP POP DUP2 PUSH1 0x1 SHL SWAP2 PUSH1 0x0 NOT SWAP1 PUSH1 0x3 SHL SHR NOT AND OR PUSH1 0x4 DUP3 ADD SSTORE JUMPDEST PUSH1 0xA0 PUSH2 0x280 MLOAD ADD MLOAD DUP1 MLOAD SWAP1 PUSH1 0x1 PUSH1 0x1 PUSH1 0x40 SHL SUB DUP3 GT PUSH2 0x1708 JUMPI DUP2 SWAP1 PUSH2 0x295D PUSH1 0x5 DUP6 ADD SLOAD PUSH2 0x49B5 JUMP JUMPDEST PUSH1 0x1F DUP2 GT PUSH2 0x3654 JUMPI JUMPDEST POP PUSH2 0x100 MLOAD SWAP1 PUSH1 0x20 SWAP2 PUSH1 0x1F DUP5 GT PUSH1 0x1 EQ PUSH2 0x35E1 JUMPI POP PUSH2 0x100 MLOAD SWAP3 PUSH2 0x35D6 JUMPI JUMPDEST POP POP DUP2 PUSH1 0x1 SHL SWAP2 PUSH1 0x0 NOT SWAP1 PUSH1 0x3 SHL SHR NOT AND OR PUSH1 0x5 DUP3 ADD SSTORE JUMPDEST PUSH1 0xC0 PUSH2 0x280 MLOAD ADD MLOAD DUP1 MLOAD SWAP1 PUSH1 0x1 PUSH1 0x1 PUSH1 0x40 SHL SUB DUP3 GT PUSH2 0x1708 JUMPI DUP2 SWAP1 PUSH2 0x29C5 PUSH1 0x6 DUP6 ADD SLOAD PUSH2 0x49B5 JUMP JUMPDEST PUSH1 0x1F DUP2 GT PUSH2 0x359D JUMPI JUMPDEST POP PUSH2 0x100 MLOAD SWAP1 PUSH1 0x20 SWAP2 PUSH1 0x1F DUP5 GT PUSH1 0x1 EQ PUSH2 0x352A JUMPI POP PUSH2 0x100 MLOAD SWAP3 PUSH2 0x351F JUMPI JUMPDEST POP POP DUP2 PUSH1 0x1 SHL SWAP2 PUSH1 0x0 NOT SWAP1 PUSH1 0x3 SHL SHR NOT AND OR PUSH1 0x6 DUP3 ADD SSTORE JUMPDEST PUSH2 0x100 PUSH2 0x280 MLOAD PUSH1 0xE0 DUP2 ADD MLOAD PUSH1 0x7 DUP5 ADD SSTORE ADD MLOAD DUP1 MLOAD SWAP1 PUSH1 0x1 PUSH1 0x1 PUSH1 0x40 SHL SUB DUP3 GT PUSH2 0x1708 JUMPI DUP2 SWAP1 PUSH2 0x2A38 PUSH1 0x8 DUP6 ADD SLOAD PUSH2 0x49B5 JUMP JUMPDEST PUSH1 0x1F DUP2 GT PUSH2 0x34E6 JUMPI JUMPDEST POP PUSH2 0x100 MLOAD SWAP1 PUSH1 0x20 SWAP2 PUSH1 0x1F DUP5 GT PUSH1 0x1 EQ PUSH2 0x3473 JUMPI POP PUSH2 0x100 MLOAD SWAP3 PUSH2 0x3468 JUMPI JUMPDEST POP POP DUP2 PUSH1 0x1 SHL SWAP2 PUSH1 0x0 NOT SWAP1 PUSH1 0x3 SHL SHR NOT AND OR PUSH1 0x8 DUP3 ADD SSTORE JUMPDEST PUSH2 0x140 PUSH2 0x280 MLOAD PUSH2 0x120 DUP2 ADD MLOAD PUSH1 0x9 DUP5 ADD SSTORE ADD MLOAD DUP1 MLOAD SWAP1 PUSH1 0x1 PUSH1 0x1 PUSH1 0x40 SHL SUB DUP3 GT PUSH2 0x1708 JUMPI DUP2 SWAP1 PUSH2 0x2AAC PUSH1 0xA DUP6 ADD SLOAD PUSH2 0x49B5 JUMP JUMPDEST PUSH1 0x1F DUP2 GT PUSH2 0x342F JUMPI JUMPDEST POP PUSH2 0x100 MLOAD SWAP1 PUSH1 0x20 SWAP2 PUSH1 0x1F DUP5 GT PUSH1 0x1 EQ PUSH2 0x33BC JUMPI POP PUSH2 0x100 MLOAD SWAP3 PUSH2 0x33B1 JUMPI JUMPDEST POP POP DUP2 PUSH1 0x1 SHL SWAP2 PUSH1 0x0 NOT SWAP1 PUSH1 0x3 SHL SHR NOT AND OR PUSH1 0xA DUP3 ADD SSTORE JUMPDEST PUSH2 0x160 PUSH2 0x280 MLOAD ADD MLOAD PUSH1 0x3 DUP2 LT ISZERO PUSH2 0x1AEC JUMPI PUSH1 0xB DUP3 ADD SLOAD PUSH2 0x180 PUSH2 0x280 MLOAD ADD MLOAD SWAP1 PUSH1 0x2 DUP3 LT ISZERO PUSH2 0x1AEC JUMPI PUSH2 0x1A0 PUSH2 0x280 MLOAD ADD MLOAD SWAP1 PUSH1 0x4 DUP3 LT ISZERO PUSH2 0x1AEC JUMPI PUSH1 0xFF PUSH3 0xFF0000 PUSH2 0xFF00 SWAP4 PUSH1 0x10 SHL AND SWAP5 AND SWAP1 PUSH3 0xFFFFFF NOT AND OR SWAP2 PUSH1 0x8 SHL AND OR OR PUSH1 0xB DUP3 ADD SSTORE PUSH2 0x1E0 PUSH2 0x280 MLOAD PUSH2 0x1C0 DUP2 ADD MLOAD PUSH1 0xC DUP5 ADD SSTORE ADD MLOAD DUP1 MLOAD SWAP1 PUSH1 0x1 PUSH1 0x1 PUSH1 0x40 SHL SUB DUP3 GT PUSH2 0x1708 JUMPI DUP2 SWAP1 PUSH2 0x2B81 PUSH1 0xD DUP6 ADD SLOAD PUSH2 0x49B5 JUMP JUMPDEST PUSH1 0x1F DUP2 GT PUSH2 0x3378 JUMPI JUMPDEST POP PUSH2 0x100 MLOAD SWAP1 PUSH1 0x20 SWAP2 PUSH1 0x1F DUP5 GT PUSH1 0x1 EQ PUSH2 0x3305 JUMPI POP PUSH2 0x100 MLOAD SWAP3 PUSH2 0x32FA JUMPI JUMPDEST POP POP DUP2 PUSH1 0x1 SHL SWAP2 PUSH1 0x0 NOT SWAP1 PUSH1 0x3 SHL SHR NOT AND OR PUSH1 0xD DUP3 ADD SSTORE JUMPDEST PUSH2 0x200 PUSH2 0x280 MLOAD ADD MLOAD DUP1 MLOAD SWAP1 PUSH1 0x1 PUSH1 0x40 SHL DUP3 GT PUSH2 0x1708 JUMPI PUSH1 0xE DUP4 ADD SLOAD DUP3 PUSH1 0xE DUP6 ADD SSTORE DUP1 DUP4 LT PUSH2 0x3277 JUMPI JUMPDEST POP PUSH2 0x100 DUP1 MLOAD PUSH1 0xE DUP6 ADD SWAP1 MSTORE MLOAD PUSH1 0x20 DUP1 DUP3 KECCAK256 SWAP4 SWAP3 ADD JUMPDEST DUP3 DUP3 LT PUSH2 0x3155 JUMPI DUP5 PUSH1 0xF DUP2 ADD SWAP1 PUSH2 0x220 PUSH2 0x280 MLOAD ADD MLOAD SWAP2 PUSH1 0x1 DUP1 PUSH1 0xA0 SHL SUB DUP4 MLOAD AND PUSH1 0x1 PUSH1 0x1 PUSH1 0x60 SHL SUB PUSH1 0xA0 SHL DUP3 SLOAD AND OR SWAP1 SSTORE PUSH1 0x20 DUP3 ADD MLOAD SWAP2 DUP3 MLOAD PUSH1 0x1 PUSH1 0x1 PUSH1 0x40 SHL SUB DUP2 GT PUSH2 0x1708 JUMPI PUSH2 0x2C56 PUSH1 0x10 DUP5 ADD SLOAD PUSH2 0x49B5 JUMP JUMPDEST PUSH1 0x1F DUP2 GT PUSH2 0x311C JUMPI JUMPDEST POP PUSH2 0x100 MLOAD PUSH1 0x20 SWAP1 PUSH1 0x1F DUP4 GT PUSH1 0x1 EQ PUSH2 0x30AD JUMPI POP DUP2 SWAP3 SWAP4 SWAP5 PUSH2 0x100 MLOAD SWAP3 PUSH2 0x30A2 JUMPI JUMPDEST POP POP DUP2 PUSH1 0x1 SHL SWAP2 PUSH1 0x0 NOT SWAP1 PUSH1 0x3 SHL SHR NOT AND OR PUSH1 0x10 DUP4 ADD SSTORE JUMPDEST PUSH1 0x40 DUP2 ADD MLOAD SWAP1 DUP2 MLOAD PUSH1 0x1 PUSH1 0x1 PUSH1 0x40 SHL SUB DUP2 GT PUSH2 0x1708 JUMPI PUSH2 0x2CBC PUSH1 0x11 DUP6 ADD SLOAD PUSH2 0x49B5 JUMP JUMPDEST PUSH1 0x1F DUP2 GT PUSH2 0x3069 JUMPI JUMPDEST POP PUSH2 0x100 MLOAD PUSH1 0x20 SWAP1 PUSH1 0x1F DUP4 GT PUSH1 0x1 EQ PUSH2 0x2FF2 JUMPI POP DUP2 SWAP1 PUSH1 0x80 SWAP5 PUSH2 0x100 MLOAD SWAP3 PUSH2 0x2FE7 JUMPI JUMPDEST POP POP DUP2 PUSH1 0x1 SHL SWAP2 PUSH1 0x0 NOT SWAP1 PUSH1 0x3 SHL SHR NOT AND OR PUSH1 0x11 DUP5 ADD SSTORE JUMPDEST PUSH1 0x60 DUP2 ADD MLOAD PUSH1 0x12 DUP5 ADD SSTORE ADD MLOAD DUP1 MLOAD SWAP1 PUSH1 0x1 PUSH1 0x1 PUSH1 0x40 SHL SUB DUP3 GT PUSH2 0x1708 JUMPI DUP2 SWAP1 PUSH2 0x2D2C PUSH1 0x13 DUP6 ADD SLOAD PUSH2 0x49B5 JUMP JUMPDEST PUSH1 0x1F DUP2 GT PUSH2 0x2FAE JUMPI JUMPDEST POP PUSH2 0x100 MLOAD SWAP1 PUSH1 0x20 SWAP2 PUSH1 0x1F DUP5 GT PUSH1 0x1 EQ PUSH2 0x2F3B JUMPI POP PUSH2 0x100 MLOAD SWAP3 PUSH2 0x2F30 JUMPI JUMPDEST POP POP DUP2 PUSH1 0x1 SHL SWAP2 PUSH1 0x0 NOT SWAP1 PUSH1 0x3 SHL SHR NOT AND OR PUSH1 0x13 DUP3 ADD SSTORE JUMPDEST PUSH1 0x17 PUSH2 0x2C0 PUSH1 0x14 DUP4 ADD PUSH2 0x2D9A PUSH2 0x280 MLOAD SWAP2 PUSH2 0x15D7 PUSH2 0x240 DUP5 ADD MLOAD ISZERO ISZERO DUP3 SWAP1 PUSH1 0xFF DUP1 NOT DUP4 SLOAD AND SWAP2 ISZERO ISZERO AND OR SWAP1 SSTORE JUMP JUMPDEST PUSH2 0x280 DUP2 ADD MLOAD PUSH1 0x15 DUP6 ADD SSTORE PUSH1 0x16 DUP5 ADD PUSH1 0x1 DUP1 PUSH1 0xA0 SHL SUB PUSH2 0x2A0 DUP4 ADD MLOAD AND PUSH1 0x1 PUSH1 0x1 PUSH1 0x60 SHL SUB PUSH1 0xA0 SHL DUP3 SLOAD AND OR SWAP1 SSTORE ADD MLOAD SWAP2 ADD SSTORE PUSH1 0x40 MLOAD PUSH2 0x2DD9 DUP2 PUSH2 0x4704 JUMP JUMPDEST PUSH2 0x100 MLOAD DUP2 MSTORE CALLER ISZERO PUSH2 0x2EEC JUMPI PUSH2 0x180 MLOAD PUSH1 0x0 SWAP1 DUP2 MSTORE PUSH1 0x3 PUSH1 0x20 MSTORE PUSH1 0x40 SWAP1 KECCAK256 SLOAD PUSH2 0x2EAE SWAP2 PUSH2 0x76F SWAP2 PUSH2 0x2E16 SWAP1 PUSH1 0x1 PUSH1 0x1 PUSH1 0xA0 SHL SUB AND ISZERO ISZERO JUMPDEST ISZERO PUSH2 0x5026 JUMP JUMPDEST PUSH2 0x180 MLOAD PUSH1 0x0 SWAP1 DUP2 MSTORE PUSH1 0x3 PUSH1 0x20 MSTORE PUSH1 0x40 SWAP1 KECCAK256 SLOAD PUSH2 0x2E3D SWAP1 PUSH1 0x1 PUSH1 0x1 PUSH1 0xA0 SHL SUB AND ISZERO ISZERO PUSH2 0x2E10 JUMP JUMPDEST CALLER PUSH2 0x100 MLOAD MSTORE PUSH1 0x4 PUSH1 0x20 MSTORE PUSH2 0x100 MLOAD PUSH1 0x40 DUP2 KECCAK256 PUSH1 0x1 DUP2 SLOAD ADD SWAP1 SSTORE PUSH2 0x180 MLOAD SWAP1 MSTORE PUSH1 0x3 PUSH1 0x20 MSTORE PUSH2 0x100 MLOAD PUSH1 0x40 DUP2 KECCAK256 CALLER PUSH1 0x1 PUSH1 0x1 PUSH1 0x60 SHL SUB PUSH1 0xA0 SHL DUP3 SLOAD AND OR SWAP1 SSTORE PUSH2 0x180 MLOAD DUP1 SWAP2 CALLER SWAP1 PUSH32 0xDDF252AD1BE2C89B69C2B068FC378DAA952BA7F163C4A11628F55A4DF523B3EF DUP2 DUP1 LOG4 CALLER PUSH2 0x4DB5 JUMP JUMPDEST PUSH1 0x40 MLOAD PUSH1 0xA4 PUSH1 0x24 CALLDATALOAD ADD CALLDATALOAD DUP2 MSTORE CALLER SWAP1 PUSH32 0x346237025E4B201CFBDB8011C7AFCD8A0CC16C50E910D6AC5645AB7406BE429D PUSH1 0x20 PUSH2 0x180 MLOAD SWAP3 LOG3 PUSH2 0x100 MLOAD DUP1 RETURN JUMPDEST PUSH1 0x64 PUSH1 0x40 MLOAD PUSH3 0x461BCD PUSH1 0xE5 SHL DUP2 MSTORE PUSH1 0x20 PUSH1 0x4 DUP3 ADD MSTORE PUSH1 0x20 PUSH1 0x24 DUP3 ADD MSTORE PUSH32 0x4552433732313A206D696E7420746F20746865207A65726F2061646472657373 PUSH1 0x44 DUP3 ADD MSTORE REVERT JUMPDEST ADD MLOAD SWAP1 POP DUP4 DUP1 PUSH2 0x2D54 JUMP JUMPDEST PUSH1 0x13 DUP7 ADD SWAP1 MSTORE PUSH2 0x100 MLOAD PUSH1 0x20 DUP2 KECCAK256 SWAP1 SWAP5 POP SWAP2 SWAP1 JUMPDEST PUSH1 0x1F NOT DUP5 AND DUP6 LT PUSH2 0x2F93 JUMPI PUSH1 0x1 SWAP5 POP DUP4 PUSH1 0x1F NOT DUP2 AND LT PUSH2 0x2F7A JUMPI JUMPDEST POP POP POP DUP2 SHL ADD PUSH1 0x13 DUP3 ADD SSTORE PUSH2 0x2D6C JUMP JUMPDEST ADD MLOAD PUSH1 0x0 NOT PUSH1 0xF8 DUP5 PUSH1 0x3 SHL AND SHR NOT AND SWAP1 SSTORE DUP4 DUP1 DUP1 PUSH2 0x2F6A JUMP JUMPDEST DUP2 DUP2 ADD MLOAD DUP4 SSTORE PUSH1 0x20 SWAP5 DUP6 ADD SWAP5 PUSH1 0x1 SWAP1 SWAP4 ADD SWAP3 SWAP1 SWAP2 ADD SWAP1 PUSH2 0x2F4F JUMP JUMPDEST PUSH2 0x2FE1 SWAP1 PUSH1 0x13 DUP7 ADD PUSH2 0x100 MLOAD MSTORE PUSH1 0x20 PUSH2 0x100 MLOAD KECCAK256 PUSH1 0x1F DUP6 ADD PUSH1 0x5 SHR DUP2 ADD SWAP2 PUSH1 0x20 DUP7 LT PUSH2 0x16FE JUMPI PUSH1 0x1F ADD PUSH1 0x5 SHR ADD SWAP1 PUSH2 0x500F JUMP JUMPDEST DUP5 PUSH2 0x2D35 JUMP JUMPDEST ADD MLOAD SWAP1 POP DUP6 DUP1 PUSH2 0x2CE8 JUMP JUMPDEST PUSH1 0x11 DUP7 SWAP6 SWAP4 SWAP5 SWAP6 ADD SWAP1 MSTORE PUSH2 0x100 MLOAD SWAP2 PUSH1 0x20 DUP4 KECCAK256 SWAP3 JUMPDEST PUSH1 0x1F NOT DUP6 AND DUP2 LT PUSH2 0x3051 JUMPI POP SWAP2 DUP4 SWAP2 PUSH1 0x1 SWAP4 PUSH1 0x80 SWAP7 SWAP6 PUSH1 0x1F NOT DUP2 AND LT PUSH2 0x3038 JUMPI JUMPDEST POP POP POP DUP2 SHL ADD PUSH1 0x11 DUP5 ADD SSTORE PUSH2 0x2D00 JUMP JUMPDEST ADD MLOAD PUSH1 0x0 NOT PUSH1 0xF8 DUP5 PUSH1 0x3 SHL AND SHR NOT AND SWAP1 SSTORE DUP6 DUP1 DUP1 PUSH2 0x3028 JUMP JUMPDEST SWAP2 SWAP3 PUSH1 0x20 PUSH1 0x1 DUP2 SWAP3 DUP7 DUP6 ADD MLOAD DUP2 SSTORE ADD SWAP5 ADD SWAP3 ADD PUSH2 0x3007 JUMP JUMPDEST PUSH2 0x309C SWAP1 PUSH1 0x11 DUP7 ADD PUSH2 0x100 MLOAD MSTORE PUSH1 0x20 PUSH2 0x100 MLOAD KECCAK256 PUSH1 0x1F DUP5 ADD PUSH1 0x5 SHR DUP2 ADD SWAP2 PUSH1 0x20 DUP6 LT PUSH2 0x16FE JUMPI PUSH1 0x1F ADD PUSH1 0x5 SHR ADD SWAP1 PUSH2 0x500F JUMP JUMPDEST DUP5 PUSH2 0x2CC5 JUMP JUMPDEST ADD MLOAD SWAP1 POP DUP5 DUP1 PUSH2 0x2C81 JUMP JUMPDEST PUSH1 0x10 DUP6 ADD SWAP1 MSTORE PUSH2 0x100 MLOAD SWAP1 PUSH1 0x20 DUP3 KECCAK256 SWAP2 JUMPDEST PUSH1 0x1F NOT DUP5 AND DUP2 LT PUSH2 0x3104 JUMPI POP PUSH1 0x1 SWAP4 SWAP5 SWAP6 DUP4 PUSH1 0x1F NOT DUP2 AND LT PUSH2 0x30EB JUMPI JUMPDEST POP POP POP DUP2 SHL ADD PUSH1 0x10 DUP4 ADD SSTORE PUSH2 0x2C99 JUMP JUMPDEST ADD MLOAD PUSH1 0x0 NOT PUSH1 0xF8 DUP5 PUSH1 0x3 SHL AND SHR NOT AND SWAP1 SSTORE DUP5 DUP1 DUP1 PUSH2 0x30DB JUMP JUMPDEST SWAP1 SWAP2 PUSH1 0x20 PUSH1 0x1 DUP2 SWAP3 DUP6 DUP11 ADD MLOAD DUP2 SSTORE ADD SWAP4 ADD SWAP2 ADD PUSH2 0x30BE JUMP JUMPDEST PUSH2 0x314F SWAP1 PUSH1 0x10 DUP6 ADD PUSH2 0x100 MLOAD MSTORE PUSH1 0x20 PUSH2 0x100 MLOAD KECCAK256 PUSH1 0x1F DUP5 ADD PUSH1 0x5 SHR DUP2 ADD SWAP2 PUSH1 0x20 DUP6 LT PUSH2 0x16FE JUMPI PUSH1 0x1F ADD PUSH1 0x5 SHR ADD SWAP1 PUSH2 0x500F JUMP JUMPDEST DUP5 PUSH2 0x2C5F JUMP JUMPDEST DUP1 MLOAD DUP1 MLOAD SWAP1 PUSH1 0x1 PUSH1 0x1 PUSH1 0x40 SHL SUB DUP3 GT PUSH2 0x1708 JUMPI PUSH2 0x3172 DUP7 SLOAD PUSH2 0x49B5 JUMP JUMPDEST PUSH1 0x1F DUP2 GT PUSH2 0x3241 JUMPI JUMPDEST POP PUSH2 0x100 MLOAD SWAP1 DUP7 PUSH1 0x20 SWAP3 PUSH1 0x1F DUP6 GT PUSH1 0x1 EQ PUSH2 0x31D2 JUMPI POP POP SWAP3 DUP3 PUSH1 0x1 SWAP5 SWAP4 PUSH1 0x20 SWAP4 DUP7 SWAP6 PUSH2 0x100 MLOAD SWAP3 PUSH2 0x31C7 JUMPI JUMPDEST POP POP PUSH1 0x0 NOT PUSH1 0x3 DUP4 SWAP1 SHL SHR NOT AND SWAP1 DUP5 SHL OR DUP8 SSTORE JUMPDEST ADD SWAP5 ADD SWAP2 ADD SWAP1 SWAP3 PUSH2 0x2C01 JUMP JUMPDEST ADD MLOAD SWAP1 POP DUP11 DUP1 PUSH2 0x31A7 JUMP JUMPDEST MSTORE PUSH2 0x100 MLOAD PUSH1 0x20 DUP2 KECCAK256 SWAP3 SWAP2 SWAP1 JUMPDEST PUSH1 0x1F NOT DUP6 AND DUP2 LT PUSH2 0x3229 JUMPI POP DUP4 PUSH1 0x20 SWAP4 PUSH1 0x1 SWAP7 SWAP4 DUP8 SWAP7 SWAP4 DUP8 SWAP5 PUSH1 0x1F NOT DUP2 AND LT PUSH2 0x3210 JUMPI JUMPDEST POP POP POP DUP2 SHL ADD DUP8 SSTORE PUSH2 0x31BB JUMP JUMPDEST ADD MLOAD PUSH1 0x0 NOT PUSH1 0xF8 DUP5 PUSH1 0x3 SHL AND SHR NOT AND SWAP1 SSTORE DUP11 DUP1 DUP1 PUSH2 0x3203 JUMP JUMPDEST SWAP2 SWAP3 PUSH1 0x20 PUSH1 0x1 DUP2 SWAP3 DUP7 DUP6 ADD MLOAD DUP2 SSTORE ADD SWAP5 ADD SWAP3 ADD PUSH2 0x31DF JUMP JUMPDEST PUSH2 0x3271 SWAP1 DUP8 PUSH2 0x100 MLOAD MSTORE PUSH1 0x20 PUSH2 0x100 MLOAD KECCAK256 PUSH1 0x1F DUP6 ADD PUSH1 0x5 SHR DUP2 ADD SWAP2 PUSH1 0x20 DUP7 LT PUSH2 0x16FE JUMPI PUSH1 0x1F ADD PUSH1 0x5 SHR ADD SWAP1 PUSH2 0x500F JUMP JUMPDEST DUP8 PUSH2 0x317B JUMP JUMPDEST PUSH1 0xE DUP5 ADD PUSH2 0x100 MLOAD MSTORE PUSH1 0x20 PUSH2 0x100 MLOAD KECCAK256 SWAP1 DUP4 DUP3 ADD JUMPDEST DUP2 DUP4 ADD DUP2 LT PUSH2 0x329C JUMPI POP POP PUSH2 0x2BEB JUMP JUMPDEST DUP1 PUSH2 0x32A9 PUSH1 0x1 SWAP3 SLOAD PUSH2 0x49B5 JUMP JUMPDEST DUP1 PUSH2 0x32B6 JUMPI JUMPDEST POP ADD PUSH2 0x328C JUMP JUMPDEST PUSH1 0x1F DUP2 GT DUP4 EQ PUSH2 0x32CE JUMPI POP PUSH2 0x100 MLOAD DUP2 SSTORE JUMPDEST DUP8 PUSH2 0x32AF JUMP JUMPDEST DUP2 PUSH2 0x100 MLOAD MSTORE PUSH2 0x100 MLOAD SWAP1 PUSH2 0x32F1 PUSH1 0x1F PUSH1 0x20 DUP5 KECCAK256 SWAP3 ADD PUSH1 0x5 SHR DUP3 ADD DUP6 DUP4 ADD PUSH2 0x500F JUMP JUMPDEST DUP2 DUP4 SSTORE SSTORE PUSH2 0x32C8 JUMP JUMPDEST ADD MLOAD SWAP1 POP DUP4 DUP1 PUSH2 0x2BA9 JUMP JUMPDEST PUSH1 0xD DUP7 ADD SWAP1 MSTORE PUSH2 0x100 MLOAD PUSH1 0x20 DUP2 KECCAK256 SWAP1 SWAP5 POP SWAP2 SWAP1 JUMPDEST PUSH1 0x1F NOT DUP5 AND DUP6 LT PUSH2 0x335D JUMPI PUSH1 0x1 SWAP5 POP DUP4 PUSH1 0x1F NOT DUP2 AND LT PUSH2 0x3344 JUMPI JUMPDEST POP POP POP DUP2 SHL ADD PUSH1 0xD DUP3 ADD SSTORE PUSH2 0x2BC1 JUMP JUMPDEST ADD MLOAD PUSH1 0x0 NOT PUSH1 0xF8 DUP5 PUSH1 0x3 SHL AND SHR NOT AND SWAP1 SSTORE DUP4 DUP1 DUP1 PUSH2 0x3334 JUMP JUMPDEST DUP2 DUP2 ADD MLOAD DUP4 SSTORE PUSH1 0x20 SWAP5 DUP6 ADD SWAP5 PUSH1 0x1 SWAP1 SWAP4 ADD SWAP3 SWAP1 SWAP2 ADD SWAP1 PUSH2 0x3319 JUMP JUMPDEST PUSH2 0x33AB SWAP1 PUSH1 0xD DUP7 ADD PUSH2 0x100 MLOAD MSTORE PUSH1 0x20 PUSH2 0x100 MLOAD KECCAK256 PUSH1 0x1F DUP6 ADD PUSH1 0x5 SHR DUP2 ADD SWAP2 PUSH1 0x20 DUP7 LT PUSH2 0x16FE JUMPI PUSH1 0x1F ADD PUSH1 0x5 SHR ADD SWAP1 PUSH2 0x500F JUMP JUMPDEST DUP5 PUSH2 0x2B8A JUMP JUMPDEST ADD MLOAD SWAP1 POP DUP4 DUP1 PUSH2 0x2AD4 JUMP JUMPDEST PUSH1 0xA DUP7 ADD SWAP1 MSTORE PUSH2 0x100 MLOAD PUSH1 0x20 DUP2 KECCAK256 SWAP1 SWAP5 POP SWAP2 SWAP1 JUMPDEST PUSH1 0x1F NOT DUP5 AND DUP6 LT PUSH2 0x3414 JUMPI PUSH1 0x1 SWAP5 POP DUP4 PUSH1 0x1F NOT DUP2 AND LT PUSH2 0x33FB JUMPI JUMPDEST POP POP POP DUP2 SHL ADD PUSH1 0xA DUP3 ADD SSTORE PUSH2 0x2AEC JUMP JUMPDEST ADD MLOAD PUSH1 0x0 NOT PUSH1 0xF8 DUP5 PUSH1 0x3 SHL AND SHR NOT AND SWAP1 SSTORE DUP4 DUP1 DUP1 PUSH2 0x33EB JUMP JUMPDEST DUP2 DUP2 ADD MLOAD DUP4 SSTORE PUSH1 0x20 SWAP5 DUP6 ADD SWAP5 PUSH1 0x1 SWAP1 SWAP4 ADD SWAP3 SWAP1 SWAP2 ADD SWAP1 PUSH2 0x33D0 JUMP JUMPDEST PUSH2 0x3462 SWAP1 PUSH1 0xA DUP7 ADD PUSH2 0x100 MLOAD MSTORE PUSH1 0x20 PUSH2 0x100 MLOAD KECCAK256 PUSH1 0x1F DUP6 ADD PUSH1 0x5 SHR DUP2 ADD SWAP2 PUSH1 0x20 DUP7 LT PUSH2 0x16FE JUMPI PUSH1 0x1F ADD PUSH1 0x5 SHR ADD SWAP1 PUSH2 0x500F JUMP JUMPDEST DUP5 PUSH2 0x2AB5 JUMP JUMPDEST ADD MLOAD SWAP1 POP DUP4 DUP1 PUSH2 0x2A60 JUMP JUMPDEST PUSH1 0x8 DUP7 ADD SWAP1 MSTORE PUSH2 0x100 MLOAD PUSH1 0x20 DUP2 KECCAK256 SWAP1 SWAP5 POP SWAP2 SWAP1 JUMPDEST PUSH1 0x1F NOT DUP5 AND DUP6 LT PUSH2 0x34CB JUMPI PUSH1 0x1 SWAP5 POP DUP4 PUSH1 0x1F NOT DUP2 AND LT PUSH2 0x34B2 JUMPI JUMPDEST POP POP POP DUP2 SHL ADD PUSH1 0x8 DUP3 ADD SSTORE PUSH2 0x2A78 JUMP JUMPDEST ADD MLOAD PUSH1 0x0 NOT PUSH1 0xF8 DUP5 PUSH1 0x3 SHL AND SHR NOT AND SWAP1 SSTORE DUP4 DUP1 DUP1 PUSH2 0x34A2 JUMP JUMPDEST DUP2 DUP2 ADD MLOAD DUP4 SSTORE PUSH1 0x20 SWAP5 DUP6 ADD SWAP5 PUSH1 0x1 SWAP1 SWAP4 ADD SWAP3 SWAP1 SWAP2 ADD SWAP1 PUSH2 0x3487 JUMP JUMPDEST PUSH2 0x3519 SWAP1 PUSH1 0x8 DUP7 ADD PUSH2 0x100 MLOAD MSTORE PUSH1 0x20 PUSH2 0x100 MLOAD KECCAK256 PUSH1 0x1F DUP6 ADD PUSH1 0x5 SHR DUP2 ADD SWAP2 PUSH1 0x20 DUP7 LT PUSH2 0x16FE JUMPI PUSH1 0x1F ADD PUSH1 0x5 SHR ADD SWAP1 PUSH2 0x500F JUMP JUMPDEST DUP5 PUSH2 0x2A41 JUMP JUMPDEST ADD MLOAD SWAP1 POP DUP4 DUP1 PUSH2 0x29ED JUMP JUMPDEST PUSH1 0x6 DUP7 ADD SWAP1 MSTORE PUSH2 0x100 MLOAD PUSH1 0x20 DUP2 KECCAK256 SWAP1 SWAP5 POP SWAP2 SWAP1 JUMPDEST PUSH1 0x1F NOT DUP5 AND DUP6 LT PUSH2 0x3582 JUMPI PUSH1 0x1 SWAP5 POP DUP4 PUSH1 0x1F NOT DUP2 AND LT PUSH2 0x3569 JUMPI JUMPDEST POP POP POP DUP2 SHL ADD PUSH1 0x6 DUP3 ADD SSTORE PUSH2 0x2A05 JUMP JUMPDEST ADD MLOAD PUSH1 0x0 NOT PUSH1 0xF8 DUP5 PUSH1 0x3 SHL AND SHR NOT AND SWAP1 SSTORE DUP4 DUP1 DUP1 PUSH2 0x3559 JUMP JUMPDEST DUP2 DUP2 ADD MLOAD DUP4 SSTORE PUSH1 0x20 SWAP5 DUP6 ADD SWAP5 PUSH1 0x1 SWAP1 SWAP4 ADD SWAP3 SWAP1 SWAP2 ADD SWAP1 PUSH2 0x353E JUMP JUMPDEST PUSH2 0x35D0 SWAP1 PUSH1 0x6 DUP7 ADD PUSH2 0x100 MLOAD MSTORE PUSH1 0x20 PUSH2 0x100 MLOAD KECCAK256 PUSH1 0x1F DUP6 ADD PUSH1 0x5 SHR DUP2 ADD SWAP2 PUSH1 0x20 DUP7 LT PUSH2 0x16FE JUMPI PUSH1 0x1F ADD PUSH1 0x5 SHR ADD SWAP1 PUSH2 0x500F JUMP JUMPDEST DUP5 PUSH2 0x29CE JUMP JUMPDEST ADD MLOAD SWAP1 POP DUP4 DUP1 PUSH2 0x2985 JUMP JUMPDEST PUSH1 0x5 DUP7 ADD SWAP1 MSTORE PUSH2 0x100 MLOAD PUSH1 0x20 DUP2 KECCAK256 SWAP1 SWAP5 POP SWAP2 SWAP1 JUMPDEST PUSH1 0x1F NOT DUP5 AND DUP6 LT PUSH2 0x3639 JUMPI PUSH1 0x1 SWAP5 POP DUP4 PUSH1 0x1F NOT DUP2 AND LT PUSH2 0x3620 JUMPI JUMPDEST POP POP POP DUP2 SHL ADD PUSH1 0x5 DUP3 ADD SSTORE PUSH2 0x299D JUMP JUMPDEST ADD MLOAD PUSH1 0x0 NOT PUSH1 0xF8 DUP5 PUSH1 0x3 SHL AND SHR NOT AND SWAP1 SSTORE DUP4 DUP1 DUP1 PUSH2 0x3610 JUMP JUMPDEST DUP2 DUP2 ADD MLOAD DUP4 SSTORE PUSH1 0x20 SWAP5 DUP6 ADD SWAP5 PUSH1 0x1 SWAP1 SWAP4 ADD SWAP3 SWAP1 SWAP2 ADD SWAP1 PUSH2 0x35F5 JUMP JUMPDEST PUSH2 0x3687 SWAP1 PUSH1 0x5 DUP7 ADD PUSH2 0x100 MLOAD MSTORE PUSH1 0x20 PUSH2 0x100 MLOAD KECCAK256 PUSH1 0x1F DUP6 ADD PUSH1 0x5 SHR DUP2 ADD SWAP2 PUSH1 0x20 DUP7 LT PUSH2 0x16FE JUMPI PUSH1 0x1F ADD PUSH1 0x5 SHR ADD SWAP1 PUSH2 0x500F JUMP JUMPDEST DUP5 PUSH2 0x2966 JUMP JUMPDEST ADD MLOAD SWAP1 POP DUP4 DUP1 PUSH2 0x291D JUMP JUMPDEST PUSH1 0x4 DUP7 ADD SWAP1 MSTORE PUSH2 0x100 MLOAD PUSH1 0x20 DUP2 KECCAK256 SWAP1 SWAP5 POP SWAP2 SWAP1 JUMPDEST PUSH1 0x1F NOT DUP5 AND DUP6 LT PUSH2 0x36F0 JUMPI PUSH1 0x1 SWAP5 POP DUP4 PUSH1 0x1F NOT DUP2 AND LT PUSH2 0x36D7 JUMPI JUMPDEST POP POP POP DUP2 SHL ADD PUSH1 0x4 DUP3 ADD SSTORE PUSH2 0x2935 JUMP JUMPDEST ADD MLOAD PUSH1 0x0 NOT PUSH1 0xF8 DUP5 PUSH1 0x3 SHL AND SHR NOT AND SWAP1 SSTORE DUP4 DUP1 DUP1 PUSH2 0x36C7 JUMP JUMPDEST DUP2 DUP2 ADD MLOAD DUP4 SSTORE PUSH1 0x20 SWAP5 DUP6 ADD SWAP5 PUSH1 0x1 SWAP1 SWAP4 ADD SWAP3 SWAP1 SWAP2 ADD SWAP1 PUSH2 0x36AC JUMP JUMPDEST PUSH2 0x373E SWAP1 PUSH1 0x4 DUP7 ADD PUSH2 0x100 MLOAD MSTORE PUSH1 0x20 PUSH2 0x100 MLOAD KECCAK256 PUSH1 0x1F DUP6 ADD PUSH1 0x5 SHR DUP2 ADD SWAP2 PUSH1 0x20 DUP7 LT PUSH2 0x16FE JUMPI PUSH1 0x1F ADD PUSH1 0x5 SHR ADD SWAP1 PUSH2 0x500F JUMP JUMPDEST DUP5 PUSH2 0x28FE JUMP JUMPDEST DUP1 MLOAD DUP1 MLOAD SWAP1 PUSH1 0x1 PUSH1 0x1 PUSH1 0x40 SHL SUB DUP3 GT PUSH2 0x1708 JUMPI PUSH2 0x3761 DUP7 SLOAD PUSH2 0x49B5 JUMP JUMPDEST PUSH1 0x1F DUP2 GT PUSH2 0x3830 JUMPI JUMPDEST POP PUSH2 0x100 MLOAD SWAP1 DUP7 PUSH1 0x20 SWAP3 PUSH1 0x1F DUP6 GT PUSH1 0x1 EQ PUSH2 0x37C1 JUMPI POP POP SWAP3 DUP3 PUSH1 0x1 SWAP5 SWAP4 PUSH1 0x20 SWAP4 DUP7 SWAP6 PUSH2 0x100 MLOAD SWAP3 PUSH2 0x37B6 JUMPI JUMPDEST POP POP PUSH1 0x0 NOT PUSH1 0x3 DUP4 SWAP1 SHL SHR NOT AND SWAP1 DUP5 SHL OR DUP8 SSTORE JUMPDEST ADD SWAP5 ADD SWAP2 ADD SWAP1 SWAP3 PUSH2 0x28C5 JUMP JUMPDEST ADD MLOAD SWAP1 POP DUP11 DUP1 PUSH2 0x3796 JUMP JUMPDEST MSTORE PUSH2 0x100 MLOAD PUSH1 0x20 DUP2 KECCAK256 SWAP3 SWAP2 SWAP1 JUMPDEST PUSH1 0x1F NOT DUP6 AND DUP2 LT PUSH2 0x3818 JUMPI POP DUP4 PUSH1 0x20 SWAP4 PUSH1 0x1 SWAP7 SWAP4 DUP8 SWAP7 SWAP4 DUP8 SWAP5 PUSH1 0x1F NOT DUP2 AND LT PUSH2 0x37FF JUMPI JUMPDEST POP POP POP DUP2 SHL ADD DUP8 SSTORE PUSH2 0x37AA JUMP JUMPDEST ADD MLOAD PUSH1 0x0 NOT PUSH1 0xF8 DUP5 PUSH1 0x3 SHL AND SHR NOT AND SWAP1 SSTORE DUP11 DUP1 DUP1 PUSH2 0x37F2 JUMP JUMPDEST SWAP2 SWAP3 PUSH1 0x20 PUSH1 0x1 DUP2 SWAP3 DUP7 DUP6 ADD MLOAD DUP2 SSTORE ADD SWAP5 ADD SWAP3 ADD PUSH2 0x37CE JUMP JUMPDEST PUSH2 0x3860 SWAP1 DUP8 PUSH2 0x100 MLOAD MSTORE PUSH1 0x20 PUSH2 0x100 MLOAD KECCAK256 PUSH1 0x5 PUSH1 0x1F DUP7 ADD DUP2 SHR DUP3 ADD SWAP3 PUSH1 0x20 DUP8 LT PUSH2 0x1FBC JUMPI PUSH1 0x1F ADD SWAP1 SHR ADD SWAP1 PUSH2 0x500F JUMP JUMPDEST DUP8 PUSH2 0x376A JUMP JUMPDEST PUSH1 0x3 DUP5 ADD PUSH2 0x100 MLOAD MSTORE PUSH1 0x20 PUSH2 0x100 MLOAD KECCAK256 SWAP1 DUP4 DUP3 ADD JUMPDEST DUP2 DUP4 ADD DUP2 LT PUSH2 0x388B JUMPI POP POP PUSH2 0x28AF JUMP JUMPDEST DUP1 PUSH2 0x3898 PUSH1 0x1 SWAP3 SLOAD PUSH2 0x49B5 JUMP JUMPDEST DUP1 PUSH2 0x38A5 JUMPI JUMPDEST POP ADD PUSH2 0x387B JUMP JUMPDEST PUSH1 0x1F DUP2 GT DUP4 EQ PUSH2 0x38BD JUMPI POP PUSH2 0x100 MLOAD DUP2 SSTORE JUMPDEST DUP8 PUSH2 0x389E JUMP JUMPDEST DUP2 PUSH2 0x100 MLOAD MSTORE PUSH2 0x100 MLOAD SWAP1 PUSH2 0x38E0 PUSH1 0x1F PUSH1 0x20 DUP5 KECCAK256 SWAP3 ADD PUSH1 0x5 SHR DUP3 ADD DUP6 DUP4 ADD PUSH2 0x500F JUMP JUMPDEST DUP2 DUP4 SSTORE SSTORE PUSH2 0x38B7 JUMP JUMPDEST ADD MLOAD SWAP1 POP DUP4 DUP1 PUSH2 0x286E JUMP JUMPDEST PUSH1 0x2 DUP7 ADD SWAP1 MSTORE PUSH2 0x100 MLOAD PUSH1 0x20 DUP2 KECCAK256 SWAP1 SWAP5 POP SWAP2 SWAP1 JUMPDEST PUSH1 0x1F NOT DUP5 AND DUP6 LT PUSH2 0x394C JUMPI PUSH1 0x1 SWAP5 POP DUP4 PUSH1 0x1F NOT DUP2 AND LT PUSH2 0x3933 JUMPI JUMPDEST POP POP POP DUP2 SHL ADD PUSH1 0x2 DUP3 ADD SSTORE PUSH2 0x2886 JUMP JUMPDEST ADD MLOAD PUSH1 0x0 NOT PUSH1 0xF8 DUP5 PUSH1 0x3 SHL AND SHR NOT AND SWAP1 SSTORE DUP4 DUP1 DUP1 PUSH2 0x3923 JUMP JUMPDEST DUP2 DUP2 ADD MLOAD DUP4 SSTORE PUSH1 0x20 SWAP5 DUP6 ADD SWAP5 PUSH1 0x1 SWAP1 SWAP4 ADD SWAP3 SWAP1 SWAP2 ADD SWAP1 PUSH2 0x3908 JUMP JUMPDEST PUSH2 0x399A SWAP1 PUSH1 0x2 DUP7 ADD PUSH2 0x100 MLOAD MSTORE PUSH1 0x20 PUSH2 0x100 MLOAD KECCAK256 PUSH1 0x1F DUP6 ADD PUSH1 0x5 SHR DUP2 ADD SWAP2 PUSH1 0x20 DUP7 LT PUSH2 0x16FE JUMPI PUSH1 0x1F ADD PUSH1 0x5 SHR ADD SWAP1 PUSH2 0x500F JUMP JUMPDEST DUP5 PUSH2 0x284F JUMP JUMPDEST PUSH1 0x40 MLOAD PUSH3 0x461BCD PUSH1 0xE5 SHL DUP2 MSTORE PUSH1 0x20 PUSH1 0x4 DUP3 ADD MSTORE PUSH1 0xF PUSH1 0x24 DUP3 ADD MSTORE PUSH15 0x496E76616C6964206D696C65616765 PUSH1 0x88 SHL PUSH1 0x44 DUP3 ADD MSTORE PUSH1 0x64 SWAP1 REVERT JUMPDEST PUSH1 0x40 MLOAD PUSH3 0x461BCD PUSH1 0xE5 SHL DUP2 MSTORE PUSH1 0x20 PUSH1 0x4 DUP3 ADD MSTORE PUSH1 0xC PUSH1 0x24 DUP3 ADD MSTORE PUSH12 0x24B73B30B634B2103CB2B0B9 PUSH1 0xA1 SHL PUSH1 0x44 DUP3 ADD MSTORE PUSH1 0x64 SWAP1 REVERT JUMPDEST PUSH4 0x4E487B71 PUSH1 0xE0 SHL PUSH2 0x100 MLOAD MSTORE PUSH1 0x11 PUSH1 0x4 MSTORE PUSH1 0x24 PUSH2 0x100 MLOAD REVERT JUMPDEST PUSH1 0x40 MLOAD PUSH3 0x461BCD PUSH1 0xE5 SHL DUP2 MSTORE PUSH1 0x20 PUSH1 0x4 DUP3 ADD MSTORE PUSH1 0x9 PUSH1 0x24 DUP3 ADD MSTORE PUSH9 0x4E6F20696D61676573 PUSH1 0xB8 SHL PUSH1 0x44 DUP3 ADD MSTORE PUSH1 0x64 SWAP1 REVERT JUMPDEST PUSH1 0x40 MLOAD PUSH3 0x461BCD PUSH1 0xE5 SHL DUP2 MSTORE PUSH1 0x20 PUSH1 0x4 DUP3 ADD MSTORE PUSH1 0xD PUSH1 0x24 DUP3 ADD MSTORE PUSH13 0x496E76616C6964207072696365 PUSH1 0x98 SHL PUSH1 0x44 DUP3 ADD MSTORE PUSH1 0x64 SWAP1 REVERT JUMPDEST PUSH1 0x40 MLOAD PUSH3 0x461BCD PUSH1 0xE5 SHL DUP2 MSTORE PUSH1 0x20 PUSH1 0x4 DUP3 ADD MSTORE PUSH1 0xE PUSH1 0x24 DUP3 ADD MSTORE PUSH14 0x24B73B30B634B21039B2B63632B9 PUSH1 0x91 SHL PUSH1 0x44 DUP3 ADD MSTORE PUSH1 0x64 SWAP1 REVERT JUMPDEST PUSH1 0x1 PUSH1 0x1 PUSH1 0xA0 SHL SUB SWAP2 POP PUSH2 0x3AD4 SWAP1 PUSH2 0x4F70 JUMP JUMPDEST AND ISZERO ISZERO DUP2 PUSH2 0x24B2 JUMP JUMPDEST CALLVALUE PUSH2 0x20B JUMPI PUSH1 0x20 CALLDATASIZE PUSH1 0x3 NOT ADD SLT PUSH2 0x20B JUMPI PUSH1 0x20 PUSH2 0x3AFB PUSH1 0x4 CALLDATALOAD PUSH2 0x4992 JUMP JUMPDEST PUSH1 0x40 MLOAD PUSH1 0x1 PUSH1 0x1 PUSH1 0xA0 SHL SUB SWAP1 SWAP2 AND DUP2 MSTORE RETURN JUMPDEST CALLVALUE PUSH2 0x20B JUMPI PUSH1 0x20 DUP1 PUSH1 0x3 NOT CALLDATASIZE ADD SLT PUSH2 0x20B JUMPI PUSH1 0x4 CALLDATALOAD DUP1 PUSH2 0x100 MLOAD MSTORE PUSH1 0x9 DUP3 MSTORE PUSH1 0xFF PUSH1 0x14 PUSH1 0x40 PUSH2 0x100 MLOAD KECCAK256 ADD SLOAD PUSH1 0x8 SHR AND PUSH2 0x3C1E JUMPI DUP1 PUSH2 0x100 MLOAD MSTORE PUSH1 0x9 DUP3 MSTORE PUSH1 0x14 PUSH1 0x40 PUSH2 0x100 MLOAD KECCAK256 ADD PUSH2 0x100 PUSH2 0xFF00 NOT DUP3 SLOAD AND OR SWAP1 SSTORE PUSH2 0x3B6B DUP2 PUSH2 0x4992 JUMP JUMPDEST POP DUP1 PUSH2 0x3B76 DUP2 PUSH2 0x4992 JUMP JUMPDEST DUP2 PUSH2 0x100 MLOAD MSTORE PUSH1 0x5 DUP5 MSTORE PUSH1 0x3 PUSH2 0x100 MLOAD SWAP5 PUSH1 0x40 DUP7 KECCAK256 SWAP3 PUSH1 0x1 PUSH1 0x1 PUSH1 0x60 SHL SUB PUSH1 0xA0 SHL SWAP4 DUP5 DUP2 SLOAD AND SWAP1 SSTORE PUSH1 0x1 DUP1 PUSH1 0xA0 SHL SUB AND DUP1 SWAP7 MSTORE PUSH1 0x4 DUP2 MSTORE DUP4 PUSH2 0x100 MLOAD PUSH1 0x40 DUP2 KECCAK256 PUSH1 0x0 NOT DUP2 SLOAD ADD SWAP1 SSTORE MSTORE MSTORE PUSH2 0x100 MLOAD SWAP4 DUP5 SWAP2 PUSH1 0x40 DUP4 KECCAK256 SWAP1 DUP2 SLOAD AND SWAP1 SSTORE PUSH32 0xDDF252AD1BE2C89B69C2B068FC378DAA952BA7F163C4A11628F55A4DF523B3EF DUP3 DUP1 LOG4 CALLER SWAP1 PUSH32 0x975848B3B721E792B1AFE72032F4FA971D1FAEB9BFD806CCF1FFADA5BAC8BAFE DUP4 DUP1 LOG3 DUP1 RETURN JUMPDEST PUSH1 0x40 MLOAD PUSH3 0x461BCD PUSH1 0xE5 SHL DUP2 MSTORE PUSH1 0x4 DUP2 ADD DUP4 SWAP1 MSTORE PUSH1 0x13 PUSH1 0x24 DUP3 ADD MSTORE PUSH19 0x10D85C88185B1C9958591E4819195B195D1959 PUSH1 0x6A SHL PUSH1 0x44 DUP3 ADD MSTORE PUSH1 0x64 SWAP1 REVERT JUMPDEST CALLVALUE PUSH2 0x20B JUMPI PUSH1 0x20 DUP1 PUSH1 0x3 NOT CALLDATASIZE ADD SLT PUSH2 0x20B JUMPI PUSH1 0x4 CALLDATALOAD PUSH2 0x3C76 PUSH2 0x5072 JUMP JUMPDEST POP PUSH2 0x100 DUP1 MLOAD DUP3 SWAP1 MSTORE PUSH1 0x9 DUP4 MSTORE MLOAD PUSH1 0x40 SWAP1 KECCAK256 PUSH1 0x1 ADD SLOAD PUSH2 0x3CA0 SWAP1 PUSH1 0x1 PUSH1 0x1 PUSH1 0xA0 SHL SUB AND ISZERO ISZERO PUSH2 0x513F JUMP JUMPDEST DUP1 PUSH2 0x100 MLOAD MSTORE PUSH1 0x9 DUP3 MSTORE PUSH2 0x3CC4 PUSH1 0xFF PUSH1 0x14 PUSH1 0x40 PUSH2 0x100 MLOAD KECCAK256 ADD SLOAD PUSH1 0x8 SHR AND ISZERO PUSH2 0x5180 JUMP JUMPDEST PUSH2 0x100 MLOAD MSTORE PUSH1 0x9 DUP2 MSTORE PUSH2 0x3CDC PUSH1 0x40 PUSH2 0x100 MLOAD KECCAK256 PUSH2 0x5218 JUMP JUMPDEST SWAP1 PUSH2 0x6EB PUSH1 0x40 MLOAD SWAP3 DUP3 DUP5 SWAP4 DUP5 MSTORE DUP4 ADD SWAP1 PUSH2 0x442C JUMP JUMPDEST CALLVALUE PUSH2 0x20B JUMPI PUSH2 0x774 PUSH2 0x76F PUSH2 0x3D05 CALLDATASIZE PUSH2 0x439B JUMP JUMPDEST SWAP1 PUSH1 0x40 MLOAD SWAP3 PUSH2 0x3D13 DUP5 PUSH2 0x4704 JUMP JUMPDEST PUSH2 0x100 MLOAD DUP5 MSTORE PUSH2 0x75F PUSH2 0x75A DUP5 CALLER PUSH2 0x4BAC JUMP JUMPDEST CALLVALUE PUSH2 0x20B JUMPI PUSH2 0x100 MLOAD DUP1 PUSH1 0x3 NOT CALLDATASIZE ADD SLT PUSH2 0x4DE JUMPI PUSH1 0x7 SLOAD SWAP1 PUSH1 0x1 JUMPDEST DUP3 DUP2 GT ISZERO PUSH2 0x3DE0 JUMPI POP PUSH2 0x3D53 SWAP1 PUSH2 0x53F4 JUMP JUMPDEST SWAP1 PUSH2 0x100 MLOAD PUSH1 0x1 SWAP1 JUMPDEST DUP3 DUP3 GT ISZERO PUSH2 0x3D72 JUMPI PUSH1 0x40 MLOAD DUP1 PUSH2 0x6EB DUP7 DUP3 PUSH2 0x4627 JUMP JUMPDEST DUP2 PUSH2 0x100 MLOAD MSTORE PUSH1 0x9 PUSH1 0x20 MSTORE PUSH1 0x40 PUSH2 0x100 MLOAD KECCAK256 SWAP2 PUSH1 0xFF PUSH1 0x14 DUP5 ADD SLOAD PUSH1 0x8 SHR AND ISZERO DUP1 PUSH2 0x3DCA JUMPI JUMPDEST PUSH2 0x3DAD JUMPI JUMPDEST PUSH2 0x3DA7 SWAP2 SWAP3 POP PUSH2 0x53CF JUMP JUMPDEST SWAP1 PUSH2 0x3D5C JUMP JUMPDEST PUSH2 0x3DC1 DUP3 PUSH2 0x816 PUSH2 0x810 PUSH2 0x3DA7 SWAP6 SWAP3 PUSH2 0x53CF JUMP JUMPDEST POP DUP3 SWAP2 POP PUSH2 0x3D9C JUMP JUMPDEST POP PUSH1 0x1 DUP4 ADD SLOAD PUSH1 0x1 PUSH1 0x1 PUSH1 0xA0 SHL SUB AND CALLER EQ PUSH2 0x3D97 JUMP JUMPDEST DUP1 PUSH2 0x100 MLOAD MSTORE PUSH1 0x9 PUSH1 0x20 MSTORE PUSH1 0x40 PUSH2 0x100 MLOAD KECCAK256 PUSH1 0xFF PUSH1 0x14 DUP3 ADD SLOAD PUSH1 0x8 SHR AND ISZERO SWAP1 DUP2 PUSH2 0x3E2E JUMPI JUMPDEST POP PUSH2 0x3E19 JUMPI JUMPDEST PUSH2 0x3E14 SWAP1 PUSH2 0x53CF JUMP JUMPDEST PUSH2 0x3D41 JUMP JUMPDEST SWAP1 PUSH2 0x3E26 PUSH2 0x3E14 SWAP2 PUSH2 0x53CF JUMP JUMPDEST SWAP2 SWAP1 POP PUSH2 0x3E0B JUMP JUMPDEST PUSH1 0x1 ADD SLOAD PUSH1 0x1 PUSH1 0x1 PUSH1 0xA0 SHL SUB AND CALLER EQ SWAP1 POP DUP5 PUSH2 0x3E05 JUMP JUMPDEST CALLVALUE PUSH2 0x20B JUMPI PUSH2 0x100 MLOAD DUP1 PUSH1 0x3 NOT CALLDATASIZE ADD SLT PUSH2 0x4DE JUMPI PUSH1 0x7 SLOAD PUSH1 0x1 JUMPDEST DUP2 DUP2 GT ISZERO PUSH2 0x3FF8 JUMPI POP PUSH2 0x3E71 DUP3 PUSH2 0x47B0 JUMP JUMPDEST SWAP2 PUSH2 0x3E7F PUSH1 0x40 MLOAD SWAP4 DUP5 PUSH2 0x471F JUMP JUMPDEST DUP1 DUP4 MSTORE PUSH2 0x3E8E PUSH1 0x1F NOT SWAP2 PUSH2 0x47B0 JUMP JUMPDEST ADD PUSH2 0x100 MLOAD JUMPDEST DUP2 DUP2 LT PUSH2 0x3FC3 JUMPI POP POP PUSH2 0x100 MLOAD PUSH1 0x1 SWAP1 JUMPDEST DUP3 DUP3 GT ISZERO PUSH2 0x3F16 JUMPI DUP4 PUSH1 0x40 MLOAD PUSH1 0x20 SWAP2 DUP3 DUP3 ADD DUP4 DUP4 MSTORE DUP2 MLOAD DUP1 SWAP2 MSTORE DUP4 PUSH1 0x40 DUP5 ADD SWAP3 ADD SWAP4 PUSH2 0x100 MLOAD JUMPDEST DUP3 DUP2 LT PUSH2 0x3ED9 JUMPI DUP5 DUP5 SUB DUP6 RETURN JUMPDEST DUP6 MLOAD DUP1 MLOAD DUP6 MSTORE DUP1 DUP4 ADD MLOAD DUP6 DUP5 ADD MSTORE PUSH1 0x40 DUP1 DUP3 ADD MLOAD SWAP1 DUP7 ADD MSTORE PUSH1 0x60 SWAP1 DUP2 ADD MLOAD PUSH1 0x1 PUSH1 0x1 PUSH1 0xA0 SHL SUB AND SWAP1 DUP6 ADD MSTORE SWAP5 DUP2 ADD SWAP5 PUSH1 0x80 SWAP1 SWAP4 ADD SWAP3 PUSH1 0x1 ADD PUSH2 0x3ECC JUMP JUMPDEST PUSH2 0x100 SWAP4 SWAP2 SWAP3 SWAP4 MLOAD SWAP1 JUMPDEST DUP4 PUSH2 0x100 MLOAD MSTORE PUSH1 0x20 PUSH1 0xA DUP2 MSTORE PUSH1 0x40 PUSH2 0x100 MLOAD KECCAK256 DUP1 SLOAD DUP5 LT ISZERO PUSH2 0x3FAC JUMPI SWAP2 PUSH2 0x3FA0 SWAP2 PUSH2 0x3F4E DUP6 PUSH2 0x3FA6 SWAP6 PUSH2 0x546E JUMP JUMPDEST POP PUSH1 0x40 MLOAD SWAP2 PUSH2 0x3F5C DUP4 PUSH2 0x4689 JUMP JUMPDEST DUP2 SLOAD DUP4 MSTORE PUSH1 0x1 DUP3 ADD SLOAD SWAP1 DUP4 ADD MSTORE PUSH1 0x2 DUP2 ADD SLOAD PUSH1 0x40 DUP4 ADD MSTORE PUSH1 0x3 ADD SLOAD PUSH1 0x1 PUSH1 0x1 PUSH1 0xA0 SHL SUB AND PUSH1 0x60 DUP3 ADD MSTORE PUSH2 0x3F8F DUP3 DUP8 PUSH2 0x5444 JUMP JUMPDEST MSTORE PUSH2 0x3F9A DUP2 DUP7 PUSH2 0x5444 JUMP JUMPDEST POP PUSH2 0x53CF JUMP JUMPDEST SWAP2 PUSH2 0x53CF JUMP JUMPDEST SWAP1 PUSH2 0x3F20 JUMP JUMPDEST POP POP SWAP3 PUSH2 0x3FBC SWAP2 POP SWAP4 SWAP2 SWAP4 PUSH2 0x53CF JUMP JUMPDEST SWAP1 SWAP2 PUSH2 0x3EA5 JUMP JUMPDEST PUSH1 0x20 SWAP1 PUSH1 0x40 MLOAD PUSH2 0x3FD2 DUP2 PUSH2 0x4689 JUMP JUMPDEST PUSH2 0x100 DUP1 MLOAD DUP3 MSTORE DUP1 MLOAD DUP5 DUP4 ADD MSTORE DUP1 MLOAD PUSH1 0x40 DUP4 ADD MSTORE MLOAD PUSH1 0x60 DUP3 ADD MSTORE DUP6 DUP3 ADD DUP4 ADD MSTORE ADD PUSH2 0x3E94 JUMP JUMPDEST SWAP2 DUP3 PUSH2 0x100 MLOAD MSTORE PUSH1 0xA PUSH1 0x20 MSTORE PUSH2 0x100 MLOAD PUSH1 0x40 DUP2 KECCAK256 SLOAD DUP3 ADD DUP1 SWAP3 GT PUSH2 0x4026 JUMPI POP PUSH2 0x4021 SWAP1 SWAP3 PUSH2 0x53CF JUMP JUMPDEST PUSH2 0x3E5F JUMP JUMPDEST PUSH4 0x4E487B71 PUSH1 0xE0 SHL SWAP1 MSTORE PUSH1 0x11 PUSH1 0x4 MSTORE PUSH2 0x100 MLOAD PUSH1 0x24 SWAP1 REVERT JUMPDEST CALLVALUE PUSH2 0x20B JUMPI PUSH2 0x774 PUSH2 0x404F CALLDATASIZE PUSH2 0x439B JUMP JUMPDEST SWAP2 PUSH2 0x405D PUSH2 0x75A DUP5 CALLER PUSH2 0x4BAC JUMP JUMPDEST PUSH2 0x4C74 JUMP JUMPDEST CALLVALUE PUSH2 0x20B JUMPI PUSH1 0x40 CALLDATASIZE PUSH1 0x3 NOT ADD SLT PUSH2 0x20B JUMPI PUSH2 0x407B PUSH2 0x436A JUMP JUMPDEST PUSH1 0x24 CALLDATALOAD PUSH1 0x1 PUSH1 0x1 PUSH1 0xA0 SHL SUB DUP1 DUP1 PUSH2 0x4091 DUP5 PUSH2 0x4992 JUMP JUMPDEST AND SWAP4 AND SWAP3 DUP1 DUP5 EQ PUSH2 0x419F JUMPI DUP1 CALLER EQ SWAP1 DUP2 ISZERO PUSH2 0x4173 JUMPI JUMPDEST POP ISZERO PUSH2 0x4108 JUMPI DUP2 PUSH2 0x100 MLOAD MSTORE PUSH1 0x5 PUSH1 0x20 MSTORE PUSH1 0x40 PUSH2 0x100 MLOAD KECCAK256 DUP4 PUSH1 0x1 PUSH1 0x1 PUSH1 0x60 SHL SUB PUSH1 0xA0 SHL DUP3 SLOAD AND OR SWAP1 SSTORE PUSH2 0x40DA DUP3 PUSH2 0x4992 JUMP JUMPDEST AND SWAP2 PUSH2 0x100 MLOAD SWAP3 PUSH32 0x8C5BE1E5EBEC7D5BD14F71427D1E84F3DD0314C0F7B2291E5B200AC8C7C3B925 DUP5 DUP1 LOG4 DUP1 RETURN JUMPDEST PUSH1 0x40 MLOAD PUSH3 0x461BCD PUSH1 0xE5 SHL DUP2 MSTORE PUSH1 0x20 PUSH1 0x4 DUP3 ADD MSTORE PUSH1 0x3D PUSH1 0x24 DUP3 ADD MSTORE PUSH32 0x4552433732313A20617070726F76652063616C6C6572206973206E6F7420746F PUSH1 0x44 DUP3 ADD MSTORE PUSH32 0x6B656E206F776E6572206F7220617070726F76656420666F7220616C6C000000 PUSH1 0x64 DUP3 ADD MSTORE PUSH1 0x84 SWAP1 REVERT JUMPDEST SWAP1 POP PUSH2 0x100 MLOAD MSTORE PUSH1 0x6 PUSH1 0x20 MSTORE PUSH2 0x100 MLOAD PUSH1 0x40 DUP2 KECCAK256 SWAP1 CALLER SWAP1 MSTORE PUSH1 0x20 MSTORE PUSH1 0xFF PUSH1 0x40 PUSH2 0x100 MLOAD KECCAK256 SLOAD AND DUP5 PUSH2 0x40A7 JUMP JUMPDEST PUSH1 0x40 MLOAD PUSH3 0x461BCD PUSH1 0xE5 SHL DUP2 MSTORE PUSH1 0x20 PUSH1 0x4 DUP3 ADD MSTORE PUSH1 0x21 PUSH1 0x24 DUP3 ADD MSTORE PUSH32 0x4552433732313A20617070726F76616C20746F2063757272656E74206F776E65 PUSH1 0x44 DUP3 ADD MSTORE PUSH1 0x39 PUSH1 0xF9 SHL PUSH1 0x64 DUP3 ADD MSTORE PUSH1 0x84 SWAP1 REVERT JUMPDEST CALLVALUE PUSH2 0x20B JUMPI PUSH1 0x20 CALLDATASIZE PUSH1 0x3 NOT ADD SLT PUSH2 0x20B JUMPI PUSH1 0x20 PUSH2 0x3AFB PUSH1 0x4 CALLDATALOAD PUSH2 0x4A95 JUMP JUMPDEST CALLVALUE PUSH2 0x20B JUMPI PUSH2 0x100 MLOAD DUP1 PUSH1 0x3 NOT CALLDATASIZE ADD SLT PUSH2 0x4DE JUMPI PUSH1 0x40 MLOAD SWAP1 PUSH1 0x1 DUP1 SLOAD SWAP1 PUSH2 0x4232 DUP3 PUSH2 0x49B5 JUMP JUMPDEST DUP1 DUP6 MSTORE SWAP2 DUP2 DUP2 AND SWAP1 DUP2 ISZERO PUSH2 0xA87 JUMPI POP PUSH1 0x1 EQ PUSH2 0x4258 JUMPI PUSH2 0x6EB DUP5 PUSH2 0xA15 DUP2 DUP7 SUB DUP3 PUSH2 0x471F JUMP JUMPDEST PUSH2 0x100 DUP1 MLOAD DUP3 SWAP1 MSTORE MLOAD SWAP3 POP PUSH32 0xB10E2D527612073B26EECDFD717E6A320CF44B4AFAC2B0732D9FCBE2B7FA0CF6 JUMPDEST DUP3 DUP5 LT PUSH2 0x429D JUMPI POP POP POP DUP2 ADD PUSH1 0x20 ADD PUSH2 0xA15 DUP3 PUSH2 0xA05 JUMP JUMPDEST DUP1 SLOAD PUSH1 0x20 DUP6 DUP8 ADD DUP2 ADD SWAP2 SWAP1 SWAP2 MSTORE SWAP1 SWAP4 ADD SWAP3 DUP2 ADD PUSH2 0x4285 JUMP JUMPDEST SWAP1 POP CALLVALUE PUSH2 0x4326 JUMPI PUSH1 0x20 CALLDATASIZE PUSH1 0x3 NOT ADD SLT PUSH2 0x4326 JUMPI PUSH1 0x4 CALLDATALOAD PUSH4 0xFFFFFFFF PUSH1 0xE0 SHL DUP2 AND DUP1 SWAP2 SUB PUSH2 0x4322 JUMPI PUSH1 0x20 SWAP3 POP PUSH4 0x80AC58CD PUSH1 0xE0 SHL DUP2 EQ SWAP1 DUP2 ISZERO PUSH2 0x4311 JUMPI JUMPDEST DUP2 ISZERO PUSH2 0x4300 JUMPI JUMPDEST POP ISZERO ISZERO DUP2 MSTORE RETURN JUMPDEST PUSH4 0x1FFC9A7 PUSH1 0xE0 SHL EQ SWAP1 POP CODESIZE PUSH2 0x42F9 JUMP JUMPDEST PUSH4 0x5B5E139F PUSH1 0xE0 SHL DUP2 EQ SWAP2 POP PUSH2 0x42F2 JUMP JUMPDEST DUP3 DUP1 REVERT JUMPDEST POP DUP1 REVERT JUMPDEST SWAP2 SWAP1 DUP3 MLOAD SWAP3 DUP4 DUP3 MSTORE PUSH1 0x0 JUMPDEST DUP5 DUP2 LT PUSH2 0x4356 JUMPI POP POP DUP3 PUSH1 0x0 PUSH1 0x20 DUP1 SWAP5 SWAP6 DUP5 ADD ADD MSTORE PUSH1 0x1F DUP1 NOT SWAP2 ADD AND ADD ADD SWAP1 JUMP JUMPDEST PUSH1 0x20 DUP2 DUP4 ADD DUP2 ADD MLOAD DUP5 DUP4 ADD DUP3 ADD MSTORE ADD PUSH2 0x4335 JUMP JUMPDEST PUSH1 0x4 CALLDATALOAD SWAP1 PUSH1 0x1 PUSH1 0x1 PUSH1 0xA0 SHL SUB DUP3 AND DUP3 SUB PUSH2 0x4380 JUMPI JUMP JUMPDEST PUSH1 0x0 DUP1 REVERT JUMPDEST PUSH1 0x24 CALLDATALOAD SWAP1 PUSH1 0x1 PUSH1 0x1 PUSH1 0xA0 SHL SUB DUP3 AND DUP3 SUB PUSH2 0x4380 JUMPI JUMP JUMPDEST PUSH1 0x60 SWAP1 PUSH1 0x3 NOT ADD SLT PUSH2 0x4380 JUMPI PUSH1 0x1 PUSH1 0x1 PUSH1 0xA0 SHL SUB SWAP1 PUSH1 0x4 CALLDATALOAD DUP3 DUP2 AND DUP2 SUB PUSH2 0x4380 JUMPI SWAP2 PUSH1 0x24 CALLDATALOAD SWAP1 DUP2 AND DUP2 SUB PUSH2 0x4380 JUMPI SWAP1 PUSH1 0x44 CALLDATALOAD SWAP1 JUMP JUMPDEST SWAP1 DUP1 DUP3 MLOAD SWAP1 DUP2 DUP2 MSTORE PUSH1 0x20 DUP1 SWAP2 ADD SWAP3 DUP2 DUP1 DUP5 PUSH1 0x5 SHL DUP4 ADD ADD SWAP6 ADD SWAP4 PUSH1 0x0 SWAP2 JUMPDEST DUP5 DUP4 LT PUSH2 0x43FE JUMPI POP POP POP POP POP POP SWAP1 JUMP JUMPDEST SWAP1 SWAP2 SWAP3 SWAP4 SWAP5 SWAP6 DUP5 DUP1 PUSH2 0x441C PUSH1 0x1 SWAP4 PUSH1 0x1F NOT DUP7 DUP3 SUB ADD DUP8 MSTORE DUP11 MLOAD PUSH2 0x432A JUMP JUMPDEST SWAP9 ADD SWAP4 ADD SWAP4 ADD SWAP2 SWAP5 SWAP4 SWAP3 SWAP1 PUSH2 0x43EE JUMP JUMPDEST SWAP1 DUP2 MLOAD DUP2 MSTORE PUSH1 0x1 DUP1 PUSH1 0xA0 SHL SUB SWAP2 DUP3 PUSH1 0x20 DUP3 ADD MLOAD AND PUSH1 0x20 DUP4 ADD MSTORE PUSH2 0x44F5 PUSH2 0x44D6 PUSH2 0x44B8 PUSH2 0x44A6 PUSH2 0x4494 PUSH2 0x4482 PUSH2 0x4470 PUSH1 0x40 DUP9 ADD MLOAD PUSH2 0x2E0 DUP1 PUSH1 0x40 DUP13 ADD MSTORE DUP11 ADD SWAP1 PUSH2 0x432A JUMP JUMPDEST PUSH1 0x60 DUP9 ADD MLOAD DUP10 DUP3 SUB PUSH1 0x60 DUP12 ADD MSTORE PUSH2 0x43D0 JUMP JUMPDEST PUSH1 0x80 DUP8 ADD MLOAD DUP9 DUP3 SUB PUSH1 0x80 DUP11 ADD MSTORE PUSH2 0x432A JUMP JUMPDEST PUSH1 0xA0 DUP7 ADD MLOAD DUP8 DUP3 SUB PUSH1 0xA0 DUP10 ADD MSTORE PUSH2 0x432A JUMP JUMPDEST PUSH1 0xC0 DUP6 ADD MLOAD DUP7 DUP3 SUB PUSH1 0xC0 DUP9 ADD MSTORE PUSH2 0x432A JUMP JUMPDEST PUSH1 0xE0 DUP5 ADD MLOAD PUSH1 0xE0 DUP7 ADD MSTORE PUSH2 0x100 DUP1 DUP6 ADD MLOAD SWAP1 DUP7 DUP4 SUB SWAP1 DUP8 ADD MSTORE PUSH2 0x432A JUMP JUMPDEST PUSH2 0x120 DUP1 DUP5 ADD MLOAD SWAP1 DUP6 ADD MSTORE PUSH2 0x140 DUP1 DUP5 ADD MLOAD SWAP1 DUP6 DUP4 SUB SWAP1 DUP7 ADD MSTORE PUSH2 0x432A JUMP JUMPDEST PUSH2 0x160 DUP1 DUP4 ADD MLOAD SWAP1 PUSH1 0x3 DUP3 LT ISZERO PUSH2 0x4611 JUMPI DUP5 ADD MSTORE PUSH2 0x180 DUP1 DUP4 ADD MLOAD SWAP1 PUSH1 0x2 DUP3 LT ISZERO PUSH2 0x4611 JUMPI DUP5 ADD MSTORE PUSH2 0x1A0 DUP1 DUP4 ADD MLOAD SWAP1 PUSH1 0x4 DUP3 LT ISZERO PUSH2 0x4611 JUMPI PUSH2 0x45D1 SWAP3 PUSH2 0x4570 SWAP3 PUSH2 0x455C SWAP3 DUP8 ADD MSTORE PUSH2 0x1C0 DUP1 DUP7 ADD MLOAD SWAP1 DUP8 ADD MSTORE PUSH2 0x1E0 DUP1 DUP7 ADD MLOAD SWAP1 DUP8 DUP4 SUB SWAP1 DUP9 ADD MSTORE PUSH2 0x432A JUMP JUMPDEST PUSH2 0x200 DUP1 DUP6 ADD MLOAD SWAP1 DUP7 DUP4 SUB SWAP1 DUP8 ADD MSTORE PUSH2 0x43D0 JUMP JUMPDEST PUSH2 0x220 SWAP1 DUP2 DUP5 ADD MLOAD SWAP2 DUP6 DUP3 SUB SWAP1 DUP7 ADD MSTORE DUP6 DUP3 MLOAD AND DUP2 MSTORE PUSH1 0x80 PUSH2 0x45B6 PUSH2 0x45A4 PUSH1 0x20 DUP6 ADD MLOAD PUSH1 0xA0 PUSH1 0x20 DUP7 ADD MSTORE PUSH1 0xA0 DUP6 ADD SWAP1 PUSH2 0x432A JUMP JUMPDEST PUSH1 0x40 DUP6 ADD MLOAD DUP5 DUP3 SUB PUSH1 0x40 DUP7 ADD MSTORE PUSH2 0x432A JUMP JUMPDEST SWAP3 PUSH1 0x60 DUP2 ADD MLOAD PUSH1 0x60 DUP5 ADD MSTORE ADD MLOAD SWAP1 PUSH1 0x80 DUP2 DUP5 SUB SWAP2 ADD MSTORE PUSH2 0x432A JUMP JUMPDEST SWAP3 PUSH2 0x240 DUP1 DUP4 ADD MLOAD ISZERO ISZERO SWAP1 DUP5 ADD MSTORE PUSH2 0x260 DUP1 DUP4 ADD MLOAD ISZERO ISZERO SWAP1 DUP5 ADD MSTORE PUSH2 0x280 DUP1 DUP4 ADD MLOAD SWAP1 DUP5 ADD MSTORE PUSH2 0x2A0 SWAP1 DUP2 DUP4 ADD MLOAD AND SWAP1 DUP4 ADD MSTORE PUSH2 0x2C0 DUP1 SWAP2 ADD MLOAD SWAP2 ADD MSTORE SWAP1 JUMP JUMPDEST PUSH4 0x4E487B71 PUSH1 0xE0 SHL PUSH1 0x0 MSTORE PUSH1 0x21 PUSH1 0x4 MSTORE PUSH1 0x24 PUSH1 0x0 REVERT JUMPDEST PUSH1 0x20 DUP1 DUP3 ADD SWAP1 DUP1 DUP4 MSTORE DUP4 MLOAD DUP1 SWAP3 MSTORE PUSH1 0x40 DUP4 ADD SWAP3 DUP2 PUSH1 0x40 DUP5 PUSH1 0x5 SHL DUP4 ADD ADD SWAP6 ADD SWAP4 PUSH1 0x0 SWAP2 JUMPDEST DUP5 DUP4 LT PUSH2 0x465B JUMPI POP POP POP POP POP POP SWAP1 JUMP JUMPDEST SWAP1 SWAP2 SWAP3 SWAP4 SWAP5 SWAP6 DUP5 DUP1 PUSH2 0x4679 PUSH1 0x1 SWAP4 PUSH1 0x3F NOT DUP7 DUP3 SUB ADD DUP8 MSTORE DUP11 MLOAD PUSH2 0x442C JUMP JUMPDEST SWAP9 ADD SWAP4 ADD SWAP4 ADD SWAP2 SWAP5 SWAP4 SWAP3 SWAP1 PUSH2 0x464B JUMP JUMPDEST PUSH1 0x80 DUP2 ADD SWAP1 DUP2 LT PUSH1 0x1 PUSH1 0x1 PUSH1 0x40 SHL SUB DUP3 GT OR PUSH2 0x46A4 JUMPI PUSH1 0x40 MSTORE JUMP JUMPDEST PUSH4 0x4E487B71 PUSH1 0xE0 SHL PUSH1 0x0 MSTORE PUSH1 0x41 PUSH1 0x4 MSTORE PUSH1 0x24 PUSH1 0x0 REVERT JUMPDEST PUSH2 0x2E0 DUP2 ADD SWAP1 DUP2 LT PUSH1 0x1 PUSH1 0x1 PUSH1 0x40 SHL SUB DUP3 GT OR PUSH2 0x46A4 JUMPI PUSH1 0x40 MSTORE JUMP JUMPDEST PUSH1 0x1 PUSH1 0x1 PUSH1 0x40 SHL SUB DUP2 GT PUSH2 0x46A4 JUMPI PUSH1 0x40 MSTORE JUMP JUMPDEST PUSH1 0xA0 DUP2 ADD SWAP1 DUP2 LT PUSH1 0x1 PUSH1 0x1 PUSH1 0x40 SHL SUB DUP3 GT OR PUSH2 0x46A4 JUMPI PUSH1 0x40 MSTORE JUMP JUMPDEST PUSH1 0x20 DUP2 ADD SWAP1 DUP2 LT PUSH1 0x1 PUSH1 0x1 PUSH1 0x40 SHL SUB DUP3 GT OR PUSH2 0x46A4 JUMPI PUSH1 0x40 MSTORE JUMP JUMPDEST SWAP1 PUSH1 0x1F DUP1 NOT SWAP2 ADD AND DUP2 ADD SWAP1 DUP2 LT PUSH1 0x1 PUSH1 0x1 PUSH1 0x40 SHL SUB DUP3 GT OR PUSH2 0x46A4 JUMPI PUSH1 0x40 MSTORE JUMP JUMPDEST PUSH1 0x1 PUSH1 0x1 PUSH1 0x40 SHL SUB DUP2 GT PUSH2 0x46A4 JUMPI PUSH1 0x1F ADD PUSH1 0x1F NOT AND PUSH1 0x20 ADD SWAP1 JUMP JUMPDEST SWAP3 SWAP2 SWAP3 PUSH2 0x4767 DUP3 PUSH2 0x4740 JUMP JUMPDEST SWAP2 PUSH2 0x4775 PUSH1 0x40 MLOAD SWAP4 DUP5 PUSH2 0x471F JUMP JUMPDEST DUP3 SWAP5 DUP2 DUP5 MSTORE DUP2 DUP4 ADD GT PUSH2 0x4380 JUMPI DUP3 DUP2 PUSH1 0x20 SWAP4 DUP5 PUSH1 0x0 SWAP7 ADD CALLDATACOPY ADD ADD MSTORE JUMP JUMPDEST SWAP1 DUP1 PUSH1 0x1F DUP4 ADD SLT ISZERO PUSH2 0x4380 JUMPI DUP2 PUSH1 0x20 PUSH2 0x47AD SWAP4 CALLDATALOAD SWAP2 ADD PUSH2 0x475B JUMP JUMPDEST SWAP1 JUMP JUMPDEST PUSH1 0x1 PUSH1 0x1 PUSH1 0x40 SHL SUB DUP2 GT PUSH2 0x46A4 JUMPI PUSH1 0x5 SHL PUSH1 0x20 ADD SWAP1 JUMP JUMPDEST SWAP3 SWAP2 SWAP1 SWAP3 PUSH2 0x47D4 DUP5 PUSH2 0x47B0 JUMP JUMPDEST SWAP2 PUSH2 0x47E2 PUSH1 0x40 MLOAD SWAP4 DUP5 PUSH2 0x471F JUMP JUMPDEST DUP3 SWAP5 DUP1 DUP5 MSTORE PUSH1 0x20 DUP1 SWAP5 ADD SWAP1 PUSH1 0x5 SHL DUP4 ADD SWAP3 DUP3 DUP5 GT PUSH2 0x4380 JUMPI DUP1 SWAP2 JUMPDEST DUP5 DUP4 LT PUSH2 0x480C JUMPI POP POP POP POP POP POP JUMP JUMPDEST DUP3 CALLDATALOAD PUSH1 0x1 PUSH1 0x1 PUSH1 0x40 SHL SUB DUP2 GT PUSH2 0x4380 JUMPI DUP7 SWAP2 PUSH2 0x482B DUP7 DUP5 SWAP4 DUP7 ADD PUSH2 0x4792 JUMP JUMPDEST DUP2 MSTORE ADD SWAP3 ADD SWAP2 PUSH2 0x47FD JUMP JUMPDEST SWAP1 DUP1 PUSH1 0x1F DUP4 ADD SLT ISZERO PUSH2 0x4380 JUMPI DUP2 PUSH1 0x20 PUSH2 0x47AD SWAP4 CALLDATALOAD SWAP2 ADD PUSH2 0x47C7 JUMP JUMPDEST SWAP2 SWAP1 PUSH1 0xA0 DUP4 DUP3 SUB SLT PUSH2 0x4380 JUMPI PUSH1 0x40 MLOAD SWAP1 PUSH2 0x486A DUP3 PUSH2 0x46E9 JUMP JUMPDEST SWAP1 SWAP3 DUP4 SWAP2 SWAP1 DUP1 CALLDATALOAD PUSH1 0x1 PUSH1 0x1 PUSH1 0xA0 SHL SUB DUP2 AND DUP2 SUB PUSH2 0x4380 JUMPI DUP4 MSTORE PUSH1 0x1 PUSH1 0x1 PUSH1 0x40 SHL SUB SWAP2 PUSH1 0x20 DUP3 ADD CALLDATALOAD DUP4 DUP2 GT PUSH2 0x4380 JUMPI DUP2 PUSH2 0x48A4 SWAP2 DUP5 ADD PUSH2 0x4792 JUMP JUMPDEST PUSH1 0x20 DUP6 ADD MSTORE PUSH1 0x40 DUP3 ADD CALLDATALOAD DUP4 DUP2 GT PUSH2 0x4380 JUMPI DUP2 PUSH2 0x48C1 SWAP2 DUP5 ADD PUSH2 0x4792 JUMP JUMPDEST PUSH1 0x40 DUP6 ADD MSTORE PUSH1 0x60 DUP3 ADD CALLDATALOAD PUSH1 0x60 DUP6 ADD MSTORE PUSH1 0x80 DUP3 ADD CALLDATALOAD SWAP3 DUP4 GT PUSH2 0x4380 JUMPI PUSH1 0x80 SWAP3 PUSH2 0x48E9 SWAP3 ADD PUSH2 0x4792 JUMP JUMPDEST SWAP2 ADD MSTORE JUMP JUMPDEST PUSH1 0x0 SLOAD PUSH1 0x1 PUSH1 0x1 PUSH1 0xA0 SHL SUB AND CALLER SUB PUSH2 0x4902 JUMPI JUMP JUMPDEST PUSH1 0x64 PUSH1 0x40 MLOAD PUSH3 0x461BCD PUSH1 0xE5 SHL DUP2 MSTORE PUSH1 0x20 PUSH1 0x4 DUP3 ADD MSTORE PUSH1 0x20 PUSH1 0x24 DUP3 ADD MSTORE PUSH32 0x4F776E61626C653A2063616C6C6572206973206E6F7420746865206F776E6572 PUSH1 0x44 DUP3 ADD MSTORE REVERT JUMPDEST ISZERO PUSH2 0x494D JUMPI JUMP JUMPDEST PUSH1 0x40 MLOAD PUSH3 0x461BCD PUSH1 0xE5 SHL DUP2 MSTORE PUSH1 0x20 PUSH1 0x4 DUP3 ADD MSTORE PUSH1 0x18 PUSH1 0x24 DUP3 ADD MSTORE PUSH32 0x4552433732313A20696E76616C696420746F6B656E2049440000000000000000 PUSH1 0x44 DUP3 ADD MSTORE PUSH1 0x64 SWAP1 REVERT JUMPDEST PUSH1 0x0 SWAP1 DUP2 MSTORE PUSH1 0x3 PUSH1 0x20 MSTORE PUSH1 0x40 SWAP1 KECCAK256 SLOAD PUSH1 0x1 PUSH1 0x1 PUSH1 0xA0 SHL SUB AND PUSH2 0x47AD DUP2 ISZERO ISZERO PUSH2 0x4946 JUMP JUMPDEST SWAP1 PUSH1 0x1 DUP3 DUP2 SHR SWAP3 AND DUP1 ISZERO PUSH2 0x49E5 JUMPI JUMPDEST PUSH1 0x20 DUP4 LT EQ PUSH2 0x49CF JUMPI JUMP JUMPDEST PUSH4 0x4E487B71 PUSH1 0xE0 SHL PUSH1 0x0 MSTORE PUSH1 0x22 PUSH1 0x4 MSTORE PUSH1 0x24 PUSH1 0x0 REVERT JUMPDEST SWAP2 PUSH1 0x7F AND SWAP2 PUSH2 0x49C4 JUMP JUMPDEST SWAP1 PUSH1 0x40 MLOAD SWAP2 DUP3 PUSH1 0x0 DUP3 SLOAD SWAP3 PUSH2 0x4A03 DUP5 PUSH2 0x49B5 JUMP JUMPDEST SWAP1 DUP2 DUP5 MSTORE PUSH1 0x1 SWAP5 DUP6 DUP2 AND SWAP1 DUP2 PUSH1 0x0 EQ PUSH2 0x4A72 JUMPI POP PUSH1 0x1 EQ PUSH2 0x4A2F JUMPI JUMPDEST POP POP PUSH2 0x4A2D SWAP3 POP SUB DUP4 PUSH2 0x471F JUMP JUMPDEST JUMP JUMPDEST SWAP1 SWAP4 SWAP2 POP PUSH1 0x0 MSTORE PUSH1 0x20 SWAP1 DUP2 PUSH1 0x0 KECCAK256 SWAP4 PUSH1 0x0 SWAP2 JUMPDEST DUP2 DUP4 LT PUSH2 0x4A5A JUMPI POP POP PUSH2 0x4A2D SWAP4 POP DUP3 ADD ADD CODESIZE DUP1 PUSH2 0x4A1F JUMP JUMPDEST DUP6 SLOAD DUP9 DUP5 ADD DUP6 ADD MSTORE SWAP5 DUP6 ADD SWAP5 DUP8 SWAP5 POP SWAP2 DUP4 ADD SWAP2 PUSH2 0x4A42 JUMP JUMPDEST SWAP2 POP POP PUSH2 0x4A2D SWAP5 POP PUSH1 0x20 SWAP3 POP PUSH1 0xFF NOT AND DUP3 DUP5 ADD MSTORE ISZERO ISZERO PUSH1 0x5 SHL DUP3 ADD ADD CODESIZE DUP1 PUSH2 0x4A1F JUMP JUMPDEST PUSH1 0x0 DUP2 DUP2 MSTORE PUSH1 0x3 PUSH1 0x20 MSTORE PUSH1 0x40 SWAP1 KECCAK256 SLOAD PUSH2 0x4AB8 SWAP1 PUSH1 0x1 PUSH1 0x1 PUSH1 0xA0 SHL SUB AND ISZERO ISZERO PUSH2 0x4946 JUMP JUMPDEST PUSH1 0x0 SWAP1 DUP2 MSTORE PUSH1 0x5 PUSH1 0x20 MSTORE PUSH1 0x40 SWAP1 KECCAK256 SLOAD PUSH1 0x1 PUSH1 0x1 PUSH1 0xA0 SHL SUB AND SWAP1 JUMP JUMPDEST ISZERO PUSH2 0x4ADA JUMPI JUMP JUMPDEST PUSH1 0x40 MLOAD PUSH3 0x461BCD PUSH1 0xE5 SHL DUP2 MSTORE PUSH1 0x20 PUSH1 0x4 DUP3 ADD MSTORE PUSH1 0x2D PUSH1 0x24 DUP3 ADD MSTORE PUSH32 0x4552433732313A2063616C6C6572206973206E6F7420746F6B656E206F776E65 PUSH1 0x44 DUP3 ADD MSTORE PUSH13 0x1C881BDC88185C1C1C9BDD9959 PUSH1 0x9A SHL PUSH1 0x64 DUP3 ADD MSTORE PUSH1 0x84 SWAP1 REVERT JUMPDEST PUSH1 0x80 SWAP1 PUSH1 0x20 DUP2 MSTORE PUSH1 0x32 PUSH1 0x20 DUP3 ADD MSTORE PUSH32 0x4552433732313A207472616E7366657220746F206E6F6E204552433732315265 PUSH1 0x40 DUP3 ADD MSTORE PUSH18 0x31B2B4BB32B91034B6B83632B6B2B73A32B9 PUSH1 0x71 SHL PUSH1 0x60 DUP3 ADD MSTORE ADD SWAP1 JUMP JUMPDEST ISZERO PUSH2 0x4B8F JUMPI JUMP JUMPDEST PUSH1 0x40 MLOAD PUSH3 0x461BCD PUSH1 0xE5 SHL DUP2 MSTORE DUP1 PUSH2 0x4BA8 PUSH1 0x4 DUP3 ADD PUSH2 0x4B35 JUMP JUMPDEST SUB SWAP1 REVERT JUMPDEST SWAP1 PUSH1 0x1 PUSH1 0x1 PUSH1 0xA0 SHL SUB DUP1 DUP1 PUSH2 0x4BC0 DUP5 PUSH2 0x4992 JUMP JUMPDEST AND SWAP4 AND SWAP2 DUP4 DUP4 EQ SWAP4 DUP5 ISZERO PUSH2 0x4BF3 JUMPI JUMPDEST POP DUP4 ISZERO PUSH2 0x4BDD JUMPI JUMPDEST POP POP POP SWAP1 JUMP JUMPDEST PUSH2 0x4BE9 SWAP2 SWAP3 SWAP4 POP PUSH2 0x4A95 JUMP JUMPDEST AND EQ CODESIZE DUP1 DUP1 PUSH2 0x4BD7 JUMP JUMPDEST SWAP1 SWAP4 POP PUSH1 0x0 MSTORE PUSH1 0x6 PUSH1 0x20 MSTORE PUSH1 0x40 PUSH1 0x0 KECCAK256 DUP3 PUSH1 0x0 MSTORE PUSH1 0x20 MSTORE PUSH1 0xFF PUSH1 0x40 PUSH1 0x0 KECCAK256 SLOAD AND SWAP3 CODESIZE PUSH2 0x4BCF JUMP JUMPDEST ISZERO PUSH2 0x4C21 JUMPI JUMP JUMPDEST PUSH1 0x40 MLOAD PUSH3 0x461BCD PUSH1 0xE5 SHL DUP2 MSTORE PUSH1 0x20 PUSH1 0x4 DUP3 ADD MSTORE PUSH1 0x25 PUSH1 0x24 DUP3 ADD MSTORE PUSH32 0x4552433732313A207472616E736665722066726F6D20696E636F727265637420 PUSH1 0x44 DUP3 ADD MSTORE PUSH5 0x37BBB732B9 PUSH1 0xD9 SHL PUSH1 0x64 DUP3 ADD MSTORE PUSH1 0x84 SWAP1 REVERT JUMPDEST SWAP1 PUSH2 0x4C9C SWAP2 PUSH2 0x4C82 DUP5 PUSH2 0x4992 JUMP JUMPDEST PUSH1 0x1 PUSH1 0x1 PUSH1 0xA0 SHL SUB SWAP4 SWAP2 DUP5 AND SWAP3 DUP5 SWAP3 SWAP1 SWAP2 DUP4 AND DUP5 EQ PUSH2 0x4C1A JUMP JUMPDEST AND SWAP2 DUP3 ISZERO PUSH2 0x4D34 JUMPI DUP2 PUSH2 0x4CB9 SWAP2 PUSH2 0x4CB2 DUP7 PUSH2 0x4992 JUMP JUMPDEST AND EQ PUSH2 0x4C1A JUMP JUMPDEST PUSH32 0xDDF252AD1BE2C89B69C2B068FC378DAA952BA7F163C4A11628F55A4DF523B3EF PUSH1 0x0 DUP5 DUP2 MSTORE PUSH1 0x5 PUSH1 0x20 MSTORE PUSH1 0x40 DUP2 KECCAK256 PUSH1 0x1 PUSH1 0x1 PUSH1 0x60 SHL SUB PUSH1 0xA0 SHL SWAP1 DUP2 DUP2 SLOAD AND SWAP1 SSTORE DUP4 DUP3 MSTORE PUSH1 0x4 PUSH1 0x20 MSTORE PUSH1 0x40 DUP3 KECCAK256 PUSH1 0x0 NOT DUP2 SLOAD ADD SWAP1 SSTORE DUP5 DUP3 MSTORE PUSH1 0x40 DUP3 KECCAK256 PUSH1 0x1 DUP2 SLOAD ADD SWAP1 SSTORE DUP6 DUP3 MSTORE PUSH1 0x3 PUSH1 0x20 MSTORE DUP5 PUSH1 0x40 DUP4 KECCAK256 SWAP2 DUP3 SLOAD AND OR SWAP1 SSTORE DUP1 LOG4 JUMP JUMPDEST PUSH1 0x40 MLOAD PUSH3 0x461BCD PUSH1 0xE5 SHL DUP2 MSTORE PUSH1 0x20 PUSH1 0x4 DUP3 ADD MSTORE PUSH1 0x24 DUP1 DUP3 ADD MSTORE PUSH32 0x4552433732313A207472616E7366657220746F20746865207A65726F20616464 PUSH1 0x44 DUP3 ADD MSTORE PUSH4 0x72657373 PUSH1 0xE0 SHL PUSH1 0x64 DUP3 ADD MSTORE PUSH1 0x84 SWAP1 REVERT JUMPDEST RETURNDATASIZE ISZERO PUSH2 0x4DB0 JUMPI RETURNDATASIZE SWAP1 PUSH2 0x4D96 DUP3 PUSH2 0x4740 JUMP JUMPDEST SWAP2 PUSH2 0x4DA4 PUSH1 0x40 MLOAD SWAP4 DUP5 PUSH2 0x471F JUMP JUMPDEST DUP3 MSTORE RETURNDATASIZE PUSH1 0x0 PUSH1 0x20 DUP5 ADD RETURNDATACOPY JUMP JUMPDEST PUSH1 0x60 SWAP1 JUMP JUMPDEST SWAP1 SWAP2 PUSH1 0x0 SWAP2 DUP1 EXTCODESIZE ISZERO PUSH2 0x4EA0 JUMPI PUSH2 0x4E00 PUSH1 0x20 SWAP2 DUP5 SWAP4 PUSH1 0x40 MLOAD SWAP5 DUP6 DUP1 SWAP5 DUP2 SWAP4 PUSH4 0xA85BD01 PUSH1 0xE1 SHL SWAP11 DUP12 DUP5 MSTORE CALLER PUSH1 0x4 DUP6 ADD MSTORE DUP5 PUSH1 0x24 DUP6 ADD MSTORE PUSH1 0x44 DUP5 ADD MSTORE PUSH1 0x80 PUSH1 0x64 DUP5 ADD MSTORE PUSH1 0x84 DUP4 ADD SWAP1 PUSH2 0x432A JUMP JUMPDEST SUB SWAP3 PUSH1 0x1 PUSH1 0x1 PUSH1 0xA0 SHL SUB AND GAS CALL SWAP1 DUP3 SWAP1 DUP3 PUSH2 0x4E58 JUMPI JUMPDEST POP POP PUSH2 0x4E4A JUMPI PUSH2 0x4E24 PUSH2 0x4D85 JUMP JUMPDEST DUP1 MLOAD SWAP1 DUP2 PUSH2 0x4E45 JUMPI PUSH1 0x40 MLOAD PUSH3 0x461BCD PUSH1 0xE5 SHL DUP2 MSTORE DUP1 PUSH2 0x4BA8 PUSH1 0x4 DUP3 ADD PUSH2 0x4B35 JUMP JUMPDEST PUSH1 0x20 ADD REVERT JUMPDEST PUSH1 0x1 PUSH1 0x1 PUSH1 0xE0 SHL SUB NOT AND EQ SWAP1 JUMP JUMPDEST SWAP1 SWAP2 SWAP3 POP PUSH1 0x20 DUP2 RETURNDATASIZE DUP3 GT PUSH2 0x4E98 JUMPI JUMPDEST DUP2 PUSH2 0x4E74 PUSH1 0x20 SWAP4 DUP4 PUSH2 0x471F JUMP JUMPDEST DUP2 ADD SUB SLT PUSH2 0x4326 JUMPI MLOAD SWAP1 PUSH1 0x1 PUSH1 0x1 PUSH1 0xE0 SHL SUB NOT DUP3 AND DUP3 SUB PUSH2 0x4DE JUMPI POP SWAP1 CODESIZE DUP1 PUSH2 0x4E16 JUMP JUMPDEST RETURNDATASIZE SWAP2 POP PUSH2 0x4E67 JUMP JUMPDEST POP POP POP POP PUSH1 0x1 SWAP1 JUMP JUMPDEST SWAP2 SWAP3 PUSH1 0x0 SWAP3 SWAP2 SWAP1 DUP2 EXTCODESIZE ISZERO PUSH2 0x4F1A JUMPI PUSH1 0x20 SWAP2 PUSH2 0x4EFF SWAP2 DUP6 PUSH1 0x40 MLOAD SWAP6 DUP7 DUP1 SWAP6 DUP2 SWAP5 PUSH4 0xA85BD01 PUSH1 0xE1 SHL SWAP12 DUP13 DUP5 MSTORE CALLER PUSH1 0x4 DUP6 ADD MSTORE PUSH1 0x1 DUP1 PUSH1 0xA0 SHL SUB DUP1 SWAP6 AND PUSH1 0x24 DUP6 ADD MSTORE PUSH1 0x44 DUP5 ADD MSTORE PUSH1 0x80 PUSH1 0x64 DUP5 ADD MSTORE PUSH1 0x84 DUP4 ADD SWAP1 PUSH2 0x432A JUMP JUMPDEST SUB SWAP4 AND GAS CALL SWAP1 DUP3 SWAP1 DUP3 PUSH2 0x4E58 JUMPI POP POP PUSH2 0x4E4A JUMPI PUSH2 0x4E24 PUSH2 0x4D85 JUMP JUMPDEST POP POP POP POP POP PUSH1 0x1 SWAP1 JUMP JUMPDEST ISZERO PUSH2 0x4F2B JUMPI JUMP JUMPDEST PUSH1 0x40 MLOAD PUSH3 0x461BCD PUSH1 0xE5 SHL DUP2 MSTORE PUSH1 0x20 PUSH1 0x4 DUP3 ADD MSTORE PUSH1 0x1B PUSH1 0x24 DUP3 ADD MSTORE PUSH32 0x4F6E6C79206E617469766520746F6B656E20737570706F727465640000000000 PUSH1 0x44 DUP3 ADD MSTORE PUSH1 0x64 SWAP1 REVERT JUMPDEST CALLDATALOAD PUSH1 0x1 PUSH1 0x1 PUSH1 0xA0 SHL SUB DUP2 AND DUP2 SUB PUSH2 0x4380 JUMPI SWAP1 JUMP JUMPDEST SWAP1 CALLDATALOAD SWAP1 PUSH1 0x1E NOT DUP2 CALLDATASIZE SUB ADD DUP3 SLT ISZERO PUSH2 0x4380 JUMPI ADD DUP1 CALLDATALOAD SWAP1 PUSH1 0x1 PUSH1 0x1 PUSH1 0x40 SHL SUB DUP3 GT PUSH2 0x4380 JUMPI PUSH1 0x20 ADD SWAP2 DUP2 PUSH1 0x5 SHL CALLDATASIZE SUB DUP4 SGT PUSH2 0x4380 JUMPI JUMP JUMPDEST SWAP1 CALLDATALOAD SWAP1 PUSH1 0x1E NOT DUP2 CALLDATASIZE SUB ADD DUP3 SLT ISZERO PUSH2 0x4380 JUMPI ADD DUP1 CALLDATALOAD SWAP1 PUSH1 0x1 PUSH1 0x1 PUSH1 0x40 SHL SUB DUP3 GT PUSH2 0x4380 JUMPI PUSH1 0x20 ADD SWAP2 DUP2 CALLDATASIZE SUB DUP4 SGT PUSH2 0x4380 JUMPI JUMP JUMPDEST PUSH1 0x3 DUP3 LT ISZERO PUSH2 0x4611 JUMPI MSTORE JUMP JUMPDEST PUSH1 0x2 DUP3 LT ISZERO PUSH2 0x4611 JUMPI MSTORE JUMP JUMPDEST PUSH1 0x4 DUP3 LT ISZERO PUSH2 0x4611 JUMPI MSTORE JUMP JUMPDEST DUP2 DUP2 LT PUSH2 0x501A JUMPI POP POP JUMP JUMPDEST PUSH1 0x0 DUP2 SSTORE PUSH1 0x1 ADD PUSH2 0x500F JUMP JUMPDEST ISZERO PUSH2 0x502D JUMPI JUMP JUMPDEST PUSH1 0x40 MLOAD PUSH3 0x461BCD PUSH1 0xE5 SHL DUP2 MSTORE PUSH1 0x20 PUSH1 0x4 DUP3 ADD MSTORE PUSH1 0x1C PUSH1 0x24 DUP3 ADD MSTORE PUSH32 0x4552433732313A20746F6B656E20616C7265616479206D696E74656400000000 PUSH1 0x44 DUP3 ADD MSTORE PUSH1 0x64 SWAP1 REVERT JUMPDEST PUSH1 0x40 MLOAD SWAP1 PUSH2 0x507F DUP3 PUSH2 0x46BA JUMP JUMPDEST DUP2 PUSH2 0x2C0 PUSH1 0x0 SWAP2 DUP3 DUP2 MSTORE DUP3 PUSH1 0x20 DUP3 ADD MSTORE PUSH1 0x60 DUP1 PUSH1 0x40 DUP4 ADD MSTORE DUP1 DUP1 DUP4 ADD MSTORE DUP1 PUSH1 0x80 DUP4 ADD MSTORE DUP1 PUSH1 0xA0 DUP4 ADD MSTORE DUP1 PUSH1 0xC0 DUP4 ADD MSTORE DUP4 PUSH1 0xE0 DUP4 ADD MSTORE DUP1 PUSH2 0x100 DUP4 ADD MSTORE DUP4 PUSH2 0x120 DUP4 ADD MSTORE DUP1 PUSH2 0x140 DUP4 ADD MSTORE DUP4 PUSH2 0x160 DUP4 ADD MSTORE DUP4 PUSH2 0x180 DUP4 ADD MSTORE DUP4 PUSH2 0x1A0 DUP4 ADD MSTORE DUP4 PUSH2 0x1C0 DUP4 ADD MSTORE DUP1 PUSH2 0x1E0 DUP4 ADD MSTORE DUP1 PUSH2 0x200 DUP4 ADD MSTORE PUSH1 0x40 MLOAD SWAP1 PUSH2 0x5100 DUP3 PUSH2 0x46E9 JUMP JUMPDEST DUP5 DUP3 MSTORE DUP1 PUSH1 0x20 DUP4 ADD MSTORE DUP1 PUSH1 0x40 DUP4 ADD MSTORE DUP5 DUP2 DUP4 ADD MSTORE PUSH1 0x80 DUP3 ADD MSTORE PUSH2 0x220 DUP3 ADD MSTORE DUP3 PUSH2 0x240 DUP3 ADD MSTORE DUP3 PUSH2 0x260 DUP3 ADD MSTORE DUP3 PUSH2 0x280 DUP3 ADD MSTORE DUP3 PUSH2 0x2A0 DUP3 ADD MSTORE ADD MSTORE JUMP JUMPDEST ISZERO PUSH2 0x5146 JUMPI JUMP JUMPDEST PUSH1 0x40 MLOAD PUSH3 0x461BCD PUSH1 0xE5 SHL DUP2 MSTORE PUSH1 0x20 PUSH1 0x4 DUP3 ADD MSTORE PUSH1 0x12 PUSH1 0x24 DUP3 ADD MSTORE PUSH18 0x10D85C88191BD95CC81B9BDD08195E1A5CDD PUSH1 0x72 SHL PUSH1 0x44 DUP3 ADD MSTORE PUSH1 0x64 SWAP1 REVERT JUMPDEST ISZERO PUSH2 0x5187 JUMPI JUMP JUMPDEST PUSH1 0x40 MLOAD PUSH3 0x461BCD PUSH1 0xE5 SHL DUP2 MSTORE PUSH1 0x20 PUSH1 0x4 DUP3 ADD MSTORE PUSH1 0x14 PUSH1 0x24 DUP3 ADD MSTORE PUSH20 0x10D85C881A185CC81899595B8819195B195D1959 PUSH1 0x62 SHL PUSH1 0x44 DUP3 ADD MSTORE PUSH1 0x64 SWAP1 REVERT JUMPDEST SWAP1 DUP2 SLOAD PUSH2 0x51CF DUP2 PUSH2 0x47B0 JUMP JUMPDEST SWAP3 PUSH2 0x51DD PUSH1 0x40 MLOAD SWAP5 DUP6 PUSH2 0x471F JUMP JUMPDEST DUP2 DUP5 MSTORE PUSH1 0x0 SWAP1 DUP2 MSTORE PUSH1 0x20 DUP1 DUP3 KECCAK256 DUP2 DUP7 ADD JUMPDEST DUP5 DUP5 LT PUSH2 0x51FC JUMPI POP POP POP POP POP JUMP JUMPDEST PUSH1 0x1 DUP4 DUP2 SWAP3 PUSH2 0x520A DUP6 PUSH2 0x49EF JUMP JUMPDEST DUP2 MSTORE ADD SWAP3 ADD SWAP4 ADD SWAP3 SWAP1 PUSH2 0x51EE JUMP JUMPDEST SWAP1 PUSH1 0x40 MLOAD PUSH2 0x5225 DUP2 PUSH2 0x46BA JUMP JUMPDEST PUSH2 0x2C0 PUSH1 0x17 DUP3 SWAP5 DUP1 SLOAD DUP5 MSTORE PUSH1 0x1 DUP1 PUSH1 0xA0 SHL SUB DUP1 PUSH1 0x1 DUP4 ADD SLOAD AND PUSH1 0x20 DUP7 ADD MSTORE PUSH2 0x524F PUSH1 0x2 DUP4 ADD PUSH2 0x49EF JUMP JUMPDEST PUSH1 0x40 DUP7 ADD MSTORE PUSH2 0x5260 PUSH1 0x3 DUP4 ADD PUSH2 0x51C3 JUMP JUMPDEST PUSH1 0x60 DUP7 ADD MSTORE PUSH2 0x5271 PUSH1 0x4 DUP4 ADD PUSH2 0x49EF JUMP JUMPDEST PUSH1 0x80 DUP7 ADD MSTORE PUSH2 0x5282 PUSH1 0x5 DUP4 ADD PUSH2 0x49EF JUMP JUMPDEST PUSH1 0xA0 DUP7 ADD MSTORE PUSH2 0x5293 PUSH1 0x6 DUP4 ADD PUSH2 0x49EF JUMP JUMPDEST PUSH1 0xC0 DUP7 ADD MSTORE PUSH1 0x7 DUP3 ADD SLOAD PUSH1 0xE0 DUP7 ADD MSTORE PUSH2 0x52AE PUSH1 0x8 DUP4 ADD PUSH2 0x49EF JUMP JUMPDEST PUSH2 0x100 DUP7 ADD MSTORE PUSH1 0x9 DUP3 ADD SLOAD PUSH2 0x120 DUP7 ADD MSTORE PUSH2 0x52CB PUSH1 0xA DUP4 ADD PUSH2 0x49EF JUMP JUMPDEST PUSH2 0x140 DUP7 ADD MSTORE PUSH2 0x530C PUSH1 0xFF PUSH1 0xB DUP5 ADD SLOAD PUSH2 0x52EB DUP3 DUP3 AND PUSH2 0x160 DUP11 ADD PUSH2 0x4FEB JUMP JUMPDEST PUSH2 0x52FE DUP3 DUP3 PUSH1 0x8 SHR AND PUSH2 0x180 DUP11 ADD PUSH2 0x4FF7 JUMP JUMPDEST PUSH1 0x10 SHR AND PUSH2 0x1A0 DUP8 ADD PUSH2 0x5003 JUMP JUMPDEST PUSH1 0xC DUP3 ADD SLOAD PUSH2 0x1C0 DUP7 ADD MSTORE PUSH2 0x5323 PUSH1 0xD DUP4 ADD PUSH2 0x49EF JUMP JUMPDEST PUSH2 0x1E0 DUP7 ADD MSTORE PUSH2 0x5335 PUSH1 0xE DUP4 ADD PUSH2 0x51C3 JUMP JUMPDEST PUSH2 0x200 DUP7 ADD MSTORE PUSH1 0x40 MLOAD PUSH2 0x5347 DUP2 PUSH2 0x46E9 JUMP JUMPDEST DUP2 PUSH1 0xF DUP5 ADD SLOAD AND DUP2 MSTORE PUSH2 0x535C PUSH1 0x10 DUP5 ADD PUSH2 0x49EF JUMP JUMPDEST PUSH1 0x20 DUP3 ADD MSTORE PUSH2 0x536D PUSH1 0x11 DUP5 ADD PUSH2 0x49EF JUMP JUMPDEST PUSH1 0x40 DUP3 ADD MSTORE PUSH1 0x12 DUP4 ADD SLOAD PUSH1 0x60 DUP3 ADD MSTORE PUSH2 0x5388 PUSH1 0x13 DUP5 ADD PUSH2 0x49EF JUMP JUMPDEST PUSH1 0x80 DUP3 ADD MSTORE PUSH2 0x220 DUP7 ADD MSTORE PUSH1 0xFF PUSH1 0x14 DUP4 ADD SLOAD DUP2 DUP2 AND ISZERO ISZERO PUSH2 0x240 DUP9 ADD MSTORE PUSH1 0x8 SHR AND ISZERO ISZERO PUSH2 0x260 DUP7 ADD MSTORE PUSH1 0x15 DUP3 ADD SLOAD PUSH2 0x280 DUP7 ADD MSTORE PUSH1 0x16 DUP3 ADD SLOAD AND PUSH2 0x2A0 DUP6 ADD MSTORE ADD SLOAD SWAP2 ADD MSTORE JUMP JUMPDEST PUSH1 0x0 NOT DUP2 EQ PUSH2 0x53DE JUMPI PUSH1 0x1 ADD SWAP1 JUMP JUMPDEST PUSH4 0x4E487B71 PUSH1 0xE0 SHL PUSH1 0x0 MSTORE PUSH1 0x11 PUSH1 0x4 MSTORE PUSH1 0x24 PUSH1 0x0 REVERT JUMPDEST SWAP1 PUSH2 0x53FE DUP3 PUSH2 0x47B0 JUMP JUMPDEST PUSH2 0x540B PUSH1 0x40 MLOAD SWAP2 DUP3 PUSH2 0x471F JUMP JUMPDEST DUP3 DUP2 MSTORE DUP1 SWAP3 PUSH2 0x541C PUSH1 0x1F NOT SWAP2 PUSH2 0x47B0 JUMP JUMPDEST ADD SWAP1 PUSH1 0x0 JUMPDEST DUP3 DUP2 LT PUSH2 0x542D JUMPI POP POP POP JUMP JUMPDEST PUSH1 0x20 SWAP1 PUSH2 0x5438 PUSH2 0x5072 JUMP JUMPDEST DUP3 DUP3 DUP6 ADD ADD MSTORE ADD PUSH2 0x5421 JUMP JUMPDEST DUP1 MLOAD DUP3 LT ISZERO PUSH2 0x5458 JUMPI PUSH1 0x20 SWAP2 PUSH1 0x5 SHL ADD ADD SWAP1 JUMP JUMPDEST PUSH4 0x4E487B71 PUSH1 0xE0 SHL PUSH1 0x0 MSTORE PUSH1 0x32 PUSH1 0x4 MSTORE PUSH1 0x24 PUSH1 0x0 REVERT JUMPDEST DUP1 SLOAD DUP3 LT ISZERO PUSH2 0x5458 JUMPI PUSH1 0x0 MSTORE PUSH1 0x20 PUSH1 0x0 KECCAK256 SWAP1 PUSH1 0x2 SHL ADD SWAP1 PUSH1 0x0 SWAP1 JUMP INVALID LOG2 PUSH5 0x6970667358 0x22 SLT KECCAK256 ORIGIN 0xBA NOT 0xEF 0x1E EXTCODEHASH 0xBF 0xB1 0xC6 0x4F DUP16 0xB8 0x2D CODECOPY PC PUSH7 0xADE94968E6B3BB 0xB3 DUP15 PUSH32 0x24424B0A8D0E64736F6C63430008130033000000000000000000000000000000 "},"methodIdentifiers":{"approve(address,uint256)":"095ea7b3","balanceOf(address)":"70a08231","buyCar(uint256,uint256,uint256)":"e13db45a","crossChainHandler()":"d03703f5","deleteCar(uint256)":"60098088","getAllCars()":"abfe5d57","getAllSales()":"33396917","getApproved(uint256)":"081812fc","getCar(uint256)":"5e8be190","getMyCars()":"341fa05d","isApprovedForAll(address,address)":"e985e9c5","listCar((string,string[],string,string,string,uint256,string),(uint256,string,uint8,uint8,uint8,uint256),(string,string,string[]),(address,string,string,uint256,string),uint256,address)":"6c3f3871","name()":"06fdde03","owner()":"8da5cb5b","ownerOf(uint256)":"6352211e","renounceOwnership()":"715018a6","safeTransferFrom(address,address,uint256)":"42842e0e","safeTransferFrom(address,address,uint256,bytes)":"b88d4fde","setApprovalForAll(address,bool)":"a22cb465","setCrossChainHandler(address)":"96cc304f","supportsInterface(bytes4)":"01ffc9a7","symbol()":"95d89b41","tokenURI(uint256)":"c87b56dd","transferFrom(address,address,uint256)":"23b872dd","transferOwnership(address)":"f2fde38b","updateCar(uint256,(string,string[],string,string,string,uint256,string),(uint256,string,uint8,uint8,uint8,uint256),(string,string,string[]),(address,string,string,uint256,string))":"8d9d710a"}}}}}