{"contracts/HemDealerCrossChain.sol":{"HemDealerCrossChain":{"abi":[{"inputs":[{"internalType":"address","name":"_hemDealer","type":"address"},{"internalType":"address","name":"_spokePool","type":"address"},{"internalType":"address","name":"_acrossRouter","type":"address"}],"stateMutability":"nonpayable","type":"constructor"},{"anonymous":false,"inputs":[{"indexed":true,"internalType":"uint256","name":"carId","type":"uint256"},{"indexed":false,"internalType":"uint256","name":"destinationChainId","type":"uint256"},{"indexed":true,"internalType":"address","name":"newOwner","type":"address"}],"name":"CrossChainTransferCompleted","type":"event"},{"anonymous":false,"inputs":[{"indexed":true,"internalType":"uint256","name":"carId","type":"uint256"},{"indexed":false,"internalType":"uint256","name":"sourceChainId","type":"uint256"},{"indexed":false,"internalType":"uint256","name":"destinationChainId","type":"uint256"},{"indexed":true,"internalType":"address","name":"seller","type":"address"},{"indexed":true,"internalType":"address","name":"buyer","type":"address"}],"name":"CrossChainTransferInitiated","type":"event"},{"anonymous":false,"inputs":[{"indexed":true,"internalType":"address","name":"previousOwner","type":"address"},{"indexed":true,"internalType":"address","name":"newOwner","type":"address"}],"name":"OwnershipTransferred","type":"event"},{"anonymous":false,"inputs":[{"indexed":true,"internalType":"uint256","name":"carId","type":"uint256"},{"indexed":true,"internalType":"address","name":"owner","type":"address"}],"name":"TransferCancelled","type":"event"},{"inputs":[],"name":"MAX_SLIPPAGE","outputs":[{"internalType":"uint256","name":"","type":"uint256"}],"stateMutability":"view","type":"function"},{"inputs":[],"name":"TRANSFER_TIMEOUT","outputs":[{"internalType":"uint256","name":"","type":"uint256"}],"stateMutability":"view","type":"function"},{"inputs":[],"name":"acrossRouter","outputs":[{"internalType":"address","name":"","type":"address"}],"stateMutability":"view","type":"function"},{"inputs":[{"internalType":"uint256","name":"amount","type":"uint256"},{"internalType":"address","name":"recipient","type":"address"},{"internalType":"uint256","name":"destinationChainId","type":"uint256"},{"internalType":"uint256","name":"relayerFeePct","type":"uint256"},{"internalType":"uint256","name":"quoteTimestamp","type":"uint256"}],"name":"bridgePayment","outputs":[],"stateMutability":"payable","type":"function"},{"inputs":[{"internalType":"uint256","name":"carId","type":"uint256"}],"name":"cancelTimedOutTransfer","outputs":[],"stateMutability":"nonpayable","type":"function"},{"inputs":[{"internalType":"uint256","name":"","type":"uint256"}],"name":"crossChainTransferPending","outputs":[{"internalType":"bool","name":"","type":"bool"}],"stateMutability":"view","type":"function"},{"inputs":[],"name":"hemDealer","outputs":[{"internalType":"contract HemDealer","name":"","type":"address"}],"stateMutability":"view","type":"function"},{"inputs":[{"internalType":"uint256","name":"carId","type":"uint256"},{"internalType":"uint256","name":"targetChainId","type":"uint256"},{"internalType":"uint256","name":"relayerFeePct","type":"uint256"},{"internalType":"uint256","name":"quoteTimestamp","type":"uint256"}],"name":"initiateCrossChainTransfer","outputs":[],"stateMutability":"payable","type":"function"},{"inputs":[{"internalType":"address","name":"token","type":"address"}],"name":"isSupportedToken","outputs":[{"internalType":"bool","name":"","type":"bool"}],"stateMutability":"pure","type":"function"},{"inputs":[{"internalType":"uint256","name":"carId","type":"uint256"}],"name":"isTransferTimedOut","outputs":[{"internalType":"bool","name":"","type":"bool"}],"stateMutability":"view","type":"function"},{"inputs":[],"name":"owner","outputs":[{"internalType":"address","name":"","type":"address"}],"stateMutability":"view","type":"function"},{"inputs":[{"internalType":"bytes32","name":"","type":"bytes32"}],"name":"processedMessages","outputs":[{"internalType":"bool","name":"","type":"bool"}],"stateMutability":"view","type":"function"},{"inputs":[{"internalType":"bytes","name":"message","type":"bytes"},{"internalType":"uint256","name":"sourceChainId","type":"uint256"}],"name":"receiveCrossChainTransfer","outputs":[],"stateMutability":"nonpayable","type":"function"},{"inputs":[],"name":"renounceOwnership","outputs":[],"stateMutability":"nonpayable","type":"function"},{"inputs":[{"internalType":"uint256","name":"","type":"uint256"}],"name":"sourceChainIds","outputs":[{"internalType":"uint256","name":"","type":"uint256"}],"stateMutability":"view","type":"function"},{"inputs":[],"name":"spokePool","outputs":[{"internalType":"contract ISpokePool","name":"","type":"address"}],"stateMutability":"view","type":"function"},{"inputs":[{"internalType":"bytes32","name":"","type":"bytes32"}],"name":"transferHashes","outputs":[{"internalType":"uint256","name":"","type":"uint256"}],"stateMutability":"view","type":"function"},{"inputs":[{"internalType":"uint256","name":"","type":"uint256"}],"name":"transferInitiatedAt","outputs":[{"internalType":"uint256","name":"","type":"uint256"}],"stateMutability":"view","type":"function"},{"inputs":[{"internalType":"address","name":"newOwner","type":"address"}],"name":"transferOwnership","outputs":[],"stateMutability":"nonpayable","type":"function"},{"inputs":[{"internalType":"uint256","name":"amount","type":"uint256"},{"internalType":"uint256","name":"relayerFeePct","type":"uint256"},{"internalType":"uint256","name":"quoteTimestamp","type":"uint256"}],"name":"validateQuote","outputs":[{"internalType":"bool","name":"","type":"bool"}],"stateMutability":"view","type":"function"},{"stateMutability":"payable","type":"receive"}],"evm":{"bytecode":{"linkReferences":{},"object":"60a0346200018657601f6200197938819003918201601f19168301916001600160401b038311848410176200018b5780849260609460405283398101031262000186576200004d81620001a1565b906200006a60406200006260208401620001a1565b9201620001a1565b906000549260018060a01b03199233848616176000556040519460018060a01b03938491823391167f8be0079c531659141344cd1fd0a4f28419497f9722a3daafe3b4186f6b6457e0600080a3600180551694851562000150575082169384156200010b576080521681600254161760025560035416176003556040516117c29081620001b782396080518181816103120152818161052d01526108750152f35b60405162461bcd60e51b815260206004820152601560248201527f496e76616c6964204163726f737320526f7574657200000000000000000000006044820152606490fd5b62461bcd60e51b8152602060048201526011602482015270125b9d985b1a590814dc1bdad9541bdbdb607a1b6044820152606490fd5b600080fd5b634e487b7160e01b600052604160045260246000fd5b51906001600160a01b0382168203620001865756fe6080604052600436101561001b575b361561001957600080fd5b005b6000803560e01c80632351d10f14610b5a578063240028e814610b2c5780634f8359f114610b035780634ffb6db614610ac757806370f4e7f214610a08578063715018a6146109ae578063757d6d9b1461083557806378df8f7d1461080c57806384dfc55d146107dd57806387065deb146107bf57806388ba16ab146107905780638da5cb5b146107695780639efeff1c1461073f5780639f725a1d1461055c578063afdac3d614610517578063b54a18d614610240578063ceb6c12f14610216578063ef821fe8146101ec578063f2fde38b146101215763f975951814610103575061000e565b3461011e578060031936011261011e57602060405160328152f35b80fd5b503461011e57602036600319011261011e5761013b611265565b61014361127b565b6001600160a01b0390811690811561019857600054826bffffffffffffffffffffffff60a01b821617600055167f8be0079c531659141344cd1fd0a4f28419497f9722a3daafe3b4186f6b6457e0600080a380f35b60405162461bcd60e51b815260206004820152602660248201527f4f776e61626c653a206e6577206f776e657220697320746865207a65726f206160448201526564647265737360d01b6064820152608490fd5b503461011e57602036600319011261011e5760406020916004358152600883522054604051908152f35b503461011e57602036600319011261011e5760406020916004358152600683522054604051908152f35b50608036600319011261011e57600435602480359180845260206004815260ff6040862054166104d457468414610491576002546040516305e8be1960e41b8152600481018490526001600160a01b039291879082908790829087165afa908115610486578791610464575b5081810190838251163303610430578790848351169661030f6102206101c08401519301986103018a516040519586938c8b8601526040850152466060850152608084015260a08084015260c08301906116d5565b03601f198101845283611229565b857f00000000000000000000000000000000000000000000000000000000000000001690813b1561042c57839163ffffffff8b6103916040519687958694859463cf79953b60e01b86521660048501523090840152866044840152346064840152604435608484015260643560a484015260e060c484015260e48301906116b0565b039134905af1801561042157610405575b50928060409392867f1e5ef349341852f5f199e2bce07397e4d55c83226632236095641c8af9af549f965260048452848a20600160ff198254161790556008845242858b20556005845246858b205551169551511695825191468352820152a480f35b61041190939293611200565b61041d579086386103a2565b8680fd5b6040513d84823e3d90fd5b8380fd5b60405162461bcd60e51b815260048101849052600d818801526c2737ba1031b0b91037bbb732b960991b6044820152606490fd5b61048091503d8089833e6104788183611229565b810190611489565b386102ac565b6040513d89823e3d90fd5b606490601f846040519262461bcd60e51b845260048401528201527f53616d6520636861696e207472616e73666572206e6f7420616c6c6f776564006044820152fd5b6064906018846040519262461bcd60e51b845260048401528201527f5472616e7366657220616c72656164792070656e64696e6700000000000000006044820152fd5b503461011e578060031936011261011e576040517f00000000000000000000000000000000000000000000000000000000000000006001600160a01b03168152602090f35b503461011e5760208060031936011261073b57600435908183526004815260ff60408420541615610701578183526008815260408320546201518081018091116106ed574211156106b0576002546040516305e8be1960e41b8152600481018490526001600160a01b03929185908290602490829087165afa80156106a5578291869161068b575b500190828251163314801561067f575b1561064a57600590848652600481526040862060ff19815416905560088152856040812055528360408120555116907fad5d1da63a71147a146daa2d4c6cdc9ab57b00bd41306f855d0afe41c5ed28408380a380f35b6064906040519062461bcd60e51b82526004820152600e60248201526d139bdd08185d5d1a1bdc9a5e995960921b6044820152fd5b508285541633146105f4565b61069f91503d8088833e6104788183611229565b386105e4565b6040513d87823e3d90fd5b6064906040519062461bcd60e51b825260048201526016602482015275151c985b9cd9995c881b9bdd081d1a5b5959081bdd5d60521b6044820152fd5b634e487b7160e01b84526011600452602484fd5b6064906040519062461bcd60e51b8252600482015260136024820152722737903832b73234b733903a3930b739b332b960691b6044820152fd5b5080fd5b503461011e57602036600319011261011e5760406020916004358152600583522054604051908152f35b503461011e578060031936011261011e57546040516001600160a01b039091168152602090f35b503461011e57602036600319011261011e5760ff60406020926004358152600784522054166040519015158152f35b503461011e578060031936011261011e576020604051620151808152f35b503461011e57602036600319011261011e5760ff60406020926004358152600484522054166040519015158152f35b503461011e578060031936011261011e576002546040516001600160a01b039091168152602090f35b5060a036600319011261011e576001600160a01b03600435602435828116908190036109a95760026001541461096457600260015581340361091f5783927f00000000000000000000000000000000000000000000000000000000000000001691823b1561091a576101048492604051948593849263cf79953b60e01b845263ffffffff60443516600485015260248401528560448401526064830152606435608483015260843560a483015260e060c48301528460e483015234905af1801561042157610906575b506001805580f35b61090f90611200565b61011e5780386108fe565b505050fd5b60405162461bcd60e51b815260206004820152601860248201527f496e636f7272656374207061796d656e7420616d6f756e7400000000000000006044820152606490fd5b60405162461bcd60e51b815260206004820152601f60248201527f5265656e7472616e637947756172643a207265656e7472616e742063616c6c006044820152606490fd5b600080fd5b503461011e578060031936011261011e576109c761127b565b600080546001600160a01b0319811682556001600160a01b03167f8be0079c531659141344cd1fd0a4f28419497f9722a3daafe3b4186f6b6457e08280a380f35b503461011e57606036600319011261011e57604435420390428211610ab35761012c8211610a7e57603260243511610a4557602060405160018152f35b60405162461bcd60e51b81526020600482015260116024820152700a6d8d2e0e0c2ceca40e8dede40d0d2ced607b1b6044820152606490fd5b60405162461bcd60e51b815260206004820152600d60248201526c145d5bdd1948195e1c1a5c9959609a1b6044820152606490fd5b634e487b7160e01b81526011600452602490fd5b503461011e57602036600319011261011e5760043581526008602052604081205490620151808201809211610ab3576020826040519042118152f35b503461011e578060031936011261011e576003546040516001600160a01b039091168152602090f35b503461011e57602036600319011261011e5760206001600160a01b03610b50611265565b1615604051908152f35b503461011e57604036600319011261011e576004356001600160401b03811161073b573660238201121561073b5780600401359082610b988361124a565b91610ba66040519384611229565b838352602083019336602482840101116111fc57806024602093018637830101526003546001600160a01b0316338190036111c057815182019260408360208601950312611106575190604083019384516001600160401b03811161041d5784019181603f8401121561041d57610c29602092846040856024970151910161130a565b50604051928380926324f6578760e21b82528660048301525afa9081156106a5578591611186575b501561114f57808452600760205260ff60408520541661110a578352600760205260408320805460ff19166001179055805181019160c08284031261042c57516060820151929091906001600160a01b03841684036111065760a08201519160c0810151916001600160401b03831161041d57610cd59260208092019201016113e1565b6002546040516305e8be1960e41b815260048101859052926001600160a01b03909116918684602481865afa9384156104865787946110ea575b506040840151936060810151608082015160a083015160c08401519060e085015192610100860151946040519a8b6001600160401b0360e08281810110920111176110d65760e08c016040528b5260208b015260408a01526060890152608088015260a087015260c08601526101208101519261014082015161016083015160038110156110c25761018084015190600282101561106e576101a08501519260048410156110ae57604051978860c08101106001600160401b0360c08b01111761109a5760c089016040528852602088015260408701526060860152608085015260a08401526101e081015190610200810151604051928360608101106001600160401b03606086011117611086576060840160405283526040518060208101106001600160401b0360208301111761108657602081016040528a8152602084015260408301526102a060018060a01b039101511692843b1561108257610f2160405196636c3f387160e01b885260c060048901528760c0610f03610eee610ed9610ec2610eaa875160e060c48901526101a48801906116b0565b602088015160c3199760e48982850301910152611730565b8d60408801519061010488828503019101526116b0565b60608601518d820386016101248f01526116b0565b60808501518c820385016101448e01526116b0565b9260a08101516101648c0152015190898303016101848a01526116b0565b60031987820301602488015281518152610f4a602083015160c0602084015260c08301906116b0565b916040810151600381101561106e5760408301526060810151600281101561106e5760608301526080810151600481101561106e578b9795610fe78a9893968a968660a0808d9b610ff99860808e9c015201519101526003198782030160448801526040610fd6610fc484516060855260608501906116b0565b602085015184820360208601526116b0565b920151906040818403910152611730565b848103600319016064860152906116d5565b9046608484015260a483015203925af1801561106357611050575b506040514681526001600160a01b03909216917f17a35fad4f245f65a33dfc21a8118014a34e233321c287ab88ff612f9e1147f890602090a380f35b61105c90939193611200565b9138611014565b6040513d86823e3d90fd5b634e487b7160e01b8c52602160045260248cfd5b8880fd5b634e487b7160e01b8b52604160045260248bfd5b634e487b7160e01b8e52604160045260248efd5b634e487b7160e01b8d52602160045260248dfd5b634e487b7160e01b8b52602160045260248bfd5b634e487b7160e01b8f52604160045260248ffd5b6110ff9194503d8089833e6104788183611229565b9238610d0f565b8480fd5b60405162461bcd60e51b815260206004820152601960248201527f4d65737361676520616c72656164792070726f636573736564000000000000006044820152606490fd5b60405162461bcd60e51b815260206004820152600f60248201526e496e76616c6964206d65737361676560881b6044820152606490fd5b90506020813d6020116111b8575b816111a160209383611229565b81010312611106576111b29061147c565b38610c51565b3d9150611194565b60405162461bcd60e51b815260206004820152601460248201527313db9b1e481c9bdd5d195c8818d85b8818d85b1b60621b6044820152606490fd5b8280fd5b6001600160401b03811161121357604052565b634e487b7160e01b600052604160045260246000fd5b90601f801991011681019081106001600160401b0382111761121357604052565b6001600160401b03811161121357601f01601f191660200190565b600435906001600160a01b03821682036109a957565b6000546001600160a01b0316330361128f57565b606460405162461bcd60e51b815260206004820152602060248201527f4f776e61626c653a2063616c6c6572206973206e6f7420746865206f776e65726044820152fd5b51906001600160a01b03821682036109a957565b60005b8381106112fa5750506000910152565b81810151838201526020016112ea565b909291926113178161124a565b916113256040519384611229565b8294828452828201116109a957602061133f9301906112e7565b565b9080601f830112156109a957815161135b9260200161130a565b90565b9080601f830112156109a9578151906001600160401b0392838311611213578260051b6040519460209461139486840188611229565b86528480870192840101938085116109a957858401925b8584106113bc575050505050505090565b83518381116109a95787916113d6848480948a0101611341565b8152019301926113ab565b91909160a0818403126109a957604051906001600160401b039060a0830182811184821017611213576040528294611418826112d3565b845260208201518381116109a95781611432918401611341565b602085015260408201518381116109a9578161144f918401611341565b60408501526060820151606085015260808201519283116109a9576080926114779201611341565b910152565b519081151582036109a957565b906020828203126109a95781516001600160401b03928382116109a95701906102e09283838303126109a9576040519384018481108282111761121357604052825184526114d9602084016112d3565b602085015260408301518181116109a957826114f6918501611341565b604085015260608301518181116109a9578261151391850161135e565b606085015260808301518181116109a95782611530918501611341565b608085015260a08301518181116109a9578261154d918501611341565b60a085015260c08301518181116109a9578261156a918501611341565b60c085015260e083015160e0850152610100808401518281116109a95783611593918601611341565b908501526101208084015190850152610140808401518281116109a957836115bc918601611341565b90850152610160808401519060038210156109a957850152610180808401519060028210156109a9578501526101a0808401519060048210156109a9578501526101c080840151908501526101e0808401518281116109a95783611621918601611341565b90850152610200808401518281116109a9578361163f91860161135e565b9085015261022091828401519182116109a95761165d9184016113e1565b9083015261024061166f81830161147c565b9083015261026061168181830161147c565b9083015261028080820151908301526102a061169e8183016112d3565b908301526102c0809101519082015290565b906020916116c9815180928185528580860191016112e7565b601f01601f1916010190565b61135b9160018060a01b0382511681526080611715611703602085015160a0602086015260a08501906116b0565b604085015184820360408601526116b0565b926060810151606084015201519060808184039101526116b0565b90808183519182825260208080809401958560051b01019501936000915b84831061175e5750505050505090565b909192939495848061177c600193601f198682030187528a516116b0565b980193019301919493929061174e56fea264697066735822122097748712984127c1b1500035a1e7e5e6efc2e9a52cbd0f4e1d33c1048237e05a64736f6c63430008130033","opcodes":"PUSH1 0xA0 CALLVALUE PUSH3 0x186 JUMPI PUSH1 0x1F PUSH3 0x1979 CODESIZE DUP2 SWAP1 SUB SWAP2 DUP3 ADD PUSH1 0x1F NOT AND DUP4 ADD SWAP2 PUSH1 0x1 PUSH1 0x1 PUSH1 0x40 SHL SUB DUP4 GT DUP5 DUP5 LT OR PUSH3 0x18B JUMPI DUP1 DUP5 SWAP3 PUSH1 0x60 SWAP5 PUSH1 0x40 MSTORE DUP4 CODECOPY DUP2 ADD SUB SLT PUSH3 0x186 JUMPI PUSH3 0x4D DUP2 PUSH3 0x1A1 JUMP JUMPDEST SWAP1 PUSH3 0x6A PUSH1 0x40 PUSH3 0x62 PUSH1 0x20 DUP5 ADD PUSH3 0x1A1 JUMP JUMPDEST SWAP3 ADD PUSH3 0x1A1 JUMP JUMPDEST SWAP1 PUSH1 0x0 SLOAD SWAP3 PUSH1 0x1 DUP1 PUSH1 0xA0 SHL SUB NOT SWAP3 CALLER DUP5 DUP7 AND OR PUSH1 0x0 SSTORE PUSH1 0x40 MLOAD SWAP5 PUSH1 0x1 DUP1 PUSH1 0xA0 SHL SUB SWAP4 DUP5 SWAP2 DUP3 CALLER SWAP2 AND PUSH32 0x8BE0079C531659141344CD1FD0A4F28419497F9722A3DAAFE3B4186F6B6457E0 PUSH1 0x0 DUP1 LOG3 PUSH1 0x1 DUP1 SSTORE AND SWAP5 DUP6 ISZERO PUSH3 0x150 JUMPI POP DUP3 AND SWAP4 DUP5 ISZERO PUSH3 0x10B JUMPI PUSH1 0x80 MSTORE AND DUP2 PUSH1 0x2 SLOAD AND OR PUSH1 0x2 SSTORE PUSH1 0x3 SLOAD AND OR PUSH1 0x3 SSTORE PUSH1 0x40 MLOAD PUSH2 0x17C2 SWAP1 DUP2 PUSH3 0x1B7 DUP3 CODECOPY PUSH1 0x80 MLOAD DUP2 DUP2 DUP2 PUSH2 0x312 ADD MSTORE DUP2 DUP2 PUSH2 0x52D ADD MSTORE PUSH2 0x875 ADD MSTORE RETURN JUMPDEST PUSH1 0x40 MLOAD PUSH3 0x461BCD PUSH1 0xE5 SHL DUP2 MSTORE PUSH1 0x20 PUSH1 0x4 DUP3 ADD MSTORE PUSH1 0x15 PUSH1 0x24 DUP3 ADD MSTORE PUSH32 0x496E76616C6964204163726F737320526F757465720000000000000000000000 PUSH1 0x44 DUP3 ADD MSTORE PUSH1 0x64 SWAP1 REVERT JUMPDEST PUSH3 0x461BCD PUSH1 0xE5 SHL DUP2 MSTORE PUSH1 0x20 PUSH1 0x4 DUP3 ADD MSTORE PUSH1 0x11 PUSH1 0x24 DUP3 ADD MSTORE PUSH17 0x125B9D985B1A590814DC1BDAD9541BDBDB PUSH1 0x7A SHL PUSH1 0x44 DUP3 ADD MSTORE PUSH1 0x64 SWAP1 REVERT JUMPDEST PUSH1 0x0 DUP1 REVERT JUMPDEST PUSH4 0x4E487B71 PUSH1 0xE0 SHL PUSH1 0x0 MSTORE PUSH1 0x41 PUSH1 0x4 MSTORE PUSH1 0x24 PUSH1 0x0 REVERT JUMPDEST MLOAD SWAP1 PUSH1 0x1 PUSH1 0x1 PUSH1 0xA0 SHL SUB DUP3 AND DUP3 SUB PUSH3 0x186 JUMPI JUMP INVALID PUSH1 0x80 PUSH1 0x40 MSTORE PUSH1 0x4 CALLDATASIZE LT ISZERO PUSH2 0x1B JUMPI JUMPDEST CALLDATASIZE ISZERO PUSH2 0x19 JUMPI PUSH1 0x0 DUP1 REVERT JUMPDEST STOP JUMPDEST PUSH1 0x0 DUP1 CALLDATALOAD PUSH1 0xE0 SHR DUP1 PUSH4 0x2351D10F EQ PUSH2 0xB5A JUMPI DUP1 PUSH4 0x240028E8 EQ PUSH2 0xB2C JUMPI DUP1 PUSH4 0x4F8359F1 EQ PUSH2 0xB03 JUMPI DUP1 PUSH4 0x4FFB6DB6 EQ PUSH2 0xAC7 JUMPI DUP1 PUSH4 0x70F4E7F2 EQ PUSH2 0xA08 JUMPI DUP1 PUSH4 0x715018A6 EQ PUSH2 0x9AE JUMPI DUP1 PUSH4 0x757D6D9B EQ PUSH2 0x835 JUMPI DUP1 PUSH4 0x78DF8F7D EQ PUSH2 0x80C JUMPI DUP1 PUSH4 0x84DFC55D EQ PUSH2 0x7DD JUMPI DUP1 PUSH4 0x87065DEB EQ PUSH2 0x7BF JUMPI DUP1 PUSH4 0x88BA16AB EQ PUSH2 0x790 JUMPI DUP1 PUSH4 0x8DA5CB5B EQ PUSH2 0x769 JUMPI DUP1 PUSH4 0x9EFEFF1C EQ PUSH2 0x73F JUMPI DUP1 PUSH4 0x9F725A1D EQ PUSH2 0x55C JUMPI DUP1 PUSH4 0xAFDAC3D6 EQ PUSH2 0x517 JUMPI DUP1 PUSH4 0xB54A18D6 EQ PUSH2 0x240 JUMPI DUP1 PUSH4 0xCEB6C12F EQ PUSH2 0x216 JUMPI DUP1 PUSH4 0xEF821FE8 EQ PUSH2 0x1EC JUMPI DUP1 PUSH4 0xF2FDE38B EQ PUSH2 0x121 JUMPI PUSH4 0xF9759518 EQ PUSH2 0x103 JUMPI POP PUSH2 0xE JUMP JUMPDEST CALLVALUE PUSH2 0x11E JUMPI DUP1 PUSH1 0x3 NOT CALLDATASIZE ADD SLT PUSH2 0x11E JUMPI PUSH1 0x20 PUSH1 0x40 MLOAD PUSH1 0x32 DUP2 MSTORE RETURN JUMPDEST DUP1 REVERT JUMPDEST POP CALLVALUE PUSH2 0x11E JUMPI PUSH1 0x20 CALLDATASIZE PUSH1 0x3 NOT ADD SLT PUSH2 0x11E JUMPI PUSH2 0x13B PUSH2 0x1265 JUMP JUMPDEST PUSH2 0x143 PUSH2 0x127B JUMP JUMPDEST PUSH1 0x1 PUSH1 0x1 PUSH1 0xA0 SHL SUB SWAP1 DUP2 AND SWAP1 DUP2 ISZERO PUSH2 0x198 JUMPI PUSH1 0x0 SLOAD DUP3 PUSH12 0xFFFFFFFFFFFFFFFFFFFFFFFF PUSH1 0xA0 SHL DUP3 AND OR PUSH1 0x0 SSTORE AND PUSH32 0x8BE0079C531659141344CD1FD0A4F28419497F9722A3DAAFE3B4186F6B6457E0 PUSH1 0x0 DUP1 LOG3 DUP1 RETURN JUMPDEST PUSH1 0x40 MLOAD PUSH3 0x461BCD PUSH1 0xE5 SHL DUP2 MSTORE PUSH1 0x20 PUSH1 0x4 DUP3 ADD MSTORE PUSH1 0x26 PUSH1 0x24 DUP3 ADD MSTORE PUSH32 0x4F776E61626C653A206E6577206F776E657220697320746865207A65726F2061 PUSH1 0x44 DUP3 ADD MSTORE PUSH6 0x646472657373 PUSH1 0xD0 SHL PUSH1 0x64 DUP3 ADD MSTORE PUSH1 0x84 SWAP1 REVERT JUMPDEST POP CALLVALUE PUSH2 0x11E JUMPI PUSH1 0x20 CALLDATASIZE PUSH1 0x3 NOT ADD SLT PUSH2 0x11E JUMPI PUSH1 0x40 PUSH1 0x20 SWAP2 PUSH1 0x4 CALLDATALOAD DUP2 MSTORE PUSH1 0x8 DUP4 MSTORE KECCAK256 SLOAD PUSH1 0x40 MLOAD SWAP1 DUP2 MSTORE RETURN JUMPDEST POP CALLVALUE PUSH2 0x11E JUMPI PUSH1 0x20 CALLDATASIZE PUSH1 0x3 NOT ADD SLT PUSH2 0x11E JUMPI PUSH1 0x40 PUSH1 0x20 SWAP2 PUSH1 0x4 CALLDATALOAD DUP2 MSTORE PUSH1 0x6 DUP4 MSTORE KECCAK256 SLOAD PUSH1 0x40 MLOAD SWAP1 DUP2 MSTORE RETURN JUMPDEST POP PUSH1 0x80 CALLDATASIZE PUSH1 0x3 NOT ADD SLT PUSH2 0x11E JUMPI PUSH1 0x4 CALLDATALOAD PUSH1 0x24 DUP1 CALLDATALOAD SWAP2 DUP1 DUP5 MSTORE PUSH1 0x20 PUSH1 0x4 DUP2 MSTORE PUSH1 0xFF PUSH1 0x40 DUP7 KECCAK256 SLOAD AND PUSH2 0x4D4 JUMPI CHAINID DUP5 EQ PUSH2 0x491 JUMPI PUSH1 0x2 SLOAD PUSH1 0x40 MLOAD PUSH4 0x5E8BE19 PUSH1 0xE4 SHL DUP2 MSTORE PUSH1 0x4 DUP2 ADD DUP5 SWAP1 MSTORE PUSH1 0x1 PUSH1 0x1 PUSH1 0xA0 SHL SUB SWAP3 SWAP2 DUP8 SWAP1 DUP3 SWAP1 DUP8 SWAP1 DUP3 SWAP1 DUP8 AND GAS STATICCALL SWAP1 DUP2 ISZERO PUSH2 0x486 JUMPI DUP8 SWAP2 PUSH2 0x464 JUMPI JUMPDEST POP DUP2 DUP2 ADD SWAP1 DUP4 DUP3 MLOAD AND CALLER SUB PUSH2 0x430 JUMPI DUP8 SWAP1 DUP5 DUP4 MLOAD AND SWAP7 PUSH2 0x30F PUSH2 0x220 PUSH2 0x1C0 DUP5 ADD MLOAD SWAP4 ADD SWAP9 PUSH2 0x301 DUP11 MLOAD PUSH1 0x40 MLOAD SWAP6 DUP7 SWAP4 DUP13 DUP12 DUP7 ADD MSTORE PUSH1 0x40 DUP6 ADD MSTORE CHAINID PUSH1 0x60 DUP6 ADD MSTORE PUSH1 0x80 DUP5 ADD MSTORE PUSH1 0xA0 DUP1 DUP5 ADD MSTORE PUSH1 0xC0 DUP4 ADD SWAP1 PUSH2 0x16D5 JUMP JUMPDEST SUB PUSH1 0x1F NOT DUP2 ADD DUP5 MSTORE DUP4 PUSH2 0x1229 JUMP JUMPDEST DUP6 PUSH32 0x0 AND SWAP1 DUP2 EXTCODESIZE ISZERO PUSH2 0x42C JUMPI DUP4 SWAP2 PUSH4 0xFFFFFFFF DUP12 PUSH2 0x391 PUSH1 0x40 MLOAD SWAP7 DUP8 SWAP6 DUP7 SWAP5 DUP6 SWAP5 PUSH4 0xCF79953B PUSH1 0xE0 SHL DUP7 MSTORE AND PUSH1 0x4 DUP6 ADD MSTORE ADDRESS SWAP1 DUP5 ADD MSTORE DUP7 PUSH1 0x44 DUP5 ADD MSTORE CALLVALUE PUSH1 0x64 DUP5 ADD MSTORE PUSH1 0x44 CALLDATALOAD PUSH1 0x84 DUP5 ADD MSTORE PUSH1 0x64 CALLDATALOAD PUSH1 0xA4 DUP5 ADD MSTORE PUSH1 0xE0 PUSH1 0xC4 DUP5 ADD MSTORE PUSH1 0xE4 DUP4 ADD SWAP1 PUSH2 0x16B0 JUMP JUMPDEST SUB SWAP2 CALLVALUE SWAP1 GAS CALL DUP1 ISZERO PUSH2 0x421 JUMPI PUSH2 0x405 JUMPI JUMPDEST POP SWAP3 DUP1 PUSH1 0x40 SWAP4 SWAP3 DUP7 PUSH32 0x1E5EF349341852F5F199E2BCE07397E4D55C83226632236095641C8AF9AF549F SWAP7 MSTORE PUSH1 0x4 DUP5 MSTORE DUP5 DUP11 KECCAK256 PUSH1 0x1 PUSH1 0xFF NOT DUP3 SLOAD AND OR SWAP1 SSTORE PUSH1 0x8 DUP5 MSTORE TIMESTAMP DUP6 DUP12 KECCAK256 SSTORE PUSH1 0x5 DUP5 MSTORE CHAINID DUP6 DUP12 KECCAK256 SSTORE MLOAD AND SWAP6 MLOAD MLOAD AND SWAP6 DUP3 MLOAD SWAP2 CHAINID DUP4 MSTORE DUP3 ADD MSTORE LOG4 DUP1 RETURN JUMPDEST PUSH2 0x411 SWAP1 SWAP4 SWAP3 SWAP4 PUSH2 0x1200 JUMP JUMPDEST PUSH2 0x41D JUMPI SWAP1 DUP7 CODESIZE PUSH2 0x3A2 JUMP JUMPDEST DUP7 DUP1 REVERT JUMPDEST PUSH1 0x40 MLOAD RETURNDATASIZE DUP5 DUP3 RETURNDATACOPY RETURNDATASIZE SWAP1 REVERT JUMPDEST DUP4 DUP1 REVERT JUMPDEST PUSH1 0x40 MLOAD PUSH3 0x461BCD PUSH1 0xE5 SHL DUP2 MSTORE PUSH1 0x4 DUP2 ADD DUP5 SWAP1 MSTORE PUSH1 0xD DUP2 DUP9 ADD MSTORE PUSH13 0x2737BA1031B0B91037BBB732B9 PUSH1 0x99 SHL PUSH1 0x44 DUP3 ADD MSTORE PUSH1 0x64 SWAP1 REVERT JUMPDEST PUSH2 0x480 SWAP2 POP RETURNDATASIZE DUP1 DUP10 DUP4 RETURNDATACOPY PUSH2 0x478 DUP2 DUP4 PUSH2 0x1229 JUMP JUMPDEST DUP2 ADD SWAP1 PUSH2 0x1489 JUMP JUMPDEST CODESIZE PUSH2 0x2AC JUMP JUMPDEST PUSH1 0x40 MLOAD RETURNDATASIZE DUP10 DUP3 RETURNDATACOPY RETURNDATASIZE SWAP1 REVERT JUMPDEST PUSH1 0x64 SWAP1 PUSH1 0x1F DUP5 PUSH1 0x40 MLOAD SWAP3 PUSH3 0x461BCD PUSH1 0xE5 SHL DUP5 MSTORE PUSH1 0x4 DUP5 ADD MSTORE DUP3 ADD MSTORE PUSH32 0x53616D6520636861696E207472616E73666572206E6F7420616C6C6F77656400 PUSH1 0x44 DUP3 ADD MSTORE REVERT JUMPDEST PUSH1 0x64 SWAP1 PUSH1 0x18 DUP5 PUSH1 0x40 MLOAD SWAP3 PUSH3 0x461BCD PUSH1 0xE5 SHL DUP5 MSTORE PUSH1 0x4 DUP5 ADD MSTORE DUP3 ADD MSTORE PUSH32 0x5472616E7366657220616C72656164792070656E64696E670000000000000000 PUSH1 0x44 DUP3 ADD MSTORE REVERT JUMPDEST POP CALLVALUE PUSH2 0x11E JUMPI DUP1 PUSH1 0x3 NOT CALLDATASIZE ADD SLT PUSH2 0x11E JUMPI PUSH1 0x40 MLOAD PUSH32 0x0 PUSH1 0x1 PUSH1 0x1 PUSH1 0xA0 SHL SUB AND DUP2 MSTORE PUSH1 0x20 SWAP1 RETURN JUMPDEST POP CALLVALUE PUSH2 0x11E JUMPI PUSH1 0x20 DUP1 PUSH1 0x3 NOT CALLDATASIZE ADD SLT PUSH2 0x73B JUMPI PUSH1 0x4 CALLDATALOAD SWAP1 DUP2 DUP4 MSTORE PUSH1 0x4 DUP2 MSTORE PUSH1 0xFF PUSH1 0x40 DUP5 KECCAK256 SLOAD AND ISZERO PUSH2 0x701 JUMPI DUP2 DUP4 MSTORE PUSH1 0x8 DUP2 MSTORE PUSH1 0x40 DUP4 KECCAK256 SLOAD PUSH3 0x15180 DUP2 ADD DUP1 SWAP2 GT PUSH2 0x6ED JUMPI TIMESTAMP GT ISZERO PUSH2 0x6B0 JUMPI PUSH1 0x2 SLOAD PUSH1 0x40 MLOAD PUSH4 0x5E8BE19 PUSH1 0xE4 SHL DUP2 MSTORE PUSH1 0x4 DUP2 ADD DUP5 SWAP1 MSTORE PUSH1 0x1 PUSH1 0x1 PUSH1 0xA0 SHL SUB SWAP3 SWAP2 DUP6 SWAP1 DUP3 SWAP1 PUSH1 0x24 SWAP1 DUP3 SWAP1 DUP8 AND GAS STATICCALL DUP1 ISZERO PUSH2 0x6A5 JUMPI DUP3 SWAP2 DUP7 SWAP2 PUSH2 0x68B JUMPI JUMPDEST POP ADD SWAP1 DUP3 DUP3 MLOAD AND CALLER EQ DUP1 ISZERO PUSH2 0x67F JUMPI JUMPDEST ISZERO PUSH2 0x64A JUMPI PUSH1 0x5 SWAP1 DUP5 DUP7 MSTORE PUSH1 0x4 DUP2 MSTORE PUSH1 0x40 DUP7 KECCAK256 PUSH1 0xFF NOT DUP2 SLOAD AND SWAP1 SSTORE PUSH1 0x8 DUP2 MSTORE DUP6 PUSH1 0x40 DUP2 KECCAK256 SSTORE MSTORE DUP4 PUSH1 0x40 DUP2 KECCAK256 SSTORE MLOAD AND SWAP1 PUSH32 0xAD5D1DA63A71147A146DAA2D4C6CDC9AB57B00BD41306F855D0AFE41C5ED2840 DUP4 DUP1 LOG3 DUP1 RETURN JUMPDEST PUSH1 0x64 SWAP1 PUSH1 0x40 MLOAD SWAP1 PUSH3 0x461BCD PUSH1 0xE5 SHL DUP3 MSTORE PUSH1 0x4 DUP3 ADD MSTORE PUSH1 0xE PUSH1 0x24 DUP3 ADD MSTORE PUSH14 0x139BDD08185D5D1A1BDC9A5E9959 PUSH1 0x92 SHL PUSH1 0x44 DUP3 ADD MSTORE REVERT JUMPDEST POP DUP3 DUP6 SLOAD AND CALLER EQ PUSH2 0x5F4 JUMP JUMPDEST PUSH2 0x69F SWAP2 POP RETURNDATASIZE DUP1 DUP9 DUP4 RETURNDATACOPY PUSH2 0x478 DUP2 DUP4 PUSH2 0x1229 JUMP JUMPDEST CODESIZE PUSH2 0x5E4 JUMP JUMPDEST PUSH1 0x40 MLOAD RETURNDATASIZE DUP8 DUP3 RETURNDATACOPY RETURNDATASIZE SWAP1 REVERT JUMPDEST PUSH1 0x64 SWAP1 PUSH1 0x40 MLOAD SWAP1 PUSH3 0x461BCD PUSH1 0xE5 SHL DUP3 MSTORE PUSH1 0x4 DUP3 ADD MSTORE PUSH1 0x16 PUSH1 0x24 DUP3 ADD MSTORE PUSH22 0x151C985B9CD9995C881B9BDD081D1A5B5959081BDD5D PUSH1 0x52 SHL PUSH1 0x44 DUP3 ADD MSTORE REVERT JUMPDEST PUSH4 0x4E487B71 PUSH1 0xE0 SHL DUP5 MSTORE PUSH1 0x11 PUSH1 0x4 MSTORE PUSH1 0x24 DUP5 REVERT JUMPDEST PUSH1 0x64 SWAP1 PUSH1 0x40 MLOAD SWAP1 PUSH3 0x461BCD PUSH1 0xE5 SHL DUP3 MSTORE PUSH1 0x4 DUP3 ADD MSTORE PUSH1 0x13 PUSH1 0x24 DUP3 ADD MSTORE PUSH19 0x2737903832B73234B733903A3930B739B332B9 PUSH1 0x69 SHL PUSH1 0x44 DUP3 ADD MSTORE REVERT JUMPDEST POP DUP1 REVERT JUMPDEST POP CALLVALUE PUSH2 0x11E JUMPI PUSH1 0x20 CALLDATASIZE PUSH1 0x3 NOT ADD SLT PUSH2 0x11E JUMPI PUSH1 0x40 PUSH1 0x20 SWAP2 PUSH1 0x4 CALLDATALOAD DUP2 MSTORE PUSH1 0x5 DUP4 MSTORE KECCAK256 SLOAD PUSH1 0x40 MLOAD SWAP1 DUP2 MSTORE RETURN JUMPDEST POP CALLVALUE PUSH2 0x11E JUMPI DUP1 PUSH1 0x3 NOT CALLDATASIZE ADD SLT PUSH2 0x11E JUMPI SLOAD PUSH1 0x40 MLOAD PUSH1 0x1 PUSH1 0x1 PUSH1 0xA0 SHL SUB SWAP1 SWAP2 AND DUP2 MSTORE PUSH1 0x20 SWAP1 RETURN JUMPDEST POP CALLVALUE PUSH2 0x11E JUMPI PUSH1 0x20 CALLDATASIZE PUSH1 0x3 NOT ADD SLT PUSH2 0x11E JUMPI PUSH1 0xFF PUSH1 0x40 PUSH1 0x20 SWAP3 PUSH1 0x4 CALLDATALOAD DUP2 MSTORE PUSH1 0x7 DUP5 MSTORE KECCAK256 SLOAD AND PUSH1 0x40 MLOAD SWAP1 ISZERO ISZERO DUP2 MSTORE RETURN JUMPDEST POP CALLVALUE PUSH2 0x11E JUMPI DUP1 PUSH1 0x3 NOT CALLDATASIZE ADD SLT PUSH2 0x11E JUMPI PUSH1 0x20 PUSH1 0x40 MLOAD PUSH3 0x15180 DUP2 MSTORE RETURN JUMPDEST POP CALLVALUE PUSH2 0x11E JUMPI PUSH1 0x20 CALLDATASIZE PUSH1 0x3 NOT ADD SLT PUSH2 0x11E JUMPI PUSH1 0xFF PUSH1 0x40 PUSH1 0x20 SWAP3 PUSH1 0x4 CALLDATALOAD DUP2 MSTORE PUSH1 0x4 DUP5 MSTORE KECCAK256 SLOAD AND PUSH1 0x40 MLOAD SWAP1 ISZERO ISZERO DUP2 MSTORE RETURN JUMPDEST POP CALLVALUE PUSH2 0x11E JUMPI DUP1 PUSH1 0x3 NOT CALLDATASIZE ADD SLT PUSH2 0x11E JUMPI PUSH1 0x2 SLOAD PUSH1 0x40 MLOAD PUSH1 0x1 PUSH1 0x1 PUSH1 0xA0 SHL SUB SWAP1 SWAP2 AND DUP2 MSTORE PUSH1 0x20 SWAP1 RETURN JUMPDEST POP PUSH1 0xA0 CALLDATASIZE PUSH1 0x3 NOT ADD SLT PUSH2 0x11E JUMPI PUSH1 0x1 PUSH1 0x1 PUSH1 0xA0 SHL SUB PUSH1 0x4 CALLDATALOAD PUSH1 0x24 CALLDATALOAD DUP3 DUP2 AND SWAP1 DUP2 SWAP1 SUB PUSH2 0x9A9 JUMPI PUSH1 0x2 PUSH1 0x1 SLOAD EQ PUSH2 0x964 JUMPI PUSH1 0x2 PUSH1 0x1 SSTORE DUP2 CALLVALUE SUB PUSH2 0x91F JUMPI DUP4 SWAP3 PUSH32 0x0 AND SWAP2 DUP3 EXTCODESIZE ISZERO PUSH2 0x91A JUMPI PUSH2 0x104 DUP5 SWAP3 PUSH1 0x40 MLOAD SWAP5 DUP6 SWAP4 DUP5 SWAP3 PUSH4 0xCF79953B PUSH1 0xE0 SHL DUP5 MSTORE PUSH4 0xFFFFFFFF PUSH1 0x44 CALLDATALOAD AND PUSH1 0x4 DUP6 ADD MSTORE PUSH1 0x24 DUP5 ADD MSTORE DUP6 PUSH1 0x44 DUP5 ADD MSTORE PUSH1 0x64 DUP4 ADD MSTORE PUSH1 0x64 CALLDATALOAD PUSH1 0x84 DUP4 ADD MSTORE PUSH1 0x84 CALLDATALOAD PUSH1 0xA4 DUP4 ADD MSTORE PUSH1 0xE0 PUSH1 0xC4 DUP4 ADD MSTORE DUP5 PUSH1 0xE4 DUP4 ADD MSTORE CALLVALUE SWAP1 GAS CALL DUP1 ISZERO PUSH2 0x421 JUMPI PUSH2 0x906 JUMPI JUMPDEST POP PUSH1 0x1 DUP1 SSTORE DUP1 RETURN JUMPDEST PUSH2 0x90F SWAP1 PUSH2 0x1200 JUMP JUMPDEST PUSH2 0x11E JUMPI DUP1 CODESIZE PUSH2 0x8FE JUMP JUMPDEST POP POP POP REVERT JUMPDEST PUSH1 0x40 MLOAD PUSH3 0x461BCD PUSH1 0xE5 SHL DUP2 MSTORE PUSH1 0x20 PUSH1 0x4 DUP3 ADD MSTORE PUSH1 0x18 PUSH1 0x24 DUP3 ADD MSTORE PUSH32 0x496E636F7272656374207061796D656E7420616D6F756E740000000000000000 PUSH1 0x44 DUP3 ADD MSTORE PUSH1 0x64 SWAP1 REVERT JUMPDEST PUSH1 0x40 MLOAD PUSH3 0x461BCD PUSH1 0xE5 SHL DUP2 MSTORE PUSH1 0x20 PUSH1 0x4 DUP3 ADD MSTORE PUSH1 0x1F PUSH1 0x24 DUP3 ADD MSTORE PUSH32 0x5265656E7472616E637947756172643A207265656E7472616E742063616C6C00 PUSH1 0x44 DUP3 ADD MSTORE PUSH1 0x64 SWAP1 REVERT JUMPDEST PUSH1 0x0 DUP1 REVERT JUMPDEST POP CALLVALUE PUSH2 0x11E JUMPI DUP1 PUSH1 0x3 NOT CALLDATASIZE ADD SLT PUSH2 0x11E JUMPI PUSH2 0x9C7 PUSH2 0x127B JUMP JUMPDEST PUSH1 0x0 DUP1 SLOAD PUSH1 0x1 PUSH1 0x1 PUSH1 0xA0 SHL SUB NOT DUP2 AND DUP3 SSTORE PUSH1 0x1 PUSH1 0x1 PUSH1 0xA0 SHL SUB AND PUSH32 0x8BE0079C531659141344CD1FD0A4F28419497F9722A3DAAFE3B4186F6B6457E0 DUP3 DUP1 LOG3 DUP1 RETURN JUMPDEST POP CALLVALUE PUSH2 0x11E JUMPI PUSH1 0x60 CALLDATASIZE PUSH1 0x3 NOT ADD SLT PUSH2 0x11E JUMPI PUSH1 0x44 CALLDATALOAD TIMESTAMP SUB SWAP1 TIMESTAMP DUP3 GT PUSH2 0xAB3 JUMPI PUSH2 0x12C DUP3 GT PUSH2 0xA7E JUMPI PUSH1 0x32 PUSH1 0x24 CALLDATALOAD GT PUSH2 0xA45 JUMPI PUSH1 0x20 PUSH1 0x40 MLOAD PUSH1 0x1 DUP2 MSTORE RETURN JUMPDEST PUSH1 0x40 MLOAD PUSH3 0x461BCD PUSH1 0xE5 SHL DUP2 MSTORE PUSH1 0x20 PUSH1 0x4 DUP3 ADD MSTORE PUSH1 0x11 PUSH1 0x24 DUP3 ADD MSTORE PUSH17 0xA6D8D2E0E0C2CECA40E8DEDE40D0D2CED PUSH1 0x7B SHL PUSH1 0x44 DUP3 ADD MSTORE PUSH1 0x64 SWAP1 REVERT JUMPDEST PUSH1 0x40 MLOAD PUSH3 0x461BCD PUSH1 0xE5 SHL DUP2 MSTORE PUSH1 0x20 PUSH1 0x4 DUP3 ADD MSTORE PUSH1 0xD PUSH1 0x24 DUP3 ADD MSTORE PUSH13 0x145D5BDD1948195E1C1A5C9959 PUSH1 0x9A SHL PUSH1 0x44 DUP3 ADD MSTORE PUSH1 0x64 SWAP1 REVERT JUMPDEST PUSH4 0x4E487B71 PUSH1 0xE0 SHL DUP2 MSTORE PUSH1 0x11 PUSH1 0x4 MSTORE PUSH1 0x24 SWAP1 REVERT JUMPDEST POP CALLVALUE PUSH2 0x11E JUMPI PUSH1 0x20 CALLDATASIZE PUSH1 0x3 NOT ADD SLT PUSH2 0x11E JUMPI PUSH1 0x4 CALLDATALOAD DUP2 MSTORE PUSH1 0x8 PUSH1 0x20 MSTORE PUSH1 0x40 DUP2 KECCAK256 SLOAD SWAP1 PUSH3 0x15180 DUP3 ADD DUP1 SWAP3 GT PUSH2 0xAB3 JUMPI PUSH1 0x20 DUP3 PUSH1 0x40 MLOAD SWAP1 TIMESTAMP GT DUP2 MSTORE RETURN JUMPDEST POP CALLVALUE PUSH2 0x11E JUMPI DUP1 PUSH1 0x3 NOT CALLDATASIZE ADD SLT PUSH2 0x11E JUMPI PUSH1 0x3 SLOAD PUSH1 0x40 MLOAD PUSH1 0x1 PUSH1 0x1 PUSH1 0xA0 SHL SUB SWAP1 SWAP2 AND DUP2 MSTORE PUSH1 0x20 SWAP1 RETURN JUMPDEST POP CALLVALUE PUSH2 0x11E JUMPI PUSH1 0x20 CALLDATASIZE PUSH1 0x3 NOT ADD SLT PUSH2 0x11E JUMPI PUSH1 0x20 PUSH1 0x1 PUSH1 0x1 PUSH1 0xA0 SHL SUB PUSH2 0xB50 PUSH2 0x1265 JUMP JUMPDEST AND ISZERO PUSH1 0x40 MLOAD SWAP1 DUP2 MSTORE RETURN JUMPDEST POP CALLVALUE PUSH2 0x11E JUMPI PUSH1 0x40 CALLDATASIZE PUSH1 0x3 NOT ADD SLT PUSH2 0x11E JUMPI PUSH1 0x4 CALLDATALOAD PUSH1 0x1 PUSH1 0x1 PUSH1 0x40 SHL SUB DUP2 GT PUSH2 0x73B JUMPI CALLDATASIZE PUSH1 0x23 DUP3 ADD SLT ISZERO PUSH2 0x73B JUMPI DUP1 PUSH1 0x4 ADD CALLDATALOAD SWAP1 DUP3 PUSH2 0xB98 DUP4 PUSH2 0x124A JUMP JUMPDEST SWAP2 PUSH2 0xBA6 PUSH1 0x40 MLOAD SWAP4 DUP5 PUSH2 0x1229 JUMP JUMPDEST DUP4 DUP4 MSTORE PUSH1 0x20 DUP4 ADD SWAP4 CALLDATASIZE PUSH1 0x24 DUP3 DUP5 ADD ADD GT PUSH2 0x11FC JUMPI DUP1 PUSH1 0x24 PUSH1 0x20 SWAP4 ADD DUP7 CALLDATACOPY DUP4 ADD ADD MSTORE PUSH1 0x3 SLOAD PUSH1 0x1 PUSH1 0x1 PUSH1 0xA0 SHL SUB AND CALLER DUP2 SWAP1 SUB PUSH2 0x11C0 JUMPI DUP2 MLOAD DUP3 ADD SWAP3 PUSH1 0x40 DUP4 PUSH1 0x20 DUP7 ADD SWAP6 SUB SLT PUSH2 0x1106 JUMPI MLOAD SWAP1 PUSH1 0x40 DUP4 ADD SWAP4 DUP5 MLOAD PUSH1 0x1 PUSH1 0x1 PUSH1 0x40 SHL SUB DUP2 GT PUSH2 0x41D JUMPI DUP5 ADD SWAP2 DUP2 PUSH1 0x3F DUP5 ADD SLT ISZERO PUSH2 0x41D JUMPI PUSH2 0xC29 PUSH1 0x20 SWAP3 DUP5 PUSH1 0x40 DUP6 PUSH1 0x24 SWAP8 ADD MLOAD SWAP2 ADD PUSH2 0x130A JUMP JUMPDEST POP PUSH1 0x40 MLOAD SWAP3 DUP4 DUP1 SWAP3 PUSH4 0x24F65787 PUSH1 0xE2 SHL DUP3 MSTORE DUP7 PUSH1 0x4 DUP4 ADD MSTORE GAS STATICCALL SWAP1 DUP2 ISZERO PUSH2 0x6A5 JUMPI DUP6 SWAP2 PUSH2 0x1186 JUMPI JUMPDEST POP ISZERO PUSH2 0x114F JUMPI DUP1 DUP5 MSTORE PUSH1 0x7 PUSH1 0x20 MSTORE PUSH1 0xFF PUSH1 0x40 DUP6 KECCAK256 SLOAD AND PUSH2 0x110A JUMPI DUP4 MSTORE PUSH1 0x7 PUSH1 0x20 MSTORE PUSH1 0x40 DUP4 KECCAK256 DUP1 SLOAD PUSH1 0xFF NOT AND PUSH1 0x1 OR SWAP1 SSTORE DUP1 MLOAD DUP2 ADD SWAP2 PUSH1 0xC0 DUP3 DUP5 SUB SLT PUSH2 0x42C JUMPI MLOAD PUSH1 0x60 DUP3 ADD MLOAD SWAP3 SWAP1 SWAP2 SWAP1 PUSH1 0x1 PUSH1 0x1 PUSH1 0xA0 SHL SUB DUP5 AND DUP5 SUB PUSH2 0x1106 JUMPI PUSH1 0xA0 DUP3 ADD MLOAD SWAP2 PUSH1 0xC0 DUP2 ADD MLOAD SWAP2 PUSH1 0x1 PUSH1 0x1 PUSH1 0x40 SHL SUB DUP4 GT PUSH2 0x41D JUMPI PUSH2 0xCD5 SWAP3 PUSH1 0x20 DUP1 SWAP3 ADD SWAP3 ADD ADD PUSH2 0x13E1 JUMP JUMPDEST PUSH1 0x2 SLOAD PUSH1 0x40 MLOAD PUSH4 0x5E8BE19 PUSH1 0xE4 SHL DUP2 MSTORE PUSH1 0x4 DUP2 ADD DUP6 SWAP1 MSTORE SWAP3 PUSH1 0x1 PUSH1 0x1 PUSH1 0xA0 SHL SUB SWAP1 SWAP2 AND SWAP2 DUP7 DUP5 PUSH1 0x24 DUP2 DUP7 GAS STATICCALL SWAP4 DUP5 ISZERO PUSH2 0x486 JUMPI DUP8 SWAP5 PUSH2 0x10EA JUMPI JUMPDEST POP PUSH1 0x40 DUP5 ADD MLOAD SWAP4 PUSH1 0x60 DUP2 ADD MLOAD PUSH1 0x80 DUP3 ADD MLOAD PUSH1 0xA0 DUP4 ADD MLOAD PUSH1 0xC0 DUP5 ADD MLOAD SWAP1 PUSH1 0xE0 DUP6 ADD MLOAD SWAP3 PUSH2 0x100 DUP7 ADD MLOAD SWAP5 PUSH1 0x40 MLOAD SWAP11 DUP12 PUSH1 0x1 PUSH1 0x1 PUSH1 0x40 SHL SUB PUSH1 0xE0 DUP3 DUP2 DUP2 ADD LT SWAP3 ADD GT OR PUSH2 0x10D6 JUMPI PUSH1 0xE0 DUP13 ADD PUSH1 0x40 MSTORE DUP12 MSTORE PUSH1 0x20 DUP12 ADD MSTORE PUSH1 0x40 DUP11 ADD MSTORE PUSH1 0x60 DUP10 ADD MSTORE PUSH1 0x80 DUP9 ADD MSTORE PUSH1 0xA0 DUP8 ADD MSTORE PUSH1 0xC0 DUP7 ADD MSTORE PUSH2 0x120 DUP2 ADD MLOAD SWAP3 PUSH2 0x140 DUP3 ADD MLOAD PUSH2 0x160 DUP4 ADD MLOAD PUSH1 0x3 DUP2 LT ISZERO PUSH2 0x10C2 JUMPI PUSH2 0x180 DUP5 ADD MLOAD SWAP1 PUSH1 0x2 DUP3 LT ISZERO PUSH2 0x106E JUMPI PUSH2 0x1A0 DUP6 ADD MLOAD SWAP3 PUSH1 0x4 DUP5 LT ISZERO PUSH2 0x10AE JUMPI PUSH1 0x40 MLOAD SWAP8 DUP9 PUSH1 0xC0 DUP2 ADD LT PUSH1 0x1 PUSH1 0x1 PUSH1 0x40 SHL SUB PUSH1 0xC0 DUP12 ADD GT OR PUSH2 0x109A JUMPI PUSH1 0xC0 DUP10 ADD PUSH1 0x40 MSTORE DUP9 MSTORE PUSH1 0x20 DUP9 ADD MSTORE PUSH1 0x40 DUP8 ADD MSTORE PUSH1 0x60 DUP7 ADD MSTORE PUSH1 0x80 DUP6 ADD MSTORE PUSH1 0xA0 DUP5 ADD MSTORE PUSH2 0x1E0 DUP2 ADD MLOAD SWAP1 PUSH2 0x200 DUP2 ADD MLOAD PUSH1 0x40 MLOAD SWAP3 DUP4 PUSH1 0x60 DUP2 ADD LT PUSH1 0x1 PUSH1 0x1 PUSH1 0x40 SHL SUB PUSH1 0x60 DUP7 ADD GT OR PUSH2 0x1086 JUMPI PUSH1 0x60 DUP5 ADD PUSH1 0x40 MSTORE DUP4 MSTORE PUSH1 0x40 MLOAD DUP1 PUSH1 0x20 DUP2 ADD LT PUSH1 0x1 PUSH1 0x1 PUSH1 0x40 SHL SUB PUSH1 0x20 DUP4 ADD GT OR PUSH2 0x1086 JUMPI PUSH1 0x20 DUP2 ADD PUSH1 0x40 MSTORE DUP11 DUP2 MSTORE PUSH1 0x20 DUP5 ADD MSTORE PUSH1 0x40 DUP4 ADD MSTORE PUSH2 0x2A0 PUSH1 0x1 DUP1 PUSH1 0xA0 SHL SUB SWAP2 ADD MLOAD AND SWAP3 DUP5 EXTCODESIZE ISZERO PUSH2 0x1082 JUMPI PUSH2 0xF21 PUSH1 0x40 MLOAD SWAP7 PUSH4 0x6C3F3871 PUSH1 0xE0 SHL DUP9 MSTORE PUSH1 0xC0 PUSH1 0x4 DUP10 ADD MSTORE DUP8 PUSH1 0xC0 PUSH2 0xF03 PUSH2 0xEEE PUSH2 0xED9 PUSH2 0xEC2 PUSH2 0xEAA DUP8 MLOAD PUSH1 0xE0 PUSH1 0xC4 DUP10 ADD MSTORE PUSH2 0x1A4 DUP9 ADD SWAP1 PUSH2 0x16B0 JUMP JUMPDEST PUSH1 0x20 DUP9 ADD MLOAD PUSH1 0xC3 NOT SWAP8 PUSH1 0xE4 DUP10 DUP3 DUP6 SUB ADD SWAP2 ADD MSTORE PUSH2 0x1730 JUMP JUMPDEST DUP14 PUSH1 0x40 DUP9 ADD MLOAD SWAP1 PUSH2 0x104 DUP9 DUP3 DUP6 SUB ADD SWAP2 ADD MSTORE PUSH2 0x16B0 JUMP JUMPDEST PUSH1 0x60 DUP7 ADD MLOAD DUP14 DUP3 SUB DUP7 ADD PUSH2 0x124 DUP16 ADD MSTORE PUSH2 0x16B0 JUMP JUMPDEST PUSH1 0x80 DUP6 ADD MLOAD DUP13 DUP3 SUB DUP6 ADD PUSH2 0x144 DUP15 ADD MSTORE PUSH2 0x16B0 JUMP JUMPDEST SWAP3 PUSH1 0xA0 DUP2 ADD MLOAD PUSH2 0x164 DUP13 ADD MSTORE ADD MLOAD SWAP1 DUP10 DUP4 SUB ADD PUSH2 0x184 DUP11 ADD MSTORE PUSH2 0x16B0 JUMP JUMPDEST PUSH1 0x3 NOT DUP8 DUP3 SUB ADD PUSH1 0x24 DUP9 ADD MSTORE DUP2 MLOAD DUP2 MSTORE PUSH2 0xF4A PUSH1 0x20 DUP4 ADD MLOAD PUSH1 0xC0 PUSH1 0x20 DUP5 ADD MSTORE PUSH1 0xC0 DUP4 ADD SWAP1 PUSH2 0x16B0 JUMP JUMPDEST SWAP2 PUSH1 0x40 DUP2 ADD MLOAD PUSH1 0x3 DUP2 LT ISZERO PUSH2 0x106E JUMPI PUSH1 0x40 DUP4 ADD MSTORE PUSH1 0x60 DUP2 ADD MLOAD PUSH1 0x2 DUP2 LT ISZERO PUSH2 0x106E JUMPI PUSH1 0x60 DUP4 ADD MSTORE PUSH1 0x80 DUP2 ADD MLOAD PUSH1 0x4 DUP2 LT ISZERO PUSH2 0x106E JUMPI DUP12 SWAP8 SWAP6 PUSH2 0xFE7 DUP11 SWAP9 SWAP4 SWAP7 DUP11 SWAP7 DUP7 PUSH1 0xA0 DUP1 DUP14 SWAP12 PUSH2 0xFF9 SWAP9 PUSH1 0x80 DUP15 SWAP13 ADD MSTORE ADD MLOAD SWAP2 ADD MSTORE PUSH1 0x3 NOT DUP8 DUP3 SUB ADD PUSH1 0x44 DUP9 ADD MSTORE PUSH1 0x40 PUSH2 0xFD6 PUSH2 0xFC4 DUP5 MLOAD PUSH1 0x60 DUP6 MSTORE PUSH1 0x60 DUP6 ADD SWAP1 PUSH2 0x16B0 JUMP JUMPDEST PUSH1 0x20 DUP6 ADD MLOAD DUP5 DUP3 SUB PUSH1 0x20 DUP7 ADD MSTORE PUSH2 0x16B0 JUMP JUMPDEST SWAP3 ADD MLOAD SWAP1 PUSH1 0x40 DUP2 DUP5 SUB SWAP2 ADD MSTORE PUSH2 0x1730 JUMP JUMPDEST DUP5 DUP2 SUB PUSH1 0x3 NOT ADD PUSH1 0x64 DUP7 ADD MSTORE SWAP1 PUSH2 0x16D5 JUMP JUMPDEST SWAP1 CHAINID PUSH1 0x84 DUP5 ADD MSTORE PUSH1 0xA4 DUP4 ADD MSTORE SUB SWAP3 GAS CALL DUP1 ISZERO PUSH2 0x1063 JUMPI PUSH2 0x1050 JUMPI JUMPDEST POP PUSH1 0x40 MLOAD CHAINID DUP2 MSTORE PUSH1 0x1 PUSH1 0x1 PUSH1 0xA0 SHL SUB SWAP1 SWAP3 AND SWAP2 PUSH32 0x17A35FAD4F245F65A33DFC21A8118014A34E233321C287AB88FF612F9E1147F8 SWAP1 PUSH1 0x20 SWAP1 LOG3 DUP1 RETURN JUMPDEST PUSH2 0x105C SWAP1 SWAP4 SWAP2 SWAP4 PUSH2 0x1200 JUMP JUMPDEST SWAP2 CODESIZE PUSH2 0x1014 JUMP JUMPDEST PUSH1 0x40 MLOAD RETURNDATASIZE DUP7 DUP3 RETURNDATACOPY RETURNDATASIZE SWAP1 REVERT JUMPDEST PUSH4 0x4E487B71 PUSH1 0xE0 SHL DUP13 MSTORE PUSH1 0x21 PUSH1 0x4 MSTORE PUSH1 0x24 DUP13 REVERT JUMPDEST DUP9 DUP1 REVERT JUMPDEST PUSH4 0x4E487B71 PUSH1 0xE0 SHL DUP12 MSTORE PUSH1 0x41 PUSH1 0x4 MSTORE PUSH1 0x24 DUP12 REVERT JUMPDEST PUSH4 0x4E487B71 PUSH1 0xE0 SHL DUP15 MSTORE PUSH1 0x41 PUSH1 0x4 MSTORE PUSH1 0x24 DUP15 REVERT JUMPDEST PUSH4 0x4E487B71 PUSH1 0xE0 SHL DUP14 MSTORE PUSH1 0x21 PUSH1 0x4 MSTORE PUSH1 0x24 DUP14 REVERT JUMPDEST PUSH4 0x4E487B71 PUSH1 0xE0 SHL DUP12 MSTORE PUSH1 0x21 PUSH1 0x4 MSTORE PUSH1 0x24 DUP12 REVERT JUMPDEST PUSH4 0x4E487B71 PUSH1 0xE0 SHL DUP16 MSTORE PUSH1 0x41 PUSH1 0x4 MSTORE PUSH1 0x24 DUP16 REVERT JUMPDEST PUSH2 0x10FF SWAP2 SWAP5 POP RETURNDATASIZE DUP1 DUP10 DUP4 RETURNDATACOPY PUSH2 0x478 DUP2 DUP4 PUSH2 0x1229 JUMP JUMPDEST SWAP3 CODESIZE PUSH2 0xD0F JUMP JUMPDEST DUP5 DUP1 REVERT JUMPDEST PUSH1 0x40 MLOAD PUSH3 0x461BCD PUSH1 0xE5 SHL DUP2 MSTORE PUSH1 0x20 PUSH1 0x4 DUP3 ADD MSTORE PUSH1 0x19 PUSH1 0x24 DUP3 ADD MSTORE PUSH32 0x4D65737361676520616C72656164792070726F63657373656400000000000000 PUSH1 0x44 DUP3 ADD MSTORE PUSH1 0x64 SWAP1 REVERT JUMPDEST PUSH1 0x40 MLOAD PUSH3 0x461BCD PUSH1 0xE5 SHL DUP2 MSTORE PUSH1 0x20 PUSH1 0x4 DUP3 ADD MSTORE PUSH1 0xF PUSH1 0x24 DUP3 ADD MSTORE PUSH15 0x496E76616C6964206D657373616765 PUSH1 0x88 SHL PUSH1 0x44 DUP3 ADD MSTORE PUSH1 0x64 SWAP1 REVERT JUMPDEST SWAP1 POP PUSH1 0x20 DUP2 RETURNDATASIZE PUSH1 0x20 GT PUSH2 0x11B8 JUMPI JUMPDEST DUP2 PUSH2 0x11A1 PUSH1 0x20 SWAP4 DUP4 PUSH2 0x1229 JUMP JUMPDEST DUP2 ADD SUB SLT PUSH2 0x1106 JUMPI PUSH2 0x11B2 SWAP1 PUSH2 0x147C JUMP JUMPDEST CODESIZE PUSH2 0xC51 JUMP JUMPDEST RETURNDATASIZE SWAP2 POP PUSH2 0x1194 JUMP JUMPDEST PUSH1 0x40 MLOAD PUSH3 0x461BCD PUSH1 0xE5 SHL DUP2 MSTORE PUSH1 0x20 PUSH1 0x4 DUP3 ADD MSTORE PUSH1 0x14 PUSH1 0x24 DUP3 ADD MSTORE PUSH20 0x13DB9B1E481C9BDD5D195C8818D85B8818D85B1B PUSH1 0x62 SHL PUSH1 0x44 DUP3 ADD MSTORE PUSH1 0x64 SWAP1 REVERT JUMPDEST DUP3 DUP1 REVERT JUMPDEST PUSH1 0x1 PUSH1 0x1 PUSH1 0x40 SHL SUB DUP2 GT PUSH2 0x1213 JUMPI PUSH1 0x40 MSTORE JUMP JUMPDEST PUSH4 0x4E487B71 PUSH1 0xE0 SHL PUSH1 0x0 MSTORE PUSH1 0x41 PUSH1 0x4 MSTORE PUSH1 0x24 PUSH1 0x0 REVERT JUMPDEST SWAP1 PUSH1 0x1F DUP1 NOT SWAP2 ADD AND DUP2 ADD SWAP1 DUP2 LT PUSH1 0x1 PUSH1 0x1 PUSH1 0x40 SHL SUB DUP3 GT OR PUSH2 0x1213 JUMPI PUSH1 0x40 MSTORE JUMP JUMPDEST PUSH1 0x1 PUSH1 0x1 PUSH1 0x40 SHL SUB DUP2 GT PUSH2 0x1213 JUMPI PUSH1 0x1F ADD PUSH1 0x1F NOT AND PUSH1 0x20 ADD SWAP1 JUMP JUMPDEST PUSH1 0x4 CALLDATALOAD SWAP1 PUSH1 0x1 PUSH1 0x1 PUSH1 0xA0 SHL SUB DUP3 AND DUP3 SUB PUSH2 0x9A9 JUMPI JUMP JUMPDEST PUSH1 0x0 SLOAD PUSH1 0x1 PUSH1 0x1 PUSH1 0xA0 SHL SUB AND CALLER SUB PUSH2 0x128F JUMPI JUMP JUMPDEST PUSH1 0x64 PUSH1 0x40 MLOAD PUSH3 0x461BCD PUSH1 0xE5 SHL DUP2 MSTORE PUSH1 0x20 PUSH1 0x4 DUP3 ADD MSTORE PUSH1 0x20 PUSH1 0x24 DUP3 ADD MSTORE PUSH32 0x4F776E61626C653A2063616C6C6572206973206E6F7420746865206F776E6572 PUSH1 0x44 DUP3 ADD MSTORE REVERT JUMPDEST MLOAD SWAP1 PUSH1 0x1 PUSH1 0x1 PUSH1 0xA0 SHL SUB DUP3 AND DUP3 SUB PUSH2 0x9A9 JUMPI JUMP JUMPDEST PUSH1 0x0 JUMPDEST DUP4 DUP2 LT PUSH2 0x12FA JUMPI POP POP PUSH1 0x0 SWAP2 ADD MSTORE JUMP JUMPDEST DUP2 DUP2 ADD MLOAD DUP4 DUP3 ADD MSTORE PUSH1 0x20 ADD PUSH2 0x12EA JUMP JUMPDEST SWAP1 SWAP3 SWAP2 SWAP3 PUSH2 0x1317 DUP2 PUSH2 0x124A JUMP JUMPDEST SWAP2 PUSH2 0x1325 PUSH1 0x40 MLOAD SWAP4 DUP5 PUSH2 0x1229 JUMP JUMPDEST DUP3 SWAP5 DUP3 DUP5 MSTORE DUP3 DUP3 ADD GT PUSH2 0x9A9 JUMPI PUSH1 0x20 PUSH2 0x133F SWAP4 ADD SWAP1 PUSH2 0x12E7 JUMP JUMPDEST JUMP JUMPDEST SWAP1 DUP1 PUSH1 0x1F DUP4 ADD SLT ISZERO PUSH2 0x9A9 JUMPI DUP2 MLOAD PUSH2 0x135B SWAP3 PUSH1 0x20 ADD PUSH2 0x130A JUMP JUMPDEST SWAP1 JUMP JUMPDEST SWAP1 DUP1 PUSH1 0x1F DUP4 ADD SLT ISZERO PUSH2 0x9A9 JUMPI DUP2 MLOAD SWAP1 PUSH1 0x1 PUSH1 0x1 PUSH1 0x40 SHL SUB SWAP3 DUP4 DUP4 GT PUSH2 0x1213 JUMPI DUP3 PUSH1 0x5 SHL PUSH1 0x40 MLOAD SWAP5 PUSH1 0x20 SWAP5 PUSH2 0x1394 DUP7 DUP5 ADD DUP9 PUSH2 0x1229 JUMP JUMPDEST DUP7 MSTORE DUP5 DUP1 DUP8 ADD SWAP3 DUP5 ADD ADD SWAP4 DUP1 DUP6 GT PUSH2 0x9A9 JUMPI DUP6 DUP5 ADD SWAP3 JUMPDEST DUP6 DUP5 LT PUSH2 0x13BC JUMPI POP POP POP POP POP POP POP SWAP1 JUMP JUMPDEST DUP4 MLOAD DUP4 DUP2 GT PUSH2 0x9A9 JUMPI DUP8 SWAP2 PUSH2 0x13D6 DUP5 DUP5 DUP1 SWAP5 DUP11 ADD ADD PUSH2 0x1341 JUMP JUMPDEST DUP2 MSTORE ADD SWAP4 ADD SWAP3 PUSH2 0x13AB JUMP JUMPDEST SWAP2 SWAP1 SWAP2 PUSH1 0xA0 DUP2 DUP5 SUB SLT PUSH2 0x9A9 JUMPI PUSH1 0x40 MLOAD SWAP1 PUSH1 0x1 PUSH1 0x1 PUSH1 0x40 SHL SUB SWAP1 PUSH1 0xA0 DUP4 ADD DUP3 DUP2 GT DUP5 DUP3 LT OR PUSH2 0x1213 JUMPI PUSH1 0x40 MSTORE DUP3 SWAP5 PUSH2 0x1418 DUP3 PUSH2 0x12D3 JUMP JUMPDEST DUP5 MSTORE PUSH1 0x20 DUP3 ADD MLOAD DUP4 DUP2 GT PUSH2 0x9A9 JUMPI DUP2 PUSH2 0x1432 SWAP2 DUP5 ADD PUSH2 0x1341 JUMP JUMPDEST PUSH1 0x20 DUP6 ADD MSTORE PUSH1 0x40 DUP3 ADD MLOAD DUP4 DUP2 GT PUSH2 0x9A9 JUMPI DUP2 PUSH2 0x144F SWAP2 DUP5 ADD PUSH2 0x1341 JUMP JUMPDEST PUSH1 0x40 DUP6 ADD MSTORE PUSH1 0x60 DUP3 ADD MLOAD PUSH1 0x60 DUP6 ADD MSTORE PUSH1 0x80 DUP3 ADD MLOAD SWAP3 DUP4 GT PUSH2 0x9A9 JUMPI PUSH1 0x80 SWAP3 PUSH2 0x1477 SWAP3 ADD PUSH2 0x1341 JUMP JUMPDEST SWAP2 ADD MSTORE JUMP JUMPDEST MLOAD SWAP1 DUP2 ISZERO ISZERO DUP3 SUB PUSH2 0x9A9 JUMPI JUMP JUMPDEST SWAP1 PUSH1 0x20 DUP3 DUP3 SUB SLT PUSH2 0x9A9 JUMPI DUP2 MLOAD PUSH1 0x1 PUSH1 0x1 PUSH1 0x40 SHL SUB SWAP3 DUP4 DUP3 GT PUSH2 0x9A9 JUMPI ADD SWAP1 PUSH2 0x2E0 SWAP3 DUP4 DUP4 DUP4 SUB SLT PUSH2 0x9A9 JUMPI PUSH1 0x40 MLOAD SWAP4 DUP5 ADD DUP5 DUP2 LT DUP3 DUP3 GT OR PUSH2 0x1213 JUMPI PUSH1 0x40 MSTORE DUP3 MLOAD DUP5 MSTORE PUSH2 0x14D9 PUSH1 0x20 DUP5 ADD PUSH2 0x12D3 JUMP JUMPDEST PUSH1 0x20 DUP6 ADD MSTORE PUSH1 0x40 DUP4 ADD MLOAD DUP2 DUP2 GT PUSH2 0x9A9 JUMPI DUP3 PUSH2 0x14F6 SWAP2 DUP6 ADD PUSH2 0x1341 JUMP JUMPDEST PUSH1 0x40 DUP6 ADD MSTORE PUSH1 0x60 DUP4 ADD MLOAD DUP2 DUP2 GT PUSH2 0x9A9 JUMPI DUP3 PUSH2 0x1513 SWAP2 DUP6 ADD PUSH2 0x135E JUMP JUMPDEST PUSH1 0x60 DUP6 ADD MSTORE PUSH1 0x80 DUP4 ADD MLOAD DUP2 DUP2 GT PUSH2 0x9A9 JUMPI DUP3 PUSH2 0x1530 SWAP2 DUP6 ADD PUSH2 0x1341 JUMP JUMPDEST PUSH1 0x80 DUP6 ADD MSTORE PUSH1 0xA0 DUP4 ADD MLOAD DUP2 DUP2 GT PUSH2 0x9A9 JUMPI DUP3 PUSH2 0x154D SWAP2 DUP6 ADD PUSH2 0x1341 JUMP JUMPDEST PUSH1 0xA0 DUP6 ADD MSTORE PUSH1 0xC0 DUP4 ADD MLOAD DUP2 DUP2 GT PUSH2 0x9A9 JUMPI DUP3 PUSH2 0x156A SWAP2 DUP6 ADD PUSH2 0x1341 JUMP JUMPDEST PUSH1 0xC0 DUP6 ADD MSTORE PUSH1 0xE0 DUP4 ADD MLOAD PUSH1 0xE0 DUP6 ADD MSTORE PUSH2 0x100 DUP1 DUP5 ADD MLOAD DUP3 DUP2 GT PUSH2 0x9A9 JUMPI DUP4 PUSH2 0x1593 SWAP2 DUP7 ADD PUSH2 0x1341 JUMP JUMPDEST SWAP1 DUP6 ADD MSTORE PUSH2 0x120 DUP1 DUP5 ADD MLOAD SWAP1 DUP6 ADD MSTORE PUSH2 0x140 DUP1 DUP5 ADD MLOAD DUP3 DUP2 GT PUSH2 0x9A9 JUMPI DUP4 PUSH2 0x15BC SWAP2 DUP7 ADD PUSH2 0x1341 JUMP JUMPDEST SWAP1 DUP6 ADD MSTORE PUSH2 0x160 DUP1 DUP5 ADD MLOAD SWAP1 PUSH1 0x3 DUP3 LT ISZERO PUSH2 0x9A9 JUMPI DUP6 ADD MSTORE PUSH2 0x180 DUP1 DUP5 ADD MLOAD SWAP1 PUSH1 0x2 DUP3 LT ISZERO PUSH2 0x9A9 JUMPI DUP6 ADD MSTORE PUSH2 0x1A0 DUP1 DUP5 ADD MLOAD SWAP1 PUSH1 0x4 DUP3 LT ISZERO PUSH2 0x9A9 JUMPI DUP6 ADD MSTORE PUSH2 0x1C0 DUP1 DUP5 ADD MLOAD SWAP1 DUP6 ADD MSTORE PUSH2 0x1E0 DUP1 DUP5 ADD MLOAD DUP3 DUP2 GT PUSH2 0x9A9 JUMPI DUP4 PUSH2 0x1621 SWAP2 DUP7 ADD PUSH2 0x1341 JUMP JUMPDEST SWAP1 DUP6 ADD MSTORE PUSH2 0x200 DUP1 DUP5 ADD MLOAD DUP3 DUP2 GT PUSH2 0x9A9 JUMPI DUP4 PUSH2 0x163F SWAP2 DUP7 ADD PUSH2 0x135E JUMP JUMPDEST SWAP1 DUP6 ADD MSTORE PUSH2 0x220 SWAP2 DUP3 DUP5 ADD MLOAD SWAP2 DUP3 GT PUSH2 0x9A9 JUMPI PUSH2 0x165D SWAP2 DUP5 ADD PUSH2 0x13E1 JUMP JUMPDEST SWAP1 DUP4 ADD MSTORE PUSH2 0x240 PUSH2 0x166F DUP2 DUP4 ADD PUSH2 0x147C JUMP JUMPDEST SWAP1 DUP4 ADD MSTORE PUSH2 0x260 PUSH2 0x1681 DUP2 DUP4 ADD PUSH2 0x147C JUMP JUMPDEST SWAP1 DUP4 ADD MSTORE PUSH2 0x280 DUP1 DUP3 ADD MLOAD SWAP1 DUP4 ADD MSTORE PUSH2 0x2A0 PUSH2 0x169E DUP2 DUP4 ADD PUSH2 0x12D3 JUMP JUMPDEST SWAP1 DUP4 ADD MSTORE PUSH2 0x2C0 DUP1 SWAP2 ADD MLOAD SWAP1 DUP3 ADD MSTORE SWAP1 JUMP JUMPDEST SWAP1 PUSH1 0x20 SWAP2 PUSH2 0x16C9 DUP2 MLOAD DUP1 SWAP3 DUP2 DUP6 MSTORE DUP6 DUP1 DUP7 ADD SWAP2 ADD PUSH2 0x12E7 JUMP JUMPDEST PUSH1 0x1F ADD PUSH1 0x1F NOT AND ADD ADD SWAP1 JUMP JUMPDEST PUSH2 0x135B SWAP2 PUSH1 0x1 DUP1 PUSH1 0xA0 SHL SUB DUP3 MLOAD AND DUP2 MSTORE PUSH1 0x80 PUSH2 0x1715 PUSH2 0x1703 PUSH1 0x20 DUP6 ADD MLOAD PUSH1 0xA0 PUSH1 0x20 DUP7 ADD MSTORE PUSH1 0xA0 DUP6 ADD SWAP1 PUSH2 0x16B0 JUMP JUMPDEST PUSH1 0x40 DUP6 ADD MLOAD DUP5 DUP3 SUB PUSH1 0x40 DUP7 ADD MSTORE PUSH2 0x16B0 JUMP JUMPDEST SWAP3 PUSH1 0x60 DUP2 ADD MLOAD PUSH1 0x60 DUP5 ADD MSTORE ADD MLOAD SWAP1 PUSH1 0x80 DUP2 DUP5 SUB SWAP2 ADD MSTORE PUSH2 0x16B0 JUMP JUMPDEST SWAP1 DUP1 DUP2 DUP4 MLOAD SWAP2 DUP3 DUP3 MSTORE PUSH1 0x20 DUP1 DUP1 DUP1 SWAP5 ADD SWAP6 DUP6 PUSH1 0x5 SHL ADD ADD SWAP6 ADD SWAP4 PUSH1 0x0 SWAP2 JUMPDEST DUP5 DUP4 LT PUSH2 0x175E JUMPI POP POP POP POP POP POP SWAP1 JUMP JUMPDEST SWAP1 SWAP2 SWAP3 SWAP4 SWAP5 SWAP6 DUP5 DUP1 PUSH2 0x177C PUSH1 0x1 SWAP4 PUSH1 0x1F NOT DUP7 DUP3 SUB ADD DUP8 MSTORE DUP11 MLOAD PUSH2 0x16B0 JUMP JUMPDEST SWAP9 ADD SWAP4 ADD SWAP4 ADD SWAP2 SWAP5 SWAP4 SWAP3 SWAP1 PUSH2 0x174E JUMP INVALID LOG2 PUSH5 0x6970667358 0x22 SLT KECCAK256 SWAP8 PUSH21 0x8712984127C1B1500035A1E7E5E6EFC2E9A52CBD0F 0x4E SAR CALLER 0xC1 DIV DUP3 CALLDATACOPY 0xE0 GAS PUSH5 0x736F6C6343 STOP ADDMOD SGT STOP CALLER "},"methodIdentifiers":{"MAX_SLIPPAGE()":"f9759518","TRANSFER_TIMEOUT()":"87065deb","acrossRouter()":"4f8359f1","bridgePayment(uint256,address,uint256,uint256,uint256)":"757d6d9b","cancelTimedOutTransfer(uint256)":"9f725a1d","crossChainTransferPending(uint256)":"84dfc55d","hemDealer()":"78df8f7d","initiateCrossChainTransfer(uint256,uint256,uint256,uint256)":"b54a18d6","isSupportedToken(address)":"240028e8","isTransferTimedOut(uint256)":"4ffb6db6","owner()":"8da5cb5b","processedMessages(bytes32)":"88ba16ab","receiveCrossChainTransfer(bytes,uint256)":"2351d10f","renounceOwnership()":"715018a6","sourceChainIds(uint256)":"9efeff1c","spokePool()":"afdac3d6","transferHashes(bytes32)":"ceb6c12f","transferInitiatedAt(uint256)":"ef821fe8","transferOwnership(address)":"f2fde38b","validateQuote(uint256,uint256,uint256)":"70f4e7f2"}}}}}