{"contracts/HemDealer.sol":{"HemDealer":{"abi":[{"inputs":[],"stateMutability":"nonpayable","type":"constructor"},{"anonymous":false,"inputs":[{"indexed":true,"internalType":"address","name":"owner","type":"address"},{"indexed":true,"internalType":"address","name":"approved","type":"address"},{"indexed":true,"internalType":"uint256","name":"tokenId","type":"uint256"}],"name":"Approval","type":"event"},{"anonymous":false,"inputs":[{"indexed":true,"internalType":"address","name":"owner","type":"address"},{"indexed":true,"internalType":"address","name":"operator","type":"address"},{"indexed":false,"internalType":"bool","name":"approved","type":"bool"}],"name":"ApprovalForAll","type":"event"},{"anonymous":false,"inputs":[{"indexed":true,"internalType":"uint256","name":"carId","type":"uint256"},{"indexed":true,"internalType":"address","name":"winner","type":"address"},{"indexed":false,"internalType":"uint256","name":"amount","type":"uint256"}],"name":"AuctionEnded","type":"event"},{"anonymous":false,"inputs":[{"indexed":true,"internalType":"uint256","name":"carId","type":"uint256"},{"indexed":false,"internalType":"uint256","name":"startingPrice","type":"uint256"},{"indexed":false,"internalType":"uint256","name":"endTime","type":"uint256"}],"name":"AuctionStarted","type":"event"},{"anonymous":false,"inputs":[{"indexed":true,"internalType":"uint256","name":"carId","type":"uint256"},{"indexed":true,"internalType":"address","name":"bidder","type":"address"},{"indexed":false,"internalType":"uint256","name":"amount","type":"uint256"}],"name":"BidPlaced","type":"event"},{"anonymous":false,"inputs":[{"indexed":true,"internalType":"uint256","name":"carId","type":"uint256"}],"name":"CarDeleted","type":"event"},{"anonymous":false,"inputs":[{"indexed":true,"internalType":"uint256","name":"carId","type":"uint256"},{"indexed":true,"internalType":"address","name":"seller","type":"address"},{"indexed":false,"internalType":"uint256","name":"price","type":"uint256"},{"indexed":false,"internalType":"string","name":"make","type":"string"},{"indexed":false,"internalType":"string","name":"model","type":"string"},{"indexed":false,"internalType":"uint256","name":"year","type":"uint256"}],"name":"CarListed","type":"event"},{"anonymous":false,"inputs":[{"indexed":true,"internalType":"uint256","name":"carId","type":"uint256"},{"indexed":true,"internalType":"address","name":"seller","type":"address"},{"indexed":true,"internalType":"address","name":"buyer","type":"address"},{"indexed":false,"internalType":"uint256","name":"price","type":"uint256"}],"name":"CarSold","type":"event"},{"anonymous":false,"inputs":[{"indexed":true,"internalType":"uint256","name":"carId","type":"uint256"},{"indexed":true,"internalType":"address","name":"from","type":"address"},{"indexed":true,"internalType":"address","name":"to","type":"address"}],"name":"CarTransferred","type":"event"},{"anonymous":false,"inputs":[{"indexed":true,"internalType":"uint256","name":"carId","type":"uint256"},{"indexed":true,"internalType":"address","name":"owner","type":"address"},{"indexed":false,"internalType":"uint256","name":"newPrice","type":"uint256"},{"indexed":false,"internalType":"string","name":"make","type":"string"},{"indexed":false,"internalType":"string","name":"model","type":"string"}],"name":"CarUpdated","type":"event"},{"anonymous":false,"inputs":[{"indexed":true,"internalType":"address","name":"previousOwner","type":"address"},{"indexed":true,"internalType":"address","name":"newOwner","type":"address"}],"name":"OwnershipTransferred","type":"event"},{"anonymous":false,"inputs":[{"indexed":true,"internalType":"uint256","name":"carId","type":"uint256"},{"indexed":true,"internalType":"uint256","name":"reviewId","type":"uint256"},{"indexed":true,"internalType":"address","name":"reviewer","type":"address"}],"name":"ReviewAdded","type":"event"},{"anonymous":false,"inputs":[{"indexed":true,"internalType":"uint256","name":"carId","type":"uint256"},{"indexed":true,"internalType":"uint256","name":"reviewId","type":"uint256"}],"name":"ReviewDeleted","type":"event"},{"anonymous":false,"inputs":[{"indexed":true,"internalType":"uint256","name":"carId","type":"uint256"},{"indexed":true,"internalType":"uint256","name":"reviewId","type":"uint256"},{"indexed":false,"internalType":"string","name":"comment","type":"string"}],"name":"ReviewUpdated","type":"event"},{"anonymous":false,"inputs":[{"indexed":true,"internalType":"address","name":"from","type":"address"},{"indexed":true,"internalType":"address","name":"to","type":"address"},{"indexed":true,"internalType":"uint256","name":"tokenId","type":"uint256"}],"name":"Transfer","type":"event"},{"inputs":[{"internalType":"address","name":"to","type":"address"},{"internalType":"uint256","name":"tokenId","type":"uint256"}],"name":"approve","outputs":[],"stateMutability":"nonpayable","type":"function"},{"inputs":[{"internalType":"address","name":"owner","type":"address"}],"name":"balanceOf","outputs":[{"internalType":"uint256","name":"","type":"uint256"}],"stateMutability":"view","type":"function"},{"inputs":[{"internalType":"uint256","name":"newCarId","type":"uint256"}],"name":"buyCar","outputs":[],"stateMutability":"payable","type":"function"},{"inputs":[{"internalType":"uint256","name":"carId","type":"uint256"}],"name":"cancelAuction","outputs":[],"stateMutability":"nonpayable","type":"function"},{"inputs":[{"internalType":"uint256","name":"","type":"uint256"}],"name":"carAuctions","outputs":[{"internalType":"uint256","name":"carId","type":"uint256"},{"internalType":"uint256","name":"startingPrice","type":"uint256"},{"internalType":"uint256","name":"currentHighestBid","type":"uint256"},{"internalType":"address","name":"highestBidder","type":"address"},{"internalType":"uint256","name":"endTime","type":"uint256"},{"internalType":"bool","name":"active","type":"bool"}],"stateMutability":"view","type":"function"},{"inputs":[{"internalType":"uint256","name":"newCarId","type":"uint256"},{"internalType":"string","name":"comment","type":"string"}],"name":"createReview","outputs":[],"stateMutability":"nonpayable","type":"function"},{"inputs":[{"internalType":"uint256","name":"newCarId","type":"uint256"}],"name":"deleteCar","outputs":[],"stateMutability":"nonpayable","type":"function"},{"inputs":[{"internalType":"uint256","name":"newCarId","type":"uint256"},{"internalType":"uint256","name":"reviewId","type":"uint256"}],"name":"deleteReview","outputs":[],"stateMutability":"nonpayable","type":"function"},{"inputs":[{"internalType":"uint256","name":"carId","type":"uint256"}],"name":"endAuction","outputs":[],"stateMutability":"nonpayable","type":"function"},{"inputs":[],"name":"getAllCars","outputs":[{"components":[{"internalType":"uint256","name":"id","type":"uint256"},{"internalType":"address","name":"owner","type":"address"},{"internalType":"string","name":"name","type":"string"},{"internalType":"string[]","name":"images","type":"string[]"},{"internalType":"string","name":"description","type":"string"},{"internalType":"string","name":"make","type":"string"},{"internalType":"string","name":"model","type":"string"},{"internalType":"uint256","name":"year","type":"uint256"},{"internalType":"uint256","name":"vin","type":"uint256"},{"internalType":"uint256","name":"mileage","type":"uint256"},{"internalType":"string","name":"color","type":"string"},{"internalType":"enum HemDealer.CarCondition","name":"condition","type":"uint8"},{"internalType":"enum HemDealer.CarTransmission","name":"transmission","type":"uint8"},{"internalType":"enum HemDealer.FuelType","name":"fuelType","type":"uint8"},{"internalType":"uint256","name":"price","type":"uint256"},{"internalType":"string","name":"location","type":"string"},{"internalType":"string","name":"carHistory","type":"string"},{"internalType":"string[]","name":"features","type":"string[]"},{"components":[{"internalType":"uint256","name":"reviewId","type":"uint256"},{"internalType":"address","name":"reviewer","type":"address"},{"internalType":"string","name":"comment","type":"string"},{"internalType":"uint256","name":"timestamp","type":"uint256"},{"internalType":"bool","name":"deleted","type":"bool"}],"internalType":"struct HemDealer.ReviewStruct[]","name":"reviews","type":"tuple[]"},{"components":[{"internalType":"address","name":"wallet","type":"address"},{"internalType":"string","name":"sellerName","type":"string"},{"internalType":"string","name":"email","type":"string"},{"internalType":"uint256","name":"phoneNumber","type":"uint256"},{"internalType":"string","name":"profileImage","type":"string"}],"internalType":"struct HemDealer.SellerDetails","name":"seller","type":"tuple"},{"internalType":"bool","name":"sold","type":"bool"},{"internalType":"bool","name":"deleted","type":"bool"},{"internalType":"enum HemDealer.SaleType","name":"saleType","type":"uint8"}],"internalType":"struct HemDealer.CarStruct[]","name":"","type":"tuple[]"}],"stateMutability":"view","type":"function"},{"inputs":[],"name":"getAllSales","outputs":[{"components":[{"internalType":"uint256","name":"id","type":"uint256"},{"internalType":"uint256","name":"newCarId","type":"uint256"},{"internalType":"uint256","name":"price","type":"uint256"},{"internalType":"address","name":"owner","type":"address"}],"internalType":"struct HemDealer.SalesStruct[]","name":"","type":"tuple[]"}],"stateMutability":"view","type":"function"},{"inputs":[{"internalType":"uint256","name":"tokenId","type":"uint256"}],"name":"getApproved","outputs":[{"internalType":"address","name":"","type":"address"}],"stateMutability":"view","type":"function"},{"inputs":[{"internalType":"uint256","name":"carId","type":"uint256"}],"name":"getAuctionDetails","outputs":[{"internalType":"uint256","name":"startingPrice","type":"uint256"},{"internalType":"uint256","name":"currentBid","type":"uint256"},{"internalType":"address","name":"highestBidder","type":"address"},{"internalType":"uint256","name":"endTime","type":"uint256"},{"internalType":"bool","name":"active","type":"bool"}],"stateMutability":"view","type":"function"},{"inputs":[{"internalType":"uint256","name":"newCarId","type":"uint256"}],"name":"getCar","outputs":[{"components":[{"internalType":"uint256","name":"id","type":"uint256"},{"internalType":"address","name":"owner","type":"address"},{"internalType":"string","name":"name","type":"string"},{"internalType":"string[]","name":"images","type":"string[]"},{"internalType":"string","name":"description","type":"string"},{"internalType":"string","name":"make","type":"string"},{"internalType":"string","name":"model","type":"string"},{"internalType":"uint256","name":"year","type":"uint256"},{"internalType":"uint256","name":"vin","type":"uint256"},{"internalType":"uint256","name":"mileage","type":"uint256"},{"internalType":"string","name":"color","type":"string"},{"internalType":"enum HemDealer.CarCondition","name":"condition","type":"uint8"},{"internalType":"enum HemDealer.CarTransmission","name":"transmission","type":"uint8"},{"internalType":"enum HemDealer.FuelType","name":"fuelType","type":"uint8"},{"internalType":"uint256","name":"price","type":"uint256"},{"internalType":"string","name":"location","type":"string"},{"internalType":"string","name":"carHistory","type":"string"},{"internalType":"string[]","name":"features","type":"string[]"},{"components":[{"internalType":"uint256","name":"reviewId","type":"uint256"},{"internalType":"address","name":"reviewer","type":"address"},{"internalType":"string","name":"comment","type":"string"},{"internalType":"uint256","name":"timestamp","type":"uint256"},{"internalType":"bool","name":"deleted","type":"bool"}],"internalType":"struct HemDealer.ReviewStruct[]","name":"reviews","type":"tuple[]"},{"components":[{"internalType":"address","name":"wallet","type":"address"},{"internalType":"string","name":"sellerName","type":"string"},{"internalType":"string","name":"email","type":"string"},{"internalType":"uint256","name":"phoneNumber","type":"uint256"},{"internalType":"string","name":"profileImage","type":"string"}],"internalType":"struct HemDealer.SellerDetails","name":"seller","type":"tuple"},{"internalType":"bool","name":"sold","type":"bool"},{"internalType":"bool","name":"deleted","type":"bool"},{"internalType":"enum HemDealer.SaleType","name":"saleType","type":"uint8"}],"internalType":"struct HemDealer.CarStruct","name":"","type":"tuple"}],"stateMutability":"view","type":"function"},{"inputs":[],"name":"getMyCars","outputs":[{"components":[{"internalType":"uint256","name":"id","type":"uint256"},{"internalType":"address","name":"owner","type":"address"},{"internalType":"string","name":"name","type":"string"},{"internalType":"string[]","name":"images","type":"string[]"},{"internalType":"string","name":"description","type":"string"},{"internalType":"string","name":"make","type":"string"},{"internalType":"string","name":"model","type":"string"},{"internalType":"uint256","name":"year","type":"uint256"},{"internalType":"uint256","name":"vin","type":"uint256"},{"internalType":"uint256","name":"mileage","type":"uint256"},{"internalType":"string","name":"color","type":"string"},{"internalType":"enum HemDealer.CarCondition","name":"condition","type":"uint8"},{"internalType":"enum HemDealer.CarTransmission","name":"transmission","type":"uint8"},{"internalType":"enum HemDealer.FuelType","name":"fuelType","type":"uint8"},{"internalType":"uint256","name":"price","type":"uint256"},{"internalType":"string","name":"location","type":"string"},{"internalType":"string","name":"carHistory","type":"string"},{"internalType":"string[]","name":"features","type":"string[]"},{"components":[{"internalType":"uint256","name":"reviewId","type":"uint256"},{"internalType":"address","name":"reviewer","type":"address"},{"internalType":"string","name":"comment","type":"string"},{"internalType":"uint256","name":"timestamp","type":"uint256"},{"internalType":"bool","name":"deleted","type":"bool"}],"internalType":"struct HemDealer.ReviewStruct[]","name":"reviews","type":"tuple[]"},{"components":[{"internalType":"address","name":"wallet","type":"address"},{"internalType":"string","name":"sellerName","type":"string"},{"internalType":"string","name":"email","type":"string"},{"internalType":"uint256","name":"phoneNumber","type":"uint256"},{"internalType":"string","name":"profileImage","type":"string"}],"internalType":"struct HemDealer.SellerDetails","name":"seller","type":"tuple"},{"internalType":"bool","name":"sold","type":"bool"},{"internalType":"bool","name":"deleted","type":"bool"},{"internalType":"enum HemDealer.SaleType","name":"saleType","type":"uint8"}],"internalType":"struct HemDealer.CarStruct[]","name":"","type":"tuple[]"}],"stateMutability":"view","type":"function"},{"inputs":[{"internalType":"uint256","name":"newCarId","type":"uint256"}],"name":"getReviews","outputs":[{"components":[{"internalType":"uint256","name":"reviewId","type":"uint256"},{"internalType":"address","name":"reviewer","type":"address"},{"internalType":"string","name":"comment","type":"string"},{"internalType":"uint256","name":"timestamp","type":"uint256"},{"internalType":"bool","name":"deleted","type":"bool"}],"internalType":"struct HemDealer.ReviewStruct[]","name":"","type":"tuple[]"}],"stateMutability":"view","type":"function"},{"inputs":[{"internalType":"address","name":"owner","type":"address"},{"internalType":"address","name":"operator","type":"address"}],"name":"isApprovedForAll","outputs":[{"internalType":"bool","name":"","type":"bool"}],"stateMutability":"view","type":"function"},{"inputs":[{"components":[{"internalType":"string","name":"name","type":"string"},{"internalType":"string[]","name":"images","type":"string[]"},{"internalType":"string","name":"description","type":"string"},{"internalType":"string","name":"make","type":"string"},{"internalType":"string","name":"model","type":"string"},{"internalType":"uint256","name":"year","type":"uint256"},{"internalType":"uint256","name":"vin","type":"uint256"}],"internalType":"struct HemDealer.CarBasicDetails","name":"basicDetails","type":"tuple"},{"components":[{"internalType":"uint256","name":"mileage","type":"uint256"},{"internalType":"string","name":"color","type":"string"},{"internalType":"enum HemDealer.CarCondition","name":"condition","type":"uint8"},{"internalType":"enum HemDealer.CarTransmission","name":"transmission","type":"uint8"},{"internalType":"enum HemDealer.FuelType","name":"fuelType","type":"uint8"},{"internalType":"uint256","name":"price","type":"uint256"}],"internalType":"struct HemDealer.CarTechnicalDetails","name":"technicalDetails","type":"tuple"},{"components":[{"internalType":"string","name":"location","type":"string"},{"internalType":"string","name":"carHistory","type":"string"},{"internalType":"string[]","name":"features","type":"string[]"}],"internalType":"struct HemDealer.CarAdditionalInfo","name":"additionalInfo","type":"tuple"},{"components":[{"internalType":"address","name":"wallet","type":"address"},{"internalType":"string","name":"sellerName","type":"string"},{"internalType":"string","name":"email","type":"string"},{"internalType":"uint256","name":"phoneNumber","type":"uint256"},{"internalType":"string","name":"profileImage","type":"string"}],"internalType":"struct HemDealer.SellerDetails","name":"sellerDetails","type":"tuple"},{"internalType":"enum HemDealer.SaleType","name":"saleType","type":"uint8"}],"name":"listCar","outputs":[],"stateMutability":"nonpayable","type":"function"},{"inputs":[],"name":"name","outputs":[{"internalType":"string","name":"","type":"string"}],"stateMutability":"view","type":"function"},{"inputs":[],"name":"owner","outputs":[{"internalType":"address","name":"","type":"address"}],"stateMutability":"view","type":"function"},{"inputs":[{"internalType":"uint256","name":"tokenId","type":"uint256"}],"name":"ownerOf","outputs":[{"internalType":"address","name":"","type":"address"}],"stateMutability":"view","type":"function"},{"inputs":[{"internalType":"uint256","name":"carId","type":"uint256"}],"name":"placeBid","outputs":[],"stateMutability":"payable","type":"function"},{"inputs":[],"name":"renounceOwnership","outputs":[],"stateMutability":"nonpayable","type":"function"},{"inputs":[{"internalType":"address","name":"from","type":"address"},{"internalType":"address","name":"to","type":"address"},{"internalType":"uint256","name":"tokenId","type":"uint256"}],"name":"safeTransferFrom","outputs":[],"stateMutability":"nonpayable","type":"function"},{"inputs":[{"internalType":"address","name":"from","type":"address"},{"internalType":"address","name":"to","type":"address"},{"internalType":"uint256","name":"tokenId","type":"uint256"},{"internalType":"bytes","name":"data","type":"bytes"}],"name":"safeTransferFrom","outputs":[],"stateMutability":"nonpayable","type":"function"},{"inputs":[{"internalType":"address","name":"operator","type":"address"},{"internalType":"bool","name":"approved","type":"bool"}],"name":"setApprovalForAll","outputs":[],"stateMutability":"nonpayable","type":"function"},{"inputs":[{"internalType":"uint256","name":"carId","type":"uint256"},{"internalType":"uint256","name":"startingPrice","type":"uint256"},{"internalType":"uint256","name":"durationInDays","type":"uint256"}],"name":"startAuction","outputs":[],"stateMutability":"nonpayable","type":"function"},{"inputs":[{"internalType":"bytes4","name":"interfaceId","type":"bytes4"}],"name":"supportsInterface","outputs":[{"internalType":"bool","name":"","type":"bool"}],"stateMutability":"view","type":"function"},{"inputs":[],"name":"symbol","outputs":[{"internalType":"string","name":"","type":"string"}],"stateMutability":"view","type":"function"},{"inputs":[{"internalType":"uint256","name":"tokenId","type":"uint256"}],"name":"tokenURI","outputs":[{"internalType":"string","name":"","type":"string"}],"stateMutability":"view","type":"function"},{"inputs":[{"internalType":"uint256","name":"newCarId","type":"uint256"},{"internalType":"address","name":"newOwner","type":"address"}],"name":"transfer","outputs":[],"stateMutability":"nonpayable","type":"function"},{"inputs":[{"internalType":"address","name":"from","type":"address"},{"internalType":"address","name":"to","type":"address"},{"internalType":"uint256","name":"tokenId","type":"uint256"}],"name":"transferFrom","outputs":[],"stateMutability":"nonpayable","type":"function"},{"inputs":[{"internalType":"address","name":"newOwner","type":"address"}],"name":"transferOwnership","outputs":[],"stateMutability":"nonpayable","type":"function"},{"inputs":[{"internalType":"uint256","name":"newCarId","type":"uint256"},{"components":[{"internalType":"string","name":"name","type":"string"},{"internalType":"string[]","name":"images","type":"string[]"},{"internalType":"string","name":"description","type":"string"},{"internalType":"string","name":"make","type":"string"},{"internalType":"string","name":"model","type":"string"},{"internalType":"uint256","name":"year","type":"uint256"},{"internalType":"uint256","name":"vin","type":"uint256"}],"internalType":"struct HemDealer.CarBasicDetails","name":"basicDetails","type":"tuple"},{"components":[{"internalType":"uint256","name":"mileage","type":"uint256"},{"internalType":"string","name":"color","type":"string"},{"internalType":"enum HemDealer.CarCondition","name":"condition","type":"uint8"},{"internalType":"enum HemDealer.CarTransmission","name":"transmission","type":"uint8"},{"internalType":"enum HemDealer.FuelType","name":"fuelType","type":"uint8"},{"internalType":"uint256","name":"price","type":"uint256"}],"internalType":"struct HemDealer.CarTechnicalDetails","name":"technicalDetails","type":"tuple"},{"components":[{"internalType":"string","name":"location","type":"string"},{"internalType":"string","name":"carHistory","type":"string"},{"internalType":"string[]","name":"features","type":"string[]"}],"internalType":"struct HemDealer.CarAdditionalInfo","name":"additionalInfo","type":"tuple"},{"components":[{"internalType":"address","name":"wallet","type":"address"},{"internalType":"string","name":"sellerName","type":"string"},{"internalType":"string","name":"email","type":"string"},{"internalType":"uint256","name":"phoneNumber","type":"uint256"},{"internalType":"string","name":"profileImage","type":"string"}],"internalType":"struct HemDealer.SellerDetails","name":"sellerDetails","type":"tuple"},{"internalType":"enum HemDealer.SaleType","name":"saleType","type":"uint8"}],"name":"updateCar","outputs":[],"stateMutability":"nonpayable","type":"function"},{"inputs":[{"internalType":"uint256","name":"newCarId","type":"uint256"},{"internalType":"uint256","name":"reviewId","type":"uint256"},{"internalType":"string","name":"comment","type":"string"}],"name":"updateReview","outputs":[{"components":[{"internalType":"uint256","name":"reviewId","type":"uint256"},{"internalType":"address","name":"reviewer","type":"address"},{"internalType":"string","name":"comment","type":"string"},{"internalType":"uint256","name":"timestamp","type":"uint256"},{"internalType":"bool","name":"deleted","type":"bool"}],"internalType":"struct HemDealer.ReviewStruct","name":"","type":"tuple"}],"stateMutability":"nonpayable","type":"function"}],"evm":{"bytecode":{"linkReferences":{},"object":"608034620003a4576040906001600160401b0390808301828111828210176200038e57835260098152602091682432b6a232b0b632b960b91b83830152835190848201828110828211176200038e57855260038083526248444d60e81b8584015260008054336001600160a01b0319821681178355929591949192906001600160a01b03167f8be0079c531659141344cd1fd0a4f28419497f9722a3daafe3b4186f6b6457e08680a360019384805582518481116200037a57600254938685811c951680156200036f575b898610146200035b578190601f9586811162000307575b508990868311600114620002a257849262000296575b505060001982891b1c191690861b176002555b8151938411620002825785548581811c9116801562000277575b8882101462000263578381116200021b575b5086928411600114620001b85791839491849394620001ac575b50501b9160001990841b1c19161790555b331562000177575051616e769081620003aa8239f35b606491519062461bcd60e51b82526004820152601060248201526f24b73b30b634b2103232b83637bcb2b960811b6044820152fd5b01519250388062000150565b919083601f198116878552888520945b8988838310620002035750505010620001ea575b505050811b01905562000161565b015160001983861b60f8161c19169055388080620001dc565b868601518855909601959485019487935001620001c8565b8682528782208480870160051c8201928a881062000259575b0160051c019086905b8281106200024d57505062000136565b8381550186906200023d565b9250819262000234565b634e487b7160e01b82526022600452602482fd5b90607f169062000124565b634e487b7160e01b81526041600452602490fd5b015190503880620000f7565b600285528a85208994509190601f198416865b8d828210620002f05750508411620002d7575b505050811b016002556200010a565b0151600019838b1b60f8161c19169055388080620002c8565b8385015186558c97909501949384019301620002b5565b909150600284528984208680850160051c8201928c861062000351575b918a91869594930160051c01915b82811062000342575050620000e1565b8681558594508a910162000332565b9250819262000324565b634e487b7160e01b83526022600452602483fd5b94607f1694620000ca565b634e487b7160e01b82526041600452602482fd5b634e487b7160e01b600052604160045260246000fd5b600080fdfe61022080604052600436101561001457600080fd5b60003560e01c90816301ffc9a7146152015750806306fdde031461515b578063081812fc1461513d578063095ea7b314614fc3578063175a3b4114614bf957806323b872dd14614bd557806324d41a03146149b95780632c0e839b146147da5780633339691714614615578063341fa05d1461450457806342842e0e146144d15780635e8be1901461448857806360098088146142a75780636352211e146142775780636c2310601461403957806370a0823114613fa2578063715018a614613f495780638da5cb5b14613f2057806391e078bb14613bcf57806395d89b4114613aed57806396a120411461232557806396b5a755146121f15780639979ef45146120395780639d4a225514611eb6578063a22cb46514611ddb578063abfe5d5714611cef578063b0b7755e14611c7f578063b7760c8f146119de578063b88d4fde14611957578063b9a2de3a146117fc578063c87b56dd14611788578063e05f8bb714610355578063e985e9c5146102ff578063f20e5e351461026a5763f2fde38b146101a157600080fd5b34610265576020366003190112610265576101ba6152ac565b6101c2615a8d565b6001600160a01b0390811690811561021157600054826001600160601b0360a01b821617600055167f8be0079c531659141344cd1fd0a4f28419497f9722a3daafe3b4186f6b6457e0600080a3005b60405162461bcd60e51b815260206004820152602660248201527f4f776e61626c653a206e6577206f776e657220697320746865207a65726f206160448201526564647265737360d01b6064820152608490fd5b600080fd5b3461026557602036600319011261026557600435600052600d60205260a06040600020816040519161029b836152f3565b805483526001810154928360208201526002820154806040830152600180851b036003840154169182606082015260ff6005600486015495866080850152015416151594859101526040519485526020850152604084015260608301526080820152f35b34610265576040366003190112610265576103186152ac565b6103206152c2565b9060018060a01b03809116600052600760205260406000209116600052602052602060ff604060002054166040519015158152f35b346102655760c0366003190112610265576024356001600160401b03811161026557610385903690600401615820565b610140526044356001600160401b038111610265576103a89036906004016158ed565b60a0526064356001600160401b038111610265576103ca903690600401615975565b6084356001600160401b038111610265576103e99036906004016159f5565b6101a052600260a435101561026557610400616489565b600435600052600b60205260018060a01b036001604060002001541633148015611774575b61042e9061652b565b61043e60a0805101511515616239565b61044e6101405151511515616116565b6104616020610140510151511515616159565b61047460606101405101515115156161a5565b61048760806101405101515115156161e8565b6101a051516004356000908152600b60205260409020601101546001600160a01b0391821691160361172f576104ca60018060a01b036101a051511633146160ca565b61014051908151916020810151608052604081015161020052606081015160808201519060c060a084015193015160a0518051602082015191604081015190600382101561124c576060015192610520846154ca565b60a05192608084015195600487101561124c578a998a996105fe996040602060a06105e19a01519d519e01519e01519e600435600052600b60205260ff60166040600020806101605201541660c05261057e6040518060e05261530e565b60043560e0515233602060e0510152604060e0510152608051606060e051015261020051608060e051015260a060e051015260c060e051015260e08051015261010060e051015261012060e051015261014060e051015261016060e051016162b1565b6105ea816154ca565b61018060e05101526101a060e051016162bd565b6101c060e05101526101e060e051015261020060e051015261022060e051015261062d601061016051016165d6565b61024060e05101526101a05161026060e051015260c051151561028060e051015260006102a060e051015261066360a4356154ca565b60a4356102c060e0510152600435600052600b6020526040600020604060e0518051835560018060a01b036020820151166001600160601b0360a01b60018501541617600184015501518051906001600160401b038211610d895781906106cd6002850154615b54565b601f81116116fa575b50602090601f83116001146116885760009261167d575b50508160011b916000199060031b1c19161760028201555b606060e0510151805190600160401b8211610d8957600383015482600385015580831061164a575b5060200190600383016000526020600020916000905b82821061152a5784608060e05101518051906001600160401b038211610d895781906107726004850154615b54565b601f81116114f5575b50602090601f831160011461148357600092611478575b50508160011b916000199060031b1c19161760048201555b60a060e05101518051906001600160401b038211610d895781906107d16005850154615b54565b601f8111611443575b50602090601f83116001146113d1576000926113c6575b50508160011b916000199060031b1c19161760058201555b60c060e05101518051906001600160401b038211610d895781906108306006850154615b54565b601f8111611391575b50602090601f831160011461131f57600092611314575b50508160011b916000199060031b1c19161760068201555b61014060e05160e081015160078401556101008101516008840155610120810151600984015501518051906001600160401b038211610d895781906108b0600a850154615b54565b601f81116112df575b50602090601f831160011461126d57600092611262575b50508160011b916000199060031b1c191617600a8201555b60e051610160810151600381101561124c57610180600b8401549201519061090f826154ca565b610918826154ca565b60e051916101a0830151600481101561124c576101e09460ff62ff000061ff009360101b1694169062ffffff1916179160081b161717600b8401556101c0810151600c84015501518051906001600160401b038211610d89578190610980600d850154615b54565b601f8111611217575b50602090601f83116001146111a55760009261119a575b50508160011b916000199060031b1c191617600d8201555b61020060e05101518051906001600160401b038211610d895781906109e0600e850154615b54565b601f8111611165575b50602090601f83116001146110f3576000926110e8575b50508160011b916000199060031b1c191617600e8201555b61022060e0510151805190600160401b8211610d8957600f83015482600f8501558083106110b5575b5060200190600f83016000526020600020916000905b828210610fa0578461024060e0510151805190600160401b8211610d89576010830154826010850155808310610f1e575b506020016010830160005260206000206000915b838310610f005784601181019061026060e05101519160018060a01b038351166001600160601b0360a01b82541617905560208201519182516001600160401b038111610d8957610af06012840154615b54565b601f8111610ecb575b506020601f8211600114610e5d5781929394600092610e52575b50508160011b916000199060031b1c19161760128301555b60408101518051906001600160401b038211610d8957610b4e6013850154615b54565b601f8111610e1d575b50602090601f8311600114610daa57608093929160009183610d9f575b50508160011b916000199060031b1c19161760138401555b606081015160148401550151908151916001600160401b038311610d8957610bb76015830154615b54565b601f8111610d49575b50602090601f8411600114610cd7576016939160009183610ccc575b50508160011b916000199060031b1c19161760158201555b016102c060e051610c186102808201511515849060ff801983541691151516179055565b6102a0810151835461ff00191690151560081b61ff00161783550151610c3d816154ca565b610c46816154ca565b62ff000082549160101b169062ff0000191617905560a080510151610140517fd9511b74a8730fb510a310d06e88f7bac5eea519789985c0394fef2c2c2ec57c610cab608060608401519301519260405194855260606020860152606085019061526c565b92808403604082015280610cc333956004359561526c565b0390a360018055005b015190508480610bdc565b906015830160005260206000209160005b601f1986168110610d315750918491600193601696601f19811610610d18575b505050811b016015820155610bf4565b015160001960f88460031b161c19169055848080610d08565b91926020600181928685015181550194019201610ce8565b610d7990601584016000526020600020601f860160051c81019160208710610d7f575b601f0160051c01906162c9565b83610bc0565b9091508190610d6c565b634e487b7160e01b600052604160045260246000fd5b015190508580610b74565b906013850160005260206000209160005b601f1985168110610e05575091839160019360809695601f19811610610dec575b505050811b016013840155610b8c565b015160001960f88460031b161c19169055858080610ddc565b91926020600181928685015181550194019201610dbb565b610e4c90601386016000526020600020601f850160051c81019160208610610d7f57601f0160051c01906162c9565b84610b57565b015190508480610b13565b6012840160005260206000209060005b601f1984168110610eb35750600193949583601f19811610610e9a575b505050811b016012830155610b2b565b015160001960f88460031b161c19169055848080610e8a565b9091602060018192858a015181550193019101610e6d565b610efa90601285016000526020600020601f840160051c81019160208510610d7f57601f0160051c01906162c9565b84610af9565b6005602082610f126001945186616329565b01920192019190610a9c565b6005818102048103610f8a576005838102048303610f8a576010840160005260206000208360050281015b8260050282018110610f5c575050610a88565b8060006005925560006001820155610f76600282016162e0565b600060038201556000600482015501610f49565b634e487b7160e01b600052601160045260246000fd5b80518051906001600160401b038211610d8957610fbd8654615b54565b601f8111611083575b50602090601f8311600114611013579282600194936020938695600092611008575b5050600019600383901b1c191690841b1787555b01940191019092610a57565b015190508a80610fe8565b908660005260206000209160005b601f198516811061106b575083602093600196938796938794601f19811610611052575b505050811b018755610ffc565b015160001960f88460031b161c191690558a8080611045565b91926020600181928685015181550194019201611021565b6110af90876000526020600020601f850160051c81019160208610610d7f57601f0160051c01906162c9565b87610fc6565b600f84016000526020600020908382015b81830181106110d6575050610a41565b806110e26001926162e0565b016110c6565b015190508380610a00565b9250600e84016000526020600020906000935b601f198416851061114a576001945083601f19811610611131575b505050811b01600e820155610a18565b015160001960f88460031b161c19169055838080611121565b81810151835560209485019460019093019290910190611106565b61119490600e86016000526020600020601f850160051c81019160208610610d7f57601f0160051c01906162c9565b846109e9565b0151905083806109a0565b9250600d84016000526020600020906000935b601f19841685106111fc576001945083601f198116106111e3575b505050811b01600d8201556109b8565b015160001960f88460031b161c191690558380806111d3565b818101518355602094850194600190930192909101906111b8565b61124690600d86016000526020600020601f850160051c81019160208610610d7f57601f0160051c01906162c9565b84610989565b634e487b7160e01b600052602160045260246000fd5b0151905083806108d0565b9250600a84016000526020600020906000935b601f19841685106112c4576001945083601f198116106112ab575b505050811b01600a8201556108e8565b015160001960f88460031b161c1916905583808061129b565b81810151835560209485019460019093019290910190611280565b61130e90600a86016000526020600020601f850160051c81019160208610610d7f57601f0160051c01906162c9565b846108b9565b015190508380610850565b9250600684016000526020600020906000935b601f1984168510611376576001945083601f1981161061135d575b505050811b016006820155610868565b015160001960f88460031b161c1916905583808061134d565b81810151835560209485019460019093019290910190611332565b6113c090600686016000526020600020601f850160051c81019160208610610d7f57601f0160051c01906162c9565b84610839565b0151905083806107f1565b9250600584016000526020600020906000935b601f1984168510611428576001945083601f1981161061140f575b505050811b016005820155610809565b015160001960f88460031b161c191690558380806113ff565b818101518355602094850194600190930192909101906113e4565b61147290600586016000526020600020601f850160051c81019160208610610d7f57601f0160051c01906162c9565b846107da565b015190508380610792565b9250600484016000526020600020906000935b601f19841685106114da576001945083601f198116106114c1575b505050811b0160048201556107aa565b015160001960f88460031b161c191690558380806114b1565b81810151835560209485019460019093019290910190611496565b61152490600486016000526020600020601f850160051c81019160208610610d7f57601f0160051c01906162c9565b8461077b565b80518051906001600160401b038211610d89576115478654615b54565b601f811161160d575b50602090601f831160011461159d579282600194936020938695600092611592575b5050600019600383901b1c191690841b1787555b01940191019092610743565b015190508a80611572565b908660005260206000209160005b601f19851681106115f5575083602093600196938796938794601f198116106115dc575b505050811b018755611586565b015160001960f88460031b161c191690558a80806115cf565b919260206001819286850151815501940192016115ab565b61163a908760005260206000206005601f8601811c82019260208710611640575b601f01901c01906162c9565b87611550565b919250829161162e565b600384016000526020600020908382015b818301811061166b57505061072d565b806116776001926162e0565b0161165b565b0151905083806106ed565b9250600284016000526020600020906000935b601f19841685106116df576001945083601f198116106116c6575b505050811b016002820155610705565b015160001960f88460031b161c191690558380806116b6565b8181015183556020948501946001909301929091019061169b565b61172990600286016000526020600020601f850160051c81019160208610610d7f57601f0160051c01906162c9565b846106d6565b60405162461bcd60e51b815260206004820152601b60248201527f43616e6e6f74206368616e67652073656c6c65722077616c6c657400000000006044820152606490fd5b506000546001600160a01b03163314610425565b34610265576020366003190112610265576117c26117bd600435600052600460205260018060a01b0360406000205416151590565b615ae5565b60006040516117d081615345565b526117f86040516117e081615345565b6000815260405191829160208352602083019061526c565b0390f35b3461026557602080600319360112610265576004356000818152600b835260409020600101546001600160a01b03929083163314801561194a575b156119065781600052600d815260406000209260058401805461185c60ff8216616bf3565b600486015442106118c157916002917fd2aa34a4fdbbc6dff6a3e56f46e0f3ae2a31d7785ff3487aa5c95c642acea501949360ff1916905560038601818154166118af575b5416940154604051908152a3005b6118bc8388015487616c8f565b6118a1565b60405162461bcd60e51b815260048101859052601960248201527f41756374696f6e207374696c6c20696e2070726f6772657373000000000000006044820152606490fd5b6064906040519062461bcd60e51b82526004820152601a60248201527f4f6e6c79206f776e65722063616e20656e642061756374696f6e0000000000006044820152fd5b5082600054163314611837565b34610265576080366003190112610265576119706152ac565b6119786152c2565b90606435906044356001600160401b0383116102655736602384011215610265576119dc936119b46119d794369060248160040135910161539c565b926119c76119c28433615d4b565b615c72565b6119d2838383615e13565b61604f565b615d27565b005b34610265576040366003190112610265576004356119fa6152c2565b9080600052600b602081815260018060a01b0393611a2385600160406000200154161515616a01565b83600052828252846011604060002001541633148015611c72575b15611c2357848116948515611bde578460005283835280600160406000200154168614611b825784600052838352611a8460ff60166040600020015460081c16156169be565b84600052838352611aa060ff6016604060002001541615616a42565b84600052600d835260ff60056040600020015416611b2b57611ad49185918260005285855260016040600020015416615e13565b8260005252604060002082601160018301926001600160601b0360a01b938385825416179055019182541617905533907f16392dc525523bcdbdf2494672f3db13beca6eb1f9402b2391b7bef598832c8b600080a4005b60405162461bcd60e51b815260048101849052602960248201527f43616e6e6f74207472616e736665722063617220647572696e67206163746976604482015268329030bab1ba34b7b760b91b6064820152608490fd5b60405162461bcd60e51b815260048101849052602e60248201527f4e6577206f776e6572206d75737420626520646966666572656e742066726f6d60448201526d1031bab93932b73a1037bbb732b960911b6064820152608490fd5b60405162461bcd60e51b815260048101849052601960248201527f496e76616c6964206e6577206f776e65722061646472657373000000000000006044820152606490fd5b60405162461bcd60e51b815260048101839052602160248201527f4f6e6c792073656c6c6572206f722061646d696e2063616e207472616e7366656044820152603960f91b6064820152608490fd5b5084600054163314611a3e565b3461026557602036600319011261026557600435600052600d60205260c06040600020805490600181015490600281015460018060a01b036003830154169060ff6005600485015494015416936040519586526020860152604085015260608401526080830152151560a0820152f35b346102655760003660031901126102655760088054600060015b82811115611d9b5750611d1b90616928565b91600160005b83821115611d3757604051806117f88782615727565b81600052600b60205260406000209160ff6016840154851c1615611d67575b611d61919250616919565b90611d21565b611d9282611d81611d7b611d619592616919565b9561674e565b611d8b828a616978565b5287616978565b50829150611d56565b80600052600b60205260ff601660406000200154851c1615611dc6575b611dc190616919565b611d09565b90611dd3611dc191616919565b919050611db8565b3461026557604036600319011261026557611df46152ac565b6024359081151590818303610265576001600160a01b031691338314611e7157611e439033600052600760205260406000208460005260205260406000209060ff801983541691151516179055565b6040519081527f17307eab39ab6107e8899845ad3d59bd9653f200f220920489ca2b5937696c3160203392a3005b60405162461bcd60e51b815260206004820152601960248201527f4552433732313a20617070726f766520746f2063616c6c6572000000000000006044820152606490fd5b3461026557602080600319360112610265576004359081600052600b9182825260ff611eef8160166040600020015460081c16156169be565b60009160005b8160005285855260106040600020018054821015611f47576004611f1a838693616b0d565b5001541615611f32575b611f2d90616919565b611ef5565b92611f3f611f2d91616919565b939050611f24565b5050929193611f5585615789565b94611f636040519687615360565b808652611f72601f1991615789565b018360005b8281106120235750505060009260005b856000528282526010806040600020018054831015612010576004611fad848893616b0d565b5001541615611fc6575b50611fc190616919565b611f87565b8195611fee611fe8611fc194612009948b600052888852604060002001616b0d565b50616586565b611ff8828b616978565b52612003818a616978565b50616919565b9490611fb7565b604051848152806117f88187018c6154d4565b61202b616285565b82828a010152018490611f77565b6020806003193601126102655760043580600052600b825261206960ff60166040600020015460081c16156169be565b80600052600b8252612094600160ff60166040600020015460101c1661208e816154ca565b14616ba7565b80600052600d825260406000206120b160ff600583015416616bf3565b60048101544210156121bc57600281019081549081341115612189576000848152600b865260409020600101546001600160a01b0391908216331461215157600301805434909455336001600160a01b031985161790559091169081612141575b50507f0e54eff26401bf69b81b26f60bd85ef47f5d85275c1d268d84f68d6897431c47604051923484523393a3005b61214a91616c34565b8280612112565b60405162461bcd60e51b815260048101879052601060248201526f13dddb995c8818d85b9b9bdd08189a5960821b6044820152606490fd5b60405162461bcd60e51b815260048101869052600b60248201526a42696420746f6f206c6f7760a81b6044820152606490fd5b60405162461bcd60e51b815260048101849052600d60248201526c105d58dd1a5bdb88195b991959609a1b6044820152606490fd5b3461026557602080600319360112610265576004356000818152600b835260409020600101546001600160a01b0390811633148015612318575b156122d35781600052600d835260406000206005810191600383549261225360ff8516616bf3565b01541661228e5760ff191690556040516000808252927fd2aa34a4fdbbc6dff6a3e56f46e0f3ae2a31d7785ff3487aa5c95c642acea50191a3005b60405162461bcd60e51b815260048101859052601f60248201527f43616e6e6f742063616e63656c2061756374696f6e20776974682062696473006044820152606490fd5b60405162461bcd60e51b815260048101849052601d60248201527f4f6e6c79206f776e65722063616e2063616e63656c2061756374696f6e0000006044820152606490fd5b508060005416331461222b565b346102655760a0366003190112610265576004356001600160401b03811161026557612355903690600401615820565b6024356001600160401b038111610265576123749036906004016158ed565b6044356001600160401b03811161026557612393903690600401615975565b906064356001600160401b038111610265576123b39036906004016159f5565b6101e05260026084351015610265576123ca616489565b6123e160018060a01b036101e051511633146160ca565b6101e051516001600160a01b031615613aaf576124018351511515616116565b60408301515115613a6a5761241c6020840151511515616159565b61242c60608401515115156161a5565b61243c60808401515115156161e8565b60a083015161076c81119081613a4c575b5015613a185760c0830151156139dd5761246c60a08201511515616239565b815151156139985760208201515115613953576040820151511561390f5760206101e051015151156138ca5760406101e0510151511561388d5760606101e0510151156138485760806101e0510151511561380357600160085401918260085583516101005260208401516040850151906060860151608087015160a088015160c0890151875160208901519160408a015193600385101561124c5760608b015195612517876154ca565b60808c015197600489101561124c578b9a8e9a60a08f01519b8d519d602001519e6040015161012052604051806101c05261255190615345565b6101c05160009052604051806101805261256a9061530e565b6101805152336101805160200152610100516101805160400152610180516060015261018051608001526101805160a001526101805160c001526101805160e001526101805161010001526101805161012001526101805161014001526101805161016001906125d9916162b1565b6125e2816154ca565b610180516101800152610180516101a001906125fd916162bd565b610180516101c00152610180516101e00152610180516102000152610120516101805161022001526101c0516101805161024001526101e051610180516102600152610180516102800160009052610180516102a00160009052608435612663906154ca565b608435610180516102c0015281600052600b60205260406000206101805180518255600160a01b600190036020820151166001600160601b0360a01b600184015416176001830155604001518051906001600160401b038211610d895781906126cf6002850154615b54565b601f81116137ce575b50602090601f831160011461375c57600092613751575b50508160011b916000199060031b1c19161760028201555b6060610180510151805190600160401b8211610d8957600383015482600385015580831061371e575b5060200190600383016000526020600020916000905b828210613609575050505060806101805101518051906001600160401b038211610d895781906127796004850154615b54565b601f81116135d4575b50602090601f831160011461356257600092613557575b50508160011b916000199060031b1c19161760048201555b60a06101805101518051906001600160401b038211610d895781906127d96005850154615b54565b601f8111613522575b50602090601f83116001146134b0576000926134a5575b50508160011b916000199060031b1c19161760058201555b60c06101805101518051906001600160401b038211610d895781906128396006850154615b54565b601f8111613470575b50602090601f83116001146133fe576000926133f3575b50508160011b916000199060031b1c19161760068201555b6101406101805160e081015160078401556101008101516008840155610120810151600984015501518051906001600160401b038211610d895781906128ba600a850154615b54565b601f81116133be575b50602090601f831160011461334c57600092613341575b50508160011b916000199060031b1c191617600a8201555b61018051610160810151600381101561124c57610180600b8401549201519061291a826154ca565b612923826154ca565b61018051916101a0830151600481101561124c576101e09460ff62ff000061ff009360101b1694169062ffffff1916179160081b161717600b8401556101c0810151600c84015501518051906001600160401b038211610d8957819061298c600d850154615b54565b601f811161330c575b50602090601f831160011461329a5760009261328f575b50508160011b916000199060031b1c191617600d8201555b6102006101805101518051906001600160401b038211610d895781906129ed600e850154615b54565b601f811161325a575b50602090601f83116001146131e8576000926131dd575b50508160011b916000199060031b1c191617600e8201555b610220610180510151805190600160401b8211610d8957600f83015482600f8501558083106131aa575b5060200190600f83016000526020600020916000905b8282106130955750505050610240610180510151805190600160401b8211610d89576010830154826010850155808310613029575b506020016010830160005260206000206000915b83831061300b5750505050601181016102606101805101519060018060a01b038251166001600160601b0360a01b82541617905560208101518051906001600160401b038211610d89578190612b076012860154615b54565b601f8111612fd6575b50602090601f8311600114612f6457600092612f59575b50508160011b916000199060031b1c19161760128301555b60408101518051906001600160401b038211610d8957612b626013850154615b54565b601f8111612f24575b50602090601f8311600114612eb157608093929160009183612ea6575b50508160011b916000199060031b1c19161760138401555b6060810151601484015501518051906001600160401b038211610d8957612bca6015840154615b54565b601f8111612e71575b50602090601f8311600114612dfe57601693929160009183612df3575b50508160011b916000199060031b1c19161760158201555b016102c061018051612c2d6102808201511515849060ff801983541691151516179055565b6102a0810151835461ff00191690151560081b61ff00161783550151612c52816154ca565b612c5b816154ca565b62ff000082549160101b169062ff00001916179055604051612c7c81615345565b600081523315612daf577f5b34f0e4a34a289b00e4a152dfdeb90a4b2a8c201b6f38d35c078560382a2b7691612d5f6119d760a093612cd9612cd388600052600460205260018060a01b0360406000205416151590565b156164df565b600087815260046020526040902054612cfc906001600160a01b03161515612cd3565b3360005260056020526040600020600181540190558660005260046020526040600020336001600160601b03871b825416179055863360007fddf252ad1be2c89b69c2b068fc378daa952ba7f163c4a11628f55a4df523b3ef8180a48633615f54565b0151612d9d606085015194612d8f60a060808301519201519660405194855260806020860152608085019061526c565b90838203604085015261526c565b9360608201528033940390a360018055005b606460405162461bcd60e51b815260206004820152602060248201527f4552433732313a206d696e7420746f20746865207a65726f20616464726573736044820152fd5b015190508780612bf0565b906015840160005260206000209160005b601f1985168110612e59575091839160019360169695601f19811610612e40575b505050811b016015820155612c08565b015160001960f88460031b161c19169055878080612e30565b91926020600181928685015181550194019201612e0f565b612ea090601585016000526020600020601f850160051c81019160208610610d7f57601f0160051c01906162c9565b86612bd3565b015190508880612b88565b906013850160005260206000209160005b601f1985168110612f0c575091839160019360809695601f19811610612ef3575b505050811b016013840155612ba0565b015160001960f88460031b161c19169055888080612ee3565b91926020600181928685015181550194019201612ec2565b612f5390601386016000526020600020601f850160051c81019160208610610d7f57601f0160051c01906162c9565b87612b6b565b015190508780612b27565b9250601285016000526020600020906000935b601f1984168510612fbb576001945083601f19811610612fa2575b505050811b016012830155612b3f565b015160001960f88460031b161c19169055878080612f92565b81810151835560209485019460019093019290910190612f77565b61300590601287016000526020600020601f850160051c81019160208610610d7f57601f0160051c01906162c9565b88612b10565b600560208261301d6001945186616329565b01920192019190612aae565b6005818102048103610f8a576005838102048303610f8a576010840160005260206000208360050281015b8260050282018110613067575050612a9a565b8060006005925560006001820155613081600282016162e0565b600060038201556000600482015501613054565b80518051906001600160401b038211610d89576130b28654615b54565b601f8111613178575b50602090601f83116001146131085792826001949360209386956000926130fd575b5050600019600383901b1c191690841b1787555b01940191019092612a65565b015190508d806130dd565b908660005260206000209160005b601f1985168110613160575083602093600196938796938794601f19811610613147575b505050811b0187556130f1565b015160001960f88460031b161c191690558d808061313a565b91926020600181928685015181550194019201613116565b6131a490876000526020600020601f850160051c81019160208610610d7f57601f0160051c01906162c9565b8a6130bb565b600f84016000526020600020908382015b81830181106131cb575050612a4f565b806131d76001926162e0565b016131bb565b015190508680612a0d565b9250600e84016000526020600020906000935b601f198416851061323f576001945083601f19811610613226575b505050811b01600e820155612a25565b015160001960f88460031b161c19169055868080613216565b818101518355602094850194600190930192909101906131fb565b61328990600e86016000526020600020601f850160051c81019160208610610d7f57601f0160051c01906162c9565b876129f6565b0151905086806129ac565b9250600d84016000526020600020906000935b601f19841685106132f1576001945083601f198116106132d8575b505050811b01600d8201556129c4565b015160001960f88460031b161c191690558680806132c8565b818101518355602094850194600190930192909101906132ad565b61333b90600d86016000526020600020601f850160051c81019160208610610d7f57601f0160051c01906162c9565b87612995565b0151905086806128da565b9250600a84016000526020600020906000935b601f19841685106133a3576001945083601f1981161061338a575b505050811b01600a8201556128f2565b015160001960f88460031b161c1916905586808061337a565b8181015183556020948501946001909301929091019061335f565b6133ed90600a86016000526020600020601f850160051c81019160208610610d7f57601f0160051c01906162c9565b876128c3565b015190508680612859565b9250600684016000526020600020906000935b601f1984168510613455576001945083601f1981161061343c575b505050811b016006820155612871565b015160001960f88460031b161c1916905586808061342c565b81810151835560209485019460019093019290910190613411565b61349f90600686016000526020600020601f850160051c81019160208610610d7f57601f0160051c01906162c9565b87612842565b0151905086806127f9565b9250600584016000526020600020906000935b601f1984168510613507576001945083601f198116106134ee575b505050811b016005820155612811565b015160001960f88460031b161c191690558680806134de565b818101518355602094850194600190930192909101906134c3565b61355190600586016000526020600020601f850160051c81019160208610610d7f57601f0160051c01906162c9565b876127e2565b015190508680612799565b9250600484016000526020600020906000935b601f19841685106135b9576001945083601f198116106135a0575b505050811b0160048201556127b1565b015160001960f88460031b161c19169055868080613590565b81810151835560209485019460019093019290910190613575565b61360390600486016000526020600020601f850160051c81019160208610610d7f57601f0160051c01906162c9565b87612782565b80518051906001600160401b038211610d89576136268654615b54565b601f81116136ec575b50602090601f831160011461367c579282600194936020938695600092613671575b5050600019600383901b1c191690841b1787555b01940191019092612746565b015190508d80613651565b908660005260206000209160005b601f19851681106136d4575083602093600196938796938794601f198116106136bb575b505050811b018755613665565b015160001960f88460031b161c191690558d80806136ae565b9192602060018192868501518155019401920161368a565b613718908760005260206000206005601f8601811c8201926020871061164057601f01901c01906162c9565b8a61362f565b600384016000526020600020908382015b818301811061373f575050612730565b8061374b6001926162e0565b0161372f565b0151905086806126ef565b9250600284016000526020600020906000935b601f19841685106137b3576001945083601f1981161061379a575b505050811b016002820155612707565b015160001960f88460031b161c1916905586808061378a565b8181015183556020948501946001909301929091019061376f565b6137fd90600286016000526020600020601f850160051c81019160208610610d7f57601f0160051c01906162c9565b876126d8565b60405162461bcd60e51b815260206004820152601d60248201527f50726f66696c6520696d6167652063616e6e6f7420626520656d7074790000006044820152606490fd5b60405162461bcd60e51b815260206004820152601c60248201527f50686f6e65206e756d6265722063616e6e6f7420626520656d707479000000006044820152606490fd5b60405162461bcd60e51b8152602060048201526015602482015274456d61696c2063616e6e6f7420626520656d70747960581b6044820152606490fd5b60405162461bcd60e51b815260206004820152601b60248201527f53656c6c6572206e616d652063616e6e6f7420626520656d70747900000000006044820152606490fd5b606460405162461bcd60e51b815260206004820152602060248201527f4174206c65617374206f6e6520666561747572652069732072657175697265646044820152fd5b60405162461bcd60e51b815260206004820152601b60248201527f43617220686973746f72792063616e6e6f7420626520656d70747900000000006044820152606490fd5b60405162461bcd60e51b815260206004820152601860248201527f4c6f636174696f6e2063616e6e6f7420626520656d70747900000000000000006044820152606490fd5b60405162461bcd60e51b815260206004820152601360248201527256494e2063616e6e6f7420626520656d70747960681b6044820152606490fd5b60405162461bcd60e51b815260206004820152600c60248201526b24b73b30b634b2103cb2b0b960a11b6044820152606490fd5b90506301e133804204906107b28201809211610f8a5711158461244d565b60405162461bcd60e51b815260206004820152601b60248201527f4465736372697074696f6e2063616e6e6f7420626520656d70747900000000006044820152606490fd5b60405162461bcd60e51b8152602060048201526016602482015275496e76616c69642073656c6c65722064657461696c7360501b6044820152606490fd5b34610265576000366003190112610265576040516000600354613b0f81615b54565b80845290600190818116908115613ba85750600114613b4d575b6117f884613b3981860382615360565b60405191829160208352602083019061526c565b6003600090815292507fc2575a0e9e593c00f959f8c92f12db2869c3395a3b0502d05e2516446f71f85b5b828410613b90575050508101602001613b3982613b29565b80546020858701810191909152909301928101613b78565b60ff191660208087019190915292151560051b85019092019250613b399150839050613b29565b346102655760603660031901126102655760043560248035906044803584600052602092600b845260018060a01b039283600160406000200154163303613ede5786600052600b8552613c2d60ff6016604060002001541615616b68565b86600052600b8552613c4d60ff60166040600020015460081c16156169be565b86600052600b8552613c72600160ff60166040600020015460101c1661208e816154ca565b821590811580613ed3575b15613e91578615613e415787600052600d865260ff60056040600020015416613e065787600052600b865286600c6040600020015410613da9575062015180808402938404141715613d955750917f44c53be110c6aa83aa83cd02e351ed172359268272ee1b5d31c0fe48db35c6c79391613d88613cfd6040954261622c565b916005865191613d0c836152f3565b89835285830190878252888401908882526060850191600083526080860197885260a0860193600185528d600052600d8a528b60002096518755516001870155516002860155600385019151166001600160601b0360a01b825416179055600483019451855551151591019060ff801983541691151516179055565b54908351928352820152a2005b634e487b7160e01b60009081526011600452fd5b857f5374617274696e672070726963652063616e6e6f7420626520686967686572206084926032866040519462461bcd60e51b86526004860152840152820152717468616e206c697374696e6720707269636560701b6064820152fd5b857541756374696f6e20616c72656164792061637469766560501b6064926016866040519462461bcd60e51b86526004860152840152820152fd5b857f5374617274696e67207072696365206d757374206265206772656174657220746084926025866040519462461bcd60e51b8652600486015284015282015264068616e20360dc1b6064820152fd5b857f496e76616c69642061756374696f6e206475726174696f6e00000000000000006064926018866040519462461bcd60e51b86526004860152840152820152fd5b50601e841115613c7d565b7f4f6e6c79206f776e65722063616e2073746172742061756374696f6e000000008591601c6064946040519462461bcd60e51b86526004860152840152820152fd5b34610265576000366003190112610265576000546040516001600160a01b039091168152602090f35b3461026557600036600319011261026557613f62615a8d565b600080546001600160a01b0319811682556001600160a01b03167f8be0079c531659141344cd1fd0a4f28419497f9722a3daafe3b4186f6b6457e08280a3005b34610265576020366003190112610265576001600160a01b03613fc36152ac565b168015613fe25760005260056020526020604060002054604051908152f35b60405162461bcd60e51b815260206004820152602960248201527f4552433732313a2061646472657373207a65726f206973206e6f7420612076616044820152683634b21037bbb732b960b91b6064820152608490fd5b6020806003193601126102655760043590614052616489565b81600052600b80825261407360ff60166040600020015460081c16156169be565b600083815281835260409020600101546001600160a01b03906140999082161515616a01565b836000528183526140b560ff6016604060002001541615616a42565b836000528183526001604060002001541633146142325733156141f55734156141a2578260005280825260ff60166040600020015460101c166140f7816154ca565b61415d57826000528152600c6040600020015434036141205761411a3483616c8f565b60018055005b6064906040519062461bcd60e51b825260048201526016602482015275115e1858dd081c185e5b595b9d081c995c5d5a5c995960521b6044820152fd5b60405162461bcd60e51b815260048101839052601e60248201527f55736520706c61636542696420666f722061756374696f6e206974656d7300006044820152606490fd5b60405162461bcd60e51b815260048101839052602560248201527f5061796d656e7420616d6f756e74206d75737420626520677265617465722074604482015264068616e20360dc1b6064820152608490fd5b60405162461bcd60e51b8152600481018390526015602482015274496e76616c6964206275796572206164647265737360581b6044820152606490fd5b60405162461bcd60e51b815260048101839052601760248201527f43616e6e6f742062757920796f7572206f776e206361720000000000000000006044820152606490fd5b34610265576020366003190112610265576020614295600435615b31565b6040516001600160a01b039091168152f35b346102655760208060031936011261026557600435906142c5616489565b6000828152600b825260409020600101546001600160a01b039081163314801561447b575b6142f39061652b565b82600052600b825260ff60166040600020015460081c166144405782600052600d825260ff600560406000200154166143eb578291600091838352600b82526016604084200161010061ff001982541617905561434f84615b31565b50600461435b85615b31565b918585526006845260408520926001600160601b0360a01b93848154169055169283855260058152604085208519815401905585855252604083209081541690557fddf252ad1be2c89b69c2b068fc378daa952ba7f163c4a11628f55a4df523b3ef8280a47f4c55d56c6d5ae877d9ec949f0c19f4a20401bbb79d1b387785dcae7a1a6010c0600080a260018055005b60405162461bcd60e51b815260048101839052602760248201527f43616e6e6f742064656c6574652063617220647572696e67206163746976652060448201526630bab1ba34b7b760c91b6064820152608490fd5b60405162461bcd60e51b815260048101839052601360248201527210d85c88185b1c9958591e4819195b195d1959606a1b6044820152606490fd5b50600054811633146142ea565b34610265576020366003190112610265576144a161662c565b50600435600052600b6020526117f86144bd604060002061674e565b604051918291602083526020830190615530565b34610265576119dc6119d76144e536615439565b90604051926144f384615345565b600084526119c76119c28433615d4b565b346102655760003660031901126102655760088054600060015b828111156145b5575061453090616928565b91600160005b8382111561454c57604051806117f88782615727565b81600052600b60205260406000209160ff6016840154851c16158061459f575b614582575b61457c919250616919565b90614536565b61459682611d81611d7b61457c9592616919565b50829150614571565b5060018301546001600160a01b0316331461456c565b80600052600b602052604060002060ff6016820154861c161590816145fe575b506145e9575b6145e490616919565b61451e565b906145f66145e491616919565b9190506145db565b600101546001600160a01b031633149050856145d5565b346102655760003660031901126102655760006001600854905b818111156147b2575061464182615789565b9161464f6040519384615360565b80835261465e601f1991615789565b0160005b81811061477f57505060006001905b828211156146de5760408051602080825286518183018190528188019383019160005b8281106146a15784840385f35b8551805185528083015185840152604080820151908601526060908101516001600160a01b03169085015294810194608090930192600101614694565b600093919293905b836000526020600c815260406000208054841015614768579161475c9161471085614762956169a2565b506040519161471e836152d8565b8154835260018201549083015260028101546040830152600301546001600160a01b031660608201526147518287616978565b526120038186616978565b91616919565b906146e6565b5050926147789150939193616919565b9091614671565b60209060405161478e816152d8565b60008152826000818301526000604083015260006060830152828701015201614662565b916147cf6147d59184600052600c6020526040600020549061622c565b92616919565b61462f565b34610265576040366003190112610265576004356024356001600160401b0381116102655761480d9036906004016153d3565b9061481a82511515616a82565b806000526020600b815260ff60166040600020015460081c1661496b576000828152600b825260409020600101546001600160a01b039061485e9082161515616a01565b82600052600b825260016040600020015416331461492757600b906148886103e885511115616ace565b6001600a54019384600a5561489b616285565b94855233828601526040850152426060850152826000525260106040600020018054600160401b811015610d89576148d891600182018155616b0d565b61491157826148e691616329565b339151907fa2a1dee4425c37116291ab4d233678a915201b947533b0d540def4d8fca8d28f600080a4005b634e487b7160e01b600052600060045260246000fd5b6064906040519062461bcd60e51b82526004820152601a60248201527f43616e6e6f742072657669657720796f7572206f776e206361720000000000006044820152fd5b6084906040519062461bcd60e51b82526004820152602160248201527f43617220686173206265656e2064656c657465642066726f6d206c697374696e6044820152606760f81b6064820152fd5b34610265576040366003190112610265576004356024359080600052600b60209080825260018060a01b03906001926149fc838560406000200154161515616a01565b84600052818152614a1b60ff60166040600020015460081c16156169be565b6000928380865b614b69575b50614a3190616b29565b856000528282528085614a4b866010604060002001616b0d565b500154163314908115614b5b575b5015614b0d578460005281815260ff6004614a7b856010604060002001616b0d565b50015416614ad05791614a9d9160049386600052526010604060002001616b0d565b50019060ff198254161790557ffe09911b3ec9652ef94a11286713bd397f2fb090f28c62303451d8040ff62c62600080a3005b6064906040519062461bcd60e51b82526004820152601660248201527514995d9a595dc8185b1c9958591e4819195b195d195960521b6044820152fd5b6084906040519062461bcd60e51b82526004820152602160248201527f4f6e6c79207265766965776572206f722061646d696e2063616e2064656c65746044820152606560f81b6064820152fd5b905060005416331487614a59565b9694939291908560005283835288601060406000200180548a1015614bc857614b938a8392616b0d565b505414614bb657614ba78899989798616919565b91929394959697989050614a22565b50949694509192509084614a31614a27565b5050909192939496614a27565b34610265576119dc614be636615439565b91614bf46119c28433615d4b565b615e13565b34610265576060366003190112610265576044356001600160401b03811161026557614c299036906004016153d3565b614c31616285565b50600435600052600b602052614c5560ff60166040600020015460081c16156169be565b600435600052600b6020526001614c7c60018060a01b038260406000200154161515616a01565b614c8882511515616a82565b614c976103e883511115616ace565b600091602435918380825b614f71575b50614cb190616b29565b600435600052600b602052614ccd846010604060002001616b0d565b508101546001600160a01b031633148015614f5d575b15614f0e57600435600052600b60205260ff6004614d08866010604060002001616b0d565b50015416614ec957600435600052600b6020526002614d2e856010604060002001616b0d565b5001908251906001600160401b038211610d8957614d4c8354615b54565b601f8111614e97575b506020601f8311600114614e2557928280614e069794611fe897946117f89a97600093614e1a575b501b916000199060031b1c19161790555b600435600052600b602052614daa836010604060002001616b0d565b506003429101557fe6bca0b1ae68aa3c3101325a30603b90848b1cb037d020c24548cc433db5e6616040516020815280614deb60043594602083019061526c565b0390a3600435600052600b6020526010604060002001616b0d565b6040519182916020835260208301906153f1565b86015192508b614d7d565b601f929192198216908460005260206000209160005b818110614e815750926117f8989592614e0698959282611fe8999610614e68575b5050811b019055614d8e565b85015160001960f88460031b161c191690558980614e5c565b8783015184559285019260209283019201614e3b565b614ec390846000526020600020601f850160051c81019160208610610d7f57601f0160051c01906162c9565b86614d55565b60405162461bcd60e51b815260206004820152601760248201527f52657669657720686173206265656e2064656c657465640000000000000000006044820152606490fd5b60405162461bcd60e51b815260206004820152602160248201527f4f6e6c79207265766965776572206f722061646d696e2063616e2075706461746044820152606560f81b6064820152608490fd5b506000546001600160a01b03163314614ce3565b600435600052600b6020528460106040600020018054831015614fbc5782614f9891616b0d565b505414614faf57614fa98391616919565b90614ca2565b9450819050614cb1614ca7565b5050614ca7565b3461026557604036600319011261026557614fdc6152ac565b602435906001600160a01b038080614ff385615b31565b169216918083146150ee578033149081156150c9575b501561505e57600083815260066020526040902080546001600160a01b0319168317905561503683615b31565b167f8c5be1e5ebec7d5bd14f71427d1e84f3dd0314c0f7b2291e5b200ac8c7c3b925600080a4005b60405162461bcd60e51b815260206004820152603d60248201527f4552433732313a20617070726f76652063616c6c6572206973206e6f7420746f60448201527f6b656e206f776e6572206f7220617070726f76656420666f7220616c6c0000006064820152608490fd5b9050600052600760205260406000203360005260205260ff6040600020541684615009565b60405162461bcd60e51b815260206004820152602160248201527f4552433732313a20617070726f76616c20746f2063757272656e74206f776e656044820152603960f91b6064820152608490fd5b34610265576020366003190112610265576020614295600435615c34565b3461026557600036600319011261026557604051600060025461517d81615b54565b80845290600190818116908115613ba857506001146151a6576117f884613b3981860382615360565b6002600090815292507f405787fa12a823e0f2b7631cc41b3ba8828b3321ca811111fa75cd3aa3bb5ace5b8284106151e9575050508101602001613b3982613b29565b805460208587018101919091529093019281016151d1565b34610265576020366003190112610265576004359063ffffffff60e01b8216809203610265576020916380ac58cd60e01b811490811561525b575b811561524a575b5015158152f35b6301ffc9a760e01b14905083615243565b635b5e139f60e01b8114915061523c565b919082519283825260005b848110615298575050826000602080949584010152601f8019910116010190565b602081830181015184830182015201615277565b600435906001600160a01b038216820361026557565b602435906001600160a01b038216820361026557565b608081019081106001600160401b03821117610d8957604052565b60c081019081106001600160401b03821117610d8957604052565b6102e081019081106001600160401b03821117610d8957604052565b60a081019081106001600160401b03821117610d8957604052565b602081019081106001600160401b03821117610d8957604052565b90601f801991011681019081106001600160401b03821117610d8957604052565b6001600160401b038111610d8957601f01601f191660200190565b9291926153a882615381565b916153b66040519384615360565b829481845281830111610265578281602093846000960137010152565b9080601f83011215610265578160206153ee9335910161539c565b90565b908151815260018060a01b036020830151166020820152608080615424604085015160a0604086015260a085019061526c565b93606081015160608501520151151591015290565b6060906003190112610265576001600160a01b0390600435828116810361026557916024359081168103610265579060443590565b908082519081815260208091019281808460051b8301019501936000915b84831061549c5750505050505090565b90919293949584806154ba600193601f198682030187528a5161526c565b980193019301919493929061548c565b6002111561124c57565b908082519081815260208091019281808460051b8301019501936000915b8483106155025750505050505090565b9091929394958480615520600193601f198682030187528a516153f1565b98019301930191949392906154f2565b908151815260018060a01b038060208401511660208301526155ec6155b86155a661559461558261557060408901516102e08060408b015289019061526c565b606089015188820360608a015261546e565b6080880151878203608089015261526c565b60a087015186820360a088015261526c565b60c086015185820360c087015261526c565b60e085015160e08501526101008086015190850152610120808601519085015261014080860151908583039086015261526c565b906101608085015190600382101561124c578401526101808085015190615612826154ca565b8401526101a08085015192600484101561124c5761566e61565a615682926156f696615696958901526101c0808a0151908901526101e0808a015190898303908a015261526c565b61020080890151908883039089015261526c565b61022080880151908783039088015261546e565b6102408087015190868303908701526154d4565b61026091828601519285830390860152825116815260806156db6156c9602085015160a0602086015260a085019061526c565b6040850151848203604086015261526c565b9260608101516060840152015190608081840391015261526c565b91610280808201511515908301526102a0808201511515908301526102c08091015191615722836154ca565b015290565b602080820190808352835180925260408301928160408460051b8301019501936000915b84831061575b5750505050505090565b9091929394958480615779600193603f198682030187528a51615530565b980193019301919493929061574b565b6001600160401b038111610d895760051b60200190565b9080601f83011215610265578135906157b882615789565b926157c66040519485615360565b828452602092838086019160051b8301019280841161026557848301915b8483106157f45750505050505090565b82356001600160401b038111610265578691615815848480948901016153d3565b8152019201916157e4565b919060e08382031261026557604051906001600160401b039060e0830182811184821017610d89576040528294803583811161026557826158629183016153d3565b84526020810135838111610265578261587c9183016157a0565b6020850152604081013583811161026557826158999183016153d3565b6040850152606081013583811161026557826158b69183016153d3565b60608501526080810135928311610265576158d760c09392849383016153d3565b608085015260a081013560a08501520135910152565b91909160c0818403126102655760405190615907826152f3565b8193813583526020820135906001600160401b0382116102655761592c9183016153d3565b602083015260408101356003811015610265576040830152606081013560028110156102655760608301526080810135600481101561026557608083015260a090810135910152565b91909160608184031261026557604051906001600160401b03906060830182811184821017610d89576040528294813583811161026557816159b89184016153d3565b8452602082013583811161026557816159d29184016153d3565b60208501526040820135928311610265576040926159f092016157a0565b910152565b919060a0838203126102655760405190615a0e8261532a565b909283919080356001600160a01b03811681036102655783526001600160401b039160208201358381116102655781615a489184016153d3565b602085015260408201358381116102655781615a659184016153d3565b6040850152606082013560608501526080820135928311610265576080926159f092016153d3565b6000546001600160a01b03163303615aa157565b606460405162461bcd60e51b815260206004820152602060248201527f4f776e61626c653a2063616c6c6572206973206e6f7420746865206f776e65726044820152fd5b15615aec57565b60405162461bcd60e51b815260206004820152601860248201527f4552433732313a20696e76616c696420746f6b656e20494400000000000000006044820152606490fd5b6000908152600460205260409020546001600160a01b03166153ee811515615ae5565b90600182811c92168015615b84575b6020831014615b6e57565b634e487b7160e01b600052602260045260246000fd5b91607f1691615b63565b9060405191826000825492615ba284615b54565b908184526001948581169081600014615c115750600114615bce575b5050615bcc92500383615360565b565b9093915060005260209081600020936000915b818310615bf9575050615bcc93508201013880615bbe565b85548884018501529485019487945091830191615be1565b915050615bcc94506020925060ff191682840152151560051b8201013880615bbe565b600081815260046020526040902054615c57906001600160a01b03161515615ae5565b6000908152600660205260409020546001600160a01b031690565b15615c7957565b60405162461bcd60e51b815260206004820152602d60248201527f4552433732313a2063616c6c6572206973206e6f7420746f6b656e206f776e6560448201526c1c881bdc88185c1c1c9bdd9959609a1b6064820152608490fd5b60809060208152603260208201527f4552433732313a207472616e7366657220746f206e6f6e20455243373231526560408201527131b2b4bb32b91034b6b83632b6b2b73a32b960711b60608201520190565b15615d2e57565b60405162461bcd60e51b815280615d4760048201615cd4565b0390fd5b906001600160a01b038080615d5f84615b31565b16931691838314938415615d92575b508315615d7c575b50505090565b615d8891929350615c34565b1614388080615d76565b909350600052600760205260406000208260005260205260ff604060002054169238615d6e565b15615dc057565b60405162461bcd60e51b815260206004820152602560248201527f4552433732313a207472616e736665722066726f6d20696e636f72726563742060448201526437bbb732b960d91b6064820152608490fd5b90615e3b91615e2184615b31565b6001600160a01b0393918416928492909183168414615db9565b16918215615ed35781615e5891615e5186615b31565b1614615db9565b7fddf252ad1be2c89b69c2b068fc378daa952ba7f163c4a11628f55a4df523b3ef60008481526006602052604081206001600160601b0360a01b9081815416905583825260056020526040822060001981540190558482526040822060018154019055858252600460205284604083209182541617905580a4565b60405162461bcd60e51b8152602060048201526024808201527f4552433732313a207472616e7366657220746f20746865207a65726f206164646044820152637265737360e01b6064820152608490fd5b3d15615f4f573d90615f3582615381565b91615f436040519384615360565b82523d6000602084013e565b606090565b9091600091803b1561604657615f9f6020918493604051948580948193630a85bd0160e11b9a8b8452336004850152846024850152604484015260806064840152608483019061526c565b03926001600160a01b03165af190829082615ff7575b5050615fe957615fc3615f24565b80519081615fe45760405162461bcd60e51b815280615d4760048201615cd4565b602001fd5b6001600160e01b0319161490565b909192506020813d821161603e575b8161601360209383615360565b8101031261603a5751906001600160e01b0319821682036160375750903880615fb5565b80fd5b5080fd5b3d9150616006565b50505050600190565b91926000929190813b156160c0576020916160a59185604051958680958194630a85bd0160e11b9b8c845233600485015260018060a01b038095166024850152604484015260806064840152608483019061526c565b0393165af190829082615ff7575050615fe957615fc3615f24565b5050505050600190565b156160d157565b60405162461bcd60e51b815260206004820152601f60248201527f53656c6c65722077616c6c6574206d757374206d617463682073656e646572006044820152606490fd5b1561611d57565b60405162461bcd60e51b81526020600482015260146024820152734e616d652063616e6e6f7420626520656d70747960601b6044820152606490fd5b1561616057565b60405162461bcd60e51b815260206004820152601e60248201527f4174206c65617374206f6e6520696d61676520697320726571756972656400006044820152606490fd5b156161ac57565b60405162461bcd60e51b81526020600482015260146024820152734d616b652063616e6e6f7420626520656d70747960601b6044820152606490fd5b156161ef57565b60405162461bcd60e51b81526020600482015260156024820152744d6f64656c2063616e6e6f7420626520656d70747960581b6044820152606490fd5b91908201809211610f8a57565b1561624057565b60405162461bcd60e51b815260206004820152601c60248201527f5072696365206d7573742062652067726561746572207468616e2030000000006044820152606490fd5b604051906162928261532a565b6000608083828152826020820152606060408201528260608201520152565b600382101561124c5752565b600482101561124c5752565b8181106162d4575050565b600081556001016162c9565b6162ea8154615b54565b90816162f4575050565b81601f60009311600114616306575055565b908083918252616325601f60208420940160051c8401600185016162c9565b5555565b8151815560019182820160209060018060a01b0382840151166001600160601b0360a01b82541617905560028301906040830151948551916001600160401b038311610d89576163798454615b54565b601f8111616459575b5080601f84116001146163e557509180806080959360049795615bcc9a6000946163da575b50501b916000199060031b1c19161790555b606081015160038501550151151591019060ff801983541691151516179055565b0151925038806163a7565b9193949596601f1984168660005283600020936000905b82821061644257505092608095928592615bcc9a99966004999610616429575b505050811b0190556163b9565b015160001960f88460031b161c1916905538808061641c565b8088869782949787015181550196019401906163fc565b616483908560005282600020601f860160051c810191848710610d7f57601f0160051c01906162c9565b38616382565b60026001541461649a576002600155565b60405162461bcd60e51b815260206004820152601f60248201527f5265656e7472616e637947756172643a207265656e7472616e742063616c6c006044820152606490fd5b156164e657565b60405162461bcd60e51b815260206004820152601c60248201527f4552433732313a20746f6b656e20616c7265616479206d696e746564000000006044820152606490fd5b1561653257565b60405162461bcd60e51b815260206004820152602660248201527f4f6e6c7920746865206f776e65722063616e20706572666f726d20746869732060448201526530b1ba34b7b760d11b6064820152608490fd5b906040516165938161532a565b608060ff600483958054855260018060a01b0360018201541660208601526165bd60028201615b8e565b6040860152600381015460608601520154161515910152565b9081546165e281615789565b926165f06040519485615360565b818452600090815260208082208186015b84841061660f575050505050565b60058360019261661e85616586565b815201920193019290616601565b604051906166398261530e565b816102c0600091828152826020820152606080604083015280808301528060808301528060a08301528060c08301528360e08301528361010083015283610120830152806101408301528361016083015283610180830152836101a0830152836101c0830152806101e0830152806102008301528061022083015280610240830152604051906166c88261532a565b8482528060208301528060408301528481830152608082015261026082015282610280820152826102a08201520152565b90815461670581615789565b926167136040519485615360565b818452600090815260208082208186015b848410616732575050505050565b600183819261674085615b8e565b815201920193019290616724565b9060405161675b8161530e565b6102c0819380548352601660018060a01b039182600182015416602086015261678660028201615b8e565b6040860152616797600382016166f9565b60608601526167a860048201615b8e565b60808601526167b960058201615b8e565b60a08601526167ca60068201615b8e565b60c0860152600781015460e0860152600881015461010086015260098101546101208601526167fb600a8201615b8e565b610140860152600b8101549261684160ff8561681e828098166101608b016162b1565b818160081c1661682d816154ca565b6101808a015260101c166101a088016162bd565b600c8201546101c0870152616858600d8301615b8e565b6101e087015261686a600e8301615b8e565b61020087015261687c600f83016166f9565b61022087015261688e601083016165d6565b610240870152604051906168a18261532a565b60118301541681526168b560128301615b8e565b60208201526168c660138301615b8e565b6040820152601482015460608201526168e160158301615b8e565b608082015261026086015201548181161515610280850152818160081c1615156102a085015260101c1691616915836154ca565b0152565b6000198114610f8a5760010190565b9061693282615789565b61693f6040519182615360565b8281528092616950601f1991615789565b019060005b82811061696157505050565b60209061696c61662c565b82828501015201616955565b805182101561698c5760209160051b010190565b634e487b7160e01b600052603260045260246000fd5b805482101561698c5760005260206000209060021b0190600090565b156169c557565b60405162461bcd60e51b815260206004820152601460248201527310d85c881a185cc81899595b8819195b195d195960621b6044820152606490fd5b15616a0857565b60405162461bcd60e51b815260206004820152601260248201527110d85c88191bd95cc81b9bdd08195e1a5cdd60721b6044820152606490fd5b15616a4957565b60405162461bcd60e51b815260206004820152601160248201527010d85c881a185cc81899595b881cdbdb19607a1b6044820152606490fd5b15616a8957565b60405162461bcd60e51b815260206004820152601760248201527f436f6d6d656e742063616e6e6f7420626520656d7074790000000000000000006044820152606490fd5b15616ad557565b60405162461bcd60e51b815260206004820152601060248201526f436f6d6d656e7420746f6f206c6f6e6760801b6044820152606490fd5b805482101561698c576000526005602060002091020190600090565b15616b3057565b60405162461bcd60e51b815260206004820152601060248201526f14995d9a595dc81b9bdd08199bdd5b9960821b6044820152606490fd5b15616b6f57565b60405162461bcd60e51b815260206004820152601060248201526f10d85c88185b1c9958591e481cdbdb1960821b6044820152606490fd5b15616bae57565b60405162461bcd60e51b815260206004820152601a60248201527f436172206e6f74206c697374656420666f722061756374696f6e0000000000006044820152606490fd5b15616bfa57565b60405162461bcd60e51b815260206004820152601260248201527141756374696f6e206e6f742061637469766560701b6044820152606490fd5b6000918291829182916001600160a01b03165af1616c50615f24565b5015616c5857565b60405162461bcd60e51b815260206004820152600f60248201526e151c985b9cd9995c8819985a5b1959608a1b6044820152606490fd5b91908015616dfb57600092808452602090600b8252604091616cba60ff601685892001541615616b68565b818652600b815260018060a01b03926001616cdd8582848b200154161515616a01565b838852600b8352878281209582870190815491601682841699018560ff198254161790556001600160601b0360a01b9283339116179055616d1f87338a615e13565b600954855190616d2e826152d8565b8152868101888152868201918b83528760608201963388528b8152600c8b5220805490600160401b821015616de65790616d6c9189820181556169a2565b9e909e616dd25750917f8205a71867f7292bcef9e53d4774758d6173b03f63017dec9a03a6664b429dc5999a9b9c9d916003935183555187830155516002820155019251169082541617905560095401600955616dc98686616c34565b519485523394a4565b634e487b7160e01b81526004819052602490fd5b50634e487b7160e01b8f52604160045260248ffd5b60405162461bcd60e51b815260206004820152601e60248201527f5061796d656e74206d7573742062652067726561746572207468616e203000006044820152606490fdfea2646970667358221220d4e0c3176d4c41743efee53a05ba02c5fbb947b77fe8ae7b2b5c848297e1157564736f6c63430008130033","opcodes":"PUSH1 0x80 CALLVALUE PUSH3 0x3A4 JUMPI PUSH1 0x40 SWAP1 PUSH1 0x1 PUSH1 0x1 PUSH1 0x40 SHL SUB SWAP1 DUP1 DUP4 ADD DUP3 DUP2 GT DUP3 DUP3 LT OR PUSH3 0x38E JUMPI DUP4 MSTORE PUSH1 0x9 DUP2 MSTORE PUSH1 0x20 SWAP2 PUSH9 0x2432B6A232B0B632B9 PUSH1 0xB9 SHL DUP4 DUP4 ADD MSTORE DUP4 MLOAD SWAP1 DUP5 DUP3 ADD DUP3 DUP2 LT DUP3 DUP3 GT OR PUSH3 0x38E JUMPI DUP6 MSTORE PUSH1 0x3 DUP1 DUP4 MSTORE PUSH3 0x48444D PUSH1 0xE8 SHL DUP6 DUP5 ADD MSTORE PUSH1 0x0 DUP1 SLOAD CALLER PUSH1 0x1 PUSH1 0x1 PUSH1 0xA0 SHL SUB NOT DUP3 AND DUP2 OR DUP4 SSTORE SWAP3 SWAP6 SWAP2 SWAP5 SWAP2 SWAP3 SWAP1 PUSH1 0x1 PUSH1 0x1 PUSH1 0xA0 SHL SUB AND PUSH32 0x8BE0079C531659141344CD1FD0A4F28419497F9722A3DAAFE3B4186F6B6457E0 DUP7 DUP1 LOG3 PUSH1 0x1 SWAP4 DUP5 DUP1 SSTORE DUP3 MLOAD DUP5 DUP2 GT PUSH3 0x37A JUMPI PUSH1 0x2 SLOAD SWAP4 DUP7 DUP6 DUP2 SHR SWAP6 AND DUP1 ISZERO PUSH3 0x36F JUMPI JUMPDEST DUP10 DUP7 LT EQ PUSH3 0x35B JUMPI DUP2 SWAP1 PUSH1 0x1F SWAP6 DUP7 DUP2 GT PUSH3 0x307 JUMPI JUMPDEST POP DUP10 SWAP1 DUP7 DUP4 GT PUSH1 0x1 EQ PUSH3 0x2A2 JUMPI DUP5 SWAP3 PUSH3 0x296 JUMPI JUMPDEST POP POP PUSH1 0x0 NOT DUP3 DUP10 SHL SHR NOT AND SWAP1 DUP7 SHL OR PUSH1 0x2 SSTORE JUMPDEST DUP2 MLOAD SWAP4 DUP5 GT PUSH3 0x282 JUMPI DUP6 SLOAD DUP6 DUP2 DUP2 SHR SWAP2 AND DUP1 ISZERO PUSH3 0x277 JUMPI JUMPDEST DUP9 DUP3 LT EQ PUSH3 0x263 JUMPI DUP4 DUP2 GT PUSH3 0x21B JUMPI JUMPDEST POP DUP7 SWAP3 DUP5 GT PUSH1 0x1 EQ PUSH3 0x1B8 JUMPI SWAP2 DUP4 SWAP5 SWAP2 DUP5 SWAP4 SWAP5 PUSH3 0x1AC JUMPI JUMPDEST POP POP SHL SWAP2 PUSH1 0x0 NOT SWAP1 DUP5 SHL SHR NOT AND OR SWAP1 SSTORE JUMPDEST CALLER ISZERO PUSH3 0x177 JUMPI POP MLOAD PUSH2 0x6E76 SWAP1 DUP2 PUSH3 0x3AA DUP3 CODECOPY RETURN JUMPDEST PUSH1 0x64 SWAP2 MLOAD SWAP1 PUSH3 0x461BCD PUSH1 0xE5 SHL DUP3 MSTORE PUSH1 0x4 DUP3 ADD MSTORE PUSH1 0x10 PUSH1 0x24 DUP3 ADD MSTORE PUSH16 0x24B73B30B634B2103232B83637BCB2B9 PUSH1 0x81 SHL PUSH1 0x44 DUP3 ADD MSTORE REVERT JUMPDEST ADD MLOAD SWAP3 POP CODESIZE DUP1 PUSH3 0x150 JUMP JUMPDEST SWAP2 SWAP1 DUP4 PUSH1 0x1F NOT DUP2 AND DUP8 DUP6 MSTORE DUP9 DUP6 KECCAK256 SWAP5 JUMPDEST DUP10 DUP9 DUP4 DUP4 LT PUSH3 0x203 JUMPI POP POP POP LT PUSH3 0x1EA JUMPI JUMPDEST POP POP POP DUP2 SHL ADD SWAP1 SSTORE PUSH3 0x161 JUMP JUMPDEST ADD MLOAD PUSH1 0x0 NOT DUP4 DUP7 SHL PUSH1 0xF8 AND SHR NOT AND SWAP1 SSTORE CODESIZE DUP1 DUP1 PUSH3 0x1DC JUMP JUMPDEST DUP7 DUP7 ADD MLOAD DUP9 SSTORE SWAP1 SWAP7 ADD SWAP6 SWAP5 DUP6 ADD SWAP5 DUP8 SWAP4 POP ADD PUSH3 0x1C8 JUMP JUMPDEST DUP7 DUP3 MSTORE DUP8 DUP3 KECCAK256 DUP5 DUP1 DUP8 ADD PUSH1 0x5 SHR DUP3 ADD SWAP3 DUP11 DUP9 LT PUSH3 0x259 JUMPI JUMPDEST ADD PUSH1 0x5 SHR ADD SWAP1 DUP7 SWAP1 JUMPDEST DUP3 DUP2 LT PUSH3 0x24D JUMPI POP POP PUSH3 0x136 JUMP JUMPDEST DUP4 DUP2 SSTORE ADD DUP7 SWAP1 PUSH3 0x23D JUMP JUMPDEST SWAP3 POP DUP2 SWAP3 PUSH3 0x234 JUMP JUMPDEST PUSH4 0x4E487B71 PUSH1 0xE0 SHL DUP3 MSTORE PUSH1 0x22 PUSH1 0x4 MSTORE PUSH1 0x24 DUP3 REVERT JUMPDEST SWAP1 PUSH1 0x7F AND SWAP1 PUSH3 0x124 JUMP JUMPDEST PUSH4 0x4E487B71 PUSH1 0xE0 SHL DUP2 MSTORE PUSH1 0x41 PUSH1 0x4 MSTORE PUSH1 0x24 SWAP1 REVERT JUMPDEST ADD MLOAD SWAP1 POP CODESIZE DUP1 PUSH3 0xF7 JUMP JUMPDEST PUSH1 0x2 DUP6 MSTORE DUP11 DUP6 KECCAK256 DUP10 SWAP5 POP SWAP2 SWAP1 PUSH1 0x1F NOT DUP5 AND DUP7 JUMPDEST DUP14 DUP3 DUP3 LT PUSH3 0x2F0 JUMPI POP POP DUP5 GT PUSH3 0x2D7 JUMPI JUMPDEST POP POP POP DUP2 SHL ADD PUSH1 0x2 SSTORE PUSH3 0x10A JUMP JUMPDEST ADD MLOAD PUSH1 0x0 NOT DUP4 DUP12 SHL PUSH1 0xF8 AND SHR NOT AND SWAP1 SSTORE CODESIZE DUP1 DUP1 PUSH3 0x2C8 JUMP JUMPDEST DUP4 DUP6 ADD MLOAD DUP7 SSTORE DUP13 SWAP8 SWAP1 SWAP6 ADD SWAP5 SWAP4 DUP5 ADD SWAP4 ADD PUSH3 0x2B5 JUMP JUMPDEST SWAP1 SWAP2 POP PUSH1 0x2 DUP5 MSTORE DUP10 DUP5 KECCAK256 DUP7 DUP1 DUP6 ADD PUSH1 0x5 SHR DUP3 ADD SWAP3 DUP13 DUP7 LT PUSH3 0x351 JUMPI JUMPDEST SWAP2 DUP11 SWAP2 DUP7 SWAP6 SWAP5 SWAP4 ADD PUSH1 0x5 SHR ADD SWAP2 JUMPDEST DUP3 DUP2 LT PUSH3 0x342 JUMPI POP POP PUSH3 0xE1 JUMP JUMPDEST DUP7 DUP2 SSTORE DUP6 SWAP5 POP DUP11 SWAP2 ADD PUSH3 0x332 JUMP JUMPDEST SWAP3 POP DUP2 SWAP3 PUSH3 0x324 JUMP JUMPDEST PUSH4 0x4E487B71 PUSH1 0xE0 SHL DUP4 MSTORE PUSH1 0x22 PUSH1 0x4 MSTORE PUSH1 0x24 DUP4 REVERT JUMPDEST SWAP5 PUSH1 0x7F AND SWAP5 PUSH3 0xCA JUMP JUMPDEST PUSH4 0x4E487B71 PUSH1 0xE0 SHL DUP3 MSTORE PUSH1 0x41 PUSH1 0x4 MSTORE PUSH1 0x24 DUP3 REVERT JUMPDEST PUSH4 0x4E487B71 PUSH1 0xE0 SHL PUSH1 0x0 MSTORE PUSH1 0x41 PUSH1 0x4 MSTORE PUSH1 0x24 PUSH1 0x0 REVERT JUMPDEST PUSH1 0x0 DUP1 REVERT INVALID PUSH2 0x220 DUP1 PUSH1 0x40 MSTORE PUSH1 0x4 CALLDATASIZE LT ISZERO PUSH2 0x14 JUMPI PUSH1 0x0 DUP1 REVERT JUMPDEST PUSH1 0x0 CALLDATALOAD PUSH1 0xE0 SHR SWAP1 DUP2 PUSH4 0x1FFC9A7 EQ PUSH2 0x5201 JUMPI POP DUP1 PUSH4 0x6FDDE03 EQ PUSH2 0x515B JUMPI DUP1 PUSH4 0x81812FC EQ PUSH2 0x513D JUMPI DUP1 PUSH4 0x95EA7B3 EQ PUSH2 0x4FC3 JUMPI DUP1 PUSH4 0x175A3B41 EQ PUSH2 0x4BF9 JUMPI DUP1 PUSH4 0x23B872DD EQ PUSH2 0x4BD5 JUMPI DUP1 PUSH4 0x24D41A03 EQ PUSH2 0x49B9 JUMPI DUP1 PUSH4 0x2C0E839B EQ PUSH2 0x47DA JUMPI DUP1 PUSH4 0x33396917 EQ PUSH2 0x4615 JUMPI DUP1 PUSH4 0x341FA05D EQ PUSH2 0x4504 JUMPI DUP1 PUSH4 0x42842E0E EQ PUSH2 0x44D1 JUMPI DUP1 PUSH4 0x5E8BE190 EQ PUSH2 0x4488 JUMPI DUP1 PUSH4 0x60098088 EQ PUSH2 0x42A7 JUMPI DUP1 PUSH4 0x6352211E EQ PUSH2 0x4277 JUMPI DUP1 PUSH4 0x6C231060 EQ PUSH2 0x4039 JUMPI DUP1 PUSH4 0x70A08231 EQ PUSH2 0x3FA2 JUMPI DUP1 PUSH4 0x715018A6 EQ PUSH2 0x3F49 JUMPI DUP1 PUSH4 0x8DA5CB5B EQ PUSH2 0x3F20 JUMPI DUP1 PUSH4 0x91E078BB EQ PUSH2 0x3BCF JUMPI DUP1 PUSH4 0x95D89B41 EQ PUSH2 0x3AED JUMPI DUP1 PUSH4 0x96A12041 EQ PUSH2 0x2325 JUMPI DUP1 PUSH4 0x96B5A755 EQ PUSH2 0x21F1 JUMPI DUP1 PUSH4 0x9979EF45 EQ PUSH2 0x2039 JUMPI DUP1 PUSH4 0x9D4A2255 EQ PUSH2 0x1EB6 JUMPI DUP1 PUSH4 0xA22CB465 EQ PUSH2 0x1DDB JUMPI DUP1 PUSH4 0xABFE5D57 EQ PUSH2 0x1CEF JUMPI DUP1 PUSH4 0xB0B7755E EQ PUSH2 0x1C7F JUMPI DUP1 PUSH4 0xB7760C8F EQ PUSH2 0x19DE JUMPI DUP1 PUSH4 0xB88D4FDE EQ PUSH2 0x1957 JUMPI DUP1 PUSH4 0xB9A2DE3A EQ PUSH2 0x17FC JUMPI DUP1 PUSH4 0xC87B56DD EQ PUSH2 0x1788 JUMPI DUP1 PUSH4 0xE05F8BB7 EQ PUSH2 0x355 JUMPI DUP1 PUSH4 0xE985E9C5 EQ PUSH2 0x2FF JUMPI DUP1 PUSH4 0xF20E5E35 EQ PUSH2 0x26A JUMPI PUSH4 0xF2FDE38B EQ PUSH2 0x1A1 JUMPI PUSH1 0x0 DUP1 REVERT JUMPDEST CALLVALUE PUSH2 0x265 JUMPI PUSH1 0x20 CALLDATASIZE PUSH1 0x3 NOT ADD SLT PUSH2 0x265 JUMPI PUSH2 0x1BA PUSH2 0x52AC JUMP JUMPDEST PUSH2 0x1C2 PUSH2 0x5A8D JUMP JUMPDEST PUSH1 0x1 PUSH1 0x1 PUSH1 0xA0 SHL SUB SWAP1 DUP2 AND SWAP1 DUP2 ISZERO PUSH2 0x211 JUMPI PUSH1 0x0 SLOAD DUP3 PUSH1 0x1 PUSH1 0x1 PUSH1 0x60 SHL SUB PUSH1 0xA0 SHL DUP3 AND OR PUSH1 0x0 SSTORE AND PUSH32 0x8BE0079C531659141344CD1FD0A4F28419497F9722A3DAAFE3B4186F6B6457E0 PUSH1 0x0 DUP1 LOG3 STOP JUMPDEST PUSH1 0x40 MLOAD PUSH3 0x461BCD PUSH1 0xE5 SHL DUP2 MSTORE PUSH1 0x20 PUSH1 0x4 DUP3 ADD MSTORE PUSH1 0x26 PUSH1 0x24 DUP3 ADD MSTORE PUSH32 0x4F776E61626C653A206E6577206F776E657220697320746865207A65726F2061 PUSH1 0x44 DUP3 ADD MSTORE PUSH6 0x646472657373 PUSH1 0xD0 SHL PUSH1 0x64 DUP3 ADD MSTORE PUSH1 0x84 SWAP1 REVERT JUMPDEST PUSH1 0x0 DUP1 REVERT JUMPDEST CALLVALUE PUSH2 0x265 JUMPI PUSH1 0x20 CALLDATASIZE PUSH1 0x3 NOT ADD SLT PUSH2 0x265 JUMPI PUSH1 0x4 CALLDATALOAD PUSH1 0x0 MSTORE PUSH1 0xD PUSH1 0x20 MSTORE PUSH1 0xA0 PUSH1 0x40 PUSH1 0x0 KECCAK256 DUP2 PUSH1 0x40 MLOAD SWAP2 PUSH2 0x29B DUP4 PUSH2 0x52F3 JUMP JUMPDEST DUP1 SLOAD DUP4 MSTORE PUSH1 0x1 DUP2 ADD SLOAD SWAP3 DUP4 PUSH1 0x20 DUP3 ADD MSTORE PUSH1 0x2 DUP3 ADD SLOAD DUP1 PUSH1 0x40 DUP4 ADD MSTORE PUSH1 0x1 DUP1 DUP6 SHL SUB PUSH1 0x3 DUP5 ADD SLOAD AND SWAP2 DUP3 PUSH1 0x60 DUP3 ADD MSTORE PUSH1 0xFF PUSH1 0x5 PUSH1 0x4 DUP7 ADD SLOAD SWAP6 DUP7 PUSH1 0x80 DUP6 ADD MSTORE ADD SLOAD AND ISZERO ISZERO SWAP5 DUP6 SWAP2 ADD MSTORE PUSH1 0x40 MLOAD SWAP5 DUP6 MSTORE PUSH1 0x20 DUP6 ADD MSTORE PUSH1 0x40 DUP5 ADD MSTORE PUSH1 0x60 DUP4 ADD MSTORE PUSH1 0x80 DUP3 ADD MSTORE RETURN JUMPDEST CALLVALUE PUSH2 0x265 JUMPI PUSH1 0x40 CALLDATASIZE PUSH1 0x3 NOT ADD SLT PUSH2 0x265 JUMPI PUSH2 0x318 PUSH2 0x52AC JUMP JUMPDEST PUSH2 0x320 PUSH2 0x52C2 JUMP JUMPDEST SWAP1 PUSH1 0x1 DUP1 PUSH1 0xA0 SHL SUB DUP1 SWAP2 AND PUSH1 0x0 MSTORE PUSH1 0x7 PUSH1 0x20 MSTORE PUSH1 0x40 PUSH1 0x0 KECCAK256 SWAP2 AND PUSH1 0x0 MSTORE PUSH1 0x20 MSTORE PUSH1 0x20 PUSH1 0xFF PUSH1 0x40 PUSH1 0x0 KECCAK256 SLOAD AND PUSH1 0x40 MLOAD SWAP1 ISZERO ISZERO DUP2 MSTORE RETURN JUMPDEST CALLVALUE PUSH2 0x265 JUMPI PUSH1 0xC0 CALLDATASIZE PUSH1 0x3 NOT ADD SLT PUSH2 0x265 JUMPI PUSH1 0x24 CALLDATALOAD PUSH1 0x1 PUSH1 0x1 PUSH1 0x40 SHL SUB DUP2 GT PUSH2 0x265 JUMPI PUSH2 0x385 SWAP1 CALLDATASIZE SWAP1 PUSH1 0x4 ADD PUSH2 0x5820 JUMP JUMPDEST PUSH2 0x140 MSTORE PUSH1 0x44 CALLDATALOAD PUSH1 0x1 PUSH1 0x1 PUSH1 0x40 SHL SUB DUP2 GT PUSH2 0x265 JUMPI PUSH2 0x3A8 SWAP1 CALLDATASIZE SWAP1 PUSH1 0x4 ADD PUSH2 0x58ED JUMP JUMPDEST PUSH1 0xA0 MSTORE PUSH1 0x64 CALLDATALOAD PUSH1 0x1 PUSH1 0x1 PUSH1 0x40 SHL SUB DUP2 GT PUSH2 0x265 JUMPI PUSH2 0x3CA SWAP1 CALLDATASIZE SWAP1 PUSH1 0x4 ADD PUSH2 0x5975 JUMP JUMPDEST PUSH1 0x84 CALLDATALOAD PUSH1 0x1 PUSH1 0x1 PUSH1 0x40 SHL SUB DUP2 GT PUSH2 0x265 JUMPI PUSH2 0x3E9 SWAP1 CALLDATASIZE SWAP1 PUSH1 0x4 ADD PUSH2 0x59F5 JUMP JUMPDEST PUSH2 0x1A0 MSTORE PUSH1 0x2 PUSH1 0xA4 CALLDATALOAD LT ISZERO PUSH2 0x265 JUMPI PUSH2 0x400 PUSH2 0x6489 JUMP JUMPDEST PUSH1 0x4 CALLDATALOAD PUSH1 0x0 MSTORE PUSH1 0xB PUSH1 0x20 MSTORE PUSH1 0x1 DUP1 PUSH1 0xA0 SHL SUB PUSH1 0x1 PUSH1 0x40 PUSH1 0x0 KECCAK256 ADD SLOAD AND CALLER EQ DUP1 ISZERO PUSH2 0x1774 JUMPI JUMPDEST PUSH2 0x42E SWAP1 PUSH2 0x652B JUMP JUMPDEST PUSH2 0x43E PUSH1 0xA0 DUP1 MLOAD ADD MLOAD ISZERO ISZERO PUSH2 0x6239 JUMP JUMPDEST PUSH2 0x44E PUSH2 0x140 MLOAD MLOAD MLOAD ISZERO ISZERO PUSH2 0x6116 JUMP JUMPDEST PUSH2 0x461 PUSH1 0x20 PUSH2 0x140 MLOAD ADD MLOAD MLOAD ISZERO ISZERO PUSH2 0x6159 JUMP JUMPDEST PUSH2 0x474 PUSH1 0x60 PUSH2 0x140 MLOAD ADD MLOAD MLOAD ISZERO ISZERO PUSH2 0x61A5 JUMP JUMPDEST PUSH2 0x487 PUSH1 0x80 PUSH2 0x140 MLOAD ADD MLOAD MLOAD ISZERO ISZERO PUSH2 0x61E8 JUMP JUMPDEST PUSH2 0x1A0 MLOAD MLOAD PUSH1 0x4 CALLDATALOAD PUSH1 0x0 SWAP1 DUP2 MSTORE PUSH1 0xB PUSH1 0x20 MSTORE PUSH1 0x40 SWAP1 KECCAK256 PUSH1 0x11 ADD SLOAD PUSH1 0x1 PUSH1 0x1 PUSH1 0xA0 SHL SUB SWAP2 DUP3 AND SWAP2 AND SUB PUSH2 0x172F JUMPI PUSH2 0x4CA PUSH1 0x1 DUP1 PUSH1 0xA0 SHL SUB PUSH2 0x1A0 MLOAD MLOAD AND CALLER EQ PUSH2 0x60CA JUMP JUMPDEST PUSH2 0x140 MLOAD SWAP1 DUP2 MLOAD SWAP2 PUSH1 0x20 DUP2 ADD MLOAD PUSH1 0x80 MSTORE PUSH1 0x40 DUP2 ADD MLOAD PUSH2 0x200 MSTORE PUSH1 0x60 DUP2 ADD MLOAD PUSH1 0x80 DUP3 ADD MLOAD SWAP1 PUSH1 0xC0 PUSH1 0xA0 DUP5 ADD MLOAD SWAP4 ADD MLOAD PUSH1 0xA0 MLOAD DUP1 MLOAD PUSH1 0x20 DUP3 ADD MLOAD SWAP2 PUSH1 0x40 DUP2 ADD MLOAD SWAP1 PUSH1 0x3 DUP3 LT ISZERO PUSH2 0x124C JUMPI PUSH1 0x60 ADD MLOAD SWAP3 PUSH2 0x520 DUP5 PUSH2 0x54CA JUMP JUMPDEST PUSH1 0xA0 MLOAD SWAP3 PUSH1 0x80 DUP5 ADD MLOAD SWAP6 PUSH1 0x4 DUP8 LT ISZERO PUSH2 0x124C JUMPI DUP11 SWAP10 DUP11 SWAP10 PUSH2 0x5FE SWAP10 PUSH1 0x40 PUSH1 0x20 PUSH1 0xA0 PUSH2 0x5E1 SWAP11 ADD MLOAD SWAP14 MLOAD SWAP15 ADD MLOAD SWAP15 ADD MLOAD SWAP15 PUSH1 0x4 CALLDATALOAD PUSH1 0x0 MSTORE PUSH1 0xB PUSH1 0x20 MSTORE PUSH1 0xFF PUSH1 0x16 PUSH1 0x40 PUSH1 0x0 KECCAK256 DUP1 PUSH2 0x160 MSTORE ADD SLOAD AND PUSH1 0xC0 MSTORE PUSH2 0x57E PUSH1 0x40 MLOAD DUP1 PUSH1 0xE0 MSTORE PUSH2 0x530E JUMP JUMPDEST PUSH1 0x4 CALLDATALOAD PUSH1 0xE0 MLOAD MSTORE CALLER PUSH1 0x20 PUSH1 0xE0 MLOAD ADD MSTORE PUSH1 0x40 PUSH1 0xE0 MLOAD ADD MSTORE PUSH1 0x80 MLOAD PUSH1 0x60 PUSH1 0xE0 MLOAD ADD MSTORE PUSH2 0x200 MLOAD PUSH1 0x80 PUSH1 0xE0 MLOAD ADD MSTORE PUSH1 0xA0 PUSH1 0xE0 MLOAD ADD MSTORE PUSH1 0xC0 PUSH1 0xE0 MLOAD ADD MSTORE PUSH1 0xE0 DUP1 MLOAD ADD MSTORE PUSH2 0x100 PUSH1 0xE0 MLOAD ADD MSTORE PUSH2 0x120 PUSH1 0xE0 MLOAD ADD MSTORE PUSH2 0x140 PUSH1 0xE0 MLOAD ADD MSTORE PUSH2 0x160 PUSH1 0xE0 MLOAD ADD PUSH2 0x62B1 JUMP JUMPDEST PUSH2 0x5EA DUP2 PUSH2 0x54CA JUMP JUMPDEST PUSH2 0x180 PUSH1 0xE0 MLOAD ADD MSTORE PUSH2 0x1A0 PUSH1 0xE0 MLOAD ADD PUSH2 0x62BD JUMP JUMPDEST PUSH2 0x1C0 PUSH1 0xE0 MLOAD ADD MSTORE PUSH2 0x1E0 PUSH1 0xE0 MLOAD ADD MSTORE PUSH2 0x200 PUSH1 0xE0 MLOAD ADD MSTORE PUSH2 0x220 PUSH1 0xE0 MLOAD ADD MSTORE PUSH2 0x62D PUSH1 0x10 PUSH2 0x160 MLOAD ADD PUSH2 0x65D6 JUMP JUMPDEST PUSH2 0x240 PUSH1 0xE0 MLOAD ADD MSTORE PUSH2 0x1A0 MLOAD PUSH2 0x260 PUSH1 0xE0 MLOAD ADD MSTORE PUSH1 0xC0 MLOAD ISZERO ISZERO PUSH2 0x280 PUSH1 0xE0 MLOAD ADD MSTORE PUSH1 0x0 PUSH2 0x2A0 PUSH1 0xE0 MLOAD ADD MSTORE PUSH2 0x663 PUSH1 0xA4 CALLDATALOAD PUSH2 0x54CA JUMP JUMPDEST PUSH1 0xA4 CALLDATALOAD PUSH2 0x2C0 PUSH1 0xE0 MLOAD ADD MSTORE PUSH1 0x4 CALLDATALOAD PUSH1 0x0 MSTORE PUSH1 0xB PUSH1 0x20 MSTORE PUSH1 0x40 PUSH1 0x0 KECCAK256 PUSH1 0x40 PUSH1 0xE0 MLOAD DUP1 MLOAD DUP4 SSTORE PUSH1 0x1 DUP1 PUSH1 0xA0 SHL SUB PUSH1 0x20 DUP3 ADD MLOAD AND PUSH1 0x1 PUSH1 0x1 PUSH1 0x60 SHL SUB PUSH1 0xA0 SHL PUSH1 0x1 DUP6 ADD SLOAD AND OR PUSH1 0x1 DUP5 ADD SSTORE ADD MLOAD DUP1 MLOAD SWAP1 PUSH1 0x1 PUSH1 0x1 PUSH1 0x40 SHL SUB DUP3 GT PUSH2 0xD89 JUMPI DUP2 SWAP1 PUSH2 0x6CD PUSH1 0x2 DUP6 ADD SLOAD PUSH2 0x5B54 JUMP JUMPDEST PUSH1 0x1F DUP2 GT PUSH2 0x16FA JUMPI JUMPDEST POP PUSH1 0x20 SWAP1 PUSH1 0x1F DUP4 GT PUSH1 0x1 EQ PUSH2 0x1688 JUMPI PUSH1 0x0 SWAP3 PUSH2 0x167D JUMPI JUMPDEST POP POP DUP2 PUSH1 0x1 SHL SWAP2 PUSH1 0x0 NOT SWAP1 PUSH1 0x3 SHL SHR NOT AND OR PUSH1 0x2 DUP3 ADD SSTORE JUMPDEST PUSH1 0x60 PUSH1 0xE0 MLOAD ADD MLOAD DUP1 MLOAD SWAP1 PUSH1 0x1 PUSH1 0x40 SHL DUP3 GT PUSH2 0xD89 JUMPI PUSH1 0x3 DUP4 ADD SLOAD DUP3 PUSH1 0x3 DUP6 ADD SSTORE DUP1 DUP4 LT PUSH2 0x164A JUMPI JUMPDEST POP PUSH1 0x20 ADD SWAP1 PUSH1 0x3 DUP4 ADD PUSH1 0x0 MSTORE PUSH1 0x20 PUSH1 0x0 KECCAK256 SWAP2 PUSH1 0x0 SWAP1 JUMPDEST DUP3 DUP3 LT PUSH2 0x152A JUMPI DUP5 PUSH1 0x80 PUSH1 0xE0 MLOAD ADD MLOAD DUP1 MLOAD SWAP1 PUSH1 0x1 PUSH1 0x1 PUSH1 0x40 SHL SUB DUP3 GT PUSH2 0xD89 JUMPI DUP2 SWAP1 PUSH2 0x772 PUSH1 0x4 DUP6 ADD SLOAD PUSH2 0x5B54 JUMP JUMPDEST PUSH1 0x1F DUP2 GT PUSH2 0x14F5 JUMPI JUMPDEST POP PUSH1 0x20 SWAP1 PUSH1 0x1F DUP4 GT PUSH1 0x1 EQ PUSH2 0x1483 JUMPI PUSH1 0x0 SWAP3 PUSH2 0x1478 JUMPI JUMPDEST POP POP DUP2 PUSH1 0x1 SHL SWAP2 PUSH1 0x0 NOT SWAP1 PUSH1 0x3 SHL SHR NOT AND OR PUSH1 0x4 DUP3 ADD SSTORE JUMPDEST PUSH1 0xA0 PUSH1 0xE0 MLOAD ADD MLOAD DUP1 MLOAD SWAP1 PUSH1 0x1 PUSH1 0x1 PUSH1 0x40 SHL SUB DUP3 GT PUSH2 0xD89 JUMPI DUP2 SWAP1 PUSH2 0x7D1 PUSH1 0x5 DUP6 ADD SLOAD PUSH2 0x5B54 JUMP JUMPDEST PUSH1 0x1F DUP2 GT PUSH2 0x1443 JUMPI JUMPDEST POP PUSH1 0x20 SWAP1 PUSH1 0x1F DUP4 GT PUSH1 0x1 EQ PUSH2 0x13D1 JUMPI PUSH1 0x0 SWAP3 PUSH2 0x13C6 JUMPI JUMPDEST POP POP DUP2 PUSH1 0x1 SHL SWAP2 PUSH1 0x0 NOT SWAP1 PUSH1 0x3 SHL SHR NOT AND OR PUSH1 0x5 DUP3 ADD SSTORE JUMPDEST PUSH1 0xC0 PUSH1 0xE0 MLOAD ADD MLOAD DUP1 MLOAD SWAP1 PUSH1 0x1 PUSH1 0x1 PUSH1 0x40 SHL SUB DUP3 GT PUSH2 0xD89 JUMPI DUP2 SWAP1 PUSH2 0x830 PUSH1 0x6 DUP6 ADD SLOAD PUSH2 0x5B54 JUMP JUMPDEST PUSH1 0x1F DUP2 GT PUSH2 0x1391 JUMPI JUMPDEST POP PUSH1 0x20 SWAP1 PUSH1 0x1F DUP4 GT PUSH1 0x1 EQ PUSH2 0x131F JUMPI PUSH1 0x0 SWAP3 PUSH2 0x1314 JUMPI JUMPDEST POP POP DUP2 PUSH1 0x1 SHL SWAP2 PUSH1 0x0 NOT SWAP1 PUSH1 0x3 SHL SHR NOT AND OR PUSH1 0x6 DUP3 ADD SSTORE JUMPDEST PUSH2 0x140 PUSH1 0xE0 MLOAD PUSH1 0xE0 DUP2 ADD MLOAD PUSH1 0x7 DUP5 ADD SSTORE PUSH2 0x100 DUP2 ADD MLOAD PUSH1 0x8 DUP5 ADD SSTORE PUSH2 0x120 DUP2 ADD MLOAD PUSH1 0x9 DUP5 ADD SSTORE ADD MLOAD DUP1 MLOAD SWAP1 PUSH1 0x1 PUSH1 0x1 PUSH1 0x40 SHL SUB DUP3 GT PUSH2 0xD89 JUMPI DUP2 SWAP1 PUSH2 0x8B0 PUSH1 0xA DUP6 ADD SLOAD PUSH2 0x5B54 JUMP JUMPDEST PUSH1 0x1F DUP2 GT PUSH2 0x12DF JUMPI JUMPDEST POP PUSH1 0x20 SWAP1 PUSH1 0x1F DUP4 GT PUSH1 0x1 EQ PUSH2 0x126D JUMPI PUSH1 0x0 SWAP3 PUSH2 0x1262 JUMPI JUMPDEST POP POP DUP2 PUSH1 0x1 SHL SWAP2 PUSH1 0x0 NOT SWAP1 PUSH1 0x3 SHL SHR NOT AND OR PUSH1 0xA DUP3 ADD SSTORE JUMPDEST PUSH1 0xE0 MLOAD PUSH2 0x160 DUP2 ADD MLOAD PUSH1 0x3 DUP2 LT ISZERO PUSH2 0x124C JUMPI PUSH2 0x180 PUSH1 0xB DUP5 ADD SLOAD SWAP3 ADD MLOAD SWAP1 PUSH2 0x90F DUP3 PUSH2 0x54CA JUMP JUMPDEST PUSH2 0x918 DUP3 PUSH2 0x54CA JUMP JUMPDEST PUSH1 0xE0 MLOAD SWAP2 PUSH2 0x1A0 DUP4 ADD MLOAD PUSH1 0x4 DUP2 LT ISZERO PUSH2 0x124C JUMPI PUSH2 0x1E0 SWAP5 PUSH1 0xFF PUSH3 0xFF0000 PUSH2 0xFF00 SWAP4 PUSH1 0x10 SHL AND SWAP5 AND SWAP1 PUSH3 0xFFFFFF NOT AND OR SWAP2 PUSH1 0x8 SHL AND OR OR PUSH1 0xB DUP5 ADD SSTORE PUSH2 0x1C0 DUP2 ADD MLOAD PUSH1 0xC DUP5 ADD SSTORE ADD MLOAD DUP1 MLOAD SWAP1 PUSH1 0x1 PUSH1 0x1 PUSH1 0x40 SHL SUB DUP3 GT PUSH2 0xD89 JUMPI DUP2 SWAP1 PUSH2 0x980 PUSH1 0xD DUP6 ADD SLOAD PUSH2 0x5B54 JUMP JUMPDEST PUSH1 0x1F DUP2 GT PUSH2 0x1217 JUMPI JUMPDEST POP PUSH1 0x20 SWAP1 PUSH1 0x1F DUP4 GT PUSH1 0x1 EQ PUSH2 0x11A5 JUMPI PUSH1 0x0 SWAP3 PUSH2 0x119A JUMPI JUMPDEST POP POP DUP2 PUSH1 0x1 SHL SWAP2 PUSH1 0x0 NOT SWAP1 PUSH1 0x3 SHL SHR NOT AND OR PUSH1 0xD DUP3 ADD SSTORE JUMPDEST PUSH2 0x200 PUSH1 0xE0 MLOAD ADD MLOAD DUP1 MLOAD SWAP1 PUSH1 0x1 PUSH1 0x1 PUSH1 0x40 SHL SUB DUP3 GT PUSH2 0xD89 JUMPI DUP2 SWAP1 PUSH2 0x9E0 PUSH1 0xE DUP6 ADD SLOAD PUSH2 0x5B54 JUMP JUMPDEST PUSH1 0x1F DUP2 GT PUSH2 0x1165 JUMPI JUMPDEST POP PUSH1 0x20 SWAP1 PUSH1 0x1F DUP4 GT PUSH1 0x1 EQ PUSH2 0x10F3 JUMPI PUSH1 0x0 SWAP3 PUSH2 0x10E8 JUMPI JUMPDEST POP POP DUP2 PUSH1 0x1 SHL SWAP2 PUSH1 0x0 NOT SWAP1 PUSH1 0x3 SHL SHR NOT AND OR PUSH1 0xE DUP3 ADD SSTORE JUMPDEST PUSH2 0x220 PUSH1 0xE0 MLOAD ADD MLOAD DUP1 MLOAD SWAP1 PUSH1 0x1 PUSH1 0x40 SHL DUP3 GT PUSH2 0xD89 JUMPI PUSH1 0xF DUP4 ADD SLOAD DUP3 PUSH1 0xF DUP6 ADD SSTORE DUP1 DUP4 LT PUSH2 0x10B5 JUMPI JUMPDEST POP PUSH1 0x20 ADD SWAP1 PUSH1 0xF DUP4 ADD PUSH1 0x0 MSTORE PUSH1 0x20 PUSH1 0x0 KECCAK256 SWAP2 PUSH1 0x0 SWAP1 JUMPDEST DUP3 DUP3 LT PUSH2 0xFA0 JUMPI DUP5 PUSH2 0x240 PUSH1 0xE0 MLOAD ADD MLOAD DUP1 MLOAD SWAP1 PUSH1 0x1 PUSH1 0x40 SHL DUP3 GT PUSH2 0xD89 JUMPI PUSH1 0x10 DUP4 ADD SLOAD DUP3 PUSH1 0x10 DUP6 ADD SSTORE DUP1 DUP4 LT PUSH2 0xF1E JUMPI JUMPDEST POP PUSH1 0x20 ADD PUSH1 0x10 DUP4 ADD PUSH1 0x0 MSTORE PUSH1 0x20 PUSH1 0x0 KECCAK256 PUSH1 0x0 SWAP2 JUMPDEST DUP4 DUP4 LT PUSH2 0xF00 JUMPI DUP5 PUSH1 0x11 DUP2 ADD SWAP1 PUSH2 0x260 PUSH1 0xE0 MLOAD ADD MLOAD SWAP2 PUSH1 0x1 DUP1 PUSH1 0xA0 SHL SUB DUP4 MLOAD AND PUSH1 0x1 PUSH1 0x1 PUSH1 0x60 SHL SUB PUSH1 0xA0 SHL DUP3 SLOAD AND OR SWAP1 SSTORE PUSH1 0x20 DUP3 ADD MLOAD SWAP2 DUP3 MLOAD PUSH1 0x1 PUSH1 0x1 PUSH1 0x40 SHL SUB DUP2 GT PUSH2 0xD89 JUMPI PUSH2 0xAF0 PUSH1 0x12 DUP5 ADD SLOAD PUSH2 0x5B54 JUMP JUMPDEST PUSH1 0x1F DUP2 GT PUSH2 0xECB JUMPI JUMPDEST POP PUSH1 0x20 PUSH1 0x1F DUP3 GT PUSH1 0x1 EQ PUSH2 0xE5D JUMPI DUP2 SWAP3 SWAP4 SWAP5 PUSH1 0x0 SWAP3 PUSH2 0xE52 JUMPI JUMPDEST POP POP DUP2 PUSH1 0x1 SHL SWAP2 PUSH1 0x0 NOT SWAP1 PUSH1 0x3 SHL SHR NOT AND OR PUSH1 0x12 DUP4 ADD SSTORE JUMPDEST PUSH1 0x40 DUP2 ADD MLOAD DUP1 MLOAD SWAP1 PUSH1 0x1 PUSH1 0x1 PUSH1 0x40 SHL SUB DUP3 GT PUSH2 0xD89 JUMPI PUSH2 0xB4E PUSH1 0x13 DUP6 ADD SLOAD PUSH2 0x5B54 JUMP JUMPDEST PUSH1 0x1F DUP2 GT PUSH2 0xE1D JUMPI JUMPDEST POP PUSH1 0x20 SWAP1 PUSH1 0x1F DUP4 GT PUSH1 0x1 EQ PUSH2 0xDAA JUMPI PUSH1 0x80 SWAP4 SWAP3 SWAP2 PUSH1 0x0 SWAP2 DUP4 PUSH2 0xD9F JUMPI JUMPDEST POP POP DUP2 PUSH1 0x1 SHL SWAP2 PUSH1 0x0 NOT SWAP1 PUSH1 0x3 SHL SHR NOT AND OR PUSH1 0x13 DUP5 ADD SSTORE JUMPDEST PUSH1 0x60 DUP2 ADD MLOAD PUSH1 0x14 DUP5 ADD SSTORE ADD MLOAD SWAP1 DUP2 MLOAD SWAP2 PUSH1 0x1 PUSH1 0x1 PUSH1 0x40 SHL SUB DUP4 GT PUSH2 0xD89 JUMPI PUSH2 0xBB7 PUSH1 0x15 DUP4 ADD SLOAD PUSH2 0x5B54 JUMP JUMPDEST PUSH1 0x1F DUP2 GT PUSH2 0xD49 JUMPI JUMPDEST POP PUSH1 0x20 SWAP1 PUSH1 0x1F DUP5 GT PUSH1 0x1 EQ PUSH2 0xCD7 JUMPI PUSH1 0x16 SWAP4 SWAP2 PUSH1 0x0 SWAP2 DUP4 PUSH2 0xCCC JUMPI JUMPDEST POP POP DUP2 PUSH1 0x1 SHL SWAP2 PUSH1 0x0 NOT SWAP1 PUSH1 0x3 SHL SHR NOT AND OR PUSH1 0x15 DUP3 ADD SSTORE JUMPDEST ADD PUSH2 0x2C0 PUSH1 0xE0 MLOAD PUSH2 0xC18 PUSH2 0x280 DUP3 ADD MLOAD ISZERO ISZERO DUP5 SWAP1 PUSH1 0xFF DUP1 NOT DUP4 SLOAD AND SWAP2 ISZERO ISZERO AND OR SWAP1 SSTORE JUMP JUMPDEST PUSH2 0x2A0 DUP2 ADD MLOAD DUP4 SLOAD PUSH2 0xFF00 NOT AND SWAP1 ISZERO ISZERO PUSH1 0x8 SHL PUSH2 0xFF00 AND OR DUP4 SSTORE ADD MLOAD PUSH2 0xC3D DUP2 PUSH2 0x54CA JUMP JUMPDEST PUSH2 0xC46 DUP2 PUSH2 0x54CA JUMP JUMPDEST PUSH3 0xFF0000 DUP3 SLOAD SWAP2 PUSH1 0x10 SHL AND SWAP1 PUSH3 0xFF0000 NOT AND OR SWAP1 SSTORE PUSH1 0xA0 DUP1 MLOAD ADD MLOAD PUSH2 0x140 MLOAD PUSH32 0xD9511B74A8730FB510A310D06E88F7BAC5EEA519789985C0394FEF2C2C2EC57C PUSH2 0xCAB PUSH1 0x80 PUSH1 0x60 DUP5 ADD MLOAD SWAP4 ADD MLOAD SWAP3 PUSH1 0x40 MLOAD SWAP5 DUP6 MSTORE PUSH1 0x60 PUSH1 0x20 DUP7 ADD MSTORE PUSH1 0x60 DUP6 ADD SWAP1 PUSH2 0x526C JUMP JUMPDEST SWAP3 DUP1 DUP5 SUB PUSH1 0x40 DUP3 ADD MSTORE DUP1 PUSH2 0xCC3 CALLER SWAP6 PUSH1 0x4 CALLDATALOAD SWAP6 PUSH2 0x526C JUMP JUMPDEST SUB SWAP1 LOG3 PUSH1 0x1 DUP1 SSTORE STOP JUMPDEST ADD MLOAD SWAP1 POP DUP5 DUP1 PUSH2 0xBDC JUMP JUMPDEST SWAP1 PUSH1 0x15 DUP4 ADD PUSH1 0x0 MSTORE PUSH1 0x20 PUSH1 0x0 KECCAK256 SWAP2 PUSH1 0x0 JUMPDEST PUSH1 0x1F NOT DUP7 AND DUP2 LT PUSH2 0xD31 JUMPI POP SWAP2 DUP5 SWAP2 PUSH1 0x1 SWAP4 PUSH1 0x16 SWAP7 PUSH1 0x1F NOT DUP2 AND LT PUSH2 0xD18 JUMPI JUMPDEST POP POP POP DUP2 SHL ADD PUSH1 0x15 DUP3 ADD SSTORE PUSH2 0xBF4 JUMP JUMPDEST ADD MLOAD PUSH1 0x0 NOT PUSH1 0xF8 DUP5 PUSH1 0x3 SHL AND SHR NOT AND SWAP1 SSTORE DUP5 DUP1 DUP1 PUSH2 0xD08 JUMP JUMPDEST SWAP2 SWAP3 PUSH1 0x20 PUSH1 0x1 DUP2 SWAP3 DUP7 DUP6 ADD MLOAD DUP2 SSTORE ADD SWAP5 ADD SWAP3 ADD PUSH2 0xCE8 JUMP JUMPDEST PUSH2 0xD79 SWAP1 PUSH1 0x15 DUP5 ADD PUSH1 0x0 MSTORE PUSH1 0x20 PUSH1 0x0 KECCAK256 PUSH1 0x1F DUP7 ADD PUSH1 0x5 SHR DUP2 ADD SWAP2 PUSH1 0x20 DUP8 LT PUSH2 0xD7F JUMPI JUMPDEST PUSH1 0x1F ADD PUSH1 0x5 SHR ADD SWAP1 PUSH2 0x62C9 JUMP JUMPDEST DUP4 PUSH2 0xBC0 JUMP JUMPDEST SWAP1 SWAP2 POP DUP2 SWAP1 PUSH2 0xD6C JUMP JUMPDEST PUSH4 0x4E487B71 PUSH1 0xE0 SHL PUSH1 0x0 MSTORE PUSH1 0x41 PUSH1 0x4 MSTORE PUSH1 0x24 PUSH1 0x0 REVERT JUMPDEST ADD MLOAD SWAP1 POP DUP6 DUP1 PUSH2 0xB74 JUMP JUMPDEST SWAP1 PUSH1 0x13 DUP6 ADD PUSH1 0x0 MSTORE PUSH1 0x20 PUSH1 0x0 KECCAK256 SWAP2 PUSH1 0x0 JUMPDEST PUSH1 0x1F NOT DUP6 AND DUP2 LT PUSH2 0xE05 JUMPI POP SWAP2 DUP4 SWAP2 PUSH1 0x1 SWAP4 PUSH1 0x80 SWAP7 SWAP6 PUSH1 0x1F NOT DUP2 AND LT PUSH2 0xDEC JUMPI JUMPDEST POP POP POP DUP2 SHL ADD PUSH1 0x13 DUP5 ADD SSTORE PUSH2 0xB8C JUMP JUMPDEST ADD MLOAD PUSH1 0x0 NOT PUSH1 0xF8 DUP5 PUSH1 0x3 SHL AND SHR NOT AND SWAP1 SSTORE DUP6 DUP1 DUP1 PUSH2 0xDDC JUMP JUMPDEST SWAP2 SWAP3 PUSH1 0x20 PUSH1 0x1 DUP2 SWAP3 DUP7 DUP6 ADD MLOAD DUP2 SSTORE ADD SWAP5 ADD SWAP3 ADD PUSH2 0xDBB JUMP JUMPDEST PUSH2 0xE4C SWAP1 PUSH1 0x13 DUP7 ADD PUSH1 0x0 MSTORE PUSH1 0x20 PUSH1 0x0 KECCAK256 PUSH1 0x1F DUP6 ADD PUSH1 0x5 SHR DUP2 ADD SWAP2 PUSH1 0x20 DUP7 LT PUSH2 0xD7F JUMPI PUSH1 0x1F ADD PUSH1 0x5 SHR ADD SWAP1 PUSH2 0x62C9 JUMP JUMPDEST DUP5 PUSH2 0xB57 JUMP JUMPDEST ADD MLOAD SWAP1 POP DUP5 DUP1 PUSH2 0xB13 JUMP JUMPDEST PUSH1 0x12 DUP5 ADD PUSH1 0x0 MSTORE PUSH1 0x20 PUSH1 0x0 KECCAK256 SWAP1 PUSH1 0x0 JUMPDEST PUSH1 0x1F NOT DUP5 AND DUP2 LT PUSH2 0xEB3 JUMPI POP PUSH1 0x1 SWAP4 SWAP5 SWAP6 DUP4 PUSH1 0x1F NOT DUP2 AND LT PUSH2 0xE9A JUMPI JUMPDEST POP POP POP DUP2 SHL ADD PUSH1 0x12 DUP4 ADD SSTORE PUSH2 0xB2B JUMP JUMPDEST ADD MLOAD PUSH1 0x0 NOT PUSH1 0xF8 DUP5 PUSH1 0x3 SHL AND SHR NOT AND SWAP1 SSTORE DUP5 DUP1 DUP1 PUSH2 0xE8A JUMP JUMPDEST SWAP1 SWAP2 PUSH1 0x20 PUSH1 0x1 DUP2 SWAP3 DUP6 DUP11 ADD MLOAD DUP2 SSTORE ADD SWAP4 ADD SWAP2 ADD PUSH2 0xE6D JUMP JUMPDEST PUSH2 0xEFA SWAP1 PUSH1 0x12 DUP6 ADD PUSH1 0x0 MSTORE PUSH1 0x20 PUSH1 0x0 KECCAK256 PUSH1 0x1F DUP5 ADD PUSH1 0x5 SHR DUP2 ADD SWAP2 PUSH1 0x20 DUP6 LT PUSH2 0xD7F JUMPI PUSH1 0x1F ADD PUSH1 0x5 SHR ADD SWAP1 PUSH2 0x62C9 JUMP JUMPDEST DUP5 PUSH2 0xAF9 JUMP JUMPDEST PUSH1 0x5 PUSH1 0x20 DUP3 PUSH2 0xF12 PUSH1 0x1 SWAP5 MLOAD DUP7 PUSH2 0x6329 JUMP JUMPDEST ADD SWAP3 ADD SWAP3 ADD SWAP2 SWAP1 PUSH2 0xA9C JUMP JUMPDEST PUSH1 0x5 DUP2 DUP2 MUL DIV DUP2 SUB PUSH2 0xF8A JUMPI PUSH1 0x5 DUP4 DUP2 MUL DIV DUP4 SUB PUSH2 0xF8A JUMPI PUSH1 0x10 DUP5 ADD PUSH1 0x0 MSTORE PUSH1 0x20 PUSH1 0x0 KECCAK256 DUP4 PUSH1 0x5 MUL DUP2 ADD JUMPDEST DUP3 PUSH1 0x5 MUL DUP3 ADD DUP2 LT PUSH2 0xF5C JUMPI POP POP PUSH2 0xA88 JUMP JUMPDEST DUP1 PUSH1 0x0 PUSH1 0x5 SWAP3 SSTORE PUSH1 0x0 PUSH1 0x1 DUP3 ADD SSTORE PUSH2 0xF76 PUSH1 0x2 DUP3 ADD PUSH2 0x62E0 JUMP JUMPDEST PUSH1 0x0 PUSH1 0x3 DUP3 ADD SSTORE PUSH1 0x0 PUSH1 0x4 DUP3 ADD SSTORE ADD PUSH2 0xF49 JUMP JUMPDEST PUSH4 0x4E487B71 PUSH1 0xE0 SHL PUSH1 0x0 MSTORE PUSH1 0x11 PUSH1 0x4 MSTORE PUSH1 0x24 PUSH1 0x0 REVERT JUMPDEST DUP1 MLOAD DUP1 MLOAD SWAP1 PUSH1 0x1 PUSH1 0x1 PUSH1 0x40 SHL SUB DUP3 GT PUSH2 0xD89 JUMPI PUSH2 0xFBD DUP7 SLOAD PUSH2 0x5B54 JUMP JUMPDEST PUSH1 0x1F DUP2 GT PUSH2 0x1083 JUMPI JUMPDEST POP PUSH1 0x20 SWAP1 PUSH1 0x1F DUP4 GT PUSH1 0x1 EQ PUSH2 0x1013 JUMPI SWAP3 DUP3 PUSH1 0x1 SWAP5 SWAP4 PUSH1 0x20 SWAP4 DUP7 SWAP6 PUSH1 0x0 SWAP3 PUSH2 0x1008 JUMPI JUMPDEST POP POP PUSH1 0x0 NOT PUSH1 0x3 DUP4 SWAP1 SHL SHR NOT AND SWAP1 DUP5 SHL OR DUP8 SSTORE JUMPDEST ADD SWAP5 ADD SWAP2 ADD SWAP1 SWAP3 PUSH2 0xA57 JUMP JUMPDEST ADD MLOAD SWAP1 POP DUP11 DUP1 PUSH2 0xFE8 JUMP JUMPDEST SWAP1 DUP7 PUSH1 0x0 MSTORE PUSH1 0x20 PUSH1 0x0 KECCAK256 SWAP2 PUSH1 0x0 JUMPDEST PUSH1 0x1F NOT DUP6 AND DUP2 LT PUSH2 0x106B JUMPI POP DUP4 PUSH1 0x20 SWAP4 PUSH1 0x1 SWAP7 SWAP4 DUP8 SWAP7 SWAP4 DUP8 SWAP5 PUSH1 0x1F NOT DUP2 AND LT PUSH2 0x1052 JUMPI JUMPDEST POP POP POP DUP2 SHL ADD DUP8 SSTORE PUSH2 0xFFC JUMP JUMPDEST ADD MLOAD PUSH1 0x0 NOT PUSH1 0xF8 DUP5 PUSH1 0x3 SHL AND SHR NOT AND SWAP1 SSTORE DUP11 DUP1 DUP1 PUSH2 0x1045 JUMP JUMPDEST SWAP2 SWAP3 PUSH1 0x20 PUSH1 0x1 DUP2 SWAP3 DUP7 DUP6 ADD MLOAD DUP2 SSTORE ADD SWAP5 ADD SWAP3 ADD PUSH2 0x1021 JUMP JUMPDEST PUSH2 0x10AF SWAP1 DUP8 PUSH1 0x0 MSTORE PUSH1 0x20 PUSH1 0x0 KECCAK256 PUSH1 0x1F DUP6 ADD PUSH1 0x5 SHR DUP2 ADD SWAP2 PUSH1 0x20 DUP7 LT PUSH2 0xD7F JUMPI PUSH1 0x1F ADD PUSH1 0x5 SHR ADD SWAP1 PUSH2 0x62C9 JUMP JUMPDEST DUP8 PUSH2 0xFC6 JUMP JUMPDEST PUSH1 0xF DUP5 ADD PUSH1 0x0 MSTORE PUSH1 0x20 PUSH1 0x0 KECCAK256 SWAP1 DUP4 DUP3 ADD JUMPDEST DUP2 DUP4 ADD DUP2 LT PUSH2 0x10D6 JUMPI POP POP PUSH2 0xA41 JUMP JUMPDEST DUP1 PUSH2 0x10E2 PUSH1 0x1 SWAP3 PUSH2 0x62E0 JUMP JUMPDEST ADD PUSH2 0x10C6 JUMP JUMPDEST ADD MLOAD SWAP1 POP DUP4 DUP1 PUSH2 0xA00 JUMP JUMPDEST SWAP3 POP PUSH1 0xE DUP5 ADD PUSH1 0x0 MSTORE PUSH1 0x20 PUSH1 0x0 KECCAK256 SWAP1 PUSH1 0x0 SWAP4 JUMPDEST PUSH1 0x1F NOT DUP5 AND DUP6 LT PUSH2 0x114A JUMPI PUSH1 0x1 SWAP5 POP DUP4 PUSH1 0x1F NOT DUP2 AND LT PUSH2 0x1131 JUMPI JUMPDEST POP POP POP DUP2 SHL ADD PUSH1 0xE DUP3 ADD SSTORE PUSH2 0xA18 JUMP JUMPDEST ADD MLOAD PUSH1 0x0 NOT PUSH1 0xF8 DUP5 PUSH1 0x3 SHL AND SHR NOT AND SWAP1 SSTORE DUP4 DUP1 DUP1 PUSH2 0x1121 JUMP JUMPDEST DUP2 DUP2 ADD MLOAD DUP4 SSTORE PUSH1 0x20 SWAP5 DUP6 ADD SWAP5 PUSH1 0x1 SWAP1 SWAP4 ADD SWAP3 SWAP1 SWAP2 ADD SWAP1 PUSH2 0x1106 JUMP JUMPDEST PUSH2 0x1194 SWAP1 PUSH1 0xE DUP7 ADD PUSH1 0x0 MSTORE PUSH1 0x20 PUSH1 0x0 KECCAK256 PUSH1 0x1F DUP6 ADD PUSH1 0x5 SHR DUP2 ADD SWAP2 PUSH1 0x20 DUP7 LT PUSH2 0xD7F JUMPI PUSH1 0x1F ADD PUSH1 0x5 SHR ADD SWAP1 PUSH2 0x62C9 JUMP JUMPDEST DUP5 PUSH2 0x9E9 JUMP JUMPDEST ADD MLOAD SWAP1 POP DUP4 DUP1 PUSH2 0x9A0 JUMP JUMPDEST SWAP3 POP PUSH1 0xD DUP5 ADD PUSH1 0x0 MSTORE PUSH1 0x20 PUSH1 0x0 KECCAK256 SWAP1 PUSH1 0x0 SWAP4 JUMPDEST PUSH1 0x1F NOT DUP5 AND DUP6 LT PUSH2 0x11FC JUMPI PUSH1 0x1 SWAP5 POP DUP4 PUSH1 0x1F NOT DUP2 AND LT PUSH2 0x11E3 JUMPI JUMPDEST POP POP POP DUP2 SHL ADD PUSH1 0xD DUP3 ADD SSTORE PUSH2 0x9B8 JUMP JUMPDEST ADD MLOAD PUSH1 0x0 NOT PUSH1 0xF8 DUP5 PUSH1 0x3 SHL AND SHR NOT AND SWAP1 SSTORE DUP4 DUP1 DUP1 PUSH2 0x11D3 JUMP JUMPDEST DUP2 DUP2 ADD MLOAD DUP4 SSTORE PUSH1 0x20 SWAP5 DUP6 ADD SWAP5 PUSH1 0x1 SWAP1 SWAP4 ADD SWAP3 SWAP1 SWAP2 ADD SWAP1 PUSH2 0x11B8 JUMP JUMPDEST PUSH2 0x1246 SWAP1 PUSH1 0xD DUP7 ADD PUSH1 0x0 MSTORE PUSH1 0x20 PUSH1 0x0 KECCAK256 PUSH1 0x1F DUP6 ADD PUSH1 0x5 SHR DUP2 ADD SWAP2 PUSH1 0x20 DUP7 LT PUSH2 0xD7F JUMPI PUSH1 0x1F ADD PUSH1 0x5 SHR ADD SWAP1 PUSH2 0x62C9 JUMP JUMPDEST DUP5 PUSH2 0x989 JUMP JUMPDEST PUSH4 0x4E487B71 PUSH1 0xE0 SHL PUSH1 0x0 MSTORE PUSH1 0x21 PUSH1 0x4 MSTORE PUSH1 0x24 PUSH1 0x0 REVERT JUMPDEST ADD MLOAD SWAP1 POP DUP4 DUP1 PUSH2 0x8D0 JUMP JUMPDEST SWAP3 POP PUSH1 0xA DUP5 ADD PUSH1 0x0 MSTORE PUSH1 0x20 PUSH1 0x0 KECCAK256 SWAP1 PUSH1 0x0 SWAP4 JUMPDEST PUSH1 0x1F NOT DUP5 AND DUP6 LT PUSH2 0x12C4 JUMPI PUSH1 0x1 SWAP5 POP DUP4 PUSH1 0x1F NOT DUP2 AND LT PUSH2 0x12AB JUMPI JUMPDEST POP POP POP DUP2 SHL ADD PUSH1 0xA DUP3 ADD SSTORE PUSH2 0x8E8 JUMP JUMPDEST ADD MLOAD PUSH1 0x0 NOT PUSH1 0xF8 DUP5 PUSH1 0x3 SHL AND SHR NOT AND SWAP1 SSTORE DUP4 DUP1 DUP1 PUSH2 0x129B JUMP JUMPDEST DUP2 DUP2 ADD MLOAD DUP4 SSTORE PUSH1 0x20 SWAP5 DUP6 ADD SWAP5 PUSH1 0x1 SWAP1 SWAP4 ADD SWAP3 SWAP1 SWAP2 ADD SWAP1 PUSH2 0x1280 JUMP JUMPDEST PUSH2 0x130E SWAP1 PUSH1 0xA DUP7 ADD PUSH1 0x0 MSTORE PUSH1 0x20 PUSH1 0x0 KECCAK256 PUSH1 0x1F DUP6 ADD PUSH1 0x5 SHR DUP2 ADD SWAP2 PUSH1 0x20 DUP7 LT PUSH2 0xD7F JUMPI PUSH1 0x1F ADD PUSH1 0x5 SHR ADD SWAP1 PUSH2 0x62C9 JUMP JUMPDEST DUP5 PUSH2 0x8B9 JUMP JUMPDEST ADD MLOAD SWAP1 POP DUP4 DUP1 PUSH2 0x850 JUMP JUMPDEST SWAP3 POP PUSH1 0x6 DUP5 ADD PUSH1 0x0 MSTORE PUSH1 0x20 PUSH1 0x0 KECCAK256 SWAP1 PUSH1 0x0 SWAP4 JUMPDEST PUSH1 0x1F NOT DUP5 AND DUP6 LT PUSH2 0x1376 JUMPI PUSH1 0x1 SWAP5 POP DUP4 PUSH1 0x1F NOT DUP2 AND LT PUSH2 0x135D JUMPI JUMPDEST POP POP POP DUP2 SHL ADD PUSH1 0x6 DUP3 ADD SSTORE PUSH2 0x868 JUMP JUMPDEST ADD MLOAD PUSH1 0x0 NOT PUSH1 0xF8 DUP5 PUSH1 0x3 SHL AND SHR NOT AND SWAP1 SSTORE DUP4 DUP1 DUP1 PUSH2 0x134D JUMP JUMPDEST DUP2 DUP2 ADD MLOAD DUP4 SSTORE PUSH1 0x20 SWAP5 DUP6 ADD SWAP5 PUSH1 0x1 SWAP1 SWAP4 ADD SWAP3 SWAP1 SWAP2 ADD SWAP1 PUSH2 0x1332 JUMP JUMPDEST PUSH2 0x13C0 SWAP1 PUSH1 0x6 DUP7 ADD PUSH1 0x0 MSTORE PUSH1 0x20 PUSH1 0x0 KECCAK256 PUSH1 0x1F DUP6 ADD PUSH1 0x5 SHR DUP2 ADD SWAP2 PUSH1 0x20 DUP7 LT PUSH2 0xD7F JUMPI PUSH1 0x1F ADD PUSH1 0x5 SHR ADD SWAP1 PUSH2 0x62C9 JUMP JUMPDEST DUP5 PUSH2 0x839 JUMP JUMPDEST ADD MLOAD SWAP1 POP DUP4 DUP1 PUSH2 0x7F1 JUMP JUMPDEST SWAP3 POP PUSH1 0x5 DUP5 ADD PUSH1 0x0 MSTORE PUSH1 0x20 PUSH1 0x0 KECCAK256 SWAP1 PUSH1 0x0 SWAP4 JUMPDEST PUSH1 0x1F NOT DUP5 AND DUP6 LT PUSH2 0x1428 JUMPI PUSH1 0x1 SWAP5 POP DUP4 PUSH1 0x1F NOT DUP2 AND LT PUSH2 0x140F JUMPI JUMPDEST POP POP POP DUP2 SHL ADD PUSH1 0x5 DUP3 ADD SSTORE PUSH2 0x809 JUMP JUMPDEST ADD MLOAD PUSH1 0x0 NOT PUSH1 0xF8 DUP5 PUSH1 0x3 SHL AND SHR NOT AND SWAP1 SSTORE DUP4 DUP1 DUP1 PUSH2 0x13FF JUMP JUMPDEST DUP2 DUP2 ADD MLOAD DUP4 SSTORE PUSH1 0x20 SWAP5 DUP6 ADD SWAP5 PUSH1 0x1 SWAP1 SWAP4 ADD SWAP3 SWAP1 SWAP2 ADD SWAP1 PUSH2 0x13E4 JUMP JUMPDEST PUSH2 0x1472 SWAP1 PUSH1 0x5 DUP7 ADD PUSH1 0x0 MSTORE PUSH1 0x20 PUSH1 0x0 KECCAK256 PUSH1 0x1F DUP6 ADD PUSH1 0x5 SHR DUP2 ADD SWAP2 PUSH1 0x20 DUP7 LT PUSH2 0xD7F JUMPI PUSH1 0x1F ADD PUSH1 0x5 SHR ADD SWAP1 PUSH2 0x62C9 JUMP JUMPDEST DUP5 PUSH2 0x7DA JUMP JUMPDEST ADD MLOAD SWAP1 POP DUP4 DUP1 PUSH2 0x792 JUMP JUMPDEST SWAP3 POP PUSH1 0x4 DUP5 ADD PUSH1 0x0 MSTORE PUSH1 0x20 PUSH1 0x0 KECCAK256 SWAP1 PUSH1 0x0 SWAP4 JUMPDEST PUSH1 0x1F NOT DUP5 AND DUP6 LT PUSH2 0x14DA JUMPI PUSH1 0x1 SWAP5 POP DUP4 PUSH1 0x1F NOT DUP2 AND LT PUSH2 0x14C1 JUMPI JUMPDEST POP POP POP DUP2 SHL ADD PUSH1 0x4 DUP3 ADD SSTORE PUSH2 0x7AA JUMP JUMPDEST ADD MLOAD PUSH1 0x0 NOT PUSH1 0xF8 DUP5 PUSH1 0x3 SHL AND SHR NOT AND SWAP1 SSTORE DUP4 DUP1 DUP1 PUSH2 0x14B1 JUMP JUMPDEST DUP2 DUP2 ADD MLOAD DUP4 SSTORE PUSH1 0x20 SWAP5 DUP6 ADD SWAP5 PUSH1 0x1 SWAP1 SWAP4 ADD SWAP3 SWAP1 SWAP2 ADD SWAP1 PUSH2 0x1496 JUMP JUMPDEST PUSH2 0x1524 SWAP1 PUSH1 0x4 DUP7 ADD PUSH1 0x0 MSTORE PUSH1 0x20 PUSH1 0x0 KECCAK256 PUSH1 0x1F DUP6 ADD PUSH1 0x5 SHR DUP2 ADD SWAP2 PUSH1 0x20 DUP7 LT PUSH2 0xD7F JUMPI PUSH1 0x1F ADD PUSH1 0x5 SHR ADD SWAP1 PUSH2 0x62C9 JUMP JUMPDEST DUP5 PUSH2 0x77B JUMP JUMPDEST DUP1 MLOAD DUP1 MLOAD SWAP1 PUSH1 0x1 PUSH1 0x1 PUSH1 0x40 SHL SUB DUP3 GT PUSH2 0xD89 JUMPI PUSH2 0x1547 DUP7 SLOAD PUSH2 0x5B54 JUMP JUMPDEST PUSH1 0x1F DUP2 GT PUSH2 0x160D JUMPI JUMPDEST POP PUSH1 0x20 SWAP1 PUSH1 0x1F DUP4 GT PUSH1 0x1 EQ PUSH2 0x159D JUMPI SWAP3 DUP3 PUSH1 0x1 SWAP5 SWAP4 PUSH1 0x20 SWAP4 DUP7 SWAP6 PUSH1 0x0 SWAP3 PUSH2 0x1592 JUMPI JUMPDEST POP POP PUSH1 0x0 NOT PUSH1 0x3 DUP4 SWAP1 SHL SHR NOT AND SWAP1 DUP5 SHL OR DUP8 SSTORE JUMPDEST ADD SWAP5 ADD SWAP2 ADD SWAP1 SWAP3 PUSH2 0x743 JUMP JUMPDEST ADD MLOAD SWAP1 POP DUP11 DUP1 PUSH2 0x1572 JUMP JUMPDEST SWAP1 DUP7 PUSH1 0x0 MSTORE PUSH1 0x20 PUSH1 0x0 KECCAK256 SWAP2 PUSH1 0x0 JUMPDEST PUSH1 0x1F NOT DUP6 AND DUP2 LT PUSH2 0x15F5 JUMPI POP DUP4 PUSH1 0x20 SWAP4 PUSH1 0x1 SWAP7 SWAP4 DUP8 SWAP7 SWAP4 DUP8 SWAP5 PUSH1 0x1F NOT DUP2 AND LT PUSH2 0x15DC JUMPI JUMPDEST POP POP POP DUP2 SHL ADD DUP8 SSTORE PUSH2 0x1586 JUMP JUMPDEST ADD MLOAD PUSH1 0x0 NOT PUSH1 0xF8 DUP5 PUSH1 0x3 SHL AND SHR NOT AND SWAP1 SSTORE DUP11 DUP1 DUP1 PUSH2 0x15CF JUMP JUMPDEST SWAP2 SWAP3 PUSH1 0x20 PUSH1 0x1 DUP2 SWAP3 DUP7 DUP6 ADD MLOAD DUP2 SSTORE ADD SWAP5 ADD SWAP3 ADD PUSH2 0x15AB JUMP JUMPDEST PUSH2 0x163A SWAP1 DUP8 PUSH1 0x0 MSTORE PUSH1 0x20 PUSH1 0x0 KECCAK256 PUSH1 0x5 PUSH1 0x1F DUP7 ADD DUP2 SHR DUP3 ADD SWAP3 PUSH1 0x20 DUP8 LT PUSH2 0x1640 JUMPI JUMPDEST PUSH1 0x1F ADD SWAP1 SHR ADD SWAP1 PUSH2 0x62C9 JUMP JUMPDEST DUP8 PUSH2 0x1550 JUMP JUMPDEST SWAP2 SWAP3 POP DUP3 SWAP2 PUSH2 0x162E JUMP JUMPDEST PUSH1 0x3 DUP5 ADD PUSH1 0x0 MSTORE PUSH1 0x20 PUSH1 0x0 KECCAK256 SWAP1 DUP4 DUP3 ADD JUMPDEST DUP2 DUP4 ADD DUP2 LT PUSH2 0x166B JUMPI POP POP PUSH2 0x72D JUMP JUMPDEST DUP1 PUSH2 0x1677 PUSH1 0x1 SWAP3 PUSH2 0x62E0 JUMP JUMPDEST ADD PUSH2 0x165B JUMP JUMPDEST ADD MLOAD SWAP1 POP DUP4 DUP1 PUSH2 0x6ED JUMP JUMPDEST SWAP3 POP PUSH1 0x2 DUP5 ADD PUSH1 0x0 MSTORE PUSH1 0x20 PUSH1 0x0 KECCAK256 SWAP1 PUSH1 0x0 SWAP4 JUMPDEST PUSH1 0x1F NOT DUP5 AND DUP6 LT PUSH2 0x16DF JUMPI PUSH1 0x1 SWAP5 POP DUP4 PUSH1 0x1F NOT DUP2 AND LT PUSH2 0x16C6 JUMPI JUMPDEST POP POP POP DUP2 SHL ADD PUSH1 0x2 DUP3 ADD SSTORE PUSH2 0x705 JUMP JUMPDEST ADD MLOAD PUSH1 0x0 NOT PUSH1 0xF8 DUP5 PUSH1 0x3 SHL AND SHR NOT AND SWAP1 SSTORE DUP4 DUP1 DUP1 PUSH2 0x16B6 JUMP JUMPDEST DUP2 DUP2 ADD MLOAD DUP4 SSTORE PUSH1 0x20 SWAP5 DUP6 ADD SWAP5 PUSH1 0x1 SWAP1 SWAP4 ADD SWAP3 SWAP1 SWAP2 ADD SWAP1 PUSH2 0x169B JUMP JUMPDEST PUSH2 0x1729 SWAP1 PUSH1 0x2 DUP7 ADD PUSH1 0x0 MSTORE PUSH1 0x20 PUSH1 0x0 KECCAK256 PUSH1 0x1F DUP6 ADD PUSH1 0x5 SHR DUP2 ADD SWAP2 PUSH1 0x20 DUP7 LT PUSH2 0xD7F JUMPI PUSH1 0x1F ADD PUSH1 0x5 SHR ADD SWAP1 PUSH2 0x62C9 JUMP JUMPDEST DUP5 PUSH2 0x6D6 JUMP JUMPDEST PUSH1 0x40 MLOAD PUSH3 0x461BCD PUSH1 0xE5 SHL DUP2 MSTORE PUSH1 0x20 PUSH1 0x4 DUP3 ADD MSTORE PUSH1 0x1B PUSH1 0x24 DUP3 ADD MSTORE PUSH32 0x43616E6E6F74206368616E67652073656C6C65722077616C6C65740000000000 PUSH1 0x44 DUP3 ADD MSTORE PUSH1 0x64 SWAP1 REVERT JUMPDEST POP PUSH1 0x0 SLOAD PUSH1 0x1 PUSH1 0x1 PUSH1 0xA0 SHL SUB AND CALLER EQ PUSH2 0x425 JUMP JUMPDEST CALLVALUE PUSH2 0x265 JUMPI PUSH1 0x20 CALLDATASIZE PUSH1 0x3 NOT ADD SLT PUSH2 0x265 JUMPI PUSH2 0x17C2 PUSH2 0x17BD PUSH1 0x4 CALLDATALOAD PUSH1 0x0 MSTORE PUSH1 0x4 PUSH1 0x20 MSTORE PUSH1 0x1 DUP1 PUSH1 0xA0 SHL SUB PUSH1 0x40 PUSH1 0x0 KECCAK256 SLOAD AND ISZERO ISZERO SWAP1 JUMP JUMPDEST PUSH2 0x5AE5 JUMP JUMPDEST PUSH1 0x0 PUSH1 0x40 MLOAD PUSH2 0x17D0 DUP2 PUSH2 0x5345 JUMP JUMPDEST MSTORE PUSH2 0x17F8 PUSH1 0x40 MLOAD PUSH2 0x17E0 DUP2 PUSH2 0x5345 JUMP JUMPDEST PUSH1 0x0 DUP2 MSTORE PUSH1 0x40 MLOAD SWAP2 DUP3 SWAP2 PUSH1 0x20 DUP4 MSTORE PUSH1 0x20 DUP4 ADD SWAP1 PUSH2 0x526C JUMP JUMPDEST SUB SWAP1 RETURN JUMPDEST CALLVALUE PUSH2 0x265 JUMPI PUSH1 0x20 DUP1 PUSH1 0x3 NOT CALLDATASIZE ADD SLT PUSH2 0x265 JUMPI PUSH1 0x4 CALLDATALOAD PUSH1 0x0 DUP2 DUP2 MSTORE PUSH1 0xB DUP4 MSTORE PUSH1 0x40 SWAP1 KECCAK256 PUSH1 0x1 ADD SLOAD PUSH1 0x1 PUSH1 0x1 PUSH1 0xA0 SHL SUB SWAP3 SWAP1 DUP4 AND CALLER EQ DUP1 ISZERO PUSH2 0x194A JUMPI JUMPDEST ISZERO PUSH2 0x1906 JUMPI DUP2 PUSH1 0x0 MSTORE PUSH1 0xD DUP2 MSTORE PUSH1 0x40 PUSH1 0x0 KECCAK256 SWAP3 PUSH1 0x5 DUP5 ADD DUP1 SLOAD PUSH2 0x185C PUSH1 0xFF DUP3 AND PUSH2 0x6BF3 JUMP JUMPDEST PUSH1 0x4 DUP7 ADD SLOAD TIMESTAMP LT PUSH2 0x18C1 JUMPI SWAP2 PUSH1 0x2 SWAP2 PUSH32 0xD2AA34A4FDBBC6DFF6A3E56F46E0F3AE2A31D7785FF3487AA5C95C642ACEA501 SWAP5 SWAP4 PUSH1 0xFF NOT AND SWAP1 SSTORE PUSH1 0x3 DUP7 ADD DUP2 DUP2 SLOAD AND PUSH2 0x18AF JUMPI JUMPDEST SLOAD AND SWAP5 ADD SLOAD PUSH1 0x40 MLOAD SWAP1 DUP2 MSTORE LOG3 STOP JUMPDEST PUSH2 0x18BC DUP4 DUP9 ADD SLOAD DUP8 PUSH2 0x6C8F JUMP JUMPDEST PUSH2 0x18A1 JUMP JUMPDEST PUSH1 0x40 MLOAD PUSH3 0x461BCD PUSH1 0xE5 SHL DUP2 MSTORE PUSH1 0x4 DUP2 ADD DUP6 SWAP1 MSTORE PUSH1 0x19 PUSH1 0x24 DUP3 ADD MSTORE PUSH32 0x41756374696F6E207374696C6C20696E2070726F677265737300000000000000 PUSH1 0x44 DUP3 ADD MSTORE PUSH1 0x64 SWAP1 REVERT JUMPDEST PUSH1 0x64 SWAP1 PUSH1 0x40 MLOAD SWAP1 PUSH3 0x461BCD PUSH1 0xE5 SHL DUP3 MSTORE PUSH1 0x4 DUP3 ADD MSTORE PUSH1 0x1A PUSH1 0x24 DUP3 ADD MSTORE PUSH32 0x4F6E6C79206F776E65722063616E20656E642061756374696F6E000000000000 PUSH1 0x44 DUP3 ADD MSTORE REVERT JUMPDEST POP DUP3 PUSH1 0x0 SLOAD AND CALLER EQ PUSH2 0x1837 JUMP JUMPDEST CALLVALUE PUSH2 0x265 JUMPI PUSH1 0x80 CALLDATASIZE PUSH1 0x3 NOT ADD SLT PUSH2 0x265 JUMPI PUSH2 0x1970 PUSH2 0x52AC JUMP JUMPDEST PUSH2 0x1978 PUSH2 0x52C2 JUMP JUMPDEST SWAP1 PUSH1 0x64 CALLDATALOAD SWAP1 PUSH1 0x44 CALLDATALOAD PUSH1 0x1 PUSH1 0x1 PUSH1 0x40 SHL SUB DUP4 GT PUSH2 0x265 JUMPI CALLDATASIZE PUSH1 0x23 DUP5 ADD SLT ISZERO PUSH2 0x265 JUMPI PUSH2 0x19DC SWAP4 PUSH2 0x19B4 PUSH2 0x19D7 SWAP5 CALLDATASIZE SWAP1 PUSH1 0x24 DUP2 PUSH1 0x4 ADD CALLDATALOAD SWAP2 ADD PUSH2 0x539C JUMP JUMPDEST SWAP3 PUSH2 0x19C7 PUSH2 0x19C2 DUP5 CALLER PUSH2 0x5D4B JUMP JUMPDEST PUSH2 0x5C72 JUMP JUMPDEST PUSH2 0x19D2 DUP4 DUP4 DUP4 PUSH2 0x5E13 JUMP JUMPDEST PUSH2 0x604F JUMP JUMPDEST PUSH2 0x5D27 JUMP JUMPDEST STOP JUMPDEST CALLVALUE PUSH2 0x265 JUMPI PUSH1 0x40 CALLDATASIZE PUSH1 0x3 NOT ADD SLT PUSH2 0x265 JUMPI PUSH1 0x4 CALLDATALOAD PUSH2 0x19FA PUSH2 0x52C2 JUMP JUMPDEST SWAP1 DUP1 PUSH1 0x0 MSTORE PUSH1 0xB PUSH1 0x20 DUP2 DUP2 MSTORE PUSH1 0x1 DUP1 PUSH1 0xA0 SHL SUB SWAP4 PUSH2 0x1A23 DUP6 PUSH1 0x1 PUSH1 0x40 PUSH1 0x0 KECCAK256 ADD SLOAD AND ISZERO ISZERO PUSH2 0x6A01 JUMP JUMPDEST DUP4 PUSH1 0x0 MSTORE DUP3 DUP3 MSTORE DUP5 PUSH1 0x11 PUSH1 0x40 PUSH1 0x0 KECCAK256 ADD SLOAD AND CALLER EQ DUP1 ISZERO PUSH2 0x1C72 JUMPI JUMPDEST ISZERO PUSH2 0x1C23 JUMPI DUP5 DUP2 AND SWAP5 DUP6 ISZERO PUSH2 0x1BDE JUMPI DUP5 PUSH1 0x0 MSTORE DUP4 DUP4 MSTORE DUP1 PUSH1 0x1 PUSH1 0x40 PUSH1 0x0 KECCAK256 ADD SLOAD AND DUP7 EQ PUSH2 0x1B82 JUMPI DUP5 PUSH1 0x0 MSTORE DUP4 DUP4 MSTORE PUSH2 0x1A84 PUSH1 0xFF PUSH1 0x16 PUSH1 0x40 PUSH1 0x0 KECCAK256 ADD SLOAD PUSH1 0x8 SHR AND ISZERO PUSH2 0x69BE JUMP JUMPDEST DUP5 PUSH1 0x0 MSTORE DUP4 DUP4 MSTORE PUSH2 0x1AA0 PUSH1 0xFF PUSH1 0x16 PUSH1 0x40 PUSH1 0x0 KECCAK256 ADD SLOAD AND ISZERO PUSH2 0x6A42 JUMP JUMPDEST DUP5 PUSH1 0x0 MSTORE PUSH1 0xD DUP4 MSTORE PUSH1 0xFF PUSH1 0x5 PUSH1 0x40 PUSH1 0x0 KECCAK256 ADD SLOAD AND PUSH2 0x1B2B JUMPI PUSH2 0x1AD4 SWAP2 DUP6 SWAP2 DUP3 PUSH1 0x0 MSTORE DUP6 DUP6 MSTORE PUSH1 0x1 PUSH1 0x40 PUSH1 0x0 KECCAK256 ADD SLOAD AND PUSH2 0x5E13 JUMP JUMPDEST DUP3 PUSH1 0x0 MSTORE MSTORE PUSH1 0x40 PUSH1 0x0 KECCAK256 DUP3 PUSH1 0x11 PUSH1 0x1 DUP4 ADD SWAP3 PUSH1 0x1 PUSH1 0x1 PUSH1 0x60 SHL SUB PUSH1 0xA0 SHL SWAP4 DUP4 DUP6 DUP3 SLOAD AND OR SWAP1 SSTORE ADD SWAP2 DUP3 SLOAD AND OR SWAP1 SSTORE CALLER SWAP1 PUSH32 0x16392DC525523BCDBDF2494672F3DB13BECA6EB1F9402B2391B7BEF598832C8B PUSH1 0x0 DUP1 LOG4 STOP JUMPDEST PUSH1 0x40 MLOAD PUSH3 0x461BCD PUSH1 0xE5 SHL DUP2 MSTORE PUSH1 0x4 DUP2 ADD DUP5 SWAP1 MSTORE PUSH1 0x29 PUSH1 0x24 DUP3 ADD MSTORE PUSH32 0x43616E6E6F74207472616E736665722063617220647572696E67206163746976 PUSH1 0x44 DUP3 ADD MSTORE PUSH9 0x329030BAB1BA34B7B7 PUSH1 0xB9 SHL PUSH1 0x64 DUP3 ADD MSTORE PUSH1 0x84 SWAP1 REVERT JUMPDEST PUSH1 0x40 MLOAD PUSH3 0x461BCD PUSH1 0xE5 SHL DUP2 MSTORE PUSH1 0x4 DUP2 ADD DUP5 SWAP1 MSTORE PUSH1 0x2E PUSH1 0x24 DUP3 ADD MSTORE PUSH32 0x4E6577206F776E6572206D75737420626520646966666572656E742066726F6D PUSH1 0x44 DUP3 ADD MSTORE PUSH14 0x1031BAB93932B73A1037BBB732B9 PUSH1 0x91 SHL PUSH1 0x64 DUP3 ADD MSTORE PUSH1 0x84 SWAP1 REVERT JUMPDEST PUSH1 0x40 MLOAD PUSH3 0x461BCD PUSH1 0xE5 SHL DUP2 MSTORE PUSH1 0x4 DUP2 ADD DUP5 SWAP1 MSTORE PUSH1 0x19 PUSH1 0x24 DUP3 ADD MSTORE PUSH32 0x496E76616C6964206E6577206F776E6572206164647265737300000000000000 PUSH1 0x44 DUP3 ADD MSTORE PUSH1 0x64 SWAP1 REVERT JUMPDEST PUSH1 0x40 MLOAD PUSH3 0x461BCD PUSH1 0xE5 SHL DUP2 MSTORE PUSH1 0x4 DUP2 ADD DUP4 SWAP1 MSTORE PUSH1 0x21 PUSH1 0x24 DUP3 ADD MSTORE PUSH32 0x4F6E6C792073656C6C6572206F722061646D696E2063616E207472616E736665 PUSH1 0x44 DUP3 ADD MSTORE PUSH1 0x39 PUSH1 0xF9 SHL PUSH1 0x64 DUP3 ADD MSTORE PUSH1 0x84 SWAP1 REVERT JUMPDEST POP DUP5 PUSH1 0x0 SLOAD AND CALLER EQ PUSH2 0x1A3E JUMP JUMPDEST CALLVALUE PUSH2 0x265 JUMPI PUSH1 0x20 CALLDATASIZE PUSH1 0x3 NOT ADD SLT PUSH2 0x265 JUMPI PUSH1 0x4 CALLDATALOAD PUSH1 0x0 MSTORE PUSH1 0xD PUSH1 0x20 MSTORE PUSH1 0xC0 PUSH1 0x40 PUSH1 0x0 KECCAK256 DUP1 SLOAD SWAP1 PUSH1 0x1 DUP2 ADD SLOAD SWAP1 PUSH1 0x2 DUP2 ADD SLOAD PUSH1 0x1 DUP1 PUSH1 0xA0 SHL SUB PUSH1 0x3 DUP4 ADD SLOAD AND SWAP1 PUSH1 0xFF PUSH1 0x5 PUSH1 0x4 DUP6 ADD SLOAD SWAP5 ADD SLOAD AND SWAP4 PUSH1 0x40 MLOAD SWAP6 DUP7 MSTORE PUSH1 0x20 DUP7 ADD MSTORE PUSH1 0x40 DUP6 ADD MSTORE PUSH1 0x60 DUP5 ADD MSTORE PUSH1 0x80 DUP4 ADD MSTORE ISZERO ISZERO PUSH1 0xA0 DUP3 ADD MSTORE RETURN JUMPDEST CALLVALUE PUSH2 0x265 JUMPI PUSH1 0x0 CALLDATASIZE PUSH1 0x3 NOT ADD SLT PUSH2 0x265 JUMPI PUSH1 0x8 DUP1 SLOAD PUSH1 0x0 PUSH1 0x1 JUMPDEST DUP3 DUP2 GT ISZERO PUSH2 0x1D9B JUMPI POP PUSH2 0x1D1B SWAP1 PUSH2 0x6928 JUMP JUMPDEST SWAP2 PUSH1 0x1 PUSH1 0x0 JUMPDEST DUP4 DUP3 GT ISZERO PUSH2 0x1D37 JUMPI PUSH1 0x40 MLOAD DUP1 PUSH2 0x17F8 DUP8 DUP3 PUSH2 0x5727 JUMP JUMPDEST DUP2 PUSH1 0x0 MSTORE PUSH1 0xB PUSH1 0x20 MSTORE PUSH1 0x40 PUSH1 0x0 KECCAK256 SWAP2 PUSH1 0xFF PUSH1 0x16 DUP5 ADD SLOAD DUP6 SHR AND ISZERO PUSH2 0x1D67 JUMPI JUMPDEST PUSH2 0x1D61 SWAP2 SWAP3 POP PUSH2 0x6919 JUMP JUMPDEST SWAP1 PUSH2 0x1D21 JUMP JUMPDEST PUSH2 0x1D92 DUP3 PUSH2 0x1D81 PUSH2 0x1D7B PUSH2 0x1D61 SWAP6 SWAP3 PUSH2 0x6919 JUMP JUMPDEST SWAP6 PUSH2 0x674E JUMP JUMPDEST PUSH2 0x1D8B DUP3 DUP11 PUSH2 0x6978 JUMP JUMPDEST MSTORE DUP8 PUSH2 0x6978 JUMP JUMPDEST POP DUP3 SWAP2 POP PUSH2 0x1D56 JUMP JUMPDEST DUP1 PUSH1 0x0 MSTORE PUSH1 0xB PUSH1 0x20 MSTORE PUSH1 0xFF PUSH1 0x16 PUSH1 0x40 PUSH1 0x0 KECCAK256 ADD SLOAD DUP6 SHR AND ISZERO PUSH2 0x1DC6 JUMPI JUMPDEST PUSH2 0x1DC1 SWAP1 PUSH2 0x6919 JUMP JUMPDEST PUSH2 0x1D09 JUMP JUMPDEST SWAP1 PUSH2 0x1DD3 PUSH2 0x1DC1 SWAP2 PUSH2 0x6919 JUMP JUMPDEST SWAP2 SWAP1 POP PUSH2 0x1DB8 JUMP JUMPDEST CALLVALUE PUSH2 0x265 JUMPI PUSH1 0x40 CALLDATASIZE PUSH1 0x3 NOT ADD SLT PUSH2 0x265 JUMPI PUSH2 0x1DF4 PUSH2 0x52AC JUMP JUMPDEST PUSH1 0x24 CALLDATALOAD SWAP1 DUP2 ISZERO ISZERO SWAP1 DUP2 DUP4 SUB PUSH2 0x265 JUMPI PUSH1 0x1 PUSH1 0x1 PUSH1 0xA0 SHL SUB AND SWAP2 CALLER DUP4 EQ PUSH2 0x1E71 JUMPI PUSH2 0x1E43 SWAP1 CALLER PUSH1 0x0 MSTORE PUSH1 0x7 PUSH1 0x20 MSTORE PUSH1 0x40 PUSH1 0x0 KECCAK256 DUP5 PUSH1 0x0 MSTORE PUSH1 0x20 MSTORE PUSH1 0x40 PUSH1 0x0 KECCAK256 SWAP1 PUSH1 0xFF DUP1 NOT DUP4 SLOAD AND SWAP2 ISZERO ISZERO AND OR SWAP1 SSTORE JUMP JUMPDEST PUSH1 0x40 MLOAD SWAP1 DUP2 MSTORE PUSH32 0x17307EAB39AB6107E8899845AD3D59BD9653F200F220920489CA2B5937696C31 PUSH1 0x20 CALLER SWAP3 LOG3 STOP JUMPDEST PUSH1 0x40 MLOAD PUSH3 0x461BCD PUSH1 0xE5 SHL DUP2 MSTORE PUSH1 0x20 PUSH1 0x4 DUP3 ADD MSTORE PUSH1 0x19 PUSH1 0x24 DUP3 ADD MSTORE PUSH32 0x4552433732313A20617070726F766520746F2063616C6C657200000000000000 PUSH1 0x44 DUP3 ADD MSTORE PUSH1 0x64 SWAP1 REVERT JUMPDEST CALLVALUE PUSH2 0x265 JUMPI PUSH1 0x20 DUP1 PUSH1 0x3 NOT CALLDATASIZE ADD SLT PUSH2 0x265 JUMPI PUSH1 0x4 CALLDATALOAD SWAP1 DUP2 PUSH1 0x0 MSTORE PUSH1 0xB SWAP2 DUP3 DUP3 MSTORE PUSH1 0xFF PUSH2 0x1EEF DUP2 PUSH1 0x16 PUSH1 0x40 PUSH1 0x0 KECCAK256 ADD SLOAD PUSH1 0x8 SHR AND ISZERO PUSH2 0x69BE JUMP JUMPDEST PUSH1 0x0 SWAP2 PUSH1 0x0 JUMPDEST DUP2 PUSH1 0x0 MSTORE DUP6 DUP6 MSTORE PUSH1 0x10 PUSH1 0x40 PUSH1 0x0 KECCAK256 ADD DUP1 SLOAD DUP3 LT ISZERO PUSH2 0x1F47 JUMPI PUSH1 0x4 PUSH2 0x1F1A DUP4 DUP7 SWAP4 PUSH2 0x6B0D JUMP JUMPDEST POP ADD SLOAD AND ISZERO PUSH2 0x1F32 JUMPI JUMPDEST PUSH2 0x1F2D SWAP1 PUSH2 0x6919 JUMP JUMPDEST PUSH2 0x1EF5 JUMP JUMPDEST SWAP3 PUSH2 0x1F3F PUSH2 0x1F2D SWAP2 PUSH2 0x6919 JUMP JUMPDEST SWAP4 SWAP1 POP PUSH2 0x1F24 JUMP JUMPDEST POP POP SWAP3 SWAP2 SWAP4 PUSH2 0x1F55 DUP6 PUSH2 0x5789 JUMP JUMPDEST SWAP5 PUSH2 0x1F63 PUSH1 0x40 MLOAD SWAP7 DUP8 PUSH2 0x5360 JUMP JUMPDEST DUP1 DUP7 MSTORE PUSH2 0x1F72 PUSH1 0x1F NOT SWAP2 PUSH2 0x5789 JUMP JUMPDEST ADD DUP4 PUSH1 0x0 JUMPDEST DUP3 DUP2 LT PUSH2 0x2023 JUMPI POP POP POP PUSH1 0x0 SWAP3 PUSH1 0x0 JUMPDEST DUP6 PUSH1 0x0 MSTORE DUP3 DUP3 MSTORE PUSH1 0x10 DUP1 PUSH1 0x40 PUSH1 0x0 KECCAK256 ADD DUP1 SLOAD DUP4 LT ISZERO PUSH2 0x2010 JUMPI PUSH1 0x4 PUSH2 0x1FAD DUP5 DUP9 SWAP4 PUSH2 0x6B0D JUMP JUMPDEST POP ADD SLOAD AND ISZERO PUSH2 0x1FC6 JUMPI JUMPDEST POP PUSH2 0x1FC1 SWAP1 PUSH2 0x6919 JUMP JUMPDEST PUSH2 0x1F87 JUMP JUMPDEST DUP2 SWAP6 PUSH2 0x1FEE PUSH2 0x1FE8 PUSH2 0x1FC1 SWAP5 PUSH2 0x2009 SWAP5 DUP12 PUSH1 0x0 MSTORE DUP9 DUP9 MSTORE PUSH1 0x40 PUSH1 0x0 KECCAK256 ADD PUSH2 0x6B0D JUMP JUMPDEST POP PUSH2 0x6586 JUMP JUMPDEST PUSH2 0x1FF8 DUP3 DUP12 PUSH2 0x6978 JUMP JUMPDEST MSTORE PUSH2 0x2003 DUP2 DUP11 PUSH2 0x6978 JUMP JUMPDEST POP PUSH2 0x6919 JUMP JUMPDEST SWAP5 SWAP1 PUSH2 0x1FB7 JUMP JUMPDEST PUSH1 0x40 MLOAD DUP5 DUP2 MSTORE DUP1 PUSH2 0x17F8 DUP2 DUP8 ADD DUP13 PUSH2 0x54D4 JUMP JUMPDEST PUSH2 0x202B PUSH2 0x6285 JUMP JUMPDEST DUP3 DUP3 DUP11 ADD ADD MSTORE ADD DUP5 SWAP1 PUSH2 0x1F77 JUMP JUMPDEST PUSH1 0x20 DUP1 PUSH1 0x3 NOT CALLDATASIZE ADD SLT PUSH2 0x265 JUMPI PUSH1 0x4 CALLDATALOAD DUP1 PUSH1 0x0 MSTORE PUSH1 0xB DUP3 MSTORE PUSH2 0x2069 PUSH1 0xFF PUSH1 0x16 PUSH1 0x40 PUSH1 0x0 KECCAK256 ADD SLOAD PUSH1 0x8 SHR AND ISZERO PUSH2 0x69BE JUMP JUMPDEST DUP1 PUSH1 0x0 MSTORE PUSH1 0xB DUP3 MSTORE PUSH2 0x2094 PUSH1 0x1 PUSH1 0xFF PUSH1 0x16 PUSH1 0x40 PUSH1 0x0 KECCAK256 ADD SLOAD PUSH1 0x10 SHR AND PUSH2 0x208E DUP2 PUSH2 0x54CA JUMP JUMPDEST EQ PUSH2 0x6BA7 JUMP JUMPDEST DUP1 PUSH1 0x0 MSTORE PUSH1 0xD DUP3 MSTORE PUSH1 0x40 PUSH1 0x0 KECCAK256 PUSH2 0x20B1 PUSH1 0xFF PUSH1 0x5 DUP4 ADD SLOAD AND PUSH2 0x6BF3 JUMP JUMPDEST PUSH1 0x4 DUP2 ADD SLOAD TIMESTAMP LT ISZERO PUSH2 0x21BC JUMPI PUSH1 0x2 DUP2 ADD SWAP1 DUP2 SLOAD SWAP1 DUP2 CALLVALUE GT ISZERO PUSH2 0x2189 JUMPI PUSH1 0x0 DUP5 DUP2 MSTORE PUSH1 0xB DUP7 MSTORE PUSH1 0x40 SWAP1 KECCAK256 PUSH1 0x1 ADD SLOAD PUSH1 0x1 PUSH1 0x1 PUSH1 0xA0 SHL SUB SWAP2 SWAP1 DUP3 AND CALLER EQ PUSH2 0x2151 JUMPI PUSH1 0x3 ADD DUP1 SLOAD CALLVALUE SWAP1 SWAP5 SSTORE CALLER PUSH1 0x1 PUSH1 0x1 PUSH1 0xA0 SHL SUB NOT DUP6 AND OR SWAP1 SSTORE SWAP1 SWAP2 AND SWAP1 DUP2 PUSH2 0x2141 JUMPI JUMPDEST POP POP PUSH32 0xE54EFF26401BF69B81B26F60BD85EF47F5D85275C1D268D84F68D6897431C47 PUSH1 0x40 MLOAD SWAP3 CALLVALUE DUP5 MSTORE CALLER SWAP4 LOG3 STOP JUMPDEST PUSH2 0x214A SWAP2 PUSH2 0x6C34 JUMP JUMPDEST DUP3 DUP1 PUSH2 0x2112 JUMP JUMPDEST PUSH1 0x40 MLOAD PUSH3 0x461BCD PUSH1 0xE5 SHL DUP2 MSTORE PUSH1 0x4 DUP2 ADD DUP8 SWAP1 MSTORE PUSH1 0x10 PUSH1 0x24 DUP3 ADD MSTORE PUSH16 0x13DDDB995C8818D85B9B9BDD08189A59 PUSH1 0x82 SHL PUSH1 0x44 DUP3 ADD MSTORE PUSH1 0x64 SWAP1 REVERT JUMPDEST PUSH1 0x40 MLOAD PUSH3 0x461BCD PUSH1 0xE5 SHL DUP2 MSTORE PUSH1 0x4 DUP2 ADD DUP7 SWAP1 MSTORE PUSH1 0xB PUSH1 0x24 DUP3 ADD MSTORE PUSH11 0x42696420746F6F206C6F77 PUSH1 0xA8 SHL PUSH1 0x44 DUP3 ADD MSTORE PUSH1 0x64 SWAP1 REVERT JUMPDEST PUSH1 0x40 MLOAD PUSH3 0x461BCD PUSH1 0xE5 SHL DUP2 MSTORE PUSH1 0x4 DUP2 ADD DUP5 SWAP1 MSTORE PUSH1 0xD PUSH1 0x24 DUP3 ADD MSTORE PUSH13 0x105D58DD1A5BDB88195B991959 PUSH1 0x9A SHL PUSH1 0x44 DUP3 ADD MSTORE PUSH1 0x64 SWAP1 REVERT JUMPDEST CALLVALUE PUSH2 0x265 JUMPI PUSH1 0x20 DUP1 PUSH1 0x3 NOT CALLDATASIZE ADD SLT PUSH2 0x265 JUMPI PUSH1 0x4 CALLDATALOAD PUSH1 0x0 DUP2 DUP2 MSTORE PUSH1 0xB DUP4 MSTORE PUSH1 0x40 SWAP1 KECCAK256 PUSH1 0x1 ADD SLOAD PUSH1 0x1 PUSH1 0x1 PUSH1 0xA0 SHL SUB SWAP1 DUP2 AND CALLER EQ DUP1 ISZERO PUSH2 0x2318 JUMPI JUMPDEST ISZERO PUSH2 0x22D3 JUMPI DUP2 PUSH1 0x0 MSTORE PUSH1 0xD DUP4 MSTORE PUSH1 0x40 PUSH1 0x0 KECCAK256 PUSH1 0x5 DUP2 ADD SWAP2 PUSH1 0x3 DUP4 SLOAD SWAP3 PUSH2 0x2253 PUSH1 0xFF DUP6 AND PUSH2 0x6BF3 JUMP JUMPDEST ADD SLOAD AND PUSH2 0x228E JUMPI PUSH1 0xFF NOT AND SWAP1 SSTORE PUSH1 0x40 MLOAD PUSH1 0x0 DUP1 DUP3 MSTORE SWAP3 PUSH32 0xD2AA34A4FDBBC6DFF6A3E56F46E0F3AE2A31D7785FF3487AA5C95C642ACEA501 SWAP2 LOG3 STOP JUMPDEST PUSH1 0x40 MLOAD PUSH3 0x461BCD PUSH1 0xE5 SHL DUP2 MSTORE PUSH1 0x4 DUP2 ADD DUP6 SWAP1 MSTORE PUSH1 0x1F PUSH1 0x24 DUP3 ADD MSTORE PUSH32 0x43616E6E6F742063616E63656C2061756374696F6E2077697468206269647300 PUSH1 0x44 DUP3 ADD MSTORE PUSH1 0x64 SWAP1 REVERT JUMPDEST PUSH1 0x40 MLOAD PUSH3 0x461BCD PUSH1 0xE5 SHL DUP2 MSTORE PUSH1 0x4 DUP2 ADD DUP5 SWAP1 MSTORE PUSH1 0x1D PUSH1 0x24 DUP3 ADD MSTORE PUSH32 0x4F6E6C79206F776E65722063616E2063616E63656C2061756374696F6E000000 PUSH1 0x44 DUP3 ADD MSTORE PUSH1 0x64 SWAP1 REVERT JUMPDEST POP DUP1 PUSH1 0x0 SLOAD AND CALLER EQ PUSH2 0x222B JUMP JUMPDEST CALLVALUE PUSH2 0x265 JUMPI PUSH1 0xA0 CALLDATASIZE PUSH1 0x3 NOT ADD SLT PUSH2 0x265 JUMPI PUSH1 0x4 CALLDATALOAD PUSH1 0x1 PUSH1 0x1 PUSH1 0x40 SHL SUB DUP2 GT PUSH2 0x265 JUMPI PUSH2 0x2355 SWAP1 CALLDATASIZE SWAP1 PUSH1 0x4 ADD PUSH2 0x5820 JUMP JUMPDEST PUSH1 0x24 CALLDATALOAD PUSH1 0x1 PUSH1 0x1 PUSH1 0x40 SHL SUB DUP2 GT PUSH2 0x265 JUMPI PUSH2 0x2374 SWAP1 CALLDATASIZE SWAP1 PUSH1 0x4 ADD PUSH2 0x58ED JUMP JUMPDEST PUSH1 0x44 CALLDATALOAD PUSH1 0x1 PUSH1 0x1 PUSH1 0x40 SHL SUB DUP2 GT PUSH2 0x265 JUMPI PUSH2 0x2393 SWAP1 CALLDATASIZE SWAP1 PUSH1 0x4 ADD PUSH2 0x5975 JUMP JUMPDEST SWAP1 PUSH1 0x64 CALLDATALOAD PUSH1 0x1 PUSH1 0x1 PUSH1 0x40 SHL SUB DUP2 GT PUSH2 0x265 JUMPI PUSH2 0x23B3 SWAP1 CALLDATASIZE SWAP1 PUSH1 0x4 ADD PUSH2 0x59F5 JUMP JUMPDEST PUSH2 0x1E0 MSTORE PUSH1 0x2 PUSH1 0x84 CALLDATALOAD LT ISZERO PUSH2 0x265 JUMPI PUSH2 0x23CA PUSH2 0x6489 JUMP JUMPDEST PUSH2 0x23E1 PUSH1 0x1 DUP1 PUSH1 0xA0 SHL SUB PUSH2 0x1E0 MLOAD MLOAD AND CALLER EQ PUSH2 0x60CA JUMP JUMPDEST PUSH2 0x1E0 MLOAD MLOAD PUSH1 0x1 PUSH1 0x1 PUSH1 0xA0 SHL SUB AND ISZERO PUSH2 0x3AAF JUMPI PUSH2 0x2401 DUP4 MLOAD MLOAD ISZERO ISZERO PUSH2 0x6116 JUMP JUMPDEST PUSH1 0x40 DUP4 ADD MLOAD MLOAD ISZERO PUSH2 0x3A6A JUMPI PUSH2 0x241C PUSH1 0x20 DUP5 ADD MLOAD MLOAD ISZERO ISZERO PUSH2 0x6159 JUMP JUMPDEST PUSH2 0x242C PUSH1 0x60 DUP5 ADD MLOAD MLOAD ISZERO ISZERO PUSH2 0x61A5 JUMP JUMPDEST PUSH2 0x243C PUSH1 0x80 DUP5 ADD MLOAD MLOAD ISZERO ISZERO PUSH2 0x61E8 JUMP JUMPDEST PUSH1 0xA0 DUP4 ADD MLOAD PUSH2 0x76C DUP2 GT SWAP1 DUP2 PUSH2 0x3A4C JUMPI JUMPDEST POP ISZERO PUSH2 0x3A18 JUMPI PUSH1 0xC0 DUP4 ADD MLOAD ISZERO PUSH2 0x39DD JUMPI PUSH2 0x246C PUSH1 0xA0 DUP3 ADD MLOAD ISZERO ISZERO PUSH2 0x6239 JUMP JUMPDEST DUP2 MLOAD MLOAD ISZERO PUSH2 0x3998 JUMPI PUSH1 0x20 DUP3 ADD MLOAD MLOAD ISZERO PUSH2 0x3953 JUMPI PUSH1 0x40 DUP3 ADD MLOAD MLOAD ISZERO PUSH2 0x390F JUMPI PUSH1 0x20 PUSH2 0x1E0 MLOAD ADD MLOAD MLOAD ISZERO PUSH2 0x38CA JUMPI PUSH1 0x40 PUSH2 0x1E0 MLOAD ADD MLOAD MLOAD ISZERO PUSH2 0x388D JUMPI PUSH1 0x60 PUSH2 0x1E0 MLOAD ADD MLOAD ISZERO PUSH2 0x3848 JUMPI PUSH1 0x80 PUSH2 0x1E0 MLOAD ADD MLOAD MLOAD ISZERO PUSH2 0x3803 JUMPI PUSH1 0x1 PUSH1 0x8 SLOAD ADD SWAP2 DUP3 PUSH1 0x8 SSTORE DUP4 MLOAD PUSH2 0x100 MSTORE PUSH1 0x20 DUP5 ADD MLOAD PUSH1 0x40 DUP6 ADD MLOAD SWAP1 PUSH1 0x60 DUP7 ADD MLOAD PUSH1 0x80 DUP8 ADD MLOAD PUSH1 0xA0 DUP9 ADD MLOAD PUSH1 0xC0 DUP10 ADD MLOAD DUP8 MLOAD PUSH1 0x20 DUP10 ADD MLOAD SWAP2 PUSH1 0x40 DUP11 ADD MLOAD SWAP4 PUSH1 0x3 DUP6 LT ISZERO PUSH2 0x124C JUMPI PUSH1 0x60 DUP12 ADD MLOAD SWAP6 PUSH2 0x2517 DUP8 PUSH2 0x54CA JUMP JUMPDEST PUSH1 0x80 DUP13 ADD MLOAD SWAP8 PUSH1 0x4 DUP10 LT ISZERO PUSH2 0x124C JUMPI DUP12 SWAP11 DUP15 SWAP11 PUSH1 0xA0 DUP16 ADD MLOAD SWAP12 DUP14 MLOAD SWAP14 PUSH1 0x20 ADD MLOAD SWAP15 PUSH1 0x40 ADD MLOAD PUSH2 0x120 MSTORE PUSH1 0x40 MLOAD DUP1 PUSH2 0x1C0 MSTORE PUSH2 0x2551 SWAP1 PUSH2 0x5345 JUMP JUMPDEST PUSH2 0x1C0 MLOAD PUSH1 0x0 SWAP1 MSTORE PUSH1 0x40 MLOAD DUP1 PUSH2 0x180 MSTORE PUSH2 0x256A SWAP1 PUSH2 0x530E JUMP JUMPDEST PUSH2 0x180 MLOAD MSTORE CALLER PUSH2 0x180 MLOAD PUSH1 0x20 ADD MSTORE PUSH2 0x100 MLOAD PUSH2 0x180 MLOAD PUSH1 0x40 ADD MSTORE PUSH2 0x180 MLOAD PUSH1 0x60 ADD MSTORE PUSH2 0x180 MLOAD PUSH1 0x80 ADD MSTORE PUSH2 0x180 MLOAD PUSH1 0xA0 ADD MSTORE PUSH2 0x180 MLOAD PUSH1 0xC0 ADD MSTORE PUSH2 0x180 MLOAD PUSH1 0xE0 ADD MSTORE PUSH2 0x180 MLOAD PUSH2 0x100 ADD MSTORE PUSH2 0x180 MLOAD PUSH2 0x120 ADD MSTORE PUSH2 0x180 MLOAD PUSH2 0x140 ADD MSTORE PUSH2 0x180 MLOAD PUSH2 0x160 ADD SWAP1 PUSH2 0x25D9 SWAP2 PUSH2 0x62B1 JUMP JUMPDEST PUSH2 0x25E2 DUP2 PUSH2 0x54CA JUMP JUMPDEST PUSH2 0x180 MLOAD PUSH2 0x180 ADD MSTORE PUSH2 0x180 MLOAD PUSH2 0x1A0 ADD SWAP1 PUSH2 0x25FD SWAP2 PUSH2 0x62BD JUMP JUMPDEST PUSH2 0x180 MLOAD PUSH2 0x1C0 ADD MSTORE PUSH2 0x180 MLOAD PUSH2 0x1E0 ADD MSTORE PUSH2 0x180 MLOAD PUSH2 0x200 ADD MSTORE PUSH2 0x120 MLOAD PUSH2 0x180 MLOAD PUSH2 0x220 ADD MSTORE PUSH2 0x1C0 MLOAD PUSH2 0x180 MLOAD PUSH2 0x240 ADD MSTORE PUSH2 0x1E0 MLOAD PUSH2 0x180 MLOAD PUSH2 0x260 ADD MSTORE PUSH2 0x180 MLOAD PUSH2 0x280 ADD PUSH1 0x0 SWAP1 MSTORE PUSH2 0x180 MLOAD PUSH2 0x2A0 ADD PUSH1 0x0 SWAP1 MSTORE PUSH1 0x84 CALLDATALOAD PUSH2 0x2663 SWAP1 PUSH2 0x54CA JUMP JUMPDEST PUSH1 0x84 CALLDATALOAD PUSH2 0x180 MLOAD PUSH2 0x2C0 ADD MSTORE DUP2 PUSH1 0x0 MSTORE PUSH1 0xB PUSH1 0x20 MSTORE PUSH1 0x40 PUSH1 0x0 KECCAK256 PUSH2 0x180 MLOAD DUP1 MLOAD DUP3 SSTORE PUSH1 0x1 PUSH1 0xA0 SHL PUSH1 0x1 SWAP1 SUB PUSH1 0x20 DUP3 ADD MLOAD AND PUSH1 0x1 PUSH1 0x1 PUSH1 0x60 SHL SUB PUSH1 0xA0 SHL PUSH1 0x1 DUP5 ADD SLOAD AND OR PUSH1 0x1 DUP4 ADD SSTORE PUSH1 0x40 ADD MLOAD DUP1 MLOAD SWAP1 PUSH1 0x1 PUSH1 0x1 PUSH1 0x40 SHL SUB DUP3 GT PUSH2 0xD89 JUMPI DUP2 SWAP1 PUSH2 0x26CF PUSH1 0x2 DUP6 ADD SLOAD PUSH2 0x5B54 JUMP JUMPDEST PUSH1 0x1F DUP2 GT PUSH2 0x37CE JUMPI JUMPDEST POP PUSH1 0x20 SWAP1 PUSH1 0x1F DUP4 GT PUSH1 0x1 EQ PUSH2 0x375C JUMPI PUSH1 0x0 SWAP3 PUSH2 0x3751 JUMPI JUMPDEST POP POP DUP2 PUSH1 0x1 SHL SWAP2 PUSH1 0x0 NOT SWAP1 PUSH1 0x3 SHL SHR NOT AND OR PUSH1 0x2 DUP3 ADD SSTORE JUMPDEST PUSH1 0x60 PUSH2 0x180 MLOAD ADD MLOAD DUP1 MLOAD SWAP1 PUSH1 0x1 PUSH1 0x40 SHL DUP3 GT PUSH2 0xD89 JUMPI PUSH1 0x3 DUP4 ADD SLOAD DUP3 PUSH1 0x3 DUP6 ADD SSTORE DUP1 DUP4 LT PUSH2 0x371E JUMPI JUMPDEST POP PUSH1 0x20 ADD SWAP1 PUSH1 0x3 DUP4 ADD PUSH1 0x0 MSTORE PUSH1 0x20 PUSH1 0x0 KECCAK256 SWAP2 PUSH1 0x0 SWAP1 JUMPDEST DUP3 DUP3 LT PUSH2 0x3609 JUMPI POP POP POP POP PUSH1 0x80 PUSH2 0x180 MLOAD ADD MLOAD DUP1 MLOAD SWAP1 PUSH1 0x1 PUSH1 0x1 PUSH1 0x40 SHL SUB DUP3 GT PUSH2 0xD89 JUMPI DUP2 SWAP1 PUSH2 0x2779 PUSH1 0x4 DUP6 ADD SLOAD PUSH2 0x5B54 JUMP JUMPDEST PUSH1 0x1F DUP2 GT PUSH2 0x35D4 JUMPI JUMPDEST POP PUSH1 0x20 SWAP1 PUSH1 0x1F DUP4 GT PUSH1 0x1 EQ PUSH2 0x3562 JUMPI PUSH1 0x0 SWAP3 PUSH2 0x3557 JUMPI JUMPDEST POP POP DUP2 PUSH1 0x1 SHL SWAP2 PUSH1 0x0 NOT SWAP1 PUSH1 0x3 SHL SHR NOT AND OR PUSH1 0x4 DUP3 ADD SSTORE JUMPDEST PUSH1 0xA0 PUSH2 0x180 MLOAD ADD MLOAD DUP1 MLOAD SWAP1 PUSH1 0x1 PUSH1 0x1 PUSH1 0x40 SHL SUB DUP3 GT PUSH2 0xD89 JUMPI DUP2 SWAP1 PUSH2 0x27D9 PUSH1 0x5 DUP6 ADD SLOAD PUSH2 0x5B54 JUMP JUMPDEST PUSH1 0x1F DUP2 GT PUSH2 0x3522 JUMPI JUMPDEST POP PUSH1 0x20 SWAP1 PUSH1 0x1F DUP4 GT PUSH1 0x1 EQ PUSH2 0x34B0 JUMPI PUSH1 0x0 SWAP3 PUSH2 0x34A5 JUMPI JUMPDEST POP POP DUP2 PUSH1 0x1 SHL SWAP2 PUSH1 0x0 NOT SWAP1 PUSH1 0x3 SHL SHR NOT AND OR PUSH1 0x5 DUP3 ADD SSTORE JUMPDEST PUSH1 0xC0 PUSH2 0x180 MLOAD ADD MLOAD DUP1 MLOAD SWAP1 PUSH1 0x1 PUSH1 0x1 PUSH1 0x40 SHL SUB DUP3 GT PUSH2 0xD89 JUMPI DUP2 SWAP1 PUSH2 0x2839 PUSH1 0x6 DUP6 ADD SLOAD PUSH2 0x5B54 JUMP JUMPDEST PUSH1 0x1F DUP2 GT PUSH2 0x3470 JUMPI JUMPDEST POP PUSH1 0x20 SWAP1 PUSH1 0x1F DUP4 GT PUSH1 0x1 EQ PUSH2 0x33FE JUMPI PUSH1 0x0 SWAP3 PUSH2 0x33F3 JUMPI JUMPDEST POP POP DUP2 PUSH1 0x1 SHL SWAP2 PUSH1 0x0 NOT SWAP1 PUSH1 0x3 SHL SHR NOT AND OR PUSH1 0x6 DUP3 ADD SSTORE JUMPDEST PUSH2 0x140 PUSH2 0x180 MLOAD PUSH1 0xE0 DUP2 ADD MLOAD PUSH1 0x7 DUP5 ADD SSTORE PUSH2 0x100 DUP2 ADD MLOAD PUSH1 0x8 DUP5 ADD SSTORE PUSH2 0x120 DUP2 ADD MLOAD PUSH1 0x9 DUP5 ADD SSTORE ADD MLOAD DUP1 MLOAD SWAP1 PUSH1 0x1 PUSH1 0x1 PUSH1 0x40 SHL SUB DUP3 GT PUSH2 0xD89 JUMPI DUP2 SWAP1 PUSH2 0x28BA PUSH1 0xA DUP6 ADD SLOAD PUSH2 0x5B54 JUMP JUMPDEST PUSH1 0x1F DUP2 GT PUSH2 0x33BE JUMPI JUMPDEST POP PUSH1 0x20 SWAP1 PUSH1 0x1F DUP4 GT PUSH1 0x1 EQ PUSH2 0x334C JUMPI PUSH1 0x0 SWAP3 PUSH2 0x3341 JUMPI JUMPDEST POP POP DUP2 PUSH1 0x1 SHL SWAP2 PUSH1 0x0 NOT SWAP1 PUSH1 0x3 SHL SHR NOT AND OR PUSH1 0xA DUP3 ADD SSTORE JUMPDEST PUSH2 0x180 MLOAD PUSH2 0x160 DUP2 ADD MLOAD PUSH1 0x3 DUP2 LT ISZERO PUSH2 0x124C JUMPI PUSH2 0x180 PUSH1 0xB DUP5 ADD SLOAD SWAP3 ADD MLOAD SWAP1 PUSH2 0x291A DUP3 PUSH2 0x54CA JUMP JUMPDEST PUSH2 0x2923 DUP3 PUSH2 0x54CA JUMP JUMPDEST PUSH2 0x180 MLOAD SWAP2 PUSH2 0x1A0 DUP4 ADD MLOAD PUSH1 0x4 DUP2 LT ISZERO PUSH2 0x124C JUMPI PUSH2 0x1E0 SWAP5 PUSH1 0xFF PUSH3 0xFF0000 PUSH2 0xFF00 SWAP4 PUSH1 0x10 SHL AND SWAP5 AND SWAP1 PUSH3 0xFFFFFF NOT AND OR SWAP2 PUSH1 0x8 SHL AND OR OR PUSH1 0xB DUP5 ADD SSTORE PUSH2 0x1C0 DUP2 ADD MLOAD PUSH1 0xC DUP5 ADD SSTORE ADD MLOAD DUP1 MLOAD SWAP1 PUSH1 0x1 PUSH1 0x1 PUSH1 0x40 SHL SUB DUP3 GT PUSH2 0xD89 JUMPI DUP2 SWAP1 PUSH2 0x298C PUSH1 0xD DUP6 ADD SLOAD PUSH2 0x5B54 JUMP JUMPDEST PUSH1 0x1F DUP2 GT PUSH2 0x330C JUMPI JUMPDEST POP PUSH1 0x20 SWAP1 PUSH1 0x1F DUP4 GT PUSH1 0x1 EQ PUSH2 0x329A JUMPI PUSH1 0x0 SWAP3 PUSH2 0x328F JUMPI JUMPDEST POP POP DUP2 PUSH1 0x1 SHL SWAP2 PUSH1 0x0 NOT SWAP1 PUSH1 0x3 SHL SHR NOT AND OR PUSH1 0xD DUP3 ADD SSTORE JUMPDEST PUSH2 0x200 PUSH2 0x180 MLOAD ADD MLOAD DUP1 MLOAD SWAP1 PUSH1 0x1 PUSH1 0x1 PUSH1 0x40 SHL SUB DUP3 GT PUSH2 0xD89 JUMPI DUP2 SWAP1 PUSH2 0x29ED PUSH1 0xE DUP6 ADD SLOAD PUSH2 0x5B54 JUMP JUMPDEST PUSH1 0x1F DUP2 GT PUSH2 0x325A JUMPI JUMPDEST POP PUSH1 0x20 SWAP1 PUSH1 0x1F DUP4 GT PUSH1 0x1 EQ PUSH2 0x31E8 JUMPI PUSH1 0x0 SWAP3 PUSH2 0x31DD JUMPI JUMPDEST POP POP DUP2 PUSH1 0x1 SHL SWAP2 PUSH1 0x0 NOT SWAP1 PUSH1 0x3 SHL SHR NOT AND OR PUSH1 0xE DUP3 ADD SSTORE JUMPDEST PUSH2 0x220 PUSH2 0x180 MLOAD ADD MLOAD DUP1 MLOAD SWAP1 PUSH1 0x1 PUSH1 0x40 SHL DUP3 GT PUSH2 0xD89 JUMPI PUSH1 0xF DUP4 ADD SLOAD DUP3 PUSH1 0xF DUP6 ADD SSTORE DUP1 DUP4 LT PUSH2 0x31AA JUMPI JUMPDEST POP PUSH1 0x20 ADD SWAP1 PUSH1 0xF DUP4 ADD PUSH1 0x0 MSTORE PUSH1 0x20 PUSH1 0x0 KECCAK256 SWAP2 PUSH1 0x0 SWAP1 JUMPDEST DUP3 DUP3 LT PUSH2 0x3095 JUMPI POP POP POP POP PUSH2 0x240 PUSH2 0x180 MLOAD ADD MLOAD DUP1 MLOAD SWAP1 PUSH1 0x1 PUSH1 0x40 SHL DUP3 GT PUSH2 0xD89 JUMPI PUSH1 0x10 DUP4 ADD SLOAD DUP3 PUSH1 0x10 DUP6 ADD SSTORE DUP1 DUP4 LT PUSH2 0x3029 JUMPI JUMPDEST POP PUSH1 0x20 ADD PUSH1 0x10 DUP4 ADD PUSH1 0x0 MSTORE PUSH1 0x20 PUSH1 0x0 KECCAK256 PUSH1 0x0 SWAP2 JUMPDEST DUP4 DUP4 LT PUSH2 0x300B JUMPI POP POP POP POP PUSH1 0x11 DUP2 ADD PUSH2 0x260 PUSH2 0x180 MLOAD ADD MLOAD SWAP1 PUSH1 0x1 DUP1 PUSH1 0xA0 SHL SUB DUP3 MLOAD AND PUSH1 0x1 PUSH1 0x1 PUSH1 0x60 SHL SUB PUSH1 0xA0 SHL DUP3 SLOAD AND OR SWAP1 SSTORE PUSH1 0x20 DUP2 ADD MLOAD DUP1 MLOAD SWAP1 PUSH1 0x1 PUSH1 0x1 PUSH1 0x40 SHL SUB DUP3 GT PUSH2 0xD89 JUMPI DUP2 SWAP1 PUSH2 0x2B07 PUSH1 0x12 DUP7 ADD SLOAD PUSH2 0x5B54 JUMP JUMPDEST PUSH1 0x1F DUP2 GT PUSH2 0x2FD6 JUMPI JUMPDEST POP PUSH1 0x20 SWAP1 PUSH1 0x1F DUP4 GT PUSH1 0x1 EQ PUSH2 0x2F64 JUMPI PUSH1 0x0 SWAP3 PUSH2 0x2F59 JUMPI JUMPDEST POP POP DUP2 PUSH1 0x1 SHL SWAP2 PUSH1 0x0 NOT SWAP1 PUSH1 0x3 SHL SHR NOT AND OR PUSH1 0x12 DUP4 ADD SSTORE JUMPDEST PUSH1 0x40 DUP2 ADD MLOAD DUP1 MLOAD SWAP1 PUSH1 0x1 PUSH1 0x1 PUSH1 0x40 SHL SUB DUP3 GT PUSH2 0xD89 JUMPI PUSH2 0x2B62 PUSH1 0x13 DUP6 ADD SLOAD PUSH2 0x5B54 JUMP JUMPDEST PUSH1 0x1F DUP2 GT PUSH2 0x2F24 JUMPI JUMPDEST POP PUSH1 0x20 SWAP1 PUSH1 0x1F DUP4 GT PUSH1 0x1 EQ PUSH2 0x2EB1 JUMPI PUSH1 0x80 SWAP4 SWAP3 SWAP2 PUSH1 0x0 SWAP2 DUP4 PUSH2 0x2EA6 JUMPI JUMPDEST POP POP DUP2 PUSH1 0x1 SHL SWAP2 PUSH1 0x0 NOT SWAP1 PUSH1 0x3 SHL SHR NOT AND OR PUSH1 0x13 DUP5 ADD SSTORE JUMPDEST PUSH1 0x60 DUP2 ADD MLOAD PUSH1 0x14 DUP5 ADD SSTORE ADD MLOAD DUP1 MLOAD SWAP1 PUSH1 0x1 PUSH1 0x1 PUSH1 0x40 SHL SUB DUP3 GT PUSH2 0xD89 JUMPI PUSH2 0x2BCA PUSH1 0x15 DUP5 ADD SLOAD PUSH2 0x5B54 JUMP JUMPDEST PUSH1 0x1F DUP2 GT PUSH2 0x2E71 JUMPI JUMPDEST POP PUSH1 0x20 SWAP1 PUSH1 0x1F DUP4 GT PUSH1 0x1 EQ PUSH2 0x2DFE JUMPI PUSH1 0x16 SWAP4 SWAP3 SWAP2 PUSH1 0x0 SWAP2 DUP4 PUSH2 0x2DF3 JUMPI JUMPDEST POP POP DUP2 PUSH1 0x1 SHL SWAP2 PUSH1 0x0 NOT SWAP1 PUSH1 0x3 SHL SHR NOT AND OR PUSH1 0x15 DUP3 ADD SSTORE JUMPDEST ADD PUSH2 0x2C0 PUSH2 0x180 MLOAD PUSH2 0x2C2D PUSH2 0x280 DUP3 ADD MLOAD ISZERO ISZERO DUP5 SWAP1 PUSH1 0xFF DUP1 NOT DUP4 SLOAD AND SWAP2 ISZERO ISZERO AND OR SWAP1 SSTORE JUMP JUMPDEST PUSH2 0x2A0 DUP2 ADD MLOAD DUP4 SLOAD PUSH2 0xFF00 NOT AND SWAP1 ISZERO ISZERO PUSH1 0x8 SHL PUSH2 0xFF00 AND OR DUP4 SSTORE ADD MLOAD PUSH2 0x2C52 DUP2 PUSH2 0x54CA JUMP JUMPDEST PUSH2 0x2C5B DUP2 PUSH2 0x54CA JUMP JUMPDEST PUSH3 0xFF0000 DUP3 SLOAD SWAP2 PUSH1 0x10 SHL AND SWAP1 PUSH3 0xFF0000 NOT AND OR SWAP1 SSTORE PUSH1 0x40 MLOAD PUSH2 0x2C7C DUP2 PUSH2 0x5345 JUMP JUMPDEST PUSH1 0x0 DUP2 MSTORE CALLER ISZERO PUSH2 0x2DAF JUMPI PUSH32 0x5B34F0E4A34A289B00E4A152DFDEB90A4B2A8C201B6F38D35C078560382A2B76 SWAP2 PUSH2 0x2D5F PUSH2 0x19D7 PUSH1 0xA0 SWAP4 PUSH2 0x2CD9 PUSH2 0x2CD3 DUP9 PUSH1 0x0 MSTORE PUSH1 0x4 PUSH1 0x20 MSTORE PUSH1 0x1 DUP1 PUSH1 0xA0 SHL SUB PUSH1 0x40 PUSH1 0x0 KECCAK256 SLOAD AND ISZERO ISZERO SWAP1 JUMP JUMPDEST ISZERO PUSH2 0x64DF JUMP JUMPDEST PUSH1 0x0 DUP8 DUP2 MSTORE PUSH1 0x4 PUSH1 0x20 MSTORE PUSH1 0x40 SWAP1 KECCAK256 SLOAD PUSH2 0x2CFC SWAP1 PUSH1 0x1 PUSH1 0x1 PUSH1 0xA0 SHL SUB AND ISZERO ISZERO PUSH2 0x2CD3 JUMP JUMPDEST CALLER PUSH1 0x0 MSTORE PUSH1 0x5 PUSH1 0x20 MSTORE PUSH1 0x40 PUSH1 0x0 KECCAK256 PUSH1 0x1 DUP2 SLOAD ADD SWAP1 SSTORE DUP7 PUSH1 0x0 MSTORE PUSH1 0x4 PUSH1 0x20 MSTORE PUSH1 0x40 PUSH1 0x0 KECCAK256 CALLER PUSH1 0x1 PUSH1 0x1 PUSH1 0x60 SHL SUB DUP8 SHL DUP3 SLOAD AND OR SWAP1 SSTORE DUP7 CALLER PUSH1 0x0 PUSH32 0xDDF252AD1BE2C89B69C2B068FC378DAA952BA7F163C4A11628F55A4DF523B3EF DUP2 DUP1 LOG4 DUP7 CALLER PUSH2 0x5F54 JUMP JUMPDEST ADD MLOAD PUSH2 0x2D9D PUSH1 0x60 DUP6 ADD MLOAD SWAP5 PUSH2 0x2D8F PUSH1 0xA0 PUSH1 0x80 DUP4 ADD MLOAD SWAP3 ADD MLOAD SWAP7 PUSH1 0x40 MLOAD SWAP5 DUP6 MSTORE PUSH1 0x80 PUSH1 0x20 DUP7 ADD MSTORE PUSH1 0x80 DUP6 ADD SWAP1 PUSH2 0x526C JUMP JUMPDEST SWAP1 DUP4 DUP3 SUB PUSH1 0x40 DUP6 ADD MSTORE PUSH2 0x526C JUMP JUMPDEST SWAP4 PUSH1 0x60 DUP3 ADD MSTORE DUP1 CALLER SWAP5 SUB SWAP1 LOG3 PUSH1 0x1 DUP1 SSTORE STOP JUMPDEST PUSH1 0x64 PUSH1 0x40 MLOAD PUSH3 0x461BCD PUSH1 0xE5 SHL DUP2 MSTORE PUSH1 0x20 PUSH1 0x4 DUP3 ADD MSTORE PUSH1 0x20 PUSH1 0x24 DUP3 ADD MSTORE PUSH32 0x4552433732313A206D696E7420746F20746865207A65726F2061646472657373 PUSH1 0x44 DUP3 ADD MSTORE REVERT JUMPDEST ADD MLOAD SWAP1 POP DUP8 DUP1 PUSH2 0x2BF0 JUMP JUMPDEST SWAP1 PUSH1 0x15 DUP5 ADD PUSH1 0x0 MSTORE PUSH1 0x20 PUSH1 0x0 KECCAK256 SWAP2 PUSH1 0x0 JUMPDEST PUSH1 0x1F NOT DUP6 AND DUP2 LT PUSH2 0x2E59 JUMPI POP SWAP2 DUP4 SWAP2 PUSH1 0x1 SWAP4 PUSH1 0x16 SWAP7 SWAP6 PUSH1 0x1F NOT DUP2 AND LT PUSH2 0x2E40 JUMPI JUMPDEST POP POP POP DUP2 SHL ADD PUSH1 0x15 DUP3 ADD SSTORE PUSH2 0x2C08 JUMP JUMPDEST ADD MLOAD PUSH1 0x0 NOT PUSH1 0xF8 DUP5 PUSH1 0x3 SHL AND SHR NOT AND SWAP1 SSTORE DUP8 DUP1 DUP1 PUSH2 0x2E30 JUMP JUMPDEST SWAP2 SWAP3 PUSH1 0x20 PUSH1 0x1 DUP2 SWAP3 DUP7 DUP6 ADD MLOAD DUP2 SSTORE ADD SWAP5 ADD SWAP3 ADD PUSH2 0x2E0F JUMP JUMPDEST PUSH2 0x2EA0 SWAP1 PUSH1 0x15 DUP6 ADD PUSH1 0x0 MSTORE PUSH1 0x20 PUSH1 0x0 KECCAK256 PUSH1 0x1F DUP6 ADD PUSH1 0x5 SHR DUP2 ADD SWAP2 PUSH1 0x20 DUP7 LT PUSH2 0xD7F JUMPI PUSH1 0x1F ADD PUSH1 0x5 SHR ADD SWAP1 PUSH2 0x62C9 JUMP JUMPDEST DUP7 PUSH2 0x2BD3 JUMP JUMPDEST ADD MLOAD SWAP1 POP DUP9 DUP1 PUSH2 0x2B88 JUMP JUMPDEST SWAP1 PUSH1 0x13 DUP6 ADD PUSH1 0x0 MSTORE PUSH1 0x20 PUSH1 0x0 KECCAK256 SWAP2 PUSH1 0x0 JUMPDEST PUSH1 0x1F NOT DUP6 AND DUP2 LT PUSH2 0x2F0C JUMPI POP SWAP2 DUP4 SWAP2 PUSH1 0x1 SWAP4 PUSH1 0x80 SWAP7 SWAP6 PUSH1 0x1F NOT DUP2 AND LT PUSH2 0x2EF3 JUMPI JUMPDEST POP POP POP DUP2 SHL ADD PUSH1 0x13 DUP5 ADD SSTORE PUSH2 0x2BA0 JUMP JUMPDEST ADD MLOAD PUSH1 0x0 NOT PUSH1 0xF8 DUP5 PUSH1 0x3 SHL AND SHR NOT AND SWAP1 SSTORE DUP9 DUP1 DUP1 PUSH2 0x2EE3 JUMP JUMPDEST SWAP2 SWAP3 PUSH1 0x20 PUSH1 0x1 DUP2 SWAP3 DUP7 DUP6 ADD MLOAD DUP2 SSTORE ADD SWAP5 ADD SWAP3 ADD PUSH2 0x2EC2 JUMP JUMPDEST PUSH2 0x2F53 SWAP1 PUSH1 0x13 DUP7 ADD PUSH1 0x0 MSTORE PUSH1 0x20 PUSH1 0x0 KECCAK256 PUSH1 0x1F DUP6 ADD PUSH1 0x5 SHR DUP2 ADD SWAP2 PUSH1 0x20 DUP7 LT PUSH2 0xD7F JUMPI PUSH1 0x1F ADD PUSH1 0x5 SHR ADD SWAP1 PUSH2 0x62C9 JUMP JUMPDEST DUP8 PUSH2 0x2B6B JUMP JUMPDEST ADD MLOAD SWAP1 POP DUP8 DUP1 PUSH2 0x2B27 JUMP JUMPDEST SWAP3 POP PUSH1 0x12 DUP6 ADD PUSH1 0x0 MSTORE PUSH1 0x20 PUSH1 0x0 KECCAK256 SWAP1 PUSH1 0x0 SWAP4 JUMPDEST PUSH1 0x1F NOT DUP5 AND DUP6 LT PUSH2 0x2FBB JUMPI PUSH1 0x1 SWAP5 POP DUP4 PUSH1 0x1F NOT DUP2 AND LT PUSH2 0x2FA2 JUMPI JUMPDEST POP POP POP DUP2 SHL ADD PUSH1 0x12 DUP4 ADD SSTORE PUSH2 0x2B3F JUMP JUMPDEST ADD MLOAD PUSH1 0x0 NOT PUSH1 0xF8 DUP5 PUSH1 0x3 SHL AND SHR NOT AND SWAP1 SSTORE DUP8 DUP1 DUP1 PUSH2 0x2F92 JUMP JUMPDEST DUP2 DUP2 ADD MLOAD DUP4 SSTORE PUSH1 0x20 SWAP5 DUP6 ADD SWAP5 PUSH1 0x1 SWAP1 SWAP4 ADD SWAP3 SWAP1 SWAP2 ADD SWAP1 PUSH2 0x2F77 JUMP JUMPDEST PUSH2 0x3005 SWAP1 PUSH1 0x12 DUP8 ADD PUSH1 0x0 MSTORE PUSH1 0x20 PUSH1 0x0 KECCAK256 PUSH1 0x1F DUP6 ADD PUSH1 0x5 SHR DUP2 ADD SWAP2 PUSH1 0x20 DUP7 LT PUSH2 0xD7F JUMPI PUSH1 0x1F ADD PUSH1 0x5 SHR ADD SWAP1 PUSH2 0x62C9 JUMP JUMPDEST DUP9 PUSH2 0x2B10 JUMP JUMPDEST PUSH1 0x5 PUSH1 0x20 DUP3 PUSH2 0x301D PUSH1 0x1 SWAP5 MLOAD DUP7 PUSH2 0x6329 JUMP JUMPDEST ADD SWAP3 ADD SWAP3 ADD SWAP2 SWAP1 PUSH2 0x2AAE JUMP JUMPDEST PUSH1 0x5 DUP2 DUP2 MUL DIV DUP2 SUB PUSH2 0xF8A JUMPI PUSH1 0x5 DUP4 DUP2 MUL DIV DUP4 SUB PUSH2 0xF8A JUMPI PUSH1 0x10 DUP5 ADD PUSH1 0x0 MSTORE PUSH1 0x20 PUSH1 0x0 KECCAK256 DUP4 PUSH1 0x5 MUL DUP2 ADD JUMPDEST DUP3 PUSH1 0x5 MUL DUP3 ADD DUP2 LT PUSH2 0x3067 JUMPI POP POP PUSH2 0x2A9A JUMP JUMPDEST DUP1 PUSH1 0x0 PUSH1 0x5 SWAP3 SSTORE PUSH1 0x0 PUSH1 0x1 DUP3 ADD SSTORE PUSH2 0x3081 PUSH1 0x2 DUP3 ADD PUSH2 0x62E0 JUMP JUMPDEST PUSH1 0x0 PUSH1 0x3 DUP3 ADD SSTORE PUSH1 0x0 PUSH1 0x4 DUP3 ADD SSTORE ADD PUSH2 0x3054 JUMP JUMPDEST DUP1 MLOAD DUP1 MLOAD SWAP1 PUSH1 0x1 PUSH1 0x1 PUSH1 0x40 SHL SUB DUP3 GT PUSH2 0xD89 JUMPI PUSH2 0x30B2 DUP7 SLOAD PUSH2 0x5B54 JUMP JUMPDEST PUSH1 0x1F DUP2 GT PUSH2 0x3178 JUMPI JUMPDEST POP PUSH1 0x20 SWAP1 PUSH1 0x1F DUP4 GT PUSH1 0x1 EQ PUSH2 0x3108 JUMPI SWAP3 DUP3 PUSH1 0x1 SWAP5 SWAP4 PUSH1 0x20 SWAP4 DUP7 SWAP6 PUSH1 0x0 SWAP3 PUSH2 0x30FD JUMPI JUMPDEST POP POP PUSH1 0x0 NOT PUSH1 0x3 DUP4 SWAP1 SHL SHR NOT AND SWAP1 DUP5 SHL OR DUP8 SSTORE JUMPDEST ADD SWAP5 ADD SWAP2 ADD SWAP1 SWAP3 PUSH2 0x2A65 JUMP JUMPDEST ADD MLOAD SWAP1 POP DUP14 DUP1 PUSH2 0x30DD JUMP JUMPDEST SWAP1 DUP7 PUSH1 0x0 MSTORE PUSH1 0x20 PUSH1 0x0 KECCAK256 SWAP2 PUSH1 0x0 JUMPDEST PUSH1 0x1F NOT DUP6 AND DUP2 LT PUSH2 0x3160 JUMPI POP DUP4 PUSH1 0x20 SWAP4 PUSH1 0x1 SWAP7 SWAP4 DUP8 SWAP7 SWAP4 DUP8 SWAP5 PUSH1 0x1F NOT DUP2 AND LT PUSH2 0x3147 JUMPI JUMPDEST POP POP POP DUP2 SHL ADD DUP8 SSTORE PUSH2 0x30F1 JUMP JUMPDEST ADD MLOAD PUSH1 0x0 NOT PUSH1 0xF8 DUP5 PUSH1 0x3 SHL AND SHR NOT AND SWAP1 SSTORE DUP14 DUP1 DUP1 PUSH2 0x313A JUMP JUMPDEST SWAP2 SWAP3 PUSH1 0x20 PUSH1 0x1 DUP2 SWAP3 DUP7 DUP6 ADD MLOAD DUP2 SSTORE ADD SWAP5 ADD SWAP3 ADD PUSH2 0x3116 JUMP JUMPDEST PUSH2 0x31A4 SWAP1 DUP8 PUSH1 0x0 MSTORE PUSH1 0x20 PUSH1 0x0 KECCAK256 PUSH1 0x1F DUP6 ADD PUSH1 0x5 SHR DUP2 ADD SWAP2 PUSH1 0x20 DUP7 LT PUSH2 0xD7F JUMPI PUSH1 0x1F ADD PUSH1 0x5 SHR ADD SWAP1 PUSH2 0x62C9 JUMP JUMPDEST DUP11 PUSH2 0x30BB JUMP JUMPDEST PUSH1 0xF DUP5 ADD PUSH1 0x0 MSTORE PUSH1 0x20 PUSH1 0x0 KECCAK256 SWAP1 DUP4 DUP3 ADD JUMPDEST DUP2 DUP4 ADD DUP2 LT PUSH2 0x31CB JUMPI POP POP PUSH2 0x2A4F JUMP JUMPDEST DUP1 PUSH2 0x31D7 PUSH1 0x1 SWAP3 PUSH2 0x62E0 JUMP JUMPDEST ADD PUSH2 0x31BB JUMP JUMPDEST ADD MLOAD SWAP1 POP DUP7 DUP1 PUSH2 0x2A0D JUMP JUMPDEST SWAP3 POP PUSH1 0xE DUP5 ADD PUSH1 0x0 MSTORE PUSH1 0x20 PUSH1 0x0 KECCAK256 SWAP1 PUSH1 0x0 SWAP4 JUMPDEST PUSH1 0x1F NOT DUP5 AND DUP6 LT PUSH2 0x323F JUMPI PUSH1 0x1 SWAP5 POP DUP4 PUSH1 0x1F NOT DUP2 AND LT PUSH2 0x3226 JUMPI JUMPDEST POP POP POP DUP2 SHL ADD PUSH1 0xE DUP3 ADD SSTORE PUSH2 0x2A25 JUMP JUMPDEST ADD MLOAD PUSH1 0x0 NOT PUSH1 0xF8 DUP5 PUSH1 0x3 SHL AND SHR NOT AND SWAP1 SSTORE DUP7 DUP1 DUP1 PUSH2 0x3216 JUMP JUMPDEST DUP2 DUP2 ADD MLOAD DUP4 SSTORE PUSH1 0x20 SWAP5 DUP6 ADD SWAP5 PUSH1 0x1 SWAP1 SWAP4 ADD SWAP3 SWAP1 SWAP2 ADD SWAP1 PUSH2 0x31FB JUMP JUMPDEST PUSH2 0x3289 SWAP1 PUSH1 0xE DUP7 ADD PUSH1 0x0 MSTORE PUSH1 0x20 PUSH1 0x0 KECCAK256 PUSH1 0x1F DUP6 ADD PUSH1 0x5 SHR DUP2 ADD SWAP2 PUSH1 0x20 DUP7 LT PUSH2 0xD7F JUMPI PUSH1 0x1F ADD PUSH1 0x5 SHR ADD SWAP1 PUSH2 0x62C9 JUMP JUMPDEST DUP8 PUSH2 0x29F6 JUMP JUMPDEST ADD MLOAD SWAP1 POP DUP7 DUP1 PUSH2 0x29AC JUMP JUMPDEST SWAP3 POP PUSH1 0xD DUP5 ADD PUSH1 0x0 MSTORE PUSH1 0x20 PUSH1 0x0 KECCAK256 SWAP1 PUSH1 0x0 SWAP4 JUMPDEST PUSH1 0x1F NOT DUP5 AND DUP6 LT PUSH2 0x32F1 JUMPI PUSH1 0x1 SWAP5 POP DUP4 PUSH1 0x1F NOT DUP2 AND LT PUSH2 0x32D8 JUMPI JUMPDEST POP POP POP DUP2 SHL ADD PUSH1 0xD DUP3 ADD SSTORE PUSH2 0x29C4 JUMP JUMPDEST ADD MLOAD PUSH1 0x0 NOT PUSH1 0xF8 DUP5 PUSH1 0x3 SHL AND SHR NOT AND SWAP1 SSTORE DUP7 DUP1 DUP1 PUSH2 0x32C8 JUMP JUMPDEST DUP2 DUP2 ADD MLOAD DUP4 SSTORE PUSH1 0x20 SWAP5 DUP6 ADD SWAP5 PUSH1 0x1 SWAP1 SWAP4 ADD SWAP3 SWAP1 SWAP2 ADD SWAP1 PUSH2 0x32AD JUMP JUMPDEST PUSH2 0x333B SWAP1 PUSH1 0xD DUP7 ADD PUSH1 0x0 MSTORE PUSH1 0x20 PUSH1 0x0 KECCAK256 PUSH1 0x1F DUP6 ADD PUSH1 0x5 SHR DUP2 ADD SWAP2 PUSH1 0x20 DUP7 LT PUSH2 0xD7F JUMPI PUSH1 0x1F ADD PUSH1 0x5 SHR ADD SWAP1 PUSH2 0x62C9 JUMP JUMPDEST DUP8 PUSH2 0x2995 JUMP JUMPDEST ADD MLOAD SWAP1 POP DUP7 DUP1 PUSH2 0x28DA JUMP JUMPDEST SWAP3 POP PUSH1 0xA DUP5 ADD PUSH1 0x0 MSTORE PUSH1 0x20 PUSH1 0x0 KECCAK256 SWAP1 PUSH1 0x0 SWAP4 JUMPDEST PUSH1 0x1F NOT DUP5 AND DUP6 LT PUSH2 0x33A3 JUMPI PUSH1 0x1 SWAP5 POP DUP4 PUSH1 0x1F NOT DUP2 AND LT PUSH2 0x338A JUMPI JUMPDEST POP POP POP DUP2 SHL ADD PUSH1 0xA DUP3 ADD SSTORE PUSH2 0x28F2 JUMP JUMPDEST ADD MLOAD PUSH1 0x0 NOT PUSH1 0xF8 DUP5 PUSH1 0x3 SHL AND SHR NOT AND SWAP1 SSTORE DUP7 DUP1 DUP1 PUSH2 0x337A JUMP JUMPDEST DUP2 DUP2 ADD MLOAD DUP4 SSTORE PUSH1 0x20 SWAP5 DUP6 ADD SWAP5 PUSH1 0x1 SWAP1 SWAP4 ADD SWAP3 SWAP1 SWAP2 ADD SWAP1 PUSH2 0x335F JUMP JUMPDEST PUSH2 0x33ED SWAP1 PUSH1 0xA DUP7 ADD PUSH1 0x0 MSTORE PUSH1 0x20 PUSH1 0x0 KECCAK256 PUSH1 0x1F DUP6 ADD PUSH1 0x5 SHR DUP2 ADD SWAP2 PUSH1 0x20 DUP7 LT PUSH2 0xD7F JUMPI PUSH1 0x1F ADD PUSH1 0x5 SHR ADD SWAP1 PUSH2 0x62C9 JUMP JUMPDEST DUP8 PUSH2 0x28C3 JUMP JUMPDEST ADD MLOAD SWAP1 POP DUP7 DUP1 PUSH2 0x2859 JUMP JUMPDEST SWAP3 POP PUSH1 0x6 DUP5 ADD PUSH1 0x0 MSTORE PUSH1 0x20 PUSH1 0x0 KECCAK256 SWAP1 PUSH1 0x0 SWAP4 JUMPDEST PUSH1 0x1F NOT DUP5 AND DUP6 LT PUSH2 0x3455 JUMPI PUSH1 0x1 SWAP5 POP DUP4 PUSH1 0x1F NOT DUP2 AND LT PUSH2 0x343C JUMPI JUMPDEST POP POP POP DUP2 SHL ADD PUSH1 0x6 DUP3 ADD SSTORE PUSH2 0x2871 JUMP JUMPDEST ADD MLOAD PUSH1 0x0 NOT PUSH1 0xF8 DUP5 PUSH1 0x3 SHL AND SHR NOT AND SWAP1 SSTORE DUP7 DUP1 DUP1 PUSH2 0x342C JUMP JUMPDEST DUP2 DUP2 ADD MLOAD DUP4 SSTORE PUSH1 0x20 SWAP5 DUP6 ADD SWAP5 PUSH1 0x1 SWAP1 SWAP4 ADD SWAP3 SWAP1 SWAP2 ADD SWAP1 PUSH2 0x3411 JUMP JUMPDEST PUSH2 0x349F SWAP1 PUSH1 0x6 DUP7 ADD PUSH1 0x0 MSTORE PUSH1 0x20 PUSH1 0x0 KECCAK256 PUSH1 0x1F DUP6 ADD PUSH1 0x5 SHR DUP2 ADD SWAP2 PUSH1 0x20 DUP7 LT PUSH2 0xD7F JUMPI PUSH1 0x1F ADD PUSH1 0x5 SHR ADD SWAP1 PUSH2 0x62C9 JUMP JUMPDEST DUP8 PUSH2 0x2842 JUMP JUMPDEST ADD MLOAD SWAP1 POP DUP7 DUP1 PUSH2 0x27F9 JUMP JUMPDEST SWAP3 POP PUSH1 0x5 DUP5 ADD PUSH1 0x0 MSTORE PUSH1 0x20 PUSH1 0x0 KECCAK256 SWAP1 PUSH1 0x0 SWAP4 JUMPDEST PUSH1 0x1F NOT DUP5 AND DUP6 LT PUSH2 0x3507 JUMPI PUSH1 0x1 SWAP5 POP DUP4 PUSH1 0x1F NOT DUP2 AND LT PUSH2 0x34EE JUMPI JUMPDEST POP POP POP DUP2 SHL ADD PUSH1 0x5 DUP3 ADD SSTORE PUSH2 0x2811 JUMP JUMPDEST ADD MLOAD PUSH1 0x0 NOT PUSH1 0xF8 DUP5 PUSH1 0x3 SHL AND SHR NOT AND SWAP1 SSTORE DUP7 DUP1 DUP1 PUSH2 0x34DE JUMP JUMPDEST DUP2 DUP2 ADD MLOAD DUP4 SSTORE PUSH1 0x20 SWAP5 DUP6 ADD SWAP5 PUSH1 0x1 SWAP1 SWAP4 ADD SWAP3 SWAP1 SWAP2 ADD SWAP1 PUSH2 0x34C3 JUMP JUMPDEST PUSH2 0x3551 SWAP1 PUSH1 0x5 DUP7 ADD PUSH1 0x0 MSTORE PUSH1 0x20 PUSH1 0x0 KECCAK256 PUSH1 0x1F DUP6 ADD PUSH1 0x5 SHR DUP2 ADD SWAP2 PUSH1 0x20 DUP7 LT PUSH2 0xD7F JUMPI PUSH1 0x1F ADD PUSH1 0x5 SHR ADD SWAP1 PUSH2 0x62C9 JUMP JUMPDEST DUP8 PUSH2 0x27E2 JUMP JUMPDEST ADD MLOAD SWAP1 POP DUP7 DUP1 PUSH2 0x2799 JUMP JUMPDEST SWAP3 POP PUSH1 0x4 DUP5 ADD PUSH1 0x0 MSTORE PUSH1 0x20 PUSH1 0x0 KECCAK256 SWAP1 PUSH1 0x0 SWAP4 JUMPDEST PUSH1 0x1F NOT DUP5 AND DUP6 LT PUSH2 0x35B9 JUMPI PUSH1 0x1 SWAP5 POP DUP4 PUSH1 0x1F NOT DUP2 AND LT PUSH2 0x35A0 JUMPI JUMPDEST POP POP POP DUP2 SHL ADD PUSH1 0x4 DUP3 ADD SSTORE PUSH2 0x27B1 JUMP JUMPDEST ADD MLOAD PUSH1 0x0 NOT PUSH1 0xF8 DUP5 PUSH1 0x3 SHL AND SHR NOT AND SWAP1 SSTORE DUP7 DUP1 DUP1 PUSH2 0x3590 JUMP JUMPDEST DUP2 DUP2 ADD MLOAD DUP4 SSTORE PUSH1 0x20 SWAP5 DUP6 ADD SWAP5 PUSH1 0x1 SWAP1 SWAP4 ADD SWAP3 SWAP1 SWAP2 ADD SWAP1 PUSH2 0x3575 JUMP JUMPDEST PUSH2 0x3603 SWAP1 PUSH1 0x4 DUP7 ADD PUSH1 0x0 MSTORE PUSH1 0x20 PUSH1 0x0 KECCAK256 PUSH1 0x1F DUP6 ADD PUSH1 0x5 SHR DUP2 ADD SWAP2 PUSH1 0x20 DUP7 LT PUSH2 0xD7F JUMPI PUSH1 0x1F ADD PUSH1 0x5 SHR ADD SWAP1 PUSH2 0x62C9 JUMP JUMPDEST DUP8 PUSH2 0x2782 JUMP JUMPDEST DUP1 MLOAD DUP1 MLOAD SWAP1 PUSH1 0x1 PUSH1 0x1 PUSH1 0x40 SHL SUB DUP3 GT PUSH2 0xD89 JUMPI PUSH2 0x3626 DUP7 SLOAD PUSH2 0x5B54 JUMP JUMPDEST PUSH1 0x1F DUP2 GT PUSH2 0x36EC JUMPI JUMPDEST POP PUSH1 0x20 SWAP1 PUSH1 0x1F DUP4 GT PUSH1 0x1 EQ PUSH2 0x367C JUMPI SWAP3 DUP3 PUSH1 0x1 SWAP5 SWAP4 PUSH1 0x20 SWAP4 DUP7 SWAP6 PUSH1 0x0 SWAP3 PUSH2 0x3671 JUMPI JUMPDEST POP POP PUSH1 0x0 NOT PUSH1 0x3 DUP4 SWAP1 SHL SHR NOT AND SWAP1 DUP5 SHL OR DUP8 SSTORE JUMPDEST ADD SWAP5 ADD SWAP2 ADD SWAP1 SWAP3 PUSH2 0x2746 JUMP JUMPDEST ADD MLOAD SWAP1 POP DUP14 DUP1 PUSH2 0x3651 JUMP JUMPDEST SWAP1 DUP7 PUSH1 0x0 MSTORE PUSH1 0x20 PUSH1 0x0 KECCAK256 SWAP2 PUSH1 0x0 JUMPDEST PUSH1 0x1F NOT DUP6 AND DUP2 LT PUSH2 0x36D4 JUMPI POP DUP4 PUSH1 0x20 SWAP4 PUSH1 0x1 SWAP7 SWAP4 DUP8 SWAP7 SWAP4 DUP8 SWAP5 PUSH1 0x1F NOT DUP2 AND LT PUSH2 0x36BB JUMPI JUMPDEST POP POP POP DUP2 SHL ADD DUP8 SSTORE PUSH2 0x3665 JUMP JUMPDEST ADD MLOAD PUSH1 0x0 NOT PUSH1 0xF8 DUP5 PUSH1 0x3 SHL AND SHR NOT AND SWAP1 SSTORE DUP14 DUP1 DUP1 PUSH2 0x36AE JUMP JUMPDEST SWAP2 SWAP3 PUSH1 0x20 PUSH1 0x1 DUP2 SWAP3 DUP7 DUP6 ADD MLOAD DUP2 SSTORE ADD SWAP5 ADD SWAP3 ADD PUSH2 0x368A JUMP JUMPDEST PUSH2 0x3718 SWAP1 DUP8 PUSH1 0x0 MSTORE PUSH1 0x20 PUSH1 0x0 KECCAK256 PUSH1 0x5 PUSH1 0x1F DUP7 ADD DUP2 SHR DUP3 ADD SWAP3 PUSH1 0x20 DUP8 LT PUSH2 0x1640 JUMPI PUSH1 0x1F ADD SWAP1 SHR ADD SWAP1 PUSH2 0x62C9 JUMP JUMPDEST DUP11 PUSH2 0x362F JUMP JUMPDEST PUSH1 0x3 DUP5 ADD PUSH1 0x0 MSTORE PUSH1 0x20 PUSH1 0x0 KECCAK256 SWAP1 DUP4 DUP3 ADD JUMPDEST DUP2 DUP4 ADD DUP2 LT PUSH2 0x373F JUMPI POP POP PUSH2 0x2730 JUMP JUMPDEST DUP1 PUSH2 0x374B PUSH1 0x1 SWAP3 PUSH2 0x62E0 JUMP JUMPDEST ADD PUSH2 0x372F JUMP JUMPDEST ADD MLOAD SWAP1 POP DUP7 DUP1 PUSH2 0x26EF JUMP JUMPDEST SWAP3 POP PUSH1 0x2 DUP5 ADD PUSH1 0x0 MSTORE PUSH1 0x20 PUSH1 0x0 KECCAK256 SWAP1 PUSH1 0x0 SWAP4 JUMPDEST PUSH1 0x1F NOT DUP5 AND DUP6 LT PUSH2 0x37B3 JUMPI PUSH1 0x1 SWAP5 POP DUP4 PUSH1 0x1F NOT DUP2 AND LT PUSH2 0x379A JUMPI JUMPDEST POP POP POP DUP2 SHL ADD PUSH1 0x2 DUP3 ADD SSTORE PUSH2 0x2707 JUMP JUMPDEST ADD MLOAD PUSH1 0x0 NOT PUSH1 0xF8 DUP5 PUSH1 0x3 SHL AND SHR NOT AND SWAP1 SSTORE DUP7 DUP1 DUP1 PUSH2 0x378A JUMP JUMPDEST DUP2 DUP2 ADD MLOAD DUP4 SSTORE PUSH1 0x20 SWAP5 DUP6 ADD SWAP5 PUSH1 0x1 SWAP1 SWAP4 ADD SWAP3 SWAP1 SWAP2 ADD SWAP1 PUSH2 0x376F JUMP JUMPDEST PUSH2 0x37FD SWAP1 PUSH1 0x2 DUP7 ADD PUSH1 0x0 MSTORE PUSH1 0x20 PUSH1 0x0 KECCAK256 PUSH1 0x1F DUP6 ADD PUSH1 0x5 SHR DUP2 ADD SWAP2 PUSH1 0x20 DUP7 LT PUSH2 0xD7F JUMPI PUSH1 0x1F ADD PUSH1 0x5 SHR ADD SWAP1 PUSH2 0x62C9 JUMP JUMPDEST DUP8 PUSH2 0x26D8 JUMP JUMPDEST PUSH1 0x40 MLOAD PUSH3 0x461BCD PUSH1 0xE5 SHL DUP2 MSTORE PUSH1 0x20 PUSH1 0x4 DUP3 ADD MSTORE PUSH1 0x1D PUSH1 0x24 DUP3 ADD MSTORE PUSH32 0x50726F66696C6520696D6167652063616E6E6F7420626520656D707479000000 PUSH1 0x44 DUP3 ADD MSTORE PUSH1 0x64 SWAP1 REVERT JUMPDEST PUSH1 0x40 MLOAD PUSH3 0x461BCD PUSH1 0xE5 SHL DUP2 MSTORE PUSH1 0x20 PUSH1 0x4 DUP3 ADD MSTORE PUSH1 0x1C PUSH1 0x24 DUP3 ADD MSTORE PUSH32 0x50686F6E65206E756D6265722063616E6E6F7420626520656D70747900000000 PUSH1 0x44 DUP3 ADD MSTORE PUSH1 0x64 SWAP1 REVERT JUMPDEST PUSH1 0x40 MLOAD PUSH3 0x461BCD PUSH1 0xE5 SHL DUP2 MSTORE PUSH1 0x20 PUSH1 0x4 DUP3 ADD MSTORE PUSH1 0x15 PUSH1 0x24 DUP3 ADD MSTORE PUSH21 0x456D61696C2063616E6E6F7420626520656D707479 PUSH1 0x58 SHL PUSH1 0x44 DUP3 ADD MSTORE PUSH1 0x64 SWAP1 REVERT JUMPDEST PUSH1 0x40 MLOAD PUSH3 0x461BCD PUSH1 0xE5 SHL DUP2 MSTORE PUSH1 0x20 PUSH1 0x4 DUP3 ADD MSTORE PUSH1 0x1B PUSH1 0x24 DUP3 ADD MSTORE PUSH32 0x53656C6C6572206E616D652063616E6E6F7420626520656D7074790000000000 PUSH1 0x44 DUP3 ADD MSTORE PUSH1 0x64 SWAP1 REVERT JUMPDEST PUSH1 0x64 PUSH1 0x40 MLOAD PUSH3 0x461BCD PUSH1 0xE5 SHL DUP2 MSTORE PUSH1 0x20 PUSH1 0x4 DUP3 ADD MSTORE PUSH1 0x20 PUSH1 0x24 DUP3 ADD MSTORE PUSH32 0x4174206C65617374206F6E652066656174757265206973207265717569726564 PUSH1 0x44 DUP3 ADD MSTORE REVERT JUMPDEST PUSH1 0x40 MLOAD PUSH3 0x461BCD PUSH1 0xE5 SHL DUP2 MSTORE PUSH1 0x20 PUSH1 0x4 DUP3 ADD MSTORE PUSH1 0x1B PUSH1 0x24 DUP3 ADD MSTORE PUSH32 0x43617220686973746F72792063616E6E6F7420626520656D7074790000000000 PUSH1 0x44 DUP3 ADD MSTORE PUSH1 0x64 SWAP1 REVERT JUMPDEST PUSH1 0x40 MLOAD PUSH3 0x461BCD PUSH1 0xE5 SHL DUP2 MSTORE PUSH1 0x20 PUSH1 0x4 DUP3 ADD MSTORE PUSH1 0x18 PUSH1 0x24 DUP3 ADD MSTORE PUSH32 0x4C6F636174696F6E2063616E6E6F7420626520656D7074790000000000000000 PUSH1 0x44 DUP3 ADD MSTORE PUSH1 0x64 SWAP1 REVERT JUMPDEST PUSH1 0x40 MLOAD PUSH3 0x461BCD PUSH1 0xE5 SHL DUP2 MSTORE PUSH1 0x20 PUSH1 0x4 DUP3 ADD MSTORE PUSH1 0x13 PUSH1 0x24 DUP3 ADD MSTORE PUSH19 0x56494E2063616E6E6F7420626520656D707479 PUSH1 0x68 SHL PUSH1 0x44 DUP3 ADD MSTORE PUSH1 0x64 SWAP1 REVERT JUMPDEST PUSH1 0x40 MLOAD PUSH3 0x461BCD PUSH1 0xE5 SHL DUP2 MSTORE PUSH1 0x20 PUSH1 0x4 DUP3 ADD MSTORE PUSH1 0xC PUSH1 0x24 DUP3 ADD MSTORE PUSH12 0x24B73B30B634B2103CB2B0B9 PUSH1 0xA1 SHL PUSH1 0x44 DUP3 ADD MSTORE PUSH1 0x64 SWAP1 REVERT JUMPDEST SWAP1 POP PUSH4 0x1E13380 TIMESTAMP DIV SWAP1 PUSH2 0x7B2 DUP3 ADD DUP1 SWAP3 GT PUSH2 0xF8A JUMPI GT ISZERO DUP5 PUSH2 0x244D JUMP JUMPDEST PUSH1 0x40 MLOAD PUSH3 0x461BCD PUSH1 0xE5 SHL DUP2 MSTORE PUSH1 0x20 PUSH1 0x4 DUP3 ADD MSTORE PUSH1 0x1B PUSH1 0x24 DUP3 ADD MSTORE PUSH32 0x4465736372697074696F6E2063616E6E6F7420626520656D7074790000000000 PUSH1 0x44 DUP3 ADD MSTORE PUSH1 0x64 SWAP1 REVERT JUMPDEST PUSH1 0x40 MLOAD PUSH3 0x461BCD PUSH1 0xE5 SHL DUP2 MSTORE PUSH1 0x20 PUSH1 0x4 DUP3 ADD MSTORE PUSH1 0x16 PUSH1 0x24 DUP3 ADD MSTORE PUSH22 0x496E76616C69642073656C6C65722064657461696C73 PUSH1 0x50 SHL PUSH1 0x44 DUP3 ADD MSTORE PUSH1 0x64 SWAP1 REVERT JUMPDEST CALLVALUE PUSH2 0x265 JUMPI PUSH1 0x0 CALLDATASIZE PUSH1 0x3 NOT ADD SLT PUSH2 0x265 JUMPI PUSH1 0x40 MLOAD PUSH1 0x0 PUSH1 0x3 SLOAD PUSH2 0x3B0F DUP2 PUSH2 0x5B54 JUMP JUMPDEST DUP1 DUP5 MSTORE SWAP1 PUSH1 0x1 SWAP1 DUP2 DUP2 AND SWAP1 DUP2 ISZERO PUSH2 0x3BA8 JUMPI POP PUSH1 0x1 EQ PUSH2 0x3B4D JUMPI JUMPDEST PUSH2 0x17F8 DUP5 PUSH2 0x3B39 DUP2 DUP7 SUB DUP3 PUSH2 0x5360 JUMP JUMPDEST PUSH1 0x40 MLOAD SWAP2 DUP3 SWAP2 PUSH1 0x20 DUP4 MSTORE PUSH1 0x20 DUP4 ADD SWAP1 PUSH2 0x526C JUMP JUMPDEST PUSH1 0x3 PUSH1 0x0 SWAP1 DUP2 MSTORE SWAP3 POP PUSH32 0xC2575A0E9E593C00F959F8C92F12DB2869C3395A3B0502D05E2516446F71F85B JUMPDEST DUP3 DUP5 LT PUSH2 0x3B90 JUMPI POP POP POP DUP2 ADD PUSH1 0x20 ADD PUSH2 0x3B39 DUP3 PUSH2 0x3B29 JUMP JUMPDEST DUP1 SLOAD PUSH1 0x20 DUP6 DUP8 ADD DUP2 ADD SWAP2 SWAP1 SWAP2 MSTORE SWAP1 SWAP4 ADD SWAP3 DUP2 ADD PUSH2 0x3B78 JUMP JUMPDEST PUSH1 0xFF NOT AND PUSH1 0x20 DUP1 DUP8 ADD SWAP2 SWAP1 SWAP2 MSTORE SWAP3 ISZERO ISZERO PUSH1 0x5 SHL DUP6 ADD SWAP1 SWAP3 ADD SWAP3 POP PUSH2 0x3B39 SWAP2 POP DUP4 SWAP1 POP PUSH2 0x3B29 JUMP JUMPDEST CALLVALUE PUSH2 0x265 JUMPI PUSH1 0x60 CALLDATASIZE PUSH1 0x3 NOT ADD SLT PUSH2 0x265 JUMPI PUSH1 0x4 CALLDATALOAD PUSH1 0x24 DUP1 CALLDATALOAD SWAP1 PUSH1 0x44 DUP1 CALLDATALOAD DUP5 PUSH1 0x0 MSTORE PUSH1 0x20 SWAP3 PUSH1 0xB DUP5 MSTORE PUSH1 0x1 DUP1 PUSH1 0xA0 SHL SUB SWAP3 DUP4 PUSH1 0x1 PUSH1 0x40 PUSH1 0x0 KECCAK256 ADD SLOAD AND CALLER SUB PUSH2 0x3EDE JUMPI DUP7 PUSH1 0x0 MSTORE PUSH1 0xB DUP6 MSTORE PUSH2 0x3C2D PUSH1 0xFF PUSH1 0x16 PUSH1 0x40 PUSH1 0x0 KECCAK256 ADD SLOAD AND ISZERO PUSH2 0x6B68 JUMP JUMPDEST DUP7 PUSH1 0x0 MSTORE PUSH1 0xB DUP6 MSTORE PUSH2 0x3C4D PUSH1 0xFF PUSH1 0x16 PUSH1 0x40 PUSH1 0x0 KECCAK256 ADD SLOAD PUSH1 0x8 SHR AND ISZERO PUSH2 0x69BE JUMP JUMPDEST DUP7 PUSH1 0x0 MSTORE PUSH1 0xB DUP6 MSTORE PUSH2 0x3C72 PUSH1 0x1 PUSH1 0xFF PUSH1 0x16 PUSH1 0x40 PUSH1 0x0 KECCAK256 ADD SLOAD PUSH1 0x10 SHR AND PUSH2 0x208E DUP2 PUSH2 0x54CA JUMP JUMPDEST DUP3 ISZERO SWAP1 DUP2 ISZERO DUP1 PUSH2 0x3ED3 JUMPI JUMPDEST ISZERO PUSH2 0x3E91 JUMPI DUP7 ISZERO PUSH2 0x3E41 JUMPI DUP8 PUSH1 0x0 MSTORE PUSH1 0xD DUP7 MSTORE PUSH1 0xFF PUSH1 0x5 PUSH1 0x40 PUSH1 0x0 KECCAK256 ADD SLOAD AND PUSH2 0x3E06 JUMPI DUP8 PUSH1 0x0 MSTORE PUSH1 0xB DUP7 MSTORE DUP7 PUSH1 0xC PUSH1 0x40 PUSH1 0x0 KECCAK256 ADD SLOAD LT PUSH2 0x3DA9 JUMPI POP PUSH3 0x15180 DUP1 DUP5 MUL SWAP4 DUP5 DIV EQ OR ISZERO PUSH2 0x3D95 JUMPI POP SWAP2 PUSH32 0x44C53BE110C6AA83AA83CD02E351ED172359268272EE1B5D31C0FE48DB35C6C7 SWAP4 SWAP2 PUSH2 0x3D88 PUSH2 0x3CFD PUSH1 0x40 SWAP6 TIMESTAMP PUSH2 0x622C JUMP JUMPDEST SWAP2 PUSH1 0x5 DUP7 MLOAD SWAP2 PUSH2 0x3D0C DUP4 PUSH2 0x52F3 JUMP JUMPDEST DUP10 DUP4 MSTORE DUP6 DUP4 ADD SWAP1 DUP8 DUP3 MSTORE DUP9 DUP5 ADD SWAP1 DUP9 DUP3 MSTORE PUSH1 0x60 DUP6 ADD SWAP2 PUSH1 0x0 DUP4 MSTORE PUSH1 0x80 DUP7 ADD SWAP8 DUP9 MSTORE PUSH1 0xA0 DUP7 ADD SWAP4 PUSH1 0x1 DUP6 MSTORE DUP14 PUSH1 0x0 MSTORE PUSH1 0xD DUP11 MSTORE DUP12 PUSH1 0x0 KECCAK256 SWAP7 MLOAD DUP8 SSTORE MLOAD PUSH1 0x1 DUP8 ADD SSTORE MLOAD PUSH1 0x2 DUP7 ADD SSTORE PUSH1 0x3 DUP6 ADD SWAP2 MLOAD AND PUSH1 0x1 PUSH1 0x1 PUSH1 0x60 SHL SUB PUSH1 0xA0 SHL DUP3 SLOAD AND OR SWAP1 SSTORE PUSH1 0x4 DUP4 ADD SWAP5 MLOAD DUP6 SSTORE MLOAD ISZERO ISZERO SWAP2 ADD SWAP1 PUSH1 0xFF DUP1 NOT DUP4 SLOAD AND SWAP2 ISZERO ISZERO AND OR SWAP1 SSTORE JUMP JUMPDEST SLOAD SWAP1 DUP4 MLOAD SWAP3 DUP4 MSTORE DUP3 ADD MSTORE LOG2 STOP JUMPDEST PUSH4 0x4E487B71 PUSH1 0xE0 SHL PUSH1 0x0 SWAP1 DUP2 MSTORE PUSH1 0x11 PUSH1 0x4 MSTORE REVERT JUMPDEST DUP6 PUSH32 0x5374617274696E672070726963652063616E6E6F742062652068696768657220 PUSH1 0x84 SWAP3 PUSH1 0x32 DUP7 PUSH1 0x40 MLOAD SWAP5 PUSH3 0x461BCD PUSH1 0xE5 SHL DUP7 MSTORE PUSH1 0x4 DUP7 ADD MSTORE DUP5 ADD MSTORE DUP3 ADD MSTORE PUSH18 0x7468616E206C697374696E67207072696365 PUSH1 0x70 SHL PUSH1 0x64 DUP3 ADD MSTORE REVERT JUMPDEST DUP6 PUSH22 0x41756374696F6E20616C726561647920616374697665 PUSH1 0x50 SHL PUSH1 0x64 SWAP3 PUSH1 0x16 DUP7 PUSH1 0x40 MLOAD SWAP5 PUSH3 0x461BCD PUSH1 0xE5 SHL DUP7 MSTORE PUSH1 0x4 DUP7 ADD MSTORE DUP5 ADD MSTORE DUP3 ADD MSTORE REVERT JUMPDEST DUP6 PUSH32 0x5374617274696E67207072696365206D75737420626520677265617465722074 PUSH1 0x84 SWAP3 PUSH1 0x25 DUP7 PUSH1 0x40 MLOAD SWAP5 PUSH3 0x461BCD PUSH1 0xE5 SHL DUP7 MSTORE PUSH1 0x4 DUP7 ADD MSTORE DUP5 ADD MSTORE DUP3 ADD MSTORE PUSH5 0x68616E203 PUSH1 0xDC SHL PUSH1 0x64 DUP3 ADD MSTORE REVERT JUMPDEST DUP6 PUSH32 0x496E76616C69642061756374696F6E206475726174696F6E0000000000000000 PUSH1 0x64 SWAP3 PUSH1 0x18 DUP7 PUSH1 0x40 MLOAD SWAP5 PUSH3 0x461BCD PUSH1 0xE5 SHL DUP7 MSTORE PUSH1 0x4 DUP7 ADD MSTORE DUP5 ADD MSTORE DUP3 ADD MSTORE REVERT JUMPDEST POP PUSH1 0x1E DUP5 GT ISZERO PUSH2 0x3C7D JUMP JUMPDEST PUSH32 0x4F6E6C79206F776E65722063616E2073746172742061756374696F6E00000000 DUP6 SWAP2 PUSH1 0x1C PUSH1 0x64 SWAP5 PUSH1 0x40 MLOAD SWAP5 PUSH3 0x461BCD PUSH1 0xE5 SHL DUP7 MSTORE PUSH1 0x4 DUP7 ADD MSTORE DUP5 ADD MSTORE DUP3 ADD MSTORE REVERT JUMPDEST CALLVALUE PUSH2 0x265 JUMPI PUSH1 0x0 CALLDATASIZE PUSH1 0x3 NOT ADD SLT PUSH2 0x265 JUMPI PUSH1 0x0 SLOAD PUSH1 0x40 MLOAD PUSH1 0x1 PUSH1 0x1 PUSH1 0xA0 SHL SUB SWAP1 SWAP2 AND DUP2 MSTORE PUSH1 0x20 SWAP1 RETURN JUMPDEST CALLVALUE PUSH2 0x265 JUMPI PUSH1 0x0 CALLDATASIZE PUSH1 0x3 NOT ADD SLT PUSH2 0x265 JUMPI PUSH2 0x3F62 PUSH2 0x5A8D JUMP JUMPDEST PUSH1 0x0 DUP1 SLOAD PUSH1 0x1 PUSH1 0x1 PUSH1 0xA0 SHL SUB NOT DUP2 AND DUP3 SSTORE PUSH1 0x1 PUSH1 0x1 PUSH1 0xA0 SHL SUB AND PUSH32 0x8BE0079C531659141344CD1FD0A4F28419497F9722A3DAAFE3B4186F6B6457E0 DUP3 DUP1 LOG3 STOP JUMPDEST CALLVALUE PUSH2 0x265 JUMPI PUSH1 0x20 CALLDATASIZE PUSH1 0x3 NOT ADD SLT PUSH2 0x265 JUMPI PUSH1 0x1 PUSH1 0x1 PUSH1 0xA0 SHL SUB PUSH2 0x3FC3 PUSH2 0x52AC JUMP JUMPDEST AND DUP1 ISZERO PUSH2 0x3FE2 JUMPI PUSH1 0x0 MSTORE PUSH1 0x5 PUSH1 0x20 MSTORE PUSH1 0x20 PUSH1 0x40 PUSH1 0x0 KECCAK256 SLOAD PUSH1 0x40 MLOAD SWAP1 DUP2 MSTORE RETURN JUMPDEST PUSH1 0x40 MLOAD PUSH3 0x461BCD PUSH1 0xE5 SHL DUP2 MSTORE PUSH1 0x20 PUSH1 0x4 DUP3 ADD MSTORE PUSH1 0x29 PUSH1 0x24 DUP3 ADD MSTORE PUSH32 0x4552433732313A2061646472657373207A65726F206973206E6F742061207661 PUSH1 0x44 DUP3 ADD MSTORE PUSH9 0x3634B21037BBB732B9 PUSH1 0xB9 SHL PUSH1 0x64 DUP3 ADD MSTORE PUSH1 0x84 SWAP1 REVERT JUMPDEST PUSH1 0x20 DUP1 PUSH1 0x3 NOT CALLDATASIZE ADD SLT PUSH2 0x265 JUMPI PUSH1 0x4 CALLDATALOAD SWAP1 PUSH2 0x4052 PUSH2 0x6489 JUMP JUMPDEST DUP2 PUSH1 0x0 MSTORE PUSH1 0xB DUP1 DUP3 MSTORE PUSH2 0x4073 PUSH1 0xFF PUSH1 0x16 PUSH1 0x40 PUSH1 0x0 KECCAK256 ADD SLOAD PUSH1 0x8 SHR AND ISZERO PUSH2 0x69BE JUMP JUMPDEST PUSH1 0x0 DUP4 DUP2 MSTORE DUP2 DUP4 MSTORE PUSH1 0x40 SWAP1 KECCAK256 PUSH1 0x1 ADD SLOAD PUSH1 0x1 PUSH1 0x1 PUSH1 0xA0 SHL SUB SWAP1 PUSH2 0x4099 SWAP1 DUP3 AND ISZERO ISZERO PUSH2 0x6A01 JUMP JUMPDEST DUP4 PUSH1 0x0 MSTORE DUP2 DUP4 MSTORE PUSH2 0x40B5 PUSH1 0xFF PUSH1 0x16 PUSH1 0x40 PUSH1 0x0 KECCAK256 ADD SLOAD AND ISZERO PUSH2 0x6A42 JUMP JUMPDEST DUP4 PUSH1 0x0 MSTORE DUP2 DUP4 MSTORE PUSH1 0x1 PUSH1 0x40 PUSH1 0x0 KECCAK256 ADD SLOAD AND CALLER EQ PUSH2 0x4232 JUMPI CALLER ISZERO PUSH2 0x41F5 JUMPI CALLVALUE ISZERO PUSH2 0x41A2 JUMPI DUP3 PUSH1 0x0 MSTORE DUP1 DUP3 MSTORE PUSH1 0xFF PUSH1 0x16 PUSH1 0x40 PUSH1 0x0 KECCAK256 ADD SLOAD PUSH1 0x10 SHR AND PUSH2 0x40F7 DUP2 PUSH2 0x54CA JUMP JUMPDEST PUSH2 0x415D JUMPI DUP3 PUSH1 0x0 MSTORE DUP2 MSTORE PUSH1 0xC PUSH1 0x40 PUSH1 0x0 KECCAK256 ADD SLOAD CALLVALUE SUB PUSH2 0x4120 JUMPI PUSH2 0x411A CALLVALUE DUP4 PUSH2 0x6C8F JUMP JUMPDEST PUSH1 0x1 DUP1 SSTORE STOP JUMPDEST PUSH1 0x64 SWAP1 PUSH1 0x40 MLOAD SWAP1 PUSH3 0x461BCD PUSH1 0xE5 SHL DUP3 MSTORE PUSH1 0x4 DUP3 ADD MSTORE PUSH1 0x16 PUSH1 0x24 DUP3 ADD MSTORE PUSH22 0x115E1858DD081C185E5B595B9D081C995C5D5A5C9959 PUSH1 0x52 SHL PUSH1 0x44 DUP3 ADD MSTORE REVERT JUMPDEST PUSH1 0x40 MLOAD PUSH3 0x461BCD PUSH1 0xE5 SHL DUP2 MSTORE PUSH1 0x4 DUP2 ADD DUP4 SWAP1 MSTORE PUSH1 0x1E PUSH1 0x24 DUP3 ADD MSTORE PUSH32 0x55736520706C61636542696420666F722061756374696F6E206974656D730000 PUSH1 0x44 DUP3 ADD MSTORE PUSH1 0x64 SWAP1 REVERT JUMPDEST PUSH1 0x40 MLOAD PUSH3 0x461BCD PUSH1 0xE5 SHL DUP2 MSTORE PUSH1 0x4 DUP2 ADD DUP4 SWAP1 MSTORE PUSH1 0x25 PUSH1 0x24 DUP3 ADD MSTORE PUSH32 0x5061796D656E7420616D6F756E74206D75737420626520677265617465722074 PUSH1 0x44 DUP3 ADD MSTORE PUSH5 0x68616E203 PUSH1 0xDC SHL PUSH1 0x64 DUP3 ADD MSTORE PUSH1 0x84 SWAP1 REVERT JUMPDEST PUSH1 0x40 MLOAD PUSH3 0x461BCD PUSH1 0xE5 SHL DUP2 MSTORE PUSH1 0x4 DUP2 ADD DUP4 SWAP1 MSTORE PUSH1 0x15 PUSH1 0x24 DUP3 ADD MSTORE PUSH21 0x496E76616C69642062757965722061646472657373 PUSH1 0x58 SHL PUSH1 0x44 DUP3 ADD MSTORE PUSH1 0x64 SWAP1 REVERT JUMPDEST PUSH1 0x40 MLOAD PUSH3 0x461BCD PUSH1 0xE5 SHL DUP2 MSTORE PUSH1 0x4 DUP2 ADD DUP4 SWAP1 MSTORE PUSH1 0x17 PUSH1 0x24 DUP3 ADD MSTORE PUSH32 0x43616E6E6F742062757920796F7572206F776E20636172000000000000000000 PUSH1 0x44 DUP3 ADD MSTORE PUSH1 0x64 SWAP1 REVERT JUMPDEST CALLVALUE PUSH2 0x265 JUMPI PUSH1 0x20 CALLDATASIZE PUSH1 0x3 NOT ADD SLT PUSH2 0x265 JUMPI PUSH1 0x20 PUSH2 0x4295 PUSH1 0x4 CALLDATALOAD PUSH2 0x5B31 JUMP JUMPDEST PUSH1 0x40 MLOAD PUSH1 0x1 PUSH1 0x1 PUSH1 0xA0 SHL SUB SWAP1 SWAP2 AND DUP2 MSTORE RETURN JUMPDEST CALLVALUE PUSH2 0x265 JUMPI PUSH1 0x20 DUP1 PUSH1 0x3 NOT CALLDATASIZE ADD SLT PUSH2 0x265 JUMPI PUSH1 0x4 CALLDATALOAD SWAP1 PUSH2 0x42C5 PUSH2 0x6489 JUMP JUMPDEST PUSH1 0x0 DUP3 DUP2 MSTORE PUSH1 0xB DUP3 MSTORE PUSH1 0x40 SWAP1 KECCAK256 PUSH1 0x1 ADD SLOAD PUSH1 0x1 PUSH1 0x1 PUSH1 0xA0 SHL SUB SWAP1 DUP2 AND CALLER EQ DUP1 ISZERO PUSH2 0x447B JUMPI JUMPDEST PUSH2 0x42F3 SWAP1 PUSH2 0x652B JUMP JUMPDEST DUP3 PUSH1 0x0 MSTORE PUSH1 0xB DUP3 MSTORE PUSH1 0xFF PUSH1 0x16 PUSH1 0x40 PUSH1 0x0 KECCAK256 ADD SLOAD PUSH1 0x8 SHR AND PUSH2 0x4440 JUMPI DUP3 PUSH1 0x0 MSTORE PUSH1 0xD DUP3 MSTORE PUSH1 0xFF PUSH1 0x5 PUSH1 0x40 PUSH1 0x0 KECCAK256 ADD SLOAD AND PUSH2 0x43EB JUMPI DUP3 SWAP2 PUSH1 0x0 SWAP2 DUP4 DUP4 MSTORE PUSH1 0xB DUP3 MSTORE PUSH1 0x16 PUSH1 0x40 DUP5 KECCAK256 ADD PUSH2 0x100 PUSH2 0xFF00 NOT DUP3 SLOAD AND OR SWAP1 SSTORE PUSH2 0x434F DUP5 PUSH2 0x5B31 JUMP JUMPDEST POP PUSH1 0x4 PUSH2 0x435B DUP6 PUSH2 0x5B31 JUMP JUMPDEST SWAP2 DUP6 DUP6 MSTORE PUSH1 0x6 DUP5 MSTORE PUSH1 0x40 DUP6 KECCAK256 SWAP3 PUSH1 0x1 PUSH1 0x1 PUSH1 0x60 SHL SUB PUSH1 0xA0 SHL SWAP4 DUP5 DUP2 SLOAD AND SWAP1 SSTORE AND SWAP3 DUP4 DUP6 MSTORE PUSH1 0x5 DUP2 MSTORE PUSH1 0x40 DUP6 KECCAK256 DUP6 NOT DUP2 SLOAD ADD SWAP1 SSTORE DUP6 DUP6 MSTORE MSTORE PUSH1 0x40 DUP4 KECCAK256 SWAP1 DUP2 SLOAD AND SWAP1 SSTORE PUSH32 0xDDF252AD1BE2C89B69C2B068FC378DAA952BA7F163C4A11628F55A4DF523B3EF DUP3 DUP1 LOG4 PUSH32 0x4C55D56C6D5AE877D9EC949F0C19F4A20401BBB79D1B387785DCAE7A1A6010C0 PUSH1 0x0 DUP1 LOG2 PUSH1 0x1 DUP1 SSTORE STOP JUMPDEST PUSH1 0x40 MLOAD PUSH3 0x461BCD PUSH1 0xE5 SHL DUP2 MSTORE PUSH1 0x4 DUP2 ADD DUP4 SWAP1 MSTORE PUSH1 0x27 PUSH1 0x24 DUP3 ADD MSTORE PUSH32 0x43616E6E6F742064656C6574652063617220647572696E672061637469766520 PUSH1 0x44 DUP3 ADD MSTORE PUSH7 0x30BAB1BA34B7B7 PUSH1 0xC9 SHL PUSH1 0x64 DUP3 ADD MSTORE PUSH1 0x84 SWAP1 REVERT JUMPDEST PUSH1 0x40 MLOAD PUSH3 0x461BCD PUSH1 0xE5 SHL DUP2 MSTORE PUSH1 0x4 DUP2 ADD DUP4 SWAP1 MSTORE PUSH1 0x13 PUSH1 0x24 DUP3 ADD MSTORE PUSH19 0x10D85C88185B1C9958591E4819195B195D1959 PUSH1 0x6A SHL PUSH1 0x44 DUP3 ADD MSTORE PUSH1 0x64 SWAP1 REVERT JUMPDEST POP PUSH1 0x0 SLOAD DUP2 AND CALLER EQ PUSH2 0x42EA JUMP JUMPDEST CALLVALUE PUSH2 0x265 JUMPI PUSH1 0x20 CALLDATASIZE PUSH1 0x3 NOT ADD SLT PUSH2 0x265 JUMPI PUSH2 0x44A1 PUSH2 0x662C JUMP JUMPDEST POP PUSH1 0x4 CALLDATALOAD PUSH1 0x0 MSTORE PUSH1 0xB PUSH1 0x20 MSTORE PUSH2 0x17F8 PUSH2 0x44BD PUSH1 0x40 PUSH1 0x0 KECCAK256 PUSH2 0x674E JUMP JUMPDEST PUSH1 0x40 MLOAD SWAP2 DUP3 SWAP2 PUSH1 0x20 DUP4 MSTORE PUSH1 0x20 DUP4 ADD SWAP1 PUSH2 0x5530 JUMP JUMPDEST CALLVALUE PUSH2 0x265 JUMPI PUSH2 0x19DC PUSH2 0x19D7 PUSH2 0x44E5 CALLDATASIZE PUSH2 0x5439 JUMP JUMPDEST SWAP1 PUSH1 0x40 MLOAD SWAP3 PUSH2 0x44F3 DUP5 PUSH2 0x5345 JUMP JUMPDEST PUSH1 0x0 DUP5 MSTORE PUSH2 0x19C7 PUSH2 0x19C2 DUP5 CALLER PUSH2 0x5D4B JUMP JUMPDEST CALLVALUE PUSH2 0x265 JUMPI PUSH1 0x0 CALLDATASIZE PUSH1 0x3 NOT ADD SLT PUSH2 0x265 JUMPI PUSH1 0x8 DUP1 SLOAD PUSH1 0x0 PUSH1 0x1 JUMPDEST DUP3 DUP2 GT ISZERO PUSH2 0x45B5 JUMPI POP PUSH2 0x4530 SWAP1 PUSH2 0x6928 JUMP JUMPDEST SWAP2 PUSH1 0x1 PUSH1 0x0 JUMPDEST DUP4 DUP3 GT ISZERO PUSH2 0x454C JUMPI PUSH1 0x40 MLOAD DUP1 PUSH2 0x17F8 DUP8 DUP3 PUSH2 0x5727 JUMP JUMPDEST DUP2 PUSH1 0x0 MSTORE PUSH1 0xB PUSH1 0x20 MSTORE PUSH1 0x40 PUSH1 0x0 KECCAK256 SWAP2 PUSH1 0xFF PUSH1 0x16 DUP5 ADD SLOAD DUP6 SHR AND ISZERO DUP1 PUSH2 0x459F JUMPI JUMPDEST PUSH2 0x4582 JUMPI JUMPDEST PUSH2 0x457C SWAP2 SWAP3 POP PUSH2 0x6919 JUMP JUMPDEST SWAP1 PUSH2 0x4536 JUMP JUMPDEST PUSH2 0x4596 DUP3 PUSH2 0x1D81 PUSH2 0x1D7B PUSH2 0x457C SWAP6 SWAP3 PUSH2 0x6919 JUMP JUMPDEST POP DUP3 SWAP2 POP PUSH2 0x4571 JUMP JUMPDEST POP PUSH1 0x1 DUP4 ADD SLOAD PUSH1 0x1 PUSH1 0x1 PUSH1 0xA0 SHL SUB AND CALLER EQ PUSH2 0x456C JUMP JUMPDEST DUP1 PUSH1 0x0 MSTORE PUSH1 0xB PUSH1 0x20 MSTORE PUSH1 0x40 PUSH1 0x0 KECCAK256 PUSH1 0xFF PUSH1 0x16 DUP3 ADD SLOAD DUP7 SHR AND ISZERO SWAP1 DUP2 PUSH2 0x45FE JUMPI JUMPDEST POP PUSH2 0x45E9 JUMPI JUMPDEST PUSH2 0x45E4 SWAP1 PUSH2 0x6919 JUMP JUMPDEST PUSH2 0x451E JUMP JUMPDEST SWAP1 PUSH2 0x45F6 PUSH2 0x45E4 SWAP2 PUSH2 0x6919 JUMP JUMPDEST SWAP2 SWAP1 POP PUSH2 0x45DB JUMP JUMPDEST PUSH1 0x1 ADD SLOAD PUSH1 0x1 PUSH1 0x1 PUSH1 0xA0 SHL SUB AND CALLER EQ SWAP1 POP DUP6 PUSH2 0x45D5 JUMP JUMPDEST CALLVALUE PUSH2 0x265 JUMPI PUSH1 0x0 CALLDATASIZE PUSH1 0x3 NOT ADD SLT PUSH2 0x265 JUMPI PUSH1 0x0 PUSH1 0x1 PUSH1 0x8 SLOAD SWAP1 JUMPDEST DUP2 DUP2 GT ISZERO PUSH2 0x47B2 JUMPI POP PUSH2 0x4641 DUP3 PUSH2 0x5789 JUMP JUMPDEST SWAP2 PUSH2 0x464F PUSH1 0x40 MLOAD SWAP4 DUP5 PUSH2 0x5360 JUMP JUMPDEST DUP1 DUP4 MSTORE PUSH2 0x465E PUSH1 0x1F NOT SWAP2 PUSH2 0x5789 JUMP JUMPDEST ADD PUSH1 0x0 JUMPDEST DUP2 DUP2 LT PUSH2 0x477F JUMPI POP POP PUSH1 0x0 PUSH1 0x1 SWAP1 JUMPDEST DUP3 DUP3 GT ISZERO PUSH2 0x46DE JUMPI PUSH1 0x40 DUP1 MLOAD PUSH1 0x20 DUP1 DUP3 MSTORE DUP7 MLOAD DUP2 DUP4 ADD DUP2 SWAP1 MSTORE DUP2 DUP9 ADD SWAP4 DUP4 ADD SWAP2 PUSH1 0x0 JUMPDEST DUP3 DUP2 LT PUSH2 0x46A1 JUMPI DUP5 DUP5 SUB DUP6 RETURN JUMPDEST DUP6 MLOAD DUP1 MLOAD DUP6 MSTORE DUP1 DUP4 ADD MLOAD DUP6 DUP5 ADD MSTORE PUSH1 0x40 DUP1 DUP3 ADD MLOAD SWAP1 DUP7 ADD MSTORE PUSH1 0x60 SWAP1 DUP2 ADD MLOAD PUSH1 0x1 PUSH1 0x1 PUSH1 0xA0 SHL SUB AND SWAP1 DUP6 ADD MSTORE SWAP5 DUP2 ADD SWAP5 PUSH1 0x80 SWAP1 SWAP4 ADD SWAP3 PUSH1 0x1 ADD PUSH2 0x4694 JUMP JUMPDEST PUSH1 0x0 SWAP4 SWAP2 SWAP3 SWAP4 SWAP1 JUMPDEST DUP4 PUSH1 0x0 MSTORE PUSH1 0x20 PUSH1 0xC DUP2 MSTORE PUSH1 0x40 PUSH1 0x0 KECCAK256 DUP1 SLOAD DUP5 LT ISZERO PUSH2 0x4768 JUMPI SWAP2 PUSH2 0x475C SWAP2 PUSH2 0x4710 DUP6 PUSH2 0x4762 SWAP6 PUSH2 0x69A2 JUMP JUMPDEST POP PUSH1 0x40 MLOAD SWAP2 PUSH2 0x471E DUP4 PUSH2 0x52D8 JUMP JUMPDEST DUP2 SLOAD DUP4 MSTORE PUSH1 0x1 DUP3 ADD SLOAD SWAP1 DUP4 ADD MSTORE PUSH1 0x2 DUP2 ADD SLOAD PUSH1 0x40 DUP4 ADD MSTORE PUSH1 0x3 ADD SLOAD PUSH1 0x1 PUSH1 0x1 PUSH1 0xA0 SHL SUB AND PUSH1 0x60 DUP3 ADD MSTORE PUSH2 0x4751 DUP3 DUP8 PUSH2 0x6978 JUMP JUMPDEST MSTORE PUSH2 0x2003 DUP2 DUP7 PUSH2 0x6978 JUMP JUMPDEST SWAP2 PUSH2 0x6919 JUMP JUMPDEST SWAP1 PUSH2 0x46E6 JUMP JUMPDEST POP POP SWAP3 PUSH2 0x4778 SWAP2 POP SWAP4 SWAP2 SWAP4 PUSH2 0x6919 JUMP JUMPDEST SWAP1 SWAP2 PUSH2 0x4671 JUMP JUMPDEST PUSH1 0x20 SWAP1 PUSH1 0x40 MLOAD PUSH2 0x478E DUP2 PUSH2 0x52D8 JUMP JUMPDEST PUSH1 0x0 DUP2 MSTORE DUP3 PUSH1 0x0 DUP2 DUP4 ADD MSTORE PUSH1 0x0 PUSH1 0x40 DUP4 ADD MSTORE PUSH1 0x0 PUSH1 0x60 DUP4 ADD MSTORE DUP3 DUP8 ADD ADD MSTORE ADD PUSH2 0x4662 JUMP JUMPDEST SWAP2 PUSH2 0x47CF PUSH2 0x47D5 SWAP2 DUP5 PUSH1 0x0 MSTORE PUSH1 0xC PUSH1 0x20 MSTORE PUSH1 0x40 PUSH1 0x0 KECCAK256 SLOAD SWAP1 PUSH2 0x622C JUMP JUMPDEST SWAP3 PUSH2 0x6919 JUMP JUMPDEST PUSH2 0x462F JUMP JUMPDEST CALLVALUE PUSH2 0x265 JUMPI PUSH1 0x40 CALLDATASIZE PUSH1 0x3 NOT ADD SLT PUSH2 0x265 JUMPI PUSH1 0x4 CALLDATALOAD PUSH1 0x24 CALLDATALOAD PUSH1 0x1 PUSH1 0x1 PUSH1 0x40 SHL SUB DUP2 GT PUSH2 0x265 JUMPI PUSH2 0x480D SWAP1 CALLDATASIZE SWAP1 PUSH1 0x4 ADD PUSH2 0x53D3 JUMP JUMPDEST SWAP1 PUSH2 0x481A DUP3 MLOAD ISZERO ISZERO PUSH2 0x6A82 JUMP JUMPDEST DUP1 PUSH1 0x0 MSTORE PUSH1 0x20 PUSH1 0xB DUP2 MSTORE PUSH1 0xFF PUSH1 0x16 PUSH1 0x40 PUSH1 0x0 KECCAK256 ADD SLOAD PUSH1 0x8 SHR AND PUSH2 0x496B JUMPI PUSH1 0x0 DUP3 DUP2 MSTORE PUSH1 0xB DUP3 MSTORE PUSH1 0x40 SWAP1 KECCAK256 PUSH1 0x1 ADD SLOAD PUSH1 0x1 PUSH1 0x1 PUSH1 0xA0 SHL SUB SWAP1 PUSH2 0x485E SWAP1 DUP3 AND ISZERO ISZERO PUSH2 0x6A01 JUMP JUMPDEST DUP3 PUSH1 0x0 MSTORE PUSH1 0xB DUP3 MSTORE PUSH1 0x1 PUSH1 0x40 PUSH1 0x0 KECCAK256 ADD SLOAD AND CALLER EQ PUSH2 0x4927 JUMPI PUSH1 0xB SWAP1 PUSH2 0x4888 PUSH2 0x3E8 DUP6 MLOAD GT ISZERO PUSH2 0x6ACE JUMP JUMPDEST PUSH1 0x1 PUSH1 0xA SLOAD ADD SWAP4 DUP5 PUSH1 0xA SSTORE PUSH2 0x489B PUSH2 0x6285 JUMP JUMPDEST SWAP5 DUP6 MSTORE CALLER DUP3 DUP7 ADD MSTORE PUSH1 0x40 DUP6 ADD MSTORE TIMESTAMP PUSH1 0x60 DUP6 ADD MSTORE DUP3 PUSH1 0x0 MSTORE MSTORE PUSH1 0x10 PUSH1 0x40 PUSH1 0x0 KECCAK256 ADD DUP1 SLOAD PUSH1 0x1 PUSH1 0x40 SHL DUP2 LT ISZERO PUSH2 0xD89 JUMPI PUSH2 0x48D8 SWAP2 PUSH1 0x1 DUP3 ADD DUP2 SSTORE PUSH2 0x6B0D JUMP JUMPDEST PUSH2 0x4911 JUMPI DUP3 PUSH2 0x48E6 SWAP2 PUSH2 0x6329 JUMP JUMPDEST CALLER SWAP2 MLOAD SWAP1 PUSH32 0xA2A1DEE4425C37116291AB4D233678A915201B947533B0D540DEF4D8FCA8D28F PUSH1 0x0 DUP1 LOG4 STOP JUMPDEST PUSH4 0x4E487B71 PUSH1 0xE0 SHL PUSH1 0x0 MSTORE PUSH1 0x0 PUSH1 0x4 MSTORE PUSH1 0x24 PUSH1 0x0 REVERT JUMPDEST PUSH1 0x64 SWAP1 PUSH1 0x40 MLOAD SWAP1 PUSH3 0x461BCD PUSH1 0xE5 SHL DUP3 MSTORE PUSH1 0x4 DUP3 ADD MSTORE PUSH1 0x1A PUSH1 0x24 DUP3 ADD MSTORE PUSH32 0x43616E6E6F742072657669657720796F7572206F776E20636172000000000000 PUSH1 0x44 DUP3 ADD MSTORE REVERT JUMPDEST PUSH1 0x84 SWAP1 PUSH1 0x40 MLOAD SWAP1 PUSH3 0x461BCD PUSH1 0xE5 SHL DUP3 MSTORE PUSH1 0x4 DUP3 ADD MSTORE PUSH1 0x21 PUSH1 0x24 DUP3 ADD MSTORE PUSH32 0x43617220686173206265656E2064656C657465642066726F6D206C697374696E PUSH1 0x44 DUP3 ADD MSTORE PUSH1 0x67 PUSH1 0xF8 SHL PUSH1 0x64 DUP3 ADD MSTORE REVERT JUMPDEST CALLVALUE PUSH2 0x265 JUMPI PUSH1 0x40 CALLDATASIZE PUSH1 0x3 NOT ADD SLT PUSH2 0x265 JUMPI PUSH1 0x4 CALLDATALOAD PUSH1 0x24 CALLDATALOAD SWAP1 DUP1 PUSH1 0x0 MSTORE PUSH1 0xB PUSH1 0x20 SWAP1 DUP1 DUP3 MSTORE PUSH1 0x1 DUP1 PUSH1 0xA0 SHL SUB SWAP1 PUSH1 0x1 SWAP3 PUSH2 0x49FC DUP4 DUP6 PUSH1 0x40 PUSH1 0x0 KECCAK256 ADD SLOAD AND ISZERO ISZERO PUSH2 0x6A01 JUMP JUMPDEST DUP5 PUSH1 0x0 MSTORE DUP2 DUP2 MSTORE PUSH2 0x4A1B PUSH1 0xFF PUSH1 0x16 PUSH1 0x40 PUSH1 0x0 KECCAK256 ADD SLOAD PUSH1 0x8 SHR AND ISZERO PUSH2 0x69BE JUMP JUMPDEST PUSH1 0x0 SWAP3 DUP4 DUP1 DUP7 JUMPDEST PUSH2 0x4B69 JUMPI JUMPDEST POP PUSH2 0x4A31 SWAP1 PUSH2 0x6B29 JUMP JUMPDEST DUP6 PUSH1 0x0 MSTORE DUP3 DUP3 MSTORE DUP1 DUP6 PUSH2 0x4A4B DUP7 PUSH1 0x10 PUSH1 0x40 PUSH1 0x0 KECCAK256 ADD PUSH2 0x6B0D JUMP JUMPDEST POP ADD SLOAD AND CALLER EQ SWAP1 DUP2 ISZERO PUSH2 0x4B5B JUMPI JUMPDEST POP ISZERO PUSH2 0x4B0D JUMPI DUP5 PUSH1 0x0 MSTORE DUP2 DUP2 MSTORE PUSH1 0xFF PUSH1 0x4 PUSH2 0x4A7B DUP6 PUSH1 0x10 PUSH1 0x40 PUSH1 0x0 KECCAK256 ADD PUSH2 0x6B0D JUMP JUMPDEST POP ADD SLOAD AND PUSH2 0x4AD0 JUMPI SWAP2 PUSH2 0x4A9D SWAP2 PUSH1 0x4 SWAP4 DUP7 PUSH1 0x0 MSTORE MSTORE PUSH1 0x10 PUSH1 0x40 PUSH1 0x0 KECCAK256 ADD PUSH2 0x6B0D JUMP JUMPDEST POP ADD SWAP1 PUSH1 0xFF NOT DUP3 SLOAD AND OR SWAP1 SSTORE PUSH32 0xFE09911B3EC9652EF94A11286713BD397F2FB090F28C62303451D8040FF62C62 PUSH1 0x0 DUP1 LOG3 STOP JUMPDEST PUSH1 0x64 SWAP1 PUSH1 0x40 MLOAD SWAP1 PUSH3 0x461BCD PUSH1 0xE5 SHL DUP3 MSTORE PUSH1 0x4 DUP3 ADD MSTORE PUSH1 0x16 PUSH1 0x24 DUP3 ADD MSTORE PUSH22 0x14995D9A595DC8185B1C9958591E4819195B195D1959 PUSH1 0x52 SHL PUSH1 0x44 DUP3 ADD MSTORE REVERT JUMPDEST PUSH1 0x84 SWAP1 PUSH1 0x40 MLOAD SWAP1 PUSH3 0x461BCD PUSH1 0xE5 SHL DUP3 MSTORE PUSH1 0x4 DUP3 ADD MSTORE PUSH1 0x21 PUSH1 0x24 DUP3 ADD MSTORE PUSH32 0x4F6E6C79207265766965776572206F722061646D696E2063616E2064656C6574 PUSH1 0x44 DUP3 ADD MSTORE PUSH1 0x65 PUSH1 0xF8 SHL PUSH1 0x64 DUP3 ADD MSTORE REVERT JUMPDEST SWAP1 POP PUSH1 0x0 SLOAD AND CALLER EQ DUP8 PUSH2 0x4A59 JUMP JUMPDEST SWAP7 SWAP5 SWAP4 SWAP3 SWAP2 SWAP1 DUP6 PUSH1 0x0 MSTORE DUP4 DUP4 MSTORE DUP9 PUSH1 0x10 PUSH1 0x40 PUSH1 0x0 KECCAK256 ADD DUP1 SLOAD DUP11 LT ISZERO PUSH2 0x4BC8 JUMPI PUSH2 0x4B93 DUP11 DUP4 SWAP3 PUSH2 0x6B0D JUMP JUMPDEST POP SLOAD EQ PUSH2 0x4BB6 JUMPI PUSH2 0x4BA7 DUP9 SWAP10 SWAP9 SWAP8 SWAP9 PUSH2 0x6919 JUMP JUMPDEST SWAP2 SWAP3 SWAP4 SWAP5 SWAP6 SWAP7 SWAP8 SWAP9 SWAP1 POP PUSH2 0x4A22 JUMP JUMPDEST POP SWAP5 SWAP7 SWAP5 POP SWAP2 SWAP3 POP SWAP1 DUP5 PUSH2 0x4A31 PUSH2 0x4A27 JUMP JUMPDEST POP POP SWAP1 SWAP2 SWAP3 SWAP4 SWAP5 SWAP7 PUSH2 0x4A27 JUMP JUMPDEST CALLVALUE PUSH2 0x265 JUMPI PUSH2 0x19DC PUSH2 0x4BE6 CALLDATASIZE PUSH2 0x5439 JUMP JUMPDEST SWAP2 PUSH2 0x4BF4 PUSH2 0x19C2 DUP5 CALLER PUSH2 0x5D4B JUMP JUMPDEST PUSH2 0x5E13 JUMP JUMPDEST CALLVALUE PUSH2 0x265 JUMPI PUSH1 0x60 CALLDATASIZE PUSH1 0x3 NOT ADD SLT PUSH2 0x265 JUMPI PUSH1 0x44 CALLDATALOAD PUSH1 0x1 PUSH1 0x1 PUSH1 0x40 SHL SUB DUP2 GT PUSH2 0x265 JUMPI PUSH2 0x4C29 SWAP1 CALLDATASIZE SWAP1 PUSH1 0x4 ADD PUSH2 0x53D3 JUMP JUMPDEST PUSH2 0x4C31 PUSH2 0x6285 JUMP JUMPDEST POP PUSH1 0x4 CALLDATALOAD PUSH1 0x0 MSTORE PUSH1 0xB PUSH1 0x20 MSTORE PUSH2 0x4C55 PUSH1 0xFF PUSH1 0x16 PUSH1 0x40 PUSH1 0x0 KECCAK256 ADD SLOAD PUSH1 0x8 SHR AND ISZERO PUSH2 0x69BE JUMP JUMPDEST PUSH1 0x4 CALLDATALOAD PUSH1 0x0 MSTORE PUSH1 0xB PUSH1 0x20 MSTORE PUSH1 0x1 PUSH2 0x4C7C PUSH1 0x1 DUP1 PUSH1 0xA0 SHL SUB DUP3 PUSH1 0x40 PUSH1 0x0 KECCAK256 ADD SLOAD AND ISZERO ISZERO PUSH2 0x6A01 JUMP JUMPDEST PUSH2 0x4C88 DUP3 MLOAD ISZERO ISZERO PUSH2 0x6A82 JUMP JUMPDEST PUSH2 0x4C97 PUSH2 0x3E8 DUP4 MLOAD GT ISZERO PUSH2 0x6ACE JUMP JUMPDEST PUSH1 0x0 SWAP2 PUSH1 0x24 CALLDATALOAD SWAP2 DUP4 DUP1 DUP3 JUMPDEST PUSH2 0x4F71 JUMPI JUMPDEST POP PUSH2 0x4CB1 SWAP1 PUSH2 0x6B29 JUMP JUMPDEST PUSH1 0x4 CALLDATALOAD PUSH1 0x0 MSTORE PUSH1 0xB PUSH1 0x20 MSTORE PUSH2 0x4CCD DUP5 PUSH1 0x10 PUSH1 0x40 PUSH1 0x0 KECCAK256 ADD PUSH2 0x6B0D JUMP JUMPDEST POP DUP2 ADD SLOAD PUSH1 0x1 PUSH1 0x1 PUSH1 0xA0 SHL SUB AND CALLER EQ DUP1 ISZERO PUSH2 0x4F5D JUMPI JUMPDEST ISZERO PUSH2 0x4F0E JUMPI PUSH1 0x4 CALLDATALOAD PUSH1 0x0 MSTORE PUSH1 0xB PUSH1 0x20 MSTORE PUSH1 0xFF PUSH1 0x4 PUSH2 0x4D08 DUP7 PUSH1 0x10 PUSH1 0x40 PUSH1 0x0 KECCAK256 ADD PUSH2 0x6B0D JUMP JUMPDEST POP ADD SLOAD AND PUSH2 0x4EC9 JUMPI PUSH1 0x4 CALLDATALOAD PUSH1 0x0 MSTORE PUSH1 0xB PUSH1 0x20 MSTORE PUSH1 0x2 PUSH2 0x4D2E DUP6 PUSH1 0x10 PUSH1 0x40 PUSH1 0x0 KECCAK256 ADD PUSH2 0x6B0D JUMP JUMPDEST POP ADD SWAP1 DUP3 MLOAD SWAP1 PUSH1 0x1 PUSH1 0x1 PUSH1 0x40 SHL SUB DUP3 GT PUSH2 0xD89 JUMPI PUSH2 0x4D4C DUP4 SLOAD PUSH2 0x5B54 JUMP JUMPDEST PUSH1 0x1F DUP2 GT PUSH2 0x4E97 JUMPI JUMPDEST POP PUSH1 0x20 PUSH1 0x1F DUP4 GT PUSH1 0x1 EQ PUSH2 0x4E25 JUMPI SWAP3 DUP3 DUP1 PUSH2 0x4E06 SWAP8 SWAP5 PUSH2 0x1FE8 SWAP8 SWAP5 PUSH2 0x17F8 SWAP11 SWAP8 PUSH1 0x0 SWAP4 PUSH2 0x4E1A JUMPI JUMPDEST POP SHL SWAP2 PUSH1 0x0 NOT SWAP1 PUSH1 0x3 SHL SHR NOT AND OR SWAP1 SSTORE JUMPDEST PUSH1 0x4 CALLDATALOAD PUSH1 0x0 MSTORE PUSH1 0xB PUSH1 0x20 MSTORE PUSH2 0x4DAA DUP4 PUSH1 0x10 PUSH1 0x40 PUSH1 0x0 KECCAK256 ADD PUSH2 0x6B0D JUMP JUMPDEST POP PUSH1 0x3 TIMESTAMP SWAP2 ADD SSTORE PUSH32 0xE6BCA0B1AE68AA3C3101325A30603B90848B1CB037D020C24548CC433DB5E661 PUSH1 0x40 MLOAD PUSH1 0x20 DUP2 MSTORE DUP1 PUSH2 0x4DEB PUSH1 0x4 CALLDATALOAD SWAP5 PUSH1 0x20 DUP4 ADD SWAP1 PUSH2 0x526C JUMP JUMPDEST SUB SWAP1 LOG3 PUSH1 0x4 CALLDATALOAD PUSH1 0x0 MSTORE PUSH1 0xB PUSH1 0x20 MSTORE PUSH1 0x10 PUSH1 0x40 PUSH1 0x0 KECCAK256 ADD PUSH2 0x6B0D JUMP JUMPDEST PUSH1 0x40 MLOAD SWAP2 DUP3 SWAP2 PUSH1 0x20 DUP4 MSTORE PUSH1 0x20 DUP4 ADD SWAP1 PUSH2 0x53F1 JUMP JUMPDEST DUP7 ADD MLOAD SWAP3 POP DUP12 PUSH2 0x4D7D JUMP JUMPDEST PUSH1 0x1F SWAP3 SWAP2 SWAP3 NOT DUP3 AND SWAP1 DUP5 PUSH1 0x0 MSTORE PUSH1 0x20 PUSH1 0x0 KECCAK256 SWAP2 PUSH1 0x0 JUMPDEST DUP2 DUP2 LT PUSH2 0x4E81 JUMPI POP SWAP3 PUSH2 0x17F8 SWAP9 SWAP6 SWAP3 PUSH2 0x4E06 SWAP9 SWAP6 SWAP3 DUP3 PUSH2 0x1FE8 SWAP10 SWAP7 LT PUSH2 0x4E68 JUMPI JUMPDEST POP POP DUP2 SHL ADD SWAP1 SSTORE PUSH2 0x4D8E JUMP JUMPDEST DUP6 ADD MLOAD PUSH1 0x0 NOT PUSH1 0xF8 DUP5 PUSH1 0x3 SHL AND SHR NOT AND SWAP1 SSTORE DUP10 DUP1 PUSH2 0x4E5C JUMP JUMPDEST DUP8 DUP4 ADD MLOAD DUP5 SSTORE SWAP3 DUP6 ADD SWAP3 PUSH1 0x20 SWAP3 DUP4 ADD SWAP3 ADD PUSH2 0x4E3B JUMP JUMPDEST PUSH2 0x4EC3 SWAP1 DUP5 PUSH1 0x0 MSTORE PUSH1 0x20 PUSH1 0x0 KECCAK256 PUSH1 0x1F DUP6 ADD PUSH1 0x5 SHR DUP2 ADD SWAP2 PUSH1 0x20 DUP7 LT PUSH2 0xD7F JUMPI PUSH1 0x1F ADD PUSH1 0x5 SHR ADD SWAP1 PUSH2 0x62C9 JUMP JUMPDEST DUP7 PUSH2 0x4D55 JUMP JUMPDEST PUSH1 0x40 MLOAD PUSH3 0x461BCD PUSH1 0xE5 SHL DUP2 MSTORE PUSH1 0x20 PUSH1 0x4 DUP3 ADD MSTORE PUSH1 0x17 PUSH1 0x24 DUP3 ADD MSTORE PUSH32 0x52657669657720686173206265656E2064656C65746564000000000000000000 PUSH1 0x44 DUP3 ADD MSTORE PUSH1 0x64 SWAP1 REVERT JUMPDEST PUSH1 0x40 MLOAD PUSH3 0x461BCD PUSH1 0xE5 SHL DUP2 MSTORE PUSH1 0x20 PUSH1 0x4 DUP3 ADD MSTORE PUSH1 0x21 PUSH1 0x24 DUP3 ADD MSTORE PUSH32 0x4F6E6C79207265766965776572206F722061646D696E2063616E207570646174 PUSH1 0x44 DUP3 ADD MSTORE PUSH1 0x65 PUSH1 0xF8 SHL PUSH1 0x64 DUP3 ADD MSTORE PUSH1 0x84 SWAP1 REVERT JUMPDEST POP PUSH1 0x0 SLOAD PUSH1 0x1 PUSH1 0x1 PUSH1 0xA0 SHL SUB AND CALLER EQ PUSH2 0x4CE3 JUMP JUMPDEST PUSH1 0x4 CALLDATALOAD PUSH1 0x0 MSTORE PUSH1 0xB PUSH1 0x20 MSTORE DUP5 PUSH1 0x10 PUSH1 0x40 PUSH1 0x0 KECCAK256 ADD DUP1 SLOAD DUP4 LT ISZERO PUSH2 0x4FBC JUMPI DUP3 PUSH2 0x4F98 SWAP2 PUSH2 0x6B0D JUMP JUMPDEST POP SLOAD EQ PUSH2 0x4FAF JUMPI PUSH2 0x4FA9 DUP4 SWAP2 PUSH2 0x6919 JUMP JUMPDEST SWAP1 PUSH2 0x4CA2 JUMP JUMPDEST SWAP5 POP DUP2 SWAP1 POP PUSH2 0x4CB1 PUSH2 0x4CA7 JUMP JUMPDEST POP POP PUSH2 0x4CA7 JUMP JUMPDEST CALLVALUE PUSH2 0x265 JUMPI PUSH1 0x40 CALLDATASIZE PUSH1 0x3 NOT ADD SLT PUSH2 0x265 JUMPI PUSH2 0x4FDC PUSH2 0x52AC JUMP JUMPDEST PUSH1 0x24 CALLDATALOAD SWAP1 PUSH1 0x1 PUSH1 0x1 PUSH1 0xA0 SHL SUB DUP1 DUP1 PUSH2 0x4FF3 DUP6 PUSH2 0x5B31 JUMP JUMPDEST AND SWAP3 AND SWAP2 DUP1 DUP4 EQ PUSH2 0x50EE JUMPI DUP1 CALLER EQ SWAP1 DUP2 ISZERO PUSH2 0x50C9 JUMPI JUMPDEST POP ISZERO PUSH2 0x505E JUMPI PUSH1 0x0 DUP4 DUP2 MSTORE PUSH1 0x6 PUSH1 0x20 MSTORE PUSH1 0x40 SWAP1 KECCAK256 DUP1 SLOAD PUSH1 0x1 PUSH1 0x1 PUSH1 0xA0 SHL SUB NOT AND DUP4 OR SWAP1 SSTORE PUSH2 0x5036 DUP4 PUSH2 0x5B31 JUMP JUMPDEST AND PUSH32 0x8C5BE1E5EBEC7D5BD14F71427D1E84F3DD0314C0F7B2291E5B200AC8C7C3B925 PUSH1 0x0 DUP1 LOG4 STOP JUMPDEST PUSH1 0x40 MLOAD PUSH3 0x461BCD PUSH1 0xE5 SHL DUP2 MSTORE PUSH1 0x20 PUSH1 0x4 DUP3 ADD MSTORE PUSH1 0x3D PUSH1 0x24 DUP3 ADD MSTORE PUSH32 0x4552433732313A20617070726F76652063616C6C6572206973206E6F7420746F PUSH1 0x44 DUP3 ADD MSTORE PUSH32 0x6B656E206F776E6572206F7220617070726F76656420666F7220616C6C000000 PUSH1 0x64 DUP3 ADD MSTORE PUSH1 0x84 SWAP1 REVERT JUMPDEST SWAP1 POP PUSH1 0x0 MSTORE PUSH1 0x7 PUSH1 0x20 MSTORE PUSH1 0x40 PUSH1 0x0 KECCAK256 CALLER PUSH1 0x0 MSTORE PUSH1 0x20 MSTORE PUSH1 0xFF PUSH1 0x40 PUSH1 0x0 KECCAK256 SLOAD AND DUP5 PUSH2 0x5009 JUMP JUMPDEST PUSH1 0x40 MLOAD PUSH3 0x461BCD PUSH1 0xE5 SHL DUP2 MSTORE PUSH1 0x20 PUSH1 0x4 DUP3 ADD MSTORE PUSH1 0x21 PUSH1 0x24 DUP3 ADD MSTORE PUSH32 0x4552433732313A20617070726F76616C20746F2063757272656E74206F776E65 PUSH1 0x44 DUP3 ADD MSTORE PUSH1 0x39 PUSH1 0xF9 SHL PUSH1 0x64 DUP3 ADD MSTORE PUSH1 0x84 SWAP1 REVERT JUMPDEST CALLVALUE PUSH2 0x265 JUMPI PUSH1 0x20 CALLDATASIZE PUSH1 0x3 NOT ADD SLT PUSH2 0x265 JUMPI PUSH1 0x20 PUSH2 0x4295 PUSH1 0x4 CALLDATALOAD PUSH2 0x5C34 JUMP JUMPDEST CALLVALUE PUSH2 0x265 JUMPI PUSH1 0x0 CALLDATASIZE PUSH1 0x3 NOT ADD SLT PUSH2 0x265 JUMPI PUSH1 0x40 MLOAD PUSH1 0x0 PUSH1 0x2 SLOAD PUSH2 0x517D DUP2 PUSH2 0x5B54 JUMP JUMPDEST DUP1 DUP5 MSTORE SWAP1 PUSH1 0x1 SWAP1 DUP2 DUP2 AND SWAP1 DUP2 ISZERO PUSH2 0x3BA8 JUMPI POP PUSH1 0x1 EQ PUSH2 0x51A6 JUMPI PUSH2 0x17F8 DUP5 PUSH2 0x3B39 DUP2 DUP7 SUB DUP3 PUSH2 0x5360 JUMP JUMPDEST PUSH1 0x2 PUSH1 0x0 SWAP1 DUP2 MSTORE SWAP3 POP PUSH32 0x405787FA12A823E0F2B7631CC41B3BA8828B3321CA811111FA75CD3AA3BB5ACE JUMPDEST DUP3 DUP5 LT PUSH2 0x51E9 JUMPI POP POP POP DUP2 ADD PUSH1 0x20 ADD PUSH2 0x3B39 DUP3 PUSH2 0x3B29 JUMP JUMPDEST DUP1 SLOAD PUSH1 0x20 DUP6 DUP8 ADD DUP2 ADD SWAP2 SWAP1 SWAP2 MSTORE SWAP1 SWAP4 ADD SWAP3 DUP2 ADD PUSH2 0x51D1 JUMP JUMPDEST CALLVALUE PUSH2 0x265 JUMPI PUSH1 0x20 CALLDATASIZE PUSH1 0x3 NOT ADD SLT PUSH2 0x265 JUMPI PUSH1 0x4 CALLDATALOAD SWAP1 PUSH4 0xFFFFFFFF PUSH1 0xE0 SHL DUP3 AND DUP1 SWAP3 SUB PUSH2 0x265 JUMPI PUSH1 0x20 SWAP2 PUSH4 0x80AC58CD PUSH1 0xE0 SHL DUP2 EQ SWAP1 DUP2 ISZERO PUSH2 0x525B JUMPI JUMPDEST DUP2 ISZERO PUSH2 0x524A JUMPI JUMPDEST POP ISZERO ISZERO DUP2 MSTORE RETURN JUMPDEST PUSH4 0x1FFC9A7 PUSH1 0xE0 SHL EQ SWAP1 POP DUP4 PUSH2 0x5243 JUMP JUMPDEST PUSH4 0x5B5E139F PUSH1 0xE0 SHL DUP2 EQ SWAP2 POP PUSH2 0x523C JUMP JUMPDEST SWAP2 SWAP1 DUP3 MLOAD SWAP3 DUP4 DUP3 MSTORE PUSH1 0x0 JUMPDEST DUP5 DUP2 LT PUSH2 0x5298 JUMPI POP POP DUP3 PUSH1 0x0 PUSH1 0x20 DUP1 SWAP5 SWAP6 DUP5 ADD ADD MSTORE PUSH1 0x1F DUP1 NOT SWAP2 ADD AND ADD ADD SWAP1 JUMP JUMPDEST PUSH1 0x20 DUP2 DUP4 ADD DUP2 ADD MLOAD DUP5 DUP4 ADD DUP3 ADD MSTORE ADD PUSH2 0x5277 JUMP JUMPDEST PUSH1 0x4 CALLDATALOAD SWAP1 PUSH1 0x1 PUSH1 0x1 PUSH1 0xA0 SHL SUB DUP3 AND DUP3 SUB PUSH2 0x265 JUMPI JUMP JUMPDEST PUSH1 0x24 CALLDATALOAD SWAP1 PUSH1 0x1 PUSH1 0x1 PUSH1 0xA0 SHL SUB DUP3 AND DUP3 SUB PUSH2 0x265 JUMPI JUMP JUMPDEST PUSH1 0x80 DUP2 ADD SWAP1 DUP2 LT PUSH1 0x1 PUSH1 0x1 PUSH1 0x40 SHL SUB DUP3 GT OR PUSH2 0xD89 JUMPI PUSH1 0x40 MSTORE JUMP JUMPDEST PUSH1 0xC0 DUP2 ADD SWAP1 DUP2 LT PUSH1 0x1 PUSH1 0x1 PUSH1 0x40 SHL SUB DUP3 GT OR PUSH2 0xD89 JUMPI PUSH1 0x40 MSTORE JUMP JUMPDEST PUSH2 0x2E0 DUP2 ADD SWAP1 DUP2 LT PUSH1 0x1 PUSH1 0x1 PUSH1 0x40 SHL SUB DUP3 GT OR PUSH2 0xD89 JUMPI PUSH1 0x40 MSTORE JUMP JUMPDEST PUSH1 0xA0 DUP2 ADD SWAP1 DUP2 LT PUSH1 0x1 PUSH1 0x1 PUSH1 0x40 SHL SUB DUP3 GT OR PUSH2 0xD89 JUMPI PUSH1 0x40 MSTORE JUMP JUMPDEST PUSH1 0x20 DUP2 ADD SWAP1 DUP2 LT PUSH1 0x1 PUSH1 0x1 PUSH1 0x40 SHL SUB DUP3 GT OR PUSH2 0xD89 JUMPI PUSH1 0x40 MSTORE JUMP JUMPDEST SWAP1 PUSH1 0x1F DUP1 NOT SWAP2 ADD AND DUP2 ADD SWAP1 DUP2 LT PUSH1 0x1 PUSH1 0x1 PUSH1 0x40 SHL SUB DUP3 GT OR PUSH2 0xD89 JUMPI PUSH1 0x40 MSTORE JUMP JUMPDEST PUSH1 0x1 PUSH1 0x1 PUSH1 0x40 SHL SUB DUP2 GT PUSH2 0xD89 JUMPI PUSH1 0x1F ADD PUSH1 0x1F NOT AND PUSH1 0x20 ADD SWAP1 JUMP JUMPDEST SWAP3 SWAP2 SWAP3 PUSH2 0x53A8 DUP3 PUSH2 0x5381 JUMP JUMPDEST SWAP2 PUSH2 0x53B6 PUSH1 0x40 MLOAD SWAP4 DUP5 PUSH2 0x5360 JUMP JUMPDEST DUP3 SWAP5 DUP2 DUP5 MSTORE DUP2 DUP4 ADD GT PUSH2 0x265 JUMPI DUP3 DUP2 PUSH1 0x20 SWAP4 DUP5 PUSH1 0x0 SWAP7 ADD CALLDATACOPY ADD ADD MSTORE JUMP JUMPDEST SWAP1 DUP1 PUSH1 0x1F DUP4 ADD SLT ISZERO PUSH2 0x265 JUMPI DUP2 PUSH1 0x20 PUSH2 0x53EE SWAP4 CALLDATALOAD SWAP2 ADD PUSH2 0x539C JUMP JUMPDEST SWAP1 JUMP JUMPDEST SWAP1 DUP2 MLOAD DUP2 MSTORE PUSH1 0x1 DUP1 PUSH1 0xA0 SHL SUB PUSH1 0x20 DUP4 ADD MLOAD AND PUSH1 0x20 DUP3 ADD MSTORE PUSH1 0x80 DUP1 PUSH2 0x5424 PUSH1 0x40 DUP6 ADD MLOAD PUSH1 0xA0 PUSH1 0x40 DUP7 ADD MSTORE PUSH1 0xA0 DUP6 ADD SWAP1 PUSH2 0x526C JUMP JUMPDEST SWAP4 PUSH1 0x60 DUP2 ADD MLOAD PUSH1 0x60 DUP6 ADD MSTORE ADD MLOAD ISZERO ISZERO SWAP2 ADD MSTORE SWAP1 JUMP JUMPDEST PUSH1 0x60 SWAP1 PUSH1 0x3 NOT ADD SLT PUSH2 0x265 JUMPI PUSH1 0x1 PUSH1 0x1 PUSH1 0xA0 SHL SUB SWAP1 PUSH1 0x4 CALLDATALOAD DUP3 DUP2 AND DUP2 SUB PUSH2 0x265 JUMPI SWAP2 PUSH1 0x24 CALLDATALOAD SWAP1 DUP2 AND DUP2 SUB PUSH2 0x265 JUMPI SWAP1 PUSH1 0x44 CALLDATALOAD SWAP1 JUMP JUMPDEST SWAP1 DUP1 DUP3 MLOAD SWAP1 DUP2 DUP2 MSTORE PUSH1 0x20 DUP1 SWAP2 ADD SWAP3 DUP2 DUP1 DUP5 PUSH1 0x5 SHL DUP4 ADD ADD SWAP6 ADD SWAP4 PUSH1 0x0 SWAP2 JUMPDEST DUP5 DUP4 LT PUSH2 0x549C JUMPI POP POP POP POP POP POP SWAP1 JUMP JUMPDEST SWAP1 SWAP2 SWAP3 SWAP4 SWAP5 SWAP6 DUP5 DUP1 PUSH2 0x54BA PUSH1 0x1 SWAP4 PUSH1 0x1F NOT DUP7 DUP3 SUB ADD DUP8 MSTORE DUP11 MLOAD PUSH2 0x526C JUMP JUMPDEST SWAP9 ADD SWAP4 ADD SWAP4 ADD SWAP2 SWAP5 SWAP4 SWAP3 SWAP1 PUSH2 0x548C JUMP JUMPDEST PUSH1 0x2 GT ISZERO PUSH2 0x124C JUMPI JUMP JUMPDEST SWAP1 DUP1 DUP3 MLOAD SWAP1 DUP2 DUP2 MSTORE PUSH1 0x20 DUP1 SWAP2 ADD SWAP3 DUP2 DUP1 DUP5 PUSH1 0x5 SHL DUP4 ADD ADD SWAP6 ADD SWAP4 PUSH1 0x0 SWAP2 JUMPDEST DUP5 DUP4 LT PUSH2 0x5502 JUMPI POP POP POP POP POP POP SWAP1 JUMP JUMPDEST SWAP1 SWAP2 SWAP3 SWAP4 SWAP5 SWAP6 DUP5 DUP1 PUSH2 0x5520 PUSH1 0x1 SWAP4 PUSH1 0x1F NOT DUP7 DUP3 SUB ADD DUP8 MSTORE DUP11 MLOAD PUSH2 0x53F1 JUMP JUMPDEST SWAP9 ADD SWAP4 ADD SWAP4 ADD SWAP2 SWAP5 SWAP4 SWAP3 SWAP1 PUSH2 0x54F2 JUMP JUMPDEST SWAP1 DUP2 MLOAD DUP2 MSTORE PUSH1 0x1 DUP1 PUSH1 0xA0 SHL SUB DUP1 PUSH1 0x20 DUP5 ADD MLOAD AND PUSH1 0x20 DUP4 ADD MSTORE PUSH2 0x55EC PUSH2 0x55B8 PUSH2 0x55A6 PUSH2 0x5594 PUSH2 0x5582 PUSH2 0x5570 PUSH1 0x40 DUP10 ADD MLOAD PUSH2 0x2E0 DUP1 PUSH1 0x40 DUP12 ADD MSTORE DUP10 ADD SWAP1 PUSH2 0x526C JUMP JUMPDEST PUSH1 0x60 DUP10 ADD MLOAD DUP9 DUP3 SUB PUSH1 0x60 DUP11 ADD MSTORE PUSH2 0x546E JUMP JUMPDEST PUSH1 0x80 DUP9 ADD MLOAD DUP8 DUP3 SUB PUSH1 0x80 DUP10 ADD MSTORE PUSH2 0x526C JUMP JUMPDEST PUSH1 0xA0 DUP8 ADD MLOAD DUP7 DUP3 SUB PUSH1 0xA0 DUP9 ADD MSTORE PUSH2 0x526C JUMP JUMPDEST PUSH1 0xC0 DUP7 ADD MLOAD DUP6 DUP3 SUB PUSH1 0xC0 DUP8 ADD MSTORE PUSH2 0x526C JUMP JUMPDEST PUSH1 0xE0 DUP6 ADD MLOAD PUSH1 0xE0 DUP6 ADD MSTORE PUSH2 0x100 DUP1 DUP7 ADD MLOAD SWAP1 DUP6 ADD MSTORE PUSH2 0x120 DUP1 DUP7 ADD MLOAD SWAP1 DUP6 ADD MSTORE PUSH2 0x140 DUP1 DUP7 ADD MLOAD SWAP1 DUP6 DUP4 SUB SWAP1 DUP7 ADD MSTORE PUSH2 0x526C JUMP JUMPDEST SWAP1 PUSH2 0x160 DUP1 DUP6 ADD MLOAD SWAP1 PUSH1 0x3 DUP3 LT ISZERO PUSH2 0x124C JUMPI DUP5 ADD MSTORE PUSH2 0x180 DUP1 DUP6 ADD MLOAD SWAP1 PUSH2 0x5612 DUP3 PUSH2 0x54CA JUMP JUMPDEST DUP5 ADD MSTORE PUSH2 0x1A0 DUP1 DUP6 ADD MLOAD SWAP3 PUSH1 0x4 DUP5 LT ISZERO PUSH2 0x124C JUMPI PUSH2 0x566E PUSH2 0x565A PUSH2 0x5682 SWAP3 PUSH2 0x56F6 SWAP7 PUSH2 0x5696 SWAP6 DUP10 ADD MSTORE PUSH2 0x1C0 DUP1 DUP11 ADD MLOAD SWAP1 DUP10 ADD MSTORE PUSH2 0x1E0 DUP1 DUP11 ADD MLOAD SWAP1 DUP10 DUP4 SUB SWAP1 DUP11 ADD MSTORE PUSH2 0x526C JUMP JUMPDEST PUSH2 0x200 DUP1 DUP10 ADD MLOAD SWAP1 DUP9 DUP4 SUB SWAP1 DUP10 ADD MSTORE PUSH2 0x526C JUMP JUMPDEST PUSH2 0x220 DUP1 DUP9 ADD MLOAD SWAP1 DUP8 DUP4 SUB SWAP1 DUP9 ADD MSTORE PUSH2 0x546E JUMP JUMPDEST PUSH2 0x240 DUP1 DUP8 ADD MLOAD SWAP1 DUP7 DUP4 SUB SWAP1 DUP8 ADD MSTORE PUSH2 0x54D4 JUMP JUMPDEST PUSH2 0x260 SWAP2 DUP3 DUP7 ADD MLOAD SWAP3 DUP6 DUP4 SUB SWAP1 DUP7 ADD MSTORE DUP3 MLOAD AND DUP2 MSTORE PUSH1 0x80 PUSH2 0x56DB PUSH2 0x56C9 PUSH1 0x20 DUP6 ADD MLOAD PUSH1 0xA0 PUSH1 0x20 DUP7 ADD MSTORE PUSH1 0xA0 DUP6 ADD SWAP1 PUSH2 0x526C JUMP JUMPDEST PUSH1 0x40 DUP6 ADD MLOAD DUP5 DUP3 SUB PUSH1 0x40 DUP7 ADD MSTORE PUSH2 0x526C JUMP JUMPDEST SWAP3 PUSH1 0x60 DUP2 ADD MLOAD PUSH1 0x60 DUP5 ADD MSTORE ADD MLOAD SWAP1 PUSH1 0x80 DUP2 DUP5 SUB SWAP2 ADD MSTORE PUSH2 0x526C JUMP JUMPDEST SWAP2 PUSH2 0x280 DUP1 DUP3 ADD MLOAD ISZERO ISZERO SWAP1 DUP4 ADD MSTORE PUSH2 0x2A0 DUP1 DUP3 ADD MLOAD ISZERO ISZERO SWAP1 DUP4 ADD MSTORE PUSH2 0x2C0 DUP1 SWAP2 ADD MLOAD SWAP2 PUSH2 0x5722 DUP4 PUSH2 0x54CA JUMP JUMPDEST ADD MSTORE SWAP1 JUMP JUMPDEST PUSH1 0x20 DUP1 DUP3 ADD SWAP1 DUP1 DUP4 MSTORE DUP4 MLOAD DUP1 SWAP3 MSTORE PUSH1 0x40 DUP4 ADD SWAP3 DUP2 PUSH1 0x40 DUP5 PUSH1 0x5 SHL DUP4 ADD ADD SWAP6 ADD SWAP4 PUSH1 0x0 SWAP2 JUMPDEST DUP5 DUP4 LT PUSH2 0x575B JUMPI POP POP POP POP POP POP SWAP1 JUMP JUMPDEST SWAP1 SWAP2 SWAP3 SWAP4 SWAP5 SWAP6 DUP5 DUP1 PUSH2 0x5779 PUSH1 0x1 SWAP4 PUSH1 0x3F NOT DUP7 DUP3 SUB ADD DUP8 MSTORE DUP11 MLOAD PUSH2 0x5530 JUMP JUMPDEST SWAP9 ADD SWAP4 ADD SWAP4 ADD SWAP2 SWAP5 SWAP4 SWAP3 SWAP1 PUSH2 0x574B JUMP JUMPDEST PUSH1 0x1 PUSH1 0x1 PUSH1 0x40 SHL SUB DUP2 GT PUSH2 0xD89 JUMPI PUSH1 0x5 SHL PUSH1 0x20 ADD SWAP1 JUMP JUMPDEST SWAP1 DUP1 PUSH1 0x1F DUP4 ADD SLT ISZERO PUSH2 0x265 JUMPI DUP2 CALLDATALOAD SWAP1 PUSH2 0x57B8 DUP3 PUSH2 0x5789 JUMP JUMPDEST SWAP3 PUSH2 0x57C6 PUSH1 0x40 MLOAD SWAP5 DUP6 PUSH2 0x5360 JUMP JUMPDEST DUP3 DUP5 MSTORE PUSH1 0x20 SWAP3 DUP4 DUP1 DUP7 ADD SWAP2 PUSH1 0x5 SHL DUP4 ADD ADD SWAP3 DUP1 DUP5 GT PUSH2 0x265 JUMPI DUP5 DUP4 ADD SWAP2 JUMPDEST DUP5 DUP4 LT PUSH2 0x57F4 JUMPI POP POP POP POP POP POP SWAP1 JUMP JUMPDEST DUP3 CALLDATALOAD PUSH1 0x1 PUSH1 0x1 PUSH1 0x40 SHL SUB DUP2 GT PUSH2 0x265 JUMPI DUP7 SWAP2 PUSH2 0x5815 DUP5 DUP5 DUP1 SWAP5 DUP10 ADD ADD PUSH2 0x53D3 JUMP JUMPDEST DUP2 MSTORE ADD SWAP3 ADD SWAP2 PUSH2 0x57E4 JUMP JUMPDEST SWAP2 SWAP1 PUSH1 0xE0 DUP4 DUP3 SUB SLT PUSH2 0x265 JUMPI PUSH1 0x40 MLOAD SWAP1 PUSH1 0x1 PUSH1 0x1 PUSH1 0x40 SHL SUB SWAP1 PUSH1 0xE0 DUP4 ADD DUP3 DUP2 GT DUP5 DUP3 LT OR PUSH2 0xD89 JUMPI PUSH1 0x40 MSTORE DUP3 SWAP5 DUP1 CALLDATALOAD DUP4 DUP2 GT PUSH2 0x265 JUMPI DUP3 PUSH2 0x5862 SWAP2 DUP4 ADD PUSH2 0x53D3 JUMP JUMPDEST DUP5 MSTORE PUSH1 0x20 DUP2 ADD CALLDATALOAD DUP4 DUP2 GT PUSH2 0x265 JUMPI DUP3 PUSH2 0x587C SWAP2 DUP4 ADD PUSH2 0x57A0 JUMP JUMPDEST PUSH1 0x20 DUP6 ADD MSTORE PUSH1 0x40 DUP2 ADD CALLDATALOAD DUP4 DUP2 GT PUSH2 0x265 JUMPI DUP3 PUSH2 0x5899 SWAP2 DUP4 ADD PUSH2 0x53D3 JUMP JUMPDEST PUSH1 0x40 DUP6 ADD MSTORE PUSH1 0x60 DUP2 ADD CALLDATALOAD DUP4 DUP2 GT PUSH2 0x265 JUMPI DUP3 PUSH2 0x58B6 SWAP2 DUP4 ADD PUSH2 0x53D3 JUMP JUMPDEST PUSH1 0x60 DUP6 ADD MSTORE PUSH1 0x80 DUP2 ADD CALLDATALOAD SWAP3 DUP4 GT PUSH2 0x265 JUMPI PUSH2 0x58D7 PUSH1 0xC0 SWAP4 SWAP3 DUP5 SWAP4 DUP4 ADD PUSH2 0x53D3 JUMP JUMPDEST PUSH1 0x80 DUP6 ADD MSTORE PUSH1 0xA0 DUP2 ADD CALLDATALOAD PUSH1 0xA0 DUP6 ADD MSTORE ADD CALLDATALOAD SWAP2 ADD MSTORE JUMP JUMPDEST SWAP2 SWAP1 SWAP2 PUSH1 0xC0 DUP2 DUP5 SUB SLT PUSH2 0x265 JUMPI PUSH1 0x40 MLOAD SWAP1 PUSH2 0x5907 DUP3 PUSH2 0x52F3 JUMP JUMPDEST DUP2 SWAP4 DUP2 CALLDATALOAD DUP4 MSTORE PUSH1 0x20 DUP3 ADD CALLDATALOAD SWAP1 PUSH1 0x1 PUSH1 0x1 PUSH1 0x40 SHL SUB DUP3 GT PUSH2 0x265 JUMPI PUSH2 0x592C SWAP2 DUP4 ADD PUSH2 0x53D3 JUMP JUMPDEST PUSH1 0x20 DUP4 ADD MSTORE PUSH1 0x40 DUP2 ADD CALLDATALOAD PUSH1 0x3 DUP2 LT ISZERO PUSH2 0x265 JUMPI PUSH1 0x40 DUP4 ADD MSTORE PUSH1 0x60 DUP2 ADD CALLDATALOAD PUSH1 0x2 DUP2 LT ISZERO PUSH2 0x265 JUMPI PUSH1 0x60 DUP4 ADD MSTORE PUSH1 0x80 DUP2 ADD CALLDATALOAD PUSH1 0x4 DUP2 LT ISZERO PUSH2 0x265 JUMPI PUSH1 0x80 DUP4 ADD MSTORE PUSH1 0xA0 SWAP1 DUP2 ADD CALLDATALOAD SWAP2 ADD MSTORE JUMP JUMPDEST SWAP2 SWAP1 SWAP2 PUSH1 0x60 DUP2 DUP5 SUB SLT PUSH2 0x265 JUMPI PUSH1 0x40 MLOAD SWAP1 PUSH1 0x1 PUSH1 0x1 PUSH1 0x40 SHL SUB SWAP1 PUSH1 0x60 DUP4 ADD DUP3 DUP2 GT DUP5 DUP3 LT OR PUSH2 0xD89 JUMPI PUSH1 0x40 MSTORE DUP3 SWAP5 DUP2 CALLDATALOAD DUP4 DUP2 GT PUSH2 0x265 JUMPI DUP2 PUSH2 0x59B8 SWAP2 DUP5 ADD PUSH2 0x53D3 JUMP JUMPDEST DUP5 MSTORE PUSH1 0x20 DUP3 ADD CALLDATALOAD DUP4 DUP2 GT PUSH2 0x265 JUMPI DUP2 PUSH2 0x59D2 SWAP2 DUP5 ADD PUSH2 0x53D3 JUMP JUMPDEST PUSH1 0x20 DUP6 ADD MSTORE PUSH1 0x40 DUP3 ADD CALLDATALOAD SWAP3 DUP4 GT PUSH2 0x265 JUMPI PUSH1 0x40 SWAP3 PUSH2 0x59F0 SWAP3 ADD PUSH2 0x57A0 JUMP JUMPDEST SWAP2 ADD MSTORE JUMP JUMPDEST SWAP2 SWAP1 PUSH1 0xA0 DUP4 DUP3 SUB SLT PUSH2 0x265 JUMPI PUSH1 0x40 MLOAD SWAP1 PUSH2 0x5A0E DUP3 PUSH2 0x532A JUMP JUMPDEST SWAP1 SWAP3 DUP4 SWAP2 SWAP1 DUP1 CALLDATALOAD PUSH1 0x1 PUSH1 0x1 PUSH1 0xA0 SHL SUB DUP2 AND DUP2 SUB PUSH2 0x265 JUMPI DUP4 MSTORE PUSH1 0x1 PUSH1 0x1 PUSH1 0x40 SHL SUB SWAP2 PUSH1 0x20 DUP3 ADD CALLDATALOAD DUP4 DUP2 GT PUSH2 0x265 JUMPI DUP2 PUSH2 0x5A48 SWAP2 DUP5 ADD PUSH2 0x53D3 JUMP JUMPDEST PUSH1 0x20 DUP6 ADD MSTORE PUSH1 0x40 DUP3 ADD CALLDATALOAD DUP4 DUP2 GT PUSH2 0x265 JUMPI DUP2 PUSH2 0x5A65 SWAP2 DUP5 ADD PUSH2 0x53D3 JUMP JUMPDEST PUSH1 0x40 DUP6 ADD MSTORE PUSH1 0x60 DUP3 ADD CALLDATALOAD PUSH1 0x60 DUP6 ADD MSTORE PUSH1 0x80 DUP3 ADD CALLDATALOAD SWAP3 DUP4 GT PUSH2 0x265 JUMPI PUSH1 0x80 SWAP3 PUSH2 0x59F0 SWAP3 ADD PUSH2 0x53D3 JUMP JUMPDEST PUSH1 0x0 SLOAD PUSH1 0x1 PUSH1 0x1 PUSH1 0xA0 SHL SUB AND CALLER SUB PUSH2 0x5AA1 JUMPI JUMP JUMPDEST PUSH1 0x64 PUSH1 0x40 MLOAD PUSH3 0x461BCD PUSH1 0xE5 SHL DUP2 MSTORE PUSH1 0x20 PUSH1 0x4 DUP3 ADD MSTORE PUSH1 0x20 PUSH1 0x24 DUP3 ADD MSTORE PUSH32 0x4F776E61626C653A2063616C6C6572206973206E6F7420746865206F776E6572 PUSH1 0x44 DUP3 ADD MSTORE REVERT JUMPDEST ISZERO PUSH2 0x5AEC JUMPI JUMP JUMPDEST PUSH1 0x40 MLOAD PUSH3 0x461BCD PUSH1 0xE5 SHL DUP2 MSTORE PUSH1 0x20 PUSH1 0x4 DUP3 ADD MSTORE PUSH1 0x18 PUSH1 0x24 DUP3 ADD MSTORE PUSH32 0x4552433732313A20696E76616C696420746F6B656E2049440000000000000000 PUSH1 0x44 DUP3 ADD MSTORE PUSH1 0x64 SWAP1 REVERT JUMPDEST PUSH1 0x0 SWAP1 DUP2 MSTORE PUSH1 0x4 PUSH1 0x20 MSTORE PUSH1 0x40 SWAP1 KECCAK256 SLOAD PUSH1 0x1 PUSH1 0x1 PUSH1 0xA0 SHL SUB AND PUSH2 0x53EE DUP2 ISZERO ISZERO PUSH2 0x5AE5 JUMP JUMPDEST SWAP1 PUSH1 0x1 DUP3 DUP2 SHR SWAP3 AND DUP1 ISZERO PUSH2 0x5B84 JUMPI JUMPDEST PUSH1 0x20 DUP4 LT EQ PUSH2 0x5B6E JUMPI JUMP JUMPDEST PUSH4 0x4E487B71 PUSH1 0xE0 SHL PUSH1 0x0 MSTORE PUSH1 0x22 PUSH1 0x4 MSTORE PUSH1 0x24 PUSH1 0x0 REVERT JUMPDEST SWAP2 PUSH1 0x7F AND SWAP2 PUSH2 0x5B63 JUMP JUMPDEST SWAP1 PUSH1 0x40 MLOAD SWAP2 DUP3 PUSH1 0x0 DUP3 SLOAD SWAP3 PUSH2 0x5BA2 DUP5 PUSH2 0x5B54 JUMP JUMPDEST SWAP1 DUP2 DUP5 MSTORE PUSH1 0x1 SWAP5 DUP6 DUP2 AND SWAP1 DUP2 PUSH1 0x0 EQ PUSH2 0x5C11 JUMPI POP PUSH1 0x1 EQ PUSH2 0x5BCE JUMPI JUMPDEST POP POP PUSH2 0x5BCC SWAP3 POP SUB DUP4 PUSH2 0x5360 JUMP JUMPDEST JUMP JUMPDEST SWAP1 SWAP4 SWAP2 POP PUSH1 0x0 MSTORE PUSH1 0x20 SWAP1 DUP2 PUSH1 0x0 KECCAK256 SWAP4 PUSH1 0x0 SWAP2 JUMPDEST DUP2 DUP4 LT PUSH2 0x5BF9 JUMPI POP POP PUSH2 0x5BCC SWAP4 POP DUP3 ADD ADD CODESIZE DUP1 PUSH2 0x5BBE JUMP JUMPDEST DUP6 SLOAD DUP9 DUP5 ADD DUP6 ADD MSTORE SWAP5 DUP6 ADD SWAP5 DUP8 SWAP5 POP SWAP2 DUP4 ADD SWAP2 PUSH2 0x5BE1 JUMP JUMPDEST SWAP2 POP POP PUSH2 0x5BCC SWAP5 POP PUSH1 0x20 SWAP3 POP PUSH1 0xFF NOT AND DUP3 DUP5 ADD MSTORE ISZERO ISZERO PUSH1 0x5 SHL DUP3 ADD ADD CODESIZE DUP1 PUSH2 0x5BBE JUMP JUMPDEST PUSH1 0x0 DUP2 DUP2 MSTORE PUSH1 0x4 PUSH1 0x20 MSTORE PUSH1 0x40 SWAP1 KECCAK256 SLOAD PUSH2 0x5C57 SWAP1 PUSH1 0x1 PUSH1 0x1 PUSH1 0xA0 SHL SUB AND ISZERO ISZERO PUSH2 0x5AE5 JUMP JUMPDEST PUSH1 0x0 SWAP1 DUP2 MSTORE PUSH1 0x6 PUSH1 0x20 MSTORE PUSH1 0x40 SWAP1 KECCAK256 SLOAD PUSH1 0x1 PUSH1 0x1 PUSH1 0xA0 SHL SUB AND SWAP1 JUMP JUMPDEST ISZERO PUSH2 0x5C79 JUMPI JUMP JUMPDEST PUSH1 0x40 MLOAD PUSH3 0x461BCD PUSH1 0xE5 SHL DUP2 MSTORE PUSH1 0x20 PUSH1 0x4 DUP3 ADD MSTORE PUSH1 0x2D PUSH1 0x24 DUP3 ADD MSTORE PUSH32 0x4552433732313A2063616C6C6572206973206E6F7420746F6B656E206F776E65 PUSH1 0x44 DUP3 ADD MSTORE PUSH13 0x1C881BDC88185C1C1C9BDD9959 PUSH1 0x9A SHL PUSH1 0x64 DUP3 ADD MSTORE PUSH1 0x84 SWAP1 REVERT JUMPDEST PUSH1 0x80 SWAP1 PUSH1 0x20 DUP2 MSTORE PUSH1 0x32 PUSH1 0x20 DUP3 ADD MSTORE PUSH32 0x4552433732313A207472616E7366657220746F206E6F6E204552433732315265 PUSH1 0x40 DUP3 ADD MSTORE PUSH18 0x31B2B4BB32B91034B6B83632B6B2B73A32B9 PUSH1 0x71 SHL PUSH1 0x60 DUP3 ADD MSTORE ADD SWAP1 JUMP JUMPDEST ISZERO PUSH2 0x5D2E JUMPI JUMP JUMPDEST PUSH1 0x40 MLOAD PUSH3 0x461BCD PUSH1 0xE5 SHL DUP2 MSTORE DUP1 PUSH2 0x5D47 PUSH1 0x4 DUP3 ADD PUSH2 0x5CD4 JUMP JUMPDEST SUB SWAP1 REVERT JUMPDEST SWAP1 PUSH1 0x1 PUSH1 0x1 PUSH1 0xA0 SHL SUB DUP1 DUP1 PUSH2 0x5D5F DUP5 PUSH2 0x5B31 JUMP JUMPDEST AND SWAP4 AND SWAP2 DUP4 DUP4 EQ SWAP4 DUP5 ISZERO PUSH2 0x5D92 JUMPI JUMPDEST POP DUP4 ISZERO PUSH2 0x5D7C JUMPI JUMPDEST POP POP POP SWAP1 JUMP JUMPDEST PUSH2 0x5D88 SWAP2 SWAP3 SWAP4 POP PUSH2 0x5C34 JUMP JUMPDEST AND EQ CODESIZE DUP1 DUP1 PUSH2 0x5D76 JUMP JUMPDEST SWAP1 SWAP4 POP PUSH1 0x0 MSTORE PUSH1 0x7 PUSH1 0x20 MSTORE PUSH1 0x40 PUSH1 0x0 KECCAK256 DUP3 PUSH1 0x0 MSTORE PUSH1 0x20 MSTORE PUSH1 0xFF PUSH1 0x40 PUSH1 0x0 KECCAK256 SLOAD AND SWAP3 CODESIZE PUSH2 0x5D6E JUMP JUMPDEST ISZERO PUSH2 0x5DC0 JUMPI JUMP JUMPDEST PUSH1 0x40 MLOAD PUSH3 0x461BCD PUSH1 0xE5 SHL DUP2 MSTORE PUSH1 0x20 PUSH1 0x4 DUP3 ADD MSTORE PUSH1 0x25 PUSH1 0x24 DUP3 ADD MSTORE PUSH32 0x4552433732313A207472616E736665722066726F6D20696E636F727265637420 PUSH1 0x44 DUP3 ADD MSTORE PUSH5 0x37BBB732B9 PUSH1 0xD9 SHL PUSH1 0x64 DUP3 ADD MSTORE PUSH1 0x84 SWAP1 REVERT JUMPDEST SWAP1 PUSH2 0x5E3B SWAP2 PUSH2 0x5E21 DUP5 PUSH2 0x5B31 JUMP JUMPDEST PUSH1 0x1 PUSH1 0x1 PUSH1 0xA0 SHL SUB SWAP4 SWAP2 DUP5 AND SWAP3 DUP5 SWAP3 SWAP1 SWAP2 DUP4 AND DUP5 EQ PUSH2 0x5DB9 JUMP JUMPDEST AND SWAP2 DUP3 ISZERO PUSH2 0x5ED3 JUMPI DUP2 PUSH2 0x5E58 SWAP2 PUSH2 0x5E51 DUP7 PUSH2 0x5B31 JUMP JUMPDEST AND EQ PUSH2 0x5DB9 JUMP JUMPDEST PUSH32 0xDDF252AD1BE2C89B69C2B068FC378DAA952BA7F163C4A11628F55A4DF523B3EF PUSH1 0x0 DUP5 DUP2 MSTORE PUSH1 0x6 PUSH1 0x20 MSTORE PUSH1 0x40 DUP2 KECCAK256 PUSH1 0x1 PUSH1 0x1 PUSH1 0x60 SHL SUB PUSH1 0xA0 SHL SWAP1 DUP2 DUP2 SLOAD AND SWAP1 SSTORE DUP4 DUP3 MSTORE PUSH1 0x5 PUSH1 0x20 MSTORE PUSH1 0x40 DUP3 KECCAK256 PUSH1 0x0 NOT DUP2 SLOAD ADD SWAP1 SSTORE DUP5 DUP3 MSTORE PUSH1 0x40 DUP3 KECCAK256 PUSH1 0x1 DUP2 SLOAD ADD SWAP1 SSTORE DUP6 DUP3 MSTORE PUSH1 0x4 PUSH1 0x20 MSTORE DUP5 PUSH1 0x40 DUP4 KECCAK256 SWAP2 DUP3 SLOAD AND OR SWAP1 SSTORE DUP1 LOG4 JUMP JUMPDEST PUSH1 0x40 MLOAD PUSH3 0x461BCD PUSH1 0xE5 SHL DUP2 MSTORE PUSH1 0x20 PUSH1 0x4 DUP3 ADD MSTORE PUSH1 0x24 DUP1 DUP3 ADD MSTORE PUSH32 0x4552433732313A207472616E7366657220746F20746865207A65726F20616464 PUSH1 0x44 DUP3 ADD MSTORE PUSH4 0x72657373 PUSH1 0xE0 SHL PUSH1 0x64 DUP3 ADD MSTORE PUSH1 0x84 SWAP1 REVERT JUMPDEST RETURNDATASIZE ISZERO PUSH2 0x5F4F JUMPI RETURNDATASIZE SWAP1 PUSH2 0x5F35 DUP3 PUSH2 0x5381 JUMP JUMPDEST SWAP2 PUSH2 0x5F43 PUSH1 0x40 MLOAD SWAP4 DUP5 PUSH2 0x5360 JUMP JUMPDEST DUP3 MSTORE RETURNDATASIZE PUSH1 0x0 PUSH1 0x20 DUP5 ADD RETURNDATACOPY JUMP JUMPDEST PUSH1 0x60 SWAP1 JUMP JUMPDEST SWAP1 SWAP2 PUSH1 0x0 SWAP2 DUP1 EXTCODESIZE ISZERO PUSH2 0x6046 JUMPI PUSH2 0x5F9F PUSH1 0x20 SWAP2 DUP5 SWAP4 PUSH1 0x40 MLOAD SWAP5 DUP6 DUP1 SWAP5 DUP2 SWAP4 PUSH4 0xA85BD01 PUSH1 0xE1 SHL SWAP11 DUP12 DUP5 MSTORE CALLER PUSH1 0x4 DUP6 ADD MSTORE DUP5 PUSH1 0x24 DUP6 ADD MSTORE PUSH1 0x44 DUP5 ADD MSTORE PUSH1 0x80 PUSH1 0x64 DUP5 ADD MSTORE PUSH1 0x84 DUP4 ADD SWAP1 PUSH2 0x526C JUMP JUMPDEST SUB SWAP3 PUSH1 0x1 PUSH1 0x1 PUSH1 0xA0 SHL SUB AND GAS CALL SWAP1 DUP3 SWAP1 DUP3 PUSH2 0x5FF7 JUMPI JUMPDEST POP POP PUSH2 0x5FE9 JUMPI PUSH2 0x5FC3 PUSH2 0x5F24 JUMP JUMPDEST DUP1 MLOAD SWAP1 DUP2 PUSH2 0x5FE4 JUMPI PUSH1 0x40 MLOAD PUSH3 0x461BCD PUSH1 0xE5 SHL DUP2 MSTORE DUP1 PUSH2 0x5D47 PUSH1 0x4 DUP3 ADD PUSH2 0x5CD4 JUMP JUMPDEST PUSH1 0x20 ADD REVERT JUMPDEST PUSH1 0x1 PUSH1 0x1 PUSH1 0xE0 SHL SUB NOT AND EQ SWAP1 JUMP JUMPDEST SWAP1 SWAP2 SWAP3 POP PUSH1 0x20 DUP2 RETURNDATASIZE DUP3 GT PUSH2 0x603E JUMPI JUMPDEST DUP2 PUSH2 0x6013 PUSH1 0x20 SWAP4 DUP4 PUSH2 0x5360 JUMP JUMPDEST DUP2 ADD SUB SLT PUSH2 0x603A JUMPI MLOAD SWAP1 PUSH1 0x1 PUSH1 0x1 PUSH1 0xE0 SHL SUB NOT DUP3 AND DUP3 SUB PUSH2 0x6037 JUMPI POP SWAP1 CODESIZE DUP1 PUSH2 0x5FB5 JUMP JUMPDEST DUP1 REVERT JUMPDEST POP DUP1 REVERT JUMPDEST RETURNDATASIZE SWAP2 POP PUSH2 0x6006 JUMP JUMPDEST POP POP POP POP PUSH1 0x1 SWAP1 JUMP JUMPDEST SWAP2 SWAP3 PUSH1 0x0 SWAP3 SWAP2 SWAP1 DUP2 EXTCODESIZE ISZERO PUSH2 0x60C0 JUMPI PUSH1 0x20 SWAP2 PUSH2 0x60A5 SWAP2 DUP6 PUSH1 0x40 MLOAD SWAP6 DUP7 DUP1 SWAP6 DUP2 SWAP5 PUSH4 0xA85BD01 PUSH1 0xE1 SHL SWAP12 DUP13 DUP5 MSTORE CALLER PUSH1 0x4 DUP6 ADD MSTORE PUSH1 0x1 DUP1 PUSH1 0xA0 SHL SUB DUP1 SWAP6 AND PUSH1 0x24 DUP6 ADD MSTORE PUSH1 0x44 DUP5 ADD MSTORE PUSH1 0x80 PUSH1 0x64 DUP5 ADD MSTORE PUSH1 0x84 DUP4 ADD SWAP1 PUSH2 0x526C JUMP JUMPDEST SUB SWAP4 AND GAS CALL SWAP1 DUP3 SWAP1 DUP3 PUSH2 0x5FF7 JUMPI POP POP PUSH2 0x5FE9 JUMPI PUSH2 0x5FC3 PUSH2 0x5F24 JUMP JUMPDEST POP POP POP POP POP PUSH1 0x1 SWAP1 JUMP JUMPDEST ISZERO PUSH2 0x60D1 JUMPI JUMP JUMPDEST PUSH1 0x40 MLOAD PUSH3 0x461BCD PUSH1 0xE5 SHL DUP2 MSTORE PUSH1 0x20 PUSH1 0x4 DUP3 ADD MSTORE PUSH1 0x1F PUSH1 0x24 DUP3 ADD MSTORE PUSH32 0x53656C6C65722077616C6C6574206D757374206D617463682073656E64657200 PUSH1 0x44 DUP3 ADD MSTORE PUSH1 0x64 SWAP1 REVERT JUMPDEST ISZERO PUSH2 0x611D JUMPI JUMP JUMPDEST PUSH1 0x40 MLOAD PUSH3 0x461BCD PUSH1 0xE5 SHL DUP2 MSTORE PUSH1 0x20 PUSH1 0x4 DUP3 ADD MSTORE PUSH1 0x14 PUSH1 0x24 DUP3 ADD MSTORE PUSH20 0x4E616D652063616E6E6F7420626520656D707479 PUSH1 0x60 SHL PUSH1 0x44 DUP3 ADD MSTORE PUSH1 0x64 SWAP1 REVERT JUMPDEST ISZERO PUSH2 0x6160 JUMPI JUMP JUMPDEST PUSH1 0x40 MLOAD PUSH3 0x461BCD PUSH1 0xE5 SHL DUP2 MSTORE PUSH1 0x20 PUSH1 0x4 DUP3 ADD MSTORE PUSH1 0x1E PUSH1 0x24 DUP3 ADD MSTORE PUSH32 0x4174206C65617374206F6E6520696D6167652069732072657175697265640000 PUSH1 0x44 DUP3 ADD MSTORE PUSH1 0x64 SWAP1 REVERT JUMPDEST ISZERO PUSH2 0x61AC JUMPI JUMP JUMPDEST PUSH1 0x40 MLOAD PUSH3 0x461BCD PUSH1 0xE5 SHL DUP2 MSTORE PUSH1 0x20 PUSH1 0x4 DUP3 ADD MSTORE PUSH1 0x14 PUSH1 0x24 DUP3 ADD MSTORE PUSH20 0x4D616B652063616E6E6F7420626520656D707479 PUSH1 0x60 SHL PUSH1 0x44 DUP3 ADD MSTORE PUSH1 0x64 SWAP1 REVERT JUMPDEST ISZERO PUSH2 0x61EF JUMPI JUMP JUMPDEST PUSH1 0x40 MLOAD PUSH3 0x461BCD PUSH1 0xE5 SHL DUP2 MSTORE PUSH1 0x20 PUSH1 0x4 DUP3 ADD MSTORE PUSH1 0x15 PUSH1 0x24 DUP3 ADD MSTORE PUSH21 0x4D6F64656C2063616E6E6F7420626520656D707479 PUSH1 0x58 SHL PUSH1 0x44 DUP3 ADD MSTORE PUSH1 0x64 SWAP1 REVERT JUMPDEST SWAP2 SWAP1 DUP3 ADD DUP1 SWAP3 GT PUSH2 0xF8A JUMPI JUMP JUMPDEST ISZERO PUSH2 0x6240 JUMPI JUMP JUMPDEST PUSH1 0x40 MLOAD PUSH3 0x461BCD PUSH1 0xE5 SHL DUP2 MSTORE PUSH1 0x20 PUSH1 0x4 DUP3 ADD MSTORE PUSH1 0x1C PUSH1 0x24 DUP3 ADD MSTORE PUSH32 0x5072696365206D7573742062652067726561746572207468616E203000000000 PUSH1 0x44 DUP3 ADD MSTORE PUSH1 0x64 SWAP1 REVERT JUMPDEST PUSH1 0x40 MLOAD SWAP1 PUSH2 0x6292 DUP3 PUSH2 0x532A JUMP JUMPDEST PUSH1 0x0 PUSH1 0x80 DUP4 DUP3 DUP2 MSTORE DUP3 PUSH1 0x20 DUP3 ADD MSTORE PUSH1 0x60 PUSH1 0x40 DUP3 ADD MSTORE DUP3 PUSH1 0x60 DUP3 ADD MSTORE ADD MSTORE JUMP JUMPDEST PUSH1 0x3 DUP3 LT ISZERO PUSH2 0x124C JUMPI MSTORE JUMP JUMPDEST PUSH1 0x4 DUP3 LT ISZERO PUSH2 0x124C JUMPI MSTORE JUMP JUMPDEST DUP2 DUP2 LT PUSH2 0x62D4 JUMPI POP POP JUMP JUMPDEST PUSH1 0x0 DUP2 SSTORE PUSH1 0x1 ADD PUSH2 0x62C9 JUMP JUMPDEST PUSH2 0x62EA DUP2 SLOAD PUSH2 0x5B54 JUMP JUMPDEST SWAP1 DUP2 PUSH2 0x62F4 JUMPI POP POP JUMP JUMPDEST DUP2 PUSH1 0x1F PUSH1 0x0 SWAP4 GT PUSH1 0x1 EQ PUSH2 0x6306 JUMPI POP SSTORE JUMP JUMPDEST SWAP1 DUP1 DUP4 SWAP2 DUP3 MSTORE PUSH2 0x6325 PUSH1 0x1F PUSH1 0x20 DUP5 KECCAK256 SWAP5 ADD PUSH1 0x5 SHR DUP5 ADD PUSH1 0x1 DUP6 ADD PUSH2 0x62C9 JUMP JUMPDEST SSTORE SSTORE JUMP JUMPDEST DUP2 MLOAD DUP2 SSTORE PUSH1 0x1 SWAP2 DUP3 DUP3 ADD PUSH1 0x20 SWAP1 PUSH1 0x1 DUP1 PUSH1 0xA0 SHL SUB DUP3 DUP5 ADD MLOAD AND PUSH1 0x1 PUSH1 0x1 PUSH1 0x60 SHL SUB PUSH1 0xA0 SHL DUP3 SLOAD AND OR SWAP1 SSTORE PUSH1 0x2 DUP4 ADD SWAP1 PUSH1 0x40 DUP4 ADD MLOAD SWAP5 DUP6 MLOAD SWAP2 PUSH1 0x1 PUSH1 0x1 PUSH1 0x40 SHL SUB DUP4 GT PUSH2 0xD89 JUMPI PUSH2 0x6379 DUP5 SLOAD PUSH2 0x5B54 JUMP JUMPDEST PUSH1 0x1F DUP2 GT PUSH2 0x6459 JUMPI JUMPDEST POP DUP1 PUSH1 0x1F DUP5 GT PUSH1 0x1 EQ PUSH2 0x63E5 JUMPI POP SWAP2 DUP1 DUP1 PUSH1 0x80 SWAP6 SWAP4 PUSH1 0x4 SWAP8 SWAP6 PUSH2 0x5BCC SWAP11 PUSH1 0x0 SWAP5 PUSH2 0x63DA JUMPI JUMPDEST POP POP SHL SWAP2 PUSH1 0x0 NOT SWAP1 PUSH1 0x3 SHL SHR NOT AND OR SWAP1 SSTORE JUMPDEST PUSH1 0x60 DUP2 ADD MLOAD PUSH1 0x3 DUP6 ADD SSTORE ADD MLOAD ISZERO ISZERO SWAP2 ADD SWAP1 PUSH1 0xFF DUP1 NOT DUP4 SLOAD AND SWAP2 ISZERO ISZERO AND OR SWAP1 SSTORE JUMP JUMPDEST ADD MLOAD SWAP3 POP CODESIZE DUP1 PUSH2 0x63A7 JUMP JUMPDEST SWAP2 SWAP4 SWAP5 SWAP6 SWAP7 PUSH1 0x1F NOT DUP5 AND DUP7 PUSH1 0x0 MSTORE DUP4 PUSH1 0x0 KECCAK256 SWAP4 PUSH1 0x0 SWAP1 JUMPDEST DUP3 DUP3 LT PUSH2 0x6442 JUMPI POP POP SWAP3 PUSH1 0x80 SWAP6 SWAP3 DUP6 SWAP3 PUSH2 0x5BCC SWAP11 SWAP10 SWAP7 PUSH1 0x4 SWAP10 SWAP7 LT PUSH2 0x6429 JUMPI JUMPDEST POP POP POP DUP2 SHL ADD SWAP1 SSTORE PUSH2 0x63B9 JUMP JUMPDEST ADD MLOAD PUSH1 0x0 NOT PUSH1 0xF8 DUP5 PUSH1 0x3 SHL AND SHR NOT AND SWAP1 SSTORE CODESIZE DUP1 DUP1 PUSH2 0x641C JUMP JUMPDEST DUP1 DUP9 DUP7 SWAP8 DUP3 SWAP5 SWAP8 DUP8 ADD MLOAD DUP2 SSTORE ADD SWAP7 ADD SWAP5 ADD SWAP1 PUSH2 0x63FC JUMP JUMPDEST PUSH2 0x6483 SWAP1 DUP6 PUSH1 0x0 MSTORE DUP3 PUSH1 0x0 KECCAK256 PUSH1 0x1F DUP7 ADD PUSH1 0x5 SHR DUP2 ADD SWAP2 DUP5 DUP8 LT PUSH2 0xD7F JUMPI PUSH1 0x1F ADD PUSH1 0x5 SHR ADD SWAP1 PUSH2 0x62C9 JUMP JUMPDEST CODESIZE PUSH2 0x6382 JUMP JUMPDEST PUSH1 0x2 PUSH1 0x1 SLOAD EQ PUSH2 0x649A JUMPI PUSH1 0x2 PUSH1 0x1 SSTORE JUMP JUMPDEST PUSH1 0x40 MLOAD PUSH3 0x461BCD PUSH1 0xE5 SHL DUP2 MSTORE PUSH1 0x20 PUSH1 0x4 DUP3 ADD MSTORE PUSH1 0x1F PUSH1 0x24 DUP3 ADD MSTORE PUSH32 0x5265656E7472616E637947756172643A207265656E7472616E742063616C6C00 PUSH1 0x44 DUP3 ADD MSTORE PUSH1 0x64 SWAP1 REVERT JUMPDEST ISZERO PUSH2 0x64E6 JUMPI JUMP JUMPDEST PUSH1 0x40 MLOAD PUSH3 0x461BCD PUSH1 0xE5 SHL DUP2 MSTORE PUSH1 0x20 PUSH1 0x4 DUP3 ADD MSTORE PUSH1 0x1C PUSH1 0x24 DUP3 ADD MSTORE PUSH32 0x4552433732313A20746F6B656E20616C7265616479206D696E74656400000000 PUSH1 0x44 DUP3 ADD MSTORE PUSH1 0x64 SWAP1 REVERT JUMPDEST ISZERO PUSH2 0x6532 JUMPI JUMP JUMPDEST PUSH1 0x40 MLOAD PUSH3 0x461BCD PUSH1 0xE5 SHL DUP2 MSTORE PUSH1 0x20 PUSH1 0x4 DUP3 ADD MSTORE PUSH1 0x26 PUSH1 0x24 DUP3 ADD MSTORE PUSH32 0x4F6E6C7920746865206F776E65722063616E20706572666F726D207468697320 PUSH1 0x44 DUP3 ADD MSTORE PUSH6 0x30B1BA34B7B7 PUSH1 0xD1 SHL PUSH1 0x64 DUP3 ADD MSTORE PUSH1 0x84 SWAP1 REVERT JUMPDEST SWAP1 PUSH1 0x40 MLOAD PUSH2 0x6593 DUP2 PUSH2 0x532A JUMP JUMPDEST PUSH1 0x80 PUSH1 0xFF PUSH1 0x4 DUP4 SWAP6 DUP1 SLOAD DUP6 MSTORE PUSH1 0x1 DUP1 PUSH1 0xA0 SHL SUB PUSH1 0x1 DUP3 ADD SLOAD AND PUSH1 0x20 DUP7 ADD MSTORE PUSH2 0x65BD PUSH1 0x2 DUP3 ADD PUSH2 0x5B8E JUMP JUMPDEST PUSH1 0x40 DUP7 ADD MSTORE PUSH1 0x3 DUP2 ADD SLOAD PUSH1 0x60 DUP7 ADD MSTORE ADD SLOAD AND ISZERO ISZERO SWAP2 ADD MSTORE JUMP JUMPDEST SWAP1 DUP2 SLOAD PUSH2 0x65E2 DUP2 PUSH2 0x5789 JUMP JUMPDEST SWAP3 PUSH2 0x65F0 PUSH1 0x40 MLOAD SWAP5 DUP6 PUSH2 0x5360 JUMP JUMPDEST DUP2 DUP5 MSTORE PUSH1 0x0 SWAP1 DUP2 MSTORE PUSH1 0x20 DUP1 DUP3 KECCAK256 DUP2 DUP7 ADD JUMPDEST DUP5 DUP5 LT PUSH2 0x660F JUMPI POP POP POP POP POP JUMP JUMPDEST PUSH1 0x5 DUP4 PUSH1 0x1 SWAP3 PUSH2 0x661E DUP6 PUSH2 0x6586 JUMP JUMPDEST DUP2 MSTORE ADD SWAP3 ADD SWAP4 ADD SWAP3 SWAP1 PUSH2 0x6601 JUMP JUMPDEST PUSH1 0x40 MLOAD SWAP1 PUSH2 0x6639 DUP3 PUSH2 0x530E JUMP JUMPDEST DUP2 PUSH2 0x2C0 PUSH1 0x0 SWAP2 DUP3 DUP2 MSTORE DUP3 PUSH1 0x20 DUP3 ADD MSTORE PUSH1 0x60 DUP1 PUSH1 0x40 DUP4 ADD MSTORE DUP1 DUP1 DUP4 ADD MSTORE DUP1 PUSH1 0x80 DUP4 ADD MSTORE DUP1 PUSH1 0xA0 DUP4 ADD MSTORE DUP1 PUSH1 0xC0 DUP4 ADD MSTORE DUP4 PUSH1 0xE0 DUP4 ADD MSTORE DUP4 PUSH2 0x100 DUP4 ADD MSTORE DUP4 PUSH2 0x120 DUP4 ADD MSTORE DUP1 PUSH2 0x140 DUP4 ADD MSTORE DUP4 PUSH2 0x160 DUP4 ADD MSTORE DUP4 PUSH2 0x180 DUP4 ADD MSTORE DUP4 PUSH2 0x1A0 DUP4 ADD MSTORE DUP4 PUSH2 0x1C0 DUP4 ADD MSTORE DUP1 PUSH2 0x1E0 DUP4 ADD MSTORE DUP1 PUSH2 0x200 DUP4 ADD MSTORE DUP1 PUSH2 0x220 DUP4 ADD MSTORE DUP1 PUSH2 0x240 DUP4 ADD MSTORE PUSH1 0x40 MLOAD SWAP1 PUSH2 0x66C8 DUP3 PUSH2 0x532A JUMP JUMPDEST DUP5 DUP3 MSTORE DUP1 PUSH1 0x20 DUP4 ADD MSTORE DUP1 PUSH1 0x40 DUP4 ADD MSTORE DUP5 DUP2 DUP4 ADD MSTORE PUSH1 0x80 DUP3 ADD MSTORE PUSH2 0x260 DUP3 ADD MSTORE DUP3 PUSH2 0x280 DUP3 ADD MSTORE DUP3 PUSH2 0x2A0 DUP3 ADD MSTORE ADD MSTORE JUMP JUMPDEST SWAP1 DUP2 SLOAD PUSH2 0x6705 DUP2 PUSH2 0x5789 JUMP JUMPDEST SWAP3 PUSH2 0x6713 PUSH1 0x40 MLOAD SWAP5 DUP6 PUSH2 0x5360 JUMP JUMPDEST DUP2 DUP5 MSTORE PUSH1 0x0 SWAP1 DUP2 MSTORE PUSH1 0x20 DUP1 DUP3 KECCAK256 DUP2 DUP7 ADD JUMPDEST DUP5 DUP5 LT PUSH2 0x6732 JUMPI POP POP POP POP POP JUMP JUMPDEST PUSH1 0x1 DUP4 DUP2 SWAP3 PUSH2 0x6740 DUP6 PUSH2 0x5B8E JUMP JUMPDEST DUP2 MSTORE ADD SWAP3 ADD SWAP4 ADD SWAP3 SWAP1 PUSH2 0x6724 JUMP JUMPDEST SWAP1 PUSH1 0x40 MLOAD PUSH2 0x675B DUP2 PUSH2 0x530E JUMP JUMPDEST PUSH2 0x2C0 DUP2 SWAP4 DUP1 SLOAD DUP4 MSTORE PUSH1 0x16 PUSH1 0x1 DUP1 PUSH1 0xA0 SHL SUB SWAP2 DUP3 PUSH1 0x1 DUP3 ADD SLOAD AND PUSH1 0x20 DUP7 ADD MSTORE PUSH2 0x6786 PUSH1 0x2 DUP3 ADD PUSH2 0x5B8E JUMP JUMPDEST PUSH1 0x40 DUP7 ADD MSTORE PUSH2 0x6797 PUSH1 0x3 DUP3 ADD PUSH2 0x66F9 JUMP JUMPDEST PUSH1 0x60 DUP7 ADD MSTORE PUSH2 0x67A8 PUSH1 0x4 DUP3 ADD PUSH2 0x5B8E JUMP JUMPDEST PUSH1 0x80 DUP7 ADD MSTORE PUSH2 0x67B9 PUSH1 0x5 DUP3 ADD PUSH2 0x5B8E JUMP JUMPDEST PUSH1 0xA0 DUP7 ADD MSTORE PUSH2 0x67CA PUSH1 0x6 DUP3 ADD PUSH2 0x5B8E JUMP JUMPDEST PUSH1 0xC0 DUP7 ADD MSTORE PUSH1 0x7 DUP2 ADD SLOAD PUSH1 0xE0 DUP7 ADD MSTORE PUSH1 0x8 DUP2 ADD SLOAD PUSH2 0x100 DUP7 ADD MSTORE PUSH1 0x9 DUP2 ADD SLOAD PUSH2 0x120 DUP7 ADD MSTORE PUSH2 0x67FB PUSH1 0xA DUP3 ADD PUSH2 0x5B8E JUMP JUMPDEST PUSH2 0x140 DUP7 ADD MSTORE PUSH1 0xB DUP2 ADD SLOAD SWAP3 PUSH2 0x6841 PUSH1 0xFF DUP6 PUSH2 0x681E DUP3 DUP1 SWAP9 AND PUSH2 0x160 DUP12 ADD PUSH2 0x62B1 JUMP JUMPDEST DUP2 DUP2 PUSH1 0x8 SHR AND PUSH2 0x682D DUP2 PUSH2 0x54CA JUMP JUMPDEST PUSH2 0x180 DUP11 ADD MSTORE PUSH1 0x10 SHR AND PUSH2 0x1A0 DUP9 ADD PUSH2 0x62BD JUMP JUMPDEST PUSH1 0xC DUP3 ADD SLOAD PUSH2 0x1C0 DUP8 ADD MSTORE PUSH2 0x6858 PUSH1 0xD DUP4 ADD PUSH2 0x5B8E JUMP JUMPDEST PUSH2 0x1E0 DUP8 ADD MSTORE PUSH2 0x686A PUSH1 0xE DUP4 ADD PUSH2 0x5B8E JUMP JUMPDEST PUSH2 0x200 DUP8 ADD MSTORE PUSH2 0x687C PUSH1 0xF DUP4 ADD PUSH2 0x66F9 JUMP JUMPDEST PUSH2 0x220 DUP8 ADD MSTORE PUSH2 0x688E PUSH1 0x10 DUP4 ADD PUSH2 0x65D6 JUMP JUMPDEST PUSH2 0x240 DUP8 ADD MSTORE PUSH1 0x40 MLOAD SWAP1 PUSH2 0x68A1 DUP3 PUSH2 0x532A JUMP JUMPDEST PUSH1 0x11 DUP4 ADD SLOAD AND DUP2 MSTORE PUSH2 0x68B5 PUSH1 0x12 DUP4 ADD PUSH2 0x5B8E JUMP JUMPDEST PUSH1 0x20 DUP3 ADD MSTORE PUSH2 0x68C6 PUSH1 0x13 DUP4 ADD PUSH2 0x5B8E JUMP JUMPDEST PUSH1 0x40 DUP3 ADD MSTORE PUSH1 0x14 DUP3 ADD SLOAD PUSH1 0x60 DUP3 ADD MSTORE PUSH2 0x68E1 PUSH1 0x15 DUP4 ADD PUSH2 0x5B8E JUMP JUMPDEST PUSH1 0x80 DUP3 ADD MSTORE PUSH2 0x260 DUP7 ADD MSTORE ADD SLOAD DUP2 DUP2 AND ISZERO ISZERO PUSH2 0x280 DUP6 ADD MSTORE DUP2 DUP2 PUSH1 0x8 SHR AND ISZERO ISZERO PUSH2 0x2A0 DUP6 ADD MSTORE PUSH1 0x10 SHR AND SWAP2 PUSH2 0x6915 DUP4 PUSH2 0x54CA JUMP JUMPDEST ADD MSTORE JUMP JUMPDEST PUSH1 0x0 NOT DUP2 EQ PUSH2 0xF8A JUMPI PUSH1 0x1 ADD SWAP1 JUMP JUMPDEST SWAP1 PUSH2 0x6932 DUP3 PUSH2 0x5789 JUMP JUMPDEST PUSH2 0x693F PUSH1 0x40 MLOAD SWAP2 DUP3 PUSH2 0x5360 JUMP JUMPDEST DUP3 DUP2 MSTORE DUP1 SWAP3 PUSH2 0x6950 PUSH1 0x1F NOT SWAP2 PUSH2 0x5789 JUMP JUMPDEST ADD SWAP1 PUSH1 0x0 JUMPDEST DUP3 DUP2 LT PUSH2 0x6961 JUMPI POP POP POP JUMP JUMPDEST PUSH1 0x20 SWAP1 PUSH2 0x696C PUSH2 0x662C JUMP JUMPDEST DUP3 DUP3 DUP6 ADD ADD MSTORE ADD PUSH2 0x6955 JUMP JUMPDEST DUP1 MLOAD DUP3 LT ISZERO PUSH2 0x698C JUMPI PUSH1 0x20 SWAP2 PUSH1 0x5 SHL ADD ADD SWAP1 JUMP JUMPDEST PUSH4 0x4E487B71 PUSH1 0xE0 SHL PUSH1 0x0 MSTORE PUSH1 0x32 PUSH1 0x4 MSTORE PUSH1 0x24 PUSH1 0x0 REVERT JUMPDEST DUP1 SLOAD DUP3 LT ISZERO PUSH2 0x698C JUMPI PUSH1 0x0 MSTORE PUSH1 0x20 PUSH1 0x0 KECCAK256 SWAP1 PUSH1 0x2 SHL ADD SWAP1 PUSH1 0x0 SWAP1 JUMP JUMPDEST ISZERO PUSH2 0x69C5 JUMPI JUMP JUMPDEST PUSH1 0x40 MLOAD PUSH3 0x461BCD PUSH1 0xE5 SHL DUP2 MSTORE PUSH1 0x20 PUSH1 0x4 DUP3 ADD MSTORE PUSH1 0x14 PUSH1 0x24 DUP3 ADD MSTORE PUSH20 0x10D85C881A185CC81899595B8819195B195D1959 PUSH1 0x62 SHL PUSH1 0x44 DUP3 ADD MSTORE PUSH1 0x64 SWAP1 REVERT JUMPDEST ISZERO PUSH2 0x6A08 JUMPI JUMP JUMPDEST PUSH1 0x40 MLOAD PUSH3 0x461BCD PUSH1 0xE5 SHL DUP2 MSTORE PUSH1 0x20 PUSH1 0x4 DUP3 ADD MSTORE PUSH1 0x12 PUSH1 0x24 DUP3 ADD MSTORE PUSH18 0x10D85C88191BD95CC81B9BDD08195E1A5CDD PUSH1 0x72 SHL PUSH1 0x44 DUP3 ADD MSTORE PUSH1 0x64 SWAP1 REVERT JUMPDEST ISZERO PUSH2 0x6A49 JUMPI JUMP JUMPDEST PUSH1 0x40 MLOAD PUSH3 0x461BCD PUSH1 0xE5 SHL DUP2 MSTORE PUSH1 0x20 PUSH1 0x4 DUP3 ADD MSTORE PUSH1 0x11 PUSH1 0x24 DUP3 ADD MSTORE PUSH17 0x10D85C881A185CC81899595B881CDBDB19 PUSH1 0x7A SHL PUSH1 0x44 DUP3 ADD MSTORE PUSH1 0x64 SWAP1 REVERT JUMPDEST ISZERO PUSH2 0x6A89 JUMPI JUMP JUMPDEST PUSH1 0x40 MLOAD PUSH3 0x461BCD PUSH1 0xE5 SHL DUP2 MSTORE PUSH1 0x20 PUSH1 0x4 DUP3 ADD MSTORE PUSH1 0x17 PUSH1 0x24 DUP3 ADD MSTORE PUSH32 0x436F6D6D656E742063616E6E6F7420626520656D707479000000000000000000 PUSH1 0x44 DUP3 ADD MSTORE PUSH1 0x64 SWAP1 REVERT JUMPDEST ISZERO PUSH2 0x6AD5 JUMPI JUMP JUMPDEST PUSH1 0x40 MLOAD PUSH3 0x461BCD PUSH1 0xE5 SHL DUP2 MSTORE PUSH1 0x20 PUSH1 0x4 DUP3 ADD MSTORE PUSH1 0x10 PUSH1 0x24 DUP3 ADD MSTORE PUSH16 0x436F6D6D656E7420746F6F206C6F6E67 PUSH1 0x80 SHL PUSH1 0x44 DUP3 ADD MSTORE PUSH1 0x64 SWAP1 REVERT JUMPDEST DUP1 SLOAD DUP3 LT ISZERO PUSH2 0x698C JUMPI PUSH1 0x0 MSTORE PUSH1 0x5 PUSH1 0x20 PUSH1 0x0 KECCAK256 SWAP2 MUL ADD SWAP1 PUSH1 0x0 SWAP1 JUMP JUMPDEST ISZERO PUSH2 0x6B30 JUMPI JUMP JUMPDEST PUSH1 0x40 MLOAD PUSH3 0x461BCD PUSH1 0xE5 SHL DUP2 MSTORE PUSH1 0x20 PUSH1 0x4 DUP3 ADD MSTORE PUSH1 0x10 PUSH1 0x24 DUP3 ADD MSTORE PUSH16 0x14995D9A595DC81B9BDD08199BDD5B99 PUSH1 0x82 SHL PUSH1 0x44 DUP3 ADD MSTORE PUSH1 0x64 SWAP1 REVERT JUMPDEST ISZERO PUSH2 0x6B6F JUMPI JUMP JUMPDEST PUSH1 0x40 MLOAD PUSH3 0x461BCD PUSH1 0xE5 SHL DUP2 MSTORE PUSH1 0x20 PUSH1 0x4 DUP3 ADD MSTORE PUSH1 0x10 PUSH1 0x24 DUP3 ADD MSTORE PUSH16 0x10D85C88185B1C9958591E481CDBDB19 PUSH1 0x82 SHL PUSH1 0x44 DUP3 ADD MSTORE PUSH1 0x64 SWAP1 REVERT JUMPDEST ISZERO PUSH2 0x6BAE JUMPI JUMP JUMPDEST PUSH1 0x40 MLOAD PUSH3 0x461BCD PUSH1 0xE5 SHL DUP2 MSTORE PUSH1 0x20 PUSH1 0x4 DUP3 ADD MSTORE PUSH1 0x1A PUSH1 0x24 DUP3 ADD MSTORE PUSH32 0x436172206E6F74206C697374656420666F722061756374696F6E000000000000 PUSH1 0x44 DUP3 ADD MSTORE PUSH1 0x64 SWAP1 REVERT JUMPDEST ISZERO PUSH2 0x6BFA JUMPI JUMP JUMPDEST PUSH1 0x40 MLOAD PUSH3 0x461BCD PUSH1 0xE5 SHL DUP2 MSTORE PUSH1 0x20 PUSH1 0x4 DUP3 ADD MSTORE PUSH1 0x12 PUSH1 0x24 DUP3 ADD MSTORE PUSH18 0x41756374696F6E206E6F7420616374697665 PUSH1 0x70 SHL PUSH1 0x44 DUP3 ADD MSTORE PUSH1 0x64 SWAP1 REVERT JUMPDEST PUSH1 0x0 SWAP2 DUP3 SWAP2 DUP3 SWAP2 DUP3 SWAP2 PUSH1 0x1 PUSH1 0x1 PUSH1 0xA0 SHL SUB AND GAS CALL PUSH2 0x6C50 PUSH2 0x5F24 JUMP JUMPDEST POP ISZERO PUSH2 0x6C58 JUMPI JUMP JUMPDEST PUSH1 0x40 MLOAD PUSH3 0x461BCD PUSH1 0xE5 SHL DUP2 MSTORE PUSH1 0x20 PUSH1 0x4 DUP3 ADD MSTORE PUSH1 0xF PUSH1 0x24 DUP3 ADD MSTORE PUSH15 0x151C985B9CD9995C8819985A5B1959 PUSH1 0x8A SHL PUSH1 0x44 DUP3 ADD MSTORE PUSH1 0x64 SWAP1 REVERT JUMPDEST SWAP2 SWAP1 DUP1 ISZERO PUSH2 0x6DFB JUMPI PUSH1 0x0 SWAP3 DUP1 DUP5 MSTORE PUSH1 0x20 SWAP1 PUSH1 0xB DUP3 MSTORE PUSH1 0x40 SWAP2 PUSH2 0x6CBA PUSH1 0xFF PUSH1 0x16 DUP6 DUP10 KECCAK256 ADD SLOAD AND ISZERO PUSH2 0x6B68 JUMP JUMPDEST DUP2 DUP7 MSTORE PUSH1 0xB DUP2 MSTORE PUSH1 0x1 DUP1 PUSH1 0xA0 SHL SUB SWAP3 PUSH1 0x1 PUSH2 0x6CDD DUP6 DUP3 DUP5 DUP12 KECCAK256 ADD SLOAD AND ISZERO ISZERO PUSH2 0x6A01 JUMP JUMPDEST DUP4 DUP9 MSTORE PUSH1 0xB DUP4 MSTORE DUP8 DUP3 DUP2 KECCAK256 SWAP6 DUP3 DUP8 ADD SWAP1 DUP2 SLOAD SWAP2 PUSH1 0x16 DUP3 DUP5 AND SWAP10 ADD DUP6 PUSH1 0xFF NOT DUP3 SLOAD AND OR SWAP1 SSTORE PUSH1 0x1 PUSH1 0x1 PUSH1 0x60 SHL SUB PUSH1 0xA0 SHL SWAP3 DUP4 CALLER SWAP2 AND OR SWAP1 SSTORE PUSH2 0x6D1F DUP8 CALLER DUP11 PUSH2 0x5E13 JUMP JUMPDEST PUSH1 0x9 SLOAD DUP6 MLOAD SWAP1 PUSH2 0x6D2E DUP3 PUSH2 0x52D8 JUMP JUMPDEST DUP2 MSTORE DUP7 DUP2 ADD DUP9 DUP2 MSTORE DUP7 DUP3 ADD SWAP2 DUP12 DUP4 MSTORE DUP8 PUSH1 0x60 DUP3 ADD SWAP7 CALLER DUP9 MSTORE DUP12 DUP2 MSTORE PUSH1 0xC DUP12 MSTORE KECCAK256 DUP1 SLOAD SWAP1 PUSH1 0x1 PUSH1 0x40 SHL DUP3 LT ISZERO PUSH2 0x6DE6 JUMPI SWAP1 PUSH2 0x6D6C SWAP2 DUP10 DUP3 ADD DUP2 SSTORE PUSH2 0x69A2 JUMP JUMPDEST SWAP15 SWAP1 SWAP15 PUSH2 0x6DD2 JUMPI POP SWAP2 PUSH32 0x8205A71867F7292BCEF9E53D4774758D6173B03F63017DEC9A03A6664B429DC5 SWAP10 SWAP11 SWAP12 SWAP13 SWAP14 SWAP2 PUSH1 0x3 SWAP4 MLOAD DUP4 SSTORE MLOAD DUP8 DUP4 ADD SSTORE MLOAD PUSH1 0x2 DUP3 ADD SSTORE ADD SWAP3 MLOAD AND SWAP1 DUP3 SLOAD AND OR SWAP1 SSTORE PUSH1 0x9 SLOAD ADD PUSH1 0x9 SSTORE PUSH2 0x6DC9 DUP7 DUP7 PUSH2 0x6C34 JUMP JUMPDEST MLOAD SWAP5 DUP6 MSTORE CALLER SWAP5 LOG4 JUMP JUMPDEST PUSH4 0x4E487B71 PUSH1 0xE0 SHL DUP2 MSTORE PUSH1 0x4 DUP2 SWAP1 MSTORE PUSH1 0x24 SWAP1 REVERT JUMPDEST POP PUSH4 0x4E487B71 PUSH1 0xE0 SHL DUP16 MSTORE PUSH1 0x41 PUSH1 0x4 MSTORE PUSH1 0x24 DUP16 REVERT JUMPDEST PUSH1 0x40 MLOAD PUSH3 0x461BCD PUSH1 0xE5 SHL DUP2 MSTORE PUSH1 0x20 PUSH1 0x4 DUP3 ADD MSTORE PUSH1 0x1E PUSH1 0x24 DUP3 ADD MSTORE PUSH32 0x5061796D656E74206D7573742062652067726561746572207468616E20300000 PUSH1 0x44 DUP3 ADD MSTORE PUSH1 0x64 SWAP1 REVERT INVALID LOG2 PUSH5 0x6970667358 0x22 SLT KECCAK256 0xD4 0xE0 0xC3 OR PUSH14 0x4C41743EFEE53A05BA02C5FBB947 0xB7 PUSH32 0xE8AE7B2B5C848297E1157564736F6C6343000813003300000000000000000000 "},"methodIdentifiers":{"approve(address,uint256)":"095ea7b3","balanceOf(address)":"70a08231","buyCar(uint256)":"6c231060","cancelAuction(uint256)":"96b5a755","carAuctions(uint256)":"b0b7755e","createReview(uint256,string)":"2c0e839b","deleteCar(uint256)":"60098088","deleteReview(uint256,uint256)":"24d41a03","endAuction(uint256)":"b9a2de3a","getAllCars()":"abfe5d57","getAllSales()":"33396917","getApproved(uint256)":"081812fc","getAuctionDetails(uint256)":"f20e5e35","getCar(uint256)":"5e8be190","getMyCars()":"341fa05d","getReviews(uint256)":"9d4a2255","isApprovedForAll(address,address)":"e985e9c5","listCar((string,string[],string,string,string,uint256,uint256),(uint256,string,uint8,uint8,uint8,uint256),(string,string,string[]),(address,string,string,uint256,string),uint8)":"96a12041","name()":"06fdde03","owner()":"8da5cb5b","ownerOf(uint256)":"6352211e","placeBid(uint256)":"9979ef45","renounceOwnership()":"715018a6","safeTransferFrom(address,address,uint256)":"42842e0e","safeTransferFrom(address,address,uint256,bytes)":"b88d4fde","setApprovalForAll(address,bool)":"a22cb465","startAuction(uint256,uint256,uint256)":"91e078bb","supportsInterface(bytes4)":"01ffc9a7","symbol()":"95d89b41","tokenURI(uint256)":"c87b56dd","transfer(uint256,address)":"b7760c8f","transferFrom(address,address,uint256)":"23b872dd","transferOwnership(address)":"f2fde38b","updateCar(uint256,(string,string[],string,string,string,uint256,uint256),(uint256,string,uint8,uint8,uint8,uint256),(string,string,string[]),(address,string,string,uint256,string),uint8)":"e05f8bb7","updateReview(uint256,uint256,string)":"175a3b41"}}}}}