{"contracts/HemDealer.sol":{"HemDealer":{"abi":[{"inputs":[{"internalType":"address","name":"_acrossRouter","type":"address"}],"stateMutability":"nonpayable","type":"constructor"},{"anonymous":false,"inputs":[{"indexed":true,"internalType":"address","name":"owner","type":"address"},{"indexed":true,"internalType":"address","name":"approved","type":"address"},{"indexed":true,"internalType":"uint256","name":"tokenId","type":"uint256"}],"name":"Approval","type":"event"},{"anonymous":false,"inputs":[{"indexed":true,"internalType":"address","name":"owner","type":"address"},{"indexed":true,"internalType":"address","name":"operator","type":"address"},{"indexed":false,"internalType":"bool","name":"approved","type":"bool"}],"name":"ApprovalForAll","type":"event"},{"anonymous":false,"inputs":[{"indexed":true,"internalType":"uint256","name":"carId","type":"uint256"},{"indexed":true,"internalType":"address","name":"owner","type":"address"}],"name":"CarDeleted","type":"event"},{"anonymous":false,"inputs":[{"indexed":true,"internalType":"uint256","name":"carId","type":"uint256"},{"indexed":true,"internalType":"address","name":"seller","type":"address"},{"indexed":false,"internalType":"uint256","name":"price","type":"uint256"}],"name":"CarListed","type":"event"},{"anonymous":false,"inputs":[{"indexed":true,"internalType":"uint256","name":"carId","type":"uint256"},{"indexed":true,"internalType":"address","name":"seller","type":"address"},{"indexed":true,"internalType":"address","name":"buyer","type":"address"},{"indexed":false,"internalType":"uint256","name":"price","type":"uint256"}],"name":"CarSold","type":"event"},{"anonymous":false,"inputs":[{"indexed":true,"internalType":"uint256","name":"carId","type":"uint256"},{"indexed":true,"internalType":"address","name":"owner","type":"address"}],"name":"CarUpdated","type":"event"},{"anonymous":false,"inputs":[{"indexed":true,"internalType":"uint256","name":"carId","type":"uint256"},{"indexed":false,"internalType":"uint256","name":"destinationChainId","type":"uint256"},{"indexed":true,"internalType":"address","name":"newOwner","type":"address"}],"name":"CrossChainTransferCompleted","type":"event"},{"anonymous":false,"inputs":[{"indexed":true,"internalType":"uint256","name":"carId","type":"uint256"},{"indexed":false,"internalType":"uint256","name":"sourceChainId","type":"uint256"},{"indexed":false,"internalType":"uint256","name":"destinationChainId","type":"uint256"},{"indexed":true,"internalType":"address","name":"seller","type":"address"},{"indexed":true,"internalType":"address","name":"buyer","type":"address"}],"name":"CrossChainTransferInitiated","type":"event"},{"anonymous":false,"inputs":[{"indexed":true,"internalType":"address","name":"previousOwner","type":"address"},{"indexed":true,"internalType":"address","name":"newOwner","type":"address"}],"name":"OwnershipTransferred","type":"event"},{"anonymous":false,"inputs":[{"indexed":true,"internalType":"address","name":"from","type":"address"},{"indexed":true,"internalType":"address","name":"to","type":"address"},{"indexed":true,"internalType":"uint256","name":"tokenId","type":"uint256"}],"name":"Transfer","type":"event"},{"anonymous":false,"inputs":[{"indexed":true,"internalType":"uint256","name":"carId","type":"uint256"},{"indexed":true,"internalType":"address","name":"owner","type":"address"}],"name":"TransferCancelled","type":"event"},{"inputs":[],"name":"MAX_SLIPPAGE","outputs":[{"internalType":"uint256","name":"","type":"uint256"}],"stateMutability":"view","type":"function"},{"inputs":[],"name":"TRANSFER_TIMEOUT","outputs":[{"internalType":"uint256","name":"","type":"uint256"}],"stateMutability":"view","type":"function"},{"inputs":[],"name":"acrossRouter","outputs":[{"internalType":"address","name":"","type":"address"}],"stateMutability":"view","type":"function"},{"inputs":[{"internalType":"address","name":"token","type":"address"}],"name":"addSupportedToken","outputs":[],"stateMutability":"nonpayable","type":"function"},{"inputs":[{"internalType":"address","name":"to","type":"address"},{"internalType":"uint256","name":"tokenId","type":"uint256"}],"name":"approve","outputs":[],"stateMutability":"nonpayable","type":"function"},{"inputs":[{"internalType":"address","name":"owner","type":"address"}],"name":"balanceOf","outputs":[{"internalType":"uint256","name":"","type":"uint256"}],"stateMutability":"view","type":"function"},{"inputs":[{"internalType":"uint256","name":"carId","type":"uint256"}],"name":"buyCar","outputs":[],"stateMutability":"payable","type":"function"},{"inputs":[{"internalType":"uint256","name":"carId","type":"uint256"}],"name":"cancelTimedOutTransfer","outputs":[],"stateMutability":"nonpayable","type":"function"},{"inputs":[{"internalType":"uint256","name":"","type":"uint256"}],"name":"crossChainTransferPending","outputs":[{"internalType":"bool","name":"","type":"bool"}],"stateMutability":"view","type":"function"},{"inputs":[{"internalType":"uint256","name":"newCarId","type":"uint256"}],"name":"deleteCar","outputs":[],"stateMutability":"nonpayable","type":"function"},{"inputs":[{"internalType":"uint256","name":"","type":"uint256"}],"name":"destinationChainIds","outputs":[{"internalType":"uint256","name":"","type":"uint256"}],"stateMutability":"view","type":"function"},{"inputs":[],"name":"getAllCars","outputs":[{"components":[{"internalType":"uint256","name":"id","type":"uint256"},{"internalType":"address","name":"owner","type":"address"},{"internalType":"string","name":"name","type":"string"},{"internalType":"string[]","name":"images","type":"string[]"},{"internalType":"string","name":"description","type":"string"},{"internalType":"string","name":"make","type":"string"},{"internalType":"string","name":"model","type":"string"},{"internalType":"uint256","name":"year","type":"uint256"},{"internalType":"uint256","name":"vin","type":"uint256"},{"internalType":"uint256","name":"mileage","type":"uint256"},{"internalType":"string","name":"color","type":"string"},{"internalType":"enum HemDealer.CarCondition","name":"condition","type":"uint8"},{"internalType":"enum HemDealer.CarTransmission","name":"transmission","type":"uint8"},{"internalType":"enum HemDealer.FuelType","name":"fuelType","type":"uint8"},{"internalType":"uint256","name":"price","type":"uint256"},{"internalType":"string","name":"location","type":"string"},{"internalType":"string[]","name":"features","type":"string[]"},{"components":[{"internalType":"address","name":"wallet","type":"address"},{"internalType":"string","name":"sellerName","type":"string"},{"internalType":"string","name":"email","type":"string"},{"internalType":"uint256","name":"phoneNumber","type":"uint256"},{"internalType":"string","name":"profileImage","type":"string"}],"internalType":"struct HemDealer.SellerDetails","name":"seller","type":"tuple"},{"internalType":"bool","name":"sold","type":"bool"},{"internalType":"bool","name":"deleted","type":"bool"},{"internalType":"uint256","name":"destinationChainId","type":"uint256"},{"internalType":"address","name":"paymentToken","type":"address"},{"internalType":"uint256","name":"sourceChainId","type":"uint256"}],"internalType":"struct HemDealer.CarStruct[]","name":"","type":"tuple[]"}],"stateMutability":"view","type":"function"},{"inputs":[],"name":"getAllSales","outputs":[{"components":[{"internalType":"uint256","name":"id","type":"uint256"},{"internalType":"uint256","name":"newCarId","type":"uint256"},{"internalType":"uint256","name":"price","type":"uint256"},{"internalType":"address","name":"owner","type":"address"}],"internalType":"struct HemDealer.SalesStruct[]","name":"","type":"tuple[]"}],"stateMutability":"view","type":"function"},{"inputs":[{"internalType":"uint256","name":"tokenId","type":"uint256"}],"name":"getApproved","outputs":[{"internalType":"address","name":"","type":"address"}],"stateMutability":"view","type":"function"},{"inputs":[{"internalType":"uint256","name":"newCarId","type":"uint256"}],"name":"getCar","outputs":[{"components":[{"internalType":"uint256","name":"id","type":"uint256"},{"internalType":"address","name":"owner","type":"address"},{"internalType":"string","name":"name","type":"string"},{"internalType":"string[]","name":"images","type":"string[]"},{"internalType":"string","name":"description","type":"string"},{"internalType":"string","name":"make","type":"string"},{"internalType":"string","name":"model","type":"string"},{"internalType":"uint256","name":"year","type":"uint256"},{"internalType":"uint256","name":"vin","type":"uint256"},{"internalType":"uint256","name":"mileage","type":"uint256"},{"internalType":"string","name":"color","type":"string"},{"internalType":"enum HemDealer.CarCondition","name":"condition","type":"uint8"},{"internalType":"enum HemDealer.CarTransmission","name":"transmission","type":"uint8"},{"internalType":"enum HemDealer.FuelType","name":"fuelType","type":"uint8"},{"internalType":"uint256","name":"price","type":"uint256"},{"internalType":"string","name":"location","type":"string"},{"internalType":"string[]","name":"features","type":"string[]"},{"components":[{"internalType":"address","name":"wallet","type":"address"},{"internalType":"string","name":"sellerName","type":"string"},{"internalType":"string","name":"email","type":"string"},{"internalType":"uint256","name":"phoneNumber","type":"uint256"},{"internalType":"string","name":"profileImage","type":"string"}],"internalType":"struct HemDealer.SellerDetails","name":"seller","type":"tuple"},{"internalType":"bool","name":"sold","type":"bool"},{"internalType":"bool","name":"deleted","type":"bool"},{"internalType":"uint256","name":"destinationChainId","type":"uint256"},{"internalType":"address","name":"paymentToken","type":"address"},{"internalType":"uint256","name":"sourceChainId","type":"uint256"}],"internalType":"struct HemDealer.CarStruct","name":"","type":"tuple"}],"stateMutability":"view","type":"function"},{"inputs":[],"name":"getMyCars","outputs":[{"components":[{"internalType":"uint256","name":"id","type":"uint256"},{"internalType":"address","name":"owner","type":"address"},{"internalType":"string","name":"name","type":"string"},{"internalType":"string[]","name":"images","type":"string[]"},{"internalType":"string","name":"description","type":"string"},{"internalType":"string","name":"make","type":"string"},{"internalType":"string","name":"model","type":"string"},{"internalType":"uint256","name":"year","type":"uint256"},{"internalType":"uint256","name":"vin","type":"uint256"},{"internalType":"uint256","name":"mileage","type":"uint256"},{"internalType":"string","name":"color","type":"string"},{"internalType":"enum HemDealer.CarCondition","name":"condition","type":"uint8"},{"internalType":"enum HemDealer.CarTransmission","name":"transmission","type":"uint8"},{"internalType":"enum HemDealer.FuelType","name":"fuelType","type":"uint8"},{"internalType":"uint256","name":"price","type":"uint256"},{"internalType":"string","name":"location","type":"string"},{"internalType":"string[]","name":"features","type":"string[]"},{"components":[{"internalType":"address","name":"wallet","type":"address"},{"internalType":"string","name":"sellerName","type":"string"},{"internalType":"string","name":"email","type":"string"},{"internalType":"uint256","name":"phoneNumber","type":"uint256"},{"internalType":"string","name":"profileImage","type":"string"}],"internalType":"struct HemDealer.SellerDetails","name":"seller","type":"tuple"},{"internalType":"bool","name":"sold","type":"bool"},{"internalType":"bool","name":"deleted","type":"bool"},{"internalType":"uint256","name":"destinationChainId","type":"uint256"},{"internalType":"address","name":"paymentToken","type":"address"},{"internalType":"uint256","name":"sourceChainId","type":"uint256"}],"internalType":"struct HemDealer.CarStruct[]","name":"","type":"tuple[]"}],"stateMutability":"view","type":"function"},{"inputs":[{"internalType":"uint256","name":"carId","type":"uint256"},{"internalType":"uint256","name":"targetChainId","type":"uint256"}],"name":"initiateCrossChainTransfer","outputs":[],"stateMutability":"nonpayable","type":"function"},{"inputs":[{"internalType":"address","name":"owner","type":"address"},{"internalType":"address","name":"operator","type":"address"}],"name":"isApprovedForAll","outputs":[{"internalType":"bool","name":"","type":"bool"}],"stateMutability":"view","type":"function"},{"inputs":[{"components":[{"internalType":"string","name":"name","type":"string"},{"internalType":"string[]","name":"images","type":"string[]"},{"internalType":"string","name":"description","type":"string"},{"internalType":"string","name":"make","type":"string"},{"internalType":"string","name":"model","type":"string"},{"internalType":"uint256","name":"year","type":"uint256"},{"internalType":"uint256","name":"vin","type":"uint256"}],"internalType":"struct HemDealer.CarBasicDetails","name":"basicDetails","type":"tuple"},{"components":[{"internalType":"uint256","name":"mileage","type":"uint256"},{"internalType":"string","name":"color","type":"string"},{"internalType":"enum HemDealer.CarCondition","name":"condition","type":"uint8"},{"internalType":"enum HemDealer.CarTransmission","name":"transmission","type":"uint8"},{"internalType":"enum HemDealer.FuelType","name":"fuelType","type":"uint8"},{"internalType":"uint256","name":"price","type":"uint256"}],"internalType":"struct HemDealer.CarTechnicalDetails","name":"technicalDetails","type":"tuple"},{"components":[{"internalType":"string","name":"location","type":"string"},{"internalType":"string","name":"carHistory","type":"string"},{"internalType":"string[]","name":"features","type":"string[]"}],"internalType":"struct HemDealer.CarAdditionalInfo","name":"additionalInfo","type":"tuple"},{"components":[{"internalType":"address","name":"wallet","type":"address"},{"internalType":"string","name":"sellerName","type":"string"},{"internalType":"string","name":"email","type":"string"},{"internalType":"uint256","name":"phoneNumber","type":"uint256"},{"internalType":"string","name":"profileImage","type":"string"}],"internalType":"struct HemDealer.SellerDetails","name":"sellerDetails","type":"tuple"},{"internalType":"uint256","name":"destinationChainId","type":"uint256"},{"internalType":"address","name":"paymentToken","type":"address"}],"name":"listCar","outputs":[],"stateMutability":"nonpayable","type":"function"},{"inputs":[],"name":"name","outputs":[{"internalType":"string","name":"","type":"string"}],"stateMutability":"view","type":"function"},{"inputs":[],"name":"owner","outputs":[{"internalType":"address","name":"","type":"address"}],"stateMutability":"view","type":"function"},{"inputs":[{"internalType":"uint256","name":"tokenId","type":"uint256"}],"name":"ownerOf","outputs":[{"internalType":"address","name":"","type":"address"}],"stateMutability":"view","type":"function"},{"inputs":[{"internalType":"bytes32","name":"","type":"bytes32"}],"name":"processedMessages","outputs":[{"internalType":"bool","name":"","type":"bool"}],"stateMutability":"view","type":"function"},{"inputs":[{"internalType":"bytes","name":"message","type":"bytes"},{"internalType":"uint256","name":"sourceChainId","type":"uint256"}],"name":"receiveCrossChainTransfer","outputs":[],"stateMutability":"nonpayable","type":"function"},{"inputs":[{"internalType":"address","name":"token","type":"address"}],"name":"removeSupportedToken","outputs":[],"stateMutability":"nonpayable","type":"function"},{"inputs":[],"name":"renounceOwnership","outputs":[],"stateMutability":"nonpayable","type":"function"},{"inputs":[{"internalType":"address","name":"from","type":"address"},{"internalType":"address","name":"to","type":"address"},{"internalType":"uint256","name":"tokenId","type":"uint256"}],"name":"safeTransferFrom","outputs":[],"stateMutability":"nonpayable","type":"function"},{"inputs":[{"internalType":"address","name":"from","type":"address"},{"internalType":"address","name":"to","type":"address"},{"internalType":"uint256","name":"tokenId","type":"uint256"},{"internalType":"bytes","name":"data","type":"bytes"}],"name":"safeTransferFrom","outputs":[],"stateMutability":"nonpayable","type":"function"},{"inputs":[{"internalType":"address","name":"operator","type":"address"},{"internalType":"bool","name":"approved","type":"bool"}],"name":"setApprovalForAll","outputs":[],"stateMutability":"nonpayable","type":"function"},{"inputs":[{"internalType":"uint256","name":"","type":"uint256"}],"name":"sourceChainIds","outputs":[{"internalType":"uint256","name":"","type":"uint256"}],"stateMutability":"view","type":"function"},{"inputs":[{"internalType":"address","name":"","type":"address"}],"name":"supportedTokens","outputs":[{"internalType":"bool","name":"","type":"bool"}],"stateMutability":"view","type":"function"},{"inputs":[{"internalType":"bytes4","name":"interfaceId","type":"bytes4"}],"name":"supportsInterface","outputs":[{"internalType":"bool","name":"","type":"bool"}],"stateMutability":"view","type":"function"},{"inputs":[],"name":"symbol","outputs":[{"internalType":"string","name":"","type":"string"}],"stateMutability":"view","type":"function"},{"inputs":[{"internalType":"uint256","name":"tokenId","type":"uint256"}],"name":"tokenURI","outputs":[{"internalType":"string","name":"","type":"string"}],"stateMutability":"view","type":"function"},{"inputs":[{"internalType":"address","name":"from","type":"address"},{"internalType":"address","name":"to","type":"address"},{"internalType":"uint256","name":"tokenId","type":"uint256"}],"name":"transferFrom","outputs":[],"stateMutability":"nonpayable","type":"function"},{"inputs":[{"internalType":"bytes32","name":"","type":"bytes32"}],"name":"transferHashes","outputs":[{"internalType":"uint256","name":"","type":"uint256"}],"stateMutability":"view","type":"function"},{"inputs":[{"internalType":"uint256","name":"","type":"uint256"}],"name":"transferInitiatedAt","outputs":[{"internalType":"uint256","name":"","type":"uint256"}],"stateMutability":"view","type":"function"},{"inputs":[{"internalType":"address","name":"newOwner","type":"address"}],"name":"transferOwnership","outputs":[],"stateMutability":"nonpayable","type":"function"},{"inputs":[{"internalType":"uint256","name":"newCarId","type":"uint256"},{"components":[{"internalType":"string","name":"name","type":"string"},{"internalType":"string[]","name":"images","type":"string[]"},{"internalType":"string","name":"description","type":"string"},{"internalType":"string","name":"make","type":"string"},{"internalType":"string","name":"model","type":"string"},{"internalType":"uint256","name":"year","type":"uint256"},{"internalType":"uint256","name":"vin","type":"uint256"}],"internalType":"struct HemDealer.CarBasicDetails","name":"basicDetails","type":"tuple"},{"components":[{"internalType":"uint256","name":"mileage","type":"uint256"},{"internalType":"string","name":"color","type":"string"},{"internalType":"enum HemDealer.CarCondition","name":"condition","type":"uint8"},{"internalType":"enum HemDealer.CarTransmission","name":"transmission","type":"uint8"},{"internalType":"enum HemDealer.FuelType","name":"fuelType","type":"uint8"},{"internalType":"uint256","name":"price","type":"uint256"}],"internalType":"struct HemDealer.CarTechnicalDetails","name":"technicalDetails","type":"tuple"},{"components":[{"internalType":"string","name":"location","type":"string"},{"internalType":"string","name":"carHistory","type":"string"},{"internalType":"string[]","name":"features","type":"string[]"}],"internalType":"struct HemDealer.CarAdditionalInfo","name":"additionalInfo","type":"tuple"},{"components":[{"internalType":"address","name":"wallet","type":"address"},{"internalType":"string","name":"sellerName","type":"string"},{"internalType":"string","name":"email","type":"string"},{"internalType":"uint256","name":"phoneNumber","type":"uint256"},{"internalType":"string","name":"profileImage","type":"string"}],"internalType":"struct HemDealer.SellerDetails","name":"sellerDetails","type":"tuple"}],"name":"updateCar","outputs":[],"stateMutability":"nonpayable","type":"function"}],"evm":{"bytecode":{"linkReferences":{},"object":"6080346200040157601f19906001600160401b0390601f620075e538819003828101861684018581118582101762000406578492829160405283396020938491810103126200040157516001600160a01b03808216959094909186900362000401576200006b6200041c565b60098152682432b6a232b0b632b960b91b858201526200008a6200041c565b936003948581526248444d60e81b878201526000805460018060a01b031999338b83161783553391167f8be0079c531659141344cd1fd0a4f28419497f9722a3daafe3b4186f6b6457e08380a3600193848055805190868211620003ed576002548681811c91168015620003e2575b8b821014620003ce579081868493116200037a575b508a90868311600114620003165784926200030a575b5050600019828a1b1c191690851b176002555b8151948511620002f65786548481811c91168015620002eb575b89821014620002d7578381116200028f575b50879285116001146200022e57939450849291908362000222575b50501b9160001990841b1c19161790555b3315620001eb578215620001b65750600c541617600c556040516171a890816200043d8239f35b6064906040519062461bcd60e51b82526004820152600e60248201526d24b73b30b634b2103937baba32b960911b6044820152fd5b6064906040519062461bcd60e51b82526004820152601060248201526f24b73b30b634b2103232b83637bcb2b960811b6044820152fd5b0151925038806200017e565b929484908116878552888520945b89888383106200027757505050106200025e575b505050811b0190556200018f565b015160001983861b60f8161c1916905538808062000250565b8686015188559096019594850194879350016200023c565b8782528882208480880160051c8201928b8910620002cd575b0160051c019085905b828110620002c157505062000163565b838155018590620002b1565b92508192620002a8565b634e487b7160e01b82526022600452602482fd5b90607f169062000151565b634e487b7160e01b81526041600452602490fd5b01519050388062000124565b908988941691600286528c8620928d87905b82821062000362575050841162000349575b505050811b0160025562000137565b0151600019838c1b60f8161c191690553880806200033a565b8385015186558b979095019493840193018e62000328565b909150600284528a84208680850160051c8201928d8610620003c4575b918991869594930160051c01915b828110620003b55750506200010e565b868155859450899101620003a5565b9250819262000397565b634e487b7160e01b84526022600452602484fd5b90607f1690620000f9565b634e487b7160e01b83526041600452602483fd5b600080fd5b634e487b7160e01b600052604160045260246000fd5b60408051919082016001600160401b03811183821017620004065760405256fe61022080604052600436101561001457600080fd5b60003560e01c90816301ffc9a714615cbd5750806306fdde0314615c17578063081812fc14615bf9578063095ea7b314615a7f5780630ce7fc0314615a535780630d5d841a1461446d5780632351d10f146131f557806323b872dd146131d15780633339691714613006578063341fa05d14612ef5578063402ebd7d14612c5c57806342842e0e14612c295780634f8359f114612c005780635e8be19014612b7457806360098088146129fe5780636352211e146129ce57806368c4ac261461298f5780636bfa74c3146114135780636c23106014610b185780636d69fcaf14610a9857806370a0823114610a01578063715018a6146109a8578063763191901461096657806384dfc55d1461093557806387065deb1461091757806388ba16ab146108e65780638da5cb5b146108bd57806395d89b41146107db5780639efeff1c146107af5780639f725a1d14610611578063a22cb46514610536578063abfe5d571461044a578063b88d4fde146103d4578063c87b56dd14610360578063ceb6c12f14610334578063e985e9c5146102de578063ef821fe8146102b2578063f2fde38b146101ee5763f9759518146101cd57600080fd5b346101e95760003660031901126101e957602060405160328152f35b600080fd5b346101e95760203660031901126101e957610207615d70565b61020f61629d565b6001600160a01b0390811690811561025e57600054826001600160601b0360a01b821617600055167f8be0079c531659141344cd1fd0a4f28419497f9722a3daafe3b4186f6b6457e0600080a3005b60405162461bcd60e51b815260206004820152602660248201527f4f776e61626c653a206e6577206f776e657220697320746865207a65726f206160448201526564647265737360d01b6064820152608490fd5b346101e95760203660031901126101e95760043560005260126020526020604060002054604051908152f35b346101e95760403660031901126101e9576102f7615d70565b6102ff615d86565b9060018060a01b03809116600052600760205260406000209116600052602052602060ff604060002054166040519015158152f35b346101e95760203660031901126101e95760043560005260116020526020604060002054604051908152f35b346101e95760203660031901126101e95761039a610395600435600052600460205260018060a01b0360406000205416151590565b6162f5565b60006040516103a881615dee565b526103d06040516103b881615dee565b60008152604051918291602083526020830190615d4b565b0390f35b346101e95760803660031901126101e9576103ed615d70565b6103f5615d86565b90606435906044356001600160401b0383116101e95761044893610420610443943690600401615e7c565b9261043361042e843361654b565b616472565b61043e838383616613565b61684f565b616527565b005b346101e95760003660031901126101e95760088054600060015b828111156104f6575061047690616e33565b91600160005b8382111561049257604051806103d0878261623b565b81600052600a60205260406000209160ff6014840154851c16156104c2575b6104bc919250616e24565b9061047c565b6104ed826104dc6104d66104bc9592616e24565b95616c31565b6104e6828a616e83565b5287616e83565b508291506104b1565b80600052600a60205260ff601460406000200154851c1615610521575b61051c90616e24565b610464565b9061052e61051c91616e24565b919050610513565b346101e95760403660031901126101e95761054f615d70565b60243590811515908183036101e9576001600160a01b0316913383146105cc5761059e9033600052600760205260406000208460005260205260406000209060ff801983541691151516179055565b6040519081527f17307eab39ab6107e8899845ad3d59bd9653f200f220920489ca2b5937696c3160203392a3005b60405162461bcd60e51b815260206004820152601960248201527f4552433732313a20617070726f766520746f2063616c6c6572000000000000006044820152606490fd5b346101e9576020806003193601126101e9576004359081600052600f815260ff604060002054161561077557816000526012815260406000205462015180810180911161075f57421115610722576000828152600a82526040902060010180546001600160a01b039290831633148015610715575b156106e05760109084600052600f8152604060002060ff198154169055601281526000604081205552600060408120555416907fad5d1da63a71147a146daa2d4c6cdc9ab57b00bd41306f855d0afe41c5ed2840600080a3005b6064906040519062461bcd60e51b82526004820152600e60248201526d139bdd08185d5d1a1bdc9a5e995960921b6044820152fd5b5082600054163314610686565b6064906040519062461bcd60e51b825260048201526016602482015275151c985b9cd9995c881b9bdd081d1a5b5959081bdd5d60521b6044820152fd5b634e487b7160e01b600052601160045260246000fd5b6064906040519062461bcd60e51b8252600482015260136024820152722737903832b73234b733903a3930b739b332b960691b6044820152fd5b346101e95760203660031901126101e95760043560005260106020526020604060002054604051908152f35b346101e95760003660031901126101e95760405160006003546107fd81616364565b80845290600190818116908115610896575060011461083b575b6103d08461082781860382615e09565b604051918291602083526020830190615d4b565b6003600090815292507fc2575a0e9e593c00f959f8c92f12db2869c3395a3b0502d05e2516446f71f85b5b82841061087e57505050810160200161082782610817565b80546020858701810191909152909301928101610866565b60ff191660208087019190915292151560051b850190920192506108279150839050610817565b346101e95760003660031901126101e9576000546040516001600160a01b039091168152602090f35b346101e95760203660031901126101e9576004356000526013602052602060ff604060002054166040519015158152f35b346101e95760003660031901126101e9576020604051620151808152f35b346101e95760203660031901126101e957600435600052600f602052602060ff604060002054166040519015158152f35b346101e95760203660031901126101e95761097f615d70565b61098761629d565b6001600160a01b03166000908152600d60205260409020805460ff19169055005b346101e95760003660031901126101e9576109c161629d565b600080546001600160a01b0319811682556001600160a01b03167f8be0079c531659141344cd1fd0a4f28419497f9722a3daafe3b4186f6b6457e08280a3005b346101e95760203660031901126101e9576001600160a01b03610a22615d70565b168015610a415760005260056020526020604060002054604051908152f35b60405162461bcd60e51b815260206004820152602960248201527f4552433732313a2061646472657373207a65726f206973206e6f7420612076616044820152683634b21037bbb732b960b91b6064820152608490fd5b346101e95760203660031901126101e957610ab1615d70565b610ab961629d565b6001600160a01b03168015610ae3576000908152600d60205260409020805460ff19166001179055005b60405162461bcd60e51b815260206004820152600d60248201526c24b73b30b634b2103a37b5b2b760991b6044820152606490fd5b60203660031901126101e957610b2c616997565b6004356000908152600a6020526040902060010154610b55906001600160a01b03161515616b41565b600435600052600a602052610b7860ff60146040600020015460081c1615616b82565b600435600052600a602052604060002060ff60148201541615806113fc575b156113c45760168101546001600160a01b0316806111395750600c81015480340361110057600080612710610bce610c3394616980565b600c54600f8701546015880154604051630efe6a8b60e01b602082019081526001600160a01b03938416602483015260448201929092529490930460648086019190915284521691610c1f81615db8565b519134905af1610c2d616724565b50616ec9565b60158101805446146110b85754600435600052600a60205260018060a01b0360016040600020015416331480156110a4575b610c6e90616a39565b600435600052600f60205260ff6040600020541661105f5746811461101a57600435600052600a602052604060002060018101805491600080600c830154948682610e19610e25600f880199610dcf8b549960136012820154918c6040518b602082019260043584526001600160601b0319809260601b16604084015246605484015288607484015260601b166094820152610d40602082610d3282610d26610d1d60a8850160108b016170ae565b60118a016170ae565b8a8152018888016170ae565b428152038084520182615e09565b5190209c8d956040519b8c976020890152600435604089015260018060a01b0316606088015246608088015260a087015260c08087015260018060a01b031660e086015260a0610100860152610d9d61018086016010830161639e565b610db860df199182888203016101208901526011840161639e565b93610140870152858403016101608601520161639e565b03610de2601f1991828101885287615e09565b60018060a01b03600c541695604051938491602083019763e289adcd60e01b89526024840152604060448401526064830190615d4b565b03908101835282615e09565b51925af1610e31616724565b5015610fd557600435600052600f6020526040600020600160ff19825416179055601260205242604060002055601060205246604060002055600052601160205260043560406000205560018060a01b039054169060018060a01b03905416916040519046825260208201527f1e5ef349341852f5f199e2bce07397e4d55c83226632236095641c8af9af549f604060043592a45b6001600954019081600955600435600052600b6020526040600020600c820192835460405191610ef583615dd3565b8252602082019060043582526040830190815260608301933385528054600160401b811015610fbf57610f2d91600182018155616ead565b929092610fa957600393518355516001830155516002820155019060018060a01b039051166001600160601b0360a01b825416179055600f60018060a01b039101541690549060405191825233917f8205a71867f7292bcef9e53d4774758d6173b03f63017dec9a03a6664b429dc5602060043592a460018055005b634e487b7160e01b600052600060045260246000fd5b634e487b7160e01b600052604160045260246000fd5b60405162461bcd60e51b815260206004820152601b60248201527f4661696c656420746f20696e697469617465207472616e7366657200000000006044820152606490fd5b60405162461bcd60e51b815260206004820152601f60248201527f53616d6520636861696e207472616e73666572206e6f7420616c6c6f776564006044820152606490fd5b60405162461bcd60e51b815260206004820152601860248201527f5472616e7366657220616c72656164792070656e64696e6700000000000000006044820152606490fd5b506000546001600160a01b03163314610c65565b5060148101805460ff19166001908117909155810180546001600160a01b03191633908117909155600f8201546110fb91600435916001600160a01b0316616613565b610ec6565b60405162461bcd60e51b8152602060048201526011602482015270125b98dbdc9c9958dd081c185e5b595b9d607a1b6044820152606490fd5b3461138c57600c8201549061118a61271061115384616980565b0492604051906323b872dd60e01b602083015233602483015230604483015260648201526064815261118481615db8565b82616f0e565b600c805490840154906001600160a01b031681158015611314575b156112b0576111d6916040519163095ea7b360e01b6020840152602483015260448201526044815261118481615dd3565b600c80546016850154600f86015492860154601587015460405163201bd06f60e11b60208201526001600160a01b03938416602482015294831660448601526064850191909152608484015260a4808401959095529382529092166001600160401b0360e0840190811190841117610fbf576000808461126c9360e06112ab970160405282602083519301915af1610c2d616724565b600c5460405163095ea7b360e01b60208201526001600160a01b03909116602482015260006044808301919091528152906112a682615dd3565b616f0e565b610c33565b60405162461bcd60e51b815260206004820152603660248201527f5361666545524332303a20617070726f76652066726f6d206e6f6e2d7a65726f60448201527520746f206e6f6e2d7a65726f20616c6c6f77616e636560501b6064820152608490fd5b50604051636eb1769f60e11b815230600482015260248101829052602081604481875afa9081156113805760009161134e575b50156111a5565b90506020813d602011611378575b8161136960209383615e09565b810103126101e9575186611347565b3d915061135c565b6040513d6000823e3d90fd5b60405162461bcd60e51b815260206004820152601060248201526f115512081b9bdd081858d8d95c1d195960821b6044820152606490fd5b60405162461bcd60e51b815260206004820152601060248201526f496e76616c696420707572636861736560801b6044820152606490fd5b5060018101546001600160a01b0316331415610b97565b346101e95760031960c0368201126101e9576001600160401b03600435116101e95760e081600435360301126101e9576001600160401b03602435116101e95760c081602435360301126101e9576001600160401b03604435116101e957606081604435360301126101e95760643590816101a0526001600160401b0382116101e95760a091360301126101e95760a4356101408190526001600160a01b038116036101e9576114c1616997565b610140516001600160a01b03166000908152600d602052604090205460ff161561294a576101a0516004016001600160a01b036114fd826168ca565b163314908161292e575b50156128f85760a46024350135156128c35761152d6024600435016004356004016168de565b905015612892576301e1338042046107b281011061075f576107b26301e1338042040160a460043501351161285e57633b9aca00602435600401351015612827576008805460010190819055611587600480350180616913565b6101e05261159f6024600435016004356004016168de565b6115b6604460049493943501600435600401616913565b906115cb606460043501600435600401616913565b906115e0608460043501600435600401616913565b9190926115f66024803501602435600401616913565b95909660036044602435013510156101e95760026064602435013510156101e95760046084602435013510156101e9578b9a61163760046044350180616913565b9a909b60443560440160443560040190611650916168de565b9e9061010052604051806101205261166790615d9c565b6101205152336101205160200152366101e05161168392615e45565b6101205160400152369061169692615eb1565b610120516060015236906116a992615e45565b610120516080015236906116bc92615e45565b6101205160a0015236906116cf92615e45565b6101205160c0015260043560a401356101205160e0015260043560c4013561012051610100015260243560040135610120516101200152369061171192615e45565b6101205161014001526024356044013561012051610160019061173391616945565b6024356064013561012051610180019061174c91616951565b60243560840135610120516101a001906117659161695d565b60243560a40135610120516101c00152369061178092615e45565b610120516101e0015236610100519161179892615eb1565b610120516102000152366101a051600401906117b391615f3b565b610120516102200152610120516102400160009052610120516102600160009052608435610120516102800152600160a01b600190036101405116610120516102a00152610120516102c0016000905280600052600a60205260406000206101205180518255600160a01b600190036020820151166001600160601b0360a01b600184015416176001830155604001519182516001600160401b038111610fbf576118616002840154616364565b601f81116127f2575b506020601f82116001146127845781929394600092612779575b50508160011b916000199060031b1c19161760028301555b6060610120510151805190600160401b8211610fbf576003840154826003860155808310612701575b5060200190600384016000526020600020916000905b8282106125e157858560806101205101519182516001600160401b038111610fbf5761190a6004830154616364565b601f81116125ac575b506020601f821160011461253e5781929394600092612533575b50508160011b916000199060031b1c19161760048201555b60a06101205101519182516001600160401b038111610fbf5761196b6005840154616364565b601f81116124fe575b506020601f82116001146124905781929394600092612485575b50508160011b916000199060031b1c19161760058301555b60c06101205101519182516001600160401b038111610fbf576119cc6006830154616364565b601f8111612450575b506020601f82116001146123e257819293946000926123d7575b50508160011b916000199060031b1c19161760068201555b6101406101205160e081015160078401556101008101516008840155610120810151600984015501519182516001600160401b038111610fbf57611a4e600a840154616364565b601f81116123a2575b506020601f82116001146123345781929394600092612329575b50508160011b916000199060031b1c191617600a8301555b6101205161016081015190600382101561231357600b840154916101808201516002811015612313576101a08301516004811015612313576101e09460ff62ff000061ff009360101b1694169062ffffff1916179160081b161717600b8501556101c0810151600c85015501519182516001600160401b038111610fbf57611b14600d830154616364565b601f81116122de575b506020601f82116001146122705781929394600092612265575b50508160011b916000199060031b1c191617600d8201555b610200610120510151805190600160401b8211610fbf57600e83015482600e8501558083106121ed575b5060200190600e83016000526020600020916000905b8282106120d8578585600f8101906102206101205101519160018060a01b038351166001600160601b0360a01b82541617905560208201519283516001600160401b038111610fbf57611be56010840154616364565b601f81116120a3575b506020601f8211600114612034578192939495600092612029575b50508160011b916000199060031b1c19161760108301555b60408301519283516001600160401b038111610fbf57611c446011850154616364565b601f8111611ff4575b506020601f8211600114611f815781906080949596600092611f76575b50508160011b916000199060031b1c19161760118501555b6060810151601285015501519182516001600160401b038111610fbf57611cac6013830154616364565b601f8111611f36575b506020601f8211600114611ec85781929394600092611ebd575b50508160011b916000199060031b1c19161760138201555b60176102c060148301611d316101205191611d156102408401511515829060ff801983541691151516179055565b610260830151815461ff00191690151560081b61ff0016179055565b61028081015160158501556016840160018060a01b036102a0830151166001600160601b0360a01b825416179055015191015580600052600e602052608435604060002055604051611d8281615dee565b600081523315611e7957600082815260046020526040902054611e409161044391611db9906001600160a01b031615155b156169ed565b600084815260046020526040902054611ddc906001600160a01b03161515611db3565b3360005260056020526040600020600181540190558360005260046020526040600020336001600160601b0360a01b825416179055833360007fddf252ad1be2c89b69c2b068fc378daa952ba7f163c4a11628f55a4df523b3ef8180a48333616754565b6040519060a4602435013582527f346237025e4b201cfbdb8011c7afcd8a0cc16c50e910d6ac5645ab7406be429d60203393a360018055005b606460405162461bcd60e51b815260206004820152602060248201527f4552433732313a206d696e7420746f20746865207a65726f20616464726573736044820152fd5b015190508480611ccf565b6013830160005260206000209060005b601f1984168110611f1e5750600193949583601f19811610611f05575b505050811b016013820155611ce7565b015160001960f88460031b161c19169055848080611ef5565b9091602060018192858a015181550193019101611ed8565b611f6690601384016000526020600020601f840160051c81019160208510611f6c575b601f0160051c0190616969565b84611cb5565b9091508190611f59565b015190508680611c6a565b6011850160005260206000209560005b601f1984168110611fdc57509582916080959697600194601f19811610611fc3575b505050811b016011850155611c82565b015160001960f88460031b161c19169055868080611fb3565b82820151885560019097019660209283019201611f91565b61202390601186016000526020600020601f840160051c81019160208510611f6c57601f0160051c0190616969565b85611c4d565b015190508580611c09565b6010840160005260206000209060005b601f198416811061208b575060019394959683601f19811610612072575b505050811b016010830155611c21565b015160001960f88460031b161c19169055858080612062565b9091602060018192858b015181550193019101612044565b6120d290601085016000526020600020601f840160051c81019160208510611f6c57601f0160051c0190616969565b85611bee565b80518051906001600160401b038211610fbf576120f58654616364565b601f81116121bb575b50602090601f831160011461214b579282600194936020938695600092612140575b5050600019600383901b1c191690841b1787555b01940191019092611b8f565b015190508b80612120565b908660005260206000209160005b601f19851681106121a3575083602093600196938796938794601f1981161061218a575b505050811b018755612134565b015160001960f88460031b161c191690558b808061217d565b91926020600181928685015181550194019201612159565b6121e790876000526020600020601f850160051c81019160208610611f6c57601f0160051c0190616969565b886120fe565b600e84016000526020600020908382015b818301811061220e575050611b79565b8061221b60019254616364565b80612228575b50016121fe565b601f8111831461223e5750600081555b88612221565b60009082825261225c601f60208420920160051c8201858301616969565b81835555612238565b015190508480611b37565b600d830160005260206000209060005b601f19841681106122c65750600193949583601f198116106122ad575b505050811b01600d820155611b4f565b015160001960f88460031b161c1916905584808061229d565b9091602060018192858a015181550193019101612280565b61230d90600d84016000526020600020601f840160051c81019160208510611f6c57601f0160051c0190616969565b84611b1d565b634e487b7160e01b600052602160045260246000fd5b015190508480611a71565b600a840160005260206000209060005b601f198416811061238a5750600193949583601f19811610612371575b505050811b01600a830155611a89565b015160001960f88460031b161c19169055848080612361565b9091602060018192858a015181550193019101612344565b6123d190600a85016000526020600020601f840160051c81019160208510611f6c57601f0160051c0190616969565b84611a57565b0151905084806119ef565b6006830160005260206000209060005b601f19841681106124385750600193949583601f1981161061241f575b505050811b016006820155611a07565b015160001960f88460031b161c1916905584808061240f565b9091602060018192858a0151815501930191016123f2565b61247f90600684016000526020600020601f840160051c81019160208510611f6c57601f0160051c0190616969565b846119d5565b01519050848061198e565b6005840160005260206000209060005b601f19841681106124e65750600193949583601f198116106124cd575b505050811b0160058301556119a6565b015160001960f88460031b161c191690558480806124bd565b9091602060018192858a0151815501930191016124a0565b61252d90600585016000526020600020601f840160051c81019160208510611f6c57601f0160051c0190616969565b84611974565b01519050848061192d565b6004830160005260206000209060005b601f19841681106125945750600193949583601f1981161061257b575b505050811b016004820155611945565b015160001960f88460031b161c1916905584808061256b565b9091602060018192858a01518155019301910161254e565b6125db90600484016000526020600020601f840160051c81019160208510611f6c57601f0160051c0190616969565b84611913565b80518051906001600160401b038211610fbf576125fe8654616364565b601f81116126c4575b50602090601f8311600114612654579282600194936020938695600092612649575b5050600019600383901b1c191690841b1787555b019401910190926118db565b015190508b80612629565b908660005260206000209160005b601f19851681106126ac575083602093600196938796938794601f19811610612693575b505050811b01875561263d565b015160001960f88460031b161c191690558b8080612686565b91926020600181928685015181550194019201612662565b6126f1908760005260206000206005601f8601811c820192602087106126f7575b601f01901c0190616969565b88612607565b91925082916126e5565b600385016000526020600020908382015b81830181106127225750506118c5565b8061272f60019254616364565b8061273c575b5001612712565b601f811183146127525750600081555b88612735565b600090828252612770601f60208420920160051c8201858301616969565b8183555561274c565b015190508480611884565b6002840160005260206000209060005b601f19841681106127da5750600193949583601f198116106127c1575b505050811b01600283015561189c565b015160001960f88460031b161c191690558480806127b1565b9091602060018192858a015181550193019101612794565b61282190600285016000526020600020601f840160051c81019160208510611f6c57601f0160051c0190616969565b8461186a565b60405162461bcd60e51b815260206004820152600f60248201526e496e76616c6964206d696c6561676560881b6044820152606490fd5b60405162461bcd60e51b815260206004820152600c60248201526b24b73b30b634b2103cb2b0b960a11b6044820152606490fd5b60405162461bcd60e51b81526020600482015260096024820152684e6f20696d6167657360b81b6044820152606490fd5b60405162461bcd60e51b815260206004820152600d60248201526c496e76616c696420707269636560981b6044820152606490fd5b60405162461bcd60e51b815260206004820152600e60248201526d24b73b30b634b21039b2b63632b960911b6044820152606490fd5b6001600160a01b039150612941906168ca565b16151581611507565b60405162461bcd60e51b815260206004820152601960248201527f556e737570706f72746564207061796d656e7420746f6b656e000000000000006044820152606490fd5b346101e95760203660031901126101e9576001600160a01b036129b0615d70565b16600052600d602052602060ff604060002054166040519015158152f35b346101e95760203660031901126101e95760206129ec600435616341565b6040516001600160a01b039091168152f35b346101e9576020806003193601126101e95760043590612a1c616997565b6000828152600a825260409020600101546001600160a01b0390811633148015612b67575b612a4a90616a39565b82600052600a825260ff60146040600020015460081c16612b2c578291600091838352600a82526014604084200161010061ff0019825416179055612a8e84616341565b506004612a9a85616341565b918585526006845260408520926001600160601b0360a01b93848154169055169283855260058152604085208519815401905585855252604083209081541690557fddf252ad1be2c89b69c2b068fc378daa952ba7f163c4a11628f55a4df523b3ef8280a433907f975848b3b721e792b1afe72032f4fa971d1faeb9bfd806ccf1ffada5bac8bafe600080a360018055005b60405162461bcd60e51b815260048101839052601360248201527210d85c88185b1c9958591e4819195b195d1959606a1b6044820152606490fd5b5060005481163314612a41565b346101e9576020806003193601126101e957600435612b91616a74565b506000818152600a83526040902060010154612bb7906001600160a01b03161515616b41565b80600052600a8252612bd760ff60146040600020015460081c1615616b82565b600052600a8152612beb6040600020616c31565b906103d0604051928284938452830190616062565b346101e95760003660031901126101e957600c546040516001600160a01b039091168152602090f35b346101e957610448610443612c3d36615fd8565b9060405192612c4b84615dee565b6000845261043361042e843361654b565b346101e95760403660031901126101e957600435600052600a60205260018060a01b036001604060002001541633148015612ee1575b612c9b90616a39565b600435600052600f60205260ff6040600020541661105f57466024351461101a57600435600052600a60205260406000206001810154600080600c840154600f85015493612de36012870154604051602081019060043582526001600160601b0319808660601b1660408301524660548301528660748301528960601b166094820152612d52602082610d328d601384612d47612d3e60a88701601086016170ae565b601185016170ae565b8a81520191016170ae565b51902096604051948594896020870152600435604087015260018060a01b0316606086015246608086015260a085015260c08085015260018060a01b031660e084015260a0610100840152612dae610180840160108a0161639e565b612dc960df1991828682030161012087015260118b0161639e565b91610140850152838203016101608401526013880161639e565b0390612df7601f1992838101835282615e09565b8260018060a01b03600c541692612e376040519182610e19602082019663e289adcd60e01b88526024356024840152604060448401526064830190615d4b565b51925af1612e43616724565b5015610fd557600435600052600f6020526040600020600160ff19825416179055601260205242604060002055601060205246604060002055600052601160205260043560406000205560018060a01b0360018201541690600f60018060a01b03910154169060405146815260243560208201527f1e5ef349341852f5f199e2bce07397e4d55c83226632236095641c8af9af549f604060043592a4005b506000546001600160a01b03163314612c92565b346101e95760003660031901126101e95760088054600060015b82811115612fa65750612f2190616e33565b91600160005b83821115612f3d57604051806103d0878261623b565b81600052600a60205260406000209160ff6014840154851c161580612f90575b612f73575b612f6d919250616e24565b90612f27565b612f87826104dc6104d6612f6d9592616e24565b50829150612f62565b5060018301546001600160a01b03163314612f5d565b80600052600a602052604060002060ff6014820154861c16159081612fef575b50612fda575b612fd590616e24565b612f0f565b90612fe7612fd591616e24565b919050612fcc565b600101546001600160a01b03163314905085612fc6565b346101e95760003660031901126101e95760006001600854905b818111156131a9575061303282615e9a565b916130406040519384615e09565b80835261304f601f1991615e9a565b0160005b81811061317657505060006001905b828211156130cf5760408051602080825286518183018190528188019383019160005b8281106130925784840385f35b8551805185528083015185840152604080820151908601526060908101516001600160a01b03169085015294810194608090930192600101613085565b600093919293905b836000526020600b81526040600020805484101561315f5791613153916131018561315995616ead565b506040519161310f83615dd3565b8154835260018201549083015260028101546040830152600301546001600160a01b031660608201526131428287616e83565b5261314d8186616e83565b50616e24565b91616e24565b906130d7565b50509261316f9150939193616e24565b9091613062565b60209060405161318581615dd3565b60008152826000818301526000604083015260006060830152828701015201613053565b9182600052600b602052604060002054810180911161075f576131cc9092616e24565b613020565b346101e9576104486131e236615fd8565b916131f061042e843361654b565b616613565b346101e95760403660031901126101e9576004356001600160401b0381116101e957613225903690600401615e7c565b600c546001600160a01b031633036144315780518101906020820160c0828403126101e95760208201516040830151606084015194909390916001600160a01b03861686036101e95760808201519260a08301519260c08101516001600160401b0381116101e95760a09101809203126101e957604051946132a686615db8565b60208201516001600160a01b03811681036101e957865260408201516001600160401b0381116101e9578160206132df92850101617130565b602087015260608201516001600160401b0381116101e95781602061330692850101617130565b60408701526080820151606087015260a0820151916001600160401b0383116101e9576133369201602001617130565b608085015280600052601360205260ff604060002054166143ec576000526013602052604060002060ff1981541660011790556008546001019384600855600052600a6020526040600020926007840154936008810154926009820154600b83015490600160a01b6001900360168501541695604051986133b68a615d9c565b8a8a526001600160a01b038c1660208b0152604051806133d98160028a0161639e565b036133e49082615e09565b60408b01526133f560038701616bc5565b60608b01526040518061340b8160048a0161639e565b036134169082615e09565b60808b01526040518061342c8160058a0161639e565b036134379082615e09565b60a08b01526040518061344d8160068a0161639e565b036134589082615e09565b60c08b015260e08a01526101008901526101208801526040518061347f81600a870161639e565b0361348a9082615e09565b6101408801526134a160ff82166101608901616945565b6134b660ff600883901c166101808901616951565b60101c60ff166101a08701906134cb9161695d565b6101c0860152604051806134e281600d850161639e565b036134ed9082615e09565b6101e0860152600e016134ff90616bc5565b610200850152610220840152610240830160009052610260830160009052466102808401526102a08301526102c082015281600052600a60205260406000209080518255600160a01b600190036020820151166001600160601b0360a01b60018401541617600183015560408101518051906001600160401b038211610fbf57819061358e6002860154616364565b601f81116143b7575b50602090601f83116001146143455760009261433a575b50508160011b916000199060031b1c19161760028301555b6060810151805190600160401b8211610fbf5760038401548260038601558083106142c2575b5060200190600384016000526020600020916000905b8282106141ad575050505060808101518051906001600160401b038211610fbf5781906136326004860154616364565b601f8111614178575b50602090601f8311600114614106576000926140fb575b50508160011b916000199060031b1c19161760048301555b60a08101518051906001600160401b038211610fbf57819061368f6005860154616364565b601f81116140c6575b50602090601f831160011461405457600092614049575b50508160011b916000199060031b1c19161760058301555b60c08101518051906001600160401b038211610fbf5781906136ec6006860154616364565b601f8111614014575b50602090601f8311600114613fa257600092613f97575b50508160011b916000199060031b1c19161760068301555b60e08101516007830155610100810151600883015561012081015160098301556101408101518051906001600160401b038211610fbf57819061376a600a860154616364565b601f8111613f62575b50602090601f8311600114613ef057600092613ee5575b50508160011b916000199060031b1c191617600a8301555b610160810151600381101561231357600b830154610180830151906002821015612313576101a08401519060048210156123135760ff62ff000061ff009360101b1694169062ffffff1916179160081b161717600b8301556101c0810151600c8301556101e08101518051906001600160401b038211610fbf57819061382b600d860154616364565b601f8111613eb0575b50602090601f8311600114613e3e57600092613e33575b50508160011b916000199060031b1c191617600d8301555b610200810151805190600160401b8211610fbf57600e84015482600e860155808310613dbb575b5060200190600e84016000526020600020916000905b828210613ca657505050506102208101518051600f840180546001600160a01b0319166001600160a01b039290921691909117905560208101518051906001600160401b038211610fbf5781906138fa6010870154616364565b601f8111613c71575b50602090601f8311600114613bff57600092613bf4575b50508160011b916000199060031b1c19161760108401555b60408101518051906001600160401b038211610fbf576139556011860154616364565b601f8111613bbf575b50602090601f8311600114613b4c57608093929160009183613b41575b50508160011b916000199060031b1c19161760118501555b6060810151601285015501518051906001600160401b038211610fbf576139bd6013850154616364565b601f8111613b0c575b50602090601f8311600114613a96579180601794926102c094600092613a8b575b50508160011b916000199060031b1c19161760138501555b613a2360148501611d156102408401511515829060ff801983541691151516179055565b61028081015160158501556102a08101516016850180546001600160a01b0319166001600160a01b0392831617905591015191909201556040514681529216917f17a35fad4f245f65a33dfc21a8118014a34e233321c287ab88ff612f9e1147f890602090a3005b0151905088806139e7565b906013850160005260206000209160005b601f1985168110613af4575092601794926001926102c09583601f19811610613adb575b505050811b0160138501556139ff565b015160001960f88460031b161c19169055888080613acb565b91926020600181928685015181550194019201613aa7565b613b3b90601386016000526020600020601f850160051c81019160208610611f6c57601f0160051c0190616969565b866139c6565b01519050888061397b565b906011860160005260206000209160005b601f1985168110613ba7575091839160019360809695601f19811610613b8e575b505050811b016011850155613993565b015160001960f88460031b161c19169055888080613b7e565b91926020600181928685015181550194019201613b5d565b613bee90601187016000526020600020601f850160051c81019160208610611f6c57601f0160051c0190616969565b8761395e565b01519050878061391a565b9250601086016000526020600020906000935b601f1984168510613c56576001945083601f19811610613c3d575b505050811b016010840155613932565b015160001960f88460031b161c19169055878080613c2d565b81810151835560209485019460019093019290910190613c12565b613ca090601088016000526020600020601f850160051c81019160208610611f6c57601f0160051c0190616969565b88613903565b80518051906001600160401b038211610fbf57613cc38654616364565b601f8111613d89575b50602090601f8311600114613d19579282600194936020938695600092613d0e575b5050600019600383901b1c191690841b1787555b019401910190926138a0565b015190508d80613cee565b908660005260206000209160005b601f1985168110613d71575083602093600196938796938794601f19811610613d58575b505050811b018755613d02565b015160001960f88460031b161c191690558d8080613d4b565b91926020600181928685015181550194019201613d27565b613db590876000526020600020601f850160051c81019160208610611f6c57601f0160051c0190616969565b8a613ccc565b600e85016000526020600020908382015b8183018110613ddc57505061388a565b80613de960019254616364565b80613df6575b5001613dcc565b601f81118314613e0c5750600081555b8a613def565b600090828252613e2a601f60208420920160051c8201858301616969565b81835555613e06565b01519050868061384b565b9250600d85016000526020600020906000935b601f1984168510613e95576001945083601f19811610613e7c575b505050811b01600d830155613863565b015160001960f88460031b161c19169055868080613e6c565b81810151835560209485019460019093019290910190613e51565b613edf90600d87016000526020600020601f850160051c81019160208610611f6c57601f0160051c0190616969565b87613834565b01519050868061378a565b9250600a85016000526020600020906000935b601f1984168510613f47576001945083601f19811610613f2e575b505050811b01600a8301556137a2565b015160001960f88460031b161c19169055868080613f1e565b81810151835560209485019460019093019290910190613f03565b613f9190600a87016000526020600020601f850160051c81019160208610611f6c57601f0160051c0190616969565b87613773565b01519050868061370c565b9250600685016000526020600020906000935b601f1984168510613ff9576001945083601f19811610613fe0575b505050811b016006830155613724565b015160001960f88460031b161c19169055868080613fd0565b81810151835560209485019460019093019290910190613fb5565b61404390600687016000526020600020601f850160051c81019160208610611f6c57601f0160051c0190616969565b876136f5565b0151905086806136af565b9250600585016000526020600020906000935b601f19841685106140ab576001945083601f19811610614092575b505050811b0160058301556136c7565b015160001960f88460031b161c19169055868080614082565b81810151835560209485019460019093019290910190614067565b6140f590600587016000526020600020601f850160051c81019160208610611f6c57601f0160051c0190616969565b87613698565b015190508680613652565b9250600485016000526020600020906000935b601f198416851061415d576001945083601f19811610614144575b505050811b01600483015561366a565b015160001960f88460031b161c19169055868080614134565b81810151835560209485019460019093019290910190614119565b6141a790600487016000526020600020601f850160051c81019160208610611f6c57601f0160051c0190616969565b8761363b565b80518051906001600160401b038211610fbf576141ca8654616364565b601f8111614290575b50602090601f8311600114614220579282600194936020938695600092614215575b5050600019600383901b1c191690841b1787555b01940191019092613602565b015190508d806141f5565b908660005260206000209160005b601f1985168110614278575083602093600196938796938794601f1981161061425f575b505050811b018755614209565b015160001960f88460031b161c191690558d8080614252565b9192602060018192868501518155019401920161422e565b6142bc90876000526020600020601f850160051c81019160208610611f6c57601f0160051c0190616969565b8a6141d3565b600385016000526020600020908382015b81830181106142e35750506135ec565b806142f060019254616364565b806142fd575b50016142d3565b601f811183146143135750600081555b8a6142f6565b600090828252614331601f60208420920160051c8201858301616969565b8183555561430d565b0151905086806135ae565b9250600285016000526020600020906000935b601f198416851061439c576001945083601f19811610614383575b505050811b0160028301556135c6565b015160001960f88460031b161c19169055868080614373565b81810151835560209485019460019093019290910190614358565b6143e690600287016000526020600020601f850160051c81019160208610611f6c57601f0160051c0190616969565b87613597565b60405162461bcd60e51b815260206004820152601960248201527f4d65737361676520616c72656164792070726f636573736564000000000000006044820152606490fd5b60405162461bcd60e51b815260206004820152601460248201527313db9b1e481c9bdd5d195c8818d85b8818d85b1b60621b6044820152606490fd5b346101e95760a03660031901126101e9576001600160401b03602435116101e95760e0602435360360031901126101e95760405160e081018181106001600160401b03821117610fbf57604052602435600401356001600160401b0381116101e9576144e190600436916024350101615e7c565b81526024803501356001600160401b0381116101e95761450990600436916024350101615f20565b6020820152604460243501356001600160401b0381116101e95761453590600436916024350101615e7c565b6040820152606460243501356001600160401b0381116101e95761456190600436916024350101615e7c565b60608201526001600160401b0360846024350135116101e95761458f36602435608481013501600401615e7c565b608082015260243560a481013560a083015260c4013560c08201526001600160401b03604435116101e95760c0604435360360031901126101e9576040518060c08101106001600160401b0360c083011117610fbf5760c081016040526044356004013581526001600160401b0360246044350135116101e95761461e36604435602481013501600401615e7c565b6020820152600360448035013510156101e95760448035013560408201526064604435013560028110156101e957606082015260046084604435013510156101e9576044356084810135608083015260a4013560a08201526001600160401b03606435116101e9576060606435360360031901126101e9576040518060608101106001600160401b03606083011117610fbf5760608101604052606435600401356001600160401b0381116101e9576146df90600436916064350101615e7c565b81526001600160401b0360246064350135116101e95761470a36606435602481013501600401615e7c565b6020820152604460643501356001600160401b0381116101e95761473690600436916064350101615f20565b60408201526084356001600160401b0381116101e95761475a903690600401615f3b565b92614763616997565b600435600052600a60205260018060a01b036001604060002001541633148015615a3f575b61479190616a39565b60a0830151156159fa57805151156159be5760208101515115615979576060810151511561593d57608081015151156159005783516004356000908152600a60205260409020600f01546001600160a01b039182169116036158bb5783516001600160a01b0316330361587657805192602082015160805260408201516101605260608201519060808301519160c060a08501519401519180519060208101516040820151906003821015612313576060830151936002851015612313576080840151966004881015612313578a996149509961494398604060a06149389901519d519e01519e600435600052600a602052601760406000208060a05260ff60148201541660c05260158101546102005260018060a01b036016820154166101c052015460e0526148c86040518061018052615d9c565b60043561018051523360206101805101526040610180510152608051606061018051015261016051608061018051015260a061018051015260c061018051015260e06101805101526101006101805101526101206101805101526101406101805101526101606101805101616945565b610180805101616951565b6101a0610180510161695d565b6101c06101805101526101e061018051015261020061018051015261022061018051015260c05115156102406101805101526000610260610180510152610200516102806101805101526101c0516102a061018051015260e0516102c0610180510152600435600052600a60205260406000206040610180518051835560018060a01b036020820151166001600160601b0360a01b60018501541617600184015501518051906001600160401b038211610fbf578190614a136002850154616364565b601f8111615841575b50602090601f83116001146157cf576000926157c4575b50508160011b916000199060031b1c19161760028201555b6060610180510151805190600160401b8211610fbf57600383015482600385015580831061574c575b5060200190600383016000526020600020916000905b828210615637578460806101805101518051906001600160401b038211610fbf578190614aba6004850154616364565b601f8111615602575b50602090601f831160011461559057600092615585575b50508160011b916000199060031b1c19161760048201555b60a06101805101518051906001600160401b038211610fbf578190614b1a6005850154616364565b601f8111615550575b50602090601f83116001146154de576000926154d3575b50508160011b916000199060031b1c19161760058201555b60c06101805101518051906001600160401b038211610fbf578190614b7a6006850154616364565b601f811161549e575b50602090601f831160011461542c57600092615421575b50508160011b916000199060031b1c19161760068201555b6101406101805160e081015160078401556101008101516008840155610120810151600984015501518051906001600160401b038211610fbf578190614bfb600a850154616364565b601f81116153ec575b50602090601f831160011461537a5760009261536f575b50508160011b916000199060031b1c191617600a8201555b6101805161016081015190600382101561231357600b830154916101808201516002811015612313576101a08301516004811015612313576101e09460ff62ff000061ff009360101b1694169062ffffff1916179160081b161717600b8401556101c0810151600c84015501518051906001600160401b038211610fbf578190614cc0600d850154616364565b601f811161533a575b50602090601f83116001146152c8576000926152bd575b50508160011b916000199060031b1c191617600d8201555b610200610180510151805190600160401b8211610fbf57600e83015482600e850155808310615245575b5060200190600e83016000526020600020916000905b8282106151305784600f8101906102206101805101519160018060a01b038351166001600160601b0360a01b82541617905560208201519182516001600160401b038111610fbf57614d8d6010840154616364565b601f81116150fb575b506020601f821160011461508d5781929394600092615082575b50508160011b916000199060031b1c19161760108301555b60408101518051906001600160401b038211610fbf57614deb6011850154616364565b601f811161504d575b50602090601f8311600114614fda57608093929160009183614fcf575b50508160011b916000199060031b1c19161760118401555b6060810151601284015501518051906001600160401b038211610fbf578190614e556013850154616364565b601f8111614f9a575b50602090601f8311600114614f2857600092614f1d575b50508160011b916000199060031b1c19161760138201555b60176102c060148301614ebb6101805191611d156102408401511515829060ff801983541691151516179055565b61028081015160158501556016840160018060a01b036102a0830151166001600160601b0360a01b8254161790550151910155336004357f0ac4673e0c14f555f7a29dc1abe824e57feeb4dc61dffc46e24a31d970178d6a600080a360018055005b015190508380614e75565b9250601384016000526020600020906000935b601f1984168510614f7f576001945083601f19811610614f66575b505050811b016013820155614e8d565b015160001960f88460031b161c19169055838080614f56565b81810151835560209485019460019093019290910190614f3b565b614fc990601386016000526020600020601f850160051c81019160208610611f6c57601f0160051c0190616969565b84614e5e565b015190508580614e11565b906011850160005260206000209160005b601f1985168110615035575091839160019360809695601f1981161061501c575b505050811b016011840155614e29565b015160001960f88460031b161c1916905585808061500c565b91926020600181928685015181550194019201614feb565b61507c90601186016000526020600020601f850160051c81019160208610611f6c57601f0160051c0190616969565b84614df4565b015190508480614db0565b6010840160005260206000209060005b601f19841681106150e35750600193949583601f198116106150ca575b505050811b016010830155614dc8565b015160001960f88460031b161c191690558480806150ba565b9091602060018192858a01518155019301910161509d565b61512a90601085016000526020600020601f840160051c81019160208510611f6c57601f0160051c0190616969565b84614d96565b80518051906001600160401b038211610fbf5761514d8654616364565b601f8111615213575b50602090601f83116001146151a3579282600194936020938695600092615198575b5050600019600383901b1c191690841b1787555b01940191019092614d38565b015190508a80615178565b908660005260206000209160005b601f19851681106151fb575083602093600196938796938794601f198116106151e2575b505050811b01875561518c565b015160001960f88460031b161c191690558a80806151d5565b919260206001819286850151815501940192016151b1565b61523f90876000526020600020601f850160051c81019160208610611f6c57601f0160051c0190616969565b87615156565b600e84016000526020600020908382015b8183018110615266575050614d22565b8061527360019254616364565b80615280575b5001615256565b601f811183146152965750600081555b87615279565b6000908282526152b4601f60208420920160051c8201858301616969565b81835555615290565b015190508380614ce0565b9250600d84016000526020600020906000935b601f198416851061531f576001945083601f19811610615306575b505050811b01600d820155614cf8565b015160001960f88460031b161c191690558380806152f6565b818101518355602094850194600190930192909101906152db565b61536990600d86016000526020600020601f850160051c81019160208610611f6c57601f0160051c0190616969565b84614cc9565b015190508380614c1b565b9250600a84016000526020600020906000935b601f19841685106153d1576001945083601f198116106153b8575b505050811b01600a820155614c33565b015160001960f88460031b161c191690558380806153a8565b8181015183556020948501946001909301929091019061538d565b61541b90600a86016000526020600020601f850160051c81019160208610611f6c57601f0160051c0190616969565b84614c04565b015190508380614b9a565b9250600684016000526020600020906000935b601f1984168510615483576001945083601f1981161061546a575b505050811b016006820155614bb2565b015160001960f88460031b161c1916905583808061545a565b8181015183556020948501946001909301929091019061543f565b6154cd90600686016000526020600020601f850160051c81019160208610611f6c57601f0160051c0190616969565b84614b83565b015190508380614b3a565b9250600584016000526020600020906000935b601f1984168510615535576001945083601f1981161061551c575b505050811b016005820155614b52565b015160001960f88460031b161c1916905583808061550c565b818101518355602094850194600190930192909101906154f1565b61557f90600586016000526020600020601f850160051c81019160208610611f6c57601f0160051c0190616969565b84614b23565b015190508380614ada565b9250600484016000526020600020906000935b601f19841685106155e7576001945083601f198116106155ce575b505050811b016004820155614af2565b015160001960f88460031b161c191690558380806155be565b818101518355602094850194600190930192909101906155a3565b61563190600486016000526020600020601f850160051c81019160208610611f6c57601f0160051c0190616969565b84614ac3565b80518051906001600160401b038211610fbf576156548654616364565b601f811161571a575b50602090601f83116001146156aa57928260019493602093869560009261569f575b5050600019600383901b1c191690841b1787555b01940191019092614a8a565b015190508a8061567f565b908660005260206000209160005b601f1985168110615702575083602093600196938796938794601f198116106156e9575b505050811b018755615693565b015160001960f88460031b161c191690558a80806156dc565b919260206001819286850151815501940192016156b8565b615746908760005260206000206005601f8601811c820192602087106126f757601f01901c0190616969565b8761565d565b600384016000526020600020908382015b818301811061576d575050614a74565b8061577a60019254616364565b80615787575b500161575d565b601f8111831461579d5750600081555b87615780565b6000908282526157bb601f60208420920160051c8201858301616969565b81835555615797565b015190508380614a33565b9250600284016000526020600020906000935b601f1984168510615826576001945083601f1981161061580d575b505050811b016002820155614a4b565b015160001960f88460031b161c191690558380806157fd565b818101518355602094850194600190930192909101906157e2565b61587090600286016000526020600020601f850160051c81019160208610611f6c57601f0160051c0190616969565b84614a1c565b60405162461bcd60e51b815260206004820152601f60248201527f53656c6c65722077616c6c6574206d757374206d617463682073656e646572006044820152606490fd5b60405162461bcd60e51b815260206004820152601b60248201527f43616e6e6f74206368616e67652073656c6c65722077616c6c657400000000006044820152606490fd5b60405162461bcd60e51b81526020600482015260156024820152744d6f64656c2063616e6e6f7420626520656d70747960581b6044820152606490fd5b60405162461bcd60e51b81526020600482015260146024820152734d616b652063616e6e6f7420626520656d70747960601b6044820152606490fd5b60405162461bcd60e51b815260206004820152601e60248201527f4174206c65617374206f6e6520696d61676520697320726571756972656400006044820152606490fd5b60405162461bcd60e51b81526020600482015260146024820152734e616d652063616e6e6f7420626520656d70747960601b6044820152606490fd5b60405162461bcd60e51b815260206004820152601c60248201527f5072696365206d7573742062652067726561746572207468616e2030000000006044820152606490fd5b506000546001600160a01b03163314614788565b346101e95760203660031901126101e957600435600052600e6020526020604060002054604051908152f35b346101e95760403660031901126101e957615a98615d70565b602435906001600160a01b038080615aaf85616341565b16921691808314615baa57803314908115615b85575b5015615b1a57600083815260066020526040902080546001600160a01b03191683179055615af283616341565b167f8c5be1e5ebec7d5bd14f71427d1e84f3dd0314c0f7b2291e5b200ac8c7c3b925600080a4005b60405162461bcd60e51b815260206004820152603d60248201527f4552433732313a20617070726f76652063616c6c6572206973206e6f7420746f60448201527f6b656e206f776e6572206f7220617070726f76656420666f7220616c6c0000006064820152608490fd5b9050600052600760205260406000203360005260205260ff6040600020541684615ac5565b60405162461bcd60e51b815260206004820152602160248201527f4552433732313a20617070726f76616c20746f2063757272656e74206f776e656044820152603960f91b6064820152608490fd5b346101e95760203660031901126101e95760206129ec600435616434565b346101e95760003660031901126101e9576040516000600254615c3981616364565b808452906001908181169081156108965750600114615c62576103d08461082781860382615e09565b6002600090815292507f405787fa12a823e0f2b7631cc41b3ba8828b3321ca811111fa75cd3aa3bb5ace5b828410615ca557505050810160200161082782610817565b80546020858701810191909152909301928101615c8d565b346101e95760203660031901126101e9576004359063ffffffff60e01b82168092036101e9576020916380ac58cd60e01b8114908115615d17575b8115615d06575b5015158152f35b6301ffc9a760e01b14905083615cff565b635b5e139f60e01b81149150615cf8565b60005b838110615d3b5750506000910152565b8181015183820152602001615d2b565b90602091615d6481518092818552858086019101615d28565b601f01601f1916010190565b600435906001600160a01b03821682036101e957565b602435906001600160a01b03821682036101e957565b6102e081019081106001600160401b03821117610fbf57604052565b60a081019081106001600160401b03821117610fbf57604052565b608081019081106001600160401b03821117610fbf57604052565b602081019081106001600160401b03821117610fbf57604052565b90601f801991011681019081106001600160401b03821117610fbf57604052565b6001600160401b038111610fbf57601f01601f191660200190565b929192615e5182615e2a565b91615e5f6040519384615e09565b8294818452818301116101e9578281602093846000960137010152565b9080601f830112156101e957816020615e9793359101615e45565b90565b6001600160401b038111610fbf5760051b60200190565b92919092615ebe84615e9a565b91615ecc6040519384615e09565b829480845260208094019060051b8301928284116101e95780915b848310615ef657505050505050565b82356001600160401b0381116101e9578691615f158684938601615e7c565b815201920191615ee7565b9080601f830112156101e957816020615e9793359101615eb1565b919060a0838203126101e95760405190615f5482615db8565b909283919080356001600160a01b03811681036101e95783526001600160401b039160208201358381116101e95781615f8e918401615e7c565b602085015260408201358381116101e95781615fab918401615e7c565b60408501526060820135606085015260808201359283116101e957608092615fd39201615e7c565b910152565b60609060031901126101e9576001600160a01b039060043582811681036101e9579160243590811681036101e9579060443590565b90815180825260208092019182818360051b85019501936000915b8483106160385750505050505090565b909192939495848061605283856001950387528a51615d4b565b9801930193019194939290616028565b908151815260018060a01b039182602082015116602083015261611f6160eb6160d96160c76160b56160a360408701516102e08060408b0152890190615d4b565b606087015188820360608a015261600d565b60808601518782036080890152615d4b565b60a085015186820360a0880152615d4b565b60c084015185820360c0870152615d4b565b60e083015160e085015261010080840151908501526101208084015190850152610140808401519085830390860152615d4b565b610160808301519060038210156123135784015261018080830151906002821015612313578401526101a080830151906004821015612313576161fb9261619a92616186928701526101c080860151908701526101e0808601519087830390880152615d4b565b61020080850151908683039087015261600d565b6102209081840151918582039086015285825116815260806161e06161ce602085015160a0602086015260a0850190615d4b565b60408501518482036040860152615d4b565b92606081015160608401520151906080818403910152615d4b565b92610240808301511515908401526102608083015115159084015261028080830151908401526102a0908183015116908301526102c08091015191015290565b602080820190808352835180925260408301928160408460051b8301019501936000915b84831061626f5750505050505090565b909192939495848061628d600193603f198682030187528a51616062565b980193019301919493929061625f565b6000546001600160a01b031633036162b157565b606460405162461bcd60e51b815260206004820152602060248201527f4f776e61626c653a2063616c6c6572206973206e6f7420746865206f776e65726044820152fd5b156162fc57565b60405162461bcd60e51b815260206004820152601860248201527f4552433732313a20696e76616c696420746f6b656e20494400000000000000006044820152606490fd5b6000908152600460205260409020546001600160a01b0316615e978115156162f5565b90600182811c92168015616394575b602083101461637e57565b634e487b7160e01b600052602260045260246000fd5b91607f1691616373565b90600092918054916163af83616364565b91828252600193848116908160001461641157506001146163d1575b50505050565b90919394506000526020928360002092846000945b8386106163fd5750505050010190388080806163cb565b8054858701830152940193859082016163e6565b9294505050602093945060ff191683830152151560051b010190388080806163cb565b600081815260046020526040902054616457906001600160a01b031615156162f5565b6000908152600660205260409020546001600160a01b031690565b1561647957565b60405162461bcd60e51b815260206004820152602d60248201527f4552433732313a2063616c6c6572206973206e6f7420746f6b656e206f776e6560448201526c1c881bdc88185c1c1c9bdd9959609a1b6064820152608490fd5b60809060208152603260208201527f4552433732313a207472616e7366657220746f206e6f6e20455243373231526560408201527131b2b4bb32b91034b6b83632b6b2b73a32b960711b60608201520190565b1561652e57565b60405162461bcd60e51b815280616547600482016164d4565b0390fd5b906001600160a01b03808061655f84616341565b16931691838314938415616592575b50831561657c575b50505090565b61658891929350616434565b1614388080616576565b909350600052600760205260406000208260005260205260ff60406000205416923861656e565b156165c057565b60405162461bcd60e51b815260206004820152602560248201527f4552433732313a207472616e736665722066726f6d20696e636f72726563742060448201526437bbb732b960d91b6064820152608490fd5b9061663b9161662184616341565b6001600160a01b03939184169284929091831684146165b9565b169182156166d357816166589161665186616341565b16146165b9565b7fddf252ad1be2c89b69c2b068fc378daa952ba7f163c4a11628f55a4df523b3ef60008481526006602052604081206001600160601b0360a01b9081815416905583825260056020526040822060001981540190558482526040822060018154019055858252600460205284604083209182541617905580a4565b60405162461bcd60e51b8152602060048201526024808201527f4552433732313a207472616e7366657220746f20746865207a65726f206164646044820152637265737360e01b6064820152608490fd5b3d1561674f573d9061673582615e2a565b916167436040519384615e09565b82523d6000602084013e565b606090565b9091600091803b156168465761679f6020918493604051948580948193630a85bd0160e11b9a8b84523360048501528460248501526044840152608060648401526084830190615d4b565b03926001600160a01b03165af1908290826167f7575b50506167e9576167c3616724565b805190816167e45760405162461bcd60e51b815280616547600482016164d4565b602001fd5b6001600160e01b0319161490565b909192506020813d821161683e575b8161681360209383615e09565b8101031261683a5751906001600160e01b03198216820361683757509038806167b5565b80fd5b5080fd5b3d9150616806565b50505050600190565b91926000929190813b156168c0576020916168a59185604051958680958194630a85bd0160e11b9b8c845233600485015260018060a01b0380951660248501526044840152608060648401526084830190615d4b565b0393165af1908290826167f75750506167e9576167c3616724565b5050505050600190565b356001600160a01b03811681036101e95790565b903590601e19813603018212156101e957018035906001600160401b0382116101e957602001918160051b360383136101e957565b903590601e19813603018212156101e957018035906001600160401b0382116101e9576020019181360383136101e957565b60038210156123135752565b60028210156123135752565b60048210156123135752565b818110616974575050565b60008155600101616969565b906126de9182810292818404149015171561075f57565b6002600154146169a8576002600155565b60405162461bcd60e51b815260206004820152601f60248201527f5265656e7472616e637947756172643a207265656e7472616e742063616c6c006044820152606490fd5b156169f457565b60405162461bcd60e51b815260206004820152601c60248201527f4552433732313a20746f6b656e20616c7265616479206d696e746564000000006044820152606490fd5b15616a4057565b60405162461bcd60e51b815260206004820152600c60248201526b155b985d5d1a1bdc9a5e995960a21b6044820152606490fd5b60405190616a8182615d9c565b816102c0600091828152826020820152606080604083015280808301528060808301528060a08301528060c08301528360e08301528361010083015283610120830152806101408301528361016083015283610180830152836101a0830152836101c0830152806101e08301528061020083015260405190616b0282615db8565b84825280602083015280604083015284818301526080820152610220820152826102408201528261026082015282610280820152826102a08201520152565b15616b4857565b60405162461bcd60e51b815260206004820152601260248201527110d85c88191bd95cc81b9bdd08195e1a5cdd60721b6044820152606490fd5b15616b8957565b60405162461bcd60e51b815260206004820152601460248201527310d85c881a185cc81899595b8819195b195d195960621b6044820152606490fd5b908154616bd181615e9a565b92604093616be185519182615e09565b828152809460208092019260005281600020906000935b858510616c0757505050505050565b60018481928451616c2381616c1c818a61639e565b0382615e09565b815201930194019391616bf8565b906040916102c06017845192616c4684615d9c565b8054845260018101546001600160a01b039081166020860152865194968795616c7681616c1c816002880161639e565b81870152616c8660038401616bc5565b60608701528051616c9e81616c1c816004880161639e565b60808701528051616cb681616c1c816005880161639e565b60a08701528051616cce81616c1c816006880161639e565b60c0870152600783015460e0870152600883015461010087015260098301546101208701528051616d0681616c1c81600a880161639e565b610140870152616d4760ff600b850154616d268282166101608b01616945565b616d39828260081c166101808b01616951565b60101c166101a0880161695d565b600c8301546101c08701528051616d6581616c1c81600d880161639e565b6101e0870152616d77600e8401616bc5565b610200870152805190616d8982615db8565b82600f8501541682528051616da581616c1c816010890161639e565b60208301528051616dbd81616c1c816011890161639e565b818301526012840154606083015251616ddd81616c1c816013880161639e565b608082015261022086015260ff6014830154818116151561024088015260081c16151561026086015260158201546102808601526016820154166102a08501520154910152565b600019811461075f5760010190565b90616e3d82615e9a565b616e4a6040519182615e09565b8281528092616e5b601f1991615e9a565b019060005b828110616e6c57505050565b602090616e77616a74565b82828501015201616e60565b8051821015616e975760209160051b010190565b634e487b7160e01b600052603260045260246000fd5b8054821015616e975760005260206000209060021b0190600090565b15616ed057565b60405162461bcd60e51b8152602060048201526016602482015275109c9a5919d9481d1c985b9cd9995c8819985a5b195960521b6044820152606490fd5b60018060a01b03169060405160408101908082106001600160401b03831117610fbf57616f7f916040526020938482527f5361666545524332303a206c6f772d6c6576656c2063616c6c206661696c6564858301526000808587829751910182855af1616f79616724565b91617015565b805191821591848315616ff1575b505050905015616f9a5750565b6084906040519062461bcd60e51b82526004820152602a60248201527f5361666545524332303a204552433230206f7065726174696f6e20646964206e6044820152691bdd081cdd58d8d9595960b21b6064820152fd5b91938180945001031261683a57820151908115158203616837575080388084616f8d565b919290156170775750815115617029575090565b3b156170325790565b60405162461bcd60e51b815260206004820152601d60248201527f416464726573733a2063616c6c20746f206e6f6e2d636f6e74726163740000006044820152606490fd5b82519091501561708a5750805190602001fd5b60405162461bcd60e51b815260206004820152908190616547906024830190615d4b565b6000929181546170bd81616364565b9260019180831690811561711557506001146170d95750505050565b90919293945060005260209081600020906000915b85831061710457505050500190388080806163cb565b8054858401529183019181016170ee565b60ff19168452505050811515909102019150388080806163cb565b81601f820112156101e957805161714681615e2a565b926171546040519485615e09565b818452602082840101116101e957615e979160208085019101615d2856fea2646970667358221220c0c18a8ad18ba1a4600ff53f8ed5b6ac963d794cb2a160872626b41f5e42de7f64736f6c63430008130033","opcodes":"PUSH1 0x80 CALLVALUE PUSH3 0x401 JUMPI PUSH1 0x1F NOT SWAP1 PUSH1 0x1 PUSH1 0x1 PUSH1 0x40 SHL SUB SWAP1 PUSH1 0x1F PUSH3 0x75E5 CODESIZE DUP2 SWAP1 SUB DUP3 DUP2 ADD DUP7 AND DUP5 ADD DUP6 DUP2 GT DUP6 DUP3 LT OR PUSH3 0x406 JUMPI DUP5 SWAP3 DUP3 SWAP2 PUSH1 0x40 MSTORE DUP4 CODECOPY PUSH1 0x20 SWAP4 DUP5 SWAP2 DUP2 ADD SUB SLT PUSH3 0x401 JUMPI MLOAD PUSH1 0x1 PUSH1 0x1 PUSH1 0xA0 SHL SUB DUP1 DUP3 AND SWAP6 SWAP1 SWAP5 SWAP1 SWAP2 DUP7 SWAP1 SUB PUSH3 0x401 JUMPI PUSH3 0x6B PUSH3 0x41C JUMP JUMPDEST PUSH1 0x9 DUP2 MSTORE PUSH9 0x2432B6A232B0B632B9 PUSH1 0xB9 SHL DUP6 DUP3 ADD MSTORE PUSH3 0x8A PUSH3 0x41C JUMP JUMPDEST SWAP4 PUSH1 0x3 SWAP5 DUP6 DUP2 MSTORE PUSH3 0x48444D PUSH1 0xE8 SHL DUP8 DUP3 ADD MSTORE PUSH1 0x0 DUP1 SLOAD PUSH1 0x1 DUP1 PUSH1 0xA0 SHL SUB NOT SWAP10 CALLER DUP12 DUP4 AND OR DUP4 SSTORE CALLER SWAP2 AND PUSH32 0x8BE0079C531659141344CD1FD0A4F28419497F9722A3DAAFE3B4186F6B6457E0 DUP4 DUP1 LOG3 PUSH1 0x1 SWAP4 DUP5 DUP1 SSTORE DUP1 MLOAD SWAP1 DUP7 DUP3 GT PUSH3 0x3ED JUMPI PUSH1 0x2 SLOAD DUP7 DUP2 DUP2 SHR SWAP2 AND DUP1 ISZERO PUSH3 0x3E2 JUMPI JUMPDEST DUP12 DUP3 LT EQ PUSH3 0x3CE JUMPI SWAP1 DUP2 DUP7 DUP5 SWAP4 GT PUSH3 0x37A JUMPI JUMPDEST POP DUP11 SWAP1 DUP7 DUP4 GT PUSH1 0x1 EQ PUSH3 0x316 JUMPI DUP5 SWAP3 PUSH3 0x30A JUMPI JUMPDEST POP POP PUSH1 0x0 NOT DUP3 DUP11 SHL SHR NOT AND SWAP1 DUP6 SHL OR PUSH1 0x2 SSTORE JUMPDEST DUP2 MLOAD SWAP5 DUP6 GT PUSH3 0x2F6 JUMPI DUP7 SLOAD DUP5 DUP2 DUP2 SHR SWAP2 AND DUP1 ISZERO PUSH3 0x2EB JUMPI JUMPDEST DUP10 DUP3 LT EQ PUSH3 0x2D7 JUMPI DUP4 DUP2 GT PUSH3 0x28F JUMPI JUMPDEST POP DUP8 SWAP3 DUP6 GT PUSH1 0x1 EQ PUSH3 0x22E JUMPI SWAP4 SWAP5 POP DUP5 SWAP3 SWAP2 SWAP1 DUP4 PUSH3 0x222 JUMPI JUMPDEST POP POP SHL SWAP2 PUSH1 0x0 NOT SWAP1 DUP5 SHL SHR NOT AND OR SWAP1 SSTORE JUMPDEST CALLER ISZERO PUSH3 0x1EB JUMPI DUP3 ISZERO PUSH3 0x1B6 JUMPI POP PUSH1 0xC SLOAD AND OR PUSH1 0xC SSTORE PUSH1 0x40 MLOAD PUSH2 0x71A8 SWAP1 DUP2 PUSH3 0x43D DUP3 CODECOPY RETURN JUMPDEST PUSH1 0x64 SWAP1 PUSH1 0x40 MLOAD SWAP1 PUSH3 0x461BCD PUSH1 0xE5 SHL DUP3 MSTORE PUSH1 0x4 DUP3 ADD MSTORE PUSH1 0xE PUSH1 0x24 DUP3 ADD MSTORE PUSH14 0x24B73B30B634B2103937BABA32B9 PUSH1 0x91 SHL PUSH1 0x44 DUP3 ADD MSTORE REVERT JUMPDEST PUSH1 0x64 SWAP1 PUSH1 0x40 MLOAD SWAP1 PUSH3 0x461BCD PUSH1 0xE5 SHL DUP3 MSTORE PUSH1 0x4 DUP3 ADD MSTORE PUSH1 0x10 PUSH1 0x24 DUP3 ADD MSTORE PUSH16 0x24B73B30B634B2103232B83637BCB2B9 PUSH1 0x81 SHL PUSH1 0x44 DUP3 ADD MSTORE REVERT JUMPDEST ADD MLOAD SWAP3 POP CODESIZE DUP1 PUSH3 0x17E JUMP JUMPDEST SWAP3 SWAP5 DUP5 SWAP1 DUP2 AND DUP8 DUP6 MSTORE DUP9 DUP6 KECCAK256 SWAP5 JUMPDEST DUP10 DUP9 DUP4 DUP4 LT PUSH3 0x277 JUMPI POP POP POP LT PUSH3 0x25E JUMPI JUMPDEST POP POP POP DUP2 SHL ADD SWAP1 SSTORE PUSH3 0x18F JUMP JUMPDEST ADD MLOAD PUSH1 0x0 NOT DUP4 DUP7 SHL PUSH1 0xF8 AND SHR NOT AND SWAP1 SSTORE CODESIZE DUP1 DUP1 PUSH3 0x250 JUMP JUMPDEST DUP7 DUP7 ADD MLOAD DUP9 SSTORE SWAP1 SWAP7 ADD SWAP6 SWAP5 DUP6 ADD SWAP5 DUP8 SWAP4 POP ADD PUSH3 0x23C JUMP JUMPDEST DUP8 DUP3 MSTORE DUP9 DUP3 KECCAK256 DUP5 DUP1 DUP9 ADD PUSH1 0x5 SHR DUP3 ADD SWAP3 DUP12 DUP10 LT PUSH3 0x2CD JUMPI JUMPDEST ADD PUSH1 0x5 SHR ADD SWAP1 DUP6 SWAP1 JUMPDEST DUP3 DUP2 LT PUSH3 0x2C1 JUMPI POP POP PUSH3 0x163 JUMP JUMPDEST DUP4 DUP2 SSTORE ADD DUP6 SWAP1 PUSH3 0x2B1 JUMP JUMPDEST SWAP3 POP DUP2 SWAP3 PUSH3 0x2A8 JUMP JUMPDEST PUSH4 0x4E487B71 PUSH1 0xE0 SHL DUP3 MSTORE PUSH1 0x22 PUSH1 0x4 MSTORE PUSH1 0x24 DUP3 REVERT JUMPDEST SWAP1 PUSH1 0x7F AND SWAP1 PUSH3 0x151 JUMP JUMPDEST PUSH4 0x4E487B71 PUSH1 0xE0 SHL DUP2 MSTORE PUSH1 0x41 PUSH1 0x4 MSTORE PUSH1 0x24 SWAP1 REVERT JUMPDEST ADD MLOAD SWAP1 POP CODESIZE DUP1 PUSH3 0x124 JUMP JUMPDEST SWAP1 DUP10 DUP9 SWAP5 AND SWAP2 PUSH1 0x2 DUP7 MSTORE DUP13 DUP7 KECCAK256 SWAP3 DUP14 DUP8 SWAP1 JUMPDEST DUP3 DUP3 LT PUSH3 0x362 JUMPI POP POP DUP5 GT PUSH3 0x349 JUMPI JUMPDEST POP POP POP DUP2 SHL ADD PUSH1 0x2 SSTORE PUSH3 0x137 JUMP JUMPDEST ADD MLOAD PUSH1 0x0 NOT DUP4 DUP13 SHL PUSH1 0xF8 AND SHR NOT AND SWAP1 SSTORE CODESIZE DUP1 DUP1 PUSH3 0x33A JUMP JUMPDEST DUP4 DUP6 ADD MLOAD DUP7 SSTORE DUP12 SWAP8 SWAP1 SWAP6 ADD SWAP5 SWAP4 DUP5 ADD SWAP4 ADD DUP15 PUSH3 0x328 JUMP JUMPDEST SWAP1 SWAP2 POP PUSH1 0x2 DUP5 MSTORE DUP11 DUP5 KECCAK256 DUP7 DUP1 DUP6 ADD PUSH1 0x5 SHR DUP3 ADD SWAP3 DUP14 DUP7 LT PUSH3 0x3C4 JUMPI JUMPDEST SWAP2 DUP10 SWAP2 DUP7 SWAP6 SWAP5 SWAP4 ADD PUSH1 0x5 SHR ADD SWAP2 JUMPDEST DUP3 DUP2 LT PUSH3 0x3B5 JUMPI POP POP PUSH3 0x10E JUMP JUMPDEST DUP7 DUP2 SSTORE DUP6 SWAP5 POP DUP10 SWAP2 ADD PUSH3 0x3A5 JUMP JUMPDEST SWAP3 POP DUP2 SWAP3 PUSH3 0x397 JUMP JUMPDEST PUSH4 0x4E487B71 PUSH1 0xE0 SHL DUP5 MSTORE PUSH1 0x22 PUSH1 0x4 MSTORE PUSH1 0x24 DUP5 REVERT JUMPDEST SWAP1 PUSH1 0x7F AND SWAP1 PUSH3 0xF9 JUMP JUMPDEST PUSH4 0x4E487B71 PUSH1 0xE0 SHL DUP4 MSTORE PUSH1 0x41 PUSH1 0x4 MSTORE PUSH1 0x24 DUP4 REVERT JUMPDEST PUSH1 0x0 DUP1 REVERT JUMPDEST PUSH4 0x4E487B71 PUSH1 0xE0 SHL PUSH1 0x0 MSTORE PUSH1 0x41 PUSH1 0x4 MSTORE PUSH1 0x24 PUSH1 0x0 REVERT JUMPDEST PUSH1 0x40 DUP1 MLOAD SWAP2 SWAP1 DUP3 ADD PUSH1 0x1 PUSH1 0x1 PUSH1 0x40 SHL SUB DUP2 GT DUP4 DUP3 LT OR PUSH3 0x406 JUMPI PUSH1 0x40 MSTORE JUMP INVALID PUSH2 0x220 DUP1 PUSH1 0x40 MSTORE PUSH1 0x4 CALLDATASIZE LT ISZERO PUSH2 0x14 JUMPI PUSH1 0x0 DUP1 REVERT JUMPDEST PUSH1 0x0 CALLDATALOAD PUSH1 0xE0 SHR SWAP1 DUP2 PUSH4 0x1FFC9A7 EQ PUSH2 0x5CBD JUMPI POP DUP1 PUSH4 0x6FDDE03 EQ PUSH2 0x5C17 JUMPI DUP1 PUSH4 0x81812FC EQ PUSH2 0x5BF9 JUMPI DUP1 PUSH4 0x95EA7B3 EQ PUSH2 0x5A7F JUMPI DUP1 PUSH4 0xCE7FC03 EQ PUSH2 0x5A53 JUMPI DUP1 PUSH4 0xD5D841A EQ PUSH2 0x446D JUMPI DUP1 PUSH4 0x2351D10F EQ PUSH2 0x31F5 JUMPI DUP1 PUSH4 0x23B872DD EQ PUSH2 0x31D1 JUMPI DUP1 PUSH4 0x33396917 EQ PUSH2 0x3006 JUMPI DUP1 PUSH4 0x341FA05D EQ PUSH2 0x2EF5 JUMPI DUP1 PUSH4 0x402EBD7D EQ PUSH2 0x2C5C JUMPI DUP1 PUSH4 0x42842E0E EQ PUSH2 0x2C29 JUMPI DUP1 PUSH4 0x4F8359F1 EQ PUSH2 0x2C00 JUMPI DUP1 PUSH4 0x5E8BE190 EQ PUSH2 0x2B74 JUMPI DUP1 PUSH4 0x60098088 EQ PUSH2 0x29FE JUMPI DUP1 PUSH4 0x6352211E EQ PUSH2 0x29CE JUMPI DUP1 PUSH4 0x68C4AC26 EQ PUSH2 0x298F JUMPI DUP1 PUSH4 0x6BFA74C3 EQ PUSH2 0x1413 JUMPI DUP1 PUSH4 0x6C231060 EQ PUSH2 0xB18 JUMPI DUP1 PUSH4 0x6D69FCAF EQ PUSH2 0xA98 JUMPI DUP1 PUSH4 0x70A08231 EQ PUSH2 0xA01 JUMPI DUP1 PUSH4 0x715018A6 EQ PUSH2 0x9A8 JUMPI DUP1 PUSH4 0x76319190 EQ PUSH2 0x966 JUMPI DUP1 PUSH4 0x84DFC55D EQ PUSH2 0x935 JUMPI DUP1 PUSH4 0x87065DEB EQ PUSH2 0x917 JUMPI DUP1 PUSH4 0x88BA16AB EQ PUSH2 0x8E6 JUMPI DUP1 PUSH4 0x8DA5CB5B EQ PUSH2 0x8BD JUMPI DUP1 PUSH4 0x95D89B41 EQ PUSH2 0x7DB JUMPI DUP1 PUSH4 0x9EFEFF1C EQ PUSH2 0x7AF JUMPI DUP1 PUSH4 0x9F725A1D EQ PUSH2 0x611 JUMPI DUP1 PUSH4 0xA22CB465 EQ PUSH2 0x536 JUMPI DUP1 PUSH4 0xABFE5D57 EQ PUSH2 0x44A JUMPI DUP1 PUSH4 0xB88D4FDE EQ PUSH2 0x3D4 JUMPI DUP1 PUSH4 0xC87B56DD EQ PUSH2 0x360 JUMPI DUP1 PUSH4 0xCEB6C12F EQ PUSH2 0x334 JUMPI DUP1 PUSH4 0xE985E9C5 EQ PUSH2 0x2DE JUMPI DUP1 PUSH4 0xEF821FE8 EQ PUSH2 0x2B2 JUMPI DUP1 PUSH4 0xF2FDE38B EQ PUSH2 0x1EE JUMPI PUSH4 0xF9759518 EQ PUSH2 0x1CD JUMPI PUSH1 0x0 DUP1 REVERT JUMPDEST CALLVALUE PUSH2 0x1E9 JUMPI PUSH1 0x0 CALLDATASIZE PUSH1 0x3 NOT ADD SLT PUSH2 0x1E9 JUMPI PUSH1 0x20 PUSH1 0x40 MLOAD PUSH1 0x32 DUP2 MSTORE RETURN JUMPDEST PUSH1 0x0 DUP1 REVERT JUMPDEST CALLVALUE PUSH2 0x1E9 JUMPI PUSH1 0x20 CALLDATASIZE PUSH1 0x3 NOT ADD SLT PUSH2 0x1E9 JUMPI PUSH2 0x207 PUSH2 0x5D70 JUMP JUMPDEST PUSH2 0x20F PUSH2 0x629D JUMP JUMPDEST PUSH1 0x1 PUSH1 0x1 PUSH1 0xA0 SHL SUB SWAP1 DUP2 AND SWAP1 DUP2 ISZERO PUSH2 0x25E JUMPI PUSH1 0x0 SLOAD DUP3 PUSH1 0x1 PUSH1 0x1 PUSH1 0x60 SHL SUB PUSH1 0xA0 SHL DUP3 AND OR PUSH1 0x0 SSTORE AND PUSH32 0x8BE0079C531659141344CD1FD0A4F28419497F9722A3DAAFE3B4186F6B6457E0 PUSH1 0x0 DUP1 LOG3 STOP JUMPDEST PUSH1 0x40 MLOAD PUSH3 0x461BCD PUSH1 0xE5 SHL DUP2 MSTORE PUSH1 0x20 PUSH1 0x4 DUP3 ADD MSTORE PUSH1 0x26 PUSH1 0x24 DUP3 ADD MSTORE PUSH32 0x4F776E61626C653A206E6577206F776E657220697320746865207A65726F2061 PUSH1 0x44 DUP3 ADD MSTORE PUSH6 0x646472657373 PUSH1 0xD0 SHL PUSH1 0x64 DUP3 ADD MSTORE PUSH1 0x84 SWAP1 REVERT JUMPDEST CALLVALUE PUSH2 0x1E9 JUMPI PUSH1 0x20 CALLDATASIZE PUSH1 0x3 NOT ADD SLT PUSH2 0x1E9 JUMPI PUSH1 0x4 CALLDATALOAD PUSH1 0x0 MSTORE PUSH1 0x12 PUSH1 0x20 MSTORE PUSH1 0x20 PUSH1 0x40 PUSH1 0x0 KECCAK256 SLOAD PUSH1 0x40 MLOAD SWAP1 DUP2 MSTORE RETURN JUMPDEST CALLVALUE PUSH2 0x1E9 JUMPI PUSH1 0x40 CALLDATASIZE PUSH1 0x3 NOT ADD SLT PUSH2 0x1E9 JUMPI PUSH2 0x2F7 PUSH2 0x5D70 JUMP JUMPDEST PUSH2 0x2FF PUSH2 0x5D86 JUMP JUMPDEST SWAP1 PUSH1 0x1 DUP1 PUSH1 0xA0 SHL SUB DUP1 SWAP2 AND PUSH1 0x0 MSTORE PUSH1 0x7 PUSH1 0x20 MSTORE PUSH1 0x40 PUSH1 0x0 KECCAK256 SWAP2 AND PUSH1 0x0 MSTORE PUSH1 0x20 MSTORE PUSH1 0x20 PUSH1 0xFF PUSH1 0x40 PUSH1 0x0 KECCAK256 SLOAD AND PUSH1 0x40 MLOAD SWAP1 ISZERO ISZERO DUP2 MSTORE RETURN JUMPDEST CALLVALUE PUSH2 0x1E9 JUMPI PUSH1 0x20 CALLDATASIZE PUSH1 0x3 NOT ADD SLT PUSH2 0x1E9 JUMPI PUSH1 0x4 CALLDATALOAD PUSH1 0x0 MSTORE PUSH1 0x11 PUSH1 0x20 MSTORE PUSH1 0x20 PUSH1 0x40 PUSH1 0x0 KECCAK256 SLOAD PUSH1 0x40 MLOAD SWAP1 DUP2 MSTORE RETURN JUMPDEST CALLVALUE PUSH2 0x1E9 JUMPI PUSH1 0x20 CALLDATASIZE PUSH1 0x3 NOT ADD SLT PUSH2 0x1E9 JUMPI PUSH2 0x39A PUSH2 0x395 PUSH1 0x4 CALLDATALOAD PUSH1 0x0 MSTORE PUSH1 0x4 PUSH1 0x20 MSTORE PUSH1 0x1 DUP1 PUSH1 0xA0 SHL SUB PUSH1 0x40 PUSH1 0x0 KECCAK256 SLOAD AND ISZERO ISZERO SWAP1 JUMP JUMPDEST PUSH2 0x62F5 JUMP JUMPDEST PUSH1 0x0 PUSH1 0x40 MLOAD PUSH2 0x3A8 DUP2 PUSH2 0x5DEE JUMP JUMPDEST MSTORE PUSH2 0x3D0 PUSH1 0x40 MLOAD PUSH2 0x3B8 DUP2 PUSH2 0x5DEE JUMP JUMPDEST PUSH1 0x0 DUP2 MSTORE PUSH1 0x40 MLOAD SWAP2 DUP3 SWAP2 PUSH1 0x20 DUP4 MSTORE PUSH1 0x20 DUP4 ADD SWAP1 PUSH2 0x5D4B JUMP JUMPDEST SUB SWAP1 RETURN JUMPDEST CALLVALUE PUSH2 0x1E9 JUMPI PUSH1 0x80 CALLDATASIZE PUSH1 0x3 NOT ADD SLT PUSH2 0x1E9 JUMPI PUSH2 0x3ED PUSH2 0x5D70 JUMP JUMPDEST PUSH2 0x3F5 PUSH2 0x5D86 JUMP JUMPDEST SWAP1 PUSH1 0x64 CALLDATALOAD SWAP1 PUSH1 0x44 CALLDATALOAD PUSH1 0x1 PUSH1 0x1 PUSH1 0x40 SHL SUB DUP4 GT PUSH2 0x1E9 JUMPI PUSH2 0x448 SWAP4 PUSH2 0x420 PUSH2 0x443 SWAP5 CALLDATASIZE SWAP1 PUSH1 0x4 ADD PUSH2 0x5E7C JUMP JUMPDEST SWAP3 PUSH2 0x433 PUSH2 0x42E DUP5 CALLER PUSH2 0x654B JUMP JUMPDEST PUSH2 0x6472 JUMP JUMPDEST PUSH2 0x43E DUP4 DUP4 DUP4 PUSH2 0x6613 JUMP JUMPDEST PUSH2 0x684F JUMP JUMPDEST PUSH2 0x6527 JUMP JUMPDEST STOP JUMPDEST CALLVALUE PUSH2 0x1E9 JUMPI PUSH1 0x0 CALLDATASIZE PUSH1 0x3 NOT ADD SLT PUSH2 0x1E9 JUMPI PUSH1 0x8 DUP1 SLOAD PUSH1 0x0 PUSH1 0x1 JUMPDEST DUP3 DUP2 GT ISZERO PUSH2 0x4F6 JUMPI POP PUSH2 0x476 SWAP1 PUSH2 0x6E33 JUMP JUMPDEST SWAP2 PUSH1 0x1 PUSH1 0x0 JUMPDEST DUP4 DUP3 GT ISZERO PUSH2 0x492 JUMPI PUSH1 0x40 MLOAD DUP1 PUSH2 0x3D0 DUP8 DUP3 PUSH2 0x623B JUMP JUMPDEST DUP2 PUSH1 0x0 MSTORE PUSH1 0xA PUSH1 0x20 MSTORE PUSH1 0x40 PUSH1 0x0 KECCAK256 SWAP2 PUSH1 0xFF PUSH1 0x14 DUP5 ADD SLOAD DUP6 SHR AND ISZERO PUSH2 0x4C2 JUMPI JUMPDEST PUSH2 0x4BC SWAP2 SWAP3 POP PUSH2 0x6E24 JUMP JUMPDEST SWAP1 PUSH2 0x47C JUMP JUMPDEST PUSH2 0x4ED DUP3 PUSH2 0x4DC PUSH2 0x4D6 PUSH2 0x4BC SWAP6 SWAP3 PUSH2 0x6E24 JUMP JUMPDEST SWAP6 PUSH2 0x6C31 JUMP JUMPDEST PUSH2 0x4E6 DUP3 DUP11 PUSH2 0x6E83 JUMP JUMPDEST MSTORE DUP8 PUSH2 0x6E83 JUMP JUMPDEST POP DUP3 SWAP2 POP PUSH2 0x4B1 JUMP JUMPDEST DUP1 PUSH1 0x0 MSTORE PUSH1 0xA PUSH1 0x20 MSTORE PUSH1 0xFF PUSH1 0x14 PUSH1 0x40 PUSH1 0x0 KECCAK256 ADD SLOAD DUP6 SHR AND ISZERO PUSH2 0x521 JUMPI JUMPDEST PUSH2 0x51C SWAP1 PUSH2 0x6E24 JUMP JUMPDEST PUSH2 0x464 JUMP JUMPDEST SWAP1 PUSH2 0x52E PUSH2 0x51C SWAP2 PUSH2 0x6E24 JUMP JUMPDEST SWAP2 SWAP1 POP PUSH2 0x513 JUMP JUMPDEST CALLVALUE PUSH2 0x1E9 JUMPI PUSH1 0x40 CALLDATASIZE PUSH1 0x3 NOT ADD SLT PUSH2 0x1E9 JUMPI PUSH2 0x54F PUSH2 0x5D70 JUMP JUMPDEST PUSH1 0x24 CALLDATALOAD SWAP1 DUP2 ISZERO ISZERO SWAP1 DUP2 DUP4 SUB PUSH2 0x1E9 JUMPI PUSH1 0x1 PUSH1 0x1 PUSH1 0xA0 SHL SUB AND SWAP2 CALLER DUP4 EQ PUSH2 0x5CC JUMPI PUSH2 0x59E SWAP1 CALLER PUSH1 0x0 MSTORE PUSH1 0x7 PUSH1 0x20 MSTORE PUSH1 0x40 PUSH1 0x0 KECCAK256 DUP5 PUSH1 0x0 MSTORE PUSH1 0x20 MSTORE PUSH1 0x40 PUSH1 0x0 KECCAK256 SWAP1 PUSH1 0xFF DUP1 NOT DUP4 SLOAD AND SWAP2 ISZERO ISZERO AND OR SWAP1 SSTORE JUMP JUMPDEST PUSH1 0x40 MLOAD SWAP1 DUP2 MSTORE PUSH32 0x17307EAB39AB6107E8899845AD3D59BD9653F200F220920489CA2B5937696C31 PUSH1 0x20 CALLER SWAP3 LOG3 STOP JUMPDEST PUSH1 0x40 MLOAD PUSH3 0x461BCD PUSH1 0xE5 SHL DUP2 MSTORE PUSH1 0x20 PUSH1 0x4 DUP3 ADD MSTORE PUSH1 0x19 PUSH1 0x24 DUP3 ADD MSTORE PUSH32 0x4552433732313A20617070726F766520746F2063616C6C657200000000000000 PUSH1 0x44 DUP3 ADD MSTORE PUSH1 0x64 SWAP1 REVERT JUMPDEST CALLVALUE PUSH2 0x1E9 JUMPI PUSH1 0x20 DUP1 PUSH1 0x3 NOT CALLDATASIZE ADD SLT PUSH2 0x1E9 JUMPI PUSH1 0x4 CALLDATALOAD SWAP1 DUP2 PUSH1 0x0 MSTORE PUSH1 0xF DUP2 MSTORE PUSH1 0xFF PUSH1 0x40 PUSH1 0x0 KECCAK256 SLOAD AND ISZERO PUSH2 0x775 JUMPI DUP2 PUSH1 0x0 MSTORE PUSH1 0x12 DUP2 MSTORE PUSH1 0x40 PUSH1 0x0 KECCAK256 SLOAD PUSH3 0x15180 DUP2 ADD DUP1 SWAP2 GT PUSH2 0x75F JUMPI TIMESTAMP GT ISZERO PUSH2 0x722 JUMPI PUSH1 0x0 DUP3 DUP2 MSTORE PUSH1 0xA DUP3 MSTORE PUSH1 0x40 SWAP1 KECCAK256 PUSH1 0x1 ADD DUP1 SLOAD PUSH1 0x1 PUSH1 0x1 PUSH1 0xA0 SHL SUB SWAP3 SWAP1 DUP4 AND CALLER EQ DUP1 ISZERO PUSH2 0x715 JUMPI JUMPDEST ISZERO PUSH2 0x6E0 JUMPI PUSH1 0x10 SWAP1 DUP5 PUSH1 0x0 MSTORE PUSH1 0xF DUP2 MSTORE PUSH1 0x40 PUSH1 0x0 KECCAK256 PUSH1 0xFF NOT DUP2 SLOAD AND SWAP1 SSTORE PUSH1 0x12 DUP2 MSTORE PUSH1 0x0 PUSH1 0x40 DUP2 KECCAK256 SSTORE MSTORE PUSH1 0x0 PUSH1 0x40 DUP2 KECCAK256 SSTORE SLOAD AND SWAP1 PUSH32 0xAD5D1DA63A71147A146DAA2D4C6CDC9AB57B00BD41306F855D0AFE41C5ED2840 PUSH1 0x0 DUP1 LOG3 STOP JUMPDEST PUSH1 0x64 SWAP1 PUSH1 0x40 MLOAD SWAP1 PUSH3 0x461BCD PUSH1 0xE5 SHL DUP3 MSTORE PUSH1 0x4 DUP3 ADD MSTORE PUSH1 0xE PUSH1 0x24 DUP3 ADD MSTORE PUSH14 0x139BDD08185D5D1A1BDC9A5E9959 PUSH1 0x92 SHL PUSH1 0x44 DUP3 ADD MSTORE REVERT JUMPDEST POP DUP3 PUSH1 0x0 SLOAD AND CALLER EQ PUSH2 0x686 JUMP JUMPDEST PUSH1 0x64 SWAP1 PUSH1 0x40 MLOAD SWAP1 PUSH3 0x461BCD PUSH1 0xE5 SHL DUP3 MSTORE PUSH1 0x4 DUP3 ADD MSTORE PUSH1 0x16 PUSH1 0x24 DUP3 ADD MSTORE PUSH22 0x151C985B9CD9995C881B9BDD081D1A5B5959081BDD5D PUSH1 0x52 SHL PUSH1 0x44 DUP3 ADD MSTORE REVERT JUMPDEST PUSH4 0x4E487B71 PUSH1 0xE0 SHL PUSH1 0x0 MSTORE PUSH1 0x11 PUSH1 0x4 MSTORE PUSH1 0x24 PUSH1 0x0 REVERT JUMPDEST PUSH1 0x64 SWAP1 PUSH1 0x40 MLOAD SWAP1 PUSH3 0x461BCD PUSH1 0xE5 SHL DUP3 MSTORE PUSH1 0x4 DUP3 ADD MSTORE PUSH1 0x13 PUSH1 0x24 DUP3 ADD MSTORE PUSH19 0x2737903832B73234B733903A3930B739B332B9 PUSH1 0x69 SHL PUSH1 0x44 DUP3 ADD MSTORE REVERT JUMPDEST CALLVALUE PUSH2 0x1E9 JUMPI PUSH1 0x20 CALLDATASIZE PUSH1 0x3 NOT ADD SLT PUSH2 0x1E9 JUMPI PUSH1 0x4 CALLDATALOAD PUSH1 0x0 MSTORE PUSH1 0x10 PUSH1 0x20 MSTORE PUSH1 0x20 PUSH1 0x40 PUSH1 0x0 KECCAK256 SLOAD PUSH1 0x40 MLOAD SWAP1 DUP2 MSTORE RETURN JUMPDEST CALLVALUE PUSH2 0x1E9 JUMPI PUSH1 0x0 CALLDATASIZE PUSH1 0x3 NOT ADD SLT PUSH2 0x1E9 JUMPI PUSH1 0x40 MLOAD PUSH1 0x0 PUSH1 0x3 SLOAD PUSH2 0x7FD DUP2 PUSH2 0x6364 JUMP JUMPDEST DUP1 DUP5 MSTORE SWAP1 PUSH1 0x1 SWAP1 DUP2 DUP2 AND SWAP1 DUP2 ISZERO PUSH2 0x896 JUMPI POP PUSH1 0x1 EQ PUSH2 0x83B JUMPI JUMPDEST PUSH2 0x3D0 DUP5 PUSH2 0x827 DUP2 DUP7 SUB DUP3 PUSH2 0x5E09 JUMP JUMPDEST PUSH1 0x40 MLOAD SWAP2 DUP3 SWAP2 PUSH1 0x20 DUP4 MSTORE PUSH1 0x20 DUP4 ADD SWAP1 PUSH2 0x5D4B JUMP JUMPDEST PUSH1 0x3 PUSH1 0x0 SWAP1 DUP2 MSTORE SWAP3 POP PUSH32 0xC2575A0E9E593C00F959F8C92F12DB2869C3395A3B0502D05E2516446F71F85B JUMPDEST DUP3 DUP5 LT PUSH2 0x87E JUMPI POP POP POP DUP2 ADD PUSH1 0x20 ADD PUSH2 0x827 DUP3 PUSH2 0x817 JUMP JUMPDEST DUP1 SLOAD PUSH1 0x20 DUP6 DUP8 ADD DUP2 ADD SWAP2 SWAP1 SWAP2 MSTORE SWAP1 SWAP4 ADD SWAP3 DUP2 ADD PUSH2 0x866 JUMP JUMPDEST PUSH1 0xFF NOT AND PUSH1 0x20 DUP1 DUP8 ADD SWAP2 SWAP1 SWAP2 MSTORE SWAP3 ISZERO ISZERO PUSH1 0x5 SHL DUP6 ADD SWAP1 SWAP3 ADD SWAP3 POP PUSH2 0x827 SWAP2 POP DUP4 SWAP1 POP PUSH2 0x817 JUMP JUMPDEST CALLVALUE PUSH2 0x1E9 JUMPI PUSH1 0x0 CALLDATASIZE PUSH1 0x3 NOT ADD SLT PUSH2 0x1E9 JUMPI PUSH1 0x0 SLOAD PUSH1 0x40 MLOAD PUSH1 0x1 PUSH1 0x1 PUSH1 0xA0 SHL SUB SWAP1 SWAP2 AND DUP2 MSTORE PUSH1 0x20 SWAP1 RETURN JUMPDEST CALLVALUE PUSH2 0x1E9 JUMPI PUSH1 0x20 CALLDATASIZE PUSH1 0x3 NOT ADD SLT PUSH2 0x1E9 JUMPI PUSH1 0x4 CALLDATALOAD PUSH1 0x0 MSTORE PUSH1 0x13 PUSH1 0x20 MSTORE PUSH1 0x20 PUSH1 0xFF PUSH1 0x40 PUSH1 0x0 KECCAK256 SLOAD AND PUSH1 0x40 MLOAD SWAP1 ISZERO ISZERO DUP2 MSTORE RETURN JUMPDEST CALLVALUE PUSH2 0x1E9 JUMPI PUSH1 0x0 CALLDATASIZE PUSH1 0x3 NOT ADD SLT PUSH2 0x1E9 JUMPI PUSH1 0x20 PUSH1 0x40 MLOAD PUSH3 0x15180 DUP2 MSTORE RETURN JUMPDEST CALLVALUE PUSH2 0x1E9 JUMPI PUSH1 0x20 CALLDATASIZE PUSH1 0x3 NOT ADD SLT PUSH2 0x1E9 JUMPI PUSH1 0x4 CALLDATALOAD PUSH1 0x0 MSTORE PUSH1 0xF PUSH1 0x20 MSTORE PUSH1 0x20 PUSH1 0xFF PUSH1 0x40 PUSH1 0x0 KECCAK256 SLOAD AND PUSH1 0x40 MLOAD SWAP1 ISZERO ISZERO DUP2 MSTORE RETURN JUMPDEST CALLVALUE PUSH2 0x1E9 JUMPI PUSH1 0x20 CALLDATASIZE PUSH1 0x3 NOT ADD SLT PUSH2 0x1E9 JUMPI PUSH2 0x97F PUSH2 0x5D70 JUMP JUMPDEST PUSH2 0x987 PUSH2 0x629D JUMP JUMPDEST PUSH1 0x1 PUSH1 0x1 PUSH1 0xA0 SHL SUB AND PUSH1 0x0 SWAP1 DUP2 MSTORE PUSH1 0xD PUSH1 0x20 MSTORE PUSH1 0x40 SWAP1 KECCAK256 DUP1 SLOAD PUSH1 0xFF NOT AND SWAP1 SSTORE STOP JUMPDEST CALLVALUE PUSH2 0x1E9 JUMPI PUSH1 0x0 CALLDATASIZE PUSH1 0x3 NOT ADD SLT PUSH2 0x1E9 JUMPI PUSH2 0x9C1 PUSH2 0x629D JUMP JUMPDEST PUSH1 0x0 DUP1 SLOAD PUSH1 0x1 PUSH1 0x1 PUSH1 0xA0 SHL SUB NOT DUP2 AND DUP3 SSTORE PUSH1 0x1 PUSH1 0x1 PUSH1 0xA0 SHL SUB AND PUSH32 0x8BE0079C531659141344CD1FD0A4F28419497F9722A3DAAFE3B4186F6B6457E0 DUP3 DUP1 LOG3 STOP JUMPDEST CALLVALUE PUSH2 0x1E9 JUMPI PUSH1 0x20 CALLDATASIZE PUSH1 0x3 NOT ADD SLT PUSH2 0x1E9 JUMPI PUSH1 0x1 PUSH1 0x1 PUSH1 0xA0 SHL SUB PUSH2 0xA22 PUSH2 0x5D70 JUMP JUMPDEST AND DUP1 ISZERO PUSH2 0xA41 JUMPI PUSH1 0x0 MSTORE PUSH1 0x5 PUSH1 0x20 MSTORE PUSH1 0x20 PUSH1 0x40 PUSH1 0x0 KECCAK256 SLOAD PUSH1 0x40 MLOAD SWAP1 DUP2 MSTORE RETURN JUMPDEST PUSH1 0x40 MLOAD PUSH3 0x461BCD PUSH1 0xE5 SHL DUP2 MSTORE PUSH1 0x20 PUSH1 0x4 DUP3 ADD MSTORE PUSH1 0x29 PUSH1 0x24 DUP3 ADD MSTORE PUSH32 0x4552433732313A2061646472657373207A65726F206973206E6F742061207661 PUSH1 0x44 DUP3 ADD MSTORE PUSH9 0x3634B21037BBB732B9 PUSH1 0xB9 SHL PUSH1 0x64 DUP3 ADD MSTORE PUSH1 0x84 SWAP1 REVERT JUMPDEST CALLVALUE PUSH2 0x1E9 JUMPI PUSH1 0x20 CALLDATASIZE PUSH1 0x3 NOT ADD SLT PUSH2 0x1E9 JUMPI PUSH2 0xAB1 PUSH2 0x5D70 JUMP JUMPDEST PUSH2 0xAB9 PUSH2 0x629D JUMP JUMPDEST PUSH1 0x1 PUSH1 0x1 PUSH1 0xA0 SHL SUB AND DUP1 ISZERO PUSH2 0xAE3 JUMPI PUSH1 0x0 SWAP1 DUP2 MSTORE PUSH1 0xD PUSH1 0x20 MSTORE PUSH1 0x40 SWAP1 KECCAK256 DUP1 SLOAD PUSH1 0xFF NOT AND PUSH1 0x1 OR SWAP1 SSTORE STOP JUMPDEST PUSH1 0x40 MLOAD PUSH3 0x461BCD PUSH1 0xE5 SHL DUP2 MSTORE PUSH1 0x20 PUSH1 0x4 DUP3 ADD MSTORE PUSH1 0xD PUSH1 0x24 DUP3 ADD MSTORE PUSH13 0x24B73B30B634B2103A37B5B2B7 PUSH1 0x99 SHL PUSH1 0x44 DUP3 ADD MSTORE PUSH1 0x64 SWAP1 REVERT JUMPDEST PUSH1 0x20 CALLDATASIZE PUSH1 0x3 NOT ADD SLT PUSH2 0x1E9 JUMPI PUSH2 0xB2C PUSH2 0x6997 JUMP JUMPDEST PUSH1 0x4 CALLDATALOAD PUSH1 0x0 SWAP1 DUP2 MSTORE PUSH1 0xA PUSH1 0x20 MSTORE PUSH1 0x40 SWAP1 KECCAK256 PUSH1 0x1 ADD SLOAD PUSH2 0xB55 SWAP1 PUSH1 0x1 PUSH1 0x1 PUSH1 0xA0 SHL SUB AND ISZERO ISZERO PUSH2 0x6B41 JUMP JUMPDEST PUSH1 0x4 CALLDATALOAD PUSH1 0x0 MSTORE PUSH1 0xA PUSH1 0x20 MSTORE PUSH2 0xB78 PUSH1 0xFF PUSH1 0x14 PUSH1 0x40 PUSH1 0x0 KECCAK256 ADD SLOAD PUSH1 0x8 SHR AND ISZERO PUSH2 0x6B82 JUMP JUMPDEST PUSH1 0x4 CALLDATALOAD PUSH1 0x0 MSTORE PUSH1 0xA PUSH1 0x20 MSTORE PUSH1 0x40 PUSH1 0x0 KECCAK256 PUSH1 0xFF PUSH1 0x14 DUP3 ADD SLOAD AND ISZERO DUP1 PUSH2 0x13FC JUMPI JUMPDEST ISZERO PUSH2 0x13C4 JUMPI PUSH1 0x16 DUP2 ADD SLOAD PUSH1 0x1 PUSH1 0x1 PUSH1 0xA0 SHL SUB AND DUP1 PUSH2 0x1139 JUMPI POP PUSH1 0xC DUP2 ADD SLOAD DUP1 CALLVALUE SUB PUSH2 0x1100 JUMPI PUSH1 0x0 DUP1 PUSH2 0x2710 PUSH2 0xBCE PUSH2 0xC33 SWAP5 PUSH2 0x6980 JUMP JUMPDEST PUSH1 0xC SLOAD PUSH1 0xF DUP8 ADD SLOAD PUSH1 0x15 DUP9 ADD SLOAD PUSH1 0x40 MLOAD PUSH4 0xEFE6A8B PUSH1 0xE0 SHL PUSH1 0x20 DUP3 ADD SWAP1 DUP2 MSTORE PUSH1 0x1 PUSH1 0x1 PUSH1 0xA0 SHL SUB SWAP4 DUP5 AND PUSH1 0x24 DUP4 ADD MSTORE PUSH1 0x44 DUP3 ADD SWAP3 SWAP1 SWAP3 MSTORE SWAP5 SWAP1 SWAP4 DIV PUSH1 0x64 DUP1 DUP7 ADD SWAP2 SWAP1 SWAP2 MSTORE DUP5 MSTORE AND SWAP2 PUSH2 0xC1F DUP2 PUSH2 0x5DB8 JUMP JUMPDEST MLOAD SWAP2 CALLVALUE SWAP1 GAS CALL PUSH2 0xC2D PUSH2 0x6724 JUMP JUMPDEST POP PUSH2 0x6EC9 JUMP JUMPDEST PUSH1 0x15 DUP2 ADD DUP1 SLOAD CHAINID EQ PUSH2 0x10B8 JUMPI SLOAD PUSH1 0x4 CALLDATALOAD PUSH1 0x0 MSTORE PUSH1 0xA PUSH1 0x20 MSTORE PUSH1 0x1 DUP1 PUSH1 0xA0 SHL SUB PUSH1 0x1 PUSH1 0x40 PUSH1 0x0 KECCAK256 ADD SLOAD AND CALLER EQ DUP1 ISZERO PUSH2 0x10A4 JUMPI JUMPDEST PUSH2 0xC6E SWAP1 PUSH2 0x6A39 JUMP JUMPDEST PUSH1 0x4 CALLDATALOAD PUSH1 0x0 MSTORE PUSH1 0xF PUSH1 0x20 MSTORE PUSH1 0xFF PUSH1 0x40 PUSH1 0x0 KECCAK256 SLOAD AND PUSH2 0x105F JUMPI CHAINID DUP2 EQ PUSH2 0x101A JUMPI PUSH1 0x4 CALLDATALOAD PUSH1 0x0 MSTORE PUSH1 0xA PUSH1 0x20 MSTORE PUSH1 0x40 PUSH1 0x0 KECCAK256 PUSH1 0x1 DUP2 ADD DUP1 SLOAD SWAP2 PUSH1 0x0 DUP1 PUSH1 0xC DUP4 ADD SLOAD SWAP5 DUP7 DUP3 PUSH2 0xE19 PUSH2 0xE25 PUSH1 0xF DUP9 ADD SWAP10 PUSH2 0xDCF DUP12 SLOAD SWAP10 PUSH1 0x13 PUSH1 0x12 DUP3 ADD SLOAD SWAP2 DUP13 PUSH1 0x40 MLOAD DUP12 PUSH1 0x20 DUP3 ADD SWAP3 PUSH1 0x4 CALLDATALOAD DUP5 MSTORE PUSH1 0x1 PUSH1 0x1 PUSH1 0x60 SHL SUB NOT DUP1 SWAP3 PUSH1 0x60 SHL AND PUSH1 0x40 DUP5 ADD MSTORE CHAINID PUSH1 0x54 DUP5 ADD MSTORE DUP9 PUSH1 0x74 DUP5 ADD MSTORE PUSH1 0x60 SHL AND PUSH1 0x94 DUP3 ADD MSTORE PUSH2 0xD40 PUSH1 0x20 DUP3 PUSH2 0xD32 DUP3 PUSH2 0xD26 PUSH2 0xD1D PUSH1 0xA8 DUP6 ADD PUSH1 0x10 DUP12 ADD PUSH2 0x70AE JUMP JUMPDEST PUSH1 0x11 DUP11 ADD PUSH2 0x70AE JUMP JUMPDEST DUP11 DUP2 MSTORE ADD DUP9 DUP9 ADD PUSH2 0x70AE JUMP JUMPDEST TIMESTAMP DUP2 MSTORE SUB DUP1 DUP5 MSTORE ADD DUP3 PUSH2 0x5E09 JUMP JUMPDEST MLOAD SWAP1 KECCAK256 SWAP13 DUP14 SWAP6 PUSH1 0x40 MLOAD SWAP12 DUP13 SWAP8 PUSH1 0x20 DUP10 ADD MSTORE PUSH1 0x4 CALLDATALOAD PUSH1 0x40 DUP10 ADD MSTORE PUSH1 0x1 DUP1 PUSH1 0xA0 SHL SUB AND PUSH1 0x60 DUP9 ADD MSTORE CHAINID PUSH1 0x80 DUP9 ADD MSTORE PUSH1 0xA0 DUP8 ADD MSTORE PUSH1 0xC0 DUP1 DUP8 ADD MSTORE PUSH1 0x1 DUP1 PUSH1 0xA0 SHL SUB AND PUSH1 0xE0 DUP7 ADD MSTORE PUSH1 0xA0 PUSH2 0x100 DUP7 ADD MSTORE PUSH2 0xD9D PUSH2 0x180 DUP7 ADD PUSH1 0x10 DUP4 ADD PUSH2 0x639E JUMP JUMPDEST PUSH2 0xDB8 PUSH1 0xDF NOT SWAP2 DUP3 DUP9 DUP3 SUB ADD PUSH2 0x120 DUP10 ADD MSTORE PUSH1 0x11 DUP5 ADD PUSH2 0x639E JUMP JUMPDEST SWAP4 PUSH2 0x140 DUP8 ADD MSTORE DUP6 DUP5 SUB ADD PUSH2 0x160 DUP7 ADD MSTORE ADD PUSH2 0x639E JUMP JUMPDEST SUB PUSH2 0xDE2 PUSH1 0x1F NOT SWAP2 DUP3 DUP2 ADD DUP9 MSTORE DUP8 PUSH2 0x5E09 JUMP JUMPDEST PUSH1 0x1 DUP1 PUSH1 0xA0 SHL SUB PUSH1 0xC SLOAD AND SWAP6 PUSH1 0x40 MLOAD SWAP4 DUP5 SWAP2 PUSH1 0x20 DUP4 ADD SWAP8 PUSH4 0xE289ADCD PUSH1 0xE0 SHL DUP10 MSTORE PUSH1 0x24 DUP5 ADD MSTORE PUSH1 0x40 PUSH1 0x44 DUP5 ADD MSTORE PUSH1 0x64 DUP4 ADD SWAP1 PUSH2 0x5D4B JUMP JUMPDEST SUB SWAP1 DUP2 ADD DUP4 MSTORE DUP3 PUSH2 0x5E09 JUMP JUMPDEST MLOAD SWAP3 GAS CALL PUSH2 0xE31 PUSH2 0x6724 JUMP JUMPDEST POP ISZERO PUSH2 0xFD5 JUMPI PUSH1 0x4 CALLDATALOAD PUSH1 0x0 MSTORE PUSH1 0xF PUSH1 0x20 MSTORE PUSH1 0x40 PUSH1 0x0 KECCAK256 PUSH1 0x1 PUSH1 0xFF NOT DUP3 SLOAD AND OR SWAP1 SSTORE PUSH1 0x12 PUSH1 0x20 MSTORE TIMESTAMP PUSH1 0x40 PUSH1 0x0 KECCAK256 SSTORE PUSH1 0x10 PUSH1 0x20 MSTORE CHAINID PUSH1 0x40 PUSH1 0x0 KECCAK256 SSTORE PUSH1 0x0 MSTORE PUSH1 0x11 PUSH1 0x20 MSTORE PUSH1 0x4 CALLDATALOAD PUSH1 0x40 PUSH1 0x0 KECCAK256 SSTORE PUSH1 0x1 DUP1 PUSH1 0xA0 SHL SUB SWAP1 SLOAD AND SWAP1 PUSH1 0x1 DUP1 PUSH1 0xA0 SHL SUB SWAP1 SLOAD AND SWAP2 PUSH1 0x40 MLOAD SWAP1 CHAINID DUP3 MSTORE PUSH1 0x20 DUP3 ADD MSTORE PUSH32 0x1E5EF349341852F5F199E2BCE07397E4D55C83226632236095641C8AF9AF549F PUSH1 0x40 PUSH1 0x4 CALLDATALOAD SWAP3 LOG4 JUMPDEST PUSH1 0x1 PUSH1 0x9 SLOAD ADD SWAP1 DUP2 PUSH1 0x9 SSTORE PUSH1 0x4 CALLDATALOAD PUSH1 0x0 MSTORE PUSH1 0xB PUSH1 0x20 MSTORE PUSH1 0x40 PUSH1 0x0 KECCAK256 PUSH1 0xC DUP3 ADD SWAP3 DUP4 SLOAD PUSH1 0x40 MLOAD SWAP2 PUSH2 0xEF5 DUP4 PUSH2 0x5DD3 JUMP JUMPDEST DUP3 MSTORE PUSH1 0x20 DUP3 ADD SWAP1 PUSH1 0x4 CALLDATALOAD DUP3 MSTORE PUSH1 0x40 DUP4 ADD SWAP1 DUP2 MSTORE PUSH1 0x60 DUP4 ADD SWAP4 CALLER DUP6 MSTORE DUP1 SLOAD PUSH1 0x1 PUSH1 0x40 SHL DUP2 LT ISZERO PUSH2 0xFBF JUMPI PUSH2 0xF2D SWAP2 PUSH1 0x1 DUP3 ADD DUP2 SSTORE PUSH2 0x6EAD JUMP JUMPDEST SWAP3 SWAP1 SWAP3 PUSH2 0xFA9 JUMPI PUSH1 0x3 SWAP4 MLOAD DUP4 SSTORE MLOAD PUSH1 0x1 DUP4 ADD SSTORE MLOAD PUSH1 0x2 DUP3 ADD SSTORE ADD SWAP1 PUSH1 0x1 DUP1 PUSH1 0xA0 SHL SUB SWAP1 MLOAD AND PUSH1 0x1 PUSH1 0x1 PUSH1 0x60 SHL SUB PUSH1 0xA0 SHL DUP3 SLOAD AND OR SWAP1 SSTORE PUSH1 0xF PUSH1 0x1 DUP1 PUSH1 0xA0 SHL SUB SWAP2 ADD SLOAD AND SWAP1 SLOAD SWAP1 PUSH1 0x40 MLOAD SWAP2 DUP3 MSTORE CALLER SWAP2 PUSH32 0x8205A71867F7292BCEF9E53D4774758D6173B03F63017DEC9A03A6664B429DC5 PUSH1 0x20 PUSH1 0x4 CALLDATALOAD SWAP3 LOG4 PUSH1 0x1 DUP1 SSTORE STOP JUMPDEST PUSH4 0x4E487B71 PUSH1 0xE0 SHL PUSH1 0x0 MSTORE PUSH1 0x0 PUSH1 0x4 MSTORE PUSH1 0x24 PUSH1 0x0 REVERT JUMPDEST PUSH4 0x4E487B71 PUSH1 0xE0 SHL PUSH1 0x0 MSTORE PUSH1 0x41 PUSH1 0x4 MSTORE PUSH1 0x24 PUSH1 0x0 REVERT JUMPDEST PUSH1 0x40 MLOAD PUSH3 0x461BCD PUSH1 0xE5 SHL DUP2 MSTORE PUSH1 0x20 PUSH1 0x4 DUP3 ADD MSTORE PUSH1 0x1B PUSH1 0x24 DUP3 ADD MSTORE PUSH32 0x4661696C656420746F20696E697469617465207472616E736665720000000000 PUSH1 0x44 DUP3 ADD MSTORE PUSH1 0x64 SWAP1 REVERT JUMPDEST PUSH1 0x40 MLOAD PUSH3 0x461BCD PUSH1 0xE5 SHL DUP2 MSTORE PUSH1 0x20 PUSH1 0x4 DUP3 ADD MSTORE PUSH1 0x1F PUSH1 0x24 DUP3 ADD MSTORE PUSH32 0x53616D6520636861696E207472616E73666572206E6F7420616C6C6F77656400 PUSH1 0x44 DUP3 ADD MSTORE PUSH1 0x64 SWAP1 REVERT JUMPDEST PUSH1 0x40 MLOAD PUSH3 0x461BCD PUSH1 0xE5 SHL DUP2 MSTORE PUSH1 0x20 PUSH1 0x4 DUP3 ADD MSTORE PUSH1 0x18 PUSH1 0x24 DUP3 ADD MSTORE PUSH32 0x5472616E7366657220616C72656164792070656E64696E670000000000000000 PUSH1 0x44 DUP3 ADD MSTORE PUSH1 0x64 SWAP1 REVERT JUMPDEST POP PUSH1 0x0 SLOAD PUSH1 0x1 PUSH1 0x1 PUSH1 0xA0 SHL SUB AND CALLER EQ PUSH2 0xC65 JUMP JUMPDEST POP PUSH1 0x14 DUP2 ADD DUP1 SLOAD PUSH1 0xFF NOT AND PUSH1 0x1 SWAP1 DUP2 OR SWAP1 SWAP2 SSTORE DUP2 ADD DUP1 SLOAD PUSH1 0x1 PUSH1 0x1 PUSH1 0xA0 SHL SUB NOT AND CALLER SWAP1 DUP2 OR SWAP1 SWAP2 SSTORE PUSH1 0xF DUP3 ADD SLOAD PUSH2 0x10FB SWAP2 PUSH1 0x4 CALLDATALOAD SWAP2 PUSH1 0x1 PUSH1 0x1 PUSH1 0xA0 SHL SUB AND PUSH2 0x6613 JUMP JUMPDEST PUSH2 0xEC6 JUMP JUMPDEST PUSH1 0x40 MLOAD PUSH3 0x461BCD PUSH1 0xE5 SHL DUP2 MSTORE PUSH1 0x20 PUSH1 0x4 DUP3 ADD MSTORE PUSH1 0x11 PUSH1 0x24 DUP3 ADD MSTORE PUSH17 0x125B98DBDC9C9958DD081C185E5B595B9D PUSH1 0x7A SHL PUSH1 0x44 DUP3 ADD MSTORE PUSH1 0x64 SWAP1 REVERT JUMPDEST CALLVALUE PUSH2 0x138C JUMPI PUSH1 0xC DUP3 ADD SLOAD SWAP1 PUSH2 0x118A PUSH2 0x2710 PUSH2 0x1153 DUP5 PUSH2 0x6980 JUMP JUMPDEST DIV SWAP3 PUSH1 0x40 MLOAD SWAP1 PUSH4 0x23B872DD PUSH1 0xE0 SHL PUSH1 0x20 DUP4 ADD MSTORE CALLER PUSH1 0x24 DUP4 ADD MSTORE ADDRESS PUSH1 0x44 DUP4 ADD MSTORE PUSH1 0x64 DUP3 ADD MSTORE PUSH1 0x64 DUP2 MSTORE PUSH2 0x1184 DUP2 PUSH2 0x5DB8 JUMP JUMPDEST DUP3 PUSH2 0x6F0E JUMP JUMPDEST PUSH1 0xC DUP1 SLOAD SWAP1 DUP5 ADD SLOAD SWAP1 PUSH1 0x1 PUSH1 0x1 PUSH1 0xA0 SHL SUB AND DUP2 ISZERO DUP1 ISZERO PUSH2 0x1314 JUMPI JUMPDEST ISZERO PUSH2 0x12B0 JUMPI PUSH2 0x11D6 SWAP2 PUSH1 0x40 MLOAD SWAP2 PUSH4 0x95EA7B3 PUSH1 0xE0 SHL PUSH1 0x20 DUP5 ADD MSTORE PUSH1 0x24 DUP4 ADD MSTORE PUSH1 0x44 DUP3 ADD MSTORE PUSH1 0x44 DUP2 MSTORE PUSH2 0x1184 DUP2 PUSH2 0x5DD3 JUMP JUMPDEST PUSH1 0xC DUP1 SLOAD PUSH1 0x16 DUP6 ADD SLOAD PUSH1 0xF DUP7 ADD SLOAD SWAP3 DUP7 ADD SLOAD PUSH1 0x15 DUP8 ADD SLOAD PUSH1 0x40 MLOAD PUSH4 0x201BD06F PUSH1 0xE1 SHL PUSH1 0x20 DUP3 ADD MSTORE PUSH1 0x1 PUSH1 0x1 PUSH1 0xA0 SHL SUB SWAP4 DUP5 AND PUSH1 0x24 DUP3 ADD MSTORE SWAP5 DUP4 AND PUSH1 0x44 DUP7 ADD MSTORE PUSH1 0x64 DUP6 ADD SWAP2 SWAP1 SWAP2 MSTORE PUSH1 0x84 DUP5 ADD MSTORE PUSH1 0xA4 DUP1 DUP5 ADD SWAP6 SWAP1 SWAP6 MSTORE SWAP4 DUP3 MSTORE SWAP1 SWAP3 AND PUSH1 0x1 PUSH1 0x1 PUSH1 0x40 SHL SUB PUSH1 0xE0 DUP5 ADD SWAP1 DUP2 GT SWAP1 DUP5 GT OR PUSH2 0xFBF JUMPI PUSH1 0x0 DUP1 DUP5 PUSH2 0x126C SWAP4 PUSH1 0xE0 PUSH2 0x12AB SWAP8 ADD PUSH1 0x40 MSTORE DUP3 PUSH1 0x20 DUP4 MLOAD SWAP4 ADD SWAP2 GAS CALL PUSH2 0xC2D PUSH2 0x6724 JUMP JUMPDEST PUSH1 0xC SLOAD PUSH1 0x40 MLOAD PUSH4 0x95EA7B3 PUSH1 0xE0 SHL PUSH1 0x20 DUP3 ADD MSTORE PUSH1 0x1 PUSH1 0x1 PUSH1 0xA0 SHL SUB SWAP1 SWAP2 AND PUSH1 0x24 DUP3 ADD MSTORE PUSH1 0x0 PUSH1 0x44 DUP1 DUP4 ADD SWAP2 SWAP1 SWAP2 MSTORE DUP2 MSTORE SWAP1 PUSH2 0x12A6 DUP3 PUSH2 0x5DD3 JUMP JUMPDEST PUSH2 0x6F0E JUMP JUMPDEST PUSH2 0xC33 JUMP JUMPDEST PUSH1 0x40 MLOAD PUSH3 0x461BCD PUSH1 0xE5 SHL DUP2 MSTORE PUSH1 0x20 PUSH1 0x4 DUP3 ADD MSTORE PUSH1 0x36 PUSH1 0x24 DUP3 ADD MSTORE PUSH32 0x5361666545524332303A20617070726F76652066726F6D206E6F6E2D7A65726F PUSH1 0x44 DUP3 ADD MSTORE PUSH22 0x20746F206E6F6E2D7A65726F20616C6C6F77616E6365 PUSH1 0x50 SHL PUSH1 0x64 DUP3 ADD MSTORE PUSH1 0x84 SWAP1 REVERT JUMPDEST POP PUSH1 0x40 MLOAD PUSH4 0x6EB1769F PUSH1 0xE1 SHL DUP2 MSTORE ADDRESS PUSH1 0x4 DUP3 ADD MSTORE PUSH1 0x24 DUP2 ADD DUP3 SWAP1 MSTORE PUSH1 0x20 DUP2 PUSH1 0x44 DUP2 DUP8 GAS STATICCALL SWAP1 DUP2 ISZERO PUSH2 0x1380 JUMPI PUSH1 0x0 SWAP2 PUSH2 0x134E JUMPI JUMPDEST POP ISZERO PUSH2 0x11A5 JUMP JUMPDEST SWAP1 POP PUSH1 0x20 DUP2 RETURNDATASIZE PUSH1 0x20 GT PUSH2 0x1378 JUMPI JUMPDEST DUP2 PUSH2 0x1369 PUSH1 0x20 SWAP4 DUP4 PUSH2 0x5E09 JUMP JUMPDEST DUP2 ADD SUB SLT PUSH2 0x1E9 JUMPI MLOAD DUP7 PUSH2 0x1347 JUMP JUMPDEST RETURNDATASIZE SWAP2 POP PUSH2 0x135C JUMP JUMPDEST PUSH1 0x40 MLOAD RETURNDATASIZE PUSH1 0x0 DUP3 RETURNDATACOPY RETURNDATASIZE SWAP1 REVERT JUMPDEST PUSH1 0x40 MLOAD PUSH3 0x461BCD PUSH1 0xE5 SHL DUP2 MSTORE PUSH1 0x20 PUSH1 0x4 DUP3 ADD MSTORE PUSH1 0x10 PUSH1 0x24 DUP3 ADD MSTORE PUSH16 0x115512081B9BDD081858D8D95C1D1959 PUSH1 0x82 SHL PUSH1 0x44 DUP3 ADD MSTORE PUSH1 0x64 SWAP1 REVERT JUMPDEST PUSH1 0x40 MLOAD PUSH3 0x461BCD PUSH1 0xE5 SHL DUP2 MSTORE PUSH1 0x20 PUSH1 0x4 DUP3 ADD MSTORE PUSH1 0x10 PUSH1 0x24 DUP3 ADD MSTORE PUSH16 0x496E76616C6964207075726368617365 PUSH1 0x80 SHL PUSH1 0x44 DUP3 ADD MSTORE PUSH1 0x64 SWAP1 REVERT JUMPDEST POP PUSH1 0x1 DUP2 ADD SLOAD PUSH1 0x1 PUSH1 0x1 PUSH1 0xA0 SHL SUB AND CALLER EQ ISZERO PUSH2 0xB97 JUMP JUMPDEST CALLVALUE PUSH2 0x1E9 JUMPI PUSH1 0x3 NOT PUSH1 0xC0 CALLDATASIZE DUP3 ADD SLT PUSH2 0x1E9 JUMPI PUSH1 0x1 PUSH1 0x1 PUSH1 0x40 SHL SUB PUSH1 0x4 CALLDATALOAD GT PUSH2 0x1E9 JUMPI PUSH1 0xE0 DUP2 PUSH1 0x4 CALLDATALOAD CALLDATASIZE SUB ADD SLT PUSH2 0x1E9 JUMPI PUSH1 0x1 PUSH1 0x1 PUSH1 0x40 SHL SUB PUSH1 0x24 CALLDATALOAD GT PUSH2 0x1E9 JUMPI PUSH1 0xC0 DUP2 PUSH1 0x24 CALLDATALOAD CALLDATASIZE SUB ADD SLT PUSH2 0x1E9 JUMPI PUSH1 0x1 PUSH1 0x1 PUSH1 0x40 SHL SUB PUSH1 0x44 CALLDATALOAD GT PUSH2 0x1E9 JUMPI PUSH1 0x60 DUP2 PUSH1 0x44 CALLDATALOAD CALLDATASIZE SUB ADD SLT PUSH2 0x1E9 JUMPI PUSH1 0x64 CALLDATALOAD SWAP1 DUP2 PUSH2 0x1A0 MSTORE PUSH1 0x1 PUSH1 0x1 PUSH1 0x40 SHL SUB DUP3 GT PUSH2 0x1E9 JUMPI PUSH1 0xA0 SWAP2 CALLDATASIZE SUB ADD SLT PUSH2 0x1E9 JUMPI PUSH1 0xA4 CALLDATALOAD PUSH2 0x140 DUP2 SWAP1 MSTORE PUSH1 0x1 PUSH1 0x1 PUSH1 0xA0 SHL SUB DUP2 AND SUB PUSH2 0x1E9 JUMPI PUSH2 0x14C1 PUSH2 0x6997 JUMP JUMPDEST PUSH2 0x140 MLOAD PUSH1 0x1 PUSH1 0x1 PUSH1 0xA0 SHL SUB AND PUSH1 0x0 SWAP1 DUP2 MSTORE PUSH1 0xD PUSH1 0x20 MSTORE PUSH1 0x40 SWAP1 KECCAK256 SLOAD PUSH1 0xFF AND ISZERO PUSH2 0x294A JUMPI PUSH2 0x1A0 MLOAD PUSH1 0x4 ADD PUSH1 0x1 PUSH1 0x1 PUSH1 0xA0 SHL SUB PUSH2 0x14FD DUP3 PUSH2 0x68CA JUMP JUMPDEST AND CALLER EQ SWAP1 DUP2 PUSH2 0x292E JUMPI JUMPDEST POP ISZERO PUSH2 0x28F8 JUMPI PUSH1 0xA4 PUSH1 0x24 CALLDATALOAD ADD CALLDATALOAD ISZERO PUSH2 0x28C3 JUMPI PUSH2 0x152D PUSH1 0x24 PUSH1 0x4 CALLDATALOAD ADD PUSH1 0x4 CALLDATALOAD PUSH1 0x4 ADD PUSH2 0x68DE JUMP JUMPDEST SWAP1 POP ISZERO PUSH2 0x2892 JUMPI PUSH4 0x1E13380 TIMESTAMP DIV PUSH2 0x7B2 DUP2 ADD LT PUSH2 0x75F JUMPI PUSH2 0x7B2 PUSH4 0x1E13380 TIMESTAMP DIV ADD PUSH1 0xA4 PUSH1 0x4 CALLDATALOAD ADD CALLDATALOAD GT PUSH2 0x285E JUMPI PUSH4 0x3B9ACA00 PUSH1 0x24 CALLDATALOAD PUSH1 0x4 ADD CALLDATALOAD LT ISZERO PUSH2 0x2827 JUMPI PUSH1 0x8 DUP1 SLOAD PUSH1 0x1 ADD SWAP1 DUP2 SWAP1 SSTORE PUSH2 0x1587 PUSH1 0x4 DUP1 CALLDATALOAD ADD DUP1 PUSH2 0x6913 JUMP JUMPDEST PUSH2 0x1E0 MSTORE PUSH2 0x159F PUSH1 0x24 PUSH1 0x4 CALLDATALOAD ADD PUSH1 0x4 CALLDATALOAD PUSH1 0x4 ADD PUSH2 0x68DE JUMP JUMPDEST PUSH2 0x15B6 PUSH1 0x44 PUSH1 0x4 SWAP5 SWAP4 SWAP5 CALLDATALOAD ADD PUSH1 0x4 CALLDATALOAD PUSH1 0x4 ADD PUSH2 0x6913 JUMP JUMPDEST SWAP1 PUSH2 0x15CB PUSH1 0x64 PUSH1 0x4 CALLDATALOAD ADD PUSH1 0x4 CALLDATALOAD PUSH1 0x4 ADD PUSH2 0x6913 JUMP JUMPDEST SWAP1 PUSH2 0x15E0 PUSH1 0x84 PUSH1 0x4 CALLDATALOAD ADD PUSH1 0x4 CALLDATALOAD PUSH1 0x4 ADD PUSH2 0x6913 JUMP JUMPDEST SWAP2 SWAP1 SWAP3 PUSH2 0x15F6 PUSH1 0x24 DUP1 CALLDATALOAD ADD PUSH1 0x24 CALLDATALOAD PUSH1 0x4 ADD PUSH2 0x6913 JUMP JUMPDEST SWAP6 SWAP1 SWAP7 PUSH1 0x3 PUSH1 0x44 PUSH1 0x24 CALLDATALOAD ADD CALLDATALOAD LT ISZERO PUSH2 0x1E9 JUMPI PUSH1 0x2 PUSH1 0x64 PUSH1 0x24 CALLDATALOAD ADD CALLDATALOAD LT ISZERO PUSH2 0x1E9 JUMPI PUSH1 0x4 PUSH1 0x84 PUSH1 0x24 CALLDATALOAD ADD CALLDATALOAD LT ISZERO PUSH2 0x1E9 JUMPI DUP12 SWAP11 PUSH2 0x1637 PUSH1 0x4 PUSH1 0x44 CALLDATALOAD ADD DUP1 PUSH2 0x6913 JUMP JUMPDEST SWAP11 SWAP1 SWAP12 PUSH1 0x44 CALLDATALOAD PUSH1 0x44 ADD PUSH1 0x44 CALLDATALOAD PUSH1 0x4 ADD SWAP1 PUSH2 0x1650 SWAP2 PUSH2 0x68DE JUMP JUMPDEST SWAP15 SWAP1 PUSH2 0x100 MSTORE PUSH1 0x40 MLOAD DUP1 PUSH2 0x120 MSTORE PUSH2 0x1667 SWAP1 PUSH2 0x5D9C JUMP JUMPDEST PUSH2 0x120 MLOAD MSTORE CALLER PUSH2 0x120 MLOAD PUSH1 0x20 ADD MSTORE CALLDATASIZE PUSH2 0x1E0 MLOAD PUSH2 0x1683 SWAP3 PUSH2 0x5E45 JUMP JUMPDEST PUSH2 0x120 MLOAD PUSH1 0x40 ADD MSTORE CALLDATASIZE SWAP1 PUSH2 0x1696 SWAP3 PUSH2 0x5EB1 JUMP JUMPDEST PUSH2 0x120 MLOAD PUSH1 0x60 ADD MSTORE CALLDATASIZE SWAP1 PUSH2 0x16A9 SWAP3 PUSH2 0x5E45 JUMP JUMPDEST PUSH2 0x120 MLOAD PUSH1 0x80 ADD MSTORE CALLDATASIZE SWAP1 PUSH2 0x16BC SWAP3 PUSH2 0x5E45 JUMP JUMPDEST PUSH2 0x120 MLOAD PUSH1 0xA0 ADD MSTORE CALLDATASIZE SWAP1 PUSH2 0x16CF SWAP3 PUSH2 0x5E45 JUMP JUMPDEST PUSH2 0x120 MLOAD PUSH1 0xC0 ADD MSTORE PUSH1 0x4 CALLDATALOAD PUSH1 0xA4 ADD CALLDATALOAD PUSH2 0x120 MLOAD PUSH1 0xE0 ADD MSTORE PUSH1 0x4 CALLDATALOAD PUSH1 0xC4 ADD CALLDATALOAD PUSH2 0x120 MLOAD PUSH2 0x100 ADD MSTORE PUSH1 0x24 CALLDATALOAD PUSH1 0x4 ADD CALLDATALOAD PUSH2 0x120 MLOAD PUSH2 0x120 ADD MSTORE CALLDATASIZE SWAP1 PUSH2 0x1711 SWAP3 PUSH2 0x5E45 JUMP JUMPDEST PUSH2 0x120 MLOAD PUSH2 0x140 ADD MSTORE PUSH1 0x24 CALLDATALOAD PUSH1 0x44 ADD CALLDATALOAD PUSH2 0x120 MLOAD PUSH2 0x160 ADD SWAP1 PUSH2 0x1733 SWAP2 PUSH2 0x6945 JUMP JUMPDEST PUSH1 0x24 CALLDATALOAD PUSH1 0x64 ADD CALLDATALOAD PUSH2 0x120 MLOAD PUSH2 0x180 ADD SWAP1 PUSH2 0x174C SWAP2 PUSH2 0x6951 JUMP JUMPDEST PUSH1 0x24 CALLDATALOAD PUSH1 0x84 ADD CALLDATALOAD PUSH2 0x120 MLOAD PUSH2 0x1A0 ADD SWAP1 PUSH2 0x1765 SWAP2 PUSH2 0x695D JUMP JUMPDEST PUSH1 0x24 CALLDATALOAD PUSH1 0xA4 ADD CALLDATALOAD PUSH2 0x120 MLOAD PUSH2 0x1C0 ADD MSTORE CALLDATASIZE SWAP1 PUSH2 0x1780 SWAP3 PUSH2 0x5E45 JUMP JUMPDEST PUSH2 0x120 MLOAD PUSH2 0x1E0 ADD MSTORE CALLDATASIZE PUSH2 0x100 MLOAD SWAP2 PUSH2 0x1798 SWAP3 PUSH2 0x5EB1 JUMP JUMPDEST PUSH2 0x120 MLOAD PUSH2 0x200 ADD MSTORE CALLDATASIZE PUSH2 0x1A0 MLOAD PUSH1 0x4 ADD SWAP1 PUSH2 0x17B3 SWAP2 PUSH2 0x5F3B JUMP JUMPDEST PUSH2 0x120 MLOAD PUSH2 0x220 ADD MSTORE PUSH2 0x120 MLOAD PUSH2 0x240 ADD PUSH1 0x0 SWAP1 MSTORE PUSH2 0x120 MLOAD PUSH2 0x260 ADD PUSH1 0x0 SWAP1 MSTORE PUSH1 0x84 CALLDATALOAD PUSH2 0x120 MLOAD PUSH2 0x280 ADD MSTORE PUSH1 0x1 PUSH1 0xA0 SHL PUSH1 0x1 SWAP1 SUB PUSH2 0x140 MLOAD AND PUSH2 0x120 MLOAD PUSH2 0x2A0 ADD MSTORE PUSH2 0x120 MLOAD PUSH2 0x2C0 ADD PUSH1 0x0 SWAP1 MSTORE DUP1 PUSH1 0x0 MSTORE PUSH1 0xA PUSH1 0x20 MSTORE PUSH1 0x40 PUSH1 0x0 KECCAK256 PUSH2 0x120 MLOAD DUP1 MLOAD DUP3 SSTORE PUSH1 0x1 PUSH1 0xA0 SHL PUSH1 0x1 SWAP1 SUB PUSH1 0x20 DUP3 ADD MLOAD AND PUSH1 0x1 PUSH1 0x1 PUSH1 0x60 SHL SUB PUSH1 0xA0 SHL PUSH1 0x1 DUP5 ADD SLOAD AND OR PUSH1 0x1 DUP4 ADD SSTORE PUSH1 0x40 ADD MLOAD SWAP2 DUP3 MLOAD PUSH1 0x1 PUSH1 0x1 PUSH1 0x40 SHL SUB DUP2 GT PUSH2 0xFBF JUMPI PUSH2 0x1861 PUSH1 0x2 DUP5 ADD SLOAD PUSH2 0x6364 JUMP JUMPDEST PUSH1 0x1F DUP2 GT PUSH2 0x27F2 JUMPI JUMPDEST POP PUSH1 0x20 PUSH1 0x1F DUP3 GT PUSH1 0x1 EQ PUSH2 0x2784 JUMPI DUP2 SWAP3 SWAP4 SWAP5 PUSH1 0x0 SWAP3 PUSH2 0x2779 JUMPI JUMPDEST POP POP DUP2 PUSH1 0x1 SHL SWAP2 PUSH1 0x0 NOT SWAP1 PUSH1 0x3 SHL SHR NOT AND OR PUSH1 0x2 DUP4 ADD SSTORE JUMPDEST PUSH1 0x60 PUSH2 0x120 MLOAD ADD MLOAD DUP1 MLOAD SWAP1 PUSH1 0x1 PUSH1 0x40 SHL DUP3 GT PUSH2 0xFBF JUMPI PUSH1 0x3 DUP5 ADD SLOAD DUP3 PUSH1 0x3 DUP7 ADD SSTORE DUP1 DUP4 LT PUSH2 0x2701 JUMPI JUMPDEST POP PUSH1 0x20 ADD SWAP1 PUSH1 0x3 DUP5 ADD PUSH1 0x0 MSTORE PUSH1 0x20 PUSH1 0x0 KECCAK256 SWAP2 PUSH1 0x0 SWAP1 JUMPDEST DUP3 DUP3 LT PUSH2 0x25E1 JUMPI DUP6 DUP6 PUSH1 0x80 PUSH2 0x120 MLOAD ADD MLOAD SWAP2 DUP3 MLOAD PUSH1 0x1 PUSH1 0x1 PUSH1 0x40 SHL SUB DUP2 GT PUSH2 0xFBF JUMPI PUSH2 0x190A PUSH1 0x4 DUP4 ADD SLOAD PUSH2 0x6364 JUMP JUMPDEST PUSH1 0x1F DUP2 GT PUSH2 0x25AC JUMPI JUMPDEST POP PUSH1 0x20 PUSH1 0x1F DUP3 GT PUSH1 0x1 EQ PUSH2 0x253E JUMPI DUP2 SWAP3 SWAP4 SWAP5 PUSH1 0x0 SWAP3 PUSH2 0x2533 JUMPI JUMPDEST POP POP DUP2 PUSH1 0x1 SHL SWAP2 PUSH1 0x0 NOT SWAP1 PUSH1 0x3 SHL SHR NOT AND OR PUSH1 0x4 DUP3 ADD SSTORE JUMPDEST PUSH1 0xA0 PUSH2 0x120 MLOAD ADD MLOAD SWAP2 DUP3 MLOAD PUSH1 0x1 PUSH1 0x1 PUSH1 0x40 SHL SUB DUP2 GT PUSH2 0xFBF JUMPI PUSH2 0x196B PUSH1 0x5 DUP5 ADD SLOAD PUSH2 0x6364 JUMP JUMPDEST PUSH1 0x1F DUP2 GT PUSH2 0x24FE JUMPI JUMPDEST POP PUSH1 0x20 PUSH1 0x1F DUP3 GT PUSH1 0x1 EQ PUSH2 0x2490 JUMPI DUP2 SWAP3 SWAP4 SWAP5 PUSH1 0x0 SWAP3 PUSH2 0x2485 JUMPI JUMPDEST POP POP DUP2 PUSH1 0x1 SHL SWAP2 PUSH1 0x0 NOT SWAP1 PUSH1 0x3 SHL SHR NOT AND OR PUSH1 0x5 DUP4 ADD SSTORE JUMPDEST PUSH1 0xC0 PUSH2 0x120 MLOAD ADD MLOAD SWAP2 DUP3 MLOAD PUSH1 0x1 PUSH1 0x1 PUSH1 0x40 SHL SUB DUP2 GT PUSH2 0xFBF JUMPI PUSH2 0x19CC PUSH1 0x6 DUP4 ADD SLOAD PUSH2 0x6364 JUMP JUMPDEST PUSH1 0x1F DUP2 GT PUSH2 0x2450 JUMPI JUMPDEST POP PUSH1 0x20 PUSH1 0x1F DUP3 GT PUSH1 0x1 EQ PUSH2 0x23E2 JUMPI DUP2 SWAP3 SWAP4 SWAP5 PUSH1 0x0 SWAP3 PUSH2 0x23D7 JUMPI JUMPDEST POP POP DUP2 PUSH1 0x1 SHL SWAP2 PUSH1 0x0 NOT SWAP1 PUSH1 0x3 SHL SHR NOT AND OR PUSH1 0x6 DUP3 ADD SSTORE JUMPDEST PUSH2 0x140 PUSH2 0x120 MLOAD PUSH1 0xE0 DUP2 ADD MLOAD PUSH1 0x7 DUP5 ADD SSTORE PUSH2 0x100 DUP2 ADD MLOAD PUSH1 0x8 DUP5 ADD SSTORE PUSH2 0x120 DUP2 ADD MLOAD PUSH1 0x9 DUP5 ADD SSTORE ADD MLOAD SWAP2 DUP3 MLOAD PUSH1 0x1 PUSH1 0x1 PUSH1 0x40 SHL SUB DUP2 GT PUSH2 0xFBF JUMPI PUSH2 0x1A4E PUSH1 0xA DUP5 ADD SLOAD PUSH2 0x6364 JUMP JUMPDEST PUSH1 0x1F DUP2 GT PUSH2 0x23A2 JUMPI JUMPDEST POP PUSH1 0x20 PUSH1 0x1F DUP3 GT PUSH1 0x1 EQ PUSH2 0x2334 JUMPI DUP2 SWAP3 SWAP4 SWAP5 PUSH1 0x0 SWAP3 PUSH2 0x2329 JUMPI JUMPDEST POP POP DUP2 PUSH1 0x1 SHL SWAP2 PUSH1 0x0 NOT SWAP1 PUSH1 0x3 SHL SHR NOT AND OR PUSH1 0xA DUP4 ADD SSTORE JUMPDEST PUSH2 0x120 MLOAD PUSH2 0x160 DUP2 ADD MLOAD SWAP1 PUSH1 0x3 DUP3 LT ISZERO PUSH2 0x2313 JUMPI PUSH1 0xB DUP5 ADD SLOAD SWAP2 PUSH2 0x180 DUP3 ADD MLOAD PUSH1 0x2 DUP2 LT ISZERO PUSH2 0x2313 JUMPI PUSH2 0x1A0 DUP4 ADD MLOAD PUSH1 0x4 DUP2 LT ISZERO PUSH2 0x2313 JUMPI PUSH2 0x1E0 SWAP5 PUSH1 0xFF PUSH3 0xFF0000 PUSH2 0xFF00 SWAP4 PUSH1 0x10 SHL AND SWAP5 AND SWAP1 PUSH3 0xFFFFFF NOT AND OR SWAP2 PUSH1 0x8 SHL AND OR OR PUSH1 0xB DUP6 ADD SSTORE PUSH2 0x1C0 DUP2 ADD MLOAD PUSH1 0xC DUP6 ADD SSTORE ADD MLOAD SWAP2 DUP3 MLOAD PUSH1 0x1 PUSH1 0x1 PUSH1 0x40 SHL SUB DUP2 GT PUSH2 0xFBF JUMPI PUSH2 0x1B14 PUSH1 0xD DUP4 ADD SLOAD PUSH2 0x6364 JUMP JUMPDEST PUSH1 0x1F DUP2 GT PUSH2 0x22DE JUMPI JUMPDEST POP PUSH1 0x20 PUSH1 0x1F DUP3 GT PUSH1 0x1 EQ PUSH2 0x2270 JUMPI DUP2 SWAP3 SWAP4 SWAP5 PUSH1 0x0 SWAP3 PUSH2 0x2265 JUMPI JUMPDEST POP POP DUP2 PUSH1 0x1 SHL SWAP2 PUSH1 0x0 NOT SWAP1 PUSH1 0x3 SHL SHR NOT AND OR PUSH1 0xD DUP3 ADD SSTORE JUMPDEST PUSH2 0x200 PUSH2 0x120 MLOAD ADD MLOAD DUP1 MLOAD SWAP1 PUSH1 0x1 PUSH1 0x40 SHL DUP3 GT PUSH2 0xFBF JUMPI PUSH1 0xE DUP4 ADD SLOAD DUP3 PUSH1 0xE DUP6 ADD SSTORE DUP1 DUP4 LT PUSH2 0x21ED JUMPI JUMPDEST POP PUSH1 0x20 ADD SWAP1 PUSH1 0xE DUP4 ADD PUSH1 0x0 MSTORE PUSH1 0x20 PUSH1 0x0 KECCAK256 SWAP2 PUSH1 0x0 SWAP1 JUMPDEST DUP3 DUP3 LT PUSH2 0x20D8 JUMPI DUP6 DUP6 PUSH1 0xF DUP2 ADD SWAP1 PUSH2 0x220 PUSH2 0x120 MLOAD ADD MLOAD SWAP2 PUSH1 0x1 DUP1 PUSH1 0xA0 SHL SUB DUP4 MLOAD AND PUSH1 0x1 PUSH1 0x1 PUSH1 0x60 SHL SUB PUSH1 0xA0 SHL DUP3 SLOAD AND OR SWAP1 SSTORE PUSH1 0x20 DUP3 ADD MLOAD SWAP3 DUP4 MLOAD PUSH1 0x1 PUSH1 0x1 PUSH1 0x40 SHL SUB DUP2 GT PUSH2 0xFBF JUMPI PUSH2 0x1BE5 PUSH1 0x10 DUP5 ADD SLOAD PUSH2 0x6364 JUMP JUMPDEST PUSH1 0x1F DUP2 GT PUSH2 0x20A3 JUMPI JUMPDEST POP PUSH1 0x20 PUSH1 0x1F DUP3 GT PUSH1 0x1 EQ PUSH2 0x2034 JUMPI DUP2 SWAP3 SWAP4 SWAP5 SWAP6 PUSH1 0x0 SWAP3 PUSH2 0x2029 JUMPI JUMPDEST POP POP DUP2 PUSH1 0x1 SHL SWAP2 PUSH1 0x0 NOT SWAP1 PUSH1 0x3 SHL SHR NOT AND OR PUSH1 0x10 DUP4 ADD SSTORE JUMPDEST PUSH1 0x40 DUP4 ADD MLOAD SWAP3 DUP4 MLOAD PUSH1 0x1 PUSH1 0x1 PUSH1 0x40 SHL SUB DUP2 GT PUSH2 0xFBF JUMPI PUSH2 0x1C44 PUSH1 0x11 DUP6 ADD SLOAD PUSH2 0x6364 JUMP JUMPDEST PUSH1 0x1F DUP2 GT PUSH2 0x1FF4 JUMPI JUMPDEST POP PUSH1 0x20 PUSH1 0x1F DUP3 GT PUSH1 0x1 EQ PUSH2 0x1F81 JUMPI DUP2 SWAP1 PUSH1 0x80 SWAP5 SWAP6 SWAP7 PUSH1 0x0 SWAP3 PUSH2 0x1F76 JUMPI JUMPDEST POP POP DUP2 PUSH1 0x1 SHL SWAP2 PUSH1 0x0 NOT SWAP1 PUSH1 0x3 SHL SHR NOT AND OR PUSH1 0x11 DUP6 ADD SSTORE JUMPDEST PUSH1 0x60 DUP2 ADD MLOAD PUSH1 0x12 DUP6 ADD SSTORE ADD MLOAD SWAP2 DUP3 MLOAD PUSH1 0x1 PUSH1 0x1 PUSH1 0x40 SHL SUB DUP2 GT PUSH2 0xFBF JUMPI PUSH2 0x1CAC PUSH1 0x13 DUP4 ADD SLOAD PUSH2 0x6364 JUMP JUMPDEST PUSH1 0x1F DUP2 GT PUSH2 0x1F36 JUMPI JUMPDEST POP PUSH1 0x20 PUSH1 0x1F DUP3 GT PUSH1 0x1 EQ PUSH2 0x1EC8 JUMPI DUP2 SWAP3 SWAP4 SWAP5 PUSH1 0x0 SWAP3 PUSH2 0x1EBD JUMPI JUMPDEST POP POP DUP2 PUSH1 0x1 SHL SWAP2 PUSH1 0x0 NOT SWAP1 PUSH1 0x3 SHL SHR NOT AND OR PUSH1 0x13 DUP3 ADD SSTORE JUMPDEST PUSH1 0x17 PUSH2 0x2C0 PUSH1 0x14 DUP4 ADD PUSH2 0x1D31 PUSH2 0x120 MLOAD SWAP2 PUSH2 0x1D15 PUSH2 0x240 DUP5 ADD MLOAD ISZERO ISZERO DUP3 SWAP1 PUSH1 0xFF DUP1 NOT DUP4 SLOAD AND SWAP2 ISZERO ISZERO AND OR SWAP1 SSTORE JUMP JUMPDEST PUSH2 0x260 DUP4 ADD MLOAD DUP2 SLOAD PUSH2 0xFF00 NOT AND SWAP1 ISZERO ISZERO PUSH1 0x8 SHL PUSH2 0xFF00 AND OR SWAP1 SSTORE JUMP JUMPDEST PUSH2 0x280 DUP2 ADD MLOAD PUSH1 0x15 DUP6 ADD SSTORE PUSH1 0x16 DUP5 ADD PUSH1 0x1 DUP1 PUSH1 0xA0 SHL SUB PUSH2 0x2A0 DUP4 ADD MLOAD AND PUSH1 0x1 PUSH1 0x1 PUSH1 0x60 SHL SUB PUSH1 0xA0 SHL DUP3 SLOAD AND OR SWAP1 SSTORE ADD MLOAD SWAP2 ADD SSTORE DUP1 PUSH1 0x0 MSTORE PUSH1 0xE PUSH1 0x20 MSTORE PUSH1 0x84 CALLDATALOAD PUSH1 0x40 PUSH1 0x0 KECCAK256 SSTORE PUSH1 0x40 MLOAD PUSH2 0x1D82 DUP2 PUSH2 0x5DEE JUMP JUMPDEST PUSH1 0x0 DUP2 MSTORE CALLER ISZERO PUSH2 0x1E79 JUMPI PUSH1 0x0 DUP3 DUP2 MSTORE PUSH1 0x4 PUSH1 0x20 MSTORE PUSH1 0x40 SWAP1 KECCAK256 SLOAD PUSH2 0x1E40 SWAP2 PUSH2 0x443 SWAP2 PUSH2 0x1DB9 SWAP1 PUSH1 0x1 PUSH1 0x1 PUSH1 0xA0 SHL SUB AND ISZERO ISZERO JUMPDEST ISZERO PUSH2 0x69ED JUMP JUMPDEST PUSH1 0x0 DUP5 DUP2 MSTORE PUSH1 0x4 PUSH1 0x20 MSTORE PUSH1 0x40 SWAP1 KECCAK256 SLOAD PUSH2 0x1DDC SWAP1 PUSH1 0x1 PUSH1 0x1 PUSH1 0xA0 SHL SUB AND ISZERO ISZERO PUSH2 0x1DB3 JUMP JUMPDEST CALLER PUSH1 0x0 MSTORE PUSH1 0x5 PUSH1 0x20 MSTORE PUSH1 0x40 PUSH1 0x0 KECCAK256 PUSH1 0x1 DUP2 SLOAD ADD SWAP1 SSTORE DUP4 PUSH1 0x0 MSTORE PUSH1 0x4 PUSH1 0x20 MSTORE PUSH1 0x40 PUSH1 0x0 KECCAK256 CALLER PUSH1 0x1 PUSH1 0x1 PUSH1 0x60 SHL SUB PUSH1 0xA0 SHL DUP3 SLOAD AND OR SWAP1 SSTORE DUP4 CALLER PUSH1 0x0 PUSH32 0xDDF252AD1BE2C89B69C2B068FC378DAA952BA7F163C4A11628F55A4DF523B3EF DUP2 DUP1 LOG4 DUP4 CALLER PUSH2 0x6754 JUMP JUMPDEST PUSH1 0x40 MLOAD SWAP1 PUSH1 0xA4 PUSH1 0x24 CALLDATALOAD ADD CALLDATALOAD DUP3 MSTORE PUSH32 0x346237025E4B201CFBDB8011C7AFCD8A0CC16C50E910D6AC5645AB7406BE429D PUSH1 0x20 CALLER SWAP4 LOG3 PUSH1 0x1 DUP1 SSTORE STOP JUMPDEST PUSH1 0x64 PUSH1 0x40 MLOAD PUSH3 0x461BCD PUSH1 0xE5 SHL DUP2 MSTORE PUSH1 0x20 PUSH1 0x4 DUP3 ADD MSTORE PUSH1 0x20 PUSH1 0x24 DUP3 ADD MSTORE PUSH32 0x4552433732313A206D696E7420746F20746865207A65726F2061646472657373 PUSH1 0x44 DUP3 ADD MSTORE REVERT JUMPDEST ADD MLOAD SWAP1 POP DUP5 DUP1 PUSH2 0x1CCF JUMP JUMPDEST PUSH1 0x13 DUP4 ADD PUSH1 0x0 MSTORE PUSH1 0x20 PUSH1 0x0 KECCAK256 SWAP1 PUSH1 0x0 JUMPDEST PUSH1 0x1F NOT DUP5 AND DUP2 LT PUSH2 0x1F1E JUMPI POP PUSH1 0x1 SWAP4 SWAP5 SWAP6 DUP4 PUSH1 0x1F NOT DUP2 AND LT PUSH2 0x1F05 JUMPI JUMPDEST POP POP POP DUP2 SHL ADD PUSH1 0x13 DUP3 ADD SSTORE PUSH2 0x1CE7 JUMP JUMPDEST ADD MLOAD PUSH1 0x0 NOT PUSH1 0xF8 DUP5 PUSH1 0x3 SHL AND SHR NOT AND SWAP1 SSTORE DUP5 DUP1 DUP1 PUSH2 0x1EF5 JUMP JUMPDEST SWAP1 SWAP2 PUSH1 0x20 PUSH1 0x1 DUP2 SWAP3 DUP6 DUP11 ADD MLOAD DUP2 SSTORE ADD SWAP4 ADD SWAP2 ADD PUSH2 0x1ED8 JUMP JUMPDEST PUSH2 0x1F66 SWAP1 PUSH1 0x13 DUP5 ADD PUSH1 0x0 MSTORE PUSH1 0x20 PUSH1 0x0 KECCAK256 PUSH1 0x1F DUP5 ADD PUSH1 0x5 SHR DUP2 ADD SWAP2 PUSH1 0x20 DUP6 LT PUSH2 0x1F6C JUMPI JUMPDEST PUSH1 0x1F ADD PUSH1 0x5 SHR ADD SWAP1 PUSH2 0x6969 JUMP JUMPDEST DUP5 PUSH2 0x1CB5 JUMP JUMPDEST SWAP1 SWAP2 POP DUP2 SWAP1 PUSH2 0x1F59 JUMP JUMPDEST ADD MLOAD SWAP1 POP DUP7 DUP1 PUSH2 0x1C6A JUMP JUMPDEST PUSH1 0x11 DUP6 ADD PUSH1 0x0 MSTORE PUSH1 0x20 PUSH1 0x0 KECCAK256 SWAP6 PUSH1 0x0 JUMPDEST PUSH1 0x1F NOT DUP5 AND DUP2 LT PUSH2 0x1FDC JUMPI POP SWAP6 DUP3 SWAP2 PUSH1 0x80 SWAP6 SWAP7 SWAP8 PUSH1 0x1 SWAP5 PUSH1 0x1F NOT DUP2 AND LT PUSH2 0x1FC3 JUMPI JUMPDEST POP POP POP DUP2 SHL ADD PUSH1 0x11 DUP6 ADD SSTORE PUSH2 0x1C82 JUMP JUMPDEST ADD MLOAD PUSH1 0x0 NOT PUSH1 0xF8 DUP5 PUSH1 0x3 SHL AND SHR NOT AND SWAP1 SSTORE DUP7 DUP1 DUP1 PUSH2 0x1FB3 JUMP JUMPDEST DUP3 DUP3 ADD MLOAD DUP9 SSTORE PUSH1 0x1 SWAP1 SWAP8 ADD SWAP7 PUSH1 0x20 SWAP3 DUP4 ADD SWAP3 ADD PUSH2 0x1F91 JUMP JUMPDEST PUSH2 0x2023 SWAP1 PUSH1 0x11 DUP7 ADD PUSH1 0x0 MSTORE PUSH1 0x20 PUSH1 0x0 KECCAK256 PUSH1 0x1F DUP5 ADD PUSH1 0x5 SHR DUP2 ADD SWAP2 PUSH1 0x20 DUP6 LT PUSH2 0x1F6C JUMPI PUSH1 0x1F ADD PUSH1 0x5 SHR ADD SWAP1 PUSH2 0x6969 JUMP JUMPDEST DUP6 PUSH2 0x1C4D JUMP JUMPDEST ADD MLOAD SWAP1 POP DUP6 DUP1 PUSH2 0x1C09 JUMP JUMPDEST PUSH1 0x10 DUP5 ADD PUSH1 0x0 MSTORE PUSH1 0x20 PUSH1 0x0 KECCAK256 SWAP1 PUSH1 0x0 JUMPDEST PUSH1 0x1F NOT DUP5 AND DUP2 LT PUSH2 0x208B JUMPI POP PUSH1 0x1 SWAP4 SWAP5 SWAP6 SWAP7 DUP4 PUSH1 0x1F NOT DUP2 AND LT PUSH2 0x2072 JUMPI JUMPDEST POP POP POP DUP2 SHL ADD PUSH1 0x10 DUP4 ADD SSTORE PUSH2 0x1C21 JUMP JUMPDEST ADD MLOAD PUSH1 0x0 NOT PUSH1 0xF8 DUP5 PUSH1 0x3 SHL AND SHR NOT AND SWAP1 SSTORE DUP6 DUP1 DUP1 PUSH2 0x2062 JUMP JUMPDEST SWAP1 SWAP2 PUSH1 0x20 PUSH1 0x1 DUP2 SWAP3 DUP6 DUP12 ADD MLOAD DUP2 SSTORE ADD SWAP4 ADD SWAP2 ADD PUSH2 0x2044 JUMP JUMPDEST PUSH2 0x20D2 SWAP1 PUSH1 0x10 DUP6 ADD PUSH1 0x0 MSTORE PUSH1 0x20 PUSH1 0x0 KECCAK256 PUSH1 0x1F DUP5 ADD PUSH1 0x5 SHR DUP2 ADD SWAP2 PUSH1 0x20 DUP6 LT PUSH2 0x1F6C JUMPI PUSH1 0x1F ADD PUSH1 0x5 SHR ADD SWAP1 PUSH2 0x6969 JUMP JUMPDEST DUP6 PUSH2 0x1BEE JUMP JUMPDEST DUP1 MLOAD DUP1 MLOAD SWAP1 PUSH1 0x1 PUSH1 0x1 PUSH1 0x40 SHL SUB DUP3 GT PUSH2 0xFBF JUMPI PUSH2 0x20F5 DUP7 SLOAD PUSH2 0x6364 JUMP JUMPDEST PUSH1 0x1F DUP2 GT PUSH2 0x21BB JUMPI JUMPDEST POP PUSH1 0x20 SWAP1 PUSH1 0x1F DUP4 GT PUSH1 0x1 EQ PUSH2 0x214B JUMPI SWAP3 DUP3 PUSH1 0x1 SWAP5 SWAP4 PUSH1 0x20 SWAP4 DUP7 SWAP6 PUSH1 0x0 SWAP3 PUSH2 0x2140 JUMPI JUMPDEST POP POP PUSH1 0x0 NOT PUSH1 0x3 DUP4 SWAP1 SHL SHR NOT AND SWAP1 DUP5 SHL OR DUP8 SSTORE JUMPDEST ADD SWAP5 ADD SWAP2 ADD SWAP1 SWAP3 PUSH2 0x1B8F JUMP JUMPDEST ADD MLOAD SWAP1 POP DUP12 DUP1 PUSH2 0x2120 JUMP JUMPDEST SWAP1 DUP7 PUSH1 0x0 MSTORE PUSH1 0x20 PUSH1 0x0 KECCAK256 SWAP2 PUSH1 0x0 JUMPDEST PUSH1 0x1F NOT DUP6 AND DUP2 LT PUSH2 0x21A3 JUMPI POP DUP4 PUSH1 0x20 SWAP4 PUSH1 0x1 SWAP7 SWAP4 DUP8 SWAP7 SWAP4 DUP8 SWAP5 PUSH1 0x1F NOT DUP2 AND LT PUSH2 0x218A JUMPI JUMPDEST POP POP POP DUP2 SHL ADD DUP8 SSTORE PUSH2 0x2134 JUMP JUMPDEST ADD MLOAD PUSH1 0x0 NOT PUSH1 0xF8 DUP5 PUSH1 0x3 SHL AND SHR NOT AND SWAP1 SSTORE DUP12 DUP1 DUP1 PUSH2 0x217D JUMP JUMPDEST SWAP2 SWAP3 PUSH1 0x20 PUSH1 0x1 DUP2 SWAP3 DUP7 DUP6 ADD MLOAD DUP2 SSTORE ADD SWAP5 ADD SWAP3 ADD PUSH2 0x2159 JUMP JUMPDEST PUSH2 0x21E7 SWAP1 DUP8 PUSH1 0x0 MSTORE PUSH1 0x20 PUSH1 0x0 KECCAK256 PUSH1 0x1F DUP6 ADD PUSH1 0x5 SHR DUP2 ADD SWAP2 PUSH1 0x20 DUP7 LT PUSH2 0x1F6C JUMPI PUSH1 0x1F ADD PUSH1 0x5 SHR ADD SWAP1 PUSH2 0x6969 JUMP JUMPDEST DUP9 PUSH2 0x20FE JUMP JUMPDEST PUSH1 0xE DUP5 ADD PUSH1 0x0 MSTORE PUSH1 0x20 PUSH1 0x0 KECCAK256 SWAP1 DUP4 DUP3 ADD JUMPDEST DUP2 DUP4 ADD DUP2 LT PUSH2 0x220E JUMPI POP POP PUSH2 0x1B79 JUMP JUMPDEST DUP1 PUSH2 0x221B PUSH1 0x1 SWAP3 SLOAD PUSH2 0x6364 JUMP JUMPDEST DUP1 PUSH2 0x2228 JUMPI JUMPDEST POP ADD PUSH2 0x21FE JUMP JUMPDEST PUSH1 0x1F DUP2 GT DUP4 EQ PUSH2 0x223E JUMPI POP PUSH1 0x0 DUP2 SSTORE JUMPDEST DUP9 PUSH2 0x2221 JUMP JUMPDEST PUSH1 0x0 SWAP1 DUP3 DUP3 MSTORE PUSH2 0x225C PUSH1 0x1F PUSH1 0x20 DUP5 KECCAK256 SWAP3 ADD PUSH1 0x5 SHR DUP3 ADD DUP6 DUP4 ADD PUSH2 0x6969 JUMP JUMPDEST DUP2 DUP4 SSTORE SSTORE PUSH2 0x2238 JUMP JUMPDEST ADD MLOAD SWAP1 POP DUP5 DUP1 PUSH2 0x1B37 JUMP JUMPDEST PUSH1 0xD DUP4 ADD PUSH1 0x0 MSTORE PUSH1 0x20 PUSH1 0x0 KECCAK256 SWAP1 PUSH1 0x0 JUMPDEST PUSH1 0x1F NOT DUP5 AND DUP2 LT PUSH2 0x22C6 JUMPI POP PUSH1 0x1 SWAP4 SWAP5 SWAP6 DUP4 PUSH1 0x1F NOT DUP2 AND LT PUSH2 0x22AD JUMPI JUMPDEST POP POP POP DUP2 SHL ADD PUSH1 0xD DUP3 ADD SSTORE PUSH2 0x1B4F JUMP JUMPDEST ADD MLOAD PUSH1 0x0 NOT PUSH1 0xF8 DUP5 PUSH1 0x3 SHL AND SHR NOT AND SWAP1 SSTORE DUP5 DUP1 DUP1 PUSH2 0x229D JUMP JUMPDEST SWAP1 SWAP2 PUSH1 0x20 PUSH1 0x1 DUP2 SWAP3 DUP6 DUP11 ADD MLOAD DUP2 SSTORE ADD SWAP4 ADD SWAP2 ADD PUSH2 0x2280 JUMP JUMPDEST PUSH2 0x230D SWAP1 PUSH1 0xD DUP5 ADD PUSH1 0x0 MSTORE PUSH1 0x20 PUSH1 0x0 KECCAK256 PUSH1 0x1F DUP5 ADD PUSH1 0x5 SHR DUP2 ADD SWAP2 PUSH1 0x20 DUP6 LT PUSH2 0x1F6C JUMPI PUSH1 0x1F ADD PUSH1 0x5 SHR ADD SWAP1 PUSH2 0x6969 JUMP JUMPDEST DUP5 PUSH2 0x1B1D JUMP JUMPDEST PUSH4 0x4E487B71 PUSH1 0xE0 SHL PUSH1 0x0 MSTORE PUSH1 0x21 PUSH1 0x4 MSTORE PUSH1 0x24 PUSH1 0x0 REVERT JUMPDEST ADD MLOAD SWAP1 POP DUP5 DUP1 PUSH2 0x1A71 JUMP JUMPDEST PUSH1 0xA DUP5 ADD PUSH1 0x0 MSTORE PUSH1 0x20 PUSH1 0x0 KECCAK256 SWAP1 PUSH1 0x0 JUMPDEST PUSH1 0x1F NOT DUP5 AND DUP2 LT PUSH2 0x238A JUMPI POP PUSH1 0x1 SWAP4 SWAP5 SWAP6 DUP4 PUSH1 0x1F NOT DUP2 AND LT PUSH2 0x2371 JUMPI JUMPDEST POP POP POP DUP2 SHL ADD PUSH1 0xA DUP4 ADD SSTORE PUSH2 0x1A89 JUMP JUMPDEST ADD MLOAD PUSH1 0x0 NOT PUSH1 0xF8 DUP5 PUSH1 0x3 SHL AND SHR NOT AND SWAP1 SSTORE DUP5 DUP1 DUP1 PUSH2 0x2361 JUMP JUMPDEST SWAP1 SWAP2 PUSH1 0x20 PUSH1 0x1 DUP2 SWAP3 DUP6 DUP11 ADD MLOAD DUP2 SSTORE ADD SWAP4 ADD SWAP2 ADD PUSH2 0x2344 JUMP JUMPDEST PUSH2 0x23D1 SWAP1 PUSH1 0xA DUP6 ADD PUSH1 0x0 MSTORE PUSH1 0x20 PUSH1 0x0 KECCAK256 PUSH1 0x1F DUP5 ADD PUSH1 0x5 SHR DUP2 ADD SWAP2 PUSH1 0x20 DUP6 LT PUSH2 0x1F6C JUMPI PUSH1 0x1F ADD PUSH1 0x5 SHR ADD SWAP1 PUSH2 0x6969 JUMP JUMPDEST DUP5 PUSH2 0x1A57 JUMP JUMPDEST ADD MLOAD SWAP1 POP DUP5 DUP1 PUSH2 0x19EF JUMP JUMPDEST PUSH1 0x6 DUP4 ADD PUSH1 0x0 MSTORE PUSH1 0x20 PUSH1 0x0 KECCAK256 SWAP1 PUSH1 0x0 JUMPDEST PUSH1 0x1F NOT DUP5 AND DUP2 LT PUSH2 0x2438 JUMPI POP PUSH1 0x1 SWAP4 SWAP5 SWAP6 DUP4 PUSH1 0x1F NOT DUP2 AND LT PUSH2 0x241F JUMPI JUMPDEST POP POP POP DUP2 SHL ADD PUSH1 0x6 DUP3 ADD SSTORE PUSH2 0x1A07 JUMP JUMPDEST ADD MLOAD PUSH1 0x0 NOT PUSH1 0xF8 DUP5 PUSH1 0x3 SHL AND SHR NOT AND SWAP1 SSTORE DUP5 DUP1 DUP1 PUSH2 0x240F JUMP JUMPDEST SWAP1 SWAP2 PUSH1 0x20 PUSH1 0x1 DUP2 SWAP3 DUP6 DUP11 ADD MLOAD DUP2 SSTORE ADD SWAP4 ADD SWAP2 ADD PUSH2 0x23F2 JUMP JUMPDEST PUSH2 0x247F SWAP1 PUSH1 0x6 DUP5 ADD PUSH1 0x0 MSTORE PUSH1 0x20 PUSH1 0x0 KECCAK256 PUSH1 0x1F DUP5 ADD PUSH1 0x5 SHR DUP2 ADD SWAP2 PUSH1 0x20 DUP6 LT PUSH2 0x1F6C JUMPI PUSH1 0x1F ADD PUSH1 0x5 SHR ADD SWAP1 PUSH2 0x6969 JUMP JUMPDEST DUP5 PUSH2 0x19D5 JUMP JUMPDEST ADD MLOAD SWAP1 POP DUP5 DUP1 PUSH2 0x198E JUMP JUMPDEST PUSH1 0x5 DUP5 ADD PUSH1 0x0 MSTORE PUSH1 0x20 PUSH1 0x0 KECCAK256 SWAP1 PUSH1 0x0 JUMPDEST PUSH1 0x1F NOT DUP5 AND DUP2 LT PUSH2 0x24E6 JUMPI POP PUSH1 0x1 SWAP4 SWAP5 SWAP6 DUP4 PUSH1 0x1F NOT DUP2 AND LT PUSH2 0x24CD JUMPI JUMPDEST POP POP POP DUP2 SHL ADD PUSH1 0x5 DUP4 ADD SSTORE PUSH2 0x19A6 JUMP JUMPDEST ADD MLOAD PUSH1 0x0 NOT PUSH1 0xF8 DUP5 PUSH1 0x3 SHL AND SHR NOT AND SWAP1 SSTORE DUP5 DUP1 DUP1 PUSH2 0x24BD JUMP JUMPDEST SWAP1 SWAP2 PUSH1 0x20 PUSH1 0x1 DUP2 SWAP3 DUP6 DUP11 ADD MLOAD DUP2 SSTORE ADD SWAP4 ADD SWAP2 ADD PUSH2 0x24A0 JUMP JUMPDEST PUSH2 0x252D SWAP1 PUSH1 0x5 DUP6 ADD PUSH1 0x0 MSTORE PUSH1 0x20 PUSH1 0x0 KECCAK256 PUSH1 0x1F DUP5 ADD PUSH1 0x5 SHR DUP2 ADD SWAP2 PUSH1 0x20 DUP6 LT PUSH2 0x1F6C JUMPI PUSH1 0x1F ADD PUSH1 0x5 SHR ADD SWAP1 PUSH2 0x6969 JUMP JUMPDEST DUP5 PUSH2 0x1974 JUMP JUMPDEST ADD MLOAD SWAP1 POP DUP5 DUP1 PUSH2 0x192D JUMP JUMPDEST PUSH1 0x4 DUP4 ADD PUSH1 0x0 MSTORE PUSH1 0x20 PUSH1 0x0 KECCAK256 SWAP1 PUSH1 0x0 JUMPDEST PUSH1 0x1F NOT DUP5 AND DUP2 LT PUSH2 0x2594 JUMPI POP PUSH1 0x1 SWAP4 SWAP5 SWAP6 DUP4 PUSH1 0x1F NOT DUP2 AND LT PUSH2 0x257B JUMPI JUMPDEST POP POP POP DUP2 SHL ADD PUSH1 0x4 DUP3 ADD SSTORE PUSH2 0x1945 JUMP JUMPDEST ADD MLOAD PUSH1 0x0 NOT PUSH1 0xF8 DUP5 PUSH1 0x3 SHL AND SHR NOT AND SWAP1 SSTORE DUP5 DUP1 DUP1 PUSH2 0x256B JUMP JUMPDEST SWAP1 SWAP2 PUSH1 0x20 PUSH1 0x1 DUP2 SWAP3 DUP6 DUP11 ADD MLOAD DUP2 SSTORE ADD SWAP4 ADD SWAP2 ADD PUSH2 0x254E JUMP JUMPDEST PUSH2 0x25DB SWAP1 PUSH1 0x4 DUP5 ADD PUSH1 0x0 MSTORE PUSH1 0x20 PUSH1 0x0 KECCAK256 PUSH1 0x1F DUP5 ADD PUSH1 0x5 SHR DUP2 ADD SWAP2 PUSH1 0x20 DUP6 LT PUSH2 0x1F6C JUMPI PUSH1 0x1F ADD PUSH1 0x5 SHR ADD SWAP1 PUSH2 0x6969 JUMP JUMPDEST DUP5 PUSH2 0x1913 JUMP JUMPDEST DUP1 MLOAD DUP1 MLOAD SWAP1 PUSH1 0x1 PUSH1 0x1 PUSH1 0x40 SHL SUB DUP3 GT PUSH2 0xFBF JUMPI PUSH2 0x25FE DUP7 SLOAD PUSH2 0x6364 JUMP JUMPDEST PUSH1 0x1F DUP2 GT PUSH2 0x26C4 JUMPI JUMPDEST POP PUSH1 0x20 SWAP1 PUSH1 0x1F DUP4 GT PUSH1 0x1 EQ PUSH2 0x2654 JUMPI SWAP3 DUP3 PUSH1 0x1 SWAP5 SWAP4 PUSH1 0x20 SWAP4 DUP7 SWAP6 PUSH1 0x0 SWAP3 PUSH2 0x2649 JUMPI JUMPDEST POP POP PUSH1 0x0 NOT PUSH1 0x3 DUP4 SWAP1 SHL SHR NOT AND SWAP1 DUP5 SHL OR DUP8 SSTORE JUMPDEST ADD SWAP5 ADD SWAP2 ADD SWAP1 SWAP3 PUSH2 0x18DB JUMP JUMPDEST ADD MLOAD SWAP1 POP DUP12 DUP1 PUSH2 0x2629 JUMP JUMPDEST SWAP1 DUP7 PUSH1 0x0 MSTORE PUSH1 0x20 PUSH1 0x0 KECCAK256 SWAP2 PUSH1 0x0 JUMPDEST PUSH1 0x1F NOT DUP6 AND DUP2 LT PUSH2 0x26AC JUMPI POP DUP4 PUSH1 0x20 SWAP4 PUSH1 0x1 SWAP7 SWAP4 DUP8 SWAP7 SWAP4 DUP8 SWAP5 PUSH1 0x1F NOT DUP2 AND LT PUSH2 0x2693 JUMPI JUMPDEST POP POP POP DUP2 SHL ADD DUP8 SSTORE PUSH2 0x263D JUMP JUMPDEST ADD MLOAD PUSH1 0x0 NOT PUSH1 0xF8 DUP5 PUSH1 0x3 SHL AND SHR NOT AND SWAP1 SSTORE DUP12 DUP1 DUP1 PUSH2 0x2686 JUMP JUMPDEST SWAP2 SWAP3 PUSH1 0x20 PUSH1 0x1 DUP2 SWAP3 DUP7 DUP6 ADD MLOAD DUP2 SSTORE ADD SWAP5 ADD SWAP3 ADD PUSH2 0x2662 JUMP JUMPDEST PUSH2 0x26F1 SWAP1 DUP8 PUSH1 0x0 MSTORE PUSH1 0x20 PUSH1 0x0 KECCAK256 PUSH1 0x5 PUSH1 0x1F DUP7 ADD DUP2 SHR DUP3 ADD SWAP3 PUSH1 0x20 DUP8 LT PUSH2 0x26F7 JUMPI JUMPDEST PUSH1 0x1F ADD SWAP1 SHR ADD SWAP1 PUSH2 0x6969 JUMP JUMPDEST DUP9 PUSH2 0x2607 JUMP JUMPDEST SWAP2 SWAP3 POP DUP3 SWAP2 PUSH2 0x26E5 JUMP JUMPDEST PUSH1 0x3 DUP6 ADD PUSH1 0x0 MSTORE PUSH1 0x20 PUSH1 0x0 KECCAK256 SWAP1 DUP4 DUP3 ADD JUMPDEST DUP2 DUP4 ADD DUP2 LT PUSH2 0x2722 JUMPI POP POP PUSH2 0x18C5 JUMP JUMPDEST DUP1 PUSH2 0x272F PUSH1 0x1 SWAP3 SLOAD PUSH2 0x6364 JUMP JUMPDEST DUP1 PUSH2 0x273C JUMPI JUMPDEST POP ADD PUSH2 0x2712 JUMP JUMPDEST PUSH1 0x1F DUP2 GT DUP4 EQ PUSH2 0x2752 JUMPI POP PUSH1 0x0 DUP2 SSTORE JUMPDEST DUP9 PUSH2 0x2735 JUMP JUMPDEST PUSH1 0x0 SWAP1 DUP3 DUP3 MSTORE PUSH2 0x2770 PUSH1 0x1F PUSH1 0x20 DUP5 KECCAK256 SWAP3 ADD PUSH1 0x5 SHR DUP3 ADD DUP6 DUP4 ADD PUSH2 0x6969 JUMP JUMPDEST DUP2 DUP4 SSTORE SSTORE PUSH2 0x274C JUMP JUMPDEST ADD MLOAD SWAP1 POP DUP5 DUP1 PUSH2 0x1884 JUMP JUMPDEST PUSH1 0x2 DUP5 ADD PUSH1 0x0 MSTORE PUSH1 0x20 PUSH1 0x0 KECCAK256 SWAP1 PUSH1 0x0 JUMPDEST PUSH1 0x1F NOT DUP5 AND DUP2 LT PUSH2 0x27DA JUMPI POP PUSH1 0x1 SWAP4 SWAP5 SWAP6 DUP4 PUSH1 0x1F NOT DUP2 AND LT PUSH2 0x27C1 JUMPI JUMPDEST POP POP POP DUP2 SHL ADD PUSH1 0x2 DUP4 ADD SSTORE PUSH2 0x189C JUMP JUMPDEST ADD MLOAD PUSH1 0x0 NOT PUSH1 0xF8 DUP5 PUSH1 0x3 SHL AND SHR NOT AND SWAP1 SSTORE DUP5 DUP1 DUP1 PUSH2 0x27B1 JUMP JUMPDEST SWAP1 SWAP2 PUSH1 0x20 PUSH1 0x1 DUP2 SWAP3 DUP6 DUP11 ADD MLOAD DUP2 SSTORE ADD SWAP4 ADD SWAP2 ADD PUSH2 0x2794 JUMP JUMPDEST PUSH2 0x2821 SWAP1 PUSH1 0x2 DUP6 ADD PUSH1 0x0 MSTORE PUSH1 0x20 PUSH1 0x0 KECCAK256 PUSH1 0x1F DUP5 ADD PUSH1 0x5 SHR DUP2 ADD SWAP2 PUSH1 0x20 DUP6 LT PUSH2 0x1F6C JUMPI PUSH1 0x1F ADD PUSH1 0x5 SHR ADD SWAP1 PUSH2 0x6969 JUMP JUMPDEST DUP5 PUSH2 0x186A JUMP JUMPDEST PUSH1 0x40 MLOAD PUSH3 0x461BCD PUSH1 0xE5 SHL DUP2 MSTORE PUSH1 0x20 PUSH1 0x4 DUP3 ADD MSTORE PUSH1 0xF PUSH1 0x24 DUP3 ADD MSTORE PUSH15 0x496E76616C6964206D696C65616765 PUSH1 0x88 SHL PUSH1 0x44 DUP3 ADD MSTORE PUSH1 0x64 SWAP1 REVERT JUMPDEST PUSH1 0x40 MLOAD PUSH3 0x461BCD PUSH1 0xE5 SHL DUP2 MSTORE PUSH1 0x20 PUSH1 0x4 DUP3 ADD MSTORE PUSH1 0xC PUSH1 0x24 DUP3 ADD MSTORE PUSH12 0x24B73B30B634B2103CB2B0B9 PUSH1 0xA1 SHL PUSH1 0x44 DUP3 ADD MSTORE PUSH1 0x64 SWAP1 REVERT JUMPDEST PUSH1 0x40 MLOAD PUSH3 0x461BCD PUSH1 0xE5 SHL DUP2 MSTORE PUSH1 0x20 PUSH1 0x4 DUP3 ADD MSTORE PUSH1 0x9 PUSH1 0x24 DUP3 ADD MSTORE PUSH9 0x4E6F20696D61676573 PUSH1 0xB8 SHL PUSH1 0x44 DUP3 ADD MSTORE PUSH1 0x64 SWAP1 REVERT JUMPDEST PUSH1 0x40 MLOAD PUSH3 0x461BCD PUSH1 0xE5 SHL DUP2 MSTORE PUSH1 0x20 PUSH1 0x4 DUP3 ADD MSTORE PUSH1 0xD PUSH1 0x24 DUP3 ADD MSTORE PUSH13 0x496E76616C6964207072696365 PUSH1 0x98 SHL PUSH1 0x44 DUP3 ADD MSTORE PUSH1 0x64 SWAP1 REVERT JUMPDEST PUSH1 0x40 MLOAD PUSH3 0x461BCD PUSH1 0xE5 SHL DUP2 MSTORE PUSH1 0x20 PUSH1 0x4 DUP3 ADD MSTORE PUSH1 0xE PUSH1 0x24 DUP3 ADD MSTORE PUSH14 0x24B73B30B634B21039B2B63632B9 PUSH1 0x91 SHL PUSH1 0x44 DUP3 ADD MSTORE PUSH1 0x64 SWAP1 REVERT JUMPDEST PUSH1 0x1 PUSH1 0x1 PUSH1 0xA0 SHL SUB SWAP2 POP PUSH2 0x2941 SWAP1 PUSH2 0x68CA JUMP JUMPDEST AND ISZERO ISZERO DUP2 PUSH2 0x1507 JUMP JUMPDEST PUSH1 0x40 MLOAD PUSH3 0x461BCD PUSH1 0xE5 SHL DUP2 MSTORE PUSH1 0x20 PUSH1 0x4 DUP3 ADD MSTORE PUSH1 0x19 PUSH1 0x24 DUP3 ADD MSTORE PUSH32 0x556E737570706F72746564207061796D656E7420746F6B656E00000000000000 PUSH1 0x44 DUP3 ADD MSTORE PUSH1 0x64 SWAP1 REVERT JUMPDEST CALLVALUE PUSH2 0x1E9 JUMPI PUSH1 0x20 CALLDATASIZE PUSH1 0x3 NOT ADD SLT PUSH2 0x1E9 JUMPI PUSH1 0x1 PUSH1 0x1 PUSH1 0xA0 SHL SUB PUSH2 0x29B0 PUSH2 0x5D70 JUMP JUMPDEST AND PUSH1 0x0 MSTORE PUSH1 0xD PUSH1 0x20 MSTORE PUSH1 0x20 PUSH1 0xFF PUSH1 0x40 PUSH1 0x0 KECCAK256 SLOAD AND PUSH1 0x40 MLOAD SWAP1 ISZERO ISZERO DUP2 MSTORE RETURN JUMPDEST CALLVALUE PUSH2 0x1E9 JUMPI PUSH1 0x20 CALLDATASIZE PUSH1 0x3 NOT ADD SLT PUSH2 0x1E9 JUMPI PUSH1 0x20 PUSH2 0x29EC PUSH1 0x4 CALLDATALOAD PUSH2 0x6341 JUMP JUMPDEST PUSH1 0x40 MLOAD PUSH1 0x1 PUSH1 0x1 PUSH1 0xA0 SHL SUB SWAP1 SWAP2 AND DUP2 MSTORE RETURN JUMPDEST CALLVALUE PUSH2 0x1E9 JUMPI PUSH1 0x20 DUP1 PUSH1 0x3 NOT CALLDATASIZE ADD SLT PUSH2 0x1E9 JUMPI PUSH1 0x4 CALLDATALOAD SWAP1 PUSH2 0x2A1C PUSH2 0x6997 JUMP JUMPDEST PUSH1 0x0 DUP3 DUP2 MSTORE PUSH1 0xA DUP3 MSTORE PUSH1 0x40 SWAP1 KECCAK256 PUSH1 0x1 ADD SLOAD PUSH1 0x1 PUSH1 0x1 PUSH1 0xA0 SHL SUB SWAP1 DUP2 AND CALLER EQ DUP1 ISZERO PUSH2 0x2B67 JUMPI JUMPDEST PUSH2 0x2A4A SWAP1 PUSH2 0x6A39 JUMP JUMPDEST DUP3 PUSH1 0x0 MSTORE PUSH1 0xA DUP3 MSTORE PUSH1 0xFF PUSH1 0x14 PUSH1 0x40 PUSH1 0x0 KECCAK256 ADD SLOAD PUSH1 0x8 SHR AND PUSH2 0x2B2C JUMPI DUP3 SWAP2 PUSH1 0x0 SWAP2 DUP4 DUP4 MSTORE PUSH1 0xA DUP3 MSTORE PUSH1 0x14 PUSH1 0x40 DUP5 KECCAK256 ADD PUSH2 0x100 PUSH2 0xFF00 NOT DUP3 SLOAD AND OR SWAP1 SSTORE PUSH2 0x2A8E DUP5 PUSH2 0x6341 JUMP JUMPDEST POP PUSH1 0x4 PUSH2 0x2A9A DUP6 PUSH2 0x6341 JUMP JUMPDEST SWAP2 DUP6 DUP6 MSTORE PUSH1 0x6 DUP5 MSTORE PUSH1 0x40 DUP6 KECCAK256 SWAP3 PUSH1 0x1 PUSH1 0x1 PUSH1 0x60 SHL SUB PUSH1 0xA0 SHL SWAP4 DUP5 DUP2 SLOAD AND SWAP1 SSTORE AND SWAP3 DUP4 DUP6 MSTORE PUSH1 0x5 DUP2 MSTORE PUSH1 0x40 DUP6 KECCAK256 DUP6 NOT DUP2 SLOAD ADD SWAP1 SSTORE DUP6 DUP6 MSTORE MSTORE PUSH1 0x40 DUP4 KECCAK256 SWAP1 DUP2 SLOAD AND SWAP1 SSTORE PUSH32 0xDDF252AD1BE2C89B69C2B068FC378DAA952BA7F163C4A11628F55A4DF523B3EF DUP3 DUP1 LOG4 CALLER SWAP1 PUSH32 0x975848B3B721E792B1AFE72032F4FA971D1FAEB9BFD806CCF1FFADA5BAC8BAFE PUSH1 0x0 DUP1 LOG3 PUSH1 0x1 DUP1 SSTORE STOP JUMPDEST PUSH1 0x40 MLOAD PUSH3 0x461BCD PUSH1 0xE5 SHL DUP2 MSTORE PUSH1 0x4 DUP2 ADD DUP4 SWAP1 MSTORE PUSH1 0x13 PUSH1 0x24 DUP3 ADD MSTORE PUSH19 0x10D85C88185B1C9958591E4819195B195D1959 PUSH1 0x6A SHL PUSH1 0x44 DUP3 ADD MSTORE PUSH1 0x64 SWAP1 REVERT JUMPDEST POP PUSH1 0x0 SLOAD DUP2 AND CALLER EQ PUSH2 0x2A41 JUMP JUMPDEST CALLVALUE PUSH2 0x1E9 JUMPI PUSH1 0x20 DUP1 PUSH1 0x3 NOT CALLDATASIZE ADD SLT PUSH2 0x1E9 JUMPI PUSH1 0x4 CALLDATALOAD PUSH2 0x2B91 PUSH2 0x6A74 JUMP JUMPDEST POP PUSH1 0x0 DUP2 DUP2 MSTORE PUSH1 0xA DUP4 MSTORE PUSH1 0x40 SWAP1 KECCAK256 PUSH1 0x1 ADD SLOAD PUSH2 0x2BB7 SWAP1 PUSH1 0x1 PUSH1 0x1 PUSH1 0xA0 SHL SUB AND ISZERO ISZERO PUSH2 0x6B41 JUMP JUMPDEST DUP1 PUSH1 0x0 MSTORE PUSH1 0xA DUP3 MSTORE PUSH2 0x2BD7 PUSH1 0xFF PUSH1 0x14 PUSH1 0x40 PUSH1 0x0 KECCAK256 ADD SLOAD PUSH1 0x8 SHR AND ISZERO PUSH2 0x6B82 JUMP JUMPDEST PUSH1 0x0 MSTORE PUSH1 0xA DUP2 MSTORE PUSH2 0x2BEB PUSH1 0x40 PUSH1 0x0 KECCAK256 PUSH2 0x6C31 JUMP JUMPDEST SWAP1 PUSH2 0x3D0 PUSH1 0x40 MLOAD SWAP3 DUP3 DUP5 SWAP4 DUP5 MSTORE DUP4 ADD SWAP1 PUSH2 0x6062 JUMP JUMPDEST CALLVALUE PUSH2 0x1E9 JUMPI PUSH1 0x0 CALLDATASIZE PUSH1 0x3 NOT ADD SLT PUSH2 0x1E9 JUMPI PUSH1 0xC SLOAD PUSH1 0x40 MLOAD PUSH1 0x1 PUSH1 0x1 PUSH1 0xA0 SHL SUB SWAP1 SWAP2 AND DUP2 MSTORE PUSH1 0x20 SWAP1 RETURN JUMPDEST CALLVALUE PUSH2 0x1E9 JUMPI PUSH2 0x448 PUSH2 0x443 PUSH2 0x2C3D CALLDATASIZE PUSH2 0x5FD8 JUMP JUMPDEST SWAP1 PUSH1 0x40 MLOAD SWAP3 PUSH2 0x2C4B DUP5 PUSH2 0x5DEE JUMP JUMPDEST PUSH1 0x0 DUP5 MSTORE PUSH2 0x433 PUSH2 0x42E DUP5 CALLER PUSH2 0x654B JUMP JUMPDEST CALLVALUE PUSH2 0x1E9 JUMPI PUSH1 0x40 CALLDATASIZE PUSH1 0x3 NOT ADD SLT PUSH2 0x1E9 JUMPI PUSH1 0x4 CALLDATALOAD PUSH1 0x0 MSTORE PUSH1 0xA PUSH1 0x20 MSTORE PUSH1 0x1 DUP1 PUSH1 0xA0 SHL SUB PUSH1 0x1 PUSH1 0x40 PUSH1 0x0 KECCAK256 ADD SLOAD AND CALLER EQ DUP1 ISZERO PUSH2 0x2EE1 JUMPI JUMPDEST PUSH2 0x2C9B SWAP1 PUSH2 0x6A39 JUMP JUMPDEST PUSH1 0x4 CALLDATALOAD PUSH1 0x0 MSTORE PUSH1 0xF PUSH1 0x20 MSTORE PUSH1 0xFF PUSH1 0x40 PUSH1 0x0 KECCAK256 SLOAD AND PUSH2 0x105F JUMPI CHAINID PUSH1 0x24 CALLDATALOAD EQ PUSH2 0x101A JUMPI PUSH1 0x4 CALLDATALOAD PUSH1 0x0 MSTORE PUSH1 0xA PUSH1 0x20 MSTORE PUSH1 0x40 PUSH1 0x0 KECCAK256 PUSH1 0x1 DUP2 ADD SLOAD PUSH1 0x0 DUP1 PUSH1 0xC DUP5 ADD SLOAD PUSH1 0xF DUP6 ADD SLOAD SWAP4 PUSH2 0x2DE3 PUSH1 0x12 DUP8 ADD SLOAD PUSH1 0x40 MLOAD PUSH1 0x20 DUP2 ADD SWAP1 PUSH1 0x4 CALLDATALOAD DUP3 MSTORE PUSH1 0x1 PUSH1 0x1 PUSH1 0x60 SHL SUB NOT DUP1 DUP7 PUSH1 0x60 SHL AND PUSH1 0x40 DUP4 ADD MSTORE CHAINID PUSH1 0x54 DUP4 ADD MSTORE DUP7 PUSH1 0x74 DUP4 ADD MSTORE DUP10 PUSH1 0x60 SHL AND PUSH1 0x94 DUP3 ADD MSTORE PUSH2 0x2D52 PUSH1 0x20 DUP3 PUSH2 0xD32 DUP14 PUSH1 0x13 DUP5 PUSH2 0x2D47 PUSH2 0x2D3E PUSH1 0xA8 DUP8 ADD PUSH1 0x10 DUP7 ADD PUSH2 0x70AE JUMP JUMPDEST PUSH1 0x11 DUP6 ADD PUSH2 0x70AE JUMP JUMPDEST DUP11 DUP2 MSTORE ADD SWAP2 ADD PUSH2 0x70AE JUMP JUMPDEST MLOAD SWAP1 KECCAK256 SWAP7 PUSH1 0x40 MLOAD SWAP5 DUP6 SWAP5 DUP10 PUSH1 0x20 DUP8 ADD MSTORE PUSH1 0x4 CALLDATALOAD PUSH1 0x40 DUP8 ADD MSTORE PUSH1 0x1 DUP1 PUSH1 0xA0 SHL SUB AND PUSH1 0x60 DUP7 ADD MSTORE CHAINID PUSH1 0x80 DUP7 ADD MSTORE PUSH1 0xA0 DUP6 ADD MSTORE PUSH1 0xC0 DUP1 DUP6 ADD MSTORE PUSH1 0x1 DUP1 PUSH1 0xA0 SHL SUB AND PUSH1 0xE0 DUP5 ADD MSTORE PUSH1 0xA0 PUSH2 0x100 DUP5 ADD MSTORE PUSH2 0x2DAE PUSH2 0x180 DUP5 ADD PUSH1 0x10 DUP11 ADD PUSH2 0x639E JUMP JUMPDEST PUSH2 0x2DC9 PUSH1 0xDF NOT SWAP2 DUP3 DUP7 DUP3 SUB ADD PUSH2 0x120 DUP8 ADD MSTORE PUSH1 0x11 DUP12 ADD PUSH2 0x639E JUMP JUMPDEST SWAP2 PUSH2 0x140 DUP6 ADD MSTORE DUP4 DUP3 SUB ADD PUSH2 0x160 DUP5 ADD MSTORE PUSH1 0x13 DUP9 ADD PUSH2 0x639E JUMP JUMPDEST SUB SWAP1 PUSH2 0x2DF7 PUSH1 0x1F NOT SWAP3 DUP4 DUP2 ADD DUP4 MSTORE DUP3 PUSH2 0x5E09 JUMP JUMPDEST DUP3 PUSH1 0x1 DUP1 PUSH1 0xA0 SHL SUB PUSH1 0xC SLOAD AND SWAP3 PUSH2 0x2E37 PUSH1 0x40 MLOAD SWAP2 DUP3 PUSH2 0xE19 PUSH1 0x20 DUP3 ADD SWAP7 PUSH4 0xE289ADCD PUSH1 0xE0 SHL DUP9 MSTORE PUSH1 0x24 CALLDATALOAD PUSH1 0x24 DUP5 ADD MSTORE PUSH1 0x40 PUSH1 0x44 DUP5 ADD MSTORE PUSH1 0x64 DUP4 ADD SWAP1 PUSH2 0x5D4B JUMP JUMPDEST MLOAD SWAP3 GAS CALL PUSH2 0x2E43 PUSH2 0x6724 JUMP JUMPDEST POP ISZERO PUSH2 0xFD5 JUMPI PUSH1 0x4 CALLDATALOAD PUSH1 0x0 MSTORE PUSH1 0xF PUSH1 0x20 MSTORE PUSH1 0x40 PUSH1 0x0 KECCAK256 PUSH1 0x1 PUSH1 0xFF NOT DUP3 SLOAD AND OR SWAP1 SSTORE PUSH1 0x12 PUSH1 0x20 MSTORE TIMESTAMP PUSH1 0x40 PUSH1 0x0 KECCAK256 SSTORE PUSH1 0x10 PUSH1 0x20 MSTORE CHAINID PUSH1 0x40 PUSH1 0x0 KECCAK256 SSTORE PUSH1 0x0 MSTORE PUSH1 0x11 PUSH1 0x20 MSTORE PUSH1 0x4 CALLDATALOAD PUSH1 0x40 PUSH1 0x0 KECCAK256 SSTORE PUSH1 0x1 DUP1 PUSH1 0xA0 SHL SUB PUSH1 0x1 DUP3 ADD SLOAD AND SWAP1 PUSH1 0xF PUSH1 0x1 DUP1 PUSH1 0xA0 SHL SUB SWAP2 ADD SLOAD AND SWAP1 PUSH1 0x40 MLOAD CHAINID DUP2 MSTORE PUSH1 0x24 CALLDATALOAD PUSH1 0x20 DUP3 ADD MSTORE PUSH32 0x1E5EF349341852F5F199E2BCE07397E4D55C83226632236095641C8AF9AF549F PUSH1 0x40 PUSH1 0x4 CALLDATALOAD SWAP3 LOG4 STOP JUMPDEST POP PUSH1 0x0 SLOAD PUSH1 0x1 PUSH1 0x1 PUSH1 0xA0 SHL SUB AND CALLER EQ PUSH2 0x2C92 JUMP JUMPDEST CALLVALUE PUSH2 0x1E9 JUMPI PUSH1 0x0 CALLDATASIZE PUSH1 0x3 NOT ADD SLT PUSH2 0x1E9 JUMPI PUSH1 0x8 DUP1 SLOAD PUSH1 0x0 PUSH1 0x1 JUMPDEST DUP3 DUP2 GT ISZERO PUSH2 0x2FA6 JUMPI POP PUSH2 0x2F21 SWAP1 PUSH2 0x6E33 JUMP JUMPDEST SWAP2 PUSH1 0x1 PUSH1 0x0 JUMPDEST DUP4 DUP3 GT ISZERO PUSH2 0x2F3D JUMPI PUSH1 0x40 MLOAD DUP1 PUSH2 0x3D0 DUP8 DUP3 PUSH2 0x623B JUMP JUMPDEST DUP2 PUSH1 0x0 MSTORE PUSH1 0xA PUSH1 0x20 MSTORE PUSH1 0x40 PUSH1 0x0 KECCAK256 SWAP2 PUSH1 0xFF PUSH1 0x14 DUP5 ADD SLOAD DUP6 SHR AND ISZERO DUP1 PUSH2 0x2F90 JUMPI JUMPDEST PUSH2 0x2F73 JUMPI JUMPDEST PUSH2 0x2F6D SWAP2 SWAP3 POP PUSH2 0x6E24 JUMP JUMPDEST SWAP1 PUSH2 0x2F27 JUMP JUMPDEST PUSH2 0x2F87 DUP3 PUSH2 0x4DC PUSH2 0x4D6 PUSH2 0x2F6D SWAP6 SWAP3 PUSH2 0x6E24 JUMP JUMPDEST POP DUP3 SWAP2 POP PUSH2 0x2F62 JUMP JUMPDEST POP PUSH1 0x1 DUP4 ADD SLOAD PUSH1 0x1 PUSH1 0x1 PUSH1 0xA0 SHL SUB AND CALLER EQ PUSH2 0x2F5D JUMP JUMPDEST DUP1 PUSH1 0x0 MSTORE PUSH1 0xA PUSH1 0x20 MSTORE PUSH1 0x40 PUSH1 0x0 KECCAK256 PUSH1 0xFF PUSH1 0x14 DUP3 ADD SLOAD DUP7 SHR AND ISZERO SWAP1 DUP2 PUSH2 0x2FEF JUMPI JUMPDEST POP PUSH2 0x2FDA JUMPI JUMPDEST PUSH2 0x2FD5 SWAP1 PUSH2 0x6E24 JUMP JUMPDEST PUSH2 0x2F0F JUMP JUMPDEST SWAP1 PUSH2 0x2FE7 PUSH2 0x2FD5 SWAP2 PUSH2 0x6E24 JUMP JUMPDEST SWAP2 SWAP1 POP PUSH2 0x2FCC JUMP JUMPDEST PUSH1 0x1 ADD SLOAD PUSH1 0x1 PUSH1 0x1 PUSH1 0xA0 SHL SUB AND CALLER EQ SWAP1 POP DUP6 PUSH2 0x2FC6 JUMP JUMPDEST CALLVALUE PUSH2 0x1E9 JUMPI PUSH1 0x0 CALLDATASIZE PUSH1 0x3 NOT ADD SLT PUSH2 0x1E9 JUMPI PUSH1 0x0 PUSH1 0x1 PUSH1 0x8 SLOAD SWAP1 JUMPDEST DUP2 DUP2 GT ISZERO PUSH2 0x31A9 JUMPI POP PUSH2 0x3032 DUP3 PUSH2 0x5E9A JUMP JUMPDEST SWAP2 PUSH2 0x3040 PUSH1 0x40 MLOAD SWAP4 DUP5 PUSH2 0x5E09 JUMP JUMPDEST DUP1 DUP4 MSTORE PUSH2 0x304F PUSH1 0x1F NOT SWAP2 PUSH2 0x5E9A JUMP JUMPDEST ADD PUSH1 0x0 JUMPDEST DUP2 DUP2 LT PUSH2 0x3176 JUMPI POP POP PUSH1 0x0 PUSH1 0x1 SWAP1 JUMPDEST DUP3 DUP3 GT ISZERO PUSH2 0x30CF JUMPI PUSH1 0x40 DUP1 MLOAD PUSH1 0x20 DUP1 DUP3 MSTORE DUP7 MLOAD DUP2 DUP4 ADD DUP2 SWAP1 MSTORE DUP2 DUP9 ADD SWAP4 DUP4 ADD SWAP2 PUSH1 0x0 JUMPDEST DUP3 DUP2 LT PUSH2 0x3092 JUMPI DUP5 DUP5 SUB DUP6 RETURN JUMPDEST DUP6 MLOAD DUP1 MLOAD DUP6 MSTORE DUP1 DUP4 ADD MLOAD DUP6 DUP5 ADD MSTORE PUSH1 0x40 DUP1 DUP3 ADD MLOAD SWAP1 DUP7 ADD MSTORE PUSH1 0x60 SWAP1 DUP2 ADD MLOAD PUSH1 0x1 PUSH1 0x1 PUSH1 0xA0 SHL SUB AND SWAP1 DUP6 ADD MSTORE SWAP5 DUP2 ADD SWAP5 PUSH1 0x80 SWAP1 SWAP4 ADD SWAP3 PUSH1 0x1 ADD PUSH2 0x3085 JUMP JUMPDEST PUSH1 0x0 SWAP4 SWAP2 SWAP3 SWAP4 SWAP1 JUMPDEST DUP4 PUSH1 0x0 MSTORE PUSH1 0x20 PUSH1 0xB DUP2 MSTORE PUSH1 0x40 PUSH1 0x0 KECCAK256 DUP1 SLOAD DUP5 LT ISZERO PUSH2 0x315F JUMPI SWAP2 PUSH2 0x3153 SWAP2 PUSH2 0x3101 DUP6 PUSH2 0x3159 SWAP6 PUSH2 0x6EAD JUMP JUMPDEST POP PUSH1 0x40 MLOAD SWAP2 PUSH2 0x310F DUP4 PUSH2 0x5DD3 JUMP JUMPDEST DUP2 SLOAD DUP4 MSTORE PUSH1 0x1 DUP3 ADD SLOAD SWAP1 DUP4 ADD MSTORE PUSH1 0x2 DUP2 ADD SLOAD PUSH1 0x40 DUP4 ADD MSTORE PUSH1 0x3 ADD SLOAD PUSH1 0x1 PUSH1 0x1 PUSH1 0xA0 SHL SUB AND PUSH1 0x60 DUP3 ADD MSTORE PUSH2 0x3142 DUP3 DUP8 PUSH2 0x6E83 JUMP JUMPDEST MSTORE PUSH2 0x314D DUP2 DUP7 PUSH2 0x6E83 JUMP JUMPDEST POP PUSH2 0x6E24 JUMP JUMPDEST SWAP2 PUSH2 0x6E24 JUMP JUMPDEST SWAP1 PUSH2 0x30D7 JUMP JUMPDEST POP POP SWAP3 PUSH2 0x316F SWAP2 POP SWAP4 SWAP2 SWAP4 PUSH2 0x6E24 JUMP JUMPDEST SWAP1 SWAP2 PUSH2 0x3062 JUMP JUMPDEST PUSH1 0x20 SWAP1 PUSH1 0x40 MLOAD PUSH2 0x3185 DUP2 PUSH2 0x5DD3 JUMP JUMPDEST PUSH1 0x0 DUP2 MSTORE DUP3 PUSH1 0x0 DUP2 DUP4 ADD MSTORE PUSH1 0x0 PUSH1 0x40 DUP4 ADD MSTORE PUSH1 0x0 PUSH1 0x60 DUP4 ADD MSTORE DUP3 DUP8 ADD ADD MSTORE ADD PUSH2 0x3053 JUMP JUMPDEST SWAP2 DUP3 PUSH1 0x0 MSTORE PUSH1 0xB PUSH1 0x20 MSTORE PUSH1 0x40 PUSH1 0x0 KECCAK256 SLOAD DUP2 ADD DUP1 SWAP2 GT PUSH2 0x75F JUMPI PUSH2 0x31CC SWAP1 SWAP3 PUSH2 0x6E24 JUMP JUMPDEST PUSH2 0x3020 JUMP JUMPDEST CALLVALUE PUSH2 0x1E9 JUMPI PUSH2 0x448 PUSH2 0x31E2 CALLDATASIZE PUSH2 0x5FD8 JUMP JUMPDEST SWAP2 PUSH2 0x31F0 PUSH2 0x42E DUP5 CALLER PUSH2 0x654B JUMP JUMPDEST PUSH2 0x6613 JUMP JUMPDEST CALLVALUE PUSH2 0x1E9 JUMPI PUSH1 0x40 CALLDATASIZE PUSH1 0x3 NOT ADD SLT PUSH2 0x1E9 JUMPI PUSH1 0x4 CALLDATALOAD PUSH1 0x1 PUSH1 0x1 PUSH1 0x40 SHL SUB DUP2 GT PUSH2 0x1E9 JUMPI PUSH2 0x3225 SWAP1 CALLDATASIZE SWAP1 PUSH1 0x4 ADD PUSH2 0x5E7C JUMP JUMPDEST PUSH1 0xC SLOAD PUSH1 0x1 PUSH1 0x1 PUSH1 0xA0 SHL SUB AND CALLER SUB PUSH2 0x4431 JUMPI DUP1 MLOAD DUP2 ADD SWAP1 PUSH1 0x20 DUP3 ADD PUSH1 0xC0 DUP3 DUP5 SUB SLT PUSH2 0x1E9 JUMPI PUSH1 0x20 DUP3 ADD MLOAD PUSH1 0x40 DUP4 ADD MLOAD PUSH1 0x60 DUP5 ADD MLOAD SWAP5 SWAP1 SWAP4 SWAP1 SWAP2 PUSH1 0x1 PUSH1 0x1 PUSH1 0xA0 SHL SUB DUP7 AND DUP7 SUB PUSH2 0x1E9 JUMPI PUSH1 0x80 DUP3 ADD MLOAD SWAP3 PUSH1 0xA0 DUP4 ADD MLOAD SWAP3 PUSH1 0xC0 DUP2 ADD MLOAD PUSH1 0x1 PUSH1 0x1 PUSH1 0x40 SHL SUB DUP2 GT PUSH2 0x1E9 JUMPI PUSH1 0xA0 SWAP2 ADD DUP1 SWAP3 SUB SLT PUSH2 0x1E9 JUMPI PUSH1 0x40 MLOAD SWAP5 PUSH2 0x32A6 DUP7 PUSH2 0x5DB8 JUMP JUMPDEST PUSH1 0x20 DUP3 ADD MLOAD PUSH1 0x1 PUSH1 0x1 PUSH1 0xA0 SHL SUB DUP2 AND DUP2 SUB PUSH2 0x1E9 JUMPI DUP7 MSTORE PUSH1 0x40 DUP3 ADD MLOAD PUSH1 0x1 PUSH1 0x1 PUSH1 0x40 SHL SUB DUP2 GT PUSH2 0x1E9 JUMPI DUP2 PUSH1 0x20 PUSH2 0x32DF SWAP3 DUP6 ADD ADD PUSH2 0x7130 JUMP JUMPDEST PUSH1 0x20 DUP8 ADD MSTORE PUSH1 0x60 DUP3 ADD MLOAD PUSH1 0x1 PUSH1 0x1 PUSH1 0x40 SHL SUB DUP2 GT PUSH2 0x1E9 JUMPI DUP2 PUSH1 0x20 PUSH2 0x3306 SWAP3 DUP6 ADD ADD PUSH2 0x7130 JUMP JUMPDEST PUSH1 0x40 DUP8 ADD MSTORE PUSH1 0x80 DUP3 ADD MLOAD PUSH1 0x60 DUP8 ADD MSTORE PUSH1 0xA0 DUP3 ADD MLOAD SWAP2 PUSH1 0x1 PUSH1 0x1 PUSH1 0x40 SHL SUB DUP4 GT PUSH2 0x1E9 JUMPI PUSH2 0x3336 SWAP3 ADD PUSH1 0x20 ADD PUSH2 0x7130 JUMP JUMPDEST PUSH1 0x80 DUP6 ADD MSTORE DUP1 PUSH1 0x0 MSTORE PUSH1 0x13 PUSH1 0x20 MSTORE PUSH1 0xFF PUSH1 0x40 PUSH1 0x0 KECCAK256 SLOAD AND PUSH2 0x43EC JUMPI PUSH1 0x0 MSTORE PUSH1 0x13 PUSH1 0x20 MSTORE PUSH1 0x40 PUSH1 0x0 KECCAK256 PUSH1 0xFF NOT DUP2 SLOAD AND PUSH1 0x1 OR SWAP1 SSTORE PUSH1 0x8 SLOAD PUSH1 0x1 ADD SWAP4 DUP5 PUSH1 0x8 SSTORE PUSH1 0x0 MSTORE PUSH1 0xA PUSH1 0x20 MSTORE PUSH1 0x40 PUSH1 0x0 KECCAK256 SWAP3 PUSH1 0x7 DUP5 ADD SLOAD SWAP4 PUSH1 0x8 DUP2 ADD SLOAD SWAP3 PUSH1 0x9 DUP3 ADD SLOAD PUSH1 0xB DUP4 ADD SLOAD SWAP1 PUSH1 0x1 PUSH1 0xA0 SHL PUSH1 0x1 SWAP1 SUB PUSH1 0x16 DUP6 ADD SLOAD AND SWAP6 PUSH1 0x40 MLOAD SWAP9 PUSH2 0x33B6 DUP11 PUSH2 0x5D9C JUMP JUMPDEST DUP11 DUP11 MSTORE PUSH1 0x1 PUSH1 0x1 PUSH1 0xA0 SHL SUB DUP13 AND PUSH1 0x20 DUP12 ADD MSTORE PUSH1 0x40 MLOAD DUP1 PUSH2 0x33D9 DUP2 PUSH1 0x2 DUP11 ADD PUSH2 0x639E JUMP JUMPDEST SUB PUSH2 0x33E4 SWAP1 DUP3 PUSH2 0x5E09 JUMP JUMPDEST PUSH1 0x40 DUP12 ADD MSTORE PUSH2 0x33F5 PUSH1 0x3 DUP8 ADD PUSH2 0x6BC5 JUMP JUMPDEST PUSH1 0x60 DUP12 ADD MSTORE PUSH1 0x40 MLOAD DUP1 PUSH2 0x340B DUP2 PUSH1 0x4 DUP11 ADD PUSH2 0x639E JUMP JUMPDEST SUB PUSH2 0x3416 SWAP1 DUP3 PUSH2 0x5E09 JUMP JUMPDEST PUSH1 0x80 DUP12 ADD MSTORE PUSH1 0x40 MLOAD DUP1 PUSH2 0x342C DUP2 PUSH1 0x5 DUP11 ADD PUSH2 0x639E JUMP JUMPDEST SUB PUSH2 0x3437 SWAP1 DUP3 PUSH2 0x5E09 JUMP JUMPDEST PUSH1 0xA0 DUP12 ADD MSTORE PUSH1 0x40 MLOAD DUP1 PUSH2 0x344D DUP2 PUSH1 0x6 DUP11 ADD PUSH2 0x639E JUMP JUMPDEST SUB PUSH2 0x3458 SWAP1 DUP3 PUSH2 0x5E09 JUMP JUMPDEST PUSH1 0xC0 DUP12 ADD MSTORE PUSH1 0xE0 DUP11 ADD MSTORE PUSH2 0x100 DUP10 ADD MSTORE PUSH2 0x120 DUP9 ADD MSTORE PUSH1 0x40 MLOAD DUP1 PUSH2 0x347F DUP2 PUSH1 0xA DUP8 ADD PUSH2 0x639E JUMP JUMPDEST SUB PUSH2 0x348A SWAP1 DUP3 PUSH2 0x5E09 JUMP JUMPDEST PUSH2 0x140 DUP9 ADD MSTORE PUSH2 0x34A1 PUSH1 0xFF DUP3 AND PUSH2 0x160 DUP10 ADD PUSH2 0x6945 JUMP JUMPDEST PUSH2 0x34B6 PUSH1 0xFF PUSH1 0x8 DUP4 SWAP1 SHR AND PUSH2 0x180 DUP10 ADD PUSH2 0x6951 JUMP JUMPDEST PUSH1 0x10 SHR PUSH1 0xFF AND PUSH2 0x1A0 DUP8 ADD SWAP1 PUSH2 0x34CB SWAP2 PUSH2 0x695D JUMP JUMPDEST PUSH2 0x1C0 DUP7 ADD MSTORE PUSH1 0x40 MLOAD DUP1 PUSH2 0x34E2 DUP2 PUSH1 0xD DUP6 ADD PUSH2 0x639E JUMP JUMPDEST SUB PUSH2 0x34ED SWAP1 DUP3 PUSH2 0x5E09 JUMP JUMPDEST PUSH2 0x1E0 DUP7 ADD MSTORE PUSH1 0xE ADD PUSH2 0x34FF SWAP1 PUSH2 0x6BC5 JUMP JUMPDEST PUSH2 0x200 DUP6 ADD MSTORE PUSH2 0x220 DUP5 ADD MSTORE PUSH2 0x240 DUP4 ADD PUSH1 0x0 SWAP1 MSTORE PUSH2 0x260 DUP4 ADD PUSH1 0x0 SWAP1 MSTORE CHAINID PUSH2 0x280 DUP5 ADD MSTORE PUSH2 0x2A0 DUP4 ADD MSTORE PUSH2 0x2C0 DUP3 ADD MSTORE DUP2 PUSH1 0x0 MSTORE PUSH1 0xA PUSH1 0x20 MSTORE PUSH1 0x40 PUSH1 0x0 KECCAK256 SWAP1 DUP1 MLOAD DUP3 SSTORE PUSH1 0x1 PUSH1 0xA0 SHL PUSH1 0x1 SWAP1 SUB PUSH1 0x20 DUP3 ADD MLOAD AND PUSH1 0x1 PUSH1 0x1 PUSH1 0x60 SHL SUB PUSH1 0xA0 SHL PUSH1 0x1 DUP5 ADD SLOAD AND OR PUSH1 0x1 DUP4 ADD SSTORE PUSH1 0x40 DUP2 ADD MLOAD DUP1 MLOAD SWAP1 PUSH1 0x1 PUSH1 0x1 PUSH1 0x40 SHL SUB DUP3 GT PUSH2 0xFBF JUMPI DUP2 SWAP1 PUSH2 0x358E PUSH1 0x2 DUP7 ADD SLOAD PUSH2 0x6364 JUMP JUMPDEST PUSH1 0x1F DUP2 GT PUSH2 0x43B7 JUMPI JUMPDEST POP PUSH1 0x20 SWAP1 PUSH1 0x1F DUP4 GT PUSH1 0x1 EQ PUSH2 0x4345 JUMPI PUSH1 0x0 SWAP3 PUSH2 0x433A JUMPI JUMPDEST POP POP DUP2 PUSH1 0x1 SHL SWAP2 PUSH1 0x0 NOT SWAP1 PUSH1 0x3 SHL SHR NOT AND OR PUSH1 0x2 DUP4 ADD SSTORE JUMPDEST PUSH1 0x60 DUP2 ADD MLOAD DUP1 MLOAD SWAP1 PUSH1 0x1 PUSH1 0x40 SHL DUP3 GT PUSH2 0xFBF JUMPI PUSH1 0x3 DUP5 ADD SLOAD DUP3 PUSH1 0x3 DUP7 ADD SSTORE DUP1 DUP4 LT PUSH2 0x42C2 JUMPI JUMPDEST POP PUSH1 0x20 ADD SWAP1 PUSH1 0x3 DUP5 ADD PUSH1 0x0 MSTORE PUSH1 0x20 PUSH1 0x0 KECCAK256 SWAP2 PUSH1 0x0 SWAP1 JUMPDEST DUP3 DUP3 LT PUSH2 0x41AD JUMPI POP POP POP POP PUSH1 0x80 DUP2 ADD MLOAD DUP1 MLOAD SWAP1 PUSH1 0x1 PUSH1 0x1 PUSH1 0x40 SHL SUB DUP3 GT PUSH2 0xFBF JUMPI DUP2 SWAP1 PUSH2 0x3632 PUSH1 0x4 DUP7 ADD SLOAD PUSH2 0x6364 JUMP JUMPDEST PUSH1 0x1F DUP2 GT PUSH2 0x4178 JUMPI JUMPDEST POP PUSH1 0x20 SWAP1 PUSH1 0x1F DUP4 GT PUSH1 0x1 EQ PUSH2 0x4106 JUMPI PUSH1 0x0 SWAP3 PUSH2 0x40FB JUMPI JUMPDEST POP POP DUP2 PUSH1 0x1 SHL SWAP2 PUSH1 0x0 NOT SWAP1 PUSH1 0x3 SHL SHR NOT AND OR PUSH1 0x4 DUP4 ADD SSTORE JUMPDEST PUSH1 0xA0 DUP2 ADD MLOAD DUP1 MLOAD SWAP1 PUSH1 0x1 PUSH1 0x1 PUSH1 0x40 SHL SUB DUP3 GT PUSH2 0xFBF JUMPI DUP2 SWAP1 PUSH2 0x368F PUSH1 0x5 DUP7 ADD SLOAD PUSH2 0x6364 JUMP JUMPDEST PUSH1 0x1F DUP2 GT PUSH2 0x40C6 JUMPI JUMPDEST POP PUSH1 0x20 SWAP1 PUSH1 0x1F DUP4 GT PUSH1 0x1 EQ PUSH2 0x4054 JUMPI PUSH1 0x0 SWAP3 PUSH2 0x4049 JUMPI JUMPDEST POP POP DUP2 PUSH1 0x1 SHL SWAP2 PUSH1 0x0 NOT SWAP1 PUSH1 0x3 SHL SHR NOT AND OR PUSH1 0x5 DUP4 ADD SSTORE JUMPDEST PUSH1 0xC0 DUP2 ADD MLOAD DUP1 MLOAD SWAP1 PUSH1 0x1 PUSH1 0x1 PUSH1 0x40 SHL SUB DUP3 GT PUSH2 0xFBF JUMPI DUP2 SWAP1 PUSH2 0x36EC PUSH1 0x6 DUP7 ADD SLOAD PUSH2 0x6364 JUMP JUMPDEST PUSH1 0x1F DUP2 GT PUSH2 0x4014 JUMPI JUMPDEST POP PUSH1 0x20 SWAP1 PUSH1 0x1F DUP4 GT PUSH1 0x1 EQ PUSH2 0x3FA2 JUMPI PUSH1 0x0 SWAP3 PUSH2 0x3F97 JUMPI JUMPDEST POP POP DUP2 PUSH1 0x1 SHL SWAP2 PUSH1 0x0 NOT SWAP1 PUSH1 0x3 SHL SHR NOT AND OR PUSH1 0x6 DUP4 ADD SSTORE JUMPDEST PUSH1 0xE0 DUP2 ADD MLOAD PUSH1 0x7 DUP4 ADD SSTORE PUSH2 0x100 DUP2 ADD MLOAD PUSH1 0x8 DUP4 ADD SSTORE PUSH2 0x120 DUP2 ADD MLOAD PUSH1 0x9 DUP4 ADD SSTORE PUSH2 0x140 DUP2 ADD MLOAD DUP1 MLOAD SWAP1 PUSH1 0x1 PUSH1 0x1 PUSH1 0x40 SHL SUB DUP3 GT PUSH2 0xFBF JUMPI DUP2 SWAP1 PUSH2 0x376A PUSH1 0xA DUP7 ADD SLOAD PUSH2 0x6364 JUMP JUMPDEST PUSH1 0x1F DUP2 GT PUSH2 0x3F62 JUMPI JUMPDEST POP PUSH1 0x20 SWAP1 PUSH1 0x1F DUP4 GT PUSH1 0x1 EQ PUSH2 0x3EF0 JUMPI PUSH1 0x0 SWAP3 PUSH2 0x3EE5 JUMPI JUMPDEST POP POP DUP2 PUSH1 0x1 SHL SWAP2 PUSH1 0x0 NOT SWAP1 PUSH1 0x3 SHL SHR NOT AND OR PUSH1 0xA DUP4 ADD SSTORE JUMPDEST PUSH2 0x160 DUP2 ADD MLOAD PUSH1 0x3 DUP2 LT ISZERO PUSH2 0x2313 JUMPI PUSH1 0xB DUP4 ADD SLOAD PUSH2 0x180 DUP4 ADD MLOAD SWAP1 PUSH1 0x2 DUP3 LT ISZERO PUSH2 0x2313 JUMPI PUSH2 0x1A0 DUP5 ADD MLOAD SWAP1 PUSH1 0x4 DUP3 LT ISZERO PUSH2 0x2313 JUMPI PUSH1 0xFF PUSH3 0xFF0000 PUSH2 0xFF00 SWAP4 PUSH1 0x10 SHL AND SWAP5 AND SWAP1 PUSH3 0xFFFFFF NOT AND OR SWAP2 PUSH1 0x8 SHL AND OR OR PUSH1 0xB DUP4 ADD SSTORE PUSH2 0x1C0 DUP2 ADD MLOAD PUSH1 0xC DUP4 ADD SSTORE PUSH2 0x1E0 DUP2 ADD MLOAD DUP1 MLOAD SWAP1 PUSH1 0x1 PUSH1 0x1 PUSH1 0x40 SHL SUB DUP3 GT PUSH2 0xFBF JUMPI DUP2 SWAP1 PUSH2 0x382B PUSH1 0xD DUP7 ADD SLOAD PUSH2 0x6364 JUMP JUMPDEST PUSH1 0x1F DUP2 GT PUSH2 0x3EB0 JUMPI JUMPDEST POP PUSH1 0x20 SWAP1 PUSH1 0x1F DUP4 GT PUSH1 0x1 EQ PUSH2 0x3E3E JUMPI PUSH1 0x0 SWAP3 PUSH2 0x3E33 JUMPI JUMPDEST POP POP DUP2 PUSH1 0x1 SHL SWAP2 PUSH1 0x0 NOT SWAP1 PUSH1 0x3 SHL SHR NOT AND OR PUSH1 0xD DUP4 ADD SSTORE JUMPDEST PUSH2 0x200 DUP2 ADD MLOAD DUP1 MLOAD SWAP1 PUSH1 0x1 PUSH1 0x40 SHL DUP3 GT PUSH2 0xFBF JUMPI PUSH1 0xE DUP5 ADD SLOAD DUP3 PUSH1 0xE DUP7 ADD SSTORE DUP1 DUP4 LT PUSH2 0x3DBB JUMPI JUMPDEST POP PUSH1 0x20 ADD SWAP1 PUSH1 0xE DUP5 ADD PUSH1 0x0 MSTORE PUSH1 0x20 PUSH1 0x0 KECCAK256 SWAP2 PUSH1 0x0 SWAP1 JUMPDEST DUP3 DUP3 LT PUSH2 0x3CA6 JUMPI POP POP POP POP PUSH2 0x220 DUP2 ADD MLOAD DUP1 MLOAD PUSH1 0xF DUP5 ADD DUP1 SLOAD PUSH1 0x1 PUSH1 0x1 PUSH1 0xA0 SHL SUB NOT AND PUSH1 0x1 PUSH1 0x1 PUSH1 0xA0 SHL SUB SWAP3 SWAP1 SWAP3 AND SWAP2 SWAP1 SWAP2 OR SWAP1 SSTORE PUSH1 0x20 DUP2 ADD MLOAD DUP1 MLOAD SWAP1 PUSH1 0x1 PUSH1 0x1 PUSH1 0x40 SHL SUB DUP3 GT PUSH2 0xFBF JUMPI DUP2 SWAP1 PUSH2 0x38FA PUSH1 0x10 DUP8 ADD SLOAD PUSH2 0x6364 JUMP JUMPDEST PUSH1 0x1F DUP2 GT PUSH2 0x3C71 JUMPI JUMPDEST POP PUSH1 0x20 SWAP1 PUSH1 0x1F DUP4 GT PUSH1 0x1 EQ PUSH2 0x3BFF JUMPI PUSH1 0x0 SWAP3 PUSH2 0x3BF4 JUMPI JUMPDEST POP POP DUP2 PUSH1 0x1 SHL SWAP2 PUSH1 0x0 NOT SWAP1 PUSH1 0x3 SHL SHR NOT AND OR PUSH1 0x10 DUP5 ADD SSTORE JUMPDEST PUSH1 0x40 DUP2 ADD MLOAD DUP1 MLOAD SWAP1 PUSH1 0x1 PUSH1 0x1 PUSH1 0x40 SHL SUB DUP3 GT PUSH2 0xFBF JUMPI PUSH2 0x3955 PUSH1 0x11 DUP7 ADD SLOAD PUSH2 0x6364 JUMP JUMPDEST PUSH1 0x1F DUP2 GT PUSH2 0x3BBF JUMPI JUMPDEST POP PUSH1 0x20 SWAP1 PUSH1 0x1F DUP4 GT PUSH1 0x1 EQ PUSH2 0x3B4C JUMPI PUSH1 0x80 SWAP4 SWAP3 SWAP2 PUSH1 0x0 SWAP2 DUP4 PUSH2 0x3B41 JUMPI JUMPDEST POP POP DUP2 PUSH1 0x1 SHL SWAP2 PUSH1 0x0 NOT SWAP1 PUSH1 0x3 SHL SHR NOT AND OR PUSH1 0x11 DUP6 ADD SSTORE JUMPDEST PUSH1 0x60 DUP2 ADD MLOAD PUSH1 0x12 DUP6 ADD SSTORE ADD MLOAD DUP1 MLOAD SWAP1 PUSH1 0x1 PUSH1 0x1 PUSH1 0x40 SHL SUB DUP3 GT PUSH2 0xFBF JUMPI PUSH2 0x39BD PUSH1 0x13 DUP6 ADD SLOAD PUSH2 0x6364 JUMP JUMPDEST PUSH1 0x1F DUP2 GT PUSH2 0x3B0C JUMPI JUMPDEST POP PUSH1 0x20 SWAP1 PUSH1 0x1F DUP4 GT PUSH1 0x1 EQ PUSH2 0x3A96 JUMPI SWAP2 DUP1 PUSH1 0x17 SWAP5 SWAP3 PUSH2 0x2C0 SWAP5 PUSH1 0x0 SWAP3 PUSH2 0x3A8B JUMPI JUMPDEST POP POP DUP2 PUSH1 0x1 SHL SWAP2 PUSH1 0x0 NOT SWAP1 PUSH1 0x3 SHL SHR NOT AND OR PUSH1 0x13 DUP6 ADD SSTORE JUMPDEST PUSH2 0x3A23 PUSH1 0x14 DUP6 ADD PUSH2 0x1D15 PUSH2 0x240 DUP5 ADD MLOAD ISZERO ISZERO DUP3 SWAP1 PUSH1 0xFF DUP1 NOT DUP4 SLOAD AND SWAP2 ISZERO ISZERO AND OR SWAP1 SSTORE JUMP JUMPDEST PUSH2 0x280 DUP2 ADD MLOAD PUSH1 0x15 DUP6 ADD SSTORE PUSH2 0x2A0 DUP2 ADD MLOAD PUSH1 0x16 DUP6 ADD DUP1 SLOAD PUSH1 0x1 PUSH1 0x1 PUSH1 0xA0 SHL SUB NOT AND PUSH1 0x1 PUSH1 0x1 PUSH1 0xA0 SHL SUB SWAP3 DUP4 AND OR SWAP1 SSTORE SWAP2 ADD MLOAD SWAP2 SWAP1 SWAP3 ADD SSTORE PUSH1 0x40 MLOAD CHAINID DUP2 MSTORE SWAP3 AND SWAP2 PUSH32 0x17A35FAD4F245F65A33DFC21A8118014A34E233321C287AB88FF612F9E1147F8 SWAP1 PUSH1 0x20 SWAP1 LOG3 STOP JUMPDEST ADD MLOAD SWAP1 POP DUP9 DUP1 PUSH2 0x39E7 JUMP JUMPDEST SWAP1 PUSH1 0x13 DUP6 ADD PUSH1 0x0 MSTORE PUSH1 0x20 PUSH1 0x0 KECCAK256 SWAP2 PUSH1 0x0 JUMPDEST PUSH1 0x1F NOT DUP6 AND DUP2 LT PUSH2 0x3AF4 JUMPI POP SWAP3 PUSH1 0x17 SWAP5 SWAP3 PUSH1 0x1 SWAP3 PUSH2 0x2C0 SWAP6 DUP4 PUSH1 0x1F NOT DUP2 AND LT PUSH2 0x3ADB JUMPI JUMPDEST POP POP POP DUP2 SHL ADD PUSH1 0x13 DUP6 ADD SSTORE PUSH2 0x39FF JUMP JUMPDEST ADD MLOAD PUSH1 0x0 NOT PUSH1 0xF8 DUP5 PUSH1 0x3 SHL AND SHR NOT AND SWAP1 SSTORE DUP9 DUP1 DUP1 PUSH2 0x3ACB JUMP JUMPDEST SWAP2 SWAP3 PUSH1 0x20 PUSH1 0x1 DUP2 SWAP3 DUP7 DUP6 ADD MLOAD DUP2 SSTORE ADD SWAP5 ADD SWAP3 ADD PUSH2 0x3AA7 JUMP JUMPDEST PUSH2 0x3B3B SWAP1 PUSH1 0x13 DUP7 ADD PUSH1 0x0 MSTORE PUSH1 0x20 PUSH1 0x0 KECCAK256 PUSH1 0x1F DUP6 ADD PUSH1 0x5 SHR DUP2 ADD SWAP2 PUSH1 0x20 DUP7 LT PUSH2 0x1F6C JUMPI PUSH1 0x1F ADD PUSH1 0x5 SHR ADD SWAP1 PUSH2 0x6969 JUMP JUMPDEST DUP7 PUSH2 0x39C6 JUMP JUMPDEST ADD MLOAD SWAP1 POP DUP9 DUP1 PUSH2 0x397B JUMP JUMPDEST SWAP1 PUSH1 0x11 DUP7 ADD PUSH1 0x0 MSTORE PUSH1 0x20 PUSH1 0x0 KECCAK256 SWAP2 PUSH1 0x0 JUMPDEST PUSH1 0x1F NOT DUP6 AND DUP2 LT PUSH2 0x3BA7 JUMPI POP SWAP2 DUP4 SWAP2 PUSH1 0x1 SWAP4 PUSH1 0x80 SWAP7 SWAP6 PUSH1 0x1F NOT DUP2 AND LT PUSH2 0x3B8E JUMPI JUMPDEST POP POP POP DUP2 SHL ADD PUSH1 0x11 DUP6 ADD SSTORE PUSH2 0x3993 JUMP JUMPDEST ADD MLOAD PUSH1 0x0 NOT PUSH1 0xF8 DUP5 PUSH1 0x3 SHL AND SHR NOT AND SWAP1 SSTORE DUP9 DUP1 DUP1 PUSH2 0x3B7E JUMP JUMPDEST SWAP2 SWAP3 PUSH1 0x20 PUSH1 0x1 DUP2 SWAP3 DUP7 DUP6 ADD MLOAD DUP2 SSTORE ADD SWAP5 ADD SWAP3 ADD PUSH2 0x3B5D JUMP JUMPDEST PUSH2 0x3BEE SWAP1 PUSH1 0x11 DUP8 ADD PUSH1 0x0 MSTORE PUSH1 0x20 PUSH1 0x0 KECCAK256 PUSH1 0x1F DUP6 ADD PUSH1 0x5 SHR DUP2 ADD SWAP2 PUSH1 0x20 DUP7 LT PUSH2 0x1F6C JUMPI PUSH1 0x1F ADD PUSH1 0x5 SHR ADD SWAP1 PUSH2 0x6969 JUMP JUMPDEST DUP8 PUSH2 0x395E JUMP JUMPDEST ADD MLOAD SWAP1 POP DUP8 DUP1 PUSH2 0x391A JUMP JUMPDEST SWAP3 POP PUSH1 0x10 DUP7 ADD PUSH1 0x0 MSTORE PUSH1 0x20 PUSH1 0x0 KECCAK256 SWAP1 PUSH1 0x0 SWAP4 JUMPDEST PUSH1 0x1F NOT DUP5 AND DUP6 LT PUSH2 0x3C56 JUMPI PUSH1 0x1 SWAP5 POP DUP4 PUSH1 0x1F NOT DUP2 AND LT PUSH2 0x3C3D JUMPI JUMPDEST POP POP POP DUP2 SHL ADD PUSH1 0x10 DUP5 ADD SSTORE PUSH2 0x3932 JUMP JUMPDEST ADD MLOAD PUSH1 0x0 NOT PUSH1 0xF8 DUP5 PUSH1 0x3 SHL AND SHR NOT AND SWAP1 SSTORE DUP8 DUP1 DUP1 PUSH2 0x3C2D JUMP JUMPDEST DUP2 DUP2 ADD MLOAD DUP4 SSTORE PUSH1 0x20 SWAP5 DUP6 ADD SWAP5 PUSH1 0x1 SWAP1 SWAP4 ADD SWAP3 SWAP1 SWAP2 ADD SWAP1 PUSH2 0x3C12 JUMP JUMPDEST PUSH2 0x3CA0 SWAP1 PUSH1 0x10 DUP9 ADD PUSH1 0x0 MSTORE PUSH1 0x20 PUSH1 0x0 KECCAK256 PUSH1 0x1F DUP6 ADD PUSH1 0x5 SHR DUP2 ADD SWAP2 PUSH1 0x20 DUP7 LT PUSH2 0x1F6C JUMPI PUSH1 0x1F ADD PUSH1 0x5 SHR ADD SWAP1 PUSH2 0x6969 JUMP JUMPDEST DUP9 PUSH2 0x3903 JUMP JUMPDEST DUP1 MLOAD DUP1 MLOAD SWAP1 PUSH1 0x1 PUSH1 0x1 PUSH1 0x40 SHL SUB DUP3 GT PUSH2 0xFBF JUMPI PUSH2 0x3CC3 DUP7 SLOAD PUSH2 0x6364 JUMP JUMPDEST PUSH1 0x1F DUP2 GT PUSH2 0x3D89 JUMPI JUMPDEST POP PUSH1 0x20 SWAP1 PUSH1 0x1F DUP4 GT PUSH1 0x1 EQ PUSH2 0x3D19 JUMPI SWAP3 DUP3 PUSH1 0x1 SWAP5 SWAP4 PUSH1 0x20 SWAP4 DUP7 SWAP6 PUSH1 0x0 SWAP3 PUSH2 0x3D0E JUMPI JUMPDEST POP POP PUSH1 0x0 NOT PUSH1 0x3 DUP4 SWAP1 SHL SHR NOT AND SWAP1 DUP5 SHL OR DUP8 SSTORE JUMPDEST ADD SWAP5 ADD SWAP2 ADD SWAP1 SWAP3 PUSH2 0x38A0 JUMP JUMPDEST ADD MLOAD SWAP1 POP DUP14 DUP1 PUSH2 0x3CEE JUMP JUMPDEST SWAP1 DUP7 PUSH1 0x0 MSTORE PUSH1 0x20 PUSH1 0x0 KECCAK256 SWAP2 PUSH1 0x0 JUMPDEST PUSH1 0x1F NOT DUP6 AND DUP2 LT PUSH2 0x3D71 JUMPI POP DUP4 PUSH1 0x20 SWAP4 PUSH1 0x1 SWAP7 SWAP4 DUP8 SWAP7 SWAP4 DUP8 SWAP5 PUSH1 0x1F NOT DUP2 AND LT PUSH2 0x3D58 JUMPI JUMPDEST POP POP POP DUP2 SHL ADD DUP8 SSTORE PUSH2 0x3D02 JUMP JUMPDEST ADD MLOAD PUSH1 0x0 NOT PUSH1 0xF8 DUP5 PUSH1 0x3 SHL AND SHR NOT AND SWAP1 SSTORE DUP14 DUP1 DUP1 PUSH2 0x3D4B JUMP JUMPDEST SWAP2 SWAP3 PUSH1 0x20 PUSH1 0x1 DUP2 SWAP3 DUP7 DUP6 ADD MLOAD DUP2 SSTORE ADD SWAP5 ADD SWAP3 ADD PUSH2 0x3D27 JUMP JUMPDEST PUSH2 0x3DB5 SWAP1 DUP8 PUSH1 0x0 MSTORE PUSH1 0x20 PUSH1 0x0 KECCAK256 PUSH1 0x1F DUP6 ADD PUSH1 0x5 SHR DUP2 ADD SWAP2 PUSH1 0x20 DUP7 LT PUSH2 0x1F6C JUMPI PUSH1 0x1F ADD PUSH1 0x5 SHR ADD SWAP1 PUSH2 0x6969 JUMP JUMPDEST DUP11 PUSH2 0x3CCC JUMP JUMPDEST PUSH1 0xE DUP6 ADD PUSH1 0x0 MSTORE PUSH1 0x20 PUSH1 0x0 KECCAK256 SWAP1 DUP4 DUP3 ADD JUMPDEST DUP2 DUP4 ADD DUP2 LT PUSH2 0x3DDC JUMPI POP POP PUSH2 0x388A JUMP JUMPDEST DUP1 PUSH2 0x3DE9 PUSH1 0x1 SWAP3 SLOAD PUSH2 0x6364 JUMP JUMPDEST DUP1 PUSH2 0x3DF6 JUMPI JUMPDEST POP ADD PUSH2 0x3DCC JUMP JUMPDEST PUSH1 0x1F DUP2 GT DUP4 EQ PUSH2 0x3E0C JUMPI POP PUSH1 0x0 DUP2 SSTORE JUMPDEST DUP11 PUSH2 0x3DEF JUMP JUMPDEST PUSH1 0x0 SWAP1 DUP3 DUP3 MSTORE PUSH2 0x3E2A PUSH1 0x1F PUSH1 0x20 DUP5 KECCAK256 SWAP3 ADD PUSH1 0x5 SHR DUP3 ADD DUP6 DUP4 ADD PUSH2 0x6969 JUMP JUMPDEST DUP2 DUP4 SSTORE SSTORE PUSH2 0x3E06 JUMP JUMPDEST ADD MLOAD SWAP1 POP DUP7 DUP1 PUSH2 0x384B JUMP JUMPDEST SWAP3 POP PUSH1 0xD DUP6 ADD PUSH1 0x0 MSTORE PUSH1 0x20 PUSH1 0x0 KECCAK256 SWAP1 PUSH1 0x0 SWAP4 JUMPDEST PUSH1 0x1F NOT DUP5 AND DUP6 LT PUSH2 0x3E95 JUMPI PUSH1 0x1 SWAP5 POP DUP4 PUSH1 0x1F NOT DUP2 AND LT PUSH2 0x3E7C JUMPI JUMPDEST POP POP POP DUP2 SHL ADD PUSH1 0xD DUP4 ADD SSTORE PUSH2 0x3863 JUMP JUMPDEST ADD MLOAD PUSH1 0x0 NOT PUSH1 0xF8 DUP5 PUSH1 0x3 SHL AND SHR NOT AND SWAP1 SSTORE DUP7 DUP1 DUP1 PUSH2 0x3E6C JUMP JUMPDEST DUP2 DUP2 ADD MLOAD DUP4 SSTORE PUSH1 0x20 SWAP5 DUP6 ADD SWAP5 PUSH1 0x1 SWAP1 SWAP4 ADD SWAP3 SWAP1 SWAP2 ADD SWAP1 PUSH2 0x3E51 JUMP JUMPDEST PUSH2 0x3EDF SWAP1 PUSH1 0xD DUP8 ADD PUSH1 0x0 MSTORE PUSH1 0x20 PUSH1 0x0 KECCAK256 PUSH1 0x1F DUP6 ADD PUSH1 0x5 SHR DUP2 ADD SWAP2 PUSH1 0x20 DUP7 LT PUSH2 0x1F6C JUMPI PUSH1 0x1F ADD PUSH1 0x5 SHR ADD SWAP1 PUSH2 0x6969 JUMP JUMPDEST DUP8 PUSH2 0x3834 JUMP JUMPDEST ADD MLOAD SWAP1 POP DUP7 DUP1 PUSH2 0x378A JUMP JUMPDEST SWAP3 POP PUSH1 0xA DUP6 ADD PUSH1 0x0 MSTORE PUSH1 0x20 PUSH1 0x0 KECCAK256 SWAP1 PUSH1 0x0 SWAP4 JUMPDEST PUSH1 0x1F NOT DUP5 AND DUP6 LT PUSH2 0x3F47 JUMPI PUSH1 0x1 SWAP5 POP DUP4 PUSH1 0x1F NOT DUP2 AND LT PUSH2 0x3F2E JUMPI JUMPDEST POP POP POP DUP2 SHL ADD PUSH1 0xA DUP4 ADD SSTORE PUSH2 0x37A2 JUMP JUMPDEST ADD MLOAD PUSH1 0x0 NOT PUSH1 0xF8 DUP5 PUSH1 0x3 SHL AND SHR NOT AND SWAP1 SSTORE DUP7 DUP1 DUP1 PUSH2 0x3F1E JUMP JUMPDEST DUP2 DUP2 ADD MLOAD DUP4 SSTORE PUSH1 0x20 SWAP5 DUP6 ADD SWAP5 PUSH1 0x1 SWAP1 SWAP4 ADD SWAP3 SWAP1 SWAP2 ADD SWAP1 PUSH2 0x3F03 JUMP JUMPDEST PUSH2 0x3F91 SWAP1 PUSH1 0xA DUP8 ADD PUSH1 0x0 MSTORE PUSH1 0x20 PUSH1 0x0 KECCAK256 PUSH1 0x1F DUP6 ADD PUSH1 0x5 SHR DUP2 ADD SWAP2 PUSH1 0x20 DUP7 LT PUSH2 0x1F6C JUMPI PUSH1 0x1F ADD PUSH1 0x5 SHR ADD SWAP1 PUSH2 0x6969 JUMP JUMPDEST DUP8 PUSH2 0x3773 JUMP JUMPDEST ADD MLOAD SWAP1 POP DUP7 DUP1 PUSH2 0x370C JUMP JUMPDEST SWAP3 POP PUSH1 0x6 DUP6 ADD PUSH1 0x0 MSTORE PUSH1 0x20 PUSH1 0x0 KECCAK256 SWAP1 PUSH1 0x0 SWAP4 JUMPDEST PUSH1 0x1F NOT DUP5 AND DUP6 LT PUSH2 0x3FF9 JUMPI PUSH1 0x1 SWAP5 POP DUP4 PUSH1 0x1F NOT DUP2 AND LT PUSH2 0x3FE0 JUMPI JUMPDEST POP POP POP DUP2 SHL ADD PUSH1 0x6 DUP4 ADD SSTORE PUSH2 0x3724 JUMP JUMPDEST ADD MLOAD PUSH1 0x0 NOT PUSH1 0xF8 DUP5 PUSH1 0x3 SHL AND SHR NOT AND SWAP1 SSTORE DUP7 DUP1 DUP1 PUSH2 0x3FD0 JUMP JUMPDEST DUP2 DUP2 ADD MLOAD DUP4 SSTORE PUSH1 0x20 SWAP5 DUP6 ADD SWAP5 PUSH1 0x1 SWAP1 SWAP4 ADD SWAP3 SWAP1 SWAP2 ADD SWAP1 PUSH2 0x3FB5 JUMP JUMPDEST PUSH2 0x4043 SWAP1 PUSH1 0x6 DUP8 ADD PUSH1 0x0 MSTORE PUSH1 0x20 PUSH1 0x0 KECCAK256 PUSH1 0x1F DUP6 ADD PUSH1 0x5 SHR DUP2 ADD SWAP2 PUSH1 0x20 DUP7 LT PUSH2 0x1F6C JUMPI PUSH1 0x1F ADD PUSH1 0x5 SHR ADD SWAP1 PUSH2 0x6969 JUMP JUMPDEST DUP8 PUSH2 0x36F5 JUMP JUMPDEST ADD MLOAD SWAP1 POP DUP7 DUP1 PUSH2 0x36AF JUMP JUMPDEST SWAP3 POP PUSH1 0x5 DUP6 ADD PUSH1 0x0 MSTORE PUSH1 0x20 PUSH1 0x0 KECCAK256 SWAP1 PUSH1 0x0 SWAP4 JUMPDEST PUSH1 0x1F NOT DUP5 AND DUP6 LT PUSH2 0x40AB JUMPI PUSH1 0x1 SWAP5 POP DUP4 PUSH1 0x1F NOT DUP2 AND LT PUSH2 0x4092 JUMPI JUMPDEST POP POP POP DUP2 SHL ADD PUSH1 0x5 DUP4 ADD SSTORE PUSH2 0x36C7 JUMP JUMPDEST ADD MLOAD PUSH1 0x0 NOT PUSH1 0xF8 DUP5 PUSH1 0x3 SHL AND SHR NOT AND SWAP1 SSTORE DUP7 DUP1 DUP1 PUSH2 0x4082 JUMP JUMPDEST DUP2 DUP2 ADD MLOAD DUP4 SSTORE PUSH1 0x20 SWAP5 DUP6 ADD SWAP5 PUSH1 0x1 SWAP1 SWAP4 ADD SWAP3 SWAP1 SWAP2 ADD SWAP1 PUSH2 0x4067 JUMP JUMPDEST PUSH2 0x40F5 SWAP1 PUSH1 0x5 DUP8 ADD PUSH1 0x0 MSTORE PUSH1 0x20 PUSH1 0x0 KECCAK256 PUSH1 0x1F DUP6 ADD PUSH1 0x5 SHR DUP2 ADD SWAP2 PUSH1 0x20 DUP7 LT PUSH2 0x1F6C JUMPI PUSH1 0x1F ADD PUSH1 0x5 SHR ADD SWAP1 PUSH2 0x6969 JUMP JUMPDEST DUP8 PUSH2 0x3698 JUMP JUMPDEST ADD MLOAD SWAP1 POP DUP7 DUP1 PUSH2 0x3652 JUMP JUMPDEST SWAP3 POP PUSH1 0x4 DUP6 ADD PUSH1 0x0 MSTORE PUSH1 0x20 PUSH1 0x0 KECCAK256 SWAP1 PUSH1 0x0 SWAP4 JUMPDEST PUSH1 0x1F NOT DUP5 AND DUP6 LT PUSH2 0x415D JUMPI PUSH1 0x1 SWAP5 POP DUP4 PUSH1 0x1F NOT DUP2 AND LT PUSH2 0x4144 JUMPI JUMPDEST POP POP POP DUP2 SHL ADD PUSH1 0x4 DUP4 ADD SSTORE PUSH2 0x366A JUMP JUMPDEST ADD MLOAD PUSH1 0x0 NOT PUSH1 0xF8 DUP5 PUSH1 0x3 SHL AND SHR NOT AND SWAP1 SSTORE DUP7 DUP1 DUP1 PUSH2 0x4134 JUMP JUMPDEST DUP2 DUP2 ADD MLOAD DUP4 SSTORE PUSH1 0x20 SWAP5 DUP6 ADD SWAP5 PUSH1 0x1 SWAP1 SWAP4 ADD SWAP3 SWAP1 SWAP2 ADD SWAP1 PUSH2 0x4119 JUMP JUMPDEST PUSH2 0x41A7 SWAP1 PUSH1 0x4 DUP8 ADD PUSH1 0x0 MSTORE PUSH1 0x20 PUSH1 0x0 KECCAK256 PUSH1 0x1F DUP6 ADD PUSH1 0x5 SHR DUP2 ADD SWAP2 PUSH1 0x20 DUP7 LT PUSH2 0x1F6C JUMPI PUSH1 0x1F ADD PUSH1 0x5 SHR ADD SWAP1 PUSH2 0x6969 JUMP JUMPDEST DUP8 PUSH2 0x363B JUMP JUMPDEST DUP1 MLOAD DUP1 MLOAD SWAP1 PUSH1 0x1 PUSH1 0x1 PUSH1 0x40 SHL SUB DUP3 GT PUSH2 0xFBF JUMPI PUSH2 0x41CA DUP7 SLOAD PUSH2 0x6364 JUMP JUMPDEST PUSH1 0x1F DUP2 GT PUSH2 0x4290 JUMPI JUMPDEST POP PUSH1 0x20 SWAP1 PUSH1 0x1F DUP4 GT PUSH1 0x1 EQ PUSH2 0x4220 JUMPI SWAP3 DUP3 PUSH1 0x1 SWAP5 SWAP4 PUSH1 0x20 SWAP4 DUP7 SWAP6 PUSH1 0x0 SWAP3 PUSH2 0x4215 JUMPI JUMPDEST POP POP PUSH1 0x0 NOT PUSH1 0x3 DUP4 SWAP1 SHL SHR NOT AND SWAP1 DUP5 SHL OR DUP8 SSTORE JUMPDEST ADD SWAP5 ADD SWAP2 ADD SWAP1 SWAP3 PUSH2 0x3602 JUMP JUMPDEST ADD MLOAD SWAP1 POP DUP14 DUP1 PUSH2 0x41F5 JUMP JUMPDEST SWAP1 DUP7 PUSH1 0x0 MSTORE PUSH1 0x20 PUSH1 0x0 KECCAK256 SWAP2 PUSH1 0x0 JUMPDEST PUSH1 0x1F NOT DUP6 AND DUP2 LT PUSH2 0x4278 JUMPI POP DUP4 PUSH1 0x20 SWAP4 PUSH1 0x1 SWAP7 SWAP4 DUP8 SWAP7 SWAP4 DUP8 SWAP5 PUSH1 0x1F NOT DUP2 AND LT PUSH2 0x425F JUMPI JUMPDEST POP POP POP DUP2 SHL ADD DUP8 SSTORE PUSH2 0x4209 JUMP JUMPDEST ADD MLOAD PUSH1 0x0 NOT PUSH1 0xF8 DUP5 PUSH1 0x3 SHL AND SHR NOT AND SWAP1 SSTORE DUP14 DUP1 DUP1 PUSH2 0x4252 JUMP JUMPDEST SWAP2 SWAP3 PUSH1 0x20 PUSH1 0x1 DUP2 SWAP3 DUP7 DUP6 ADD MLOAD DUP2 SSTORE ADD SWAP5 ADD SWAP3 ADD PUSH2 0x422E JUMP JUMPDEST PUSH2 0x42BC SWAP1 DUP8 PUSH1 0x0 MSTORE PUSH1 0x20 PUSH1 0x0 KECCAK256 PUSH1 0x1F DUP6 ADD PUSH1 0x5 SHR DUP2 ADD SWAP2 PUSH1 0x20 DUP7 LT PUSH2 0x1F6C JUMPI PUSH1 0x1F ADD PUSH1 0x5 SHR ADD SWAP1 PUSH2 0x6969 JUMP JUMPDEST DUP11 PUSH2 0x41D3 JUMP JUMPDEST PUSH1 0x3 DUP6 ADD PUSH1 0x0 MSTORE PUSH1 0x20 PUSH1 0x0 KECCAK256 SWAP1 DUP4 DUP3 ADD JUMPDEST DUP2 DUP4 ADD DUP2 LT PUSH2 0x42E3 JUMPI POP POP PUSH2 0x35EC JUMP JUMPDEST DUP1 PUSH2 0x42F0 PUSH1 0x1 SWAP3 SLOAD PUSH2 0x6364 JUMP JUMPDEST DUP1 PUSH2 0x42FD JUMPI JUMPDEST POP ADD PUSH2 0x42D3 JUMP JUMPDEST PUSH1 0x1F DUP2 GT DUP4 EQ PUSH2 0x4313 JUMPI POP PUSH1 0x0 DUP2 SSTORE JUMPDEST DUP11 PUSH2 0x42F6 JUMP JUMPDEST PUSH1 0x0 SWAP1 DUP3 DUP3 MSTORE PUSH2 0x4331 PUSH1 0x1F PUSH1 0x20 DUP5 KECCAK256 SWAP3 ADD PUSH1 0x5 SHR DUP3 ADD DUP6 DUP4 ADD PUSH2 0x6969 JUMP JUMPDEST DUP2 DUP4 SSTORE SSTORE PUSH2 0x430D JUMP JUMPDEST ADD MLOAD SWAP1 POP DUP7 DUP1 PUSH2 0x35AE JUMP JUMPDEST SWAP3 POP PUSH1 0x2 DUP6 ADD PUSH1 0x0 MSTORE PUSH1 0x20 PUSH1 0x0 KECCAK256 SWAP1 PUSH1 0x0 SWAP4 JUMPDEST PUSH1 0x1F NOT DUP5 AND DUP6 LT PUSH2 0x439C JUMPI PUSH1 0x1 SWAP5 POP DUP4 PUSH1 0x1F NOT DUP2 AND LT PUSH2 0x4383 JUMPI JUMPDEST POP POP POP DUP2 SHL ADD PUSH1 0x2 DUP4 ADD SSTORE PUSH2 0x35C6 JUMP JUMPDEST ADD MLOAD PUSH1 0x0 NOT PUSH1 0xF8 DUP5 PUSH1 0x3 SHL AND SHR NOT AND SWAP1 SSTORE DUP7 DUP1 DUP1 PUSH2 0x4373 JUMP JUMPDEST DUP2 DUP2 ADD MLOAD DUP4 SSTORE PUSH1 0x20 SWAP5 DUP6 ADD SWAP5 PUSH1 0x1 SWAP1 SWAP4 ADD SWAP3 SWAP1 SWAP2 ADD SWAP1 PUSH2 0x4358 JUMP JUMPDEST PUSH2 0x43E6 SWAP1 PUSH1 0x2 DUP8 ADD PUSH1 0x0 MSTORE PUSH1 0x20 PUSH1 0x0 KECCAK256 PUSH1 0x1F DUP6 ADD PUSH1 0x5 SHR DUP2 ADD SWAP2 PUSH1 0x20 DUP7 LT PUSH2 0x1F6C JUMPI PUSH1 0x1F ADD PUSH1 0x5 SHR ADD SWAP1 PUSH2 0x6969 JUMP JUMPDEST DUP8 PUSH2 0x3597 JUMP JUMPDEST PUSH1 0x40 MLOAD PUSH3 0x461BCD PUSH1 0xE5 SHL DUP2 MSTORE PUSH1 0x20 PUSH1 0x4 DUP3 ADD MSTORE PUSH1 0x19 PUSH1 0x24 DUP3 ADD MSTORE PUSH32 0x4D65737361676520616C72656164792070726F63657373656400000000000000 PUSH1 0x44 DUP3 ADD MSTORE PUSH1 0x64 SWAP1 REVERT JUMPDEST PUSH1 0x40 MLOAD PUSH3 0x461BCD PUSH1 0xE5 SHL DUP2 MSTORE PUSH1 0x20 PUSH1 0x4 DUP3 ADD MSTORE PUSH1 0x14 PUSH1 0x24 DUP3 ADD MSTORE PUSH20 0x13DB9B1E481C9BDD5D195C8818D85B8818D85B1B PUSH1 0x62 SHL PUSH1 0x44 DUP3 ADD MSTORE PUSH1 0x64 SWAP1 REVERT JUMPDEST CALLVALUE PUSH2 0x1E9 JUMPI PUSH1 0xA0 CALLDATASIZE PUSH1 0x3 NOT ADD SLT PUSH2 0x1E9 JUMPI PUSH1 0x1 PUSH1 0x1 PUSH1 0x40 SHL SUB PUSH1 0x24 CALLDATALOAD GT PUSH2 0x1E9 JUMPI PUSH1 0xE0 PUSH1 0x24 CALLDATALOAD CALLDATASIZE SUB PUSH1 0x3 NOT ADD SLT PUSH2 0x1E9 JUMPI PUSH1 0x40 MLOAD PUSH1 0xE0 DUP2 ADD DUP2 DUP2 LT PUSH1 0x1 PUSH1 0x1 PUSH1 0x40 SHL SUB DUP3 GT OR PUSH2 0xFBF JUMPI PUSH1 0x40 MSTORE PUSH1 0x24 CALLDATALOAD PUSH1 0x4 ADD CALLDATALOAD PUSH1 0x1 PUSH1 0x1 PUSH1 0x40 SHL SUB DUP2 GT PUSH2 0x1E9 JUMPI PUSH2 0x44E1 SWAP1 PUSH1 0x4 CALLDATASIZE SWAP2 PUSH1 0x24 CALLDATALOAD ADD ADD PUSH2 0x5E7C JUMP JUMPDEST DUP2 MSTORE PUSH1 0x24 DUP1 CALLDATALOAD ADD CALLDATALOAD PUSH1 0x1 PUSH1 0x1 PUSH1 0x40 SHL SUB DUP2 GT PUSH2 0x1E9 JUMPI PUSH2 0x4509 SWAP1 PUSH1 0x4 CALLDATASIZE SWAP2 PUSH1 0x24 CALLDATALOAD ADD ADD PUSH2 0x5F20 JUMP JUMPDEST PUSH1 0x20 DUP3 ADD MSTORE PUSH1 0x44 PUSH1 0x24 CALLDATALOAD ADD CALLDATALOAD PUSH1 0x1 PUSH1 0x1 PUSH1 0x40 SHL SUB DUP2 GT PUSH2 0x1E9 JUMPI PUSH2 0x4535 SWAP1 PUSH1 0x4 CALLDATASIZE SWAP2 PUSH1 0x24 CALLDATALOAD ADD ADD PUSH2 0x5E7C JUMP JUMPDEST PUSH1 0x40 DUP3 ADD MSTORE PUSH1 0x64 PUSH1 0x24 CALLDATALOAD ADD CALLDATALOAD PUSH1 0x1 PUSH1 0x1 PUSH1 0x40 SHL SUB DUP2 GT PUSH2 0x1E9 JUMPI PUSH2 0x4561 SWAP1 PUSH1 0x4 CALLDATASIZE SWAP2 PUSH1 0x24 CALLDATALOAD ADD ADD PUSH2 0x5E7C JUMP JUMPDEST PUSH1 0x60 DUP3 ADD MSTORE PUSH1 0x1 PUSH1 0x1 PUSH1 0x40 SHL SUB PUSH1 0x84 PUSH1 0x24 CALLDATALOAD ADD CALLDATALOAD GT PUSH2 0x1E9 JUMPI PUSH2 0x458F CALLDATASIZE PUSH1 0x24 CALLDATALOAD PUSH1 0x84 DUP2 ADD CALLDATALOAD ADD PUSH1 0x4 ADD PUSH2 0x5E7C JUMP JUMPDEST PUSH1 0x80 DUP3 ADD MSTORE PUSH1 0x24 CALLDATALOAD PUSH1 0xA4 DUP2 ADD CALLDATALOAD PUSH1 0xA0 DUP4 ADD MSTORE PUSH1 0xC4 ADD CALLDATALOAD PUSH1 0xC0 DUP3 ADD MSTORE PUSH1 0x1 PUSH1 0x1 PUSH1 0x40 SHL SUB PUSH1 0x44 CALLDATALOAD GT PUSH2 0x1E9 JUMPI PUSH1 0xC0 PUSH1 0x44 CALLDATALOAD CALLDATASIZE SUB PUSH1 0x3 NOT ADD SLT PUSH2 0x1E9 JUMPI PUSH1 0x40 MLOAD DUP1 PUSH1 0xC0 DUP2 ADD LT PUSH1 0x1 PUSH1 0x1 PUSH1 0x40 SHL SUB PUSH1 0xC0 DUP4 ADD GT OR PUSH2 0xFBF JUMPI PUSH1 0xC0 DUP2 ADD PUSH1 0x40 MSTORE PUSH1 0x44 CALLDATALOAD PUSH1 0x4 ADD CALLDATALOAD DUP2 MSTORE PUSH1 0x1 PUSH1 0x1 PUSH1 0x40 SHL SUB PUSH1 0x24 PUSH1 0x44 CALLDATALOAD ADD CALLDATALOAD GT PUSH2 0x1E9 JUMPI PUSH2 0x461E CALLDATASIZE PUSH1 0x44 CALLDATALOAD PUSH1 0x24 DUP2 ADD CALLDATALOAD ADD PUSH1 0x4 ADD PUSH2 0x5E7C JUMP JUMPDEST PUSH1 0x20 DUP3 ADD MSTORE PUSH1 0x3 PUSH1 0x44 DUP1 CALLDATALOAD ADD CALLDATALOAD LT ISZERO PUSH2 0x1E9 JUMPI PUSH1 0x44 DUP1 CALLDATALOAD ADD CALLDATALOAD PUSH1 0x40 DUP3 ADD MSTORE PUSH1 0x64 PUSH1 0x44 CALLDATALOAD ADD CALLDATALOAD PUSH1 0x2 DUP2 LT ISZERO PUSH2 0x1E9 JUMPI PUSH1 0x60 DUP3 ADD MSTORE PUSH1 0x4 PUSH1 0x84 PUSH1 0x44 CALLDATALOAD ADD CALLDATALOAD LT ISZERO PUSH2 0x1E9 JUMPI PUSH1 0x44 CALLDATALOAD PUSH1 0x84 DUP2 ADD CALLDATALOAD PUSH1 0x80 DUP4 ADD MSTORE PUSH1 0xA4 ADD CALLDATALOAD PUSH1 0xA0 DUP3 ADD MSTORE PUSH1 0x1 PUSH1 0x1 PUSH1 0x40 SHL SUB PUSH1 0x64 CALLDATALOAD GT PUSH2 0x1E9 JUMPI PUSH1 0x60 PUSH1 0x64 CALLDATALOAD CALLDATASIZE SUB PUSH1 0x3 NOT ADD SLT PUSH2 0x1E9 JUMPI PUSH1 0x40 MLOAD DUP1 PUSH1 0x60 DUP2 ADD LT PUSH1 0x1 PUSH1 0x1 PUSH1 0x40 SHL SUB PUSH1 0x60 DUP4 ADD GT OR PUSH2 0xFBF JUMPI PUSH1 0x60 DUP2 ADD PUSH1 0x40 MSTORE PUSH1 0x64 CALLDATALOAD PUSH1 0x4 ADD CALLDATALOAD PUSH1 0x1 PUSH1 0x1 PUSH1 0x40 SHL SUB DUP2 GT PUSH2 0x1E9 JUMPI PUSH2 0x46DF SWAP1 PUSH1 0x4 CALLDATASIZE SWAP2 PUSH1 0x64 CALLDATALOAD ADD ADD PUSH2 0x5E7C JUMP JUMPDEST DUP2 MSTORE PUSH1 0x1 PUSH1 0x1 PUSH1 0x40 SHL SUB PUSH1 0x24 PUSH1 0x64 CALLDATALOAD ADD CALLDATALOAD GT PUSH2 0x1E9 JUMPI PUSH2 0x470A CALLDATASIZE PUSH1 0x64 CALLDATALOAD PUSH1 0x24 DUP2 ADD CALLDATALOAD ADD PUSH1 0x4 ADD PUSH2 0x5E7C JUMP JUMPDEST PUSH1 0x20 DUP3 ADD MSTORE PUSH1 0x44 PUSH1 0x64 CALLDATALOAD ADD CALLDATALOAD PUSH1 0x1 PUSH1 0x1 PUSH1 0x40 SHL SUB DUP2 GT PUSH2 0x1E9 JUMPI PUSH2 0x4736 SWAP1 PUSH1 0x4 CALLDATASIZE SWAP2 PUSH1 0x64 CALLDATALOAD ADD ADD PUSH2 0x5F20 JUMP JUMPDEST PUSH1 0x40 DUP3 ADD MSTORE PUSH1 0x84 CALLDATALOAD PUSH1 0x1 PUSH1 0x1 PUSH1 0x40 SHL SUB DUP2 GT PUSH2 0x1E9 JUMPI PUSH2 0x475A SWAP1 CALLDATASIZE SWAP1 PUSH1 0x4 ADD PUSH2 0x5F3B JUMP JUMPDEST SWAP3 PUSH2 0x4763 PUSH2 0x6997 JUMP JUMPDEST PUSH1 0x4 CALLDATALOAD PUSH1 0x0 MSTORE PUSH1 0xA PUSH1 0x20 MSTORE PUSH1 0x1 DUP1 PUSH1 0xA0 SHL SUB PUSH1 0x1 PUSH1 0x40 PUSH1 0x0 KECCAK256 ADD SLOAD AND CALLER EQ DUP1 ISZERO PUSH2 0x5A3F JUMPI JUMPDEST PUSH2 0x4791 SWAP1 PUSH2 0x6A39 JUMP JUMPDEST PUSH1 0xA0 DUP4 ADD MLOAD ISZERO PUSH2 0x59FA JUMPI DUP1 MLOAD MLOAD ISZERO PUSH2 0x59BE JUMPI PUSH1 0x20 DUP2 ADD MLOAD MLOAD ISZERO PUSH2 0x5979 JUMPI PUSH1 0x60 DUP2 ADD MLOAD MLOAD ISZERO PUSH2 0x593D JUMPI PUSH1 0x80 DUP2 ADD MLOAD MLOAD ISZERO PUSH2 0x5900 JUMPI DUP4 MLOAD PUSH1 0x4 CALLDATALOAD PUSH1 0x0 SWAP1 DUP2 MSTORE PUSH1 0xA PUSH1 0x20 MSTORE PUSH1 0x40 SWAP1 KECCAK256 PUSH1 0xF ADD SLOAD PUSH1 0x1 PUSH1 0x1 PUSH1 0xA0 SHL SUB SWAP2 DUP3 AND SWAP2 AND SUB PUSH2 0x58BB JUMPI DUP4 MLOAD PUSH1 0x1 PUSH1 0x1 PUSH1 0xA0 SHL SUB AND CALLER SUB PUSH2 0x5876 JUMPI DUP1 MLOAD SWAP3 PUSH1 0x20 DUP3 ADD MLOAD PUSH1 0x80 MSTORE PUSH1 0x40 DUP3 ADD MLOAD PUSH2 0x160 MSTORE PUSH1 0x60 DUP3 ADD MLOAD SWAP1 PUSH1 0x80 DUP4 ADD MLOAD SWAP2 PUSH1 0xC0 PUSH1 0xA0 DUP6 ADD MLOAD SWAP5 ADD MLOAD SWAP2 DUP1 MLOAD SWAP1 PUSH1 0x20 DUP2 ADD MLOAD PUSH1 0x40 DUP3 ADD MLOAD SWAP1 PUSH1 0x3 DUP3 LT ISZERO PUSH2 0x2313 JUMPI PUSH1 0x60 DUP4 ADD MLOAD SWAP4 PUSH1 0x2 DUP6 LT ISZERO PUSH2 0x2313 JUMPI PUSH1 0x80 DUP5 ADD MLOAD SWAP7 PUSH1 0x4 DUP9 LT ISZERO PUSH2 0x2313 JUMPI DUP11 SWAP10 PUSH2 0x4950 SWAP10 PUSH2 0x4943 SWAP9 PUSH1 0x40 PUSH1 0xA0 PUSH2 0x4938 SWAP10 ADD MLOAD SWAP14 MLOAD SWAP15 ADD MLOAD SWAP15 PUSH1 0x4 CALLDATALOAD PUSH1 0x0 MSTORE PUSH1 0xA PUSH1 0x20 MSTORE PUSH1 0x17 PUSH1 0x40 PUSH1 0x0 KECCAK256 DUP1 PUSH1 0xA0 MSTORE PUSH1 0xFF PUSH1 0x14 DUP3 ADD SLOAD AND PUSH1 0xC0 MSTORE PUSH1 0x15 DUP2 ADD SLOAD PUSH2 0x200 MSTORE PUSH1 0x1 DUP1 PUSH1 0xA0 SHL SUB PUSH1 0x16 DUP3 ADD SLOAD AND PUSH2 0x1C0 MSTORE ADD SLOAD PUSH1 0xE0 MSTORE PUSH2 0x48C8 PUSH1 0x40 MLOAD DUP1 PUSH2 0x180 MSTORE PUSH2 0x5D9C JUMP JUMPDEST PUSH1 0x4 CALLDATALOAD PUSH2 0x180 MLOAD MSTORE CALLER PUSH1 0x20 PUSH2 0x180 MLOAD ADD MSTORE PUSH1 0x40 PUSH2 0x180 MLOAD ADD MSTORE PUSH1 0x80 MLOAD PUSH1 0x60 PUSH2 0x180 MLOAD ADD MSTORE PUSH2 0x160 MLOAD PUSH1 0x80 PUSH2 0x180 MLOAD ADD MSTORE PUSH1 0xA0 PUSH2 0x180 MLOAD ADD MSTORE PUSH1 0xC0 PUSH2 0x180 MLOAD ADD MSTORE PUSH1 0xE0 PUSH2 0x180 MLOAD ADD MSTORE PUSH2 0x100 PUSH2 0x180 MLOAD ADD MSTORE PUSH2 0x120 PUSH2 0x180 MLOAD ADD MSTORE PUSH2 0x140 PUSH2 0x180 MLOAD ADD MSTORE PUSH2 0x160 PUSH2 0x180 MLOAD ADD PUSH2 0x6945 JUMP JUMPDEST PUSH2 0x180 DUP1 MLOAD ADD PUSH2 0x6951 JUMP JUMPDEST PUSH2 0x1A0 PUSH2 0x180 MLOAD ADD PUSH2 0x695D JUMP JUMPDEST PUSH2 0x1C0 PUSH2 0x180 MLOAD ADD MSTORE PUSH2 0x1E0 PUSH2 0x180 MLOAD ADD MSTORE PUSH2 0x200 PUSH2 0x180 MLOAD ADD MSTORE PUSH2 0x220 PUSH2 0x180 MLOAD ADD MSTORE PUSH1 0xC0 MLOAD ISZERO ISZERO PUSH2 0x240 PUSH2 0x180 MLOAD ADD MSTORE PUSH1 0x0 PUSH2 0x260 PUSH2 0x180 MLOAD ADD MSTORE PUSH2 0x200 MLOAD PUSH2 0x280 PUSH2 0x180 MLOAD ADD MSTORE PUSH2 0x1C0 MLOAD PUSH2 0x2A0 PUSH2 0x180 MLOAD ADD MSTORE PUSH1 0xE0 MLOAD PUSH2 0x2C0 PUSH2 0x180 MLOAD ADD MSTORE PUSH1 0x4 CALLDATALOAD PUSH1 0x0 MSTORE PUSH1 0xA PUSH1 0x20 MSTORE PUSH1 0x40 PUSH1 0x0 KECCAK256 PUSH1 0x40 PUSH2 0x180 MLOAD DUP1 MLOAD DUP4 SSTORE PUSH1 0x1 DUP1 PUSH1 0xA0 SHL SUB PUSH1 0x20 DUP3 ADD MLOAD AND PUSH1 0x1 PUSH1 0x1 PUSH1 0x60 SHL SUB PUSH1 0xA0 SHL PUSH1 0x1 DUP6 ADD SLOAD AND OR PUSH1 0x1 DUP5 ADD SSTORE ADD MLOAD DUP1 MLOAD SWAP1 PUSH1 0x1 PUSH1 0x1 PUSH1 0x40 SHL SUB DUP3 GT PUSH2 0xFBF JUMPI DUP2 SWAP1 PUSH2 0x4A13 PUSH1 0x2 DUP6 ADD SLOAD PUSH2 0x6364 JUMP JUMPDEST PUSH1 0x1F DUP2 GT PUSH2 0x5841 JUMPI JUMPDEST POP PUSH1 0x20 SWAP1 PUSH1 0x1F DUP4 GT PUSH1 0x1 EQ PUSH2 0x57CF JUMPI PUSH1 0x0 SWAP3 PUSH2 0x57C4 JUMPI JUMPDEST POP POP DUP2 PUSH1 0x1 SHL SWAP2 PUSH1 0x0 NOT SWAP1 PUSH1 0x3 SHL SHR NOT AND OR PUSH1 0x2 DUP3 ADD SSTORE JUMPDEST PUSH1 0x60 PUSH2 0x180 MLOAD ADD MLOAD DUP1 MLOAD SWAP1 PUSH1 0x1 PUSH1 0x40 SHL DUP3 GT PUSH2 0xFBF JUMPI PUSH1 0x3 DUP4 ADD SLOAD DUP3 PUSH1 0x3 DUP6 ADD SSTORE DUP1 DUP4 LT PUSH2 0x574C JUMPI JUMPDEST POP PUSH1 0x20 ADD SWAP1 PUSH1 0x3 DUP4 ADD PUSH1 0x0 MSTORE PUSH1 0x20 PUSH1 0x0 KECCAK256 SWAP2 PUSH1 0x0 SWAP1 JUMPDEST DUP3 DUP3 LT PUSH2 0x5637 JUMPI DUP5 PUSH1 0x80 PUSH2 0x180 MLOAD ADD MLOAD DUP1 MLOAD SWAP1 PUSH1 0x1 PUSH1 0x1 PUSH1 0x40 SHL SUB DUP3 GT PUSH2 0xFBF JUMPI DUP2 SWAP1 PUSH2 0x4ABA PUSH1 0x4 DUP6 ADD SLOAD PUSH2 0x6364 JUMP JUMPDEST PUSH1 0x1F DUP2 GT PUSH2 0x5602 JUMPI JUMPDEST POP PUSH1 0x20 SWAP1 PUSH1 0x1F DUP4 GT PUSH1 0x1 EQ PUSH2 0x5590 JUMPI PUSH1 0x0 SWAP3 PUSH2 0x5585 JUMPI JUMPDEST POP POP DUP2 PUSH1 0x1 SHL SWAP2 PUSH1 0x0 NOT SWAP1 PUSH1 0x3 SHL SHR NOT AND OR PUSH1 0x4 DUP3 ADD SSTORE JUMPDEST PUSH1 0xA0 PUSH2 0x180 MLOAD ADD MLOAD DUP1 MLOAD SWAP1 PUSH1 0x1 PUSH1 0x1 PUSH1 0x40 SHL SUB DUP3 GT PUSH2 0xFBF JUMPI DUP2 SWAP1 PUSH2 0x4B1A PUSH1 0x5 DUP6 ADD SLOAD PUSH2 0x6364 JUMP JUMPDEST PUSH1 0x1F DUP2 GT PUSH2 0x5550 JUMPI JUMPDEST POP PUSH1 0x20 SWAP1 PUSH1 0x1F DUP4 GT PUSH1 0x1 EQ PUSH2 0x54DE JUMPI PUSH1 0x0 SWAP3 PUSH2 0x54D3 JUMPI JUMPDEST POP POP DUP2 PUSH1 0x1 SHL SWAP2 PUSH1 0x0 NOT SWAP1 PUSH1 0x3 SHL SHR NOT AND OR PUSH1 0x5 DUP3 ADD SSTORE JUMPDEST PUSH1 0xC0 PUSH2 0x180 MLOAD ADD MLOAD DUP1 MLOAD SWAP1 PUSH1 0x1 PUSH1 0x1 PUSH1 0x40 SHL SUB DUP3 GT PUSH2 0xFBF JUMPI DUP2 SWAP1 PUSH2 0x4B7A PUSH1 0x6 DUP6 ADD SLOAD PUSH2 0x6364 JUMP JUMPDEST PUSH1 0x1F DUP2 GT PUSH2 0x549E JUMPI JUMPDEST POP PUSH1 0x20 SWAP1 PUSH1 0x1F DUP4 GT PUSH1 0x1 EQ PUSH2 0x542C JUMPI PUSH1 0x0 SWAP3 PUSH2 0x5421 JUMPI JUMPDEST POP POP DUP2 PUSH1 0x1 SHL SWAP2 PUSH1 0x0 NOT SWAP1 PUSH1 0x3 SHL SHR NOT AND OR PUSH1 0x6 DUP3 ADD SSTORE JUMPDEST PUSH2 0x140 PUSH2 0x180 MLOAD PUSH1 0xE0 DUP2 ADD MLOAD PUSH1 0x7 DUP5 ADD SSTORE PUSH2 0x100 DUP2 ADD MLOAD PUSH1 0x8 DUP5 ADD SSTORE PUSH2 0x120 DUP2 ADD MLOAD PUSH1 0x9 DUP5 ADD SSTORE ADD MLOAD DUP1 MLOAD SWAP1 PUSH1 0x1 PUSH1 0x1 PUSH1 0x40 SHL SUB DUP3 GT PUSH2 0xFBF JUMPI DUP2 SWAP1 PUSH2 0x4BFB PUSH1 0xA DUP6 ADD SLOAD PUSH2 0x6364 JUMP JUMPDEST PUSH1 0x1F DUP2 GT PUSH2 0x53EC JUMPI JUMPDEST POP PUSH1 0x20 SWAP1 PUSH1 0x1F DUP4 GT PUSH1 0x1 EQ PUSH2 0x537A JUMPI PUSH1 0x0 SWAP3 PUSH2 0x536F JUMPI JUMPDEST POP POP DUP2 PUSH1 0x1 SHL SWAP2 PUSH1 0x0 NOT SWAP1 PUSH1 0x3 SHL SHR NOT AND OR PUSH1 0xA DUP3 ADD SSTORE JUMPDEST PUSH2 0x180 MLOAD PUSH2 0x160 DUP2 ADD MLOAD SWAP1 PUSH1 0x3 DUP3 LT ISZERO PUSH2 0x2313 JUMPI PUSH1 0xB DUP4 ADD SLOAD SWAP2 PUSH2 0x180 DUP3 ADD MLOAD PUSH1 0x2 DUP2 LT ISZERO PUSH2 0x2313 JUMPI PUSH2 0x1A0 DUP4 ADD MLOAD PUSH1 0x4 DUP2 LT ISZERO PUSH2 0x2313 JUMPI PUSH2 0x1E0 SWAP5 PUSH1 0xFF PUSH3 0xFF0000 PUSH2 0xFF00 SWAP4 PUSH1 0x10 SHL AND SWAP5 AND SWAP1 PUSH3 0xFFFFFF NOT AND OR SWAP2 PUSH1 0x8 SHL AND OR OR PUSH1 0xB DUP5 ADD SSTORE PUSH2 0x1C0 DUP2 ADD MLOAD PUSH1 0xC DUP5 ADD SSTORE ADD MLOAD DUP1 MLOAD SWAP1 PUSH1 0x1 PUSH1 0x1 PUSH1 0x40 SHL SUB DUP3 GT PUSH2 0xFBF JUMPI DUP2 SWAP1 PUSH2 0x4CC0 PUSH1 0xD DUP6 ADD SLOAD PUSH2 0x6364 JUMP JUMPDEST PUSH1 0x1F DUP2 GT PUSH2 0x533A JUMPI JUMPDEST POP PUSH1 0x20 SWAP1 PUSH1 0x1F DUP4 GT PUSH1 0x1 EQ PUSH2 0x52C8 JUMPI PUSH1 0x0 SWAP3 PUSH2 0x52BD JUMPI JUMPDEST POP POP DUP2 PUSH1 0x1 SHL SWAP2 PUSH1 0x0 NOT SWAP1 PUSH1 0x3 SHL SHR NOT AND OR PUSH1 0xD DUP3 ADD SSTORE JUMPDEST PUSH2 0x200 PUSH2 0x180 MLOAD ADD MLOAD DUP1 MLOAD SWAP1 PUSH1 0x1 PUSH1 0x40 SHL DUP3 GT PUSH2 0xFBF JUMPI PUSH1 0xE DUP4 ADD SLOAD DUP3 PUSH1 0xE DUP6 ADD SSTORE DUP1 DUP4 LT PUSH2 0x5245 JUMPI JUMPDEST POP PUSH1 0x20 ADD SWAP1 PUSH1 0xE DUP4 ADD PUSH1 0x0 MSTORE PUSH1 0x20 PUSH1 0x0 KECCAK256 SWAP2 PUSH1 0x0 SWAP1 JUMPDEST DUP3 DUP3 LT PUSH2 0x5130 JUMPI DUP5 PUSH1 0xF DUP2 ADD SWAP1 PUSH2 0x220 PUSH2 0x180 MLOAD ADD MLOAD SWAP2 PUSH1 0x1 DUP1 PUSH1 0xA0 SHL SUB DUP4 MLOAD AND PUSH1 0x1 PUSH1 0x1 PUSH1 0x60 SHL SUB PUSH1 0xA0 SHL DUP3 SLOAD AND OR SWAP1 SSTORE PUSH1 0x20 DUP3 ADD MLOAD SWAP2 DUP3 MLOAD PUSH1 0x1 PUSH1 0x1 PUSH1 0x40 SHL SUB DUP2 GT PUSH2 0xFBF JUMPI PUSH2 0x4D8D PUSH1 0x10 DUP5 ADD SLOAD PUSH2 0x6364 JUMP JUMPDEST PUSH1 0x1F DUP2 GT PUSH2 0x50FB JUMPI JUMPDEST POP PUSH1 0x20 PUSH1 0x1F DUP3 GT PUSH1 0x1 EQ PUSH2 0x508D JUMPI DUP2 SWAP3 SWAP4 SWAP5 PUSH1 0x0 SWAP3 PUSH2 0x5082 JUMPI JUMPDEST POP POP DUP2 PUSH1 0x1 SHL SWAP2 PUSH1 0x0 NOT SWAP1 PUSH1 0x3 SHL SHR NOT AND OR PUSH1 0x10 DUP4 ADD SSTORE JUMPDEST PUSH1 0x40 DUP2 ADD MLOAD DUP1 MLOAD SWAP1 PUSH1 0x1 PUSH1 0x1 PUSH1 0x40 SHL SUB DUP3 GT PUSH2 0xFBF JUMPI PUSH2 0x4DEB PUSH1 0x11 DUP6 ADD SLOAD PUSH2 0x6364 JUMP JUMPDEST PUSH1 0x1F DUP2 GT PUSH2 0x504D JUMPI JUMPDEST POP PUSH1 0x20 SWAP1 PUSH1 0x1F DUP4 GT PUSH1 0x1 EQ PUSH2 0x4FDA JUMPI PUSH1 0x80 SWAP4 SWAP3 SWAP2 PUSH1 0x0 SWAP2 DUP4 PUSH2 0x4FCF JUMPI JUMPDEST POP POP DUP2 PUSH1 0x1 SHL SWAP2 PUSH1 0x0 NOT SWAP1 PUSH1 0x3 SHL SHR NOT AND OR PUSH1 0x11 DUP5 ADD SSTORE JUMPDEST PUSH1 0x60 DUP2 ADD MLOAD PUSH1 0x12 DUP5 ADD SSTORE ADD MLOAD DUP1 MLOAD SWAP1 PUSH1 0x1 PUSH1 0x1 PUSH1 0x40 SHL SUB DUP3 GT PUSH2 0xFBF JUMPI DUP2 SWAP1 PUSH2 0x4E55 PUSH1 0x13 DUP6 ADD SLOAD PUSH2 0x6364 JUMP JUMPDEST PUSH1 0x1F DUP2 GT PUSH2 0x4F9A JUMPI JUMPDEST POP PUSH1 0x20 SWAP1 PUSH1 0x1F DUP4 GT PUSH1 0x1 EQ PUSH2 0x4F28 JUMPI PUSH1 0x0 SWAP3 PUSH2 0x4F1D JUMPI JUMPDEST POP POP DUP2 PUSH1 0x1 SHL SWAP2 PUSH1 0x0 NOT SWAP1 PUSH1 0x3 SHL SHR NOT AND OR PUSH1 0x13 DUP3 ADD SSTORE JUMPDEST PUSH1 0x17 PUSH2 0x2C0 PUSH1 0x14 DUP4 ADD PUSH2 0x4EBB PUSH2 0x180 MLOAD SWAP2 PUSH2 0x1D15 PUSH2 0x240 DUP5 ADD MLOAD ISZERO ISZERO DUP3 SWAP1 PUSH1 0xFF DUP1 NOT DUP4 SLOAD AND SWAP2 ISZERO ISZERO AND OR SWAP1 SSTORE JUMP JUMPDEST PUSH2 0x280 DUP2 ADD MLOAD PUSH1 0x15 DUP6 ADD SSTORE PUSH1 0x16 DUP5 ADD PUSH1 0x1 DUP1 PUSH1 0xA0 SHL SUB PUSH2 0x2A0 DUP4 ADD MLOAD AND PUSH1 0x1 PUSH1 0x1 PUSH1 0x60 SHL SUB PUSH1 0xA0 SHL DUP3 SLOAD AND OR SWAP1 SSTORE ADD MLOAD SWAP2 ADD SSTORE CALLER PUSH1 0x4 CALLDATALOAD PUSH32 0xAC4673E0C14F555F7A29DC1ABE824E57FEEB4DC61DFFC46E24A31D970178D6A PUSH1 0x0 DUP1 LOG3 PUSH1 0x1 DUP1 SSTORE STOP JUMPDEST ADD MLOAD SWAP1 POP DUP4 DUP1 PUSH2 0x4E75 JUMP JUMPDEST SWAP3 POP PUSH1 0x13 DUP5 ADD PUSH1 0x0 MSTORE PUSH1 0x20 PUSH1 0x0 KECCAK256 SWAP1 PUSH1 0x0 SWAP4 JUMPDEST PUSH1 0x1F NOT DUP5 AND DUP6 LT PUSH2 0x4F7F JUMPI PUSH1 0x1 SWAP5 POP DUP4 PUSH1 0x1F NOT DUP2 AND LT PUSH2 0x4F66 JUMPI JUMPDEST POP POP POP DUP2 SHL ADD PUSH1 0x13 DUP3 ADD SSTORE PUSH2 0x4E8D JUMP JUMPDEST ADD MLOAD PUSH1 0x0 NOT PUSH1 0xF8 DUP5 PUSH1 0x3 SHL AND SHR NOT AND SWAP1 SSTORE DUP4 DUP1 DUP1 PUSH2 0x4F56 JUMP JUMPDEST DUP2 DUP2 ADD MLOAD DUP4 SSTORE PUSH1 0x20 SWAP5 DUP6 ADD SWAP5 PUSH1 0x1 SWAP1 SWAP4 ADD SWAP3 SWAP1 SWAP2 ADD SWAP1 PUSH2 0x4F3B JUMP JUMPDEST PUSH2 0x4FC9 SWAP1 PUSH1 0x13 DUP7 ADD PUSH1 0x0 MSTORE PUSH1 0x20 PUSH1 0x0 KECCAK256 PUSH1 0x1F DUP6 ADD PUSH1 0x5 SHR DUP2 ADD SWAP2 PUSH1 0x20 DUP7 LT PUSH2 0x1F6C JUMPI PUSH1 0x1F ADD PUSH1 0x5 SHR ADD SWAP1 PUSH2 0x6969 JUMP JUMPDEST DUP5 PUSH2 0x4E5E JUMP JUMPDEST ADD MLOAD SWAP1 POP DUP6 DUP1 PUSH2 0x4E11 JUMP JUMPDEST SWAP1 PUSH1 0x11 DUP6 ADD PUSH1 0x0 MSTORE PUSH1 0x20 PUSH1 0x0 KECCAK256 SWAP2 PUSH1 0x0 JUMPDEST PUSH1 0x1F NOT DUP6 AND DUP2 LT PUSH2 0x5035 JUMPI POP SWAP2 DUP4 SWAP2 PUSH1 0x1 SWAP4 PUSH1 0x80 SWAP7 SWAP6 PUSH1 0x1F NOT DUP2 AND LT PUSH2 0x501C JUMPI JUMPDEST POP POP POP DUP2 SHL ADD PUSH1 0x11 DUP5 ADD SSTORE PUSH2 0x4E29 JUMP JUMPDEST ADD MLOAD PUSH1 0x0 NOT PUSH1 0xF8 DUP5 PUSH1 0x3 SHL AND SHR NOT AND SWAP1 SSTORE DUP6 DUP1 DUP1 PUSH2 0x500C JUMP JUMPDEST SWAP2 SWAP3 PUSH1 0x20 PUSH1 0x1 DUP2 SWAP3 DUP7 DUP6 ADD MLOAD DUP2 SSTORE ADD SWAP5 ADD SWAP3 ADD PUSH2 0x4FEB JUMP JUMPDEST PUSH2 0x507C SWAP1 PUSH1 0x11 DUP7 ADD PUSH1 0x0 MSTORE PUSH1 0x20 PUSH1 0x0 KECCAK256 PUSH1 0x1F DUP6 ADD PUSH1 0x5 SHR DUP2 ADD SWAP2 PUSH1 0x20 DUP7 LT PUSH2 0x1F6C JUMPI PUSH1 0x1F ADD PUSH1 0x5 SHR ADD SWAP1 PUSH2 0x6969 JUMP JUMPDEST DUP5 PUSH2 0x4DF4 JUMP JUMPDEST ADD MLOAD SWAP1 POP DUP5 DUP1 PUSH2 0x4DB0 JUMP JUMPDEST PUSH1 0x10 DUP5 ADD PUSH1 0x0 MSTORE PUSH1 0x20 PUSH1 0x0 KECCAK256 SWAP1 PUSH1 0x0 JUMPDEST PUSH1 0x1F NOT DUP5 AND DUP2 LT PUSH2 0x50E3 JUMPI POP PUSH1 0x1 SWAP4 SWAP5 SWAP6 DUP4 PUSH1 0x1F NOT DUP2 AND LT PUSH2 0x50CA JUMPI JUMPDEST POP POP POP DUP2 SHL ADD PUSH1 0x10 DUP4 ADD SSTORE PUSH2 0x4DC8 JUMP JUMPDEST ADD MLOAD PUSH1 0x0 NOT PUSH1 0xF8 DUP5 PUSH1 0x3 SHL AND SHR NOT AND SWAP1 SSTORE DUP5 DUP1 DUP1 PUSH2 0x50BA JUMP JUMPDEST SWAP1 SWAP2 PUSH1 0x20 PUSH1 0x1 DUP2 SWAP3 DUP6 DUP11 ADD MLOAD DUP2 SSTORE ADD SWAP4 ADD SWAP2 ADD PUSH2 0x509D JUMP JUMPDEST PUSH2 0x512A SWAP1 PUSH1 0x10 DUP6 ADD PUSH1 0x0 MSTORE PUSH1 0x20 PUSH1 0x0 KECCAK256 PUSH1 0x1F DUP5 ADD PUSH1 0x5 SHR DUP2 ADD SWAP2 PUSH1 0x20 DUP6 LT PUSH2 0x1F6C JUMPI PUSH1 0x1F ADD PUSH1 0x5 SHR ADD SWAP1 PUSH2 0x6969 JUMP JUMPDEST DUP5 PUSH2 0x4D96 JUMP JUMPDEST DUP1 MLOAD DUP1 MLOAD SWAP1 PUSH1 0x1 PUSH1 0x1 PUSH1 0x40 SHL SUB DUP3 GT PUSH2 0xFBF JUMPI PUSH2 0x514D DUP7 SLOAD PUSH2 0x6364 JUMP JUMPDEST PUSH1 0x1F DUP2 GT PUSH2 0x5213 JUMPI JUMPDEST POP PUSH1 0x20 SWAP1 PUSH1 0x1F DUP4 GT PUSH1 0x1 EQ PUSH2 0x51A3 JUMPI SWAP3 DUP3 PUSH1 0x1 SWAP5 SWAP4 PUSH1 0x20 SWAP4 DUP7 SWAP6 PUSH1 0x0 SWAP3 PUSH2 0x5198 JUMPI JUMPDEST POP POP PUSH1 0x0 NOT PUSH1 0x3 DUP4 SWAP1 SHL SHR NOT AND SWAP1 DUP5 SHL OR DUP8 SSTORE JUMPDEST ADD SWAP5 ADD SWAP2 ADD SWAP1 SWAP3 PUSH2 0x4D38 JUMP JUMPDEST ADD MLOAD SWAP1 POP DUP11 DUP1 PUSH2 0x5178 JUMP JUMPDEST SWAP1 DUP7 PUSH1 0x0 MSTORE PUSH1 0x20 PUSH1 0x0 KECCAK256 SWAP2 PUSH1 0x0 JUMPDEST PUSH1 0x1F NOT DUP6 AND DUP2 LT PUSH2 0x51FB JUMPI POP DUP4 PUSH1 0x20 SWAP4 PUSH1 0x1 SWAP7 SWAP4 DUP8 SWAP7 SWAP4 DUP8 SWAP5 PUSH1 0x1F NOT DUP2 AND LT PUSH2 0x51E2 JUMPI JUMPDEST POP POP POP DUP2 SHL ADD DUP8 SSTORE PUSH2 0x518C JUMP JUMPDEST ADD MLOAD PUSH1 0x0 NOT PUSH1 0xF8 DUP5 PUSH1 0x3 SHL AND SHR NOT AND SWAP1 SSTORE DUP11 DUP1 DUP1 PUSH2 0x51D5 JUMP JUMPDEST SWAP2 SWAP3 PUSH1 0x20 PUSH1 0x1 DUP2 SWAP3 DUP7 DUP6 ADD MLOAD DUP2 SSTORE ADD SWAP5 ADD SWAP3 ADD PUSH2 0x51B1 JUMP JUMPDEST PUSH2 0x523F SWAP1 DUP8 PUSH1 0x0 MSTORE PUSH1 0x20 PUSH1 0x0 KECCAK256 PUSH1 0x1F DUP6 ADD PUSH1 0x5 SHR DUP2 ADD SWAP2 PUSH1 0x20 DUP7 LT PUSH2 0x1F6C JUMPI PUSH1 0x1F ADD PUSH1 0x5 SHR ADD SWAP1 PUSH2 0x6969 JUMP JUMPDEST DUP8 PUSH2 0x5156 JUMP JUMPDEST PUSH1 0xE DUP5 ADD PUSH1 0x0 MSTORE PUSH1 0x20 PUSH1 0x0 KECCAK256 SWAP1 DUP4 DUP3 ADD JUMPDEST DUP2 DUP4 ADD DUP2 LT PUSH2 0x5266 JUMPI POP POP PUSH2 0x4D22 JUMP JUMPDEST DUP1 PUSH2 0x5273 PUSH1 0x1 SWAP3 SLOAD PUSH2 0x6364 JUMP JUMPDEST DUP1 PUSH2 0x5280 JUMPI JUMPDEST POP ADD PUSH2 0x5256 JUMP JUMPDEST PUSH1 0x1F DUP2 GT DUP4 EQ PUSH2 0x5296 JUMPI POP PUSH1 0x0 DUP2 SSTORE JUMPDEST DUP8 PUSH2 0x5279 JUMP JUMPDEST PUSH1 0x0 SWAP1 DUP3 DUP3 MSTORE PUSH2 0x52B4 PUSH1 0x1F PUSH1 0x20 DUP5 KECCAK256 SWAP3 ADD PUSH1 0x5 SHR DUP3 ADD DUP6 DUP4 ADD PUSH2 0x6969 JUMP JUMPDEST DUP2 DUP4 SSTORE SSTORE PUSH2 0x5290 JUMP JUMPDEST ADD MLOAD SWAP1 POP DUP4 DUP1 PUSH2 0x4CE0 JUMP JUMPDEST SWAP3 POP PUSH1 0xD DUP5 ADD PUSH1 0x0 MSTORE PUSH1 0x20 PUSH1 0x0 KECCAK256 SWAP1 PUSH1 0x0 SWAP4 JUMPDEST PUSH1 0x1F NOT DUP5 AND DUP6 LT PUSH2 0x531F JUMPI PUSH1 0x1 SWAP5 POP DUP4 PUSH1 0x1F NOT DUP2 AND LT PUSH2 0x5306 JUMPI JUMPDEST POP POP POP DUP2 SHL ADD PUSH1 0xD DUP3 ADD SSTORE PUSH2 0x4CF8 JUMP JUMPDEST ADD MLOAD PUSH1 0x0 NOT PUSH1 0xF8 DUP5 PUSH1 0x3 SHL AND SHR NOT AND SWAP1 SSTORE DUP4 DUP1 DUP1 PUSH2 0x52F6 JUMP JUMPDEST DUP2 DUP2 ADD MLOAD DUP4 SSTORE PUSH1 0x20 SWAP5 DUP6 ADD SWAP5 PUSH1 0x1 SWAP1 SWAP4 ADD SWAP3 SWAP1 SWAP2 ADD SWAP1 PUSH2 0x52DB JUMP JUMPDEST PUSH2 0x5369 SWAP1 PUSH1 0xD DUP7 ADD PUSH1 0x0 MSTORE PUSH1 0x20 PUSH1 0x0 KECCAK256 PUSH1 0x1F DUP6 ADD PUSH1 0x5 SHR DUP2 ADD SWAP2 PUSH1 0x20 DUP7 LT PUSH2 0x1F6C JUMPI PUSH1 0x1F ADD PUSH1 0x5 SHR ADD SWAP1 PUSH2 0x6969 JUMP JUMPDEST DUP5 PUSH2 0x4CC9 JUMP JUMPDEST ADD MLOAD SWAP1 POP DUP4 DUP1 PUSH2 0x4C1B JUMP JUMPDEST SWAP3 POP PUSH1 0xA DUP5 ADD PUSH1 0x0 MSTORE PUSH1 0x20 PUSH1 0x0 KECCAK256 SWAP1 PUSH1 0x0 SWAP4 JUMPDEST PUSH1 0x1F NOT DUP5 AND DUP6 LT PUSH2 0x53D1 JUMPI PUSH1 0x1 SWAP5 POP DUP4 PUSH1 0x1F NOT DUP2 AND LT PUSH2 0x53B8 JUMPI JUMPDEST POP POP POP DUP2 SHL ADD PUSH1 0xA DUP3 ADD SSTORE PUSH2 0x4C33 JUMP JUMPDEST ADD MLOAD PUSH1 0x0 NOT PUSH1 0xF8 DUP5 PUSH1 0x3 SHL AND SHR NOT AND SWAP1 SSTORE DUP4 DUP1 DUP1 PUSH2 0x53A8 JUMP JUMPDEST DUP2 DUP2 ADD MLOAD DUP4 SSTORE PUSH1 0x20 SWAP5 DUP6 ADD SWAP5 PUSH1 0x1 SWAP1 SWAP4 ADD SWAP3 SWAP1 SWAP2 ADD SWAP1 PUSH2 0x538D JUMP JUMPDEST PUSH2 0x541B SWAP1 PUSH1 0xA DUP7 ADD PUSH1 0x0 MSTORE PUSH1 0x20 PUSH1 0x0 KECCAK256 PUSH1 0x1F DUP6 ADD PUSH1 0x5 SHR DUP2 ADD SWAP2 PUSH1 0x20 DUP7 LT PUSH2 0x1F6C JUMPI PUSH1 0x1F ADD PUSH1 0x5 SHR ADD SWAP1 PUSH2 0x6969 JUMP JUMPDEST DUP5 PUSH2 0x4C04 JUMP JUMPDEST ADD MLOAD SWAP1 POP DUP4 DUP1 PUSH2 0x4B9A JUMP JUMPDEST SWAP3 POP PUSH1 0x6 DUP5 ADD PUSH1 0x0 MSTORE PUSH1 0x20 PUSH1 0x0 KECCAK256 SWAP1 PUSH1 0x0 SWAP4 JUMPDEST PUSH1 0x1F NOT DUP5 AND DUP6 LT PUSH2 0x5483 JUMPI PUSH1 0x1 SWAP5 POP DUP4 PUSH1 0x1F NOT DUP2 AND LT PUSH2 0x546A JUMPI JUMPDEST POP POP POP DUP2 SHL ADD PUSH1 0x6 DUP3 ADD SSTORE PUSH2 0x4BB2 JUMP JUMPDEST ADD MLOAD PUSH1 0x0 NOT PUSH1 0xF8 DUP5 PUSH1 0x3 SHL AND SHR NOT AND SWAP1 SSTORE DUP4 DUP1 DUP1 PUSH2 0x545A JUMP JUMPDEST DUP2 DUP2 ADD MLOAD DUP4 SSTORE PUSH1 0x20 SWAP5 DUP6 ADD SWAP5 PUSH1 0x1 SWAP1 SWAP4 ADD SWAP3 SWAP1 SWAP2 ADD SWAP1 PUSH2 0x543F JUMP JUMPDEST PUSH2 0x54CD SWAP1 PUSH1 0x6 DUP7 ADD PUSH1 0x0 MSTORE PUSH1 0x20 PUSH1 0x0 KECCAK256 PUSH1 0x1F DUP6 ADD PUSH1 0x5 SHR DUP2 ADD SWAP2 PUSH1 0x20 DUP7 LT PUSH2 0x1F6C JUMPI PUSH1 0x1F ADD PUSH1 0x5 SHR ADD SWAP1 PUSH2 0x6969 JUMP JUMPDEST DUP5 PUSH2 0x4B83 JUMP JUMPDEST ADD MLOAD SWAP1 POP DUP4 DUP1 PUSH2 0x4B3A JUMP JUMPDEST SWAP3 POP PUSH1 0x5 DUP5 ADD PUSH1 0x0 MSTORE PUSH1 0x20 PUSH1 0x0 KECCAK256 SWAP1 PUSH1 0x0 SWAP4 JUMPDEST PUSH1 0x1F NOT DUP5 AND DUP6 LT PUSH2 0x5535 JUMPI PUSH1 0x1 SWAP5 POP DUP4 PUSH1 0x1F NOT DUP2 AND LT PUSH2 0x551C JUMPI JUMPDEST POP POP POP DUP2 SHL ADD PUSH1 0x5 DUP3 ADD SSTORE PUSH2 0x4B52 JUMP JUMPDEST ADD MLOAD PUSH1 0x0 NOT PUSH1 0xF8 DUP5 PUSH1 0x3 SHL AND SHR NOT AND SWAP1 SSTORE DUP4 DUP1 DUP1 PUSH2 0x550C JUMP JUMPDEST DUP2 DUP2 ADD MLOAD DUP4 SSTORE PUSH1 0x20 SWAP5 DUP6 ADD SWAP5 PUSH1 0x1 SWAP1 SWAP4 ADD SWAP3 SWAP1 SWAP2 ADD SWAP1 PUSH2 0x54F1 JUMP JUMPDEST PUSH2 0x557F SWAP1 PUSH1 0x5 DUP7 ADD PUSH1 0x0 MSTORE PUSH1 0x20 PUSH1 0x0 KECCAK256 PUSH1 0x1F DUP6 ADD PUSH1 0x5 SHR DUP2 ADD SWAP2 PUSH1 0x20 DUP7 LT PUSH2 0x1F6C JUMPI PUSH1 0x1F ADD PUSH1 0x5 SHR ADD SWAP1 PUSH2 0x6969 JUMP JUMPDEST DUP5 PUSH2 0x4B23 JUMP JUMPDEST ADD MLOAD SWAP1 POP DUP4 DUP1 PUSH2 0x4ADA JUMP JUMPDEST SWAP3 POP PUSH1 0x4 DUP5 ADD PUSH1 0x0 MSTORE PUSH1 0x20 PUSH1 0x0 KECCAK256 SWAP1 PUSH1 0x0 SWAP4 JUMPDEST PUSH1 0x1F NOT DUP5 AND DUP6 LT PUSH2 0x55E7 JUMPI PUSH1 0x1 SWAP5 POP DUP4 PUSH1 0x1F NOT DUP2 AND LT PUSH2 0x55CE JUMPI JUMPDEST POP POP POP DUP2 SHL ADD PUSH1 0x4 DUP3 ADD SSTORE PUSH2 0x4AF2 JUMP JUMPDEST ADD MLOAD PUSH1 0x0 NOT PUSH1 0xF8 DUP5 PUSH1 0x3 SHL AND SHR NOT AND SWAP1 SSTORE DUP4 DUP1 DUP1 PUSH2 0x55BE JUMP JUMPDEST DUP2 DUP2 ADD MLOAD DUP4 SSTORE PUSH1 0x20 SWAP5 DUP6 ADD SWAP5 PUSH1 0x1 SWAP1 SWAP4 ADD SWAP3 SWAP1 SWAP2 ADD SWAP1 PUSH2 0x55A3 JUMP JUMPDEST PUSH2 0x5631 SWAP1 PUSH1 0x4 DUP7 ADD PUSH1 0x0 MSTORE PUSH1 0x20 PUSH1 0x0 KECCAK256 PUSH1 0x1F DUP6 ADD PUSH1 0x5 SHR DUP2 ADD SWAP2 PUSH1 0x20 DUP7 LT PUSH2 0x1F6C JUMPI PUSH1 0x1F ADD PUSH1 0x5 SHR ADD SWAP1 PUSH2 0x6969 JUMP JUMPDEST DUP5 PUSH2 0x4AC3 JUMP JUMPDEST DUP1 MLOAD DUP1 MLOAD SWAP1 PUSH1 0x1 PUSH1 0x1 PUSH1 0x40 SHL SUB DUP3 GT PUSH2 0xFBF JUMPI PUSH2 0x5654 DUP7 SLOAD PUSH2 0x6364 JUMP JUMPDEST PUSH1 0x1F DUP2 GT PUSH2 0x571A JUMPI JUMPDEST POP PUSH1 0x20 SWAP1 PUSH1 0x1F DUP4 GT PUSH1 0x1 EQ PUSH2 0x56AA JUMPI SWAP3 DUP3 PUSH1 0x1 SWAP5 SWAP4 PUSH1 0x20 SWAP4 DUP7 SWAP6 PUSH1 0x0 SWAP3 PUSH2 0x569F JUMPI JUMPDEST POP POP PUSH1 0x0 NOT PUSH1 0x3 DUP4 SWAP1 SHL SHR NOT AND SWAP1 DUP5 SHL OR DUP8 SSTORE JUMPDEST ADD SWAP5 ADD SWAP2 ADD SWAP1 SWAP3 PUSH2 0x4A8A JUMP JUMPDEST ADD MLOAD SWAP1 POP DUP11 DUP1 PUSH2 0x567F JUMP JUMPDEST SWAP1 DUP7 PUSH1 0x0 MSTORE PUSH1 0x20 PUSH1 0x0 KECCAK256 SWAP2 PUSH1 0x0 JUMPDEST PUSH1 0x1F NOT DUP6 AND DUP2 LT PUSH2 0x5702 JUMPI POP DUP4 PUSH1 0x20 SWAP4 PUSH1 0x1 SWAP7 SWAP4 DUP8 SWAP7 SWAP4 DUP8 SWAP5 PUSH1 0x1F NOT DUP2 AND LT PUSH2 0x56E9 JUMPI JUMPDEST POP POP POP DUP2 SHL ADD DUP8 SSTORE PUSH2 0x5693 JUMP JUMPDEST ADD MLOAD PUSH1 0x0 NOT PUSH1 0xF8 DUP5 PUSH1 0x3 SHL AND SHR NOT AND SWAP1 SSTORE DUP11 DUP1 DUP1 PUSH2 0x56DC JUMP JUMPDEST SWAP2 SWAP3 PUSH1 0x20 PUSH1 0x1 DUP2 SWAP3 DUP7 DUP6 ADD MLOAD DUP2 SSTORE ADD SWAP5 ADD SWAP3 ADD PUSH2 0x56B8 JUMP JUMPDEST PUSH2 0x5746 SWAP1 DUP8 PUSH1 0x0 MSTORE PUSH1 0x20 PUSH1 0x0 KECCAK256 PUSH1 0x5 PUSH1 0x1F DUP7 ADD DUP2 SHR DUP3 ADD SWAP3 PUSH1 0x20 DUP8 LT PUSH2 0x26F7 JUMPI PUSH1 0x1F ADD SWAP1 SHR ADD SWAP1 PUSH2 0x6969 JUMP JUMPDEST DUP8 PUSH2 0x565D JUMP JUMPDEST PUSH1 0x3 DUP5 ADD PUSH1 0x0 MSTORE PUSH1 0x20 PUSH1 0x0 KECCAK256 SWAP1 DUP4 DUP3 ADD JUMPDEST DUP2 DUP4 ADD DUP2 LT PUSH2 0x576D JUMPI POP POP PUSH2 0x4A74 JUMP JUMPDEST DUP1 PUSH2 0x577A PUSH1 0x1 SWAP3 SLOAD PUSH2 0x6364 JUMP JUMPDEST DUP1 PUSH2 0x5787 JUMPI JUMPDEST POP ADD PUSH2 0x575D JUMP JUMPDEST PUSH1 0x1F DUP2 GT DUP4 EQ PUSH2 0x579D JUMPI POP PUSH1 0x0 DUP2 SSTORE JUMPDEST DUP8 PUSH2 0x5780 JUMP JUMPDEST PUSH1 0x0 SWAP1 DUP3 DUP3 MSTORE PUSH2 0x57BB PUSH1 0x1F PUSH1 0x20 DUP5 KECCAK256 SWAP3 ADD PUSH1 0x5 SHR DUP3 ADD DUP6 DUP4 ADD PUSH2 0x6969 JUMP JUMPDEST DUP2 DUP4 SSTORE SSTORE PUSH2 0x5797 JUMP JUMPDEST ADD MLOAD SWAP1 POP DUP4 DUP1 PUSH2 0x4A33 JUMP JUMPDEST SWAP3 POP PUSH1 0x2 DUP5 ADD PUSH1 0x0 MSTORE PUSH1 0x20 PUSH1 0x0 KECCAK256 SWAP1 PUSH1 0x0 SWAP4 JUMPDEST PUSH1 0x1F NOT DUP5 AND DUP6 LT PUSH2 0x5826 JUMPI PUSH1 0x1 SWAP5 POP DUP4 PUSH1 0x1F NOT DUP2 AND LT PUSH2 0x580D JUMPI JUMPDEST POP POP POP DUP2 SHL ADD PUSH1 0x2 DUP3 ADD SSTORE PUSH2 0x4A4B JUMP JUMPDEST ADD MLOAD PUSH1 0x0 NOT PUSH1 0xF8 DUP5 PUSH1 0x3 SHL AND SHR NOT AND SWAP1 SSTORE DUP4 DUP1 DUP1 PUSH2 0x57FD JUMP JUMPDEST DUP2 DUP2 ADD MLOAD DUP4 SSTORE PUSH1 0x20 SWAP5 DUP6 ADD SWAP5 PUSH1 0x1 SWAP1 SWAP4 ADD SWAP3 SWAP1 SWAP2 ADD SWAP1 PUSH2 0x57E2 JUMP JUMPDEST PUSH2 0x5870 SWAP1 PUSH1 0x2 DUP7 ADD PUSH1 0x0 MSTORE PUSH1 0x20 PUSH1 0x0 KECCAK256 PUSH1 0x1F DUP6 ADD PUSH1 0x5 SHR DUP2 ADD SWAP2 PUSH1 0x20 DUP7 LT PUSH2 0x1F6C JUMPI PUSH1 0x1F ADD PUSH1 0x5 SHR ADD SWAP1 PUSH2 0x6969 JUMP JUMPDEST DUP5 PUSH2 0x4A1C JUMP JUMPDEST PUSH1 0x40 MLOAD PUSH3 0x461BCD PUSH1 0xE5 SHL DUP2 MSTORE PUSH1 0x20 PUSH1 0x4 DUP3 ADD MSTORE PUSH1 0x1F PUSH1 0x24 DUP3 ADD MSTORE PUSH32 0x53656C6C65722077616C6C6574206D757374206D617463682073656E64657200 PUSH1 0x44 DUP3 ADD MSTORE PUSH1 0x64 SWAP1 REVERT JUMPDEST PUSH1 0x40 MLOAD PUSH3 0x461BCD PUSH1 0xE5 SHL DUP2 MSTORE PUSH1 0x20 PUSH1 0x4 DUP3 ADD MSTORE PUSH1 0x1B PUSH1 0x24 DUP3 ADD MSTORE PUSH32 0x43616E6E6F74206368616E67652073656C6C65722077616C6C65740000000000 PUSH1 0x44 DUP3 ADD MSTORE PUSH1 0x64 SWAP1 REVERT JUMPDEST PUSH1 0x40 MLOAD PUSH3 0x461BCD PUSH1 0xE5 SHL DUP2 MSTORE PUSH1 0x20 PUSH1 0x4 DUP3 ADD MSTORE PUSH1 0x15 PUSH1 0x24 DUP3 ADD MSTORE PUSH21 0x4D6F64656C2063616E6E6F7420626520656D707479 PUSH1 0x58 SHL PUSH1 0x44 DUP3 ADD MSTORE PUSH1 0x64 SWAP1 REVERT JUMPDEST PUSH1 0x40 MLOAD PUSH3 0x461BCD PUSH1 0xE5 SHL DUP2 MSTORE PUSH1 0x20 PUSH1 0x4 DUP3 ADD MSTORE PUSH1 0x14 PUSH1 0x24 DUP3 ADD MSTORE PUSH20 0x4D616B652063616E6E6F7420626520656D707479 PUSH1 0x60 SHL PUSH1 0x44 DUP3 ADD MSTORE PUSH1 0x64 SWAP1 REVERT JUMPDEST PUSH1 0x40 MLOAD PUSH3 0x461BCD PUSH1 0xE5 SHL DUP2 MSTORE PUSH1 0x20 PUSH1 0x4 DUP3 ADD MSTORE PUSH1 0x1E PUSH1 0x24 DUP3 ADD MSTORE PUSH32 0x4174206C65617374206F6E6520696D6167652069732072657175697265640000 PUSH1 0x44 DUP3 ADD MSTORE PUSH1 0x64 SWAP1 REVERT JUMPDEST PUSH1 0x40 MLOAD PUSH3 0x461BCD PUSH1 0xE5 SHL DUP2 MSTORE PUSH1 0x20 PUSH1 0x4 DUP3 ADD MSTORE PUSH1 0x14 PUSH1 0x24 DUP3 ADD MSTORE PUSH20 0x4E616D652063616E6E6F7420626520656D707479 PUSH1 0x60 SHL PUSH1 0x44 DUP3 ADD MSTORE PUSH1 0x64 SWAP1 REVERT JUMPDEST PUSH1 0x40 MLOAD PUSH3 0x461BCD PUSH1 0xE5 SHL DUP2 MSTORE PUSH1 0x20 PUSH1 0x4 DUP3 ADD MSTORE PUSH1 0x1C PUSH1 0x24 DUP3 ADD MSTORE PUSH32 0x5072696365206D7573742062652067726561746572207468616E203000000000 PUSH1 0x44 DUP3 ADD MSTORE PUSH1 0x64 SWAP1 REVERT JUMPDEST POP PUSH1 0x0 SLOAD PUSH1 0x1 PUSH1 0x1 PUSH1 0xA0 SHL SUB AND CALLER EQ PUSH2 0x4788 JUMP JUMPDEST CALLVALUE PUSH2 0x1E9 JUMPI PUSH1 0x20 CALLDATASIZE PUSH1 0x3 NOT ADD SLT PUSH2 0x1E9 JUMPI PUSH1 0x4 CALLDATALOAD PUSH1 0x0 MSTORE PUSH1 0xE PUSH1 0x20 MSTORE PUSH1 0x20 PUSH1 0x40 PUSH1 0x0 KECCAK256 SLOAD PUSH1 0x40 MLOAD SWAP1 DUP2 MSTORE RETURN JUMPDEST CALLVALUE PUSH2 0x1E9 JUMPI PUSH1 0x40 CALLDATASIZE PUSH1 0x3 NOT ADD SLT PUSH2 0x1E9 JUMPI PUSH2 0x5A98 PUSH2 0x5D70 JUMP JUMPDEST PUSH1 0x24 CALLDATALOAD SWAP1 PUSH1 0x1 PUSH1 0x1 PUSH1 0xA0 SHL SUB DUP1 DUP1 PUSH2 0x5AAF DUP6 PUSH2 0x6341 JUMP JUMPDEST AND SWAP3 AND SWAP2 DUP1 DUP4 EQ PUSH2 0x5BAA JUMPI DUP1 CALLER EQ SWAP1 DUP2 ISZERO PUSH2 0x5B85 JUMPI JUMPDEST POP ISZERO PUSH2 0x5B1A JUMPI PUSH1 0x0 DUP4 DUP2 MSTORE PUSH1 0x6 PUSH1 0x20 MSTORE PUSH1 0x40 SWAP1 KECCAK256 DUP1 SLOAD PUSH1 0x1 PUSH1 0x1 PUSH1 0xA0 SHL SUB NOT AND DUP4 OR SWAP1 SSTORE PUSH2 0x5AF2 DUP4 PUSH2 0x6341 JUMP JUMPDEST AND PUSH32 0x8C5BE1E5EBEC7D5BD14F71427D1E84F3DD0314C0F7B2291E5B200AC8C7C3B925 PUSH1 0x0 DUP1 LOG4 STOP JUMPDEST PUSH1 0x40 MLOAD PUSH3 0x461BCD PUSH1 0xE5 SHL DUP2 MSTORE PUSH1 0x20 PUSH1 0x4 DUP3 ADD MSTORE PUSH1 0x3D PUSH1 0x24 DUP3 ADD MSTORE PUSH32 0x4552433732313A20617070726F76652063616C6C6572206973206E6F7420746F PUSH1 0x44 DUP3 ADD MSTORE PUSH32 0x6B656E206F776E6572206F7220617070726F76656420666F7220616C6C000000 PUSH1 0x64 DUP3 ADD MSTORE PUSH1 0x84 SWAP1 REVERT JUMPDEST SWAP1 POP PUSH1 0x0 MSTORE PUSH1 0x7 PUSH1 0x20 MSTORE PUSH1 0x40 PUSH1 0x0 KECCAK256 CALLER PUSH1 0x0 MSTORE PUSH1 0x20 MSTORE PUSH1 0xFF PUSH1 0x40 PUSH1 0x0 KECCAK256 SLOAD AND DUP5 PUSH2 0x5AC5 JUMP JUMPDEST PUSH1 0x40 MLOAD PUSH3 0x461BCD PUSH1 0xE5 SHL DUP2 MSTORE PUSH1 0x20 PUSH1 0x4 DUP3 ADD MSTORE PUSH1 0x21 PUSH1 0x24 DUP3 ADD MSTORE PUSH32 0x4552433732313A20617070726F76616C20746F2063757272656E74206F776E65 PUSH1 0x44 DUP3 ADD MSTORE PUSH1 0x39 PUSH1 0xF9 SHL PUSH1 0x64 DUP3 ADD MSTORE PUSH1 0x84 SWAP1 REVERT JUMPDEST CALLVALUE PUSH2 0x1E9 JUMPI PUSH1 0x20 CALLDATASIZE PUSH1 0x3 NOT ADD SLT PUSH2 0x1E9 JUMPI PUSH1 0x20 PUSH2 0x29EC PUSH1 0x4 CALLDATALOAD PUSH2 0x6434 JUMP JUMPDEST CALLVALUE PUSH2 0x1E9 JUMPI PUSH1 0x0 CALLDATASIZE PUSH1 0x3 NOT ADD SLT PUSH2 0x1E9 JUMPI PUSH1 0x40 MLOAD PUSH1 0x0 PUSH1 0x2 SLOAD PUSH2 0x5C39 DUP2 PUSH2 0x6364 JUMP JUMPDEST DUP1 DUP5 MSTORE SWAP1 PUSH1 0x1 SWAP1 DUP2 DUP2 AND SWAP1 DUP2 ISZERO PUSH2 0x896 JUMPI POP PUSH1 0x1 EQ PUSH2 0x5C62 JUMPI PUSH2 0x3D0 DUP5 PUSH2 0x827 DUP2 DUP7 SUB DUP3 PUSH2 0x5E09 JUMP JUMPDEST PUSH1 0x2 PUSH1 0x0 SWAP1 DUP2 MSTORE SWAP3 POP PUSH32 0x405787FA12A823E0F2B7631CC41B3BA8828B3321CA811111FA75CD3AA3BB5ACE JUMPDEST DUP3 DUP5 LT PUSH2 0x5CA5 JUMPI POP POP POP DUP2 ADD PUSH1 0x20 ADD PUSH2 0x827 DUP3 PUSH2 0x817 JUMP JUMPDEST DUP1 SLOAD PUSH1 0x20 DUP6 DUP8 ADD DUP2 ADD SWAP2 SWAP1 SWAP2 MSTORE SWAP1 SWAP4 ADD SWAP3 DUP2 ADD PUSH2 0x5C8D JUMP JUMPDEST CALLVALUE PUSH2 0x1E9 JUMPI PUSH1 0x20 CALLDATASIZE PUSH1 0x3 NOT ADD SLT PUSH2 0x1E9 JUMPI PUSH1 0x4 CALLDATALOAD SWAP1 PUSH4 0xFFFFFFFF PUSH1 0xE0 SHL DUP3 AND DUP1 SWAP3 SUB PUSH2 0x1E9 JUMPI PUSH1 0x20 SWAP2 PUSH4 0x80AC58CD PUSH1 0xE0 SHL DUP2 EQ SWAP1 DUP2 ISZERO PUSH2 0x5D17 JUMPI JUMPDEST DUP2 ISZERO PUSH2 0x5D06 JUMPI JUMPDEST POP ISZERO ISZERO DUP2 MSTORE RETURN JUMPDEST PUSH4 0x1FFC9A7 PUSH1 0xE0 SHL EQ SWAP1 POP DUP4 PUSH2 0x5CFF JUMP JUMPDEST PUSH4 0x5B5E139F PUSH1 0xE0 SHL DUP2 EQ SWAP2 POP PUSH2 0x5CF8 JUMP JUMPDEST PUSH1 0x0 JUMPDEST DUP4 DUP2 LT PUSH2 0x5D3B JUMPI POP POP PUSH1 0x0 SWAP2 ADD MSTORE JUMP JUMPDEST DUP2 DUP2 ADD MLOAD DUP4 DUP3 ADD MSTORE PUSH1 0x20 ADD PUSH2 0x5D2B JUMP JUMPDEST SWAP1 PUSH1 0x20 SWAP2 PUSH2 0x5D64 DUP2 MLOAD DUP1 SWAP3 DUP2 DUP6 MSTORE DUP6 DUP1 DUP7 ADD SWAP2 ADD PUSH2 0x5D28 JUMP JUMPDEST PUSH1 0x1F ADD PUSH1 0x1F NOT AND ADD ADD SWAP1 JUMP JUMPDEST PUSH1 0x4 CALLDATALOAD SWAP1 PUSH1 0x1 PUSH1 0x1 PUSH1 0xA0 SHL SUB DUP3 AND DUP3 SUB PUSH2 0x1E9 JUMPI JUMP JUMPDEST PUSH1 0x24 CALLDATALOAD SWAP1 PUSH1 0x1 PUSH1 0x1 PUSH1 0xA0 SHL SUB DUP3 AND DUP3 SUB PUSH2 0x1E9 JUMPI JUMP JUMPDEST PUSH2 0x2E0 DUP2 ADD SWAP1 DUP2 LT PUSH1 0x1 PUSH1 0x1 PUSH1 0x40 SHL SUB DUP3 GT OR PUSH2 0xFBF JUMPI PUSH1 0x40 MSTORE JUMP JUMPDEST PUSH1 0xA0 DUP2 ADD SWAP1 DUP2 LT PUSH1 0x1 PUSH1 0x1 PUSH1 0x40 SHL SUB DUP3 GT OR PUSH2 0xFBF JUMPI PUSH1 0x40 MSTORE JUMP JUMPDEST PUSH1 0x80 DUP2 ADD SWAP1 DUP2 LT PUSH1 0x1 PUSH1 0x1 PUSH1 0x40 SHL SUB DUP3 GT OR PUSH2 0xFBF JUMPI PUSH1 0x40 MSTORE JUMP JUMPDEST PUSH1 0x20 DUP2 ADD SWAP1 DUP2 LT PUSH1 0x1 PUSH1 0x1 PUSH1 0x40 SHL SUB DUP3 GT OR PUSH2 0xFBF JUMPI PUSH1 0x40 MSTORE JUMP JUMPDEST SWAP1 PUSH1 0x1F DUP1 NOT SWAP2 ADD AND DUP2 ADD SWAP1 DUP2 LT PUSH1 0x1 PUSH1 0x1 PUSH1 0x40 SHL SUB DUP3 GT OR PUSH2 0xFBF JUMPI PUSH1 0x40 MSTORE JUMP JUMPDEST PUSH1 0x1 PUSH1 0x1 PUSH1 0x40 SHL SUB DUP2 GT PUSH2 0xFBF JUMPI PUSH1 0x1F ADD PUSH1 0x1F NOT AND PUSH1 0x20 ADD SWAP1 JUMP JUMPDEST SWAP3 SWAP2 SWAP3 PUSH2 0x5E51 DUP3 PUSH2 0x5E2A JUMP JUMPDEST SWAP2 PUSH2 0x5E5F PUSH1 0x40 MLOAD SWAP4 DUP5 PUSH2 0x5E09 JUMP JUMPDEST DUP3 SWAP5 DUP2 DUP5 MSTORE DUP2 DUP4 ADD GT PUSH2 0x1E9 JUMPI DUP3 DUP2 PUSH1 0x20 SWAP4 DUP5 PUSH1 0x0 SWAP7 ADD CALLDATACOPY ADD ADD MSTORE JUMP JUMPDEST SWAP1 DUP1 PUSH1 0x1F DUP4 ADD SLT ISZERO PUSH2 0x1E9 JUMPI DUP2 PUSH1 0x20 PUSH2 0x5E97 SWAP4 CALLDATALOAD SWAP2 ADD PUSH2 0x5E45 JUMP JUMPDEST SWAP1 JUMP JUMPDEST PUSH1 0x1 PUSH1 0x1 PUSH1 0x40 SHL SUB DUP2 GT PUSH2 0xFBF JUMPI PUSH1 0x5 SHL PUSH1 0x20 ADD SWAP1 JUMP JUMPDEST SWAP3 SWAP2 SWAP1 SWAP3 PUSH2 0x5EBE DUP5 PUSH2 0x5E9A JUMP JUMPDEST SWAP2 PUSH2 0x5ECC PUSH1 0x40 MLOAD SWAP4 DUP5 PUSH2 0x5E09 JUMP JUMPDEST DUP3 SWAP5 DUP1 DUP5 MSTORE PUSH1 0x20 DUP1 SWAP5 ADD SWAP1 PUSH1 0x5 SHL DUP4 ADD SWAP3 DUP3 DUP5 GT PUSH2 0x1E9 JUMPI DUP1 SWAP2 JUMPDEST DUP5 DUP4 LT PUSH2 0x5EF6 JUMPI POP POP POP POP POP POP JUMP JUMPDEST DUP3 CALLDATALOAD PUSH1 0x1 PUSH1 0x1 PUSH1 0x40 SHL SUB DUP2 GT PUSH2 0x1E9 JUMPI DUP7 SWAP2 PUSH2 0x5F15 DUP7 DUP5 SWAP4 DUP7 ADD PUSH2 0x5E7C JUMP JUMPDEST DUP2 MSTORE ADD SWAP3 ADD SWAP2 PUSH2 0x5EE7 JUMP JUMPDEST SWAP1 DUP1 PUSH1 0x1F DUP4 ADD SLT ISZERO PUSH2 0x1E9 JUMPI DUP2 PUSH1 0x20 PUSH2 0x5E97 SWAP4 CALLDATALOAD SWAP2 ADD PUSH2 0x5EB1 JUMP JUMPDEST SWAP2 SWAP1 PUSH1 0xA0 DUP4 DUP3 SUB SLT PUSH2 0x1E9 JUMPI PUSH1 0x40 MLOAD SWAP1 PUSH2 0x5F54 DUP3 PUSH2 0x5DB8 JUMP JUMPDEST SWAP1 SWAP3 DUP4 SWAP2 SWAP1 DUP1 CALLDATALOAD PUSH1 0x1 PUSH1 0x1 PUSH1 0xA0 SHL SUB DUP2 AND DUP2 SUB PUSH2 0x1E9 JUMPI DUP4 MSTORE PUSH1 0x1 PUSH1 0x1 PUSH1 0x40 SHL SUB SWAP2 PUSH1 0x20 DUP3 ADD CALLDATALOAD DUP4 DUP2 GT PUSH2 0x1E9 JUMPI DUP2 PUSH2 0x5F8E SWAP2 DUP5 ADD PUSH2 0x5E7C JUMP JUMPDEST PUSH1 0x20 DUP6 ADD MSTORE PUSH1 0x40 DUP3 ADD CALLDATALOAD DUP4 DUP2 GT PUSH2 0x1E9 JUMPI DUP2 PUSH2 0x5FAB SWAP2 DUP5 ADD PUSH2 0x5E7C JUMP JUMPDEST PUSH1 0x40 DUP6 ADD MSTORE PUSH1 0x60 DUP3 ADD CALLDATALOAD PUSH1 0x60 DUP6 ADD MSTORE PUSH1 0x80 DUP3 ADD CALLDATALOAD SWAP3 DUP4 GT PUSH2 0x1E9 JUMPI PUSH1 0x80 SWAP3 PUSH2 0x5FD3 SWAP3 ADD PUSH2 0x5E7C JUMP JUMPDEST SWAP2 ADD MSTORE JUMP JUMPDEST PUSH1 0x60 SWAP1 PUSH1 0x3 NOT ADD SLT PUSH2 0x1E9 JUMPI PUSH1 0x1 PUSH1 0x1 PUSH1 0xA0 SHL SUB SWAP1 PUSH1 0x4 CALLDATALOAD DUP3 DUP2 AND DUP2 SUB PUSH2 0x1E9 JUMPI SWAP2 PUSH1 0x24 CALLDATALOAD SWAP1 DUP2 AND DUP2 SUB PUSH2 0x1E9 JUMPI SWAP1 PUSH1 0x44 CALLDATALOAD SWAP1 JUMP JUMPDEST SWAP1 DUP2 MLOAD DUP1 DUP3 MSTORE PUSH1 0x20 DUP1 SWAP3 ADD SWAP2 DUP3 DUP2 DUP4 PUSH1 0x5 SHL DUP6 ADD SWAP6 ADD SWAP4 PUSH1 0x0 SWAP2 JUMPDEST DUP5 DUP4 LT PUSH2 0x6038 JUMPI POP POP POP POP POP POP SWAP1 JUMP JUMPDEST SWAP1 SWAP2 SWAP3 SWAP4 SWAP5 SWAP6 DUP5 DUP1 PUSH2 0x6052 DUP4 DUP6 PUSH1 0x1 SWAP6 SUB DUP8 MSTORE DUP11 MLOAD PUSH2 0x5D4B JUMP JUMPDEST SWAP9 ADD SWAP4 ADD SWAP4 ADD SWAP2 SWAP5 SWAP4 SWAP3 SWAP1 PUSH2 0x6028 JUMP JUMPDEST SWAP1 DUP2 MLOAD DUP2 MSTORE PUSH1 0x1 DUP1 PUSH1 0xA0 SHL SUB SWAP2 DUP3 PUSH1 0x20 DUP3 ADD MLOAD AND PUSH1 0x20 DUP4 ADD MSTORE PUSH2 0x611F PUSH2 0x60EB PUSH2 0x60D9 PUSH2 0x60C7 PUSH2 0x60B5 PUSH2 0x60A3 PUSH1 0x40 DUP8 ADD MLOAD PUSH2 0x2E0 DUP1 PUSH1 0x40 DUP12 ADD MSTORE DUP10 ADD SWAP1 PUSH2 0x5D4B JUMP JUMPDEST PUSH1 0x60 DUP8 ADD MLOAD DUP9 DUP3 SUB PUSH1 0x60 DUP11 ADD MSTORE PUSH2 0x600D JUMP JUMPDEST PUSH1 0x80 DUP7 ADD MLOAD DUP8 DUP3 SUB PUSH1 0x80 DUP10 ADD MSTORE PUSH2 0x5D4B JUMP JUMPDEST PUSH1 0xA0 DUP6 ADD MLOAD DUP7 DUP3 SUB PUSH1 0xA0 DUP9 ADD MSTORE PUSH2 0x5D4B JUMP JUMPDEST PUSH1 0xC0 DUP5 ADD MLOAD DUP6 DUP3 SUB PUSH1 0xC0 DUP8 ADD MSTORE PUSH2 0x5D4B JUMP JUMPDEST PUSH1 0xE0 DUP4 ADD MLOAD PUSH1 0xE0 DUP6 ADD MSTORE PUSH2 0x100 DUP1 DUP5 ADD MLOAD SWAP1 DUP6 ADD MSTORE PUSH2 0x120 DUP1 DUP5 ADD MLOAD SWAP1 DUP6 ADD MSTORE PUSH2 0x140 DUP1 DUP5 ADD MLOAD SWAP1 DUP6 DUP4 SUB SWAP1 DUP7 ADD MSTORE PUSH2 0x5D4B JUMP JUMPDEST PUSH2 0x160 DUP1 DUP4 ADD MLOAD SWAP1 PUSH1 0x3 DUP3 LT ISZERO PUSH2 0x2313 JUMPI DUP5 ADD MSTORE PUSH2 0x180 DUP1 DUP4 ADD MLOAD SWAP1 PUSH1 0x2 DUP3 LT ISZERO PUSH2 0x2313 JUMPI DUP5 ADD MSTORE PUSH2 0x1A0 DUP1 DUP4 ADD MLOAD SWAP1 PUSH1 0x4 DUP3 LT ISZERO PUSH2 0x2313 JUMPI PUSH2 0x61FB SWAP3 PUSH2 0x619A SWAP3 PUSH2 0x6186 SWAP3 DUP8 ADD MSTORE PUSH2 0x1C0 DUP1 DUP7 ADD MLOAD SWAP1 DUP8 ADD MSTORE PUSH2 0x1E0 DUP1 DUP7 ADD MLOAD SWAP1 DUP8 DUP4 SUB SWAP1 DUP9 ADD MSTORE PUSH2 0x5D4B JUMP JUMPDEST PUSH2 0x200 DUP1 DUP6 ADD MLOAD SWAP1 DUP7 DUP4 SUB SWAP1 DUP8 ADD MSTORE PUSH2 0x600D JUMP JUMPDEST PUSH2 0x220 SWAP1 DUP2 DUP5 ADD MLOAD SWAP2 DUP6 DUP3 SUB SWAP1 DUP7 ADD MSTORE DUP6 DUP3 MLOAD AND DUP2 MSTORE PUSH1 0x80 PUSH2 0x61E0 PUSH2 0x61CE PUSH1 0x20 DUP6 ADD MLOAD PUSH1 0xA0 PUSH1 0x20 DUP7 ADD MSTORE PUSH1 0xA0 DUP6 ADD SWAP1 PUSH2 0x5D4B JUMP JUMPDEST PUSH1 0x40 DUP6 ADD MLOAD DUP5 DUP3 SUB PUSH1 0x40 DUP7 ADD MSTORE PUSH2 0x5D4B JUMP JUMPDEST SWAP3 PUSH1 0x60 DUP2 ADD MLOAD PUSH1 0x60 DUP5 ADD MSTORE ADD MLOAD SWAP1 PUSH1 0x80 DUP2 DUP5 SUB SWAP2 ADD MSTORE PUSH2 0x5D4B JUMP JUMPDEST SWAP3 PUSH2 0x240 DUP1 DUP4 ADD MLOAD ISZERO ISZERO SWAP1 DUP5 ADD MSTORE PUSH2 0x260 DUP1 DUP4 ADD MLOAD ISZERO ISZERO SWAP1 DUP5 ADD MSTORE PUSH2 0x280 DUP1 DUP4 ADD MLOAD SWAP1 DUP5 ADD MSTORE PUSH2 0x2A0 SWAP1 DUP2 DUP4 ADD MLOAD AND SWAP1 DUP4 ADD MSTORE PUSH2 0x2C0 DUP1 SWAP2 ADD MLOAD SWAP2 ADD MSTORE SWAP1 JUMP JUMPDEST PUSH1 0x20 DUP1 DUP3 ADD SWAP1 DUP1 DUP4 MSTORE DUP4 MLOAD DUP1 SWAP3 MSTORE PUSH1 0x40 DUP4 ADD SWAP3 DUP2 PUSH1 0x40 DUP5 PUSH1 0x5 SHL DUP4 ADD ADD SWAP6 ADD SWAP4 PUSH1 0x0 SWAP2 JUMPDEST DUP5 DUP4 LT PUSH2 0x626F JUMPI POP POP POP POP POP POP SWAP1 JUMP JUMPDEST SWAP1 SWAP2 SWAP3 SWAP4 SWAP5 SWAP6 DUP5 DUP1 PUSH2 0x628D PUSH1 0x1 SWAP4 PUSH1 0x3F NOT DUP7 DUP3 SUB ADD DUP8 MSTORE DUP11 MLOAD PUSH2 0x6062 JUMP JUMPDEST SWAP9 ADD SWAP4 ADD SWAP4 ADD SWAP2 SWAP5 SWAP4 SWAP3 SWAP1 PUSH2 0x625F JUMP JUMPDEST PUSH1 0x0 SLOAD PUSH1 0x1 PUSH1 0x1 PUSH1 0xA0 SHL SUB AND CALLER SUB PUSH2 0x62B1 JUMPI JUMP JUMPDEST PUSH1 0x64 PUSH1 0x40 MLOAD PUSH3 0x461BCD PUSH1 0xE5 SHL DUP2 MSTORE PUSH1 0x20 PUSH1 0x4 DUP3 ADD MSTORE PUSH1 0x20 PUSH1 0x24 DUP3 ADD MSTORE PUSH32 0x4F776E61626C653A2063616C6C6572206973206E6F7420746865206F776E6572 PUSH1 0x44 DUP3 ADD MSTORE REVERT JUMPDEST ISZERO PUSH2 0x62FC JUMPI JUMP JUMPDEST PUSH1 0x40 MLOAD PUSH3 0x461BCD PUSH1 0xE5 SHL DUP2 MSTORE PUSH1 0x20 PUSH1 0x4 DUP3 ADD MSTORE PUSH1 0x18 PUSH1 0x24 DUP3 ADD MSTORE PUSH32 0x4552433732313A20696E76616C696420746F6B656E2049440000000000000000 PUSH1 0x44 DUP3 ADD MSTORE PUSH1 0x64 SWAP1 REVERT JUMPDEST PUSH1 0x0 SWAP1 DUP2 MSTORE PUSH1 0x4 PUSH1 0x20 MSTORE PUSH1 0x40 SWAP1 KECCAK256 SLOAD PUSH1 0x1 PUSH1 0x1 PUSH1 0xA0 SHL SUB AND PUSH2 0x5E97 DUP2 ISZERO ISZERO PUSH2 0x62F5 JUMP JUMPDEST SWAP1 PUSH1 0x1 DUP3 DUP2 SHR SWAP3 AND DUP1 ISZERO PUSH2 0x6394 JUMPI JUMPDEST PUSH1 0x20 DUP4 LT EQ PUSH2 0x637E JUMPI JUMP JUMPDEST PUSH4 0x4E487B71 PUSH1 0xE0 SHL PUSH1 0x0 MSTORE PUSH1 0x22 PUSH1 0x4 MSTORE PUSH1 0x24 PUSH1 0x0 REVERT JUMPDEST SWAP2 PUSH1 0x7F AND SWAP2 PUSH2 0x6373 JUMP JUMPDEST SWAP1 PUSH1 0x0 SWAP3 SWAP2 DUP1 SLOAD SWAP2 PUSH2 0x63AF DUP4 PUSH2 0x6364 JUMP JUMPDEST SWAP2 DUP3 DUP3 MSTORE PUSH1 0x1 SWAP4 DUP5 DUP2 AND SWAP1 DUP2 PUSH1 0x0 EQ PUSH2 0x6411 JUMPI POP PUSH1 0x1 EQ PUSH2 0x63D1 JUMPI JUMPDEST POP POP POP POP JUMP JUMPDEST SWAP1 SWAP2 SWAP4 SWAP5 POP PUSH1 0x0 MSTORE PUSH1 0x20 SWAP3 DUP4 PUSH1 0x0 KECCAK256 SWAP3 DUP5 PUSH1 0x0 SWAP5 JUMPDEST DUP4 DUP7 LT PUSH2 0x63FD JUMPI POP POP POP POP ADD ADD SWAP1 CODESIZE DUP1 DUP1 DUP1 PUSH2 0x63CB JUMP JUMPDEST DUP1 SLOAD DUP6 DUP8 ADD DUP4 ADD MSTORE SWAP5 ADD SWAP4 DUP6 SWAP1 DUP3 ADD PUSH2 0x63E6 JUMP JUMPDEST SWAP3 SWAP5 POP POP POP PUSH1 0x20 SWAP4 SWAP5 POP PUSH1 0xFF NOT AND DUP4 DUP4 ADD MSTORE ISZERO ISZERO PUSH1 0x5 SHL ADD ADD SWAP1 CODESIZE DUP1 DUP1 DUP1 PUSH2 0x63CB JUMP JUMPDEST PUSH1 0x0 DUP2 DUP2 MSTORE PUSH1 0x4 PUSH1 0x20 MSTORE PUSH1 0x40 SWAP1 KECCAK256 SLOAD PUSH2 0x6457 SWAP1 PUSH1 0x1 PUSH1 0x1 PUSH1 0xA0 SHL SUB AND ISZERO ISZERO PUSH2 0x62F5 JUMP JUMPDEST PUSH1 0x0 SWAP1 DUP2 MSTORE PUSH1 0x6 PUSH1 0x20 MSTORE PUSH1 0x40 SWAP1 KECCAK256 SLOAD PUSH1 0x1 PUSH1 0x1 PUSH1 0xA0 SHL SUB AND SWAP1 JUMP JUMPDEST ISZERO PUSH2 0x6479 JUMPI JUMP JUMPDEST PUSH1 0x40 MLOAD PUSH3 0x461BCD PUSH1 0xE5 SHL DUP2 MSTORE PUSH1 0x20 PUSH1 0x4 DUP3 ADD MSTORE PUSH1 0x2D PUSH1 0x24 DUP3 ADD MSTORE PUSH32 0x4552433732313A2063616C6C6572206973206E6F7420746F6B656E206F776E65 PUSH1 0x44 DUP3 ADD MSTORE PUSH13 0x1C881BDC88185C1C1C9BDD9959 PUSH1 0x9A SHL PUSH1 0x64 DUP3 ADD MSTORE PUSH1 0x84 SWAP1 REVERT JUMPDEST PUSH1 0x80 SWAP1 PUSH1 0x20 DUP2 MSTORE PUSH1 0x32 PUSH1 0x20 DUP3 ADD MSTORE PUSH32 0x4552433732313A207472616E7366657220746F206E6F6E204552433732315265 PUSH1 0x40 DUP3 ADD MSTORE PUSH18 0x31B2B4BB32B91034B6B83632B6B2B73A32B9 PUSH1 0x71 SHL PUSH1 0x60 DUP3 ADD MSTORE ADD SWAP1 JUMP JUMPDEST ISZERO PUSH2 0x652E JUMPI JUMP JUMPDEST PUSH1 0x40 MLOAD PUSH3 0x461BCD PUSH1 0xE5 SHL DUP2 MSTORE DUP1 PUSH2 0x6547 PUSH1 0x4 DUP3 ADD PUSH2 0x64D4 JUMP JUMPDEST SUB SWAP1 REVERT JUMPDEST SWAP1 PUSH1 0x1 PUSH1 0x1 PUSH1 0xA0 SHL SUB DUP1 DUP1 PUSH2 0x655F DUP5 PUSH2 0x6341 JUMP JUMPDEST AND SWAP4 AND SWAP2 DUP4 DUP4 EQ SWAP4 DUP5 ISZERO PUSH2 0x6592 JUMPI JUMPDEST POP DUP4 ISZERO PUSH2 0x657C JUMPI JUMPDEST POP POP POP SWAP1 JUMP JUMPDEST PUSH2 0x6588 SWAP2 SWAP3 SWAP4 POP PUSH2 0x6434 JUMP JUMPDEST AND EQ CODESIZE DUP1 DUP1 PUSH2 0x6576 JUMP JUMPDEST SWAP1 SWAP4 POP PUSH1 0x0 MSTORE PUSH1 0x7 PUSH1 0x20 MSTORE PUSH1 0x40 PUSH1 0x0 KECCAK256 DUP3 PUSH1 0x0 MSTORE PUSH1 0x20 MSTORE PUSH1 0xFF PUSH1 0x40 PUSH1 0x0 KECCAK256 SLOAD AND SWAP3 CODESIZE PUSH2 0x656E JUMP JUMPDEST ISZERO PUSH2 0x65C0 JUMPI JUMP JUMPDEST PUSH1 0x40 MLOAD PUSH3 0x461BCD PUSH1 0xE5 SHL DUP2 MSTORE PUSH1 0x20 PUSH1 0x4 DUP3 ADD MSTORE PUSH1 0x25 PUSH1 0x24 DUP3 ADD MSTORE PUSH32 0x4552433732313A207472616E736665722066726F6D20696E636F727265637420 PUSH1 0x44 DUP3 ADD MSTORE PUSH5 0x37BBB732B9 PUSH1 0xD9 SHL PUSH1 0x64 DUP3 ADD MSTORE PUSH1 0x84 SWAP1 REVERT JUMPDEST SWAP1 PUSH2 0x663B SWAP2 PUSH2 0x6621 DUP5 PUSH2 0x6341 JUMP JUMPDEST PUSH1 0x1 PUSH1 0x1 PUSH1 0xA0 SHL SUB SWAP4 SWAP2 DUP5 AND SWAP3 DUP5 SWAP3 SWAP1 SWAP2 DUP4 AND DUP5 EQ PUSH2 0x65B9 JUMP JUMPDEST AND SWAP2 DUP3 ISZERO PUSH2 0x66D3 JUMPI DUP2 PUSH2 0x6658 SWAP2 PUSH2 0x6651 DUP7 PUSH2 0x6341 JUMP JUMPDEST AND EQ PUSH2 0x65B9 JUMP JUMPDEST PUSH32 0xDDF252AD1BE2C89B69C2B068FC378DAA952BA7F163C4A11628F55A4DF523B3EF PUSH1 0x0 DUP5 DUP2 MSTORE PUSH1 0x6 PUSH1 0x20 MSTORE PUSH1 0x40 DUP2 KECCAK256 PUSH1 0x1 PUSH1 0x1 PUSH1 0x60 SHL SUB PUSH1 0xA0 SHL SWAP1 DUP2 DUP2 SLOAD AND SWAP1 SSTORE DUP4 DUP3 MSTORE PUSH1 0x5 PUSH1 0x20 MSTORE PUSH1 0x40 DUP3 KECCAK256 PUSH1 0x0 NOT DUP2 SLOAD ADD SWAP1 SSTORE DUP5 DUP3 MSTORE PUSH1 0x40 DUP3 KECCAK256 PUSH1 0x1 DUP2 SLOAD ADD SWAP1 SSTORE DUP6 DUP3 MSTORE PUSH1 0x4 PUSH1 0x20 MSTORE DUP5 PUSH1 0x40 DUP4 KECCAK256 SWAP2 DUP3 SLOAD AND OR SWAP1 SSTORE DUP1 LOG4 JUMP JUMPDEST PUSH1 0x40 MLOAD PUSH3 0x461BCD PUSH1 0xE5 SHL DUP2 MSTORE PUSH1 0x20 PUSH1 0x4 DUP3 ADD MSTORE PUSH1 0x24 DUP1 DUP3 ADD MSTORE PUSH32 0x4552433732313A207472616E7366657220746F20746865207A65726F20616464 PUSH1 0x44 DUP3 ADD MSTORE PUSH4 0x72657373 PUSH1 0xE0 SHL PUSH1 0x64 DUP3 ADD MSTORE PUSH1 0x84 SWAP1 REVERT JUMPDEST RETURNDATASIZE ISZERO PUSH2 0x674F JUMPI RETURNDATASIZE SWAP1 PUSH2 0x6735 DUP3 PUSH2 0x5E2A JUMP JUMPDEST SWAP2 PUSH2 0x6743 PUSH1 0x40 MLOAD SWAP4 DUP5 PUSH2 0x5E09 JUMP JUMPDEST DUP3 MSTORE RETURNDATASIZE PUSH1 0x0 PUSH1 0x20 DUP5 ADD RETURNDATACOPY JUMP JUMPDEST PUSH1 0x60 SWAP1 JUMP JUMPDEST SWAP1 SWAP2 PUSH1 0x0 SWAP2 DUP1 EXTCODESIZE ISZERO PUSH2 0x6846 JUMPI PUSH2 0x679F PUSH1 0x20 SWAP2 DUP5 SWAP4 PUSH1 0x40 MLOAD SWAP5 DUP6 DUP1 SWAP5 DUP2 SWAP4 PUSH4 0xA85BD01 PUSH1 0xE1 SHL SWAP11 DUP12 DUP5 MSTORE CALLER PUSH1 0x4 DUP6 ADD MSTORE DUP5 PUSH1 0x24 DUP6 ADD MSTORE PUSH1 0x44 DUP5 ADD MSTORE PUSH1 0x80 PUSH1 0x64 DUP5 ADD MSTORE PUSH1 0x84 DUP4 ADD SWAP1 PUSH2 0x5D4B JUMP JUMPDEST SUB SWAP3 PUSH1 0x1 PUSH1 0x1 PUSH1 0xA0 SHL SUB AND GAS CALL SWAP1 DUP3 SWAP1 DUP3 PUSH2 0x67F7 JUMPI JUMPDEST POP POP PUSH2 0x67E9 JUMPI PUSH2 0x67C3 PUSH2 0x6724 JUMP JUMPDEST DUP1 MLOAD SWAP1 DUP2 PUSH2 0x67E4 JUMPI PUSH1 0x40 MLOAD PUSH3 0x461BCD PUSH1 0xE5 SHL DUP2 MSTORE DUP1 PUSH2 0x6547 PUSH1 0x4 DUP3 ADD PUSH2 0x64D4 JUMP JUMPDEST PUSH1 0x20 ADD REVERT JUMPDEST PUSH1 0x1 PUSH1 0x1 PUSH1 0xE0 SHL SUB NOT AND EQ SWAP1 JUMP JUMPDEST SWAP1 SWAP2 SWAP3 POP PUSH1 0x20 DUP2 RETURNDATASIZE DUP3 GT PUSH2 0x683E JUMPI JUMPDEST DUP2 PUSH2 0x6813 PUSH1 0x20 SWAP4 DUP4 PUSH2 0x5E09 JUMP JUMPDEST DUP2 ADD SUB SLT PUSH2 0x683A JUMPI MLOAD SWAP1 PUSH1 0x1 PUSH1 0x1 PUSH1 0xE0 SHL SUB NOT DUP3 AND DUP3 SUB PUSH2 0x6837 JUMPI POP SWAP1 CODESIZE DUP1 PUSH2 0x67B5 JUMP JUMPDEST DUP1 REVERT JUMPDEST POP DUP1 REVERT JUMPDEST RETURNDATASIZE SWAP2 POP PUSH2 0x6806 JUMP JUMPDEST POP POP POP POP PUSH1 0x1 SWAP1 JUMP JUMPDEST SWAP2 SWAP3 PUSH1 0x0 SWAP3 SWAP2 SWAP1 DUP2 EXTCODESIZE ISZERO PUSH2 0x68C0 JUMPI PUSH1 0x20 SWAP2 PUSH2 0x68A5 SWAP2 DUP6 PUSH1 0x40 MLOAD SWAP6 DUP7 DUP1 SWAP6 DUP2 SWAP5 PUSH4 0xA85BD01 PUSH1 0xE1 SHL SWAP12 DUP13 DUP5 MSTORE CALLER PUSH1 0x4 DUP6 ADD MSTORE PUSH1 0x1 DUP1 PUSH1 0xA0 SHL SUB DUP1 SWAP6 AND PUSH1 0x24 DUP6 ADD MSTORE PUSH1 0x44 DUP5 ADD MSTORE PUSH1 0x80 PUSH1 0x64 DUP5 ADD MSTORE PUSH1 0x84 DUP4 ADD SWAP1 PUSH2 0x5D4B JUMP JUMPDEST SUB SWAP4 AND GAS CALL SWAP1 DUP3 SWAP1 DUP3 PUSH2 0x67F7 JUMPI POP POP PUSH2 0x67E9 JUMPI PUSH2 0x67C3 PUSH2 0x6724 JUMP JUMPDEST POP POP POP POP POP PUSH1 0x1 SWAP1 JUMP JUMPDEST CALLDATALOAD PUSH1 0x1 PUSH1 0x1 PUSH1 0xA0 SHL SUB DUP2 AND DUP2 SUB PUSH2 0x1E9 JUMPI SWAP1 JUMP JUMPDEST SWAP1 CALLDATALOAD SWAP1 PUSH1 0x1E NOT DUP2 CALLDATASIZE SUB ADD DUP3 SLT ISZERO PUSH2 0x1E9 JUMPI ADD DUP1 CALLDATALOAD SWAP1 PUSH1 0x1 PUSH1 0x1 PUSH1 0x40 SHL SUB DUP3 GT PUSH2 0x1E9 JUMPI PUSH1 0x20 ADD SWAP2 DUP2 PUSH1 0x5 SHL CALLDATASIZE SUB DUP4 SGT PUSH2 0x1E9 JUMPI JUMP JUMPDEST SWAP1 CALLDATALOAD SWAP1 PUSH1 0x1E NOT DUP2 CALLDATASIZE SUB ADD DUP3 SLT ISZERO PUSH2 0x1E9 JUMPI ADD DUP1 CALLDATALOAD SWAP1 PUSH1 0x1 PUSH1 0x1 PUSH1 0x40 SHL SUB DUP3 GT PUSH2 0x1E9 JUMPI PUSH1 0x20 ADD SWAP2 DUP2 CALLDATASIZE SUB DUP4 SGT PUSH2 0x1E9 JUMPI JUMP JUMPDEST PUSH1 0x3 DUP3 LT ISZERO PUSH2 0x2313 JUMPI MSTORE JUMP JUMPDEST PUSH1 0x2 DUP3 LT ISZERO PUSH2 0x2313 JUMPI MSTORE JUMP JUMPDEST PUSH1 0x4 DUP3 LT ISZERO PUSH2 0x2313 JUMPI MSTORE JUMP JUMPDEST DUP2 DUP2 LT PUSH2 0x6974 JUMPI POP POP JUMP JUMPDEST PUSH1 0x0 DUP2 SSTORE PUSH1 0x1 ADD PUSH2 0x6969 JUMP JUMPDEST SWAP1 PUSH2 0x26DE SWAP2 DUP3 DUP2 MUL SWAP3 DUP2 DUP5 DIV EQ SWAP1 ISZERO OR ISZERO PUSH2 0x75F JUMPI JUMP JUMPDEST PUSH1 0x2 PUSH1 0x1 SLOAD EQ PUSH2 0x69A8 JUMPI PUSH1 0x2 PUSH1 0x1 SSTORE JUMP JUMPDEST PUSH1 0x40 MLOAD PUSH3 0x461BCD PUSH1 0xE5 SHL DUP2 MSTORE PUSH1 0x20 PUSH1 0x4 DUP3 ADD MSTORE PUSH1 0x1F PUSH1 0x24 DUP3 ADD MSTORE PUSH32 0x5265656E7472616E637947756172643A207265656E7472616E742063616C6C00 PUSH1 0x44 DUP3 ADD MSTORE PUSH1 0x64 SWAP1 REVERT JUMPDEST ISZERO PUSH2 0x69F4 JUMPI JUMP JUMPDEST PUSH1 0x40 MLOAD PUSH3 0x461BCD PUSH1 0xE5 SHL DUP2 MSTORE PUSH1 0x20 PUSH1 0x4 DUP3 ADD MSTORE PUSH1 0x1C PUSH1 0x24 DUP3 ADD MSTORE PUSH32 0x4552433732313A20746F6B656E20616C7265616479206D696E74656400000000 PUSH1 0x44 DUP3 ADD MSTORE PUSH1 0x64 SWAP1 REVERT JUMPDEST ISZERO PUSH2 0x6A40 JUMPI JUMP JUMPDEST PUSH1 0x40 MLOAD PUSH3 0x461BCD PUSH1 0xE5 SHL DUP2 MSTORE PUSH1 0x20 PUSH1 0x4 DUP3 ADD MSTORE PUSH1 0xC PUSH1 0x24 DUP3 ADD MSTORE PUSH12 0x155B985D5D1A1BDC9A5E9959 PUSH1 0xA2 SHL PUSH1 0x44 DUP3 ADD MSTORE PUSH1 0x64 SWAP1 REVERT JUMPDEST PUSH1 0x40 MLOAD SWAP1 PUSH2 0x6A81 DUP3 PUSH2 0x5D9C JUMP JUMPDEST DUP2 PUSH2 0x2C0 PUSH1 0x0 SWAP2 DUP3 DUP2 MSTORE DUP3 PUSH1 0x20 DUP3 ADD MSTORE PUSH1 0x60 DUP1 PUSH1 0x40 DUP4 ADD MSTORE DUP1 DUP1 DUP4 ADD MSTORE DUP1 PUSH1 0x80 DUP4 ADD MSTORE DUP1 PUSH1 0xA0 DUP4 ADD MSTORE DUP1 PUSH1 0xC0 DUP4 ADD MSTORE DUP4 PUSH1 0xE0 DUP4 ADD MSTORE DUP4 PUSH2 0x100 DUP4 ADD MSTORE DUP4 PUSH2 0x120 DUP4 ADD MSTORE DUP1 PUSH2 0x140 DUP4 ADD MSTORE DUP4 PUSH2 0x160 DUP4 ADD MSTORE DUP4 PUSH2 0x180 DUP4 ADD MSTORE DUP4 PUSH2 0x1A0 DUP4 ADD MSTORE DUP4 PUSH2 0x1C0 DUP4 ADD MSTORE DUP1 PUSH2 0x1E0 DUP4 ADD MSTORE DUP1 PUSH2 0x200 DUP4 ADD MSTORE PUSH1 0x40 MLOAD SWAP1 PUSH2 0x6B02 DUP3 PUSH2 0x5DB8 JUMP JUMPDEST DUP5 DUP3 MSTORE DUP1 PUSH1 0x20 DUP4 ADD MSTORE DUP1 PUSH1 0x40 DUP4 ADD MSTORE DUP5 DUP2 DUP4 ADD MSTORE PUSH1 0x80 DUP3 ADD MSTORE PUSH2 0x220 DUP3 ADD MSTORE DUP3 PUSH2 0x240 DUP3 ADD MSTORE DUP3 PUSH2 0x260 DUP3 ADD MSTORE DUP3 PUSH2 0x280 DUP3 ADD MSTORE DUP3 PUSH2 0x2A0 DUP3 ADD MSTORE ADD MSTORE JUMP JUMPDEST ISZERO PUSH2 0x6B48 JUMPI JUMP JUMPDEST PUSH1 0x40 MLOAD PUSH3 0x461BCD PUSH1 0xE5 SHL DUP2 MSTORE PUSH1 0x20 PUSH1 0x4 DUP3 ADD MSTORE PUSH1 0x12 PUSH1 0x24 DUP3 ADD MSTORE PUSH18 0x10D85C88191BD95CC81B9BDD08195E1A5CDD PUSH1 0x72 SHL PUSH1 0x44 DUP3 ADD MSTORE PUSH1 0x64 SWAP1 REVERT JUMPDEST ISZERO PUSH2 0x6B89 JUMPI JUMP JUMPDEST PUSH1 0x40 MLOAD PUSH3 0x461BCD PUSH1 0xE5 SHL DUP2 MSTORE PUSH1 0x20 PUSH1 0x4 DUP3 ADD MSTORE PUSH1 0x14 PUSH1 0x24 DUP3 ADD MSTORE PUSH20 0x10D85C881A185CC81899595B8819195B195D1959 PUSH1 0x62 SHL PUSH1 0x44 DUP3 ADD MSTORE PUSH1 0x64 SWAP1 REVERT JUMPDEST SWAP1 DUP2 SLOAD PUSH2 0x6BD1 DUP2 PUSH2 0x5E9A JUMP JUMPDEST SWAP3 PUSH1 0x40 SWAP4 PUSH2 0x6BE1 DUP6 MLOAD SWAP2 DUP3 PUSH2 0x5E09 JUMP JUMPDEST DUP3 DUP2 MSTORE DUP1 SWAP5 PUSH1 0x20 DUP1 SWAP3 ADD SWAP3 PUSH1 0x0 MSTORE DUP2 PUSH1 0x0 KECCAK256 SWAP1 PUSH1 0x0 SWAP4 JUMPDEST DUP6 DUP6 LT PUSH2 0x6C07 JUMPI POP POP POP POP POP POP JUMP JUMPDEST PUSH1 0x1 DUP5 DUP2 SWAP3 DUP5 MLOAD PUSH2 0x6C23 DUP2 PUSH2 0x6C1C DUP2 DUP11 PUSH2 0x639E JUMP JUMPDEST SUB DUP3 PUSH2 0x5E09 JUMP JUMPDEST DUP2 MSTORE ADD SWAP4 ADD SWAP5 ADD SWAP4 SWAP2 PUSH2 0x6BF8 JUMP JUMPDEST SWAP1 PUSH1 0x40 SWAP2 PUSH2 0x2C0 PUSH1 0x17 DUP5 MLOAD SWAP3 PUSH2 0x6C46 DUP5 PUSH2 0x5D9C JUMP JUMPDEST DUP1 SLOAD DUP5 MSTORE PUSH1 0x1 DUP2 ADD SLOAD PUSH1 0x1 PUSH1 0x1 PUSH1 0xA0 SHL SUB SWAP1 DUP2 AND PUSH1 0x20 DUP7 ADD MSTORE DUP7 MLOAD SWAP5 SWAP7 DUP8 SWAP6 PUSH2 0x6C76 DUP2 PUSH2 0x6C1C DUP2 PUSH1 0x2 DUP9 ADD PUSH2 0x639E JUMP JUMPDEST DUP2 DUP8 ADD MSTORE PUSH2 0x6C86 PUSH1 0x3 DUP5 ADD PUSH2 0x6BC5 JUMP JUMPDEST PUSH1 0x60 DUP8 ADD MSTORE DUP1 MLOAD PUSH2 0x6C9E DUP2 PUSH2 0x6C1C DUP2 PUSH1 0x4 DUP9 ADD PUSH2 0x639E JUMP JUMPDEST PUSH1 0x80 DUP8 ADD MSTORE DUP1 MLOAD PUSH2 0x6CB6 DUP2 PUSH2 0x6C1C DUP2 PUSH1 0x5 DUP9 ADD PUSH2 0x639E JUMP JUMPDEST PUSH1 0xA0 DUP8 ADD MSTORE DUP1 MLOAD PUSH2 0x6CCE DUP2 PUSH2 0x6C1C DUP2 PUSH1 0x6 DUP9 ADD PUSH2 0x639E JUMP JUMPDEST PUSH1 0xC0 DUP8 ADD MSTORE PUSH1 0x7 DUP4 ADD SLOAD PUSH1 0xE0 DUP8 ADD MSTORE PUSH1 0x8 DUP4 ADD SLOAD PUSH2 0x100 DUP8 ADD MSTORE PUSH1 0x9 DUP4 ADD SLOAD PUSH2 0x120 DUP8 ADD MSTORE DUP1 MLOAD PUSH2 0x6D06 DUP2 PUSH2 0x6C1C DUP2 PUSH1 0xA DUP9 ADD PUSH2 0x639E JUMP JUMPDEST PUSH2 0x140 DUP8 ADD MSTORE PUSH2 0x6D47 PUSH1 0xFF PUSH1 0xB DUP6 ADD SLOAD PUSH2 0x6D26 DUP3 DUP3 AND PUSH2 0x160 DUP12 ADD PUSH2 0x6945 JUMP JUMPDEST PUSH2 0x6D39 DUP3 DUP3 PUSH1 0x8 SHR AND PUSH2 0x180 DUP12 ADD PUSH2 0x6951 JUMP JUMPDEST PUSH1 0x10 SHR AND PUSH2 0x1A0 DUP9 ADD PUSH2 0x695D JUMP JUMPDEST PUSH1 0xC DUP4 ADD SLOAD PUSH2 0x1C0 DUP8 ADD MSTORE DUP1 MLOAD PUSH2 0x6D65 DUP2 PUSH2 0x6C1C DUP2 PUSH1 0xD DUP9 ADD PUSH2 0x639E JUMP JUMPDEST PUSH2 0x1E0 DUP8 ADD MSTORE PUSH2 0x6D77 PUSH1 0xE DUP5 ADD PUSH2 0x6BC5 JUMP JUMPDEST PUSH2 0x200 DUP8 ADD MSTORE DUP1 MLOAD SWAP1 PUSH2 0x6D89 DUP3 PUSH2 0x5DB8 JUMP JUMPDEST DUP3 PUSH1 0xF DUP6 ADD SLOAD AND DUP3 MSTORE DUP1 MLOAD PUSH2 0x6DA5 DUP2 PUSH2 0x6C1C DUP2 PUSH1 0x10 DUP10 ADD PUSH2 0x639E JUMP JUMPDEST PUSH1 0x20 DUP4 ADD MSTORE DUP1 MLOAD PUSH2 0x6DBD DUP2 PUSH2 0x6C1C DUP2 PUSH1 0x11 DUP10 ADD PUSH2 0x639E JUMP JUMPDEST DUP2 DUP4 ADD MSTORE PUSH1 0x12 DUP5 ADD SLOAD PUSH1 0x60 DUP4 ADD MSTORE MLOAD PUSH2 0x6DDD DUP2 PUSH2 0x6C1C DUP2 PUSH1 0x13 DUP9 ADD PUSH2 0x639E JUMP JUMPDEST PUSH1 0x80 DUP3 ADD MSTORE PUSH2 0x220 DUP7 ADD MSTORE PUSH1 0xFF PUSH1 0x14 DUP4 ADD SLOAD DUP2 DUP2 AND ISZERO ISZERO PUSH2 0x240 DUP9 ADD MSTORE PUSH1 0x8 SHR AND ISZERO ISZERO PUSH2 0x260 DUP7 ADD MSTORE PUSH1 0x15 DUP3 ADD SLOAD PUSH2 0x280 DUP7 ADD MSTORE PUSH1 0x16 DUP3 ADD SLOAD AND PUSH2 0x2A0 DUP6 ADD MSTORE ADD SLOAD SWAP2 ADD MSTORE JUMP JUMPDEST PUSH1 0x0 NOT DUP2 EQ PUSH2 0x75F JUMPI PUSH1 0x1 ADD SWAP1 JUMP JUMPDEST SWAP1 PUSH2 0x6E3D DUP3 PUSH2 0x5E9A JUMP JUMPDEST PUSH2 0x6E4A PUSH1 0x40 MLOAD SWAP2 DUP3 PUSH2 0x5E09 JUMP JUMPDEST DUP3 DUP2 MSTORE DUP1 SWAP3 PUSH2 0x6E5B PUSH1 0x1F NOT SWAP2 PUSH2 0x5E9A JUMP JUMPDEST ADD SWAP1 PUSH1 0x0 JUMPDEST DUP3 DUP2 LT PUSH2 0x6E6C JUMPI POP POP POP JUMP JUMPDEST PUSH1 0x20 SWAP1 PUSH2 0x6E77 PUSH2 0x6A74 JUMP JUMPDEST DUP3 DUP3 DUP6 ADD ADD MSTORE ADD PUSH2 0x6E60 JUMP JUMPDEST DUP1 MLOAD DUP3 LT ISZERO PUSH2 0x6E97 JUMPI PUSH1 0x20 SWAP2 PUSH1 0x5 SHL ADD ADD SWAP1 JUMP JUMPDEST PUSH4 0x4E487B71 PUSH1 0xE0 SHL PUSH1 0x0 MSTORE PUSH1 0x32 PUSH1 0x4 MSTORE PUSH1 0x24 PUSH1 0x0 REVERT JUMPDEST DUP1 SLOAD DUP3 LT ISZERO PUSH2 0x6E97 JUMPI PUSH1 0x0 MSTORE PUSH1 0x20 PUSH1 0x0 KECCAK256 SWAP1 PUSH1 0x2 SHL ADD SWAP1 PUSH1 0x0 SWAP1 JUMP JUMPDEST ISZERO PUSH2 0x6ED0 JUMPI JUMP JUMPDEST PUSH1 0x40 MLOAD PUSH3 0x461BCD PUSH1 0xE5 SHL DUP2 MSTORE PUSH1 0x20 PUSH1 0x4 DUP3 ADD MSTORE PUSH1 0x16 PUSH1 0x24 DUP3 ADD MSTORE PUSH22 0x109C9A5919D9481D1C985B9CD9995C8819985A5B1959 PUSH1 0x52 SHL PUSH1 0x44 DUP3 ADD MSTORE PUSH1 0x64 SWAP1 REVERT JUMPDEST PUSH1 0x1 DUP1 PUSH1 0xA0 SHL SUB AND SWAP1 PUSH1 0x40 MLOAD PUSH1 0x40 DUP2 ADD SWAP1 DUP1 DUP3 LT PUSH1 0x1 PUSH1 0x1 PUSH1 0x40 SHL SUB DUP4 GT OR PUSH2 0xFBF JUMPI PUSH2 0x6F7F SWAP2 PUSH1 0x40 MSTORE PUSH1 0x20 SWAP4 DUP5 DUP3 MSTORE PUSH32 0x5361666545524332303A206C6F772D6C6576656C2063616C6C206661696C6564 DUP6 DUP4 ADD MSTORE PUSH1 0x0 DUP1 DUP6 DUP8 DUP3 SWAP8 MLOAD SWAP2 ADD DUP3 DUP6 GAS CALL PUSH2 0x6F79 PUSH2 0x6724 JUMP JUMPDEST SWAP2 PUSH2 0x7015 JUMP JUMPDEST DUP1 MLOAD SWAP2 DUP3 ISZERO SWAP2 DUP5 DUP4 ISZERO PUSH2 0x6FF1 JUMPI JUMPDEST POP POP POP SWAP1 POP ISZERO PUSH2 0x6F9A JUMPI POP JUMP JUMPDEST PUSH1 0x84 SWAP1 PUSH1 0x40 MLOAD SWAP1 PUSH3 0x461BCD PUSH1 0xE5 SHL DUP3 MSTORE PUSH1 0x4 DUP3 ADD MSTORE PUSH1 0x2A PUSH1 0x24 DUP3 ADD MSTORE PUSH32 0x5361666545524332303A204552433230206F7065726174696F6E20646964206E PUSH1 0x44 DUP3 ADD MSTORE PUSH10 0x1BDD081CDD58D8D95959 PUSH1 0xB2 SHL PUSH1 0x64 DUP3 ADD MSTORE REVERT JUMPDEST SWAP2 SWAP4 DUP2 DUP1 SWAP5 POP ADD SUB SLT PUSH2 0x683A JUMPI DUP3 ADD MLOAD SWAP1 DUP2 ISZERO ISZERO DUP3 SUB PUSH2 0x6837 JUMPI POP DUP1 CODESIZE DUP1 DUP5 PUSH2 0x6F8D JUMP JUMPDEST SWAP2 SWAP3 SWAP1 ISZERO PUSH2 0x7077 JUMPI POP DUP2 MLOAD ISZERO PUSH2 0x7029 JUMPI POP SWAP1 JUMP JUMPDEST EXTCODESIZE ISZERO PUSH2 0x7032 JUMPI SWAP1 JUMP JUMPDEST PUSH1 0x40 MLOAD PUSH3 0x461BCD PUSH1 0xE5 SHL DUP2 MSTORE PUSH1 0x20 PUSH1 0x4 DUP3 ADD MSTORE PUSH1 0x1D PUSH1 0x24 DUP3 ADD MSTORE PUSH32 0x416464726573733A2063616C6C20746F206E6F6E2D636F6E7472616374000000 PUSH1 0x44 DUP3 ADD MSTORE PUSH1 0x64 SWAP1 REVERT JUMPDEST DUP3 MLOAD SWAP1 SWAP2 POP ISZERO PUSH2 0x708A JUMPI POP DUP1 MLOAD SWAP1 PUSH1 0x20 ADD REVERT JUMPDEST PUSH1 0x40 MLOAD PUSH3 0x461BCD PUSH1 0xE5 SHL DUP2 MSTORE PUSH1 0x20 PUSH1 0x4 DUP3 ADD MSTORE SWAP1 DUP2 SWAP1 PUSH2 0x6547 SWAP1 PUSH1 0x24 DUP4 ADD SWAP1 PUSH2 0x5D4B JUMP JUMPDEST PUSH1 0x0 SWAP3 SWAP2 DUP2 SLOAD PUSH2 0x70BD DUP2 PUSH2 0x6364 JUMP JUMPDEST SWAP3 PUSH1 0x1 SWAP2 DUP1 DUP4 AND SWAP1 DUP2 ISZERO PUSH2 0x7115 JUMPI POP PUSH1 0x1 EQ PUSH2 0x70D9 JUMPI POP POP POP POP JUMP JUMPDEST SWAP1 SWAP2 SWAP3 SWAP4 SWAP5 POP PUSH1 0x0 MSTORE PUSH1 0x20 SWAP1 DUP2 PUSH1 0x0 KECCAK256 SWAP1 PUSH1 0x0 SWAP2 JUMPDEST DUP6 DUP4 LT PUSH2 0x7104 JUMPI POP POP POP POP ADD SWAP1 CODESIZE DUP1 DUP1 DUP1 PUSH2 0x63CB JUMP JUMPDEST DUP1 SLOAD DUP6 DUP5 ADD MSTORE SWAP2 DUP4 ADD SWAP2 DUP2 ADD PUSH2 0x70EE JUMP JUMPDEST PUSH1 0xFF NOT AND DUP5 MSTORE POP POP POP DUP2 ISZERO ISZERO SWAP1 SWAP2 MUL ADD SWAP2 POP CODESIZE DUP1 DUP1 DUP1 PUSH2 0x63CB JUMP JUMPDEST DUP2 PUSH1 0x1F DUP3 ADD SLT ISZERO PUSH2 0x1E9 JUMPI DUP1 MLOAD PUSH2 0x7146 DUP2 PUSH2 0x5E2A JUMP JUMPDEST SWAP3 PUSH2 0x7154 PUSH1 0x40 MLOAD SWAP5 DUP6 PUSH2 0x5E09 JUMP JUMPDEST DUP2 DUP5 MSTORE PUSH1 0x20 DUP3 DUP5 ADD ADD GT PUSH2 0x1E9 JUMPI PUSH2 0x5E97 SWAP2 PUSH1 0x20 DUP1 DUP6 ADD SWAP2 ADD PUSH2 0x5D28 JUMP INVALID LOG2 PUSH5 0x6970667358 0x22 SLT KECCAK256 0xC0 0xC1 DUP11 DUP11 0xD1 DUP12 LOG1 LOG4 PUSH1 0xF CREATE2 EXTCODEHASH DUP15 0xD5 0xB6 0xAC SWAP7 RETURNDATASIZE PUSH26 0x4CB2A160872626B41F5E42DE7F64736F6C634300081300330000 "},"methodIdentifiers":{"MAX_SLIPPAGE()":"f9759518","TRANSFER_TIMEOUT()":"87065deb","acrossRouter()":"4f8359f1","addSupportedToken(address)":"6d69fcaf","approve(address,uint256)":"095ea7b3","balanceOf(address)":"70a08231","buyCar(uint256)":"6c231060","cancelTimedOutTransfer(uint256)":"9f725a1d","crossChainTransferPending(uint256)":"84dfc55d","deleteCar(uint256)":"60098088","destinationChainIds(uint256)":"0ce7fc03","getAllCars()":"abfe5d57","getAllSales()":"33396917","getApproved(uint256)":"081812fc","getCar(uint256)":"5e8be190","getMyCars()":"341fa05d","initiateCrossChainTransfer(uint256,uint256)":"402ebd7d","isApprovedForAll(address,address)":"e985e9c5","listCar((string,string[],string,string,string,uint256,uint256),(uint256,string,uint8,uint8,uint8,uint256),(string,string,string[]),(address,string,string,uint256,string),uint256,address)":"6bfa74c3","name()":"06fdde03","owner()":"8da5cb5b","ownerOf(uint256)":"6352211e","processedMessages(bytes32)":"88ba16ab","receiveCrossChainTransfer(bytes,uint256)":"2351d10f","removeSupportedToken(address)":"76319190","renounceOwnership()":"715018a6","safeTransferFrom(address,address,uint256)":"42842e0e","safeTransferFrom(address,address,uint256,bytes)":"b88d4fde","setApprovalForAll(address,bool)":"a22cb465","sourceChainIds(uint256)":"9efeff1c","supportedTokens(address)":"68c4ac26","supportsInterface(bytes4)":"01ffc9a7","symbol()":"95d89b41","tokenURI(uint256)":"c87b56dd","transferFrom(address,address,uint256)":"23b872dd","transferHashes(bytes32)":"ceb6c12f","transferInitiatedAt(uint256)":"ef821fe8","transferOwnership(address)":"f2fde38b","updateCar(uint256,(string,string[],string,string,string,uint256,uint256),(uint256,string,uint8,uint8,uint8,uint256),(string,string,string[]),(address,string,string,uint256,string))":"0d5d841a"}}}}}