{
  "_format": "hh-sol-artifact-1",
  "contractName": "HemDealer",
  "sourceName": "contracts/HemDealer.sol",
  "abi": [
    {
      "inputs": [
        {
          "internalType": "string",
          "name": "name",
          "type": "string"
        },
        {
          "internalType": "string",
          "name": "symbol",
          "type": "string"
        }
      ],
      "stateMutability": "nonpayable",
      "type": "constructor"
    },
    {
      "anonymous": false,
      "inputs": [
        {
          "indexed": true,
          "internalType": "address",
          "name": "owner",
          "type": "address"
        },
        {
          "indexed": true,
          "internalType": "address",
          "name": "approved",
          "type": "address"
        },
        {
          "indexed": true,
          "internalType": "uint256",
          "name": "tokenId",
          "type": "uint256"
        }
      ],
      "name": "Approval",
      "type": "event"
    },
    {
      "anonymous": false,
      "inputs": [
        {
          "indexed": true,
          "internalType": "address",
          "name": "owner",
          "type": "address"
        },
        {
          "indexed": true,
          "internalType": "address",
          "name": "operator",
          "type": "address"
        },
        {
          "indexed": false,
          "internalType": "bool",
          "name": "approved",
          "type": "bool"
        }
      ],
      "name": "ApprovalForAll",
      "type": "event"
    },
    {
      "anonymous": false,
      "inputs": [
        {
          "indexed": true,
          "internalType": "uint256",
          "name": "carId",
          "type": "uint256"
        },
        {
          "indexed": true,
          "internalType": "address",
          "name": "owner",
          "type": "address"
        }
      ],
      "name": "CarDeleted",
      "type": "event"
    },
    {
      "anonymous": false,
      "inputs": [
        {
          "indexed": true,
          "internalType": "uint256",
          "name": "carId",
          "type": "uint256"
        },
        {
          "indexed": true,
          "internalType": "address",
          "name": "seller",
          "type": "address"
        },
        {
          "indexed": false,
          "internalType": "uint256",
          "name": "price",
          "type": "uint256"
        }
      ],
      "name": "CarListed",
      "type": "event"
    },
    {
      "anonymous": false,
      "inputs": [
        {
          "indexed": true,
          "internalType": "uint256",
          "name": "carId",
          "type": "uint256"
        },
        {
          "indexed": true,
          "internalType": "address",
          "name": "seller",
          "type": "address"
        },
        {
          "indexed": true,
          "internalType": "address",
          "name": "buyer",
          "type": "address"
        },
        {
          "indexed": false,
          "internalType": "uint256",
          "name": "price",
          "type": "uint256"
        }
      ],
      "name": "CarSold",
      "type": "event"
    },
    {
      "anonymous": false,
      "inputs": [
        {
          "indexed": true,
          "internalType": "uint256",
          "name": "carId",
          "type": "uint256"
        },
        {
          "indexed": true,
          "internalType": "address",
          "name": "owner",
          "type": "address"
        }
      ],
      "name": "CarUpdated",
      "type": "event"
    },
    {
      "anonymous": false,
      "inputs": [
        {
          "indexed": true,
          "internalType": "address",
          "name": "handler",
          "type": "address"
        }
      ],
      "name": "CrossChainHandlerSet",
      "type": "event"
    },
    {
      "anonymous": false,
      "inputs": [
        {
          "indexed": true,
          "internalType": "address",
          "name": "previousOwner",
          "type": "address"
        },
        {
          "indexed": true,
          "internalType": "address",
          "name": "newOwner",
          "type": "address"
        }
      ],
      "name": "OwnershipTransferred",
      "type": "event"
    },
    {
      "anonymous": false,
      "inputs": [
        {
          "indexed": true,
          "internalType": "address",
          "name": "from",
          "type": "address"
        },
        {
          "indexed": true,
          "internalType": "address",
          "name": "to",
          "type": "address"
        },
        {
          "indexed": true,
          "internalType": "uint256",
          "name": "tokenId",
          "type": "uint256"
        }
      ],
      "name": "Transfer",
      "type": "event"
    },
    {
      "inputs": [
        {
          "internalType": "address",
          "name": "to",
          "type": "address"
        },
        {
          "internalType": "uint256",
          "name": "tokenId",
          "type": "uint256"
        }
      ],
      "name": "approve",
      "outputs": [],
      "stateMutability": "nonpayable",
      "type": "function"
    },
    {
      "inputs": [
        {
          "internalType": "address",
          "name": "owner",
          "type": "address"
        }
      ],
      "name": "balanceOf",
      "outputs": [
        {
          "internalType": "uint256",
          "name": "",
          "type": "uint256"
        }
      ],
      "stateMutability": "view",
      "type": "function"
    },
    {
      "inputs": [
        {
          "internalType": "uint256",
          "name": "carId",
          "type": "uint256"
        },
        {
          "internalType": "uint256",
          "name": "relayerFeePct",
          "type": "uint256"
        },
        {
          "internalType": "uint256",
          "name": "quoteTimestamp",
          "type": "uint256"
        }
      ],
      "name": "buyCar",
      "outputs": [],
      "stateMutability": "payable",
      "type": "function"
    },
    {
      "inputs": [],
      "name": "crossChainHandler",
      "outputs": [
        {
          "internalType": "contract HemDealerCrossChain",
          "name": "",
          "type": "address"
        }
      ],
      "stateMutability": "view",
      "type": "function"
    },
    {
      "inputs": [
        {
          "internalType": "uint256",
          "name": "newCarId",
          "type": "uint256"
        }
      ],
      "name": "deleteCar",
      "outputs": [],
      "stateMutability": "nonpayable",
      "type": "function"
    },
    {
      "inputs": [],
      "name": "getAllCars",
      "outputs": [
        {
          "components": [
            {
              "internalType": "uint256",
              "name": "id",
              "type": "uint256"
            },
            {
              "internalType": "address",
              "name": "owner",
              "type": "address"
            },
            {
              "internalType": "string",
              "name": "name",
              "type": "string"
            },
            {
              "internalType": "string[]",
              "name": "images",
              "type": "string[]"
            },
            {
              "internalType": "string",
              "name": "description",
              "type": "string"
            },
            {
              "internalType": "string",
              "name": "make",
              "type": "string"
            },
            {
              "internalType": "string",
              "name": "model",
              "type": "string"
            },
            {
              "internalType": "uint256",
              "name": "year",
              "type": "uint256"
            },
            {
              "internalType": "string",
              "name": "vin",
              "type": "string"
            },
            {
              "internalType": "uint256",
              "name": "mileage",
              "type": "uint256"
            },
            {
              "internalType": "string",
              "name": "color",
              "type": "string"
            },
            {
              "internalType": "enum HemDealer.CarCondition",
              "name": "condition",
              "type": "uint8"
            },
            {
              "internalType": "enum HemDealer.CarTransmission",
              "name": "transmission",
              "type": "uint8"
            },
            {
              "internalType": "enum HemDealer.FuelType",
              "name": "fuelType",
              "type": "uint8"
            },
            {
              "internalType": "uint256",
              "name": "price",
              "type": "uint256"
            },
            {
              "internalType": "string",
              "name": "location",
              "type": "string"
            },
            {
              "internalType": "string[]",
              "name": "features",
              "type": "string[]"
            },
            {
              "components": [
                {
                  "internalType": "address",
                  "name": "wallet",
                  "type": "address"
                },
                {
                  "internalType": "string",
                  "name": "sellerName",
                  "type": "string"
                },
                {
                  "internalType": "string",
                  "name": "email",
                  "type": "string"
                },
                {
                  "internalType": "uint256",
                  "name": "phoneNumber",
                  "type": "uint256"
                },
                {
                  "internalType": "string",
                  "name": "profileImage",
                  "type": "string"
                }
              ],
              "internalType": "struct HemDealer.SellerDetails",
              "name": "seller",
              "type": "tuple"
            },
            {
              "internalType": "bool",
              "name": "sold",
              "type": "bool"
            },
            {
              "internalType": "bool",
              "name": "deleted",
              "type": "bool"
            },
            {
              "internalType": "uint256",
              "name": "destinationChainId",
              "type": "uint256"
            },
            {
              "internalType": "address",
              "name": "paymentToken",
              "type": "address"
            },
            {
              "internalType": "uint256",
              "name": "sourceChainId",
              "type": "uint256"
            }
          ],
          "internalType": "struct HemDealer.CarStruct[]",
          "name": "",
          "type": "tuple[]"
        }
      ],
      "stateMutability": "view",
      "type": "function"
    },
    {
      "inputs": [],
      "name": "getAllSales",
      "outputs": [
        {
          "components": [
            {
              "internalType": "uint256",
              "name": "id",
              "type": "uint256"
            },
            {
              "internalType": "uint256",
              "name": "newCarId",
              "type": "uint256"
            },
            {
              "internalType": "uint256",
              "name": "price",
              "type": "uint256"
            },
            {
              "internalType": "address",
              "name": "owner",
              "type": "address"
            }
          ],
          "internalType": "struct HemDealer.SalesStruct[]",
          "name": "",
          "type": "tuple[]"
        }
      ],
      "stateMutability": "view",
      "type": "function"
    },
    {
      "inputs": [
        {
          "internalType": "uint256",
          "name": "tokenId",
          "type": "uint256"
        }
      ],
      "name": "getApproved",
      "outputs": [
        {
          "internalType": "address",
          "name": "",
          "type": "address"
        }
      ],
      "stateMutability": "view",
      "type": "function"
    },
    {
      "inputs": [
        {
          "internalType": "uint256",
          "name": "newCarId",
          "type": "uint256"
        }
      ],
      "name": "getCar",
      "outputs": [
        {
          "components": [
            {
              "internalType": "uint256",
              "name": "id",
              "type": "uint256"
            },
            {
              "internalType": "address",
              "name": "owner",
              "type": "address"
            },
            {
              "internalType": "string",
              "name": "name",
              "type": "string"
            },
            {
              "internalType": "string[]",
              "name": "images",
              "type": "string[]"
            },
            {
              "internalType": "string",
              "name": "description",
              "type": "string"
            },
            {
              "internalType": "string",
              "name": "make",
              "type": "string"
            },
            {
              "internalType": "string",
              "name": "model",
              "type": "string"
            },
            {
              "internalType": "uint256",
              "name": "year",
              "type": "uint256"
            },
            {
              "internalType": "string",
              "name": "vin",
              "type": "string"
            },
            {
              "internalType": "uint256",
              "name": "mileage",
              "type": "uint256"
            },
            {
              "internalType": "string",
              "name": "color",
              "type": "string"
            },
            {
              "internalType": "enum HemDealer.CarCondition",
              "name": "condition",
              "type": "uint8"
            },
            {
              "internalType": "enum HemDealer.CarTransmission",
              "name": "transmission",
              "type": "uint8"
            },
            {
              "internalType": "enum HemDealer.FuelType",
              "name": "fuelType",
              "type": "uint8"
            },
            {
              "internalType": "uint256",
              "name": "price",
              "type": "uint256"
            },
            {
              "internalType": "string",
              "name": "location",
              "type": "string"
            },
            {
              "internalType": "string[]",
              "name": "features",
              "type": "string[]"
            },
            {
              "components": [
                {
                  "internalType": "address",
                  "name": "wallet",
                  "type": "address"
                },
                {
                  "internalType": "string",
                  "name": "sellerName",
                  "type": "string"
                },
                {
                  "internalType": "string",
                  "name": "email",
                  "type": "string"
                },
                {
                  "internalType": "uint256",
                  "name": "phoneNumber",
                  "type": "uint256"
                },
                {
                  "internalType": "string",
                  "name": "profileImage",
                  "type": "string"
                }
              ],
              "internalType": "struct HemDealer.SellerDetails",
              "name": "seller",
              "type": "tuple"
            },
            {
              "internalType": "bool",
              "name": "sold",
              "type": "bool"
            },
            {
              "internalType": "bool",
              "name": "deleted",
              "type": "bool"
            },
            {
              "internalType": "uint256",
              "name": "destinationChainId",
              "type": "uint256"
            },
            {
              "internalType": "address",
              "name": "paymentToken",
              "type": "address"
            },
            {
              "internalType": "uint256",
              "name": "sourceChainId",
              "type": "uint256"
            }
          ],
          "internalType": "struct HemDealer.CarStruct",
          "name": "",
          "type": "tuple"
        }
      ],
      "stateMutability": "view",
      "type": "function"
    },
    {
      "inputs": [],
      "name": "getMyCars",
      "outputs": [
        {
          "components": [
            {
              "internalType": "uint256",
              "name": "id",
              "type": "uint256"
            },
            {
              "internalType": "address",
              "name": "owner",
              "type": "address"
            },
            {
              "internalType": "string",
              "name": "name",
              "type": "string"
            },
            {
              "internalType": "string[]",
              "name": "images",
              "type": "string[]"
            },
            {
              "internalType": "string",
              "name": "description",
              "type": "string"
            },
            {
              "internalType": "string",
              "name": "make",
              "type": "string"
            },
            {
              "internalType": "string",
              "name": "model",
              "type": "string"
            },
            {
              "internalType": "uint256",
              "name": "year",
              "type": "uint256"
            },
            {
              "internalType": "string",
              "name": "vin",
              "type": "string"
            },
            {
              "internalType": "uint256",
              "name": "mileage",
              "type": "uint256"
            },
            {
              "internalType": "string",
              "name": "color",
              "type": "string"
            },
            {
              "internalType": "enum HemDealer.CarCondition",
              "name": "condition",
              "type": "uint8"
            },
            {
              "internalType": "enum HemDealer.CarTransmission",
              "name": "transmission",
              "type": "uint8"
            },
            {
              "internalType": "enum HemDealer.FuelType",
              "name": "fuelType",
              "type": "uint8"
            },
            {
              "internalType": "uint256",
              "name": "price",
              "type": "uint256"
            },
            {
              "internalType": "string",
              "name": "location",
              "type": "string"
            },
            {
              "internalType": "string[]",
              "name": "features",
              "type": "string[]"
            },
            {
              "components": [
                {
                  "internalType": "address",
                  "name": "wallet",
                  "type": "address"
                },
                {
                  "internalType": "string",
                  "name": "sellerName",
                  "type": "string"
                },
                {
                  "internalType": "string",
                  "name": "email",
                  "type": "string"
                },
                {
                  "internalType": "uint256",
                  "name": "phoneNumber",
                  "type": "uint256"
                },
                {
                  "internalType": "string",
                  "name": "profileImage",
                  "type": "string"
                }
              ],
              "internalType": "struct HemDealer.SellerDetails",
              "name": "seller",
              "type": "tuple"
            },
            {
              "internalType": "bool",
              "name": "sold",
              "type": "bool"
            },
            {
              "internalType": "bool",
              "name": "deleted",
              "type": "bool"
            },
            {
              "internalType": "uint256",
              "name": "destinationChainId",
              "type": "uint256"
            },
            {
              "internalType": "address",
              "name": "paymentToken",
              "type": "address"
            },
            {
              "internalType": "uint256",
              "name": "sourceChainId",
              "type": "uint256"
            }
          ],
          "internalType": "struct HemDealer.CarStruct[]",
          "name": "",
          "type": "tuple[]"
        }
      ],
      "stateMutability": "view",
      "type": "function"
    },
    {
      "inputs": [
        {
          "internalType": "address",
          "name": "owner",
          "type": "address"
        },
        {
          "internalType": "address",
          "name": "operator",
          "type": "address"
        }
      ],
      "name": "isApprovedForAll",
      "outputs": [
        {
          "internalType": "bool",
          "name": "",
          "type": "bool"
        }
      ],
      "stateMutability": "view",
      "type": "function"
    },
    {
      "inputs": [
        {
          "components": [
            {
              "internalType": "string",
              "name": "name",
              "type": "string"
            },
            {
              "internalType": "string[]",
              "name": "images",
              "type": "string[]"
            },
            {
              "internalType": "string",
              "name": "description",
              "type": "string"
            },
            {
              "internalType": "string",
              "name": "make",
              "type": "string"
            },
            {
              "internalType": "string",
              "name": "model",
              "type": "string"
            },
            {
              "internalType": "uint256",
              "name": "year",
              "type": "uint256"
            },
            {
              "internalType": "string",
              "name": "vin",
              "type": "string"
            }
          ],
          "internalType": "struct HemDealer.CarBasicDetails",
          "name": "basicDetails",
          "type": "tuple"
        },
        {
          "components": [
            {
              "internalType": "uint256",
              "name": "mileage",
              "type": "uint256"
            },
            {
              "internalType": "string",
              "name": "color",
              "type": "string"
            },
            {
              "internalType": "enum HemDealer.CarCondition",
              "name": "condition",
              "type": "uint8"
            },
            {
              "internalType": "enum HemDealer.CarTransmission",
              "name": "transmission",
              "type": "uint8"
            },
            {
              "internalType": "enum HemDealer.FuelType",
              "name": "fuelType",
              "type": "uint8"
            },
            {
              "internalType": "uint256",
              "name": "price",
              "type": "uint256"
            }
          ],
          "internalType": "struct HemDealer.CarTechnicalDetails",
          "name": "technicalDetails",
          "type": "tuple"
        },
        {
          "components": [
            {
              "internalType": "string",
              "name": "location",
              "type": "string"
            },
            {
              "internalType": "string",
              "name": "carHistory",
              "type": "string"
            },
            {
              "internalType": "string[]",
              "name": "features",
              "type": "string[]"
            }
          ],
          "internalType": "struct HemDealer.CarAdditionalInfo",
          "name": "additionalInfo",
          "type": "tuple"
        },
        {
          "components": [
            {
              "internalType": "address",
              "name": "wallet",
              "type": "address"
            },
            {
              "internalType": "string",
              "name": "sellerName",
              "type": "string"
            },
            {
              "internalType": "string",
              "name": "email",
              "type": "string"
            },
            {
              "internalType": "uint256",
              "name": "phoneNumber",
              "type": "uint256"
            },
            {
              "internalType": "string",
              "name": "profileImage",
              "type": "string"
            }
          ],
          "internalType": "struct HemDealer.SellerDetails",
          "name": "sellerDetails",
          "type": "tuple"
        },
        {
          "internalType": "uint256",
          "name": "destinationChainId",
          "type": "uint256"
        },
        {
          "internalType": "address",
          "name": "paymentToken",
          "type": "address"
        }
      ],
      "name": "listCar",
      "outputs": [],
      "stateMutability": "nonpayable",
      "type": "function"
    },
    {
      "inputs": [],
      "name": "name",
      "outputs": [
        {
          "internalType": "string",
          "name": "",
          "type": "string"
        }
      ],
      "stateMutability": "view",
      "type": "function"
    },
    {
      "inputs": [],
      "name": "owner",
      "outputs": [
        {
          "internalType": "address",
          "name": "",
          "type": "address"
        }
      ],
      "stateMutability": "view",
      "type": "function"
    },
    {
      "inputs": [
        {
          "internalType": "uint256",
          "name": "tokenId",
          "type": "uint256"
        }
      ],
      "name": "ownerOf",
      "outputs": [
        {
          "internalType": "address",
          "name": "",
          "type": "address"
        }
      ],
      "stateMutability": "view",
      "type": "function"
    },
    {
      "inputs": [],
      "name": "renounceOwnership",
      "outputs": [],
      "stateMutability": "nonpayable",
      "type": "function"
    },
    {
      "inputs": [
        {
          "internalType": "address",
          "name": "from",
          "type": "address"
        },
        {
          "internalType": "address",
          "name": "to",
          "type": "address"
        },
        {
          "internalType": "uint256",
          "name": "tokenId",
          "type": "uint256"
        }
      ],
      "name": "safeTransferFrom",
      "outputs": [],
      "stateMutability": "nonpayable",
      "type": "function"
    },
    {
      "inputs": [
        {
          "internalType": "address",
          "name": "from",
          "type": "address"
        },
        {
          "internalType": "address",
          "name": "to",
          "type": "address"
        },
        {
          "internalType": "uint256",
          "name": "tokenId",
          "type": "uint256"
        },
        {
          "internalType": "bytes",
          "name": "data",
          "type": "bytes"
        }
      ],
      "name": "safeTransferFrom",
      "outputs": [],
      "stateMutability": "nonpayable",
      "type": "function"
    },
    {
      "inputs": [
        {
          "internalType": "address",
          "name": "operator",
          "type": "address"
        },
        {
          "internalType": "bool",
          "name": "approved",
          "type": "bool"
        }
      ],
      "name": "setApprovalForAll",
      "outputs": [],
      "stateMutability": "nonpayable",
      "type": "function"
    },
    {
      "inputs": [
        {
          "internalType": "address payable",
          "name": "_handler",
          "type": "address"
        }
      ],
      "name": "setCrossChainHandler",
      "outputs": [],
      "stateMutability": "nonpayable",
      "type": "function"
    },
    {
      "inputs": [
        {
          "internalType": "bytes4",
          "name": "interfaceId",
          "type": "bytes4"
        }
      ],
      "name": "supportsInterface",
      "outputs": [
        {
          "internalType": "bool",
          "name": "",
          "type": "bool"
        }
      ],
      "stateMutability": "view",
      "type": "function"
    },
    {
      "inputs": [],
      "name": "symbol",
      "outputs": [
        {
          "internalType": "string",
          "name": "",
          "type": "string"
        }
      ],
      "stateMutability": "view",
      "type": "function"
    },
    {
      "inputs": [
        {
          "internalType": "uint256",
          "name": "tokenId",
          "type": "uint256"
        }
      ],
      "name": "tokenURI",
      "outputs": [
        {
          "internalType": "string",
          "name": "",
          "type": "string"
        }
      ],
      "stateMutability": "view",
      "type": "function"
    },
    {
      "inputs": [
        {
          "internalType": "address",
          "name": "from",
          "type": "address"
        },
        {
          "internalType": "address",
          "name": "to",
          "type": "address"
        },
        {
          "internalType": "uint256",
          "name": "tokenId",
          "type": "uint256"
        }
      ],
      "name": "transferFrom",
      "outputs": [],
      "stateMutability": "nonpayable",
      "type": "function"
    },
    {
      "inputs": [
        {
          "internalType": "address",
          "name": "newOwner",
          "type": "address"
        }
      ],
      "name": "transferOwnership",
      "outputs": [],
      "stateMutability": "nonpayable",
      "type": "function"
    },
    {
      "inputs": [
        {
          "internalType": "uint256",
          "name": "newCarId",
          "type": "uint256"
        },
        {
          "components": [
            {
              "internalType": "string",
              "name": "name",
              "type": "string"
            },
            {
              "internalType": "string[]",
              "name": "images",
              "type": "string[]"
            },
            {
              "internalType": "string",
              "name": "description",
              "type": "string"
            },
            {
              "internalType": "string",
              "name": "make",
              "type": "string"
            },
            {
              "internalType": "string",
              "name": "model",
              "type": "string"
            },
            {
              "internalType": "uint256",
              "name": "year",
              "type": "uint256"
            },
            {
              "internalType": "string",
              "name": "vin",
              "type": "string"
            }
          ],
          "internalType": "struct HemDealer.CarBasicDetails",
          "name": "basicDetails",
          "type": "tuple"
        },
        {
          "components": [
            {
              "internalType": "uint256",
              "name": "mileage",
              "type": "uint256"
            },
            {
              "internalType": "string",
              "name": "color",
              "type": "string"
            },
            {
              "internalType": "enum HemDealer.CarCondition",
              "name": "condition",
              "type": "uint8"
            },
            {
              "internalType": "enum HemDealer.CarTransmission",
              "name": "transmission",
              "type": "uint8"
            },
            {
              "internalType": "enum HemDealer.FuelType",
              "name": "fuelType",
              "type": "uint8"
            },
            {
              "internalType": "uint256",
              "name": "price",
              "type": "uint256"
            }
          ],
          "internalType": "struct HemDealer.CarTechnicalDetails",
          "name": "technicalDetails",
          "type": "tuple"
        },
        {
          "components": [
            {
              "internalType": "string",
              "name": "location",
              "type": "string"
            },
            {
              "internalType": "string",
              "name": "carHistory",
              "type": "string"
            },
            {
              "internalType": "string[]",
              "name": "features",
              "type": "string[]"
            }
          ],
          "internalType": "struct HemDealer.CarAdditionalInfo",
          "name": "additionalInfo",
          "type": "tuple"
        },
        {
          "components": [
            {
              "internalType": "address",
              "name": "wallet",
              "type": "address"
            },
            {
              "internalType": "string",
              "name": "sellerName",
              "type": "string"
            },
            {
              "internalType": "string",
              "name": "email",
              "type": "string"
            },
            {
              "internalType": "uint256",
              "name": "phoneNumber",
              "type": "uint256"
            },
            {
              "internalType": "string",
              "name": "profileImage",
              "type": "string"
            }
          ],
          "internalType": "struct HemDealer.SellerDetails",
          "name": "sellerDetails",
          "type": "tuple"
        }
      ],
      "name": "updateCar",
      "outputs": [],
      "stateMutability": "nonpayable",
      "type": "function"
    }
  ],
  "bytecode": "0x6080604052346200038957620058fd803803806200001d816200038e565b928339810190604081830312620003895780516001600160401b03908181116200038957836200004f918401620003ca565b916020938482015183811162000389576200006b9201620003ca565b60008054336001600160a01b031982168117835591949291906001600160a01b03167f8be0079c531659141344cd1fd0a4f28419497f9722a3daafe3b4186f6b6457e08680a381519383851162000293576001948554938685811c951680156200037e575b888610146200036a578190601f9586811162000317575b508890868311600114620002b3578492620002a7575b5050600019600383901b1c191690861b1785555b815193841162000293576002548581811c9116801562000288575b8782101462000274578381116200022b575b5085928411600114620001c55791839491849394620001b9575b50501b916000199060031b1c1916176002555b331562000182576040516154c090816200043d8239f35b6064906040519062461bcd60e51b82526004820152601060248201526f24b73b30b634b2103232b83637bcb2b960811b6044820152fd5b01519250388062000158565b919083601f19811660028552878520945b8888838310620002135750505010620001f9575b505050811b016002556200016b565b015160001960f88460031b161c19169055388080620001ea565b868601518855909601959485019487935001620001d6565b600282528682208480870160051c8201928988106200026a575b0160051c019086905b8281106200025e5750506200013e565b8381550186906200024e565b9250819262000245565b634e487b7160e01b82526022600452602482fd5b90607f16906200012c565b634e487b7160e01b81526041600452602490fd5b015190503880620000fd565b8885528985208994509190601f198416865b8c828210620003005750508411620002e6575b505050811b01855562000111565b015160001960f88460031b161c19169055388080620002d8565b8385015186558c97909501949384019301620002c5565b9091508784528884208680850160051c8201928b861062000360575b918a91869594930160051c01915b82811062000351575050620000e7565b8681558594508a910162000341565b9250819262000333565b634e487b7160e01b83526022600452602483fd5b94607f1694620000d0565b600080fd5b6040519190601f01601f191682016001600160401b03811183821017620003b457604052565b634e487b7160e01b600052604160045260246000fd5b919080601f84011215620003895782516001600160401b038111620003b45760209062000400601f8201601f191683016200038e565b92818452828287010111620003895760005b8181106200042857508260009394955001015290565b85810183015184820184015282016200041256fe6102c080604052600436101561001457600080fd5b6000908161010052813560e01c90816301ffc9a7146142b55750806306fdde031461420c578063081812fc146141ee578063095ea7b31461406257806323b872dd1461403e5780633339691714613e45578063341fa05d14613d2657806342842e0e14613cf15780635e8be19014613c595780636009808814613b0d5780636352211e14613add5780636c3f3871146123dd57806370a0823114612342578063715018a6146122e15780638d9d710a14610ad85780638da5cb5b14610aae57806395d89b41146109c757806396cc304f1461095b578063a22cb46514610875578063abfe5d571461077b578063b88d4fde146106ef578063c87b56dd14610679578063d03703f51461064d578063e13db45a14610268578063e985e9c5146102125763f2fde38b1461014557600080fd5b3461020b57602036600319011261020b5761015e61436a565b906101676148ee565b6001600160a01b039182169182156101b75781546001600160a01b031981168417835516907f8be0079c531659141344cd1fd0a4f28419497f9722a3daafe3b4186f6b6457e09080a36101005180f35b60405162461bcd60e51b815260206004820152602660248201527f4f776e61626c653a206e6577206f776e657220697320746865207a65726f206160448201526564647265737360d01b6064820152608490fd5b6101005180fd5b503461020b57604036600319011261020b5760ff604060209261023361436a565b61023b614385565b61010080516001600160a01b03938416905260068752518490209116825284522054604051911615158152f35b606036600319011261020b57602480356004358061010051526020926009845260018060a01b039060016102a8838260406101005120015416151561513f565b836101005152600986526102cc60ff601460406101005120015460081c1615615180565b8361010051526009865260406101005120916014830195865460ff8116158061063e575b1561060757600c850197885434106105cc576103128760168801541615614f24565b6015860180549092869146146104fe5750505085600b541686600f870154168254823b1561020b576040519163757d6d9b60e01b8352346004840152868301526044820152836064820152604435918260848301528160a481610100519334905af180156104e1576104ef575b5086600b5416915492823b1561020b5760405193635aa50c6b60e11b85528960048601528585015260448401526064830152816084816101005180945af180156104e1576104ca575b505b816008540180600855856101005152600a88526040610100512092875491604051906103f582614689565b815289810190888252604081019384526060810195338752805490600160401b8210156104b1579061042b91858201815561546e565b95909561049a575051845551908301555160028201559051600390910180546001600160a01b031916918416919091179055600f01549254604051908152339493909116927f8205a71867f7292bcef9e53d4774758d6173b03f63017dec9a03a6664b429dc591a46101005180f35b634e487b7160e01b61010051526101005180600452fd5b86634e487b7160e01b6101005152604160045261010051fd5b6104d3906146d6565b6101005180156103c8575b80fd5b6040513d61010051823e3d90fd5b6104f8906146d6565b8a61037f565b919350915060ff1916179055818301336001600160601b0360a01b82541617905583600f8401610532873384845416614c74565b5416801561058857610100518080809334905af161054e614d85565b506103ca5786600f6064926040519262461bcd60e51b845260048401528201526e151c985b9cd9995c8819985a5b1959608a1b6044820152fd5b60405162461bcd60e51b815260048101899052601a818401527f43616e6e6f742070617920746f207a65726f20616464726573730000000000006044820152606490fd5b60405162461bcd60e51b8152600481018b905260148186015273125b9cdd59999a58da595b9d081c185e5b595b9d60621b6044820152606490fd5b60405162461bcd60e51b8152600481018a90526010818501526f496e76616c696420707572636861736560801b6044820152606490fd5b508584860154163314156102f0565b3461020b5761010051806003193601126104de57600b546040516001600160a01b039091168152602090f35b3461020b57602036600319011261020b576004356000908152600360205260409020546106b0906001600160a01b03161515614946565b6040516106bc81614704565b6101005190526106eb6040516106d181614704565b61010051815260405191829160208352602083019061432a565b0390f35b3461020b57608036600319011261020b5761070861436a565b610710614385565b90606435906044356001600160401b03831161020b573660238401121561020b576107749361074c61076f94369060248160040135910161475b565b9261075f61075a8433614bac565b614ad3565b61076a838383614c74565b614ea9565b614b88565b6101005180f35b3461020b5761010051806003193601126104de576007549060015b8281111561083057506107a8906153f4565b90610100516001905b828211156107c757604051806106eb8682614627565b8161010051526009602052604061010051209160ff601484015460081c16156107fc575b6107f69192506153cf565b906107b1565b610827826108166108106107f695926153cf565b95615218565b6108208289615444565b5286615444565b508291506107eb565b806101005152600960205260ff601460406101005120015460081c1615610860575b61085b906153cf565b610796565b9061086d61085b916153cf565b919050610852565b3461020b57604036600319011261020b5761088e61436a565b602435908115159081830361020b576001600160a01b031691338314610916576108e39033610100515260066020526101005184604082209152602052604061010051209060ff801983541691151516179055565b6040519081527f17307eab39ab6107e8899845ad3d59bd9653f200f220920489ca2b5937696c3160203392a36101005180f35b60405162461bcd60e51b815260206004820152601960248201527f4552433732313a20617070726f766520746f2063616c6c6572000000000000006044820152606490fd5b3461020b57602036600319011261020b576004356001600160a01b0381169081900361020b576109896148ee565b600b80546001600160a01b0319168217905561010051907fe29ca28fd64dbdc992ce63b7fc32e81b50e1f2e800e0bbbb994cea2e35aa047c8280a280f35b3461020b5761010051806003193601126104de57604051906002546109eb816149b5565b80845290600190818116908115610a875750600114610a29575b6106eb84610a158186038261471f565b60405191829160208352602083019061432a565b6101008051600290525192507f405787fa12a823e0f2b7631cc41b3ba8828b3321ca811111fa75cd3aa3bb5ace5b828410610a6f575050508101602001610a1582610a05565b80546020858701810191909152909301928101610a57565b60ff191660208087019190915292151560051b85019092019250610a159150839050610a05565b3461020b5761010051806003193601126104de57546040516001600160a01b039091168152602090f35b3461020b5760a036600319011261020b576001600160401b036024351161020b5760e06024353603600319011261020b5760405160e081018181106001600160401b0382111761170857604052602435600401356001600160401b03811161020b57610b4c90600436916024350101614792565b81526024803501356001600160401b03811161020b57610b7490600436916024350101614836565b6020820152604460243501356001600160401b03811161020b57610ba090600436916024350101614792565b6040820152606460243501356001600160401b03811161020b57610bcc90600436916024350101614792565b6060820152608460243501356001600160401b03811161020b57610bf890600436916024350101614792565b608082015260243560a481013560a083015260c401356001600160401b03811161020b57610c2e90600436916024350101614792565b60c08201526001600160401b036044351161020b5760c06044353603600319011261020b576040518060c08101106001600160401b0360c0830111176117085760c081016040526044356004013581526001600160401b03602460443501351161020b57610ca736604435602481013501600401614792565b60208201526003604480350135101561020b576044803501356040820152600260646044350135101561020b57606460443501356060820152600460846044350135101561020b576044356084810135608083015260a4013560a08201526001600160401b036064351161020b5760606064353603600319011261020b576040518060608101106001600160401b0360608301111761170857606081016040526001600160401b03606435600401351161020b57610d713660046064358101356064350101614792565b81526001600160401b03602460643501351161020b57610d9c36606435602481013501600401614792565b60208201526001600160401b03604460643501351161020b57610dca36606435604481013501600401614836565b60408201526001600160401b036084351161020b57610dee36608435600401614851565b9260a08301511561229c5780515115612260576020810151511561221b57606081015151156121df57608081015151156121a25783516101008051600435905260096020525160409020600f01546001600160a01b0391821691160361215d5783516001600160a01b031633036121185780519260208201516101605260408201516101c05260608201519060808301519160c060a08501519401519180519060208101516040820151906003821015611aec576060830151936002851015611aec576080840151966004881015611aec578a99610fb999610fac98604060a0610f9f9901519d519e01519e600435610100515260096020526017604061010051208060a05260ff60148201541660c05260158101546102a05260018060a01b03601682015416608052015461014052610f2e60405180610260526146ba565b600435610260515233602061026051015260406102605101526101605160606102605101526101c051608061026051015260a061026051015260c061026051015260e06102605101526101006102605101526101206102605101526101406102605101526101606102605101614feb565b6101806102605101614ff7565b6101a06102605101615003565b6101c06102605101526101e061026051015261020061026051015261022061026051015260c051151561024061026051015261010051610260805101526102a0516102806102605101526080516102a0610260510152610140516102c0610260510152600435610100515260096020526101005160408120906040610260518051845560018060a01b036020820151166001600160601b0360a01b60018601541617600185015501518051916001600160401b0383116121005750819061108360028501546149b5565b601f81116120c7575b506101005190602091601f841160011461205457506101005192612049575b50508160011b916000199060031b1c19161760028201555b6060610260510151805190600160401b8211611708576003830154826003850155808310611fc6575b5061010080516003850190525160208082209392015b828210611e99578460806102605101518051906001600160401b03821161170857819061113260048501546149b5565b601f8111611e60575b506101005190602091601f8411600114611ded57506101005192611de2575b50508160011b916000199060031b1c19161760048201555b60a06102605101518051906001600160401b03821161170857819061119a60058501546149b5565b601f8111611da9575b506101005190602091601f8411600114611d3657506101005192611d2b575b50508160011b916000199060031b1c19161760058201555b60c06102605101518051906001600160401b03821161170857819061120260068501546149b5565b601f8111611cf2575b506101005190602091601f8411600114611c7f57506101005192611c74575b50508160011b916000199060031b1c19161760068201555b6101006102605160e0810151600784015501518051906001600160401b03821161170857819061127560088501546149b5565b601f8111611c3b575b506101005190602091601f8411600114611bc857506101005192611bbd575b50508160011b916000199060031b1c19161760088201555b61014061026051610120810151600984015501518051906001600160401b0382116117085781906112e9600a8501546149b5565b601f8111611b84575b506101005190602091601f8411600114611b1157506101005192611b06575b50508160011b916000199060031b1c191617600a8201555b6101606102605101516003811015611aec57600b820154610180610260510151906002821015611aec576101a0610260510151906004821015611aec5760ff62ff000061ff009360101b1694169062ffffff1916179160081b161717600b8201556101e0610260516101c0810151600c84015501518051906001600160401b0382116117085781906113be600d8501546149b5565b601f8111611ab3575b506101005190602091601f8411600114611a4057506101005192611a35575b50508160011b916000199060031b1c191617600d8201555b610200610260510151805190600160401b821161170857600e83015482600e8501558083106119b2575b506101008051600e850190525160208082209392015b8282106118905784600f8101906102206102605101519160018060a01b038351166001600160601b0360a01b82541617905560208201519182516001600160401b0381116117085761149360108401546149b5565b601f8111611857575b5061010051602090601f83116001146117e857508192939461010051926117dd575b50508160011b916000199060031b1c19161760108301555b60408101519081516001600160401b038111611708576114f960118501546149b5565b601f81116117a4575b5061010051602090601f831160011461172d575081906080946101005192611722575b50508160011b916000199060031b1c19161760118401555b6060810151601284015501519081516001600160401b03811161170857601382019061156982546149b5565b601f81116116c7575b5061010051602090601f83116001146116605750819293946101005192611655575b50508160011b916000199060031b1c19161790555b60176102c0601483016115f361026051916115d76102408401511515829060ff801983541691151516179055565b610260830151815461ff00191690151560081b61ff0016179055565b61028081015160158501556016840160018060a01b036102a0830151166001600160601b0360a01b825416179055015191015561010051336004357f0ac4673e0c14f555f7a29dc1abe824e57feeb4dc61dffc46e24a31d970178d6a8380a380f35b015190508480611594565b83905261010051602081209190601f198416905b8181106116af57509583600195969710611696575b505050811b0190556115a9565b015160001960f88460031b161c19169055848080611689565b9192602060018192868b015181550194019201611674565b6116f89083610100515260206101005120601f840160051c810191602085106116fe575b601f0160051c019061500f565b84611572565b90915081906116eb565b634e487b7160e01b61010051526041600452602461010051fd5b015190508580611525565b60118695939495019052610100519160208320925b601f198516811061178c575091839160019360809695601f19811610611773575b505050811b01601184015561153d565b015160001960f88460031b161c19169055858080611763565b91926020600181928685015181550194019201611742565b6117d79060118601610100515260206101005120601f840160051c810191602085106116fe57601f0160051c019061500f565b84611502565b0151905084806114be565b601085019052610100519060208220915b601f198416811061183f5750600193949583601f19811610611826575b505050811b0160108301556114d6565b015160001960f88460031b161c19169055848080611816565b9091602060018192858a0151815501930191016117f9565b61188a9060108501610100515260206101005120601f840160051c810191602085106116fe57601f0160051c019061500f565b8461149c565b80518051906001600160401b038211611708576118ad86546149b5565b601f811161197c575b50610100519086602092601f851160011461190d57505092826001949360209386956101005192611902575b5050600019600383901b1c191690841b1787555b0194019101909261143e565b015190508a806118e2565b5261010051602081209291905b601f1985168110611964575083602093600196938796938794601f1981161061194b575b505050811b0187556118f6565b015160001960f88460031b161c191690558a808061193e565b9192602060018192868501518155019401920161191a565b6119ac9087610100515260206101005120601f850160051c810191602086106116fe57601f0160051c019061500f565b876118b6565b600e8401610100515260206101005120908382015b81830181106119d7575050611428565b806119e4600192546149b5565b806119f1575b50016119c7565b601f81118314611a0957506101005181555b876119ea565b8161010051526101005190611a2c601f60208420920160051c820185830161500f565b81835555611a03565b0151905083806113e6565b600d86019052610100516020812090945091905b601f1984168510611a98576001945083601f19811610611a7f575b505050811b01600d8201556113fe565b015160001960f88460031b161c19169055838080611a6f565b81810151835560209485019460019093019290910190611a54565b611ae690600d8601610100515260206101005120601f850160051c810191602086106116fe57601f0160051c019061500f565b846113c7565b634e487b7160e01b61010051526021600452602461010051fd5b015190508380611311565b600a86019052610100516020812090945091905b601f1984168510611b69576001945083601f19811610611b50575b505050811b01600a820155611329565b015160001960f88460031b161c19169055838080611b40565b81810151835560209485019460019093019290910190611b25565b611bb790600a8601610100515260206101005120601f850160051c810191602086106116fe57601f0160051c019061500f565b846112f2565b01519050838061129d565b600886019052610100516020812090945091905b601f1984168510611c20576001945083601f19811610611c07575b505050811b0160088201556112b5565b015160001960f88460031b161c19169055838080611bf7565b81810151835560209485019460019093019290910190611bdc565b611c6e9060088601610100515260206101005120601f850160051c810191602086106116fe57601f0160051c019061500f565b8461127e565b01519050838061122a565b600686019052610100516020812090945091905b601f1984168510611cd7576001945083601f19811610611cbe575b505050811b016006820155611242565b015160001960f88460031b161c19169055838080611cae565b81810151835560209485019460019093019290910190611c93565b611d259060068601610100515260206101005120601f850160051c810191602086106116fe57601f0160051c019061500f565b8461120b565b0151905083806111c2565b600586019052610100516020812090945091905b601f1984168510611d8e576001945083601f19811610611d75575b505050811b0160058201556111da565b015160001960f88460031b161c19169055838080611d65565b81810151835560209485019460019093019290910190611d4a565b611ddc9060058601610100515260206101005120601f850160051c810191602086106116fe57601f0160051c019061500f565b846111a3565b01519050838061115a565b600486019052610100516020812090945091905b601f1984168510611e45576001945083601f19811610611e2c575b505050811b016004820155611172565b015160001960f88460031b161c19169055838080611e1c565b81810151835560209485019460019093019290910190611e01565b611e939060048601610100515260206101005120601f850160051c810191602086106116fe57601f0160051c019061500f565b8461113b565b80518051906001600160401b03821161170857611eb686546149b5565b601f8111611f85575b50610100519086602092601f8511600114611f1657505092826001949360209386956101005192611f0b575b5050600019600383901b1c191690841b1787555b01940191019092611102565b015190508a80611eeb565b5261010051602081209291905b601f1985168110611f6d575083602093600196938796938794601f19811610611f54575b505050811b018755611eff565b015160001960f88460031b161c191690558a8080611f47565b91926020600181928685015181550194019201611f23565b611fb690876101005152602061010051206005601f8601811c82019260208710611fbc575b601f01901c019061500f565b87611ebf565b9192508291611faa565b60038401610100515260206101005120908382015b8183018110611feb5750506110ec565b80611ff8600192546149b5565b80612005575b5001611fdb565b601f8111831461201d57506101005181555b87611ffe565b8161010051526101005190612040601f60208420920160051c820185830161500f565b81835555612017565b0151905083806110ab565b600286019052610100516020812090945091905b601f19841685106120ac576001945083601f19811610612093575b505050811b0160028201556110c3565b015160001960f88460031b161c19169055838080612083565b81810151835560209485019460019093019290910190612068565b6120fa9060028601610100515260206101005120601f850160051c810191602086106116fe57601f0160051c019061500f565b8461108c565b634e487b7160e01b9052604160045261010051602490fd5b60405162461bcd60e51b815260206004820152601f60248201527f53656c6c65722077616c6c6574206d757374206d617463682073656e646572006044820152606490fd5b60405162461bcd60e51b815260206004820152601b60248201527f43616e6e6f74206368616e67652073656c6c65722077616c6c657400000000006044820152606490fd5b60405162461bcd60e51b81526020600482015260156024820152744d6f64656c2063616e6e6f7420626520656d70747960581b6044820152606490fd5b60405162461bcd60e51b81526020600482015260146024820152734d616b652063616e6e6f7420626520656d70747960601b6044820152606490fd5b60405162461bcd60e51b815260206004820152601e60248201527f4174206c65617374206f6e6520696d61676520697320726571756972656400006044820152606490fd5b60405162461bcd60e51b81526020600482015260146024820152734e616d652063616e6e6f7420626520656d70747960601b6044820152606490fd5b60405162461bcd60e51b815260206004820152601c60248201527f5072696365206d7573742062652067726561746572207468616e2030000000006044820152606490fd5b3461020b5761010051806003193601126104de576122fd6148ee565b6101005180546001600160a01b03198116825581906001600160a01b03167f8be0079c531659141344cd1fd0a4f28419497f9722a3daafe3b4186f6b6457e08280a380f35b3461020b57602036600319011261020b576001600160a01b0361236361436a565b168015612386576101005152600460205260206040610100512054604051908152f35b60405162461bcd60e51b815260206004820152602960248201527f4552433732313a2061646472657373207a65726f206973206e6f7420612076616044820152683634b21037bbb732b960b91b6064820152608490fd5b3461020b5760031960c03682011261020b576001600160401b036004351161020b5760e0816004353603011261020b576001600160401b036024351161020b5760c0816024353603011261020b576001600160401b036044351161020b576060816044353603011261020b576064359081610240526001600160401b03821161020b5760a0913603011261020b5760a4356101a08190526001600160a01b0381169081900361020b576124909015614f24565b610240516004016001600160a01b036124a882614f70565b1633149081613ac1575b5015613a8b5760a4602435013515613a56576124d8602460043501600435600401614f84565b905015613a25576301e1338042046107b28101809111613a0b5760a46004350135116139d757633b9aca006024356004013510156139a05760078054600101610180819052905561252d600480350180614fb9565b6101205261020052612549602460043501600435600401614f84565b9061255e604460043501600435600401614fb9565b90612573606460043501600435600401614fb9565b90612588608460043501600435600401614fb9565b909161259e60c460043501600435600401614fb9565b9490956125b46024803501602435600401614fb9565b989099600360446024350135101561020b57600260646024350135101561020b57600460846024350135101561020b576125f360046044350180614fb9565b9c9060e0526044356044016044356004019061260e91614f84565b610220526101e0526040518061028052612627906146ba565b610180516102805152336102805160200152366101205190610200519161264d9261475b565b61028051604001523690612660926147c7565b610280516060015236906126739261475b565b610280516080015236906126869261475b565b6102805160a0015236906126999261475b565b6102805160c0015260043560a401356102805160e0015236906126bb9261475b565b6102805161010001526024356004013561028051610120015236906126df9261475b565b6102805161014001526024356044013561028051610160019061270191614feb565b6024356064013561028051610180019061271a91614ff7565b60243560840135610280516101a0019061273391615003565b60243560a40135610280516101c001523660e051916127519261475b565b610280516101e001523661022051906101e0519161276e926147c7565b61028051610200015236610240516004019061278991614851565b6102805161022001526101005161028051610240015261010051610280516102600152608435610280516102800152600160a01b600190036101a05116610280516102a0015261010051610280516102c0015261018051610100515260096020526101005160408120906102805180518355600160a01b600190036020820151166001600160601b0360a01b600185015416176001840155604001518051916001600160401b0383116121005750819061284660028501546149b5565b601f8111613967575b506101005190602091601f84116001146138f4575061010051926138e9575b50508160011b916000199060031b1c19161760028201555b6060610280510151805190600160401b8211611708576003830154826003850155808310613866575b5061010080516003850190525160208082209392015b828210613744578460806102805101518051906001600160401b0382116117085781906128f560048501546149b5565b601f811161370b575b506101005190602091601f84116001146136985750610100519261368d575b50508160011b916000199060031b1c19161760048201555b60a06102805101518051906001600160401b03821161170857819061295d60058501546149b5565b601f8111613654575b506101005190602091601f84116001146135e1575061010051926135d6575b50508160011b916000199060031b1c19161760058201555b60c06102805101518051906001600160401b0382116117085781906129c560068501546149b5565b601f811161359d575b506101005190602091601f841160011461352a5750610100519261351f575b50508160011b916000199060031b1c19161760068201555b6101006102805160e0810151600784015501518051906001600160401b038211611708578190612a3860088501546149b5565b601f81116134e6575b506101005190602091601f841160011461347357506101005192613468575b50508160011b916000199060031b1c19161760088201555b61014061028051610120810151600984015501518051906001600160401b038211611708578190612aac600a8501546149b5565b601f811161342f575b506101005190602091601f84116001146133bc575061010051926133b1575b50508160011b916000199060031b1c191617600a8201555b6101606102805101516003811015611aec57600b820154610180610280510151906002821015611aec576101a0610280510151906004821015611aec5760ff62ff000061ff009360101b1694169062ffffff1916179160081b161717600b8201556101e0610280516101c0810151600c84015501518051906001600160401b038211611708578190612b81600d8501546149b5565b601f8111613378575b506101005190602091601f8411600114613305575061010051926132fa575b50508160011b916000199060031b1c191617600d8201555b610200610280510151805190600160401b821161170857600e83015482600e850155808310613277575b506101008051600e850190525160208082209392015b8282106131555784600f8101906102206102805101519160018060a01b038351166001600160601b0360a01b82541617905560208201519182516001600160401b03811161170857612c5660108401546149b5565b601f811161311c575b5061010051602090601f83116001146130ad57508192939461010051926130a2575b50508160011b916000199060031b1c19161760108301555b60408101519081516001600160401b03811161170857612cbc60118501546149b5565b601f8111613069575b5061010051602090601f8311600114612ff2575081906080946101005192612fe7575b50508160011b916000199060031b1c19161760118401555b6060810151601284015501518051906001600160401b038211611708578190612d2c60138501546149b5565b601f8111612fae575b506101005190602091601f8411600114612f3b57506101005192612f30575b50508160011b916000199060031b1c19161760138201555b60176102c060148301612d9a61028051916115d76102408401511515829060ff801983541691151516179055565b61028081015160158501556016840160018060a01b036102a0830151166001600160601b0360a01b8254161790550151910155604051612dd981614704565b6101005181523315612eec5761018051600090815260036020526040902054612eae9161076f91612e16906001600160a01b031615155b15615026565b61018051600090815260036020526040902054612e3d906001600160a01b03161515612e10565b336101005152600460205261010051604081206001815401905561018051905260036020526101005160408120336001600160601b0360a01b82541617905561018051809133907fddf252ad1be2c89b69c2b068fc378daa952ba7f163c4a11628f55a4df523b3ef8180a433614db5565b60405160a46024350135815233907f346237025e4b201cfbdb8011c7afcd8a0cc16c50e910d6ac5645ab7406be429d60206101805192a36101005180f35b606460405162461bcd60e51b815260206004820152602060248201527f4552433732313a206d696e7420746f20746865207a65726f20616464726573736044820152fd5b015190508380612d54565b601386019052610100516020812090945091905b601f1984168510612f93576001945083601f19811610612f7a575b505050811b016013820155612d6c565b015160001960f88460031b161c19169055838080612f6a565b81810151835560209485019460019093019290910190612f4f565b612fe19060138601610100515260206101005120601f850160051c810191602086106116fe57601f0160051c019061500f565b84612d35565b015190508580612ce8565b60118695939495019052610100519160208320925b601f1985168110613051575091839160019360809695601f19811610613038575b505050811b016011840155612d00565b015160001960f88460031b161c19169055858080613028565b91926020600181928685015181550194019201613007565b61309c9060118601610100515260206101005120601f840160051c810191602085106116fe57601f0160051c019061500f565b84612cc5565b015190508480612c81565b601085019052610100519060208220915b601f19841681106131045750600193949583601f198116106130eb575b505050811b016010830155612c99565b015160001960f88460031b161c191690558480806130db565b9091602060018192858a0151815501930191016130be565b61314f9060108501610100515260206101005120601f840160051c810191602085106116fe57601f0160051c019061500f565b84612c5f565b80518051906001600160401b0382116117085761317286546149b5565b601f8111613241575b50610100519086602092601f85116001146131d2575050928260019493602093869561010051926131c7575b5050600019600383901b1c191690841b1787555b01940191019092612c01565b015190508a806131a7565b5261010051602081209291905b601f1985168110613229575083602093600196938796938794601f19811610613210575b505050811b0187556131bb565b015160001960f88460031b161c191690558a8080613203565b919260206001819286850151815501940192016131df565b6132719087610100515260206101005120601f850160051c810191602086106116fe57601f0160051c019061500f565b8761317b565b600e8401610100515260206101005120908382015b818301811061329c575050612beb565b806132a9600192546149b5565b806132b6575b500161328c565b601f811183146132ce57506101005181555b876132af565b81610100515261010051906132f1601f60208420920160051c820185830161500f565b818355556132c8565b015190508380612ba9565b600d86019052610100516020812090945091905b601f198416851061335d576001945083601f19811610613344575b505050811b01600d820155612bc1565b015160001960f88460031b161c19169055838080613334565b81810151835560209485019460019093019290910190613319565b6133ab90600d8601610100515260206101005120601f850160051c810191602086106116fe57601f0160051c019061500f565b84612b8a565b015190508380612ad4565b600a86019052610100516020812090945091905b601f1984168510613414576001945083601f198116106133fb575b505050811b01600a820155612aec565b015160001960f88460031b161c191690558380806133eb565b818101518355602094850194600190930192909101906133d0565b61346290600a8601610100515260206101005120601f850160051c810191602086106116fe57601f0160051c019061500f565b84612ab5565b015190508380612a60565b600886019052610100516020812090945091905b601f19841685106134cb576001945083601f198116106134b2575b505050811b016008820155612a78565b015160001960f88460031b161c191690558380806134a2565b81810151835560209485019460019093019290910190613487565b6135199060088601610100515260206101005120601f850160051c810191602086106116fe57601f0160051c019061500f565b84612a41565b0151905083806129ed565b600686019052610100516020812090945091905b601f1984168510613582576001945083601f19811610613569575b505050811b016006820155612a05565b015160001960f88460031b161c19169055838080613559565b8181015183556020948501946001909301929091019061353e565b6135d09060068601610100515260206101005120601f850160051c810191602086106116fe57601f0160051c019061500f565b846129ce565b015190508380612985565b600586019052610100516020812090945091905b601f1984168510613639576001945083601f19811610613620575b505050811b01600582015561299d565b015160001960f88460031b161c19169055838080613610565b818101518355602094850194600190930192909101906135f5565b6136879060058601610100515260206101005120601f850160051c810191602086106116fe57601f0160051c019061500f565b84612966565b01519050838061291d565b600486019052610100516020812090945091905b601f19841685106136f0576001945083601f198116106136d7575b505050811b016004820155612935565b015160001960f88460031b161c191690558380806136c7565b818101518355602094850194600190930192909101906136ac565b61373e9060048601610100515260206101005120601f850160051c810191602086106116fe57601f0160051c019061500f565b846128fe565b80518051906001600160401b0382116117085761376186546149b5565b601f8111613830575b50610100519086602092601f85116001146137c1575050928260019493602093869561010051926137b6575b5050600019600383901b1c191690841b1787555b019401910190926128c5565b015190508a80613796565b5261010051602081209291905b601f1985168110613818575083602093600196938796938794601f198116106137ff575b505050811b0187556137aa565b015160001960f88460031b161c191690558a80806137f2565b919260206001819286850151815501940192016137ce565b61386090876101005152602061010051206005601f8601811c82019260208710611fbc57601f01901c019061500f565b8761376a565b60038401610100515260206101005120908382015b818301811061388b5750506128af565b80613898600192546149b5565b806138a5575b500161387b565b601f811183146138bd57506101005181555b8761389e565b81610100515261010051906138e0601f60208420920160051c820185830161500f565b818355556138b7565b01519050838061286e565b600286019052610100516020812090945091905b601f198416851061394c576001945083601f19811610613933575b505050811b016002820155612886565b015160001960f88460031b161c19169055838080613923565b81810151835560209485019460019093019290910190613908565b61399a9060028601610100515260206101005120601f850160051c810191602086106116fe57601f0160051c019061500f565b8461284f565b60405162461bcd60e51b815260206004820152600f60248201526e496e76616c6964206d696c6561676560881b6044820152606490fd5b60405162461bcd60e51b815260206004820152600c60248201526b24b73b30b634b2103cb2b0b960a11b6044820152606490fd5b634e487b7160e01b61010051526011600452602461010051fd5b60405162461bcd60e51b81526020600482015260096024820152684e6f20696d6167657360b81b6044820152606490fd5b60405162461bcd60e51b815260206004820152600d60248201526c496e76616c696420707269636560981b6044820152606490fd5b60405162461bcd60e51b815260206004820152600e60248201526d24b73b30b634b21039b2b63632b960911b6044820152606490fd5b6001600160a01b039150613ad490614f70565b161515816124b2565b3461020b57602036600319011261020b576020613afb600435614992565b6040516001600160a01b039091168152f35b3461020b5760208060031936011261020b576004358061010051526009825260ff601460406101005120015460081c16613c1e57806101005152600982526014604061010051200161010061ff0019825416179055613b6b81614992565b5080613b7681614992565b816101005152600584526003610100519460408620926001600160601b0360a01b9384815416905560018060a01b0316809652600481528361010051604081206000198154019055525261010051938491604083209081541690557fddf252ad1be2c89b69c2b068fc378daa952ba7f163c4a11628f55a4df523b3ef8280a433907f975848b3b721e792b1afe72032f4fa971d1faeb9bfd806ccf1ffada5bac8bafe8380a380f35b60405162461bcd60e51b815260048101839052601360248201527210d85c88185b1c9958591e4819195b195d1959606a1b6044820152606490fd5b3461020b5760208060031936011261020b57600435613c76615072565b50610100805182905260098352516040902060010154613ca0906001600160a01b0316151561513f565b80610100515260098252613cc460ff601460406101005120015460081c1615615180565b610100515260098152613cdc60406101005120615218565b906106eb60405192828493845283019061442c565b3461020b5761077461076f613d053661439b565b9060405192613d1384614704565b61010051845261075f61075a8433614bac565b3461020b5761010051806003193601126104de576007549060015b82811115613de05750613d53906153f4565b90610100516001905b82821115613d7257604051806106eb8682614627565b8161010051526009602052604061010051209160ff601484015460081c161580613dca575b613dad575b613da79192506153cf565b90613d5c565b613dc182610816610810613da795926153cf565b50829150613d9c565b5060018301546001600160a01b03163314613d97565b80610100515260096020526040610100512060ff601482015460081c16159081613e2e575b50613e19575b613e14906153cf565b613d41565b90613e26613e14916153cf565b919050613e0b565b600101546001600160a01b03163314905084613e05565b3461020b5761010051806003193601126104de5760075460015b81811115613ff85750613e71826147b0565b91613e7f604051938461471f565b808352613e8e601f19916147b0565b01610100515b818110613fc3575050610100516001905b82821115613f16578360405160209182820183835281518091528360408401920193610100515b828110613ed95784840385f35b8551805185528083015185840152604080820151908601526060908101516001600160a01b03169085015294810194608090930192600101613ecc565b6101009391929351905b8361010051526020600a8152604061010051208054841015613fac5791613fa091613f4e85613fa69561546e565b5060405191613f5c83614689565b8154835260018201549083015260028101546040830152600301546001600160a01b03166060820152613f8f8287615444565b52613f9a8186615444565b506153cf565b916153cf565b90613f20565b505092613fbc91509391936153cf565b9091613ea5565b602090604051613fd281614689565b610100805182528051848301528051604083015251606082015285820183015201613e94565b91826101005152600a6020526101005160408120548201809211614026575061402190926153cf565b613e5f565b634e487b7160e01b9052601160045261010051602490fd5b3461020b5761077461404f3661439b565b9161405d61075a8433614bac565b614c74565b3461020b57604036600319011261020b5761407b61436a565b6024356001600160a01b03808061409184614992565b1693169280841461419f57803314908115614173575b501561410857816101005152600560205260406101005120836001600160601b0360a01b8254161790556140da82614992565b169161010051927f8c5be1e5ebec7d5bd14f71427d1e84f3dd0314c0f7b2291e5b200ac8c7c3b9258480a480f35b60405162461bcd60e51b815260206004820152603d60248201527f4552433732313a20617070726f76652063616c6c6572206973206e6f7420746f60448201527f6b656e206f776e6572206f7220617070726f76656420666f7220616c6c0000006064820152608490fd5b90506101005152600660205261010051604081209033905260205260ff604061010051205416846140a7565b60405162461bcd60e51b815260206004820152602160248201527f4552433732313a20617070726f76616c20746f2063757272656e74206f776e656044820152603960f91b6064820152608490fd5b3461020b57602036600319011261020b576020613afb600435614a95565b3461020b5761010051806003193601126104de57604051906001805490614232826149b5565b80855291818116908115610a875750600114614258576106eb84610a158186038261471f565b61010080518290525192507fb10e2d527612073b26eecdfd717e6a320cf44b4afac2b0732d9fcbe2b7fa0cf65b82841061429d575050508101602001610a1582610a05565b80546020858701810191909152909301928101614285565b9050346143265760203660031901126143265760043563ffffffff60e01b811680910361432257602092506380ac58cd60e01b8114908115614311575b8115614300575b5015158152f35b6301ffc9a760e01b149050386142f9565b635b5e139f60e01b811491506142f2565b8280fd5b5080fd5b919082519283825260005b848110614356575050826000602080949584010152601f8019910116010190565b602081830181015184830182015201614335565b600435906001600160a01b038216820361438057565b600080fd5b602435906001600160a01b038216820361438057565b6060906003190112614380576001600160a01b0390600435828116810361438057916024359081168103614380579060443590565b908082519081815260208091019281808460051b8301019501936000915b8483106143fe5750505050505090565b909192939495848061441c600193601f198682030187528a5161432a565b98019301930191949392906143ee565b908151815260018060a01b03918260208201511660208301526144f56144d66144b86144a661449461448261447060408801516102e08060408c01528a019061432a565b606088015189820360608b01526143d0565b608087015188820360808a015261432a565b60a086015187820360a089015261432a565b60c085015186820360c088015261432a565b60e084015160e086015261010080850151908683039087015261432a565b610120808401519085015261014080840151908583039086015261432a565b610160808301519060038210156146115784015261018080830151906002821015614611578401526101a080830151906004821015614611576145d1926145709261455c928701526101c080860151908701526101e080860151908783039088015261432a565b6102008085015190868303908701526143d0565b6102209081840151918582039086015285825116815260806145b66145a4602085015160a0602086015260a085019061432a565b6040850151848203604086015261432a565b9260608101516060840152015190608081840391015261432a565b92610240808301511515908401526102608083015115159084015261028080830151908401526102a0908183015116908301526102c08091015191015290565b634e487b7160e01b600052602160045260246000fd5b602080820190808352835180925260408301928160408460051b8301019501936000915b84831061465b5750505050505090565b9091929394958480614679600193603f198682030187528a5161442c565b980193019301919493929061464b565b608081019081106001600160401b038211176146a457604052565b634e487b7160e01b600052604160045260246000fd5b6102e081019081106001600160401b038211176146a457604052565b6001600160401b0381116146a457604052565b60a081019081106001600160401b038211176146a457604052565b602081019081106001600160401b038211176146a457604052565b90601f801991011681019081106001600160401b038211176146a457604052565b6001600160401b0381116146a457601f01601f191660200190565b92919261476782614740565b91614775604051938461471f565b829481845281830111614380578281602093846000960137010152565b9080601f83011215614380578160206147ad9335910161475b565b90565b6001600160401b0381116146a45760051b60200190565b929190926147d4846147b0565b916147e2604051938461471f565b829480845260208094019060051b8301928284116143805780915b84831061480c57505050505050565b82356001600160401b03811161438057869161482b8684938601614792565b8152019201916147fd565b9080601f83011215614380578160206147ad933591016147c7565b919060a083820312614380576040519061486a826146e9565b909283919080356001600160a01b03811681036143805783526001600160401b0391602082013583811161438057816148a4918401614792565b6020850152604082013583811161438057816148c1918401614792565b6040850152606082013560608501526080820135928311614380576080926148e99201614792565b910152565b6000546001600160a01b0316330361490257565b606460405162461bcd60e51b815260206004820152602060248201527f4f776e61626c653a2063616c6c6572206973206e6f7420746865206f776e65726044820152fd5b1561494d57565b60405162461bcd60e51b815260206004820152601860248201527f4552433732313a20696e76616c696420746f6b656e20494400000000000000006044820152606490fd5b6000908152600360205260409020546001600160a01b03166147ad811515614946565b90600182811c921680156149e5575b60208310146149cf57565b634e487b7160e01b600052602260045260246000fd5b91607f16916149c4565b9060405191826000825492614a03846149b5565b908184526001948581169081600014614a725750600114614a2f575b5050614a2d9250038361471f565b565b9093915060005260209081600020936000915b818310614a5a575050614a2d93508201013880614a1f565b85548884018501529485019487945091830191614a42565b915050614a2d94506020925060ff191682840152151560051b8201013880614a1f565b600081815260036020526040902054614ab8906001600160a01b03161515614946565b6000908152600560205260409020546001600160a01b031690565b15614ada57565b60405162461bcd60e51b815260206004820152602d60248201527f4552433732313a2063616c6c6572206973206e6f7420746f6b656e206f776e6560448201526c1c881bdc88185c1c1c9bdd9959609a1b6064820152608490fd5b60809060208152603260208201527f4552433732313a207472616e7366657220746f206e6f6e20455243373231526560408201527131b2b4bb32b91034b6b83632b6b2b73a32b960711b60608201520190565b15614b8f57565b60405162461bcd60e51b815280614ba860048201614b35565b0390fd5b906001600160a01b038080614bc084614992565b16931691838314938415614bf3575b508315614bdd575b50505090565b614be991929350614a95565b1614388080614bd7565b909350600052600660205260406000208260005260205260ff604060002054169238614bcf565b15614c2157565b60405162461bcd60e51b815260206004820152602560248201527f4552433732313a207472616e736665722066726f6d20696e636f72726563742060448201526437bbb732b960d91b6064820152608490fd5b90614c9c91614c8284614992565b6001600160a01b0393918416928492909183168414614c1a565b16918215614d345781614cb991614cb286614992565b1614614c1a565b7fddf252ad1be2c89b69c2b068fc378daa952ba7f163c4a11628f55a4df523b3ef60008481526005602052604081206001600160601b0360a01b9081815416905583825260046020526040822060001981540190558482526040822060018154019055858252600360205284604083209182541617905580a4565b60405162461bcd60e51b8152602060048201526024808201527f4552433732313a207472616e7366657220746f20746865207a65726f206164646044820152637265737360e01b6064820152608490fd5b3d15614db0573d90614d9682614740565b91614da4604051938461471f565b82523d6000602084013e565b606090565b9091600091803b15614ea057614e006020918493604051948580948193630a85bd0160e11b9a8b8452336004850152846024850152604484015260806064840152608483019061432a565b03926001600160a01b03165af190829082614e58575b5050614e4a57614e24614d85565b80519081614e455760405162461bcd60e51b815280614ba860048201614b35565b602001fd5b6001600160e01b0319161490565b909192506020813d8211614e98575b81614e746020938361471f565b810103126143265751906001600160e01b0319821682036104de5750903880614e16565b3d9150614e67565b50505050600190565b91926000929190813b15614f1a57602091614eff9185604051958680958194630a85bd0160e11b9b8c845233600485015260018060a01b038095166024850152604484015260806064840152608483019061432a565b0393165af190829082614e58575050614e4a57614e24614d85565b5050505050600190565b15614f2b57565b60405162461bcd60e51b815260206004820152601b60248201527f4f6e6c79206e617469766520746f6b656e20737570706f7274656400000000006044820152606490fd5b356001600160a01b03811681036143805790565b903590601e198136030182121561438057018035906001600160401b03821161438057602001918160051b3603831361438057565b903590601e198136030182121561438057018035906001600160401b0382116143805760200191813603831361438057565b60038210156146115752565b60028210156146115752565b60048210156146115752565b81811061501a575050565b6000815560010161500f565b1561502d57565b60405162461bcd60e51b815260206004820152601c60248201527f4552433732313a20746f6b656e20616c7265616479206d696e746564000000006044820152606490fd5b6040519061507f826146ba565b816102c0600091828152826020820152606080604083015280808301528060808301528060a08301528060c08301528360e08301528061010083015283610120830152806101408301528361016083015283610180830152836101a0830152836101c0830152806101e08301528061020083015260405190615100826146e9565b84825280602083015280604083015284818301526080820152610220820152826102408201528261026082015282610280820152826102a08201520152565b1561514657565b60405162461bcd60e51b815260206004820152601260248201527110d85c88191bd95cc81b9bdd08195e1a5cdd60721b6044820152606490fd5b1561518757565b60405162461bcd60e51b815260206004820152601460248201527310d85c881a185cc81899595b8819195b195d195960621b6044820152606490fd5b9081546151cf816147b0565b926151dd604051948561471f565b818452600090815260208082208186015b8484106151fc575050505050565b600183819261520a856149ef565b8152019201930192906151ee565b90604051615225816146ba565b6102c0601782948054845260018060a01b0380600183015416602086015261524f600283016149ef565b6040860152615260600383016151c3565b6060860152615271600483016149ef565b6080860152615282600583016149ef565b60a0860152615293600683016149ef565b60c0860152600782015460e08601526152ae600883016149ef565b61010086015260098201546101208601526152cb600a83016149ef565b61014086015261530c60ff600b8401546152eb8282166101608a01614feb565b6152fe828260081c166101808a01614ff7565b60101c166101a08701615003565b600c8201546101c0860152615323600d83016149ef565b6101e0860152615335600e83016151c3565b610200860152604051615347816146e9565b81600f84015416815261535c601084016149ef565b602082015261536d601184016149ef565b604082015260128301546060820152615388601384016149ef565b608082015261022086015260ff6014830154818116151561024088015260081c16151561026086015260158201546102808601526016820154166102a08501520154910152565b60001981146153de5760010190565b634e487b7160e01b600052601160045260246000fd5b906153fe826147b0565b61540b604051918261471f565b828152809261541c601f19916147b0565b019060005b82811061542d57505050565b602090615438615072565b82828501015201615421565b80518210156154585760209160051b010190565b634e487b7160e01b600052603260045260246000fd5b80548210156154585760005260206000209060021b019060009056fea264697066735822122032ba19ef1e3fbfb1c64f8fb82d395866ade94968e6b3bbb38e7f24424b0a8d0e64736f6c63430008130033",
  "linkReferences": {},
  "deployedLinkReferences": {}
}