{
  "_format": "hh-sol-artifact-1",
  "contractName": "HemDealerCrossChain",
  "sourceName": "contracts/HemDealerCrossChain.sol",
  "abi": [
    {
      "inputs": [
        {
          "internalType": "address",
          "name": "_hemDealer",
          "type": "address"
        },
        {
          "internalType": "address",
          "name": "_spokePool",
          "type": "address"
        },
        {
          "internalType": "address",
          "name": "_acrossRouter",
          "type": "address"
        }
      ],
      "stateMutability": "nonpayable",
      "type": "constructor"
    },
    {
      "anonymous": false,
      "inputs": [
        {
          "indexed": true,
          "internalType": "uint256",
          "name": "carId",
          "type": "uint256"
        },
        {
          "indexed": false,
          "internalType": "uint256",
          "name": "destinationChainId",
          "type": "uint256"
        },
        {
          "indexed": true,
          "internalType": "address",
          "name": "newOwner",
          "type": "address"
        }
      ],
      "name": "CrossChainTransferCompleted",
      "type": "event"
    },
    {
      "anonymous": false,
      "inputs": [
        {
          "indexed": true,
          "internalType": "uint256",
          "name": "carId",
          "type": "uint256"
        },
        {
          "indexed": false,
          "internalType": "uint256",
          "name": "sourceChainId",
          "type": "uint256"
        },
        {
          "indexed": false,
          "internalType": "uint256",
          "name": "destinationChainId",
          "type": "uint256"
        },
        {
          "indexed": true,
          "internalType": "address",
          "name": "seller",
          "type": "address"
        },
        {
          "indexed": true,
          "internalType": "address",
          "name": "buyer",
          "type": "address"
        }
      ],
      "name": "CrossChainTransferInitiated",
      "type": "event"
    },
    {
      "anonymous": false,
      "inputs": [
        {
          "indexed": true,
          "internalType": "address",
          "name": "previousOwner",
          "type": "address"
        },
        {
          "indexed": true,
          "internalType": "address",
          "name": "newOwner",
          "type": "address"
        }
      ],
      "name": "OwnershipTransferred",
      "type": "event"
    },
    {
      "anonymous": false,
      "inputs": [
        {
          "indexed": true,
          "internalType": "uint256",
          "name": "carId",
          "type": "uint256"
        },
        {
          "indexed": true,
          "internalType": "address",
          "name": "owner",
          "type": "address"
        }
      ],
      "name": "TransferCancelled",
      "type": "event"
    },
    {
      "inputs": [],
      "name": "MAX_SLIPPAGE",
      "outputs": [
        {
          "internalType": "uint256",
          "name": "",
          "type": "uint256"
        }
      ],
      "stateMutability": "view",
      "type": "function"
    },
    {
      "inputs": [],
      "name": "TRANSFER_TIMEOUT",
      "outputs": [
        {
          "internalType": "uint256",
          "name": "",
          "type": "uint256"
        }
      ],
      "stateMutability": "view",
      "type": "function"
    },
    {
      "inputs": [],
      "name": "acrossRouter",
      "outputs": [
        {
          "internalType": "address",
          "name": "",
          "type": "address"
        }
      ],
      "stateMutability": "view",
      "type": "function"
    },
    {
      "inputs": [
        {
          "internalType": "uint256",
          "name": "amount",
          "type": "uint256"
        },
        {
          "internalType": "address",
          "name": "recipient",
          "type": "address"
        },
        {
          "internalType": "uint256",
          "name": "destinationChainId",
          "type": "uint256"
        },
        {
          "internalType": "uint256",
          "name": "relayerFeePct",
          "type": "uint256"
        },
        {
          "internalType": "uint256",
          "name": "quoteTimestamp",
          "type": "uint256"
        }
      ],
      "name": "bridgePayment",
      "outputs": [],
      "stateMutability": "payable",
      "type": "function"
    },
    {
      "inputs": [
        {
          "internalType": "uint256",
          "name": "carId",
          "type": "uint256"
        }
      ],
      "name": "cancelTimedOutTransfer",
      "outputs": [],
      "stateMutability": "nonpayable",
      "type": "function"
    },
    {
      "inputs": [
        {
          "internalType": "uint256",
          "name": "",
          "type": "uint256"
        }
      ],
      "name": "crossChainTransferPending",
      "outputs": [
        {
          "internalType": "bool",
          "name": "",
          "type": "bool"
        }
      ],
      "stateMutability": "view",
      "type": "function"
    },
    {
      "inputs": [],
      "name": "hemDealer",
      "outputs": [
        {
          "internalType": "contract HemDealer",
          "name": "",
          "type": "address"
        }
      ],
      "stateMutability": "view",
      "type": "function"
    },
    {
      "inputs": [
        {
          "internalType": "uint256",
          "name": "carId",
          "type": "uint256"
        },
        {
          "internalType": "uint256",
          "name": "targetChainId",
          "type": "uint256"
        },
        {
          "internalType": "uint256",
          "name": "relayerFeePct",
          "type": "uint256"
        },
        {
          "internalType": "uint256",
          "name": "quoteTimestamp",
          "type": "uint256"
        }
      ],
      "name": "initiateCrossChainTransfer",
      "outputs": [],
      "stateMutability": "payable",
      "type": "function"
    },
    {
      "inputs": [
        {
          "internalType": "address",
          "name": "token",
          "type": "address"
        }
      ],
      "name": "isSupportedToken",
      "outputs": [
        {
          "internalType": "bool",
          "name": "",
          "type": "bool"
        }
      ],
      "stateMutability": "pure",
      "type": "function"
    },
    {
      "inputs": [
        {
          "internalType": "uint256",
          "name": "carId",
          "type": "uint256"
        }
      ],
      "name": "isTransferTimedOut",
      "outputs": [
        {
          "internalType": "bool",
          "name": "",
          "type": "bool"
        }
      ],
      "stateMutability": "view",
      "type": "function"
    },
    {
      "inputs": [],
      "name": "owner",
      "outputs": [
        {
          "internalType": "address",
          "name": "",
          "type": "address"
        }
      ],
      "stateMutability": "view",
      "type": "function"
    },
    {
      "inputs": [
        {
          "internalType": "bytes32",
          "name": "",
          "type": "bytes32"
        }
      ],
      "name": "processedMessages",
      "outputs": [
        {
          "internalType": "bool",
          "name": "",
          "type": "bool"
        }
      ],
      "stateMutability": "view",
      "type": "function"
    },
    {
      "inputs": [
        {
          "internalType": "bytes",
          "name": "message",
          "type": "bytes"
        },
        {
          "internalType": "uint256",
          "name": "sourceChainId",
          "type": "uint256"
        }
      ],
      "name": "receiveCrossChainTransfer",
      "outputs": [],
      "stateMutability": "nonpayable",
      "type": "function"
    },
    {
      "inputs": [],
      "name": "renounceOwnership",
      "outputs": [],
      "stateMutability": "nonpayable",
      "type": "function"
    },
    {
      "inputs": [
        {
          "internalType": "uint256",
          "name": "",
          "type": "uint256"
        }
      ],
      "name": "sourceChainIds",
      "outputs": [
        {
          "internalType": "uint256",
          "name": "",
          "type": "uint256"
        }
      ],
      "stateMutability": "view",
      "type": "function"
    },
    {
      "inputs": [],
      "name": "spokePool",
      "outputs": [
        {
          "internalType": "contract ISpokePool",
          "name": "",
          "type": "address"
        }
      ],
      "stateMutability": "view",
      "type": "function"
    },
    {
      "inputs": [
        {
          "internalType": "bytes32",
          "name": "",
          "type": "bytes32"
        }
      ],
      "name": "transferHashes",
      "outputs": [
        {
          "internalType": "uint256",
          "name": "",
          "type": "uint256"
        }
      ],
      "stateMutability": "view",
      "type": "function"
    },
    {
      "inputs": [
        {
          "internalType": "uint256",
          "name": "",
          "type": "uint256"
        }
      ],
      "name": "transferInitiatedAt",
      "outputs": [
        {
          "internalType": "uint256",
          "name": "",
          "type": "uint256"
        }
      ],
      "stateMutability": "view",
      "type": "function"
    },
    {
      "inputs": [
        {
          "internalType": "address",
          "name": "newOwner",
          "type": "address"
        }
      ],
      "name": "transferOwnership",
      "outputs": [],
      "stateMutability": "nonpayable",
      "type": "function"
    },
    {
      "inputs": [
        {
          "internalType": "uint256",
          "name": "amount",
          "type": "uint256"
        },
        {
          "internalType": "uint256",
          "name": "relayerFeePct",
          "type": "uint256"
        },
        {
          "internalType": "uint256",
          "name": "quoteTimestamp",
          "type": "uint256"
        }
      ],
      "name": "validateQuote",
      "outputs": [
        {
          "internalType": "bool",
          "name": "",
          "type": "bool"
        }
      ],
      "stateMutability": "view",
      "type": "function"
    },
    {
      "stateMutability": "payable",
      "type": "receive"
    }
  ],
  "bytecode": "0x60a0346200018657601f6200197938819003918201601f19168301916001600160401b038311848410176200018b5780849260609460405283398101031262000186576200004d81620001a1565b906200006a60406200006260208401620001a1565b9201620001a1565b906000549260018060a01b03199233848616176000556040519460018060a01b03938491823391167f8be0079c531659141344cd1fd0a4f28419497f9722a3daafe3b4186f6b6457e0600080a3600180551694851562000150575082169384156200010b576080521681600254161760025560035416176003556040516117c29081620001b782396080518181816103120152818161052d01526108750152f35b60405162461bcd60e51b815260206004820152601560248201527f496e76616c6964204163726f737320526f7574657200000000000000000000006044820152606490fd5b62461bcd60e51b8152602060048201526011602482015270125b9d985b1a590814dc1bdad9541bdbdb607a1b6044820152606490fd5b600080fd5b634e487b7160e01b600052604160045260246000fd5b51906001600160a01b0382168203620001865756fe6080604052600436101561001b575b361561001957600080fd5b005b6000803560e01c80632351d10f14610b5a578063240028e814610b2c5780634f8359f114610b035780634ffb6db614610ac757806370f4e7f214610a08578063715018a6146109ae578063757d6d9b1461083557806378df8f7d1461080c57806384dfc55d146107dd57806387065deb146107bf57806388ba16ab146107905780638da5cb5b146107695780639efeff1c1461073f5780639f725a1d1461055c578063afdac3d614610517578063b54a18d614610240578063ceb6c12f14610216578063ef821fe8146101ec578063f2fde38b146101215763f975951814610103575061000e565b3461011e578060031936011261011e57602060405160328152f35b80fd5b503461011e57602036600319011261011e5761013b611265565b61014361127b565b6001600160a01b0390811690811561019857600054826bffffffffffffffffffffffff60a01b821617600055167f8be0079c531659141344cd1fd0a4f28419497f9722a3daafe3b4186f6b6457e0600080a380f35b60405162461bcd60e51b815260206004820152602660248201527f4f776e61626c653a206e6577206f776e657220697320746865207a65726f206160448201526564647265737360d01b6064820152608490fd5b503461011e57602036600319011261011e5760406020916004358152600883522054604051908152f35b503461011e57602036600319011261011e5760406020916004358152600683522054604051908152f35b50608036600319011261011e57600435602480359180845260206004815260ff6040862054166104d457468414610491576002546040516305e8be1960e41b8152600481018490526001600160a01b039291879082908790829087165afa908115610486578791610464575b5081810190838251163303610430578790848351169661030f6102206101c08401519301986103018a516040519586938c8b8601526040850152466060850152608084015260a08084015260c08301906116d5565b03601f198101845283611229565b857f00000000000000000000000000000000000000000000000000000000000000001690813b1561042c57839163ffffffff8b6103916040519687958694859463cf79953b60e01b86521660048501523090840152866044840152346064840152604435608484015260643560a484015260e060c484015260e48301906116b0565b039134905af1801561042157610405575b50928060409392867f1e5ef349341852f5f199e2bce07397e4d55c83226632236095641c8af9af549f965260048452848a20600160ff198254161790556008845242858b20556005845246858b205551169551511695825191468352820152a480f35b61041190939293611200565b61041d579086386103a2565b8680fd5b6040513d84823e3d90fd5b8380fd5b60405162461bcd60e51b815260048101849052600d818801526c2737ba1031b0b91037bbb732b960991b6044820152606490fd5b61048091503d8089833e6104788183611229565b810190611489565b386102ac565b6040513d89823e3d90fd5b606490601f846040519262461bcd60e51b845260048401528201527f53616d6520636861696e207472616e73666572206e6f7420616c6c6f776564006044820152fd5b6064906018846040519262461bcd60e51b845260048401528201527f5472616e7366657220616c72656164792070656e64696e6700000000000000006044820152fd5b503461011e578060031936011261011e576040517f00000000000000000000000000000000000000000000000000000000000000006001600160a01b03168152602090f35b503461011e5760208060031936011261073b57600435908183526004815260ff60408420541615610701578183526008815260408320546201518081018091116106ed574211156106b0576002546040516305e8be1960e41b8152600481018490526001600160a01b03929185908290602490829087165afa80156106a5578291869161068b575b500190828251163314801561067f575b1561064a57600590848652600481526040862060ff19815416905560088152856040812055528360408120555116907fad5d1da63a71147a146daa2d4c6cdc9ab57b00bd41306f855d0afe41c5ed28408380a380f35b6064906040519062461bcd60e51b82526004820152600e60248201526d139bdd08185d5d1a1bdc9a5e995960921b6044820152fd5b508285541633146105f4565b61069f91503d8088833e6104788183611229565b386105e4565b6040513d87823e3d90fd5b6064906040519062461bcd60e51b825260048201526016602482015275151c985b9cd9995c881b9bdd081d1a5b5959081bdd5d60521b6044820152fd5b634e487b7160e01b84526011600452602484fd5b6064906040519062461bcd60e51b8252600482015260136024820152722737903832b73234b733903a3930b739b332b960691b6044820152fd5b5080fd5b503461011e57602036600319011261011e5760406020916004358152600583522054604051908152f35b503461011e578060031936011261011e57546040516001600160a01b039091168152602090f35b503461011e57602036600319011261011e5760ff60406020926004358152600784522054166040519015158152f35b503461011e578060031936011261011e576020604051620151808152f35b503461011e57602036600319011261011e5760ff60406020926004358152600484522054166040519015158152f35b503461011e578060031936011261011e576002546040516001600160a01b039091168152602090f35b5060a036600319011261011e576001600160a01b03600435602435828116908190036109a95760026001541461096457600260015581340361091f5783927f00000000000000000000000000000000000000000000000000000000000000001691823b1561091a576101048492604051948593849263cf79953b60e01b845263ffffffff60443516600485015260248401528560448401526064830152606435608483015260843560a483015260e060c48301528460e483015234905af1801561042157610906575b506001805580f35b61090f90611200565b61011e5780386108fe565b505050fd5b60405162461bcd60e51b815260206004820152601860248201527f496e636f7272656374207061796d656e7420616d6f756e7400000000000000006044820152606490fd5b60405162461bcd60e51b815260206004820152601f60248201527f5265656e7472616e637947756172643a207265656e7472616e742063616c6c006044820152606490fd5b600080fd5b503461011e578060031936011261011e576109c761127b565b600080546001600160a01b0319811682556001600160a01b03167f8be0079c531659141344cd1fd0a4f28419497f9722a3daafe3b4186f6b6457e08280a380f35b503461011e57606036600319011261011e57604435420390428211610ab35761012c8211610a7e57603260243511610a4557602060405160018152f35b60405162461bcd60e51b81526020600482015260116024820152700a6d8d2e0e0c2ceca40e8dede40d0d2ced607b1b6044820152606490fd5b60405162461bcd60e51b815260206004820152600d60248201526c145d5bdd1948195e1c1a5c9959609a1b6044820152606490fd5b634e487b7160e01b81526011600452602490fd5b503461011e57602036600319011261011e5760043581526008602052604081205490620151808201809211610ab3576020826040519042118152f35b503461011e578060031936011261011e576003546040516001600160a01b039091168152602090f35b503461011e57602036600319011261011e5760206001600160a01b03610b50611265565b1615604051908152f35b503461011e57604036600319011261011e576004356001600160401b03811161073b573660238201121561073b5780600401359082610b988361124a565b91610ba66040519384611229565b838352602083019336602482840101116111fc57806024602093018637830101526003546001600160a01b0316338190036111c057815182019260408360208601950312611106575190604083019384516001600160401b03811161041d5784019181603f8401121561041d57610c29602092846040856024970151910161130a565b50604051928380926324f6578760e21b82528660048301525afa9081156106a5578591611186575b501561114f57808452600760205260ff60408520541661110a578352600760205260408320805460ff19166001179055805181019160c08284031261042c57516060820151929091906001600160a01b03841684036111065760a08201519160c0810151916001600160401b03831161041d57610cd59260208092019201016113e1565b6002546040516305e8be1960e41b815260048101859052926001600160a01b03909116918684602481865afa9384156104865787946110ea575b506040840151936060810151608082015160a083015160c08401519060e085015192610100860151946040519a8b6001600160401b0360e08281810110920111176110d65760e08c016040528b5260208b015260408a01526060890152608088015260a087015260c08601526101208101519261014082015161016083015160038110156110c25761018084015190600282101561106e576101a08501519260048410156110ae57604051978860c08101106001600160401b0360c08b01111761109a5760c089016040528852602088015260408701526060860152608085015260a08401526101e081015190610200810151604051928360608101106001600160401b03606086011117611086576060840160405283526040518060208101106001600160401b0360208301111761108657602081016040528a8152602084015260408301526102a060018060a01b039101511692843b1561108257610f2160405196636c3f387160e01b885260c060048901528760c0610f03610eee610ed9610ec2610eaa875160e060c48901526101a48801906116b0565b602088015160c3199760e48982850301910152611730565b8d60408801519061010488828503019101526116b0565b60608601518d820386016101248f01526116b0565b60808501518c820385016101448e01526116b0565b9260a08101516101648c0152015190898303016101848a01526116b0565b60031987820301602488015281518152610f4a602083015160c0602084015260c08301906116b0565b916040810151600381101561106e5760408301526060810151600281101561106e5760608301526080810151600481101561106e578b9795610fe78a9893968a968660a0808d9b610ff99860808e9c015201519101526003198782030160448801526040610fd6610fc484516060855260608501906116b0565b602085015184820360208601526116b0565b920151906040818403910152611730565b848103600319016064860152906116d5565b9046608484015260a483015203925af1801561106357611050575b506040514681526001600160a01b03909216917f17a35fad4f245f65a33dfc21a8118014a34e233321c287ab88ff612f9e1147f890602090a380f35b61105c90939193611200565b9138611014565b6040513d86823e3d90fd5b634e487b7160e01b8c52602160045260248cfd5b8880fd5b634e487b7160e01b8b52604160045260248bfd5b634e487b7160e01b8e52604160045260248efd5b634e487b7160e01b8d52602160045260248dfd5b634e487b7160e01b8b52602160045260248bfd5b634e487b7160e01b8f52604160045260248ffd5b6110ff9194503d8089833e6104788183611229565b9238610d0f565b8480fd5b60405162461bcd60e51b815260206004820152601960248201527f4d65737361676520616c72656164792070726f636573736564000000000000006044820152606490fd5b60405162461bcd60e51b815260206004820152600f60248201526e496e76616c6964206d65737361676560881b6044820152606490fd5b90506020813d6020116111b8575b816111a160209383611229565b81010312611106576111b29061147c565b38610c51565b3d9150611194565b60405162461bcd60e51b815260206004820152601460248201527313db9b1e481c9bdd5d195c8818d85b8818d85b1b60621b6044820152606490fd5b8280fd5b6001600160401b03811161121357604052565b634e487b7160e01b600052604160045260246000fd5b90601f801991011681019081106001600160401b0382111761121357604052565b6001600160401b03811161121357601f01601f191660200190565b600435906001600160a01b03821682036109a957565b6000546001600160a01b0316330361128f57565b606460405162461bcd60e51b815260206004820152602060248201527f4f776e61626c653a2063616c6c6572206973206e6f7420746865206f776e65726044820152fd5b51906001600160a01b03821682036109a957565b60005b8381106112fa5750506000910152565b81810151838201526020016112ea565b909291926113178161124a565b916113256040519384611229565b8294828452828201116109a957602061133f9301906112e7565b565b9080601f830112156109a957815161135b9260200161130a565b90565b9080601f830112156109a9578151906001600160401b0392838311611213578260051b6040519460209461139486840188611229565b86528480870192840101938085116109a957858401925b8584106113bc575050505050505090565b83518381116109a95787916113d6848480948a0101611341565b8152019301926113ab565b91909160a0818403126109a957604051906001600160401b039060a0830182811184821017611213576040528294611418826112d3565b845260208201518381116109a95781611432918401611341565b602085015260408201518381116109a9578161144f918401611341565b60408501526060820151606085015260808201519283116109a9576080926114779201611341565b910152565b519081151582036109a957565b906020828203126109a95781516001600160401b03928382116109a95701906102e09283838303126109a9576040519384018481108282111761121357604052825184526114d9602084016112d3565b602085015260408301518181116109a957826114f6918501611341565b604085015260608301518181116109a9578261151391850161135e565b606085015260808301518181116109a95782611530918501611341565b608085015260a08301518181116109a9578261154d918501611341565b60a085015260c08301518181116109a9578261156a918501611341565b60c085015260e083015160e0850152610100808401518281116109a95783611593918601611341565b908501526101208084015190850152610140808401518281116109a957836115bc918601611341565b90850152610160808401519060038210156109a957850152610180808401519060028210156109a9578501526101a0808401519060048210156109a9578501526101c080840151908501526101e0808401518281116109a95783611621918601611341565b90850152610200808401518281116109a9578361163f91860161135e565b9085015261022091828401519182116109a95761165d9184016113e1565b9083015261024061166f81830161147c565b9083015261026061168181830161147c565b9083015261028080820151908301526102a061169e8183016112d3565b908301526102c0809101519082015290565b906020916116c9815180928185528580860191016112e7565b601f01601f1916010190565b61135b9160018060a01b0382511681526080611715611703602085015160a0602086015260a08501906116b0565b604085015184820360408601526116b0565b926060810151606084015201519060808184039101526116b0565b90808183519182825260208080809401958560051b01019501936000915b84831061175e5750505050505090565b909192939495848061177c600193601f198682030187528a516116b0565b980193019301919493929061174e56fea264697066735822122097748712984127c1b1500035a1e7e5e6efc2e9a52cbd0f4e1d33c1048237e05a64736f6c63430008130033",
  "linkReferences": {},
  "deployedLinkReferences": {}
}